{
  "_format": "hh-sol-artifact-1",
  "contractName": "Timelock",
  "sourceName": "contracts/Timelock.sol",
  "abi": [
    {
      "inputs": [
        {
          "internalType": "address",
          "name": "admin_",
          "type": "address"
        },
        {
          "internalType": "uint256",
          "name": "delay_",
          "type": "uint256"
        }
      ],
      "stateMutability": "nonpayable",
      "type": "constructor"
    },
    {
      "anonymous": false,
      "inputs": [
        {
          "indexed": true,
          "internalType": "bytes32",
          "name": "txHash",
          "type": "bytes32"
        },
        {
          "indexed": true,
          "internalType": "address",
          "name": "target",
          "type": "address"
        },
        {
          "indexed": false,
          "internalType": "uint256",
          "name": "value",
          "type": "uint256"
        },
        {
          "indexed": false,
          "internalType": "string",
          "name": "signature",
          "type": "string"
        },
        {
          "indexed": false,
          "internalType": "bytes",
          "name": "data",
          "type": "bytes"
        },
        {
          "indexed": false,
          "internalType": "uint256",
          "name": "eta",
          "type": "uint256"
        }
      ],
      "name": "CancelTransaction",
      "type": "event"
    },
    {
      "anonymous": false,
      "inputs": [
        {
          "indexed": true,
          "internalType": "bytes32",
          "name": "txHash",
          "type": "bytes32"
        },
        {
          "indexed": true,
          "internalType": "address",
          "name": "target",
          "type": "address"
        },
        {
          "indexed": false,
          "internalType": "uint256",
          "name": "value",
          "type": "uint256"
        },
        {
          "indexed": false,
          "internalType": "string",
          "name": "signature",
          "type": "string"
        },
        {
          "indexed": false,
          "internalType": "bytes",
          "name": "data",
          "type": "bytes"
        },
        {
          "indexed": false,
          "internalType": "uint256",
          "name": "eta",
          "type": "uint256"
        }
      ],
      "name": "ExecuteTransaction",
      "type": "event"
    },
    {
      "anonymous": false,
      "inputs": [
        {
          "indexed": false,
          "internalType": "uint256",
          "name": "gas",
          "type": "uint256"
        }
      ],
      "name": "Log",
      "type": "event"
    },
    {
      "anonymous": false,
      "inputs": [
        {
          "indexed": true,
          "internalType": "address",
          "name": "newAdmin",
          "type": "address"
        }
      ],
      "name": "NewAdmin",
      "type": "event"
    },
    {
      "anonymous": false,
      "inputs": [
        {
          "indexed": true,
          "internalType": "uint256",
          "name": "newDelay",
          "type": "uint256"
        }
      ],
      "name": "NewDelay",
      "type": "event"
    },
    {
      "anonymous": false,
      "inputs": [
        {
          "indexed": true,
          "internalType": "address",
          "name": "newPendingAdmin",
          "type": "address"
        }
      ],
      "name": "NewPendingAdmin",
      "type": "event"
    },
    {
      "anonymous": false,
      "inputs": [
        {
          "indexed": true,
          "internalType": "bytes32",
          "name": "txHash",
          "type": "bytes32"
        },
        {
          "indexed": true,
          "internalType": "address",
          "name": "target",
          "type": "address"
        },
        {
          "indexed": false,
          "internalType": "uint256",
          "name": "value",
          "type": "uint256"
        },
        {
          "indexed": false,
          "internalType": "string",
          "name": "signature",
          "type": "string"
        },
        {
          "indexed": false,
          "internalType": "bytes",
          "name": "data",
          "type": "bytes"
        },
        {
          "indexed": false,
          "internalType": "uint256",
          "name": "eta",
          "type": "uint256"
        }
      ],
      "name": "QueueTransaction",
      "type": "event"
    },
    {
      "stateMutability": "payable",
      "type": "fallback"
    },
    {
      "inputs": [],
      "name": "GRACE_PERIOD",
      "outputs": [
        {
          "internalType": "uint256",
          "name": "",
          "type": "uint256"
        }
      ],
      "stateMutability": "view",
      "type": "function"
    },
    {
      "inputs": [],
      "name": "MAXIMUM_DELAY",
      "outputs": [
        {
          "internalType": "uint256",
          "name": "",
          "type": "uint256"
        }
      ],
      "stateMutability": "view",
      "type": "function"
    },
    {
      "inputs": [],
      "name": "MINIMUM_DELAY",
      "outputs": [
        {
          "internalType": "uint256",
          "name": "",
          "type": "uint256"
        }
      ],
      "stateMutability": "view",
      "type": "function"
    },
    {
      "inputs": [],
      "name": "acceptAdmin",
      "outputs": [],
      "stateMutability": "nonpayable",
      "type": "function"
    },
    {
      "inputs": [],
      "name": "admin",
      "outputs": [
        {
          "internalType": "address",
          "name": "",
          "type": "address"
        }
      ],
      "stateMutability": "view",
      "type": "function"
    },
    {
      "inputs": [
        {
          "internalType": "address",
          "name": "target",
          "type": "address"
        },
        {
          "internalType": "uint256",
          "name": "value",
          "type": "uint256"
        },
        {
          "internalType": "string",
          "name": "signature",
          "type": "string"
        },
        {
          "internalType": "bytes",
          "name": "data",
          "type": "bytes"
        },
        {
          "internalType": "uint256",
          "name": "eta",
          "type": "uint256"
        }
      ],
      "name": "cancelTransaction",
      "outputs": [],
      "stateMutability": "nonpayable",
      "type": "function"
    },
    {
      "inputs": [],
      "name": "delay",
      "outputs": [
        {
          "internalType": "uint256",
          "name": "",
          "type": "uint256"
        }
      ],
      "stateMutability": "view",
      "type": "function"
    },
    {
      "inputs": [
        {
          "internalType": "address",
          "name": "target",
          "type": "address"
        },
        {
          "internalType": "uint256",
          "name": "value",
          "type": "uint256"
        },
        {
          "internalType": "string",
          "name": "signature",
          "type": "string"
        },
        {
          "internalType": "bytes",
          "name": "data",
          "type": "bytes"
        },
        {
          "internalType": "uint256",
          "name": "eta",
          "type": "uint256"
        }
      ],
      "name": "executeTransaction",
      "outputs": [
        {
          "internalType": "bytes",
          "name": "",
          "type": "bytes"
        }
      ],
      "stateMutability": "payable",
      "type": "function"
    },
    {
      "inputs": [],
      "name": "pendingAdmin",
      "outputs": [
        {
          "internalType": "address",
          "name": "",
          "type": "address"
        }
      ],
      "stateMutability": "view",
      "type": "function"
    },
    {
      "inputs": [
        {
          "internalType": "address",
          "name": "target",
          "type": "address"
        },
        {
          "internalType": "uint256",
          "name": "value",
          "type": "uint256"
        },
        {
          "internalType": "string",
          "name": "signature",
          "type": "string"
        },
        {
          "internalType": "bytes",
          "name": "data",
          "type": "bytes"
        },
        {
          "internalType": "uint256",
          "name": "eta",
          "type": "uint256"
        }
      ],
      "name": "queueTransaction",
      "outputs": [
        {
          "internalType": "bytes32",
          "name": "",
          "type": "bytes32"
        }
      ],
      "stateMutability": "nonpayable",
      "type": "function"
    },
    {
      "inputs": [
        {
          "internalType": "bytes32",
          "name": "",
          "type": "bytes32"
        }
      ],
      "name": "queuedTransactions",
      "outputs": [
        {
          "internalType": "bool",
          "name": "",
          "type": "bool"
        }
      ],
      "stateMutability": "view",
      "type": "function"
    },
    {
      "inputs": [
        {
          "internalType": "uint256",
          "name": "delay_",
          "type": "uint256"
        }
      ],
      "name": "setDelay",
      "outputs": [],
      "stateMutability": "nonpayable",
      "type": "function"
    },
    {
      "inputs": [
        {
          "internalType": "address",
          "name": "pendingAdmin_",
          "type": "address"
        }
      ],
      "name": "setPendingAdmin",
      "outputs": [],
      "stateMutability": "nonpayable",
      "type": "function"
    },
    {
      "inputs": [
        {
          "internalType": "address",
          "name": "boxAddress",
          "type": "address"
        }
      ],
      "name": "transferFundsToGov",
      "outputs": [],
      "stateMutability": "payable",
      "type": "function"
    },
    {
      "stateMutability": "payable",
      "type": "receive"
    }
  ],
  "bytecode": "0x608060405234801561001057600080fd5b5060405161103738038061103783398101604081905261002f9161014d565b60018110156100ab5760405162461bcd60e51b815260206004820152603760248201527f54696d656c6f636b3a3a636f6e7374727563746f723a2044656c6179206d757360448201527f7420657863656564206d696e696d756d2064656c61792e00000000000000000060648201526084015b60405180910390fd5b620697808111156101245760405162461bcd60e51b815260206004820152603860248201527f54696d656c6f636b3a3a73657444656c61793a2044656c6179206d757374206e60448201527f6f7420657863656564206d6178696d756d2064656c61792e000000000000000060648201526084016100a2565b600080546001600160a01b0319166001600160a01b039390931692909217909155600255610187565b6000806040838503121561016057600080fd5b82516001600160a01b038116811461017757600080fd5b6020939093015192949293505050565b610ea1806101966000396000f3fe6080604052600436106100b15760003560e01c80630825f38f146100ed5780630e18b68114610116578063267822471461012d5780633a66f9011461015a5780634dd18bf514610188578063591fcdfe146101a85780636a42b8f8146101c85780637d645fab146101de578063b1b43ae5146101f5578063c1a287e21461020a578063e177246e14610221578063ed13dfb114610241578063f2b0653714610254578063f851a44014610294576100b8565b366100b857005b7f909c57d5c6ac08245cf2a6de3900e2b868513fa59099b92b27d8db823d92df9c5a60405190815260200160405180910390a1005b6101006100fb366004610c16565b6102b4565b60405161010d9190610db8565b60405180910390f35b34801561012257600080fd5b5061012b61053f565b005b34801561013957600080fd5b5060015461014d906001600160a01b031681565b60405161010d9190610d58565b34801561016657600080fd5b5061017a610175366004610c16565b610603565b60405190815260200161010d565b34801561019457600080fd5b5061012b6101a3366004610bfb565b61073e565b3480156101b457600080fd5b5061012b6101c3366004610c16565b6107f8565b3480156101d457600080fd5b5061017a60025481565b3480156101ea57600080fd5b5061017a6206978081565b34801561020157600080fd5b5061017a600181565b34801561021657600080fd5b5061017a6202a30081565b34801561022d57600080fd5b5061012b61023c366004610cc6565b61090c565b61012b61024f366004610bfb565b610a8a565b34801561026057600080fd5b5061028461026f366004610cc6565b60036020526000908152604090205460ff1681565b604051901515815260200161010d565b3480156102a057600080fd5b5060005461014d906001600160a01b031681565b6060600086868686866040516020016102d1959493929190610d6c565b60408051601f1981840301815291815281516020928301206000818152600390935291205490915060ff166103615760405162461bcd60e51b815260206004820152603d6024820152600080516020610e7583398151915260448201527f616e73616374696f6e206861736e2774206265656e207175657565642e00000060648201526084015b60405180910390fd5b824210156103d35760405162461bcd60e51b81526020600482015260456024820152600080516020610e7583398151915260448201527f616e73616374696f6e206861736e2774207375727061737365642074696d65206064820152643637b1b59760d91b608482015260a401610358565b6103e0836202a300610b57565b4211156104395760405162461bcd60e51b81526020600482015260336024820152600080516020610e7583398151915260448201527230b739b0b1ba34b7b71034b99039ba30b6329760691b6064820152608401610358565b6000818152600360205260409020805460ff19169055845160609061045f57508361048b565b858051906020012085604051602001610479929190610d0b565b60405160208183030381529060405290505b60405181906001600160a01b038a16906104a6908390610d3c565b6000604051808303816000865af19150503d80600081146104e3576040519150601f19603f3d011682016040523d82523d6000602084013e6104e8565b606091505b505050886001600160a01b0316837fa560e3198060a2f10670c1ec5b403077ea6ae93ca8de1c32b451dc1a943cd6e78a8a8a8a60405161052b9493929190610dcb565b60405180910390a398975050505050505050565b6001546001600160a01b031633146105ba5760405162461bcd60e51b815260206004820152603860248201527f54696d656c6f636b3a3a61636365707441646d696e3a2043616c6c206d7573746044820152771031b7b6b290333937b6903832b73234b733a0b236b4b71760411b6064820152608401610358565b60008054336001600160a01b0319918216811783556001805490921690915560405190917f71614071b88dee5e0b2ae578a9dd7b2ebbe9ae832ba419dc0242cd065a290b6c91a2565b60006106186002546106124290565b90610b57565b82101561069f5760405162461bcd60e51b815260206004820152604960248201527f54696d656c6f636b3a3a71756575655472616e73616374696f6e3a204573746960448201527f6d6174656420657865637574696f6e20626c6f636b206d757374207361746973606482015268333c903232b630bc9760b91b608482015260a401610358565b600086868686866040516020016106ba959493929190610d6c565b60408051601f19818403018152828252805160209182012060008181526003909252919020805460ff1916600117905591506001600160a01b0388169082907f76e2796dc3a81d57b0e8504b647febcbeeb5f4af818e164f11eef8131a6a763f9061072c908a908a908a908a90610dcb565b60405180910390a39695505050505050565b3330146107ae5760405162461bcd60e51b815260206004820152603860248201527f54696d656c6f636b3a3a73657450656e64696e6741646d696e3a2043616c6c2060448201527736bab9ba1031b7b6b290333937b6902a34b6b2b637b1b59760411b6064820152608401610358565b600180546001600160a01b0319166001600160a01b0383169081179091556040517f69d78e38a01985fbb1462961809b4b2d65531bc93b2b94037f3334b82ca4a75690600090a250565b6000546001600160a01b031633146108725760405162461bcd60e51b815260206004820152603760248201527f54696d656c6f636b3a3a63616e63656c5472616e73616374696f6e3a2043616c604482015276361036bab9ba1031b7b6b290333937b69030b236b4b71760491b6064820152608401610358565b6000858585858560405160200161088d959493929190610d6c565b60408051601f19818403018152828252805160209182012060008181526003909252919020805460ff1916905591506001600160a01b0387169082907f2fffc091a501fd91bfbff27141450d3acb40fb8e6d8382b243ec7a812a3aaf87906108fc908990899089908990610dcb565b60405180910390a3505050505050565b3330146109755760405162461bcd60e51b815260206004820152603160248201527f54696d656c6f636b3a3a73657444656c61793a2043616c6c206d75737420636f60448201527036b290333937b6902a34b6b2b637b1b59760791b6064820152608401610358565b60018110156109e35760405162461bcd60e51b815260206004820152603460248201527f54696d656c6f636b3a3a73657444656c61793a2044656c6179206d75737420656044820152733c31b2b2b21036b4b734b6bab6903232b630bc9760611b6064820152608401610358565b62069780811115610a575760405162461bcd60e51b815260206004820152603860248201527f54696d656c6f636b3a3a73657444656c61793a2044656c6179206d757374206e60448201527737ba1032bc31b2b2b21036b0bc34b6bab6903232b630bc9760411b6064820152608401610358565b600281905560405181907f948b1f6a42ee138b7e34058ba85a37f716d55ff25ff05a763f15bed6a04c8d2c90600090a250565b6000546001600160a01b03163314610af65760405162461bcd60e51b815260206004820152602960248201527f596f7520646f206e6f742068617665207065726d697373696f6e20746f206d6f6044820152683b3290333ab732399760b91b6064820152608401610358565b6040516351cff8d960e01b81526001600160a01b038216906351cff8d990610b22903390600401610d58565b600060405180830381600087803b158015610b3c57600080fd5b505af1158015610b50573d6000803e3d6000fd5b5050505050565b6000610b638284610e08565b9392505050565b60006001600160401b0380841115610b8457610b84610e5e565b604051601f8501601f19908116603f01168101908282118183101715610bac57610bac610e5e565b81604052809350858152868686011115610bc557600080fd5b858560208301376000602087830101525050509392505050565b80356001600160a01b0381168114610bf657600080fd5b919050565b600060208284031215610c0d57600080fd5b610b6382610bdf565b600080600080600060a08688031215610c2e57600080fd5b610c3786610bdf565b94506020860135935060408601356001600160401b0380821115610c5a57600080fd5b818801915088601f830112610c6e57600080fd5b610c7d89833560208501610b6a565b94506060880135915080821115610c9357600080fd5b508601601f81018813610ca557600080fd5b610cb488823560208401610b6a565b95989497509295608001359392505050565b600060208284031215610cd857600080fd5b5035919050565b60008151808452610cf7816020860160208601610e2e565b601f01601f19169290920160200192915050565b6001600160e01b0319831681528151600090610d2e816004850160208701610e2e565b919091016004019392505050565b60008251610d4e818460208701610e2e565b9190910192915050565b6001600160a01b0391909116815260200190565b60018060a01b038616815284602082015260a060408201526000610d9360a0830186610cdf565b8281036060840152610da58186610cdf565b9150508260808301529695505050505050565b602081526000610b636020830184610cdf565b848152608060208201526000610de46080830186610cdf565b8281036040840152610df68186610cdf565b91505082606083015295945050505050565b60008219821115610e2957634e487b7160e01b600052601160045260246000fd5b500190565b60005b83811015610e49578181015183820152602001610e31565b83811115610e58576000848401525b50505050565b634e487b7160e01b600052604160045260246000fdfe54696d656c6f636b3a3a657865637574655472616e73616374696f6e3a205472a164736f6c6343000806000a",
  "linkReferences": {},
  "deployedLinkReferences": {}
}