{
  "_format": "hh-sol-artifact-1",
  "contractName": "MyGovernor",
  "sourceName": "contracts/MyGovernor.sol",
  "abi": [
    {
      "inputs": [
        {
          "internalType": "contract IVotes",
          "name": "_token",
          "type": "address"
        },
        {
          "internalType": "contract ICompoundTimelock",
          "name": "_timelock",
          "type": "address"
        }
      ],
      "stateMutability": "nonpayable",
      "type": "constructor"
    },
    {
      "inputs": [],
      "name": "Empty",
      "type": "error"
    },
    {
      "anonymous": false,
      "inputs": [
        {
          "indexed": false,
          "internalType": "uint256",
          "name": "proposalId",
          "type": "uint256"
        }
      ],
      "name": "ProposalCanceled",
      "type": "event"
    },
    {
      "anonymous": false,
      "inputs": [
        {
          "indexed": false,
          "internalType": "uint256",
          "name": "proposalId",
          "type": "uint256"
        },
        {
          "indexed": false,
          "internalType": "address",
          "name": "proposer",
          "type": "address"
        },
        {
          "indexed": false,
          "internalType": "address[]",
          "name": "targets",
          "type": "address[]"
        },
        {
          "indexed": false,
          "internalType": "uint256[]",
          "name": "values",
          "type": "uint256[]"
        },
        {
          "indexed": false,
          "internalType": "string[]",
          "name": "signatures",
          "type": "string[]"
        },
        {
          "indexed": false,
          "internalType": "bytes[]",
          "name": "calldatas",
          "type": "bytes[]"
        },
        {
          "indexed": false,
          "internalType": "uint256",
          "name": "startBlock",
          "type": "uint256"
        },
        {
          "indexed": false,
          "internalType": "uint256",
          "name": "endBlock",
          "type": "uint256"
        },
        {
          "indexed": false,
          "internalType": "string",
          "name": "description",
          "type": "string"
        }
      ],
      "name": "ProposalCreated",
      "type": "event"
    },
    {
      "anonymous": false,
      "inputs": [
        {
          "indexed": false,
          "internalType": "uint256",
          "name": "proposalId",
          "type": "uint256"
        }
      ],
      "name": "ProposalExecuted",
      "type": "event"
    },
    {
      "anonymous": false,
      "inputs": [
        {
          "indexed": false,
          "internalType": "uint256",
          "name": "proposalId",
          "type": "uint256"
        },
        {
          "indexed": false,
          "internalType": "uint256",
          "name": "eta",
          "type": "uint256"
        }
      ],
      "name": "ProposalQueued",
      "type": "event"
    },
    {
      "anonymous": false,
      "inputs": [
        {
          "indexed": false,
          "internalType": "uint256",
          "name": "oldProposalThreshold",
          "type": "uint256"
        },
        {
          "indexed": false,
          "internalType": "uint256",
          "name": "newProposalThreshold",
          "type": "uint256"
        }
      ],
      "name": "ProposalThresholdSet",
      "type": "event"
    },
    {
      "anonymous": false,
      "inputs": [
        {
          "indexed": false,
          "internalType": "address",
          "name": "oldTimelock",
          "type": "address"
        },
        {
          "indexed": false,
          "internalType": "address",
          "name": "newTimelock",
          "type": "address"
        }
      ],
      "name": "TimelockChange",
      "type": "event"
    },
    {
      "anonymous": false,
      "inputs": [
        {
          "indexed": true,
          "internalType": "address",
          "name": "voter",
          "type": "address"
        },
        {
          "indexed": false,
          "internalType": "uint256",
          "name": "proposalId",
          "type": "uint256"
        },
        {
          "indexed": false,
          "internalType": "uint8",
          "name": "support",
          "type": "uint8"
        },
        {
          "indexed": false,
          "internalType": "uint256",
          "name": "weight",
          "type": "uint256"
        },
        {
          "indexed": false,
          "internalType": "string",
          "name": "reason",
          "type": "string"
        }
      ],
      "name": "VoteCast",
      "type": "event"
    },
    {
      "anonymous": false,
      "inputs": [
        {
          "indexed": true,
          "internalType": "address",
          "name": "voter",
          "type": "address"
        },
        {
          "indexed": false,
          "internalType": "uint256",
          "name": "proposalId",
          "type": "uint256"
        },
        {
          "indexed": false,
          "internalType": "uint8",
          "name": "support",
          "type": "uint8"
        },
        {
          "indexed": false,
          "internalType": "uint256",
          "name": "weight",
          "type": "uint256"
        },
        {
          "indexed": false,
          "internalType": "string",
          "name": "reason",
          "type": "string"
        },
        {
          "indexed": false,
          "internalType": "bytes",
          "name": "params",
          "type": "bytes"
        }
      ],
      "name": "VoteCastWithParams",
      "type": "event"
    },
    {
      "anonymous": false,
      "inputs": [
        {
          "indexed": false,
          "internalType": "uint256",
          "name": "oldVotingDelay",
          "type": "uint256"
        },
        {
          "indexed": false,
          "internalType": "uint256",
          "name": "newVotingDelay",
          "type": "uint256"
        }
      ],
      "name": "VotingDelaySet",
      "type": "event"
    },
    {
      "anonymous": false,
      "inputs": [
        {
          "indexed": false,
          "internalType": "uint256",
          "name": "oldVotingPeriod",
          "type": "uint256"
        },
        {
          "indexed": false,
          "internalType": "uint256",
          "name": "newVotingPeriod",
          "type": "uint256"
        }
      ],
      "name": "VotingPeriodSet",
      "type": "event"
    },
    {
      "inputs": [],
      "name": "BALLOT_TYPEHASH",
      "outputs": [
        {
          "internalType": "bytes32",
          "name": "",
          "type": "bytes32"
        }
      ],
      "stateMutability": "view",
      "type": "function"
    },
    {
      "inputs": [],
      "name": "COUNTING_MODE",
      "outputs": [
        {
          "internalType": "string",
          "name": "",
          "type": "string"
        }
      ],
      "stateMutability": "pure",
      "type": "function"
    },
    {
      "inputs": [],
      "name": "EXTENDED_BALLOT_TYPEHASH",
      "outputs": [
        {
          "internalType": "bytes32",
          "name": "",
          "type": "bytes32"
        }
      ],
      "stateMutability": "view",
      "type": "function"
    },
    {
      "inputs": [],
      "name": "__acceptAdmin",
      "outputs": [],
      "stateMutability": "nonpayable",
      "type": "function"
    },
    {
      "inputs": [
        {
          "internalType": "uint256",
          "name": "proposalId",
          "type": "uint256"
        },
        {
          "internalType": "uint8",
          "name": "support",
          "type": "uint8"
        }
      ],
      "name": "castVote",
      "outputs": [
        {
          "internalType": "uint256",
          "name": "",
          "type": "uint256"
        }
      ],
      "stateMutability": "nonpayable",
      "type": "function"
    },
    {
      "inputs": [
        {
          "internalType": "uint256",
          "name": "proposalId",
          "type": "uint256"
        },
        {
          "internalType": "uint8",
          "name": "support",
          "type": "uint8"
        }
      ],
      "name": "castVoteAllIn",
      "outputs": [
        {
          "internalType": "uint256",
          "name": "",
          "type": "uint256"
        }
      ],
      "stateMutability": "payable",
      "type": "function"
    },
    {
      "inputs": [
        {
          "internalType": "uint256",
          "name": "proposalId",
          "type": "uint256"
        },
        {
          "internalType": "uint8",
          "name": "support",
          "type": "uint8"
        },
        {
          "internalType": "uint8",
          "name": "v",
          "type": "uint8"
        },
        {
          "internalType": "bytes32",
          "name": "r",
          "type": "bytes32"
        },
        {
          "internalType": "bytes32",
          "name": "s",
          "type": "bytes32"
        }
      ],
      "name": "castVoteBySig",
      "outputs": [
        {
          "internalType": "uint256",
          "name": "",
          "type": "uint256"
        }
      ],
      "stateMutability": "nonpayable",
      "type": "function"
    },
    {
      "inputs": [
        {
          "internalType": "uint256",
          "name": "proposalId",
          "type": "uint256"
        },
        {
          "internalType": "uint8",
          "name": "support",
          "type": "uint8"
        }
      ],
      "name": "castVoteSimple",
      "outputs": [
        {
          "internalType": "uint256",
          "name": "",
          "type": "uint256"
        }
      ],
      "stateMutability": "payable",
      "type": "function"
    },
    {
      "inputs": [
        {
          "internalType": "uint256",
          "name": "proposalId",
          "type": "uint256"
        },
        {
          "internalType": "uint8",
          "name": "support",
          "type": "uint8"
        },
        {
          "internalType": "string",
          "name": "reason",
          "type": "string"
        }
      ],
      "name": "castVoteWithReason",
      "outputs": [
        {
          "internalType": "uint256",
          "name": "",
          "type": "uint256"
        }
      ],
      "stateMutability": "nonpayable",
      "type": "function"
    },
    {
      "inputs": [
        {
          "internalType": "uint256",
          "name": "proposalId",
          "type": "uint256"
        },
        {
          "internalType": "uint8",
          "name": "support",
          "type": "uint8"
        },
        {
          "internalType": "string",
          "name": "reason",
          "type": "string"
        },
        {
          "internalType": "bytes",
          "name": "params",
          "type": "bytes"
        }
      ],
      "name": "castVoteWithReasonAndParams",
      "outputs": [
        {
          "internalType": "uint256",
          "name": "",
          "type": "uint256"
        }
      ],
      "stateMutability": "nonpayable",
      "type": "function"
    },
    {
      "inputs": [
        {
          "internalType": "uint256",
          "name": "proposalId",
          "type": "uint256"
        },
        {
          "internalType": "uint8",
          "name": "support",
          "type": "uint8"
        },
        {
          "internalType": "string",
          "name": "reason",
          "type": "string"
        },
        {
          "internalType": "bytes",
          "name": "params",
          "type": "bytes"
        },
        {
          "internalType": "uint8",
          "name": "v",
          "type": "uint8"
        },
        {
          "internalType": "bytes32",
          "name": "r",
          "type": "bytes32"
        },
        {
          "internalType": "bytes32",
          "name": "s",
          "type": "bytes32"
        }
      ],
      "name": "castVoteWithReasonAndParamsBySig",
      "outputs": [
        {
          "internalType": "uint256",
          "name": "",
          "type": "uint256"
        }
      ],
      "stateMutability": "nonpayable",
      "type": "function"
    },
    {
      "inputs": [
        {
          "internalType": "address[]",
          "name": "targets",
          "type": "address[]"
        },
        {
          "internalType": "uint256[]",
          "name": "values",
          "type": "uint256[]"
        },
        {
          "internalType": "bytes[]",
          "name": "calldatas",
          "type": "bytes[]"
        },
        {
          "internalType": "bytes32",
          "name": "descriptionHash",
          "type": "bytes32"
        }
      ],
      "name": "execute",
      "outputs": [
        {
          "internalType": "uint256",
          "name": "",
          "type": "uint256"
        }
      ],
      "stateMutability": "payable",
      "type": "function"
    },
    {
      "inputs": [],
      "name": "getBalance",
      "outputs": [
        {
          "internalType": "uint256",
          "name": "",
          "type": "uint256"
        }
      ],
      "stateMutability": "view",
      "type": "function"
    },
    {
      "inputs": [
        {
          "internalType": "address",
          "name": "account",
          "type": "address"
        },
        {
          "internalType": "uint256",
          "name": "blockNumber",
          "type": "uint256"
        }
      ],
      "name": "getVotes",
      "outputs": [
        {
          "internalType": "uint256",
          "name": "",
          "type": "uint256"
        }
      ],
      "stateMutability": "view",
      "type": "function"
    },
    {
      "inputs": [
        {
          "internalType": "address",
          "name": "account",
          "type": "address"
        },
        {
          "internalType": "uint256",
          "name": "blockNumber",
          "type": "uint256"
        },
        {
          "internalType": "bytes",
          "name": "params",
          "type": "bytes"
        }
      ],
      "name": "getVotesWithParams",
      "outputs": [
        {
          "internalType": "uint256",
          "name": "",
          "type": "uint256"
        }
      ],
      "stateMutability": "view",
      "type": "function"
    },
    {
      "inputs": [
        {
          "internalType": "uint256",
          "name": "proposalId",
          "type": "uint256"
        },
        {
          "internalType": "address",
          "name": "account",
          "type": "address"
        }
      ],
      "name": "hasVoted",
      "outputs": [
        {
          "internalType": "bool",
          "name": "",
          "type": "bool"
        }
      ],
      "stateMutability": "view",
      "type": "function"
    },
    {
      "inputs": [
        {
          "internalType": "address[]",
          "name": "targets",
          "type": "address[]"
        },
        {
          "internalType": "uint256[]",
          "name": "values",
          "type": "uint256[]"
        },
        {
          "internalType": "bytes[]",
          "name": "calldatas",
          "type": "bytes[]"
        },
        {
          "internalType": "bytes32",
          "name": "descriptionHash",
          "type": "bytes32"
        }
      ],
      "name": "hashProposal",
      "outputs": [
        {
          "internalType": "uint256",
          "name": "",
          "type": "uint256"
        }
      ],
      "stateMutability": "pure",
      "type": "function"
    },
    {
      "inputs": [],
      "name": "name",
      "outputs": [
        {
          "internalType": "string",
          "name": "",
          "type": "string"
        }
      ],
      "stateMutability": "view",
      "type": "function"
    },
    {
      "inputs": [
        {
          "internalType": "address",
          "name": "",
          "type": "address"
        },
        {
          "internalType": "address",
          "name": "",
          "type": "address"
        },
        {
          "internalType": "uint256[]",
          "name": "",
          "type": "uint256[]"
        },
        {
          "internalType": "uint256[]",
          "name": "",
          "type": "uint256[]"
        },
        {
          "internalType": "bytes",
          "name": "",
          "type": "bytes"
        }
      ],
      "name": "onERC1155BatchReceived",
      "outputs": [
        {
          "internalType": "bytes4",
          "name": "",
          "type": "bytes4"
        }
      ],
      "stateMutability": "nonpayable",
      "type": "function"
    },
    {
      "inputs": [
        {
          "internalType": "address",
          "name": "",
          "type": "address"
        },
        {
          "internalType": "address",
          "name": "",
          "type": "address"
        },
        {
          "internalType": "uint256",
          "name": "",
          "type": "uint256"
        },
        {
          "internalType": "uint256",
          "name": "",
          "type": "uint256"
        },
        {
          "internalType": "bytes",
          "name": "",
          "type": "bytes"
        }
      ],
      "name": "onERC1155Received",
      "outputs": [
        {
          "internalType": "bytes4",
          "name": "",
          "type": "bytes4"
        }
      ],
      "stateMutability": "nonpayable",
      "type": "function"
    },
    {
      "inputs": [
        {
          "internalType": "address",
          "name": "",
          "type": "address"
        },
        {
          "internalType": "address",
          "name": "",
          "type": "address"
        },
        {
          "internalType": "uint256",
          "name": "",
          "type": "uint256"
        },
        {
          "internalType": "bytes",
          "name": "",
          "type": "bytes"
        }
      ],
      "name": "onERC721Received",
      "outputs": [
        {
          "internalType": "bytes4",
          "name": "",
          "type": "bytes4"
        }
      ],
      "stateMutability": "nonpayable",
      "type": "function"
    },
    {
      "inputs": [],
      "name": "owner",
      "outputs": [
        {
          "internalType": "address",
          "name": "",
          "type": "address"
        }
      ],
      "stateMutability": "view",
      "type": "function"
    },
    {
      "inputs": [
        {
          "internalType": "uint256",
          "name": "proposalId",
          "type": "uint256"
        }
      ],
      "name": "proposalDeadline",
      "outputs": [
        {
          "internalType": "uint256",
          "name": "",
          "type": "uint256"
        }
      ],
      "stateMutability": "view",
      "type": "function"
    },
    {
      "inputs": [
        {
          "internalType": "uint256",
          "name": "proposalId",
          "type": "uint256"
        }
      ],
      "name": "proposalEta",
      "outputs": [
        {
          "internalType": "uint256",
          "name": "",
          "type": "uint256"
        }
      ],
      "stateMutability": "view",
      "type": "function"
    },
    {
      "inputs": [
        {
          "internalType": "uint256",
          "name": "proposalId",
          "type": "uint256"
        }
      ],
      "name": "proposalSnapshot",
      "outputs": [
        {
          "internalType": "uint256",
          "name": "",
          "type": "uint256"
        }
      ],
      "stateMutability": "view",
      "type": "function"
    },
    {
      "inputs": [],
      "name": "proposalThreshold",
      "outputs": [
        {
          "internalType": "uint256",
          "name": "",
          "type": "uint256"
        }
      ],
      "stateMutability": "view",
      "type": "function"
    },
    {
      "inputs": [
        {
          "internalType": "uint256",
          "name": "proposalId",
          "type": "uint256"
        }
      ],
      "name": "proposalVotes",
      "outputs": [
        {
          "internalType": "uint256",
          "name": "againstVotes",
          "type": "uint256"
        },
        {
          "internalType": "uint256",
          "name": "forVotes",
          "type": "uint256"
        },
        {
          "internalType": "uint256",
          "name": "abstainVotes",
          "type": "uint256"
        }
      ],
      "stateMutability": "view",
      "type": "function"
    },
    {
      "inputs": [
        {
          "internalType": "address[]",
          "name": "targets",
          "type": "address[]"
        },
        {
          "internalType": "uint256[]",
          "name": "values",
          "type": "uint256[]"
        },
        {
          "internalType": "bytes[]",
          "name": "calldatas",
          "type": "bytes[]"
        },
        {
          "internalType": "string",
          "name": "description",
          "type": "string"
        }
      ],
      "name": "propose",
      "outputs": [
        {
          "internalType": "uint256",
          "name": "",
          "type": "uint256"
        }
      ],
      "stateMutability": "nonpayable",
      "type": "function"
    },
    {
      "inputs": [
        {
          "internalType": "address[]",
          "name": "targets",
          "type": "address[]"
        },
        {
          "internalType": "uint256[]",
          "name": "values",
          "type": "uint256[]"
        },
        {
          "internalType": "bytes[]",
          "name": "calldatas",
          "type": "bytes[]"
        },
        {
          "internalType": "string",
          "name": "description",
          "type": "string"
        }
      ],
      "name": "proposeInclBudget",
      "outputs": [
        {
          "internalType": "uint256",
          "name": "",
          "type": "uint256"
        }
      ],
      "stateMutability": "nonpayable",
      "type": "function"
    },
    {
      "inputs": [
        {
          "internalType": "uint256",
          "name": "proposalId",
          "type": "uint256"
        }
      ],
      "name": "quadraticVoting",
      "outputs": [],
      "stateMutability": "payable",
      "type": "function"
    },
    {
      "inputs": [
        {
          "internalType": "address[]",
          "name": "targets",
          "type": "address[]"
        },
        {
          "internalType": "uint256[]",
          "name": "values",
          "type": "uint256[]"
        },
        {
          "internalType": "bytes[]",
          "name": "calldatas",
          "type": "bytes[]"
        },
        {
          "internalType": "bytes32",
          "name": "descriptionHash",
          "type": "bytes32"
        }
      ],
      "name": "queue",
      "outputs": [
        {
          "internalType": "uint256",
          "name": "",
          "type": "uint256"
        }
      ],
      "stateMutability": "nonpayable",
      "type": "function"
    },
    {
      "inputs": [
        {
          "internalType": "uint256",
          "name": "blockNumber",
          "type": "uint256"
        }
      ],
      "name": "quorum",
      "outputs": [
        {
          "internalType": "uint256",
          "name": "",
          "type": "uint256"
        }
      ],
      "stateMutability": "pure",
      "type": "function"
    },
    {
      "inputs": [
        {
          "internalType": "address",
          "name": "target",
          "type": "address"
        },
        {
          "internalType": "uint256",
          "name": "value",
          "type": "uint256"
        },
        {
          "internalType": "bytes",
          "name": "data",
          "type": "bytes"
        }
      ],
      "name": "relay",
      "outputs": [],
      "stateMutability": "nonpayable",
      "type": "function"
    },
    {
      "inputs": [
        {
          "internalType": "uint256",
          "name": "proposalId",
          "type": "uint256"
        },
        {
          "internalType": "uint256",
          "name": "budget",
          "type": "uint256"
        }
      ],
      "name": "setProposalBudget",
      "outputs": [],
      "stateMutability": "nonpayable",
      "type": "function"
    },
    {
      "inputs": [
        {
          "internalType": "uint256",
          "name": "newProposalThreshold",
          "type": "uint256"
        }
      ],
      "name": "setProposalThreshold",
      "outputs": [],
      "stateMutability": "nonpayable",
      "type": "function"
    },
    {
      "inputs": [
        {
          "internalType": "uint256",
          "name": "newVotingDelay",
          "type": "uint256"
        }
      ],
      "name": "setVotingDelay",
      "outputs": [],
      "stateMutability": "nonpayable",
      "type": "function"
    },
    {
      "inputs": [
        {
          "internalType": "uint256",
          "name": "newVotingPeriod",
          "type": "uint256"
        }
      ],
      "name": "setVotingPeriod",
      "outputs": [],
      "stateMutability": "nonpayable",
      "type": "function"
    },
    {
      "inputs": [
        {
          "internalType": "uint256",
          "name": "proposalId",
          "type": "uint256"
        }
      ],
      "name": "state",
      "outputs": [
        {
          "internalType": "enum IGovernor.ProposalState",
          "name": "",
          "type": "uint8"
        }
      ],
      "stateMutability": "view",
      "type": "function"
    },
    {
      "inputs": [
        {
          "internalType": "bytes4",
          "name": "interfaceId",
          "type": "bytes4"
        }
      ],
      "name": "supportsInterface",
      "outputs": [
        {
          "internalType": "bool",
          "name": "",
          "type": "bool"
        }
      ],
      "stateMutability": "view",
      "type": "function"
    },
    {
      "inputs": [],
      "name": "timelock",
      "outputs": [
        {
          "internalType": "address",
          "name": "",
          "type": "address"
        }
      ],
      "stateMutability": "view",
      "type": "function"
    },
    {
      "inputs": [],
      "name": "token",
      "outputs": [
        {
          "internalType": "contract IVotes",
          "name": "",
          "type": "address"
        }
      ],
      "stateMutability": "view",
      "type": "function"
    },
    {
      "inputs": [],
      "name": "tokenContract",
      "outputs": [
        {
          "internalType": "contract MyNftToken",
          "name": "",
          "type": "address"
        }
      ],
      "stateMutability": "view",
      "type": "function"
    },
    {
      "inputs": [
        {
          "internalType": "address payable",
          "name": "_receiver",
          "type": "address"
        },
        {
          "internalType": "uint256",
          "name": "amount",
          "type": "uint256"
        }
      ],
      "name": "transferFunds",
      "outputs": [],
      "stateMutability": "payable",
      "type": "function"
    },
    {
      "inputs": [
        {
          "internalType": "contract ICompoundTimelock",
          "name": "newTimelock",
          "type": "address"
        }
      ],
      "name": "updateTimelock",
      "outputs": [],
      "stateMutability": "nonpayable",
      "type": "function"
    },
    {
      "inputs": [],
      "name": "version",
      "outputs": [
        {
          "internalType": "string",
          "name": "",
          "type": "string"
        }
      ],
      "stateMutability": "view",
      "type": "function"
    },
    {
      "inputs": [],
      "name": "votingDelay",
      "outputs": [
        {
          "internalType": "uint256",
          "name": "",
          "type": "uint256"
        }
      ],
      "stateMutability": "view",
      "type": "function"
    },
    {
      "inputs": [],
      "name": "votingPeriod",
      "outputs": [
        {
          "internalType": "uint256",
          "name": "",
          "type": "uint256"
        }
      ],
      "stateMutability": "view",
      "type": "function"
    },
    {
      "stateMutability": "payable",
      "type": "receive"
    }
  ],
  "bytecode": "0x6101606040523480156200001257600080fd5b5060405162004a8138038062004a818339810160408190526200003591620003f2565b80826001601460026040518060400160405280600a81526020016926bca3b7bb32b93737b960b11b8152508062000071620001a060201b60201c565b815160208084019190912082518383012060e08290526101008190524660a0818152604080517f8b73c3c69bb8fe3d512ecc4cf759cc79239f7b179b0ffacaa9a75d522b39400f81880181905281830187905260608201869052608082019490945230818401528151808203909301835260c00190528051940193909320919290916080523060601b60c05261012052505082516200011a92506000915060208401906200034c565b5062000128905083620001bb565b6200013382620001fc565b6200013e81620002a2565b50505060601b6001600160601b031916610140526200015d81620002e3565b50600a80546001600160a01b039384166001600160a01b031991821617909155600b80549290931691811691909117909155600c80549091163317905562000487565b6040805180820190915260018152603160f81b602082015290565b60045460408051918252602082018390527fc565b045403dc03c2eea82b81a0465edad9e2e7fc4d97e11421c209da93d7a93910160405180910390a1600455565b60008111620002615760405162461bcd60e51b815260206004820152602760248201527f476f7665726e6f7253657474696e67733a20766f74696e6720706572696f6420604482015266746f6f206c6f7760c81b606482015260840160405180910390fd5b60055460408051918252602082018390527f7e3f7f0708a84de9203036abaa450dccc85ad5ff52f78c170f3edb55cf5e8828910160405180910390a1600555565b60065460408051918252602082018390527fccb45da8d5717e6c4544694297c4ba5cf151d455c9bb0ed4fc7a38411bc05461910160405180910390a1600655565b600854604080516001600160a01b03928316815291831660208301527f08f74ea46ef7894f65eabfb5e6e695de773a000b47c529ab559178069b226401910160405180910390a1600880546001600160a01b0319166001600160a01b0392909216919091179055565b8280546200035a9062000431565b90600052602060002090601f0160209004810192826200037e5760008555620003c9565b82601f106200039957805160ff1916838001178555620003c9565b82800160010185558215620003c9579182015b82811115620003c9578251825591602001919060010190620003ac565b50620003d7929150620003db565b5090565b5b80821115620003d75760008155600101620003dc565b600080604083850312156200040657600080fd5b825162000413816200046e565b602084015190925062000426816200046e565b809150509250929050565b600181811c908216806200044657607f821691505b602082108114156200046857634e487b7160e01b600052602260045260246000fd5b50919050565b6001600160a01b03811681146200048457600080fd5b50565b60805160a05160c05160601c60e05161010051610120516101405160601c614592620004ef600039600081816109c8015261223201526000612e8201526000612ed101526000612eac01526000612e0501526000612e2f01526000612e5901526145926000f3fe60806040526004361061030c5760003560e01c80637b3c71d31161019a578063c01f9e37116100e1578063ea0217cf1161008a578063f23a6e6111610064578063f23a6e6114610969578063f8ce560a14610995578063fc0c546a146109b657600080fd5b8063ea0217cf14610909578063eb9019d414610929578063ece40cc11461094957600080fd5b8063d33219b4116100bb578063d33219b414610871578063dd4e2ba51461088f578063deaaa7cc146108d557600080fd5b8063c01f9e3714610811578063c28bc2fa14610831578063c59057e41461085157600080fd5b8063a890c91011610143578063b9a619611161011d578063b9a61961146107bd578063bc197c81146107d2578063c006b57f146107fe57600080fd5b8063a890c91014610768578063ab58fb8e14610788578063b58131b0146107a857600080fd5b8063990dc9db11610174578063990dc9db146107225780639a802a6d146107355780639c61248a1461075557600080fd5b80637b3c71d3146106c25780637d5e81e2146106e25780638da5cb5b1461070257600080fd5b80632fe3e2611161025e57806354fd4d50116102075780635d949972116101e15780635d949972146106625780635f398a141461068257806370b0f660146106a257600080fd5b806354fd4d50146105e057806355a373d61461060a578063567813881461064257600080fd5b80633e4f49e6116102385780633e4f49e6146105145780634385963214610541578063544ffc9c1461058b57600080fd5b80632fe3e261146104ab5780633932abb1146104df5780633bccf4fd146104f457600080fd5b8063150b7a02116102c0578063227588b51161029a578063227588b5146104655780632656227d146104785780632d63f6931461048b57600080fd5b8063150b7a02146103e1578063160cbed7146104255780631e018cc61461044557600080fd5b806303420181116102f1578063034201811461038c57806306fdde03146103ac57806312065fe0146103ce57600080fd5b806301ffc9a71461033457806302a251a31461036957600080fd5b3661032f573061031a6109ea565b6001600160a01b03161461032d57600080fd5b005b600080fd5b34801561034057600080fd5b5061035461034f366004613d47565b610a03565b60405190151581526020015b60405180910390f35b34801561037557600080fd5b5061037e610a14565b604051908152602001610360565b34801561039857600080fd5b5061037e6103a7366004613f3f565b610a1f565b3480156103b857600080fd5b506103c1610b17565b604051610360919061420f565b3480156103da57600080fd5b504761037e565b3480156103ed57600080fd5b5061040c6103fc366004613a3d565b630a85bd0160e11b949350505050565b6040516001600160e01b03199091168152602001610360565b34801561043157600080fd5b5061037e610440366004613bc7565b610ba9565b34801561045157600080fd5b5061037e610460366004613c57565b610fa8565b61032d610473366004613dfc565b6110dc565b61037e610486366004613bc7565b61119c565b34801561049757600080fd5b5061037e6104a6366004613dfc565b6112ed565b3480156104b757600080fd5b5061037e7fb3b3f3b703cd84ce352197dcff232b1b5d3cfb2025ce47cf04742d0651f1af8881565b3480156104eb57600080fd5b5061037e611326565b34801561050057600080fd5b5061037e61050f366004613fe6565b611331565b34801561052057600080fd5b5061053461052f366004613dfc565b6113a7565b60405161036091906141e7565b34801561054d57600080fd5b5061035461055c366004613e15565b60008281526007602090815260408083206001600160a01b038516845260030190915290205460ff1692915050565b34801561059757600080fd5b506105c56105a6366004613dfc565b6000908152600760205260409020805460018201546002909201549092565b60408051938452602084019290925290820152606001610360565b3480156105ec57600080fd5b506040805180820190915260018152603160f81b60208201526103c1565b34801561061657600080fd5b50600a5461062a906001600160a01b031681565b6040516001600160a01b039091168152602001610360565b34801561064e57600080fd5b5061037e61065d366004613e67565b6113b2565b34801561066e57600080fd5b5061032d61067d366004613e45565b6114c5565b34801561068e57600080fd5b5061037e61069d366004613ed5565b6115f5565b3480156106ae57600080fd5b5061032d6106bd366004613dfc565b61163f565b3480156106ce57600080fd5b5061037e6106dd366004613e93565b6116f9565b3480156106ee57600080fd5b5061037e6106fd366004613c57565b61174b565b34801561070e57600080fd5b50600c5461062a906001600160a01b031681565b61032d610730366004613963565b61179b565b34801561074157600080fd5b5061037e610750366004613b6e565b61182b565b61037e610763366004613e67565b611842565b34801561077457600080fd5b5061032d610783366004613ddf565b61194d565b34801561079457600080fd5b5061037e6107a3366004613dfc565b611a04565b3480156107b457600080fd5b5061037e611a31565b3480156107c957600080fd5b5061032d611a3c565b3480156107de57600080fd5b5061040c6107ed36600461398f565b63bc197c8160e01b95945050505050565b61037e61080c366004613e67565b611aa6565b34801561081d57600080fd5b5061037e61082c366004613dfc565b611ca1565b34801561083d57600080fd5b5061032d61084c366004613b12565b611cd1565b34801561085d57600080fd5b5061037e61086c366004613bc7565b611dc8565b34801561087d57600080fd5b506008546001600160a01b031661062a565b34801561089b57600080fd5b506040805180820190915260208082527f737570706f72743d627261766f2671756f72756d3d666f722c6162737461696e908201526103c1565b3480156108e157600080fd5b5061037e7f150214d74d59b7d1e90c73fc22ef3d991dd0a76b046543d4d80ab92d2a50328f81565b34801561091557600080fd5b5061032d610924366004613dfc565b611e02565b34801561093557600080fd5b5061037e610944366004613963565b611eb9565b34801561095557600080fd5b5061032d610964366004613dfc565b611eda565b34801561097557600080fd5b5061040c610984366004613aa9565b63f23a6e6160e01b95945050505050565b3480156109a157600080fd5b5061037e6109b0366004613dfc565b50600390565b3480156109c257600080fd5b5061062a7f000000000000000000000000000000000000000000000000000000000000000081565b60006109fe6008546001600160a01b031690565b905090565b6000610a0e82611f91565b92915050565b60006109fe60055490565b600080610ac3610abb7fb3b3f3b703cd84ce352197dcff232b1b5d3cfb2025ce47cf04742d0651f1af888c8c8c8c604051610a5b929190614129565b60405180910390208b80519060200120604051602001610aa0959493929190948552602085019390935260ff9190911660408401526060830152608082015260a00190565b60405160208183030381529060405280519060200120611fb6565b868686612004565b9050610b098a828b8b8b8080601f0160208091040260200160405190810160405280939291908181526020018383808284376000920191909152508d9250612022915050565b9a9950505050505050505050565b606060008054610b2690614499565b80601f0160208091040260200160405190810160405280929190818152602001828054610b5290614499565b8015610b9f5780601f10610b7457610100808354040283529160200191610b9f565b820191906000526020600020905b815481529060010190602001808311610b8257829003601f168201915b5050505050905090565b600080610bb886868686611dc8565b90506004610bc5826113a7565b6007811115610bd657610bd6614505565b14610c325760405162461bcd60e51b815260206004820152602160248201527f476f7665726e6f723a2070726f706f73616c206e6f74207375636365737366756044820152601b60fa1b60648201526084015b60405180910390fd5b60085460408051630d48571f60e31b815290516000926001600160a01b031691636a42b8f8916004808301926020929190829003018186803b158015610c7757600080fd5b505afa158015610c8b573d6000803e3d6000fd5b505050506040513d601f19601f82011682018060405250810190610caf9190613d2e565b610cb990426143f3565b9050610cf5610cc782612185565b600084815260096020526040902090815467ffffffffffffffff191667ffffffffffffffff91909116179055565b60005b8751811015610f645760085488516001600160a01b039091169063f2b06537908a9084908110610d2a57610d2a61451b565b6020026020010151898481518110610d4457610d4461451b565b6020026020010151898581518110610d5e57610d5e61451b565b602002602001015186604051602001610d7a9493929190614155565b604051602081830303815290604052805190602001206040518263ffffffff1660e01b8152600401610dae91815260200190565b60206040518083038186803b158015610dc657600080fd5b505afa158015610dda573d6000803e3d6000fd5b505050506040513d601f19601f82011682018060405250810190610dfe9190613d0c565b15610e7c5760405162461bcd60e51b815260206004820152604260248201527f476f7665726e6f7254696d656c6f636b436f6d706f756e643a206964656e746960448201527f63616c2070726f706f73616c20616374696f6e20616c72656164792071756575606482015261195960f21b608482015260a401610c29565b60085488516001600160a01b0390911690633a66f901908a9084908110610ea557610ea561451b565b6020026020010151898481518110610ebf57610ebf61451b565b6020026020010151898581518110610ed957610ed961451b565b6020026020010151866040518563ffffffff1660e01b8152600401610f019493929190614155565b602060405180830381600087803b158015610f1b57600080fd5b505af1158015610f2f573d6000803e3d6000fd5b505050506040513d601f19601f82011682018060405250810190610f539190613d2e565b50610f5d816144d4565b9050610cf8565b5060408051838152602081018390527f9a2e42fd6722813d69113e7d0079d3d940171428df7373df9c7f7617cfda2892910160405180910390a15095945050505050565b6000610fb2611a31565b600a546040516370a0823160e01b81523360048201526001600160a01b03909116906370a082319060240160206040518083038186803b158015610ff557600080fd5b505afa158015611009573d6000803e3d6000fd5b505050506040513d601f19601f8201168201806040525081019061102d9190613d2e565b10156110915760405162461bcd60e51b815260206004820152602d60248201527f596f7520646f6e2774206f776e20656e6f7567682047656e65736973204e465460448201526c39903a3790383937b837b9b29760991b6064820152608401610c29565b60006110a68686868680519060200120611dc8565b6000818152600e60205260409020805473ffffffffffffffffffffffffffffffffffffffff191633179055915050949350505050565b6000611100336110eb846112ed565b60405180602001604052806000815250612209565b9050600061110e8280614437565b90506103e881111561111f57506103e85b80341015611197576040805162461bcd60e51b81526020600482015260248101919091527f51756164726174696320766f74696e673a20596f75206e656564206d6f72652060448201527f657468657220746f20636f76657220796f757220766f7465207765696768742e6064820152608401610c29565b505050565b60006111a6611a31565b600a546040516370a0823160e01b81523360048201526001600160a01b03909116906370a082319060240160206040518083038186803b1580156111e957600080fd5b505afa1580156111fd573d6000803e3d6000fd5b505050506040513d601f19601f820116820180604052508101906112219190613d2e565b10156112855760405162461bcd60e51b815260206004820152602d60248201527f596f7520646f6e2774206f776e20656e6f7567682047656e65736973204e465460448201526c39903a3790383937b837b9b29760991b6064820152608401610c29565b600061129386868686611dc8565b6000818152600e602052604090208054600190910154919250662386f26fc10000916112d6916001600160a01b0316906112d190633b9aca00614437565b6122ae565b6112e38288888888612353565b5095945050505050565b600081815260016020908152604080832081519283019091525467ffffffffffffffff16908190525b67ffffffffffffffff1692915050565b60006109fe60045490565b604080517f150214d74d59b7d1e90c73fc22ef3d991dd0a76b046543d4d80ab92d2a50328f602082015290810186905260ff85166060820152600090819061137f90610abb90608001610aa0565b905061139c878288604051806020016040528060008152506124ed565b979650505050505050565b6000610a0e82612519565b600a546040516370a0823160e01b81523360048201526000916001916001600160a01b03909116906370a082319060240160206040518083038186803b1580156113fb57600080fd5b505afa15801561140f573d6000803e3d6000fd5b505050506040513d601f19601f820116820180604052508101906114339190613d2e565b101561148d5760405162461bcd60e51b815260206004820152602360248201527f596f75206d757374206265206120746f6b656e20686f6c64657220746f20766f6044820152623a329760e91b6064820152608401610c29565b60003390506114bd8482856040518060200160405280600081525060405180602001604052806000815250612022565b949350505050565b6000828152600e60205260409020546001600160a01b031633146115515760405162461bcd60e51b815260206004820152603f60248201527f476f7665726e6f723a206f6e6c79207468652070726f706f7365722063616e2060448201527f7365742074686520627564676574206f66207468652070726f706f73616c2e006064820152608401610c29565b600061155c836113a7565b600781111561156d5761156d614505565b146115e05760405162461bcd60e51b815260206004820152603e60248201527f476f7665726e6f723a2063616e6e6f74206368616e6765206275646765742e2060448201527f50726f706f73616c20766f746520616c726561647920737461727465642e00006064820152608401610c29565b6000918252600e602052604090912060010155565b60008033905061139c87828888888080601f0160208091040260200160405190810160405280939291908181526020018383808284376000920191909152508a9250612022915050565b6116476109ea565b6001600160a01b0316336001600160a01b0316146116a25760405162461bcd60e51b8152602060048201526018602482015277476f7665726e6f723a206f6e6c79476f7665726e616e636560401b6044820152606401610c29565b306116ab6109ea565b6001600160a01b0316146116ed57600080366040516116cb929190614129565b604051809103902090505b806116e16002612609565b146116eb576116d6565b505b6116f6816126ab565b50565b60008033905061174186828787878080601f0160208091040260200160405190810160405280939291908181526020018383808284376000920191909152506124ed92505050565b9695505050505050565b6000806117618686868680519060200120611dc8565b6000818152600e60205260409020805473ffffffffffffffffffffffffffffffffffffffff19163317815590915061139c878787876126ec565b600c546001600160a01b031633146117f55760405162461bcd60e51b815260206004820152600960248201527f4e6f74206f776e657200000000000000000000000000000000000000000000006044820152606401610c29565b6040516001600160a01b0383169082156108fc029083906000818181858888f19350505050158015611197573d6000803e3d6000fd5b6000611838848484612209565b90505b9392505050565b600a546040516370a0823160e01b81523360048201526000916001916001600160a01b03909116906370a082319060240160206040518083038186803b15801561188b57600080fd5b505afa15801561189f573d6000803e3d6000fd5b505050506040513d601f19601f820116820180604052508101906118c39190613d2e565b101561191d5760405162461bcd60e51b815260206004820152602360248201527f596f75206d757374206265206120746f6b656e20686f6c64657220746f20766f6044820152623a329760e91b6064820152608401610c29565b60003390506114bd8482856040518060200160405280600081525060405180602001604052806000815250612a33565b6119556109ea565b6001600160a01b0316336001600160a01b0316146119b05760405162461bcd60e51b8152602060048201526018602482015277476f7665726e6f723a206f6e6c79476f7665726e616e636560401b6044820152606401610c29565b306119b96109ea565b6001600160a01b0316146119fb57600080366040516119d9929190614129565b604051809103902090505b806119ef6002612609565b146119f9576119e4565b505b6116f681612b5e565b600081815260096020908152604080832081519283019091525467ffffffffffffffff1690819052611316565b60006109fe60065490565b600860009054906101000a90046001600160a01b03166001600160a01b0316630e18b6816040518163ffffffff1660e01b8152600401600060405180830381600087803b158015611a8c57600080fd5b505af1158015611aa0573d6000803e3d6000fd5b50505050565b600a546040516370a0823160e01b81523360048201526000916001916001600160a01b03909116906370a082319060240160206040518083038186803b158015611aef57600080fd5b505afa158015611b03573d6000803e3d6000fd5b505050506040513d601f19601f82011682018060405250810190611b279190613d2e565b1015611b815760405162461bcd60e51b815260206004820152602360248201527f596f75206d757374206265206120746f6b656e20686f6c64657220746f20766f6044820152623a329760e91b6064820152608401610c29565b6000611b90336110eb866112ed565b90506000611b9e8280614437565b90506000662386f26fc100006001841415611bbc5760009150611bc9565b611bc68184614437565b91505b81341015611c655760405162461bcd60e51b815260206004820152605b60248201527f596f75206e65656420746f20737570706c79206d6f726520657468657220746f60448201527f20766f7465207769746820616c6c20796f757220746f6b656e732e20436f737460648201527f20697320286e566f746573295e32202a20302e30312065746865720000000000608482015260a401610c29565b6000339050611c958882896040518060200160405280600081525060405180602001604052806000815250612bd4565b98975050505050505050565b600081815260016020818152604080842081519283019091529091015467ffffffffffffffff1690819052611316565b611cd96109ea565b6001600160a01b0316336001600160a01b031614611d345760405162461bcd60e51b8152602060048201526018602482015277476f7665726e6f723a206f6e6c79476f7665726e616e636560401b6044820152606401610c29565b30611d3d6109ea565b6001600160a01b031614611d7f5760008036604051611d5d929190614129565b604051809103902090505b80611d736002612609565b14611d7d57611d68565b505b611dc18483838080601f016020809104026020016040519081016040528093929190818152602001838380828437600092019190915250889250612c6f915050565b5050505050565b600084848484604051602001611de1949392919061419c565b60408051601f19818403018152919052805160209091012095945050505050565b611e0a6109ea565b6001600160a01b0316336001600160a01b031614611e655760405162461bcd60e51b8152602060048201526018602482015277476f7665726e6f723a206f6e6c79476f7665726e616e636560401b6044820152606401610c29565b30611e6e6109ea565b6001600160a01b031614611eb05760008036604051611e8e929190614129565b604051809103902090505b80611ea46002612609565b14611eae57611e99565b505b6116f681612c95565b600061183b8383611ed560408051602081019091526000815290565b612209565b611ee26109ea565b6001600160a01b0316336001600160a01b031614611f3d5760405162461bcd60e51b8152602060048201526018602482015277476f7665726e6f723a206f6e6c79476f7665726e616e636560401b6044820152606401610c29565b30611f466109ea565b6001600160a01b031614611f885760008036604051611f66929190614129565b604051809103902090505b80611f7c6002612609565b14611f8657611f71565b505b6116f681612d4c565b60006001600160e01b03198216636e665ced60e01b1480610a0e5750610a0e82612d8d565b6000610a0e611fc3612df8565b8360405161190160f01b6020820152602281018390526042810182905260009060620160405160208183030381529060405280519060200120905092915050565b600080600061201587878787612f1f565b915091506112e38161300c565b600085815260016020819052604082209061203c886113a7565b600781111561204d5761204d614505565b146120a65760405162461bcd60e51b815260206004820152602360248201527f476f7665726e6f723a20766f7465206e6f742063757272656e746c792061637460448201526269766560e81b6064820152608401610c29565b6040805160208101909152815467ffffffffffffffff16908190526000906120d090889086612209565b90506120df88888884886131c7565b835161213157866001600160a01b03167fb8e138887d0aa13bab447e82de9d5c1777041ecd21ca36ba824ff1e6c07ddda4898884896040516121249493929190614314565b60405180910390a261139c565b866001600160a01b03167fe2babfbac5889a709b63bb7f598b324e08bc5a4fb9ec647fb3cbc9ec07eb8712898884898960405161217295949392919061433c565b60405180910390a2979650505050505050565b600067ffffffffffffffff8211156122055760405162461bcd60e51b815260206004820152602660248201527f53616665436173743a2076616c756520646f65736e27742066697420696e203660448201527f34206269747300000000000000000000000000000000000000000000000000006064820152608401610c29565b5090565b604051630748d63560e31b81526001600160a01b038481166004830152602482018490526000917f000000000000000000000000000000000000000000000000000000000000000090911690633a46b1a89060440160206040518083038186803b15801561227657600080fd5b505afa15801561228a573d6000803e3d6000fd5b505050506040513d601f19601f820116820180604052508101906118389190613d2e565b600080836001600160a01b03168360405160006040518083038185875af1925050503d80600081146122fc576040519150601f19603f3d011682016040523d82523d6000602084013e612301565b606091505b509150915081611aa05760405162461bcd60e51b815260206004820152601860248201527f4661696c656420746f20776974686472617720457468657200000000000000006044820152606401610c29565b600061235e86611a04565b9050600081116123d65760405162461bcd60e51b815260206004820152603160248201527f476f7665726e6f7254696d656c6f636b436f6d706f756e643a2070726f706f7360448201527f616c206e6f7420796574207175657565640000000000000000000000000000006064820152608401610c29565b6008546123ec906001600160a01b03163461336c565b60005b85518110156124e45760085486516001600160a01b0390911690630825f38f908890849081106124215761242161451b565b602002602001015187848151811061243b5761243b61451b565b60200260200101518785815181106124555761245561451b565b6020026020010151866040518563ffffffff1660e01b815260040161247d9493929190614155565b600060405180830381600087803b15801561249757600080fd5b505af11580156124ab573d6000803e3d6000fd5b505050506040513d6000823e601f3d908101601f191682016040526124d39190810190613d71565b506124dd816144d4565b90506123ef565b50505050505050565b60006125108585858561250b60408051602081019091526000815290565b612022565b95945050505050565b60008061252583613485565b9050600481600781111561253b5761253b614505565b146125465792915050565b600061255184611a04565b90508061255f575092915050565b600860009054906101000a90046001600160a01b03166001600160a01b031663c1a287e26040518163ffffffff1660e01b815260040160206040518083038186803b1580156125ad57600080fd5b505afa1580156125c1573d6000803e3d6000fd5b505050506040513d601f19601f820116820180604052508101906125e59190613d2e565b6125ef90826143f3565b42106125ff575060069392505050565b5060059392505050565b60006126358254600f81810b810b700100000000000000000000000000000000909204810b900b131590565b1561265357604051631ed9509560e11b815260040160405180910390fd5b508054600f90810b80820b820b600090815260018085016020526040822080549290558454920190920b6fffffffffffffffffffffffffffffffff166fffffffffffffffffffffffffffffffff199091161790915590565b60045460408051918252602082018390527fc565b045403dc03c2eea82b81a0465edad9e2e7fc4d97e11421c209da93d7a93910160405180910390a1600455565b60006126f6611a31565b61270533610944600143614456565b10156127795760405162461bcd60e51b815260206004820152603160248201527f476f7665726e6f723a2070726f706f73657220766f7465732062656c6f77207060448201527f726f706f73616c207468726573686f6c640000000000000000000000000000006064820152608401610c29565b600061278e8686868680519060200120611dc8565b905084518651146127eb5760405162461bcd60e51b815260206004820152602160248201527f476f7665726e6f723a20696e76616c69642070726f706f73616c206c656e67746044820152600d60fb1b6064820152608401610c29565b83518651146128465760405162461bcd60e51b815260206004820152602160248201527f476f7665726e6f723a20696e76616c69642070726f706f73616c206c656e67746044820152600d60fb1b6064820152608401610c29565b60008651116128975760405162461bcd60e51b815260206004820152601860248201527f476f7665726e6f723a20656d7074792070726f706f73616c00000000000000006044820152606401610c29565b6000818152600160209081526040918290208251918201909252815467ffffffffffffffff1690819052156129185760405162461bcd60e51b815260206004820152602160248201527f476f7665726e6f723a2070726f706f73616c20616c72656164792065786973746044820152607360f81b6064820152608401610c29565b600061292a612925611326565b612185565b61293343612185565b61293d919061440b565b9050600061294c612925610a14565b612956908361440b565b835467ffffffffffffffff191667ffffffffffffffff8416178455905060018301805467ffffffffffffffff191667ffffffffffffffff83161790557f7d84a6263ae0d98d3329bd7b46bb4e8d6f98cd35a7adb45c274c8b7fd5ebd5e084338b8b8d5167ffffffffffffffff8111156129d1576129d1614531565b604051908082528060200260200182016040528015612a0457816020015b60608152602001906001900390816129ef5790505b508c88888e604051612a1e99989796959493929190614222565b60405180910390a15091979650505050505050565b60006001612a40876113a7565b6007811115612a5157612a51614505565b14612aaa5760405162461bcd60e51b815260206004820152602360248201527f476f7665726e6f723a20766f7465206e6f742063757272656e746c792061637460448201526269766560e81b6064820152608401610c29565b6001612ab987878784876131c7565b8251612b0b57856001600160a01b03167fb8e138887d0aa13bab447e82de9d5c1777041ecd21ca36ba824ff1e6c07ddda488878488604051612afe9493929190614314565b60405180910390a2611741565b856001600160a01b03167fe2babfbac5889a709b63bb7f598b324e08bc5a4fb9ec647fb3cbc9ec07eb87128887848888604051612b4c95949392919061433c565b60405180910390a29695505050505050565b600854604080516001600160a01b03928316815291831660208301527f08f74ea46ef7894f65eabfb5e6e695de773a000b47c529ab559178069b226401910160405180910390a16008805473ffffffffffffffffffffffffffffffffffffffff19166001600160a01b0392909216919091179055565b60006001612be1876113a7565b6007811115612bf257612bf2614505565b14612c4b5760405162461bcd60e51b815260206004820152602360248201527f476f7665726e6f723a20766f7465206e6f742063757272656e746c792061637460448201526269766560e81b6064820152608401610c29565b6000612c6086612c5a896112ed565b85612209565b9050612ab987878784876131c7565b606061183884848460405180606001604052806029815260200161455d60299139613591565b60008111612d0b5760405162461bcd60e51b815260206004820152602760248201527f476f7665726e6f7253657474696e67733a20766f74696e6720706572696f642060448201527f746f6f206c6f77000000000000000000000000000000000000000000000000006064820152608401610c29565b60055460408051918252602082018390527f7e3f7f0708a84de9203036abaa450dccc85ad5ff52f78c170f3edb55cf5e8828910160405180910390a1600555565b60065460408051918252602082018390527fccb45da8d5717e6c4544694297c4ba5cf151d455c9bb0ed4fc7a38411bc05461910160405180910390a1600655565b60006001600160e01b0319821663bf26d89760e01b1480612dbe57506001600160e01b031982166379dd796f60e01b145b80612dd957506001600160e01b03198216630271189760e51b145b80610a0e57506301ffc9a760e01b6001600160e01b0319831614610a0e565b6000306001600160a01b037f000000000000000000000000000000000000000000000000000000000000000016148015612e5157507f000000000000000000000000000000000000000000000000000000000000000046145b15612e7b57507f000000000000000000000000000000000000000000000000000000000000000090565b50604080517f00000000000000000000000000000000000000000000000000000000000000006020808301919091527f0000000000000000000000000000000000000000000000000000000000000000828401527f000000000000000000000000000000000000000000000000000000000000000060608301524660808301523060a0808401919091528351808403909101815260c0909201909252805191012090565b6000807f7fffffffffffffffffffffffffffffff5d576e7357a4501ddfe92f46681b20a0831115612f565750600090506003613003565b8460ff16601b14158015612f6e57508460ff16601c14155b15612f7f5750600090506004613003565b6040805160008082526020820180845289905260ff881692820192909252606081018690526080810185905260019060a0016020604051602081039080840390855afa158015612fd3573d6000803e3d6000fd5b5050604051601f1901519150506001600160a01b038116612ffc57600060019250925050613003565b9150600090505b94509492505050565b600081600481111561302057613020614505565b14156130295750565b600181600481111561303d5761303d614505565b141561308b5760405162461bcd60e51b815260206004820152601860248201527f45434453413a20696e76616c6964207369676e617475726500000000000000006044820152606401610c29565b600281600481111561309f5761309f614505565b14156130ed5760405162461bcd60e51b815260206004820152601f60248201527f45434453413a20696e76616c6964207369676e6174757265206c656e677468006044820152606401610c29565b600381600481111561310157613101614505565b141561315a5760405162461bcd60e51b815260206004820152602260248201527f45434453413a20696e76616c6964207369676e6174757265202773272076616c604482015261756560f01b6064820152608401610c29565b600481600481111561316e5761316e614505565b14156116f65760405162461bcd60e51b815260206004820152602260248201527f45434453413a20696e76616c6964207369676e6174757265202776272076616c604482015261756560f01b6064820152608401610c29565b60008581526007602090815260408083206001600160a01b0388168452600381019092529091205460ff16156132655760405162461bcd60e51b815260206004820152602760248201527f476f7665726e6f72566f74696e6753696d706c653a20766f746520616c72656160448201527f64792063617374000000000000000000000000000000000000000000000000006064820152608401610c29565b6001600160a01b03851660009081526003820160205260408120805460ff1916600117905560ff168460ff1614156132b657828160000160008282546132ab91906143f3565b909155506133649050565b60ff8416600114156132d657828160010160008282546132ab91906143f3565b60ff8416600214156132f657828160020160008282546132ab91906143f3565b60405162461bcd60e51b815260206004820152603560248201527f476f7665726e6f72566f74696e6753696d706c653a20696e76616c696420766160448201527f6c756520666f7220656e756d20566f74655479706500000000000000000000006064820152608401610c29565b505050505050565b804710156133bc5760405162461bcd60e51b815260206004820152601d60248201527f416464726573733a20696e73756666696369656e742062616c616e63650000006044820152606401610c29565b6000826001600160a01b03168260405160006040518083038185875af1925050503d8060008114613409576040519150601f19603f3d011682016040523d82523d6000602084013e61340e565b606091505b50509050806111975760405162461bcd60e51b815260206004820152603a60248201527f416464726573733a20756e61626c6520746f2073656e642076616c75652c207260448201527f6563697069656e74206d617920686176652072657665727465640000000000006064820152608401610c29565b6000818152600160205260408120600281015460ff16156134a95750600792915050565b6002810154610100900460ff16156134c45750600292915050565b60006134cf846112ed565b90508061351e5760405162461bcd60e51b815260206004820152601d60248201527f476f7665726e6f723a20756e6b6e6f776e2070726f706f73616c2069640000006044820152606401610c29565b43811061352f575060009392505050565b600061353a85611ca1565b905043811061354e57506001949350505050565b613557856136ce565b8015613576575060008581526007602052604090208054600190910154115b1561358657506004949350505050565b506003949350505050565b6060824710156136095760405162461bcd60e51b815260206004820152602660248201527f416464726573733a20696e73756666696369656e742062616c616e636520666f60448201527f722063616c6c00000000000000000000000000000000000000000000000000006064820152608401610c29565b6001600160a01b0385163b6136605760405162461bcd60e51b815260206004820152601d60248201527f416464726573733a2063616c6c20746f206e6f6e2d636f6e74726163740000006044820152606401610c29565b600080866001600160a01b0316858760405161367c9190614139565b60006040518083038185875af1925050503d80600081146136b9576040519150601f19603f3d011682016040523d82523d6000602084013e6136be565b606091505b509150915061139c828286613705565b6000818152600760205260408120600281015460018201546136f091906143f3565b6136fc6109b0856112ed565b11159392505050565b6060831561371457508161183b565b8251156137245782518084602001fd5b8160405162461bcd60e51b8152600401610c29919061420f565b600061375161374c846143cb565b614376565b905082815283838301111561376557600080fd5b828260208301376000602084830101529392505050565b600082601f83011261378d57600080fd5b8135602061379d61374c836143a7565b80838252828201915082860187848660051b89010111156137bd57600080fd5b60005b858110156137e55781356137d381614547565b845292840192908401906001016137c0565b5090979650505050505050565b600082601f83011261380357600080fd5b8135602061381361374c836143a7565b80838252828201915082860187848660051b890101111561383357600080fd5b6000805b8681101561387657823567ffffffffffffffff811115613855578283fd5b6138638b88838d010161392d565b8652509385019391850191600101613837565b509198975050505050505050565b600082601f83011261389557600080fd5b813560206138a561374c836143a7565b80838252828201915082860187848660051b89010111156138c557600080fd5b60005b858110156137e5578135845292840192908401906001016138c8565b60008083601f8401126138f657600080fd5b50813567ffffffffffffffff81111561390e57600080fd5b60208301915083602082850101111561392657600080fd5b9250929050565b600082601f83011261393e57600080fd5b61183b8383356020850161373e565b803560ff8116811461395e57600080fd5b919050565b6000806040838503121561397657600080fd5b823561398181614547565b946020939093013593505050565b600080600080600060a086880312156139a757600080fd5b85356139b281614547565b945060208601356139c281614547565b9350604086013567ffffffffffffffff808211156139df57600080fd5b6139eb89838a01613884565b94506060880135915080821115613a0157600080fd5b613a0d89838a01613884565b93506080880135915080821115613a2357600080fd5b50613a308882890161392d565b9150509295509295909350565b60008060008060808587031215613a5357600080fd5b8435613a5e81614547565b93506020850135613a6e81614547565b925060408501359150606085013567ffffffffffffffff811115613a9157600080fd5b613a9d8782880161392d565b91505092959194509250565b600080600080600060a08688031215613ac157600080fd5b8535613acc81614547565b94506020860135613adc81614547565b93506040860135925060608601359150608086013567ffffffffffffffff811115613b0657600080fd5b613a308882890161392d565b60008060008060608587031215613b2857600080fd5b8435613b3381614547565b935060208501359250604085013567ffffffffffffffff811115613b5657600080fd5b613b62878288016138e4565b95989497509550505050565b600080600060608486031215613b8357600080fd5b8335613b8e81614547565b925060208401359150604084013567ffffffffffffffff811115613bb157600080fd5b613bbd8682870161392d565b9150509250925092565b60008060008060808587031215613bdd57600080fd5b843567ffffffffffffffff80821115613bf557600080fd5b613c018883890161377c565b95506020870135915080821115613c1757600080fd5b613c2388838901613884565b94506040870135915080821115613c3957600080fd5b50613c46878288016137f2565b949793965093946060013593505050565b60008060008060808587031215613c6d57600080fd5b843567ffffffffffffffff80821115613c8557600080fd5b613c918883890161377c565b95506020870135915080821115613ca757600080fd5b613cb388838901613884565b94506040870135915080821115613cc957600080fd5b613cd5888389016137f2565b93506060870135915080821115613ceb57600080fd5b508501601f81018713613cfd57600080fd5b613a9d8782356020840161373e565b600060208284031215613d1e57600080fd5b8151801515811461183b57600080fd5b600060208284031215613d4057600080fd5b5051919050565b600060208284031215613d5957600080fd5b81356001600160e01b03198116811461183b57600080fd5b600060208284031215613d8357600080fd5b815167ffffffffffffffff811115613d9a57600080fd5b8201601f81018413613dab57600080fd5b8051613db961374c826143cb565b818152856020838501011115613dce57600080fd5b61251082602083016020860161446d565b600060208284031215613df157600080fd5b813561183b81614547565b600060208284031215613e0e57600080fd5b5035919050565b60008060408385031215613e2857600080fd5b823591506020830135613e3a81614547565b809150509250929050565b60008060408385031215613e5857600080fd5b50508035926020909101359150565b60008060408385031215613e7a57600080fd5b82359150613e8a6020840161394d565b90509250929050565b60008060008060608587031215613ea957600080fd5b84359350613eb96020860161394d565b9250604085013567ffffffffffffffff811115613b5657600080fd5b600080600080600060808688031215613eed57600080fd5b85359450613efd6020870161394d565b9350604086013567ffffffffffffffff80821115613f1a57600080fd5b613f2689838a016138e4565b90955093506060880135915080821115613a2357600080fd5b60008060008060008060008060e0898b031215613f5b57600080fd5b88359750613f6b60208a0161394d565b9650604089013567ffffffffffffffff80821115613f8857600080fd5b613f948c838d016138e4565b909850965060608b0135915080821115613fad57600080fd5b50613fba8b828c0161392d565b945050613fc960808a0161394d565b925060a0890135915060c089013590509295985092959890939650565b600080600080600060a08688031215613ffe57600080fd5b8535945061400e6020870161394d565b935061401c6040870161394d565b94979396509394606081013594506080013592915050565b600081518084526020808501945080840160005b8381101561406d5781516001600160a01b031687529582019590820190600101614048565b509495945050505050565b600081518084526020808501808196508360051b8101915082860160005b858110156140c05782840389526140ae8483516140fd565b98850198935090840190600101614096565b5091979650505050505050565b600081518084526020808501945080840160005b8381101561406d578151875295820195908201906001016140e1565b6000815180845261411581602086016020860161446d565b601f01601f19169290920160200192915050565b8183823760009101908152919050565b6000825161414b81846020870161446d565b9190910192915050565b6001600160a01b038516815283602082015260a06040820152600060a082015260c06060820152600061418b60c08301856140fd565b905082608083015295945050505050565b6080815260006141af6080830187614034565b82810360208401526141c181876140cd565b905082810360408401526141d58186614078565b91505082606083015295945050505050565b602081016008831061420957634e487b7160e01b600052602160045260246000fd5b91905290565b60208152600061183b60208301846140fd565b60006101208b835260206001600160a01b038c168185015281604085015261424c8285018c614034565b91508382036060850152614260828b6140cd565b915083820360808501528189518084528284019150828160051b850101838c0160005b838110156142b157601f1987840301855261429f8383516140fd565b94860194925090850190600101614283565b505086810360a08801526142c5818c614078565b9450505050506142e160c084018767ffffffffffffffff169052565b67ffffffffffffffff851660e084015282810361010084015261430481856140fd565b9c9b505050505050505050505050565b84815260ff8416602082015282604082015260806060820152600061174160808301846140fd565b85815260ff8516602082015283604082015260a06060820152600061436460a08301856140fd565b8281036080840152611c9581856140fd565b604051601f8201601f1916810167ffffffffffffffff8111828210171561439f5761439f614531565b604052919050565b600067ffffffffffffffff8211156143c1576143c1614531565b5060051b60200190565b600067ffffffffffffffff8211156143e5576143e5614531565b50601f01601f191660200190565b60008219821115614406576144066144ef565b500190565b600067ffffffffffffffff80831681851680830382111561442e5761442e6144ef565b01949350505050565b6000816000190483118215151615614451576144516144ef565b500290565b600082821015614468576144686144ef565b500390565b60005b83811015614488578181015183820152602001614470565b83811115611aa05750506000910152565b600181811c908216806144ad57607f821691505b602082108114156144ce57634e487b7160e01b600052602260045260246000fd5b50919050565b60006000198214156144e8576144e86144ef565b5060010190565b634e487b7160e01b600052601160045260246000fd5b634e487b7160e01b600052602160045260246000fd5b634e487b7160e01b600052603260045260246000fd5b634e487b7160e01b600052604160045260246000fd5b6001600160a01b03811681146116f657600080fdfe416464726573733a206c6f772d6c6576656c2063616c6c20776974682076616c7565206661696c6564a164736f6c6343000806000a",
  "linkReferences": {},
  "deployedLinkReferences": {}
}