{
  "_format": "hh-sol-artifact-1",
  "contractName": "MyGovernor",
  "sourceName": "contracts/MyGovernor.sol",
  "abi": [
    {
      "inputs": [
        {
          "internalType": "contract IVotes",
          "name": "_token",
          "type": "address"
        },
        {
          "internalType": "contract ICompoundTimelock",
          "name": "_timelock",
          "type": "address"
        },
        {
          "internalType": "contract IMyGovernorHelper",
          "name": "_helper",
          "type": "address"
        }
      ],
      "stateMutability": "nonpayable",
      "type": "constructor"
    },
    {
      "inputs": [],
      "name": "Empty",
      "type": "error"
    },
    {
      "anonymous": false,
      "inputs": [
        {
          "indexed": false,
          "internalType": "uint256",
          "name": "proposalId",
          "type": "uint256"
        }
      ],
      "name": "ProposalCanceled",
      "type": "event"
    },
    {
      "anonymous": false,
      "inputs": [
        {
          "indexed": false,
          "internalType": "uint256",
          "name": "proposalId",
          "type": "uint256"
        },
        {
          "indexed": false,
          "internalType": "address",
          "name": "proposer",
          "type": "address"
        },
        {
          "indexed": false,
          "internalType": "address[]",
          "name": "targets",
          "type": "address[]"
        },
        {
          "indexed": false,
          "internalType": "uint256[]",
          "name": "values",
          "type": "uint256[]"
        },
        {
          "indexed": false,
          "internalType": "string[]",
          "name": "signatures",
          "type": "string[]"
        },
        {
          "indexed": false,
          "internalType": "bytes[]",
          "name": "calldatas",
          "type": "bytes[]"
        },
        {
          "indexed": false,
          "internalType": "uint256",
          "name": "startBlock",
          "type": "uint256"
        },
        {
          "indexed": false,
          "internalType": "uint256",
          "name": "endBlock",
          "type": "uint256"
        },
        {
          "indexed": false,
          "internalType": "string",
          "name": "description",
          "type": "string"
        }
      ],
      "name": "ProposalCreated",
      "type": "event"
    },
    {
      "anonymous": false,
      "inputs": [
        {
          "indexed": false,
          "internalType": "uint256",
          "name": "proposalId",
          "type": "uint256"
        }
      ],
      "name": "ProposalExecuted",
      "type": "event"
    },
    {
      "anonymous": false,
      "inputs": [
        {
          "indexed": false,
          "internalType": "uint256",
          "name": "proposalId",
          "type": "uint256"
        },
        {
          "indexed": false,
          "internalType": "uint256",
          "name": "eta",
          "type": "uint256"
        }
      ],
      "name": "ProposalQueued",
      "type": "event"
    },
    {
      "anonymous": false,
      "inputs": [
        {
          "indexed": false,
          "internalType": "uint256",
          "name": "oldProposalThreshold",
          "type": "uint256"
        },
        {
          "indexed": false,
          "internalType": "uint256",
          "name": "newProposalThreshold",
          "type": "uint256"
        }
      ],
      "name": "ProposalThresholdSet",
      "type": "event"
    },
    {
      "anonymous": false,
      "inputs": [
        {
          "indexed": false,
          "internalType": "address",
          "name": "oldTimelock",
          "type": "address"
        },
        {
          "indexed": false,
          "internalType": "address",
          "name": "newTimelock",
          "type": "address"
        }
      ],
      "name": "TimelockChange",
      "type": "event"
    },
    {
      "anonymous": false,
      "inputs": [
        {
          "indexed": true,
          "internalType": "address",
          "name": "voter",
          "type": "address"
        },
        {
          "indexed": false,
          "internalType": "uint256",
          "name": "proposalId",
          "type": "uint256"
        },
        {
          "indexed": false,
          "internalType": "uint8",
          "name": "support",
          "type": "uint8"
        },
        {
          "indexed": false,
          "internalType": "uint256",
          "name": "weight",
          "type": "uint256"
        },
        {
          "indexed": false,
          "internalType": "string",
          "name": "reason",
          "type": "string"
        }
      ],
      "name": "VoteCast",
      "type": "event"
    },
    {
      "anonymous": false,
      "inputs": [
        {
          "indexed": true,
          "internalType": "address",
          "name": "voter",
          "type": "address"
        },
        {
          "indexed": false,
          "internalType": "uint256",
          "name": "proposalId",
          "type": "uint256"
        },
        {
          "indexed": false,
          "internalType": "uint8",
          "name": "support",
          "type": "uint8"
        },
        {
          "indexed": false,
          "internalType": "uint256",
          "name": "weight",
          "type": "uint256"
        },
        {
          "indexed": false,
          "internalType": "string",
          "name": "reason",
          "type": "string"
        },
        {
          "indexed": false,
          "internalType": "bytes",
          "name": "params",
          "type": "bytes"
        }
      ],
      "name": "VoteCastWithParams",
      "type": "event"
    },
    {
      "anonymous": false,
      "inputs": [
        {
          "indexed": false,
          "internalType": "uint256",
          "name": "oldVotingDelay",
          "type": "uint256"
        },
        {
          "indexed": false,
          "internalType": "uint256",
          "name": "newVotingDelay",
          "type": "uint256"
        }
      ],
      "name": "VotingDelaySet",
      "type": "event"
    },
    {
      "anonymous": false,
      "inputs": [
        {
          "indexed": false,
          "internalType": "uint256",
          "name": "oldVotingPeriod",
          "type": "uint256"
        },
        {
          "indexed": false,
          "internalType": "uint256",
          "name": "newVotingPeriod",
          "type": "uint256"
        }
      ],
      "name": "VotingPeriodSet",
      "type": "event"
    },
    {
      "inputs": [],
      "name": "BALLOT_TYPEHASH",
      "outputs": [
        {
          "internalType": "bytes32",
          "name": "",
          "type": "bytes32"
        }
      ],
      "stateMutability": "view",
      "type": "function"
    },
    {
      "inputs": [],
      "name": "COUNTING_MODE",
      "outputs": [
        {
          "internalType": "string",
          "name": "",
          "type": "string"
        }
      ],
      "stateMutability": "pure",
      "type": "function"
    },
    {
      "inputs": [],
      "name": "EXTENDED_BALLOT_TYPEHASH",
      "outputs": [
        {
          "internalType": "bytes32",
          "name": "",
          "type": "bytes32"
        }
      ],
      "stateMutability": "view",
      "type": "function"
    },
    {
      "inputs": [],
      "name": "__acceptAdmin",
      "outputs": [],
      "stateMutability": "nonpayable",
      "type": "function"
    },
    {
      "inputs": [
        {
          "internalType": "uint256",
          "name": "proposalId",
          "type": "uint256"
        },
        {
          "internalType": "uint8",
          "name": "support",
          "type": "uint8"
        }
      ],
      "name": "castVote",
      "outputs": [
        {
          "internalType": "uint256",
          "name": "",
          "type": "uint256"
        }
      ],
      "stateMutability": "nonpayable",
      "type": "function"
    },
    {
      "inputs": [
        {
          "internalType": "uint256",
          "name": "proposalId",
          "type": "uint256"
        },
        {
          "internalType": "uint8",
          "name": "support",
          "type": "uint8"
        }
      ],
      "name": "castVoteAllIn",
      "outputs": [
        {
          "internalType": "uint256",
          "name": "",
          "type": "uint256"
        }
      ],
      "stateMutability": "payable",
      "type": "function"
    },
    {
      "inputs": [
        {
          "internalType": "uint256",
          "name": "proposalId",
          "type": "uint256"
        },
        {
          "internalType": "uint8",
          "name": "support",
          "type": "uint8"
        },
        {
          "internalType": "uint8",
          "name": "v",
          "type": "uint8"
        },
        {
          "internalType": "bytes32",
          "name": "r",
          "type": "bytes32"
        },
        {
          "internalType": "bytes32",
          "name": "s",
          "type": "bytes32"
        }
      ],
      "name": "castVoteBySig",
      "outputs": [
        {
          "internalType": "uint256",
          "name": "",
          "type": "uint256"
        }
      ],
      "stateMutability": "nonpayable",
      "type": "function"
    },
    {
      "inputs": [
        {
          "internalType": "uint256",
          "name": "proposalId",
          "type": "uint256"
        },
        {
          "internalType": "uint8",
          "name": "support",
          "type": "uint8"
        }
      ],
      "name": "castVoteSimple",
      "outputs": [
        {
          "internalType": "uint256",
          "name": "",
          "type": "uint256"
        }
      ],
      "stateMutability": "payable",
      "type": "function"
    },
    {
      "inputs": [
        {
          "internalType": "uint256",
          "name": "proposalId",
          "type": "uint256"
        },
        {
          "internalType": "uint8",
          "name": "support",
          "type": "uint8"
        },
        {
          "internalType": "string",
          "name": "reason",
          "type": "string"
        }
      ],
      "name": "castVoteWithReason",
      "outputs": [
        {
          "internalType": "uint256",
          "name": "",
          "type": "uint256"
        }
      ],
      "stateMutability": "nonpayable",
      "type": "function"
    },
    {
      "inputs": [
        {
          "internalType": "uint256",
          "name": "proposalId",
          "type": "uint256"
        },
        {
          "internalType": "uint8",
          "name": "support",
          "type": "uint8"
        },
        {
          "internalType": "string",
          "name": "reason",
          "type": "string"
        },
        {
          "internalType": "bytes",
          "name": "params",
          "type": "bytes"
        }
      ],
      "name": "castVoteWithReasonAndParams",
      "outputs": [
        {
          "internalType": "uint256",
          "name": "",
          "type": "uint256"
        }
      ],
      "stateMutability": "nonpayable",
      "type": "function"
    },
    {
      "inputs": [
        {
          "internalType": "uint256",
          "name": "proposalId",
          "type": "uint256"
        },
        {
          "internalType": "uint8",
          "name": "support",
          "type": "uint8"
        },
        {
          "internalType": "string",
          "name": "reason",
          "type": "string"
        },
        {
          "internalType": "bytes",
          "name": "params",
          "type": "bytes"
        },
        {
          "internalType": "uint8",
          "name": "v",
          "type": "uint8"
        },
        {
          "internalType": "bytes32",
          "name": "r",
          "type": "bytes32"
        },
        {
          "internalType": "bytes32",
          "name": "s",
          "type": "bytes32"
        }
      ],
      "name": "castVoteWithReasonAndParamsBySig",
      "outputs": [
        {
          "internalType": "uint256",
          "name": "",
          "type": "uint256"
        }
      ],
      "stateMutability": "nonpayable",
      "type": "function"
    },
    {
      "inputs": [
        {
          "internalType": "address[]",
          "name": "targets",
          "type": "address[]"
        },
        {
          "internalType": "uint256[]",
          "name": "values",
          "type": "uint256[]"
        },
        {
          "internalType": "bytes[]",
          "name": "calldatas",
          "type": "bytes[]"
        },
        {
          "internalType": "bytes32",
          "name": "descriptionHash",
          "type": "bytes32"
        }
      ],
      "name": "execute",
      "outputs": [
        {
          "internalType": "uint256",
          "name": "",
          "type": "uint256"
        }
      ],
      "stateMutability": "payable",
      "type": "function"
    },
    {
      "inputs": [],
      "name": "getBalance",
      "outputs": [
        {
          "internalType": "uint256",
          "name": "",
          "type": "uint256"
        }
      ],
      "stateMutability": "view",
      "type": "function"
    },
    {
      "inputs": [
        {
          "internalType": "uint256",
          "name": "proposalId",
          "type": "uint256"
        }
      ],
      "name": "getProposerBudget",
      "outputs": [
        {
          "internalType": "uint256",
          "name": "",
          "type": "uint256"
        }
      ],
      "stateMutability": "view",
      "type": "function"
    },
    {
      "inputs": [
        {
          "internalType": "uint256",
          "name": "proposalId",
          "type": "uint256"
        }
      ],
      "name": "getProposerName",
      "outputs": [
        {
          "internalType": "address",
          "name": "",
          "type": "address"
        }
      ],
      "stateMutability": "view",
      "type": "function"
    },
    {
      "inputs": [
        {
          "internalType": "address",
          "name": "account",
          "type": "address"
        },
        {
          "internalType": "uint256",
          "name": "blockNumber",
          "type": "uint256"
        }
      ],
      "name": "getVotes",
      "outputs": [
        {
          "internalType": "uint256",
          "name": "",
          "type": "uint256"
        }
      ],
      "stateMutability": "view",
      "type": "function"
    },
    {
      "inputs": [
        {
          "internalType": "address",
          "name": "account",
          "type": "address"
        },
        {
          "internalType": "uint256",
          "name": "blockNumber",
          "type": "uint256"
        },
        {
          "internalType": "bytes",
          "name": "params",
          "type": "bytes"
        }
      ],
      "name": "getVotesWithParams",
      "outputs": [
        {
          "internalType": "uint256",
          "name": "",
          "type": "uint256"
        }
      ],
      "stateMutability": "view",
      "type": "function"
    },
    {
      "inputs": [
        {
          "internalType": "uint256",
          "name": "proposalId",
          "type": "uint256"
        },
        {
          "internalType": "address",
          "name": "account",
          "type": "address"
        }
      ],
      "name": "hasVoted",
      "outputs": [
        {
          "internalType": "bool",
          "name": "",
          "type": "bool"
        }
      ],
      "stateMutability": "view",
      "type": "function"
    },
    {
      "inputs": [
        {
          "internalType": "address[]",
          "name": "targets",
          "type": "address[]"
        },
        {
          "internalType": "uint256[]",
          "name": "values",
          "type": "uint256[]"
        },
        {
          "internalType": "bytes[]",
          "name": "calldatas",
          "type": "bytes[]"
        },
        {
          "internalType": "bytes32",
          "name": "descriptionHash",
          "type": "bytes32"
        }
      ],
      "name": "hashProposal",
      "outputs": [
        {
          "internalType": "uint256",
          "name": "",
          "type": "uint256"
        }
      ],
      "stateMutability": "pure",
      "type": "function"
    },
    {
      "inputs": [],
      "name": "name",
      "outputs": [
        {
          "internalType": "string",
          "name": "",
          "type": "string"
        }
      ],
      "stateMutability": "view",
      "type": "function"
    },
    {
      "inputs": [
        {
          "internalType": "address",
          "name": "",
          "type": "address"
        },
        {
          "internalType": "address",
          "name": "",
          "type": "address"
        },
        {
          "internalType": "uint256[]",
          "name": "",
          "type": "uint256[]"
        },
        {
          "internalType": "uint256[]",
          "name": "",
          "type": "uint256[]"
        },
        {
          "internalType": "bytes",
          "name": "",
          "type": "bytes"
        }
      ],
      "name": "onERC1155BatchReceived",
      "outputs": [
        {
          "internalType": "bytes4",
          "name": "",
          "type": "bytes4"
        }
      ],
      "stateMutability": "nonpayable",
      "type": "function"
    },
    {
      "inputs": [
        {
          "internalType": "address",
          "name": "",
          "type": "address"
        },
        {
          "internalType": "address",
          "name": "",
          "type": "address"
        },
        {
          "internalType": "uint256",
          "name": "",
          "type": "uint256"
        },
        {
          "internalType": "uint256",
          "name": "",
          "type": "uint256"
        },
        {
          "internalType": "bytes",
          "name": "",
          "type": "bytes"
        }
      ],
      "name": "onERC1155Received",
      "outputs": [
        {
          "internalType": "bytes4",
          "name": "",
          "type": "bytes4"
        }
      ],
      "stateMutability": "nonpayable",
      "type": "function"
    },
    {
      "inputs": [
        {
          "internalType": "address",
          "name": "",
          "type": "address"
        },
        {
          "internalType": "address",
          "name": "",
          "type": "address"
        },
        {
          "internalType": "uint256",
          "name": "",
          "type": "uint256"
        },
        {
          "internalType": "bytes",
          "name": "",
          "type": "bytes"
        }
      ],
      "name": "onERC721Received",
      "outputs": [
        {
          "internalType": "bytes4",
          "name": "",
          "type": "bytes4"
        }
      ],
      "stateMutability": "nonpayable",
      "type": "function"
    },
    {
      "inputs": [],
      "name": "owner",
      "outputs": [
        {
          "internalType": "address",
          "name": "",
          "type": "address"
        }
      ],
      "stateMutability": "view",
      "type": "function"
    },
    {
      "inputs": [
        {
          "internalType": "uint256",
          "name": "proposalId",
          "type": "uint256"
        }
      ],
      "name": "proposalDeadline",
      "outputs": [
        {
          "internalType": "uint256",
          "name": "",
          "type": "uint256"
        }
      ],
      "stateMutability": "view",
      "type": "function"
    },
    {
      "inputs": [
        {
          "internalType": "uint256",
          "name": "proposalId",
          "type": "uint256"
        }
      ],
      "name": "proposalEta",
      "outputs": [
        {
          "internalType": "uint256",
          "name": "",
          "type": "uint256"
        }
      ],
      "stateMutability": "view",
      "type": "function"
    },
    {
      "inputs": [
        {
          "internalType": "uint256",
          "name": "proposalId",
          "type": "uint256"
        }
      ],
      "name": "proposalSnapshot",
      "outputs": [
        {
          "internalType": "uint256",
          "name": "",
          "type": "uint256"
        }
      ],
      "stateMutability": "view",
      "type": "function"
    },
    {
      "inputs": [],
      "name": "proposalThreshold",
      "outputs": [
        {
          "internalType": "uint256",
          "name": "",
          "type": "uint256"
        }
      ],
      "stateMutability": "view",
      "type": "function"
    },
    {
      "inputs": [
        {
          "internalType": "uint256",
          "name": "proposalId",
          "type": "uint256"
        }
      ],
      "name": "proposalVotes",
      "outputs": [
        {
          "internalType": "uint256",
          "name": "againstVotes",
          "type": "uint256"
        },
        {
          "internalType": "uint256",
          "name": "forVotes",
          "type": "uint256"
        },
        {
          "internalType": "uint256",
          "name": "abstainVotes",
          "type": "uint256"
        }
      ],
      "stateMutability": "view",
      "type": "function"
    },
    {
      "inputs": [
        {
          "internalType": "address[]",
          "name": "targets",
          "type": "address[]"
        },
        {
          "internalType": "uint256[]",
          "name": "values",
          "type": "uint256[]"
        },
        {
          "internalType": "bytes[]",
          "name": "calldatas",
          "type": "bytes[]"
        },
        {
          "internalType": "string",
          "name": "description",
          "type": "string"
        }
      ],
      "name": "propose",
      "outputs": [
        {
          "internalType": "uint256",
          "name": "",
          "type": "uint256"
        }
      ],
      "stateMutability": "nonpayable",
      "type": "function"
    },
    {
      "inputs": [
        {
          "internalType": "uint256",
          "name": "proposalId",
          "type": "uint256"
        }
      ],
      "name": "quadraticVoting",
      "outputs": [],
      "stateMutability": "payable",
      "type": "function"
    },
    {
      "inputs": [
        {
          "internalType": "address[]",
          "name": "targets",
          "type": "address[]"
        },
        {
          "internalType": "uint256[]",
          "name": "values",
          "type": "uint256[]"
        },
        {
          "internalType": "bytes[]",
          "name": "calldatas",
          "type": "bytes[]"
        },
        {
          "internalType": "bytes32",
          "name": "descriptionHash",
          "type": "bytes32"
        }
      ],
      "name": "queue",
      "outputs": [
        {
          "internalType": "uint256",
          "name": "",
          "type": "uint256"
        }
      ],
      "stateMutability": "nonpayable",
      "type": "function"
    },
    {
      "inputs": [
        {
          "internalType": "uint256",
          "name": "blockNumber",
          "type": "uint256"
        }
      ],
      "name": "quorum",
      "outputs": [
        {
          "internalType": "uint256",
          "name": "",
          "type": "uint256"
        }
      ],
      "stateMutability": "pure",
      "type": "function"
    },
    {
      "inputs": [
        {
          "internalType": "address",
          "name": "target",
          "type": "address"
        },
        {
          "internalType": "uint256",
          "name": "value",
          "type": "uint256"
        },
        {
          "internalType": "bytes",
          "name": "data",
          "type": "bytes"
        }
      ],
      "name": "relay",
      "outputs": [],
      "stateMutability": "nonpayable",
      "type": "function"
    },
    {
      "inputs": [
        {
          "internalType": "uint256",
          "name": "proposalId",
          "type": "uint256"
        },
        {
          "internalType": "uint256",
          "name": "budget",
          "type": "uint256"
        }
      ],
      "name": "setProposalBudget",
      "outputs": [],
      "stateMutability": "nonpayable",
      "type": "function"
    },
    {
      "inputs": [
        {
          "internalType": "uint256",
          "name": "newProposalThreshold",
          "type": "uint256"
        }
      ],
      "name": "setProposalThreshold",
      "outputs": [],
      "stateMutability": "nonpayable",
      "type": "function"
    },
    {
      "inputs": [
        {
          "internalType": "uint256",
          "name": "newVotingDelay",
          "type": "uint256"
        }
      ],
      "name": "setVotingDelay",
      "outputs": [],
      "stateMutability": "nonpayable",
      "type": "function"
    },
    {
      "inputs": [
        {
          "internalType": "uint256",
          "name": "newVotingPeriod",
          "type": "uint256"
        }
      ],
      "name": "setVotingPeriod",
      "outputs": [],
      "stateMutability": "nonpayable",
      "type": "function"
    },
    {
      "inputs": [
        {
          "internalType": "uint256",
          "name": "proposalId",
          "type": "uint256"
        }
      ],
      "name": "state",
      "outputs": [
        {
          "internalType": "enum IGovernor.ProposalState",
          "name": "",
          "type": "uint8"
        }
      ],
      "stateMutability": "view",
      "type": "function"
    },
    {
      "inputs": [
        {
          "internalType": "bytes4",
          "name": "interfaceId",
          "type": "bytes4"
        }
      ],
      "name": "supportsInterface",
      "outputs": [
        {
          "internalType": "bool",
          "name": "",
          "type": "bool"
        }
      ],
      "stateMutability": "view",
      "type": "function"
    },
    {
      "inputs": [],
      "name": "timelock",
      "outputs": [
        {
          "internalType": "address",
          "name": "",
          "type": "address"
        }
      ],
      "stateMutability": "view",
      "type": "function"
    },
    {
      "inputs": [],
      "name": "timelockAddress",
      "outputs": [
        {
          "internalType": "contract ICompoundTimelock",
          "name": "",
          "type": "address"
        }
      ],
      "stateMutability": "view",
      "type": "function"
    },
    {
      "inputs": [],
      "name": "token",
      "outputs": [
        {
          "internalType": "contract IVotes",
          "name": "",
          "type": "address"
        }
      ],
      "stateMutability": "view",
      "type": "function"
    },
    {
      "inputs": [],
      "name": "tokenAddress",
      "outputs": [
        {
          "internalType": "address",
          "name": "",
          "type": "address"
        }
      ],
      "stateMutability": "view",
      "type": "function"
    },
    {
      "inputs": [
        {
          "internalType": "address payable",
          "name": "_receiver",
          "type": "address"
        },
        {
          "internalType": "uint256",
          "name": "amount",
          "type": "uint256"
        }
      ],
      "name": "transferFunds",
      "outputs": [],
      "stateMutability": "payable",
      "type": "function"
    },
    {
      "inputs": [
        {
          "internalType": "contract ICompoundTimelock",
          "name": "newTimelock",
          "type": "address"
        }
      ],
      "name": "updateTimelock",
      "outputs": [],
      "stateMutability": "nonpayable",
      "type": "function"
    },
    {
      "inputs": [],
      "name": "version",
      "outputs": [
        {
          "internalType": "string",
          "name": "",
          "type": "string"
        }
      ],
      "stateMutability": "view",
      "type": "function"
    },
    {
      "inputs": [],
      "name": "votingDelay",
      "outputs": [
        {
          "internalType": "uint256",
          "name": "",
          "type": "uint256"
        }
      ],
      "stateMutability": "view",
      "type": "function"
    },
    {
      "inputs": [],
      "name": "votingPeriod",
      "outputs": [
        {
          "internalType": "uint256",
          "name": "",
          "type": "uint256"
        }
      ],
      "stateMutability": "view",
      "type": "function"
    },
    {
      "stateMutability": "payable",
      "type": "receive"
    }
  ],
  "bytecode": "0x6101606040523480156200001257600080fd5b506040516200474938038062004749833981016040819052620000359162000403565b81836001601460026040518060400160405280600a81526020016926bca3b7bb32b93737b960b11b8152508062000071620001b160201b60201c565b815160208084019190912082518383012060e08290526101008190524660a0818152604080517f8b73c3c69bb8fe3d512ecc4cf759cc79239f7b179b0ffacaa9a75d522b39400f81880181905281830187905260608201869052608082019490945230818401528151808203909301835260c00190528051940193909320919290916080523060601b60c05261012052505082516200011a92506000915060208401906200035d565b5062000128905083620001cc565b62000133826200020d565b6200013e81620002b3565b50505060601b6001600160601b031916610140526200015d81620002f4565b50600a80546001600160a01b039485166001600160a01b031991821617909155600d805492851692821692909217909155600b80549290931691811691909117909155600c805490911633179055620004ad565b6040805180820190915260018152603160f81b602082015290565b60045460408051918252602082018390527fc565b045403dc03c2eea82b81a0465edad9e2e7fc4d97e11421c209da93d7a93910160405180910390a1600455565b60008111620002725760405162461bcd60e51b815260206004820152602760248201527f476f7665726e6f7253657474696e67733a20766f74696e6720706572696f6420604482015266746f6f206c6f7760c81b606482015260840160405180910390fd5b60055460408051918252602082018390527f7e3f7f0708a84de9203036abaa450dccc85ad5ff52f78c170f3edb55cf5e8828910160405180910390a1600555565b60065460408051918252602082018390527fccb45da8d5717e6c4544694297c4ba5cf151d455c9bb0ed4fc7a38411bc05461910160405180910390a1600655565b600854604080516001600160a01b03928316815291831660208301527f08f74ea46ef7894f65eabfb5e6e695de773a000b47c529ab559178069b226401910160405180910390a1600880546001600160a01b0319166001600160a01b0392909216919091179055565b8280546200036b9062000457565b90600052602060002090601f0160209004810192826200038f5760008555620003da565b82601f10620003aa57805160ff1916838001178555620003da565b82800160010185558215620003da579182015b82811115620003da578251825591602001919060010190620003bd565b50620003e8929150620003ec565b5090565b5b80821115620003e85760008155600101620003ed565b6000806000606084860312156200041957600080fd5b8351620004268162000494565b6020850151909350620004398162000494565b60408501519092506200044c8162000494565b809150509250925092565b600181811c908216806200046c57607f821691505b602082108114156200048e57634e487b7160e01b600052602260045260246000fd5b50919050565b6001600160a01b0381168114620004aa57600080fd5b50565b60805160a05160c05160601c60e05161010051610120516101405160601c614234620005156000396000818161091c0152611f0d01526000612977015260006129c6015260006129a1015260006128fa015260006129240152600061294e01526142346000f3fe6080604052600436106102325760003560e01c806301ffc9a71461025a57806302a251a31461028f57806303420181146102b257806306fdde03146102d257806312065fe0146102f4578063150b7a0214610307578063160cbed71461034b578063227588b51461036b5780632656227d1461037e5780632d63f693146103915780632fe3e261146103b15780633932abb1146103d35780633bccf4fd146103e85780633e4f49e614610408578063438596321461043557806345df67ce1461047f5780634bc66f32146104c2578063544ffc9c146104e257806354fd4d501461053757806356781388146105615780635d949972146105815780635f398a14146105a15780636a9bb000146105c157806370b0f660146105f15780637b3c71d3146106115780637d5e81e2146106315780638da5cb5b14610651578063990dc9db146106715780639a802a6d146106845780639c61248a146106a45780639d76ea58146106b7578063a890c910146106d7578063ab58fb8e146106f7578063b58131b014610717578063b9a619611461072c578063bc197c8114610741578063c006b57f1461076d578063c01f9e3714610780578063c28bc2fa146107a0578063c59057e4146107c0578063d33219b4146107e0578063dd4e2ba5146107f5578063deaaa7cc1461083b578063ea0217cf1461085d578063eb9019d41461087d578063ece40cc11461089d578063f23a6e61146108bd578063f8ce560a146108e9578063fc0c546a1461090a57600080fd5b36610255573061024061093e565b6001600160a01b03161461025357600080fd5b005b600080fd5b34801561026657600080fd5b5061027a610275366004613809565b61094d565b60405190151581526020015b60405180910390f35b34801561029b57600080fd5b506102a461095e565b604051908152602001610286565b3480156102be57600080fd5b506102a46102cd3660046139fe565b610969565b3480156102de57600080fd5b506102e7610a4f565b6040516102869190613ce0565b34801561030057600080fd5b50476102a4565b34801561031357600080fd5b50610332610322366004613505565b630a85bd0160e11b949350505050565b6040516001600160e01b03199091168152602001610286565b34801561035757600080fd5b506102a461036636600461368b565b610ae1565b6102536103793660046138bd565b610ec6565b6102a461038c36600461368b565b610f86565b34801561039d57600080fd5b506102a46103ac3660046138bd565b61111e565b3480156103bd57600080fd5b506102a460008051602061419f83398151915281565b3480156103df57600080fd5b506102a4611155565b3480156103f457600080fd5b506102a4610403366004613aa4565b611160565b34801561041457600080fd5b506104286104233660046138bd565b6111c4565b6040516102869190613cb8565b34801561044157600080fd5b5061027a6104503660046138d6565b60008281526007602090815260408083206001600160a01b038516845260030190915290205460ff1692915050565b34801561048b57600080fd5b506104b561049a3660046138bd565b6000908152600f60205260409020546001600160a01b031690565b6040516102869190613c13565b3480156104ce57600080fd5b50600b546104b5906001600160a01b031681565b3480156104ee57600080fd5b5061051c6104fd3660046138bd565b6000908152600760205260409020805460018201546002909201549092565b60408051938452602084019290925290820152606001610286565b34801561054357600080fd5b506040805180820190915260018152603160f81b60208201526102e7565b34801561056d57600080fd5b506102a461057c366004613928565b6111cf565b34801561058d57600080fd5b5061025361059c366004613906565b6112ab565b3480156105ad57600080fd5b506102a46105bc366004613995565b6113db565b3480156105cd57600080fd5b506102a46105dc3660046138bd565b6000908152600f602052604090206001015490565b3480156105fd57600080fd5b5061025361060c3660046138bd565b611425565b34801561061d57600080fd5b506102a461062c366004613954565b6114b4565b34801561063d57600080fd5b506102a461064c36600461371a565b611506565b34801561065d57600080fd5b50600c546104b5906001600160a01b031681565b61025361067f36600461342c565b6115f0565b34801561069057600080fd5b506102a461069f366004613633565b611681565b6102a46106b2366004613928565b611698565b3480156106c357600080fd5b50600a546104b5906001600160a01b031681565b3480156106e357600080fd5b506102536106f23660046138a0565b61176c565b34801561070357600080fd5b506102a46107123660046138bd565b6117f8565b34801561072357600080fd5b506102a4611824565b34801561073857600080fd5b5061025361182f565b34801561074d57600080fd5b5061033261075c366004613458565b63bc197c8160e01b95945050505050565b6102a461077b366004613928565b611899565b34801561078c57600080fd5b506102a461079b3660046138bd565b611a4b565b3480156107ac57600080fd5b506102536107bb3660046135d8565b611a7a565b3480156107cc57600080fd5b506102a46107db36600461368b565b611b46565b3480156107ec57600080fd5b506104b5611b80565b34801561080157600080fd5b506040805180820190915260208082527f737570706f72743d627261766f2671756f72756d3d666f722c6162737461696e908201526102e7565b34801561084757600080fd5b506102a460008051602061417f83398151915281565b34801561086957600080fd5b506102536108783660046138bd565b611b8f565b34801561088957600080fd5b506102a461089836600461342c565b611c1b565b3480156108a957600080fd5b506102536108b83660046138bd565b611c3c565b3480156108c957600080fd5b506103326108d8366004613570565b63f23a6e6160e01b95945050505050565b3480156108f557600080fd5b506102a46109043660046138bd565b50600390565b34801561091657600080fd5b506104b57f000000000000000000000000000000000000000000000000000000000000000081565b6000610948611b80565b905090565b600061095882611cc8565b92915050565b600061094860055490565b6000806109fb6109f360008051602061419f8339815191528c8c8c8c604051610993929190613be7565b60405180910390208b805190602001206040516020016109d8959493929190948552602085019390935260ff9190911660408401526060830152608082015260a00190565b60405160208183030381529060405280519060200120611ced565b868686611d3b565b9050610a418a828b8b8b8080601f0160208091040260200160405190810160405280939291908181526020018383808284376000920191909152508d9250611d59915050565b9a9950505050505050505050565b606060008054610a5e906140bb565b80601f0160208091040260200160405190810160405280929190818152602001828054610a8a906140bb565b8015610ad75780601f10610aac57610100808354040283529160200191610ad7565b820191906000526020600020905b815481529060010190602001808311610aba57829003601f168201915b5050505050905090565b600080610af086868686611b46565b90506004610afd826111c4565b6007811115610b0e57610b0e614127565b14610b6a5760405162461bcd60e51b815260206004820152602160248201527f476f7665726e6f723a2070726f706f73616c206e6f74207375636365737366756044820152601b60fa1b60648201526084015b60405180910390fd5b60085460408051630d48571f60e31b815290516000926001600160a01b031691636a42b8f8916004808301926020929190829003018186803b158015610baf57600080fd5b505afa158015610bc3573d6000803e3d6000fd5b505050506040513d601f19601f82011682018060405250810190610be791906137f0565b610bf19042614016565b9050610c13610bff82611e5b565b600084815260096020526040902090611ec7565b60005b8751811015610e825760085488516001600160a01b039091169063f2b06537908a9084908110610c4857610c4861413d565b6020026020010151898481518110610c6257610c6261413d565b6020026020010151898581518110610c7c57610c7c61413d565b602002602001015186604051602001610c989493929190613c27565b604051602081830303815290604052805190602001206040518263ffffffff1660e01b8152600401610ccc91815260200190565b60206040518083038186803b158015610ce457600080fd5b505afa158015610cf8573d6000803e3d6000fd5b505050506040513d601f19601f82011682018060405250810190610d1c91906137ce565b15610d9a5760405162461bcd60e51b815260206004820152604260248201527f476f7665726e6f7254696d656c6f636b436f6d706f756e643a206964656e746960448201527f63616c2070726f706f73616c20616374696f6e20616c72656164792071756575606482015261195960f21b608482015260a401610b61565b60085488516001600160a01b0390911690633a66f901908a9084908110610dc357610dc361413d565b6020026020010151898481518110610ddd57610ddd61413d565b6020026020010151898581518110610df757610df761413d565b6020026020010151866040518563ffffffff1660e01b8152600401610e1f9493929190613c27565b602060405180830381600087803b158015610e3957600080fd5b505af1158015610e4d573d6000803e3d6000fd5b505050506040513d601f19601f82011682018060405250810190610e7191906137f0565b50610e7b816140f6565b9050610c16565b507f9a2e42fd6722813d69113e7d0079d3d940171428df7373df9c7f7617cfda28928282604051610eb4929190613f2c565b60405180910390a15095945050505050565b6000610eea33610ed58461111e565b60405180602001604052806000815250611ee4565b90506000610ef88280614059565b90506103e8811115610f0957506103e85b80341015610f81576040805162461bcd60e51b81526020600482015260248101919091527f51756164726174696320766f74696e673a20596f75206e656564206d6f72652060448201527f657468657220746f20636f76657220796f757220766f7465207765696768742e6064820152608401610b61565b505050565b6000610f90611824565b600a546040516370a0823160e01b81526001600160a01b03909116906370a0823190610fc0903390600401613c13565b60206040518083038186803b158015610fd857600080fd5b505afa158015610fec573d6000803e3d6000fd5b505050506040513d601f19601f8201168201806040525081019061101091906137f0565b101561102e5760405162461bcd60e51b8152600401610b6190613dec565b600061103c86868686611b46565b6000818152600f602052604090208054600190910154919250611078916001600160a01b039091169061107390633b9aca00614059565b611f89565b600d54600b54604051631d89ffed60e21b8152600481018490526001600160a01b0391821660248201526000929190911690637627ffb490604401602060405180830381600087803b1580156110cd57600080fd5b505af11580156110e1573d6000803e3d6000fd5b505050506040513d601f19601f82011682018060405250810190611105919061340f565b90506111148288888888612029565b5095945050505050565b60008181526001602090815260408083208151928301909152546001600160401b0316908190525b6001600160401b031692915050565b600061094860045490565b6040805160008051602061417f833981519152602082015290810186905260ff85166060820152600090819061119c906109f3906080016109d8565b90506111b9878288604051806020016040528060008152506121b7565b979650505050505050565b6000610958826121e3565b600a546040516370a0823160e01b81526000916001916001600160a01b03909116906370a0823190611205903390600401613c13565b60206040518083038186803b15801561121d57600080fd5b505afa158015611231573d6000803e3d6000fd5b505050506040513d601f19601f8201168201806040525081019061125591906137f0565b10156112735760405162461bcd60e51b8152600401610b6190613d66565b60003390506112a38482856040518060200160405280600081525060405180602001604052806000815250611d59565b949350505050565b6000828152600f60205260409020546001600160a01b031633146113375760405162461bcd60e51b815260206004820152603f60248201527f476f7665726e6f723a206f6e6c79207468652070726f706f7365722063616e2060448201527f7365742074686520627564676574206f66207468652070726f706f73616c2e006064820152608401610b61565b6000611342836111c4565b600781111561135357611353614127565b146113c65760405162461bcd60e51b815260206004820152603e60248201527f476f7665726e6f723a2063616e6e6f74206368616e6765206275646765742e2060448201527f50726f706f73616c20766f746520616c726561647920737461727465642e00006064820152608401610b61565b6000918252600f602052604090912060010155565b6000803390506111b987828888888080601f0160208091040260200160405190810160405280939291908181526020018383808284376000920191909152508a9250611d59915050565b61142d61093e565b6001600160a01b0316336001600160a01b03161461145d5760405162461bcd60e51b8152600401610b6190613cf3565b3061146661093e565b6001600160a01b0316146114a85760008036604051611486929190613be7565b604051809103902090505b8061149c60026122d3565b146114a657611491565b505b6114b181612356565b50565b6000803390506114fc86828787878080601f0160208091040260200160405190810160405280939291908181526020018383808284376000920191909152506121b792505050565b9695505050505050565b6000611510611824565b600a546040516370a0823160e01b81526001600160a01b03909116906370a0823190611540903390600401613c13565b60206040518083038186803b15801561155857600080fd5b505afa15801561156c573d6000803e3d6000fd5b505050506040513d601f19601f8201168201806040525081019061159091906137f0565b10156115ae5760405162461bcd60e51b8152600401610b6190613dec565b60006115c38686868680519060200120611b46565b6000818152600f6020526040902080546001600160a01b031916331781559091506111b987878787612396565b600c546001600160a01b03163314806116135750600d546001600160a01b031633145b61164b5760405162461bcd60e51b81526020600482015260096024820152682737ba1037bbb732b960b91b6044820152606401610b61565b6040516001600160a01b0383169082156108fc029083906000818181858888f19350505050158015610f81573d6000803e3d6000fd5b600061168e848484611ee4565b90505b9392505050565b600a546040516370a0823160e01b81526000916001916001600160a01b03909116906370a08231906116ce903390600401613c13565b60206040518083038186803b1580156116e657600080fd5b505afa1580156116fa573d6000803e3d6000fd5b505050506040513d601f19601f8201168201806040525081019061171e91906137f0565b101561173c5760405162461bcd60e51b8152600401610b6190613d66565b60003390506112a384828560405180602001604052806000815250604051806020016040528060008152506125e9565b61177461093e565b6001600160a01b0316336001600160a01b0316146117a45760405162461bcd60e51b8152600401610b6190613cf3565b306117ad61093e565b6001600160a01b0316146117ef57600080366040516117cd929190613be7565b604051809103902090505b806117e360026122d3565b146117ed576117d8565b505b6114b1816126b4565b60008181526009602090815260408083208151928301909152546001600160401b031690819052611146565b600061094860065490565b600860009054906101000a90046001600160a01b03166001600160a01b0316630e18b6816040518163ffffffff1660e01b8152600401600060405180830381600087803b15801561187f57600080fd5b505af1158015611893573d6000803e3d6000fd5b50505050565b600a546040516370a0823160e01b81526000916001916001600160a01b03909116906370a08231906118cf903390600401613c13565b60206040518083038186803b1580156118e757600080fd5b505afa1580156118fb573d6000803e3d6000fd5b505050506040513d601f19601f8201168201806040525081019061191f91906137f0565b101561193d5760405162461bcd60e51b8152600401610b6190613d66565b600061194c33610ed58661111e565b9050600061195a8280614059565b90506000662386f26fc1000060018414156119785760009150611985565b6119828184614059565b91505b81341015611a0f5760405162461bcd60e51b815260206004820152604b60248201527f596f75206e656564206d6f726520657468657220746f20766f7465207769746860448201527f20616c6c204e4654732e2028636f7374203d20286e566f746573295e32202a2060648201526a302e30312065746865722960a81b608482015260a401610b61565b6000339050611a3f888289604051806020016040528060008152506040518060200160405280600081525061271d565b98975050505050505050565b60008181526001602081815260408084208151928301909152909101546001600160401b031690819052611146565b611a8261093e565b6001600160a01b0316336001600160a01b031614611ab25760405162461bcd60e51b8152600401610b6190613cf3565b30611abb61093e565b6001600160a01b031614611afd5760008036604051611adb929190613be7565b604051809103902090505b80611af160026122d3565b14611afb57611ae6565b505b611b3f8483838080601f01602080910402602001604051908101604052809392919081815260200183838082843760009201919091525088925061277c915050565b5050505050565b600084848484604051602001611b5f9493929190613c6d565b60408051601f19818403018152919052805160209091012095945050505050565b6008546001600160a01b031690565b611b9761093e565b6001600160a01b0316336001600160a01b031614611bc75760405162461bcd60e51b8152600401610b6190613cf3565b30611bd061093e565b6001600160a01b031614611c125760008036604051611bf0929190613be7565b604051809103902090505b80611c0660026122d3565b14611c1057611bfb565b505b6114b1816127a2565b60006116918383611c3760408051602081019091526000815290565b611ee4565b611c4461093e565b6001600160a01b0316336001600160a01b031614611c745760405162461bcd60e51b8152600401610b6190613cf3565b30611c7d61093e565b6001600160a01b031614611cbf5760008036604051611c9d929190613be7565b604051809103902090505b80611cb360026122d3565b14611cbd57611ca8565b505b6114b181612842565b60006001600160e01b03198216636e665ced60e01b1480610958575061095882612882565b6000610958611cfa6128ed565b8360405161190160f01b6020820152602281018390526042810182905260009060620160405160208183030381529060405280519060200120905092915050565b6000806000611d4c87878787612a14565b9150915061111481612af7565b6000858152600160208190526040822090611d73886111c4565b6007811115611d8457611d84614127565b14611da15760405162461bcd60e51b8152600401610b6190613da9565b604080516020810190915281546001600160401b031690819052600090611dca90889086611ee4565b9050611dd98888888488612cad565b8351611e1957866001600160a01b031660008051602061420883398151915289888489604051611e0c9493929190613f3a565b60405180910390a26111b9565b866001600160a01b03166000805160206141e88339815191528988848989604051611e48959493929190613f62565b60405180910390a2979650505050505050565b60006001600160401b03821115611ec35760405162461bcd60e51b815260206004820152602660248201527f53616665436173743a2076616c756520646f65736e27742066697420696e203660448201526534206269747360d01b6064820152608401610b61565b5090565b81546001600160401b0319166001600160401b0391909116179055565b604051630748d63560e31b81526001600160a01b038481166004830152602482018490526000917f000000000000000000000000000000000000000000000000000000000000000090911690633a46b1a89060440160206040518083038186803b158015611f5157600080fd5b505afa158015611f65573d6000803e3d6000fd5b505050506040513d601f19601f8201168201806040525081019061168e91906137f0565b600080836001600160a01b03168360405160006040518083038185875af1925050503d8060008114611fd7576040519150601f19603f3d011682016040523d82523d6000602084013e611fdc565b606091505b5091509150816118935760405162461bcd60e51b81526020600482015260186024820152772330b4b632b2103a37903bb4ba34323930bb9022ba3432b960411b6044820152606401610b61565b6000612034866117f8565b9050600081116120a05760405162461bcd60e51b815260206004820152603160248201527f476f7665726e6f7254696d656c6f636b436f6d706f756e643a2070726f706f73604482015270185b081b9bdd081e595d081c5d595d5959607a1b6064820152608401610b61565b6008546120b6906001600160a01b031634612e34565b60005b85518110156121ae5760085486516001600160a01b0390911690630825f38f908890849081106120eb576120eb61413d565b60200260200101518784815181106121055761210561413d565b602002602001015187858151811061211f5761211f61413d565b6020026020010151866040518563ffffffff1660e01b81526004016121479493929190613c27565b600060405180830381600087803b15801561216157600080fd5b505af1158015612175573d6000803e3d6000fd5b505050506040513d6000823e601f3d908101601f1916820160405261219d9190810190613833565b506121a7816140f6565b90506120b9565b50505050505050565b60006121da858585856121d560408051602081019091526000815290565b611d59565b95945050505050565b6000806121ef83612f4a565b9050600481600781111561220557612205614127565b146122105792915050565b600061221b846117f8565b905080612229575092915050565b600860009054906101000a90046001600160a01b03166001600160a01b031663c1a287e26040518163ffffffff1660e01b815260040160206040518083038186803b15801561227757600080fd5b505afa15801561228b573d6000803e3d6000fd5b505050506040513d601f19601f820116820180604052508101906122af91906137f0565b6122b99082614016565b42106122c9575060069392505050565b5060059392505050565b60006122f28254600f81810b810b600160801b909204810b900b131590565b1561231057604051631ed9509560e11b815260040160405180910390fd5b508054600f90810b80820b820b600090815260018085016020526040822080549290558454920190920b6001600160801b03166001600160801b03199091161790915590565b7fc565b045403dc03c2eea82b81a0465edad9e2e7fc4d97e11421c209da93d7a9360045482604051612389929190613f2c565b60405180910390a1600455565b60006123a0611824565b6123af33610898600143614078565b10156123cd5760405162461bcd60e51b8152600401610b6190613dec565b60006123e28686868680519060200120611b46565b905084518651146124055760405162461bcd60e51b8152600401610b6190613d25565b83518651146124265760405162461bcd60e51b8152600401610b6190613d25565b60008651116124725760405162461bcd60e51b815260206004820152601860248201527711dbdd995c9b9bdc8e88195b5c1d1e481c1c9bdc1bdcd85b60421b6044820152606401610b61565b600081815260016020908152604091829020825191820190925281546001600160401b031690819052156124f25760405162461bcd60e51b815260206004820152602160248201527f476f7665726e6f723a2070726f706f73616c20616c72656164792065786973746044820152607360f81b6064820152608401610b61565b60006125046124ff611155565b611e5b565b61250d43611e5b565b612517919061402e565b905060006125266124ff61095e565b612530908361402e565b905061253c8383611ec7565b6125496001840182611ec7565b7f7d84a6263ae0d98d3329bd7b46bb4e8d6f98cd35a7adb45c274c8b7fd5ebd5e084338b8b8d516001600160401b0381111561258757612587614153565b6040519080825280602002602001820160405280156125ba57816020015b60608152602001906001900390816125a55790505b508c88888e6040516125d499989796959493929190613e3d565b60405180910390a15091979650505050505050565b600060016125f6876111c4565b600781111561260757612607614127565b146126245760405162461bcd60e51b8152600401610b6190613da9565b60016126338787878487612cad565b825161267357856001600160a01b0316600080516020614208833981519152888784886040516126669493929190613f3a565b60405180910390a26114fc565b856001600160a01b03166000805160206141e883398151915288878488886040516126a2959493929190613f62565b60405180910390a29695505050505050565b600854604080516001600160a01b03928316815291831660208301527f08f74ea46ef7894f65eabfb5e6e695de773a000b47c529ab559178069b226401910160405180910390a1600880546001600160a01b0319166001600160a01b0392909216919091179055565b6000600161272a876111c4565b600781111561273b5761273b614127565b146127585760405162461bcd60e51b8152600401610b6190613da9565b600061276d866127678961111e565b85611ee4565b90506126338787878487612cad565b606061168e8484846040518060600160405280602981526020016141bf60299139613056565b600081116128025760405162461bcd60e51b815260206004820152602760248201527f476f7665726e6f7253657474696e67733a20766f74696e6720706572696f6420604482015266746f6f206c6f7760c81b6064820152608401610b61565b7f7e3f7f0708a84de9203036abaa450dccc85ad5ff52f78c170f3edb55cf5e882860055482604051612835929190613f2c565b60405180910390a1600555565b7fccb45da8d5717e6c4544694297c4ba5cf151d455c9bb0ed4fc7a38411bc0546160065482604051612875929190613f2c565b60405180910390a1600655565b60006001600160e01b0319821663bf26d89760e01b14806128b357506001600160e01b031982166379dd796f60e01b145b806128ce57506001600160e01b03198216630271189760e51b145b8061095857506301ffc9a760e01b6001600160e01b0319831614610958565b6000306001600160a01b037f00000000000000000000000000000000000000000000000000000000000000001614801561294657507f000000000000000000000000000000000000000000000000000000000000000046145b1561297057507f000000000000000000000000000000000000000000000000000000000000000090565b50604080517f00000000000000000000000000000000000000000000000000000000000000006020808301919091527f0000000000000000000000000000000000000000000000000000000000000000828401527f000000000000000000000000000000000000000000000000000000000000000060608301524660808301523060a0808401919091528351808403909101815260c0909201909252805191012090565b6000806fa2a8918ca85bafe22016d0b997e4df60600160ff1b03831115612a415750600090506003612aee565b8460ff16601b14158015612a5957508460ff16601c14155b15612a6a5750600090506004612aee565b6040805160008082526020820180845289905260ff881692820192909252606081018690526080810185905260019060a0016020604051602081039080840390855afa158015612abe573d6000803e3d6000fd5b5050604051601f1901519150506001600160a01b038116612ae757600060019250925050612aee565b9150600090505b94509492505050565b6000816004811115612b0b57612b0b614127565b1415612b145750565b6001816004811115612b2857612b28614127565b1415612b715760405162461bcd60e51b815260206004820152601860248201527745434453413a20696e76616c6964207369676e617475726560401b6044820152606401610b61565b6002816004811115612b8557612b85614127565b1415612bd35760405162461bcd60e51b815260206004820152601f60248201527f45434453413a20696e76616c6964207369676e6174757265206c656e677468006044820152606401610b61565b6003816004811115612be757612be7614127565b1415612c405760405162461bcd60e51b815260206004820152602260248201527f45434453413a20696e76616c6964207369676e6174757265202773272076616c604482015261756560f01b6064820152608401610b61565b6004816004811115612c5457612c54614127565b14156114b15760405162461bcd60e51b815260206004820152602260248201527f45434453413a20696e76616c6964207369676e6174757265202776272076616c604482015261756560f01b6064820152608401610b61565b60008581526007602090815260408083206001600160a01b0388168452600381019092529091205460ff1615612d355760405162461bcd60e51b815260206004820152602760248201527f476f7665726e6f72566f74696e6753696d706c653a20766f746520616c726561604482015266191e4818d85cdd60ca1b6064820152608401610b61565b6001600160a01b03851660009081526003820160205260408120805460ff1916600117905560ff168460ff161415612d865782816000016000828254612d7b9190614016565b90915550612e2c9050565b60ff841660011415612da65782816001016000828254612d7b9190614016565b60ff841660021415612dc65782816002016000828254612d7b9190614016565b60405162461bcd60e51b815260206004820152603560248201527f476f7665726e6f72566f74696e6753696d706c653a20696e76616c69642076616044820152746c756520666f7220656e756d20566f74655479706560581b6064820152608401610b61565b505050505050565b80471015612e845760405162461bcd60e51b815260206004820152601d60248201527f416464726573733a20696e73756666696369656e742062616c616e63650000006044820152606401610b61565b6000826001600160a01b03168260405160006040518083038185875af1925050503d8060008114612ed1576040519150601f19603f3d011682016040523d82523d6000602084013e612ed6565b606091505b5050905080610f815760405162461bcd60e51b815260206004820152603a60248201527f416464726573733a20756e61626c6520746f2073656e642076616c75652c20726044820152791958da5c1a595b9d081b585e481a185d99481c995d995c9d195960321b6064820152608401610b61565b6000818152600160205260408120600281015460ff1615612f6e5750600792915050565b6002810154610100900460ff1615612f895750600292915050565b6000612f948461111e565b905080612fe35760405162461bcd60e51b815260206004820152601d60248201527f476f7665726e6f723a20756e6b6e6f776e2070726f706f73616c2069640000006044820152606401610b61565b438110612ff4575060009392505050565b6000612fff85611a4b565b905043811061301357506001949350505050565b61301c8561317c565b801561303b575060008581526007602052604090208054600190910154115b1561304b57506004949350505050565b506003949350505050565b6060824710156130b75760405162461bcd60e51b815260206004820152602660248201527f416464726573733a20696e73756666696369656e742062616c616e636520666f6044820152651c8818d85b1b60d21b6064820152608401610b61565b6001600160a01b0385163b61310e5760405162461bcd60e51b815260206004820152601d60248201527f416464726573733a2063616c6c20746f206e6f6e2d636f6e74726163740000006044820152606401610b61565b600080866001600160a01b0316858760405161312a9190613bf7565b60006040518083038185875af1925050503d8060008114613167576040519150601f19603f3d011682016040523d82523d6000602084013e61316c565b606091505b50915091506111b98282866131b3565b60008181526007602052604081206002810154600182015461319e9190614016565b6131aa6109048561111e565b11159392505050565b606083156131c2575081611691565b8251156131d25782518084602001fd5b8160405162461bcd60e51b8152600401610b619190613ce0565b60006131ff6131fa84613fef565b613f9c565b905082815283838301111561321357600080fd5b828260208301376000602084830101529392505050565b600082601f83011261323b57600080fd5b8135602061324b6131fa83613fcc565b80838252828201915082860187848660051b890101111561326b57600080fd5b60005b8581101561329357813561328181614169565b8452928401929084019060010161326e565b5090979650505050505050565b600082601f8301126132b157600080fd5b813560206132c16131fa83613fcc565b80838252828201915082860187848660051b89010111156132e157600080fd5b6000805b868110156133235782356001600160401b03811115613302578283fd5b6133108b88838d01016133d9565b86525093850193918501916001016132e5565b509198975050505050505050565b600082601f83011261334257600080fd5b813560206133526131fa83613fcc565b80838252828201915082860187848660051b890101111561337257600080fd5b60005b8581101561329357813584529284019290840190600101613375565b60008083601f8401126133a357600080fd5b5081356001600160401b038111156133ba57600080fd5b6020830191508360208285010111156133d257600080fd5b9250929050565b600082601f8301126133ea57600080fd5b611691838335602085016131ec565b803560ff8116811461340a57600080fd5b919050565b60006020828403121561342157600080fd5b815161169181614169565b6000806040838503121561343f57600080fd5b823561344a81614169565b946020939093013593505050565b600080600080600060a0868803121561347057600080fd5b853561347b81614169565b9450602086013561348b81614169565b935060408601356001600160401b03808211156134a757600080fd5b6134b389838a01613331565b945060608801359150808211156134c957600080fd5b6134d589838a01613331565b935060808801359150808211156134eb57600080fd5b506134f8888289016133d9565b9150509295509295909350565b6000806000806080858703121561351b57600080fd5b843561352681614169565b9350602085013561353681614169565b92506040850135915060608501356001600160401b0381111561355857600080fd5b613564878288016133d9565b91505092959194509250565b600080600080600060a0868803121561358857600080fd5b853561359381614169565b945060208601356135a381614169565b9350604086013592506060860135915060808601356001600160401b038111156135cc57600080fd5b6134f8888289016133d9565b600080600080606085870312156135ee57600080fd5b84356135f981614169565b93506020850135925060408501356001600160401b0381111561361b57600080fd5b61362787828801613391565b95989497509550505050565b60008060006060848603121561364857600080fd5b833561365381614169565b92506020840135915060408401356001600160401b0381111561367557600080fd5b613681868287016133d9565b9150509250925092565b600080600080608085870312156136a157600080fd5b84356001600160401b03808211156136b857600080fd5b6136c48883890161322a565b955060208701359150808211156136da57600080fd5b6136e688838901613331565b945060408701359150808211156136fc57600080fd5b50613709878288016132a0565b949793965093946060013593505050565b6000806000806080858703121561373057600080fd5b84356001600160401b038082111561374757600080fd5b6137538883890161322a565b9550602087013591508082111561376957600080fd5b61377588838901613331565b9450604087013591508082111561378b57600080fd5b613797888389016132a0565b935060608701359150808211156137ad57600080fd5b508501601f810187136137bf57600080fd5b613564878235602084016131ec565b6000602082840312156137e057600080fd5b8151801515811461169157600080fd5b60006020828403121561380257600080fd5b5051919050565b60006020828403121561381b57600080fd5b81356001600160e01b03198116811461169157600080fd5b60006020828403121561384557600080fd5b81516001600160401b0381111561385b57600080fd5b8201601f8101841361386c57600080fd5b805161387a6131fa82613fef565b81815285602083850101111561388f57600080fd5b6121da82602083016020860161408f565b6000602082840312156138b257600080fd5b813561169181614169565b6000602082840312156138cf57600080fd5b5035919050565b600080604083850312156138e957600080fd5b8235915060208301356138fb81614169565b809150509250929050565b6000806040838503121561391957600080fd5b50508035926020909101359150565b6000806040838503121561393b57600080fd5b8235915061394b602084016133f9565b90509250929050565b6000806000806060858703121561396a57600080fd5b8435935061397a602086016133f9565b925060408501356001600160401b0381111561361b57600080fd5b6000806000806000608086880312156139ad57600080fd5b853594506139bd602087016133f9565b935060408601356001600160401b03808211156139d957600080fd5b6139e589838a01613391565b909550935060608801359150808211156134eb57600080fd5b60008060008060008060008060e0898b031215613a1a57600080fd5b88359750613a2a60208a016133f9565b965060408901356001600160401b0380821115613a4657600080fd5b613a528c838d01613391565b909850965060608b0135915080821115613a6b57600080fd5b50613a788b828c016133d9565b945050613a8760808a016133f9565b925060a0890135915060c089013590509295985092959890939650565b600080600080600060a08688031215613abc57600080fd5b85359450613acc602087016133f9565b9350613ada604087016133f9565b94979396509394606081013594506080013592915050565b600081518084526020808501945080840160005b83811015613b2b5781516001600160a01b031687529582019590820190600101613b06565b509495945050505050565b600081518084526020808501808196508360051b8101915082860160005b85811015613b7e578284038952613b6c848351613bbb565b98850198935090840190600101613b54565b5091979650505050505050565b600081518084526020808501945080840160005b83811015613b2b57815187529582019590820190600101613b9f565b60008151808452613bd381602086016020860161408f565b601f01601f19169290920160200192915050565b8183823760009101908152919050565b60008251613c0981846020870161408f565b9190910192915050565b6001600160a01b0391909116815260200190565b60018060a01b038516815283602082015260a06040820152600060a082015260c060608201526000613c5c60c0830185613bbb565b905082608083015295945050505050565b608081526000613c806080830187613af2565b8281036020840152613c928187613b8b565b90508281036040840152613ca68186613b36565b91505082606083015295945050505050565b6020810160088310613cda57634e487b7160e01b600052602160045260246000fd5b91905290565b6020815260006116916020830184613bbb565b602080825260189082015277476f7665726e6f723a206f6e6c79476f7665726e616e636560401b604082015260600190565b60208082526021908201527f476f7665726e6f723a20696e76616c69642070726f706f73616c206c656e67746040820152600d60fb1b606082015260800190565b60208082526023908201527f596f75206d757374206265206120746f6b656e20686f6c64657220746f20766f6040820152623a329760e91b606082015260800190565b60208082526023908201527f476f7665726e6f723a20766f7465206e6f742063757272656e746c792061637460408201526269766560e81b606082015260800190565b60208082526031908201527f476f7665726e6f723a2070726f706f73657220766f7465732062656c6f7720706040820152701c9bdc1bdcd85b081d1a1c995cda1bdb19607a1b606082015260800190565b60006101208b8352602060018060a01b038c1681850152816040850152613e668285018c613af2565b91508382036060850152613e7a828b613b8b565b915083820360808501528189518084528284019150828160051b850101838c0160005b83811015613ecb57601f19878403018552613eb9838351613bbb565b94860194925090850190600101613e9d565b505086810360a0880152613edf818c613b36565b945050505050613efa60c08401876001600160401b03169052565b6001600160401b03851660e0840152828103610100840152613f1c8185613bbb565b9c9b505050505050505050505050565b918252602082015260400190565b84815260ff841660208201528260408201526080606082015260006114fc6080830184613bbb565b85815260ff8516602082015283604082015260a060608201526000613f8a60a0830185613bbb565b8281036080840152611a3f8185613bbb565b604051601f8201601f191681016001600160401b0381118282101715613fc457613fc4614153565b604052919050565b60006001600160401b03821115613fe557613fe5614153565b5060051b60200190565b60006001600160401b0382111561400857614008614153565b50601f01601f191660200190565b6000821982111561402957614029614111565b500190565b60006001600160401b0382811684821680830382111561405057614050614111565b01949350505050565b600081600019048311821515161561407357614073614111565b500290565b60008282101561408a5761408a614111565b500390565b60005b838110156140aa578181015183820152602001614092565b838111156118935750506000910152565b600181811c908216806140cf57607f821691505b602082108114156140f057634e487b7160e01b600052602260045260246000fd5b50919050565b600060001982141561410a5761410a614111565b5060010190565b634e487b7160e01b600052601160045260246000fd5b634e487b7160e01b600052602160045260246000fd5b634e487b7160e01b600052603260045260246000fd5b634e487b7160e01b600052604160045260246000fd5b6001600160a01b03811681146114b157600080fdfe150214d74d59b7d1e90c73fc22ef3d991dd0a76b046543d4d80ab92d2a50328fb3b3f3b703cd84ce352197dcff232b1b5d3cfb2025ce47cf04742d0651f1af88416464726573733a206c6f772d6c6576656c2063616c6c20776974682076616c7565206661696c6564e2babfbac5889a709b63bb7f598b324e08bc5a4fb9ec647fb3cbc9ec07eb8712b8e138887d0aa13bab447e82de9d5c1777041ecd21ca36ba824ff1e6c07ddda4a164736f6c6343000806000a",
  "linkReferences": {},
  "deployedLinkReferences": {}
}