{
  "_format": "hh-sol-artifact-1",
  "contractName": "MyGovernor",
  "sourceName": "contracts/MyGovernor.sol",
  "abi": [
    {
      "inputs": [
        {
          "internalType": "contract IVotes",
          "name": "_token",
          "type": "address"
        },
        {
          "internalType": "contract ICompoundTimelock",
          "name": "_timelock",
          "type": "address"
        }
      ],
      "stateMutability": "nonpayable",
      "type": "constructor"
    },
    {
      "inputs": [],
      "name": "Empty",
      "type": "error"
    },
    {
      "anonymous": false,
      "inputs": [
        {
          "indexed": false,
          "internalType": "uint256",
          "name": "proposalId",
          "type": "uint256"
        }
      ],
      "name": "ProposalCanceled",
      "type": "event"
    },
    {
      "anonymous": false,
      "inputs": [
        {
          "indexed": false,
          "internalType": "uint256",
          "name": "proposalId",
          "type": "uint256"
        },
        {
          "indexed": false,
          "internalType": "address",
          "name": "proposer",
          "type": "address"
        },
        {
          "indexed": false,
          "internalType": "address[]",
          "name": "targets",
          "type": "address[]"
        },
        {
          "indexed": false,
          "internalType": "uint256[]",
          "name": "values",
          "type": "uint256[]"
        },
        {
          "indexed": false,
          "internalType": "string[]",
          "name": "signatures",
          "type": "string[]"
        },
        {
          "indexed": false,
          "internalType": "bytes[]",
          "name": "calldatas",
          "type": "bytes[]"
        },
        {
          "indexed": false,
          "internalType": "uint256",
          "name": "startBlock",
          "type": "uint256"
        },
        {
          "indexed": false,
          "internalType": "uint256",
          "name": "endBlock",
          "type": "uint256"
        },
        {
          "indexed": false,
          "internalType": "string",
          "name": "description",
          "type": "string"
        }
      ],
      "name": "ProposalCreated",
      "type": "event"
    },
    {
      "anonymous": false,
      "inputs": [
        {
          "indexed": false,
          "internalType": "uint256",
          "name": "proposalId",
          "type": "uint256"
        }
      ],
      "name": "ProposalExecuted",
      "type": "event"
    },
    {
      "anonymous": false,
      "inputs": [
        {
          "indexed": false,
          "internalType": "uint256",
          "name": "proposalId",
          "type": "uint256"
        },
        {
          "indexed": false,
          "internalType": "uint256",
          "name": "eta",
          "type": "uint256"
        }
      ],
      "name": "ProposalQueued",
      "type": "event"
    },
    {
      "anonymous": false,
      "inputs": [
        {
          "indexed": false,
          "internalType": "uint256",
          "name": "oldProposalThreshold",
          "type": "uint256"
        },
        {
          "indexed": false,
          "internalType": "uint256",
          "name": "newProposalThreshold",
          "type": "uint256"
        }
      ],
      "name": "ProposalThresholdSet",
      "type": "event"
    },
    {
      "anonymous": false,
      "inputs": [
        {
          "indexed": false,
          "internalType": "address",
          "name": "oldTimelock",
          "type": "address"
        },
        {
          "indexed": false,
          "internalType": "address",
          "name": "newTimelock",
          "type": "address"
        }
      ],
      "name": "TimelockChange",
      "type": "event"
    },
    {
      "anonymous": false,
      "inputs": [
        {
          "indexed": true,
          "internalType": "address",
          "name": "voter",
          "type": "address"
        },
        {
          "indexed": false,
          "internalType": "uint256",
          "name": "proposalId",
          "type": "uint256"
        },
        {
          "indexed": false,
          "internalType": "uint8",
          "name": "support",
          "type": "uint8"
        },
        {
          "indexed": false,
          "internalType": "uint256",
          "name": "weight",
          "type": "uint256"
        },
        {
          "indexed": false,
          "internalType": "string",
          "name": "reason",
          "type": "string"
        }
      ],
      "name": "VoteCast",
      "type": "event"
    },
    {
      "anonymous": false,
      "inputs": [
        {
          "indexed": true,
          "internalType": "address",
          "name": "voter",
          "type": "address"
        },
        {
          "indexed": false,
          "internalType": "uint256",
          "name": "proposalId",
          "type": "uint256"
        },
        {
          "indexed": false,
          "internalType": "uint8",
          "name": "support",
          "type": "uint8"
        },
        {
          "indexed": false,
          "internalType": "uint256",
          "name": "weight",
          "type": "uint256"
        },
        {
          "indexed": false,
          "internalType": "string",
          "name": "reason",
          "type": "string"
        },
        {
          "indexed": false,
          "internalType": "bytes",
          "name": "params",
          "type": "bytes"
        }
      ],
      "name": "VoteCastWithParams",
      "type": "event"
    },
    {
      "anonymous": false,
      "inputs": [
        {
          "indexed": false,
          "internalType": "uint256",
          "name": "oldVotingDelay",
          "type": "uint256"
        },
        {
          "indexed": false,
          "internalType": "uint256",
          "name": "newVotingDelay",
          "type": "uint256"
        }
      ],
      "name": "VotingDelaySet",
      "type": "event"
    },
    {
      "anonymous": false,
      "inputs": [
        {
          "indexed": false,
          "internalType": "uint256",
          "name": "oldVotingPeriod",
          "type": "uint256"
        },
        {
          "indexed": false,
          "internalType": "uint256",
          "name": "newVotingPeriod",
          "type": "uint256"
        }
      ],
      "name": "VotingPeriodSet",
      "type": "event"
    },
    {
      "inputs": [],
      "name": "BALLOT_TYPEHASH",
      "outputs": [
        {
          "internalType": "bytes32",
          "name": "",
          "type": "bytes32"
        }
      ],
      "stateMutability": "view",
      "type": "function"
    },
    {
      "inputs": [],
      "name": "COUNTING_MODE",
      "outputs": [
        {
          "internalType": "string",
          "name": "",
          "type": "string"
        }
      ],
      "stateMutability": "pure",
      "type": "function"
    },
    {
      "inputs": [],
      "name": "EXTENDED_BALLOT_TYPEHASH",
      "outputs": [
        {
          "internalType": "bytes32",
          "name": "",
          "type": "bytes32"
        }
      ],
      "stateMutability": "view",
      "type": "function"
    },
    {
      "inputs": [],
      "name": "__acceptAdmin",
      "outputs": [],
      "stateMutability": "nonpayable",
      "type": "function"
    },
    {
      "inputs": [
        {
          "internalType": "uint256",
          "name": "proposalId",
          "type": "uint256"
        },
        {
          "internalType": "uint8",
          "name": "support",
          "type": "uint8"
        }
      ],
      "name": "castVote",
      "outputs": [
        {
          "internalType": "uint256",
          "name": "",
          "type": "uint256"
        }
      ],
      "stateMutability": "nonpayable",
      "type": "function"
    },
    {
      "inputs": [
        {
          "internalType": "uint256",
          "name": "proposalId",
          "type": "uint256"
        },
        {
          "internalType": "uint8",
          "name": "support",
          "type": "uint8"
        },
        {
          "internalType": "uint8",
          "name": "v",
          "type": "uint8"
        },
        {
          "internalType": "bytes32",
          "name": "r",
          "type": "bytes32"
        },
        {
          "internalType": "bytes32",
          "name": "s",
          "type": "bytes32"
        }
      ],
      "name": "castVoteBySig",
      "outputs": [
        {
          "internalType": "uint256",
          "name": "",
          "type": "uint256"
        }
      ],
      "stateMutability": "nonpayable",
      "type": "function"
    },
    {
      "inputs": [
        {
          "internalType": "uint256",
          "name": "proposalId",
          "type": "uint256"
        },
        {
          "internalType": "uint8",
          "name": "support",
          "type": "uint8"
        }
      ],
      "name": "castVoteSimple",
      "outputs": [
        {
          "internalType": "uint256",
          "name": "",
          "type": "uint256"
        }
      ],
      "stateMutability": "payable",
      "type": "function"
    },
    {
      "inputs": [
        {
          "internalType": "uint256",
          "name": "proposalId",
          "type": "uint256"
        },
        {
          "internalType": "uint8",
          "name": "support",
          "type": "uint8"
        },
        {
          "internalType": "string",
          "name": "reason",
          "type": "string"
        }
      ],
      "name": "castVoteWithReason",
      "outputs": [
        {
          "internalType": "uint256",
          "name": "",
          "type": "uint256"
        }
      ],
      "stateMutability": "nonpayable",
      "type": "function"
    },
    {
      "inputs": [
        {
          "internalType": "uint256",
          "name": "proposalId",
          "type": "uint256"
        },
        {
          "internalType": "uint8",
          "name": "support",
          "type": "uint8"
        },
        {
          "internalType": "string",
          "name": "reason",
          "type": "string"
        },
        {
          "internalType": "bytes",
          "name": "params",
          "type": "bytes"
        }
      ],
      "name": "castVoteWithReasonAndParams",
      "outputs": [
        {
          "internalType": "uint256",
          "name": "",
          "type": "uint256"
        }
      ],
      "stateMutability": "nonpayable",
      "type": "function"
    },
    {
      "inputs": [
        {
          "internalType": "uint256",
          "name": "proposalId",
          "type": "uint256"
        },
        {
          "internalType": "uint8",
          "name": "support",
          "type": "uint8"
        },
        {
          "internalType": "string",
          "name": "reason",
          "type": "string"
        },
        {
          "internalType": "bytes",
          "name": "params",
          "type": "bytes"
        },
        {
          "internalType": "uint8",
          "name": "v",
          "type": "uint8"
        },
        {
          "internalType": "bytes32",
          "name": "r",
          "type": "bytes32"
        },
        {
          "internalType": "bytes32",
          "name": "s",
          "type": "bytes32"
        }
      ],
      "name": "castVoteWithReasonAndParamsBySig",
      "outputs": [
        {
          "internalType": "uint256",
          "name": "",
          "type": "uint256"
        }
      ],
      "stateMutability": "nonpayable",
      "type": "function"
    },
    {
      "inputs": [
        {
          "internalType": "address[]",
          "name": "targets",
          "type": "address[]"
        },
        {
          "internalType": "uint256[]",
          "name": "values",
          "type": "uint256[]"
        },
        {
          "internalType": "bytes[]",
          "name": "calldatas",
          "type": "bytes[]"
        },
        {
          "internalType": "bytes32",
          "name": "descriptionHash",
          "type": "bytes32"
        }
      ],
      "name": "execute",
      "outputs": [
        {
          "internalType": "uint256",
          "name": "",
          "type": "uint256"
        }
      ],
      "stateMutability": "payable",
      "type": "function"
    },
    {
      "inputs": [
        {
          "internalType": "address",
          "name": "account",
          "type": "address"
        },
        {
          "internalType": "uint256",
          "name": "blockNumber",
          "type": "uint256"
        }
      ],
      "name": "getVotes",
      "outputs": [
        {
          "internalType": "uint256",
          "name": "",
          "type": "uint256"
        }
      ],
      "stateMutability": "view",
      "type": "function"
    },
    {
      "inputs": [
        {
          "internalType": "address",
          "name": "account",
          "type": "address"
        },
        {
          "internalType": "uint256",
          "name": "blockNumber",
          "type": "uint256"
        },
        {
          "internalType": "bytes",
          "name": "params",
          "type": "bytes"
        }
      ],
      "name": "getVotesWithParams",
      "outputs": [
        {
          "internalType": "uint256",
          "name": "",
          "type": "uint256"
        }
      ],
      "stateMutability": "view",
      "type": "function"
    },
    {
      "inputs": [
        {
          "internalType": "uint256",
          "name": "proposalId",
          "type": "uint256"
        },
        {
          "internalType": "address",
          "name": "account",
          "type": "address"
        }
      ],
      "name": "hasVoted",
      "outputs": [
        {
          "internalType": "bool",
          "name": "",
          "type": "bool"
        }
      ],
      "stateMutability": "view",
      "type": "function"
    },
    {
      "inputs": [
        {
          "internalType": "address[]",
          "name": "targets",
          "type": "address[]"
        },
        {
          "internalType": "uint256[]",
          "name": "values",
          "type": "uint256[]"
        },
        {
          "internalType": "bytes[]",
          "name": "calldatas",
          "type": "bytes[]"
        },
        {
          "internalType": "bytes32",
          "name": "descriptionHash",
          "type": "bytes32"
        }
      ],
      "name": "hashProposal",
      "outputs": [
        {
          "internalType": "uint256",
          "name": "",
          "type": "uint256"
        }
      ],
      "stateMutability": "pure",
      "type": "function"
    },
    {
      "inputs": [],
      "name": "name",
      "outputs": [
        {
          "internalType": "string",
          "name": "",
          "type": "string"
        }
      ],
      "stateMutability": "view",
      "type": "function"
    },
    {
      "inputs": [
        {
          "internalType": "address",
          "name": "",
          "type": "address"
        },
        {
          "internalType": "address",
          "name": "",
          "type": "address"
        },
        {
          "internalType": "uint256[]",
          "name": "",
          "type": "uint256[]"
        },
        {
          "internalType": "uint256[]",
          "name": "",
          "type": "uint256[]"
        },
        {
          "internalType": "bytes",
          "name": "",
          "type": "bytes"
        }
      ],
      "name": "onERC1155BatchReceived",
      "outputs": [
        {
          "internalType": "bytes4",
          "name": "",
          "type": "bytes4"
        }
      ],
      "stateMutability": "nonpayable",
      "type": "function"
    },
    {
      "inputs": [
        {
          "internalType": "address",
          "name": "",
          "type": "address"
        },
        {
          "internalType": "address",
          "name": "",
          "type": "address"
        },
        {
          "internalType": "uint256",
          "name": "",
          "type": "uint256"
        },
        {
          "internalType": "uint256",
          "name": "",
          "type": "uint256"
        },
        {
          "internalType": "bytes",
          "name": "",
          "type": "bytes"
        }
      ],
      "name": "onERC1155Received",
      "outputs": [
        {
          "internalType": "bytes4",
          "name": "",
          "type": "bytes4"
        }
      ],
      "stateMutability": "nonpayable",
      "type": "function"
    },
    {
      "inputs": [
        {
          "internalType": "address",
          "name": "",
          "type": "address"
        },
        {
          "internalType": "address",
          "name": "",
          "type": "address"
        },
        {
          "internalType": "uint256",
          "name": "",
          "type": "uint256"
        },
        {
          "internalType": "bytes",
          "name": "",
          "type": "bytes"
        }
      ],
      "name": "onERC721Received",
      "outputs": [
        {
          "internalType": "bytes4",
          "name": "",
          "type": "bytes4"
        }
      ],
      "stateMutability": "nonpayable",
      "type": "function"
    },
    {
      "inputs": [
        {
          "internalType": "uint256",
          "name": "proposalId",
          "type": "uint256"
        }
      ],
      "name": "proposalDeadline",
      "outputs": [
        {
          "internalType": "uint256",
          "name": "",
          "type": "uint256"
        }
      ],
      "stateMutability": "view",
      "type": "function"
    },
    {
      "inputs": [
        {
          "internalType": "uint256",
          "name": "proposalId",
          "type": "uint256"
        }
      ],
      "name": "proposalEta",
      "outputs": [
        {
          "internalType": "uint256",
          "name": "",
          "type": "uint256"
        }
      ],
      "stateMutability": "view",
      "type": "function"
    },
    {
      "inputs": [
        {
          "internalType": "uint256",
          "name": "proposalId",
          "type": "uint256"
        }
      ],
      "name": "proposalSnapshot",
      "outputs": [
        {
          "internalType": "uint256",
          "name": "",
          "type": "uint256"
        }
      ],
      "stateMutability": "view",
      "type": "function"
    },
    {
      "inputs": [],
      "name": "proposalThreshold",
      "outputs": [
        {
          "internalType": "uint256",
          "name": "",
          "type": "uint256"
        }
      ],
      "stateMutability": "view",
      "type": "function"
    },
    {
      "inputs": [
        {
          "internalType": "uint256",
          "name": "proposalId",
          "type": "uint256"
        }
      ],
      "name": "proposalVotes",
      "outputs": [
        {
          "internalType": "uint256",
          "name": "againstVotes",
          "type": "uint256"
        },
        {
          "internalType": "uint256",
          "name": "forVotes",
          "type": "uint256"
        },
        {
          "internalType": "uint256",
          "name": "abstainVotes",
          "type": "uint256"
        }
      ],
      "stateMutability": "view",
      "type": "function"
    },
    {
      "inputs": [
        {
          "internalType": "address[]",
          "name": "targets",
          "type": "address[]"
        },
        {
          "internalType": "uint256[]",
          "name": "values",
          "type": "uint256[]"
        },
        {
          "internalType": "bytes[]",
          "name": "calldatas",
          "type": "bytes[]"
        },
        {
          "internalType": "string",
          "name": "description",
          "type": "string"
        }
      ],
      "name": "propose",
      "outputs": [
        {
          "internalType": "uint256",
          "name": "",
          "type": "uint256"
        }
      ],
      "stateMutability": "nonpayable",
      "type": "function"
    },
    {
      "inputs": [
        {
          "internalType": "address[]",
          "name": "targets",
          "type": "address[]"
        },
        {
          "internalType": "uint256[]",
          "name": "values",
          "type": "uint256[]"
        },
        {
          "internalType": "bytes[]",
          "name": "calldatas",
          "type": "bytes[]"
        },
        {
          "internalType": "bytes32",
          "name": "descriptionHash",
          "type": "bytes32"
        }
      ],
      "name": "queue",
      "outputs": [
        {
          "internalType": "uint256",
          "name": "",
          "type": "uint256"
        }
      ],
      "stateMutability": "nonpayable",
      "type": "function"
    },
    {
      "inputs": [
        {
          "internalType": "uint256",
          "name": "blockNumber",
          "type": "uint256"
        }
      ],
      "name": "quorum",
      "outputs": [
        {
          "internalType": "uint256",
          "name": "",
          "type": "uint256"
        }
      ],
      "stateMutability": "pure",
      "type": "function"
    },
    {
      "inputs": [
        {
          "internalType": "address",
          "name": "target",
          "type": "address"
        },
        {
          "internalType": "uint256",
          "name": "value",
          "type": "uint256"
        },
        {
          "internalType": "bytes",
          "name": "data",
          "type": "bytes"
        }
      ],
      "name": "relay",
      "outputs": [],
      "stateMutability": "nonpayable",
      "type": "function"
    },
    {
      "inputs": [
        {
          "internalType": "uint256",
          "name": "newProposalThreshold",
          "type": "uint256"
        }
      ],
      "name": "setProposalThreshold",
      "outputs": [],
      "stateMutability": "nonpayable",
      "type": "function"
    },
    {
      "inputs": [
        {
          "internalType": "uint256",
          "name": "newVotingDelay",
          "type": "uint256"
        }
      ],
      "name": "setVotingDelay",
      "outputs": [],
      "stateMutability": "nonpayable",
      "type": "function"
    },
    {
      "inputs": [
        {
          "internalType": "uint256",
          "name": "newVotingPeriod",
          "type": "uint256"
        }
      ],
      "name": "setVotingPeriod",
      "outputs": [],
      "stateMutability": "nonpayable",
      "type": "function"
    },
    {
      "inputs": [
        {
          "internalType": "uint256",
          "name": "proposalId",
          "type": "uint256"
        }
      ],
      "name": "state",
      "outputs": [
        {
          "internalType": "enum IGovernor.ProposalState",
          "name": "",
          "type": "uint8"
        }
      ],
      "stateMutability": "view",
      "type": "function"
    },
    {
      "inputs": [
        {
          "internalType": "bytes4",
          "name": "interfaceId",
          "type": "bytes4"
        }
      ],
      "name": "supportsInterface",
      "outputs": [
        {
          "internalType": "bool",
          "name": "",
          "type": "bool"
        }
      ],
      "stateMutability": "view",
      "type": "function"
    },
    {
      "inputs": [],
      "name": "timelock",
      "outputs": [
        {
          "internalType": "address",
          "name": "",
          "type": "address"
        }
      ],
      "stateMutability": "view",
      "type": "function"
    },
    {
      "inputs": [],
      "name": "token",
      "outputs": [
        {
          "internalType": "contract IVotes",
          "name": "",
          "type": "address"
        }
      ],
      "stateMutability": "view",
      "type": "function"
    },
    {
      "inputs": [
        {
          "internalType": "contract ICompoundTimelock",
          "name": "newTimelock",
          "type": "address"
        }
      ],
      "name": "updateTimelock",
      "outputs": [],
      "stateMutability": "nonpayable",
      "type": "function"
    },
    {
      "inputs": [],
      "name": "version",
      "outputs": [
        {
          "internalType": "string",
          "name": "",
          "type": "string"
        }
      ],
      "stateMutability": "view",
      "type": "function"
    },
    {
      "inputs": [],
      "name": "votingDelay",
      "outputs": [
        {
          "internalType": "uint256",
          "name": "",
          "type": "uint256"
        }
      ],
      "stateMutability": "view",
      "type": "function"
    },
    {
      "inputs": [],
      "name": "votingPeriod",
      "outputs": [
        {
          "internalType": "uint256",
          "name": "",
          "type": "uint256"
        }
      ],
      "stateMutability": "view",
      "type": "function"
    },
    {
      "stateMutability": "payable",
      "type": "receive"
    }
  ],
  "bytecode": "0x6101606040523480156200001257600080fd5b50604051620041cb380380620041cb8339810160408190526200003591620003b8565b80826001601460026040518060400160405280600a81526020016926bca3b7bb32b93737b960b11b81525080620000716200016660201b60201c565b815160208084019190912082518383012060e08290526101008190524660a0818152604080517f8b73c3c69bb8fe3d512ecc4cf759cc79239f7b179b0ffacaa9a75d522b39400f81880181905281830187905260608201869052608082019490945230818401528151808203909301835260c00190528051940193909320919290916080523060601b60c05261012052505082516200011a925060009150602084019062000312565b506200012890508362000181565b6200013382620001c2565b6200013e8162000268565b50505060601b6001600160601b031916610140526200015d81620002a9565b5050506200044d565b6040805180820190915260018152603160f81b602082015290565b60045460408051918252602082018390527fc565b045403dc03c2eea82b81a0465edad9e2e7fc4d97e11421c209da93d7a93910160405180910390a1600455565b60008111620002275760405162461bcd60e51b815260206004820152602760248201527f476f7665726e6f7253657474696e67733a20766f74696e6720706572696f6420604482015266746f6f206c6f7760c81b606482015260840160405180910390fd5b60055460408051918252602082018390527f7e3f7f0708a84de9203036abaa450dccc85ad5ff52f78c170f3edb55cf5e8828910160405180910390a1600555565b60065460408051918252602082018390527fccb45da8d5717e6c4544694297c4ba5cf151d455c9bb0ed4fc7a38411bc05461910160405180910390a1600655565b600854604080516001600160a01b03928316815291831660208301527f08f74ea46ef7894f65eabfb5e6e695de773a000b47c529ab559178069b226401910160405180910390a1600880546001600160a01b0319166001600160a01b0392909216919091179055565b8280546200032090620003f7565b90600052602060002090601f0160209004810192826200034457600085556200038f565b82601f106200035f57805160ff19168380011785556200038f565b828001600101855582156200038f579182015b828111156200038f57825182559160200191906001019062000372565b506200039d929150620003a1565b5090565b5b808211156200039d5760008155600101620003a2565b60008060408385031215620003cc57600080fd5b8251620003d98162000434565b6020840151909250620003ec8162000434565b809150509250929050565b600181811c908216806200040c57607f821691505b602082108114156200042e57634e487b7160e01b600052602260045260246000fd5b50919050565b6001600160a01b03811681146200044a57600080fd5b50565b60805160a05160c05160601c60e05161010051610120516101405160601c613d16620004b560003960008181610890015261200a01526000612445015260006124940152600061246f015260006123c8015260006123f20152600061241c0152613d166000f3fe6080604052600436106102a45760003560e01c80637d5e81e21161016e578063c59057e4116100cb578063eb9019d41161007f578063f23a6e6111610064578063f23a6e6114610831578063f8ce560a1461085d578063fc0c546a1461087e57600080fd5b8063eb9019d4146107f1578063ece40cc11461081157600080fd5b8063dd4e2ba5116100b0578063dd4e2ba514610757578063deaaa7cc1461079d578063ea0217cf146107d157600080fd5b8063c59057e414610705578063d33219b41461072557600080fd5b8063b58131b011610122578063bc197c8111610107578063bc197c8114610699578063c01f9e37146106c5578063c28bc2fa146106e557600080fd5b8063b58131b01461066f578063b9a619611461068457600080fd5b80639c61248a116101535780639c61248a1461061c578063a890c9101461062f578063ab58fb8e1461064f57600080fd5b80637d5e81e2146105dc5780639a802a6d146105fc57600080fd5b80633932abb11161021c57806354fd4d50116101d05780635f398a14116101b55780635f398a141461057c57806370b0f6601461059c5780637b3c71d3146105bc57600080fd5b806354fd4d5014610532578063567813881461055c57600080fd5b80633e4f49e6116102015780633e4f49e6146104665780634385963214610493578063544ffc9c146104dd57600080fd5b80633932abb1146104315780633bccf4fd1461044657600080fd5b8063150b7a02116102735780632656227d116102585780632656227d146103ca5780632d63f693146103dd5780632fe3e261146103fd57600080fd5b8063150b7a0214610366578063160cbed7146103aa57600080fd5b806301ffc9a7146102cc57806302a251a314610301578063034201811461032457806306fdde031461034457600080fd5b366102c757306102b26108b2565b6001600160a01b0316146102c557600080fd5b005b600080fd5b3480156102d857600080fd5b506102ec6102e73660046134eb565b6108cb565b60405190151581526020015b60405180910390f35b34801561030d57600080fd5b506103166108dc565b6040519081526020016102f8565b34801561033057600080fd5b5061031661033f3660046136c1565b6108e7565b34801561035057600080fd5b506103596109df565b6040516102f89190613987565b34801561037257600080fd5b506103916103813660046131b5565b630a85bd0160e11b949350505050565b6040516001600160e01b031990911681526020016102f8565b3480156103b657600080fd5b506103166103c536600461336b565b610a71565b6103166103d836600461336b565b610e70565b3480156103e957600080fd5b506103166103f83660046135a0565b610f97565b34801561040957600080fd5b506103167fb3b3f3b703cd84ce352197dcff232b1b5d3cfb2025ce47cf04742d0651f1af8881565b34801561043d57600080fd5b50610316610fd0565b34801561045257600080fd5b50610316610461366004613768565b610fdb565b34801561047257600080fd5b506104866104813660046135a0565b611051565b6040516102f8919061395f565b34801561049f57600080fd5b506102ec6104ae3660046135b9565b60008281526007602090815260408083206001600160a01b038516845260030190915290205460ff1692915050565b3480156104e957600080fd5b506105176104f83660046135a0565b6000908152600760205260409020805460018201546002909201549092565b604080519384526020840192909252908201526060016102f8565b34801561053e57600080fd5b506040805180820190915260018152603160f81b6020820152610359565b34801561056857600080fd5b506103166105773660046135e9565b61105c565b34801561058857600080fd5b50610316610597366004613657565b61108f565b3480156105a857600080fd5b506102c56105b73660046135a0565b6110d9565b3480156105c857600080fd5b506103166105d7366004613615565b611193565b3480156105e857600080fd5b506103166105f73660046133fb565b6111e5565b34801561060857600080fd5b50610316610617366004613312565b6111fc565b61031661062a3660046135e9565b611213565b34801561063b57600080fd5b506102c561064a366004613583565b611244565b34801561065b57600080fd5b5061031661066a3660046135a0565b6112fb565b34801561067b57600080fd5b50610316611328565b34801561069057600080fd5b506102c5611333565b3480156106a557600080fd5b506103916106b4366004613107565b63bc197c8160e01b95945050505050565b3480156106d157600080fd5b506103166106e03660046135a0565b61139d565b3480156106f157600080fd5b506102c56107003660046132b6565b6113cd565b34801561071157600080fd5b5061031661072036600461336b565b6114c4565b34801561073157600080fd5b506008546001600160a01b03165b6040516001600160a01b0390911681526020016102f8565b34801561076357600080fd5b506040805180820190915260208082527f737570706f72743d627261766f2671756f72756d3d666f722c6162737461696e90820152610359565b3480156107a957600080fd5b506103167f150214d74d59b7d1e90c73fc22ef3d991dd0a76b046543d4d80ab92d2a50328f81565b3480156107dd57600080fd5b506102c56107ec3660046135a0565b6114fe565b3480156107fd57600080fd5b5061031661080c36600461328a565b6115b5565b34801561081d57600080fd5b506102c561082c3660046135a0565b6115d6565b34801561083d57600080fd5b5061039161084c366004613221565b63f23a6e6160e01b95945050505050565b34801561086957600080fd5b506103166108783660046135a0565b50600390565b34801561088a57600080fd5b5061073f7f000000000000000000000000000000000000000000000000000000000000000081565b60006108c66008546001600160a01b031690565b905090565b60006108d68261168d565b92915050565b60006108c660055490565b60008061098b6109837fb3b3f3b703cd84ce352197dcff232b1b5d3cfb2025ce47cf04742d0651f1af888c8c8c8c6040516109239291906138a1565b60405180910390208b80519060200120604051602001610968959493929190948552602085019390935260ff9190911660408401526060830152608082015260a00190565b604051602081830303815290604052805190602001206116b2565b868686611700565b90506109d18a828b8b8b8080601f0160208091040260200160405190810160405280939291908181526020018383808284376000920191909152508d925061171e915050565b9a9950505050505050505050565b6060600080546109ee90613c1d565b80601f0160208091040260200160405190810160405280929190818152602001828054610a1a90613c1d565b8015610a675780601f10610a3c57610100808354040283529160200191610a67565b820191906000526020600020905b815481529060010190602001808311610a4a57829003601f168201915b5050505050905090565b600080610a80868686866114c4565b90506004610a8d82611051565b6007811115610a9e57610a9e613c89565b14610afa5760405162461bcd60e51b815260206004820152602160248201527f476f7665726e6f723a2070726f706f73616c206e6f74207375636365737366756044820152601b60fa1b60648201526084015b60405180910390fd5b60085460408051630d48571f60e31b815290516000926001600160a01b031691636a42b8f8916004808301926020929190829003018186803b158015610b3f57600080fd5b505afa158015610b53573d6000803e3d6000fd5b505050506040513d601f19601f82011682018060405250810190610b7791906134d2565b610b819042613b77565b9050610bbd610b8f82611881565b600084815260096020526040902090815467ffffffffffffffff191667ffffffffffffffff91909116179055565b60005b8751811015610e2c5760085488516001600160a01b039091169063f2b06537908a9084908110610bf257610bf2613c9f565b6020026020010151898481518110610c0c57610c0c613c9f565b6020026020010151898581518110610c2657610c26613c9f565b602002602001015186604051602001610c4294939291906138cd565b604051602081830303815290604052805190602001206040518263ffffffff1660e01b8152600401610c7691815260200190565b60206040518083038186803b158015610c8e57600080fd5b505afa158015610ca2573d6000803e3d6000fd5b505050506040513d601f19601f82011682018060405250810190610cc691906134b0565b15610d445760405162461bcd60e51b815260206004820152604260248201527f476f7665726e6f7254696d656c6f636b436f6d706f756e643a206964656e746960448201527f63616c2070726f706f73616c20616374696f6e20616c72656164792071756575606482015261195960f21b608482015260a401610af1565b60085488516001600160a01b0390911690633a66f901908a9084908110610d6d57610d6d613c9f565b6020026020010151898481518110610d8757610d87613c9f565b6020026020010151898581518110610da157610da1613c9f565b6020026020010151866040518563ffffffff1660e01b8152600401610dc994939291906138cd565b602060405180830381600087803b158015610de357600080fd5b505af1158015610df7573d6000803e3d6000fd5b505050506040513d601f19601f82011682018060405250810190610e1b91906134d2565b50610e2581613c58565b9050610bc0565b5060408051838152602081018390527f9a2e42fd6722813d69113e7d0079d3d940171428df7373df9c7f7617cfda2892910160405180910390a15095945050505050565b600080610e7f868686866114c4565b90506000610e8c82611051565b90506004816007811115610ea257610ea2613c89565b1480610ebf57506005816007811115610ebd57610ebd613c89565b145b610f155760405162461bcd60e51b815260206004820152602160248201527f476f7665726e6f723a2070726f706f73616c206e6f74207375636365737366756044820152601b60fa1b6064820152608401610af1565b600082815260016020818152604092839020600201805460ff191690921790915590518381527f712ae1383f79ac853f8d882153778e0260ef8f03b504e2866e0593e04d2b291f910160405180910390a1610f738288888888611905565b610f8082888888886119a7565b610f8d82888888886119b4565b5095945050505050565b600081815260016020908152604080832081519283019091525467ffffffffffffffff16908190525b67ffffffffffffffff1692915050565b60006108c660045490565b604080517f150214d74d59b7d1e90c73fc22ef3d991dd0a76b046543d4d80ab92d2a50328f602082015290810186905260ff8516606082015260009081906110299061098390608001610968565b9050611046878288604051806020016040528060008152506119f1565b979650505050505050565b60006108d682611a14565b600061106783611b04565b6000339050611087848285604051806020016040528060008152506119f1565b949350505050565b60008033905061104687828888888080601f0160208091040260200160405190810160405280939291908181526020018383808284376000920191909152508a925061171e915050565b6110e16108b2565b6001600160a01b0316336001600160a01b03161461113c5760405162461bcd60e51b8152602060048201526018602482015277476f7665726e6f723a206f6e6c79476f7665726e616e636560401b6044820152606401610af1565b306111456108b2565b6001600160a01b03161461118757600080366040516111659291906138a1565b604051809103902090505b8061117b6002611bc4565b1461118557611170565b505b61119081611c59565b50565b6000803390506111db86828787878080601f0160208091040260200160405190810160405280939291908181526020018383808284376000920191909152506119f192505050565b9695505050505050565b60006111f385858585611c9a565b95945050505050565b6000611209848484611fe1565b90505b9392505050565b6000803390506110878482856040518060200160405280600081525060405180602001604052806000815250612086565b61124c6108b2565b6001600160a01b0316336001600160a01b0316146112a75760405162461bcd60e51b8152602060048201526018602482015277476f7665726e6f723a206f6e6c79476f7665726e616e636560401b6044820152606401610af1565b306112b06108b2565b6001600160a01b0316146112f257600080366040516112d09291906138a1565b604051809103902090505b806112e66002611bc4565b146112f0576112db565b505b611190816121b1565b600081815260096020908152604080832081519283019091525467ffffffffffffffff1690819052610fc0565b60006108c660065490565b600860009054906101000a90046001600160a01b03166001600160a01b0316630e18b6816040518163ffffffff1660e01b8152600401600060405180830381600087803b15801561138357600080fd5b505af1158015611397573d6000803e3d6000fd5b50505050565b600081815260016020818152604080842081519283019091529091015467ffffffffffffffff1690819052610fc0565b6113d56108b2565b6001600160a01b0316336001600160a01b0316146114305760405162461bcd60e51b8152602060048201526018602482015277476f7665726e6f723a206f6e6c79476f7665726e616e636560401b6044820152606401610af1565b306114396108b2565b6001600160a01b03161461147b57600080366040516114599291906138a1565b604051809103902090505b8061146f6002611bc4565b1461147957611464565b505b6114bd8483838080601f016020809104026020016040519081016040528093929190818152602001838380828437600092019190915250889250612232915050565b5050505050565b6000848484846040516020016114dd9493929190613914565b60408051601f19818403018152919052805160209091012095945050505050565b6115066108b2565b6001600160a01b0316336001600160a01b0316146115615760405162461bcd60e51b8152602060048201526018602482015277476f7665726e6f723a206f6e6c79476f7665726e616e636560401b6044820152606401610af1565b3061156a6108b2565b6001600160a01b0316146115ac576000803660405161158a9291906138a1565b604051809103902090505b806115a06002611bc4565b146115aa57611595565b505b61119081612258565b600061120c83836115d160408051602081019091526000815290565b611fe1565b6115de6108b2565b6001600160a01b0316336001600160a01b0316146116395760405162461bcd60e51b8152602060048201526018602482015277476f7665726e6f723a206f6e6c79476f7665726e616e636560401b6044820152606401610af1565b306116426108b2565b6001600160a01b03161461168457600080366040516116629291906138a1565b604051809103902090505b806116786002611bc4565b146116825761166d565b505b6111908161230f565b60006001600160e01b03198216636e665ced60e01b14806108d657506108d682612350565b60006108d66116bf6123bb565b8360405161190160f01b6020820152602281018390526042810182905260009060620160405160208183030381529060405280519060200120905092915050565b6000806000611711878787876124e2565b91509150610f8d816125cf565b600085815260016020819052604082209061173888611051565b600781111561174957611749613c89565b146117a25760405162461bcd60e51b815260206004820152602360248201527f476f7665726e6f723a20766f7465206e6f742063757272656e746c792061637460448201526269766560e81b6064820152608401610af1565b6040805160208101909152815467ffffffffffffffff16908190526000906117cc90889086611fe1565b90506117db888888848861278a565b835161182d57866001600160a01b03167fb8e138887d0aa13bab447e82de9d5c1777041ecd21ca36ba824ff1e6c07ddda4898884896040516118209493929190613a8c565b60405180910390a2611046565b866001600160a01b03167fe2babfbac5889a709b63bb7f598b324e08bc5a4fb9ec647fb3cbc9ec07eb8712898884898960405161186e959493929190613ab4565b60405180910390a2979650505050505050565b600067ffffffffffffffff8211156119015760405162461bcd60e51b815260206004820152602660248201527f53616665436173743a2076616c756520646f65736e27742066697420696e203660448201527f34206269747300000000000000000000000000000000000000000000000000006064820152608401610af1565b5090565b3061190e6108b2565b6001600160a01b0316146114bd5760005b845181101561199f57306001600160a01b031685828151811061194457611944613c9f565b60200260200101516001600160a01b0316141561198f5761198f83828151811061197057611970613c9f565b602002602001015180519060200120600261292790919063ffffffff16565b61199881613c58565b905061191f565b505050505050565b6114bd8585858585612976565b306119bd6108b2565b6001600160a01b0316146114bd57600254600f81810b810b600160801b909204810b900b13156114bd5760006002556114bd565b60006111f385858585611a0f60408051602081019091526000815290565b61171e565b600080611a2083612b10565b90506004816007811115611a3657611a36613c89565b14611a415792915050565b6000611a4c846112fb565b905080611a5a575092915050565b600860009054906101000a90046001600160a01b03166001600160a01b031663c1a287e26040518163ffffffff1660e01b815260040160206040518083038186803b158015611aa857600080fd5b505afa158015611abc573d6000803e3d6000fd5b505050506040513d601f19601f82011682018060405250810190611ae091906134d2565b611aea9082613b77565b4210611afa575060069392505050565b5060059392505050565b6000611b2833611b1384610f97565b60405180602001604052806000815250611fe1565b90506000611b368280613bbb565b90506103e8811115611b4757506103e85b80341015611bbf576040805162461bcd60e51b81526020600482015260248101919091527f51756164726174696320766f74696e673a20596f75206e656564206d6f72652060448201527f657468657220746f20636f76657220796f757220766f7465207765696768742e6064820152608401610af1565b505050565b6000611be38254600f81810b810b600160801b909204810b900b131590565b15611c0157604051631ed9509560e11b815260040160405180910390fd5b508054600f90810b80820b820b600090815260018085016020526040822080549290558454920190920b6fffffffffffffffffffffffffffffffff166fffffffffffffffffffffffffffffffff199091161790915590565b60045460408051918252602082018390527fc565b045403dc03c2eea82b81a0465edad9e2e7fc4d97e11421c209da93d7a93910160405180910390a1600455565b6000611ca4611328565b611cb33361080c600143613bda565b1015611d275760405162461bcd60e51b815260206004820152603160248201527f476f7665726e6f723a2070726f706f73657220766f7465732062656c6f77207060448201527f726f706f73616c207468726573686f6c640000000000000000000000000000006064820152608401610af1565b6000611d3c86868686805190602001206114c4565b90508451865114611d995760405162461bcd60e51b815260206004820152602160248201527f476f7665726e6f723a20696e76616c69642070726f706f73616c206c656e67746044820152600d60fb1b6064820152608401610af1565b8351865114611df45760405162461bcd60e51b815260206004820152602160248201527f476f7665726e6f723a20696e76616c69642070726f706f73616c206c656e67746044820152600d60fb1b6064820152608401610af1565b6000865111611e455760405162461bcd60e51b815260206004820152601860248201527f476f7665726e6f723a20656d7074792070726f706f73616c00000000000000006044820152606401610af1565b6000818152600160209081526040918290208251918201909252815467ffffffffffffffff169081905215611ec65760405162461bcd60e51b815260206004820152602160248201527f476f7665726e6f723a2070726f706f73616c20616c72656164792065786973746044820152607360f81b6064820152608401610af1565b6000611ed8611ed3610fd0565b611881565b611ee143611881565b611eeb9190613b8f565b90506000611efa611ed36108dc565b611f049083613b8f565b835467ffffffffffffffff191667ffffffffffffffff8416178455905060018301805467ffffffffffffffff191667ffffffffffffffff83161790557f7d84a6263ae0d98d3329bd7b46bb4e8d6f98cd35a7adb45c274c8b7fd5ebd5e084338b8b8d5167ffffffffffffffff811115611f7f57611f7f613cb5565b604051908082528060200260200182016040528015611fb257816020015b6060815260200190600190039081611f9d5790505b508c88888e604051611fcc9998979695949392919061399a565b60405180910390a15091979650505050505050565b604051630748d63560e31b81526001600160a01b038481166004830152602482018490526000917f000000000000000000000000000000000000000000000000000000000000000090911690633a46b1a89060440160206040518083038186803b15801561204e57600080fd5b505afa158015612062573d6000803e3d6000fd5b505050506040513d601f19601f8201168201806040525081019061120991906134d2565b6000600161209387611051565b60078111156120a4576120a4613c89565b146120fd5760405162461bcd60e51b815260206004820152602360248201527f476f7665726e6f723a20766f7465206e6f742063757272656e746c792061637460448201526269766560e81b6064820152608401610af1565b600161210c878787848761278a565b825161215e57856001600160a01b03167fb8e138887d0aa13bab447e82de9d5c1777041ecd21ca36ba824ff1e6c07ddda4888784886040516121519493929190613a8c565b60405180910390a26111db565b856001600160a01b03167fe2babfbac5889a709b63bb7f598b324e08bc5a4fb9ec647fb3cbc9ec07eb8712888784888860405161219f959493929190613ab4565b60405180910390a29695505050505050565b600854604080516001600160a01b03928316815291831660208301527f08f74ea46ef7894f65eabfb5e6e695de773a000b47c529ab559178069b226401910160405180910390a1600880547fffffffffffffffffffffffff0000000000000000000000000000000000000000166001600160a01b0392909216919091179055565b6060611209848484604051806060016040528060298152602001613ce160299139612c1c565b600081116122ce5760405162461bcd60e51b815260206004820152602760248201527f476f7665726e6f7253657474696e67733a20766f74696e6720706572696f642060448201527f746f6f206c6f77000000000000000000000000000000000000000000000000006064820152608401610af1565b60055460408051918252602082018390527f7e3f7f0708a84de9203036abaa450dccc85ad5ff52f78c170f3edb55cf5e8828910160405180910390a1600555565b60065460408051918252602082018390527fccb45da8d5717e6c4544694297c4ba5cf151d455c9bb0ed4fc7a38411bc05461910160405180910390a1600655565b60006001600160e01b0319821663bf26d89760e01b148061238157506001600160e01b031982166379dd796f60e01b145b8061239c57506001600160e01b03198216630271189760e51b145b806108d657506301ffc9a760e01b6001600160e01b03198316146108d6565b6000306001600160a01b037f00000000000000000000000000000000000000000000000000000000000000001614801561241457507f000000000000000000000000000000000000000000000000000000000000000046145b1561243e57507f000000000000000000000000000000000000000000000000000000000000000090565b50604080517f00000000000000000000000000000000000000000000000000000000000000006020808301919091527f0000000000000000000000000000000000000000000000000000000000000000828401527f000000000000000000000000000000000000000000000000000000000000000060608301524660808301523060a0808401919091528351808403909101815260c0909201909252805191012090565b6000807f7fffffffffffffffffffffffffffffff5d576e7357a4501ddfe92f46681b20a083111561251957506000905060036125c6565b8460ff16601b1415801561253157508460ff16601c14155b1561254257506000905060046125c6565b6040805160008082526020820180845289905260ff881692820192909252606081018690526080810185905260019060a0016020604051602081039080840390855afa158015612596573d6000803e3d6000fd5b5050604051601f1901519150506001600160a01b0381166125bf576000600192509250506125c6565b9150600090505b94509492505050565b60008160048111156125e3576125e3613c89565b14156125ec5750565b600181600481111561260057612600613c89565b141561264e5760405162461bcd60e51b815260206004820152601860248201527f45434453413a20696e76616c6964207369676e617475726500000000000000006044820152606401610af1565b600281600481111561266257612662613c89565b14156126b05760405162461bcd60e51b815260206004820152601f60248201527f45434453413a20696e76616c6964207369676e6174757265206c656e677468006044820152606401610af1565b60038160048111156126c4576126c4613c89565b141561271d5760405162461bcd60e51b815260206004820152602260248201527f45434453413a20696e76616c6964207369676e6174757265202773272076616c604482015261756560f01b6064820152608401610af1565b600481600481111561273157612731613c89565b14156111905760405162461bcd60e51b815260206004820152602260248201527f45434453413a20696e76616c6964207369676e6174757265202776272076616c604482015261756560f01b6064820152608401610af1565b60008581526007602090815260408083206001600160a01b0388168452600381019092529091205460ff16156128285760405162461bcd60e51b815260206004820152602760248201527f476f7665726e6f72566f74696e6753696d706c653a20766f746520616c72656160448201527f64792063617374000000000000000000000000000000000000000000000000006064820152608401610af1565b6001600160a01b03851660009081526003820160205260408120805460ff1916600117905560ff168460ff161415612879578281600001600082825461286e9190613b77565b9091555061199f9050565b60ff841660011415612899578281600101600082825461286e9190613b77565b60ff8416600214156128b9578281600201600082825461286e9190613b77565b60405162461bcd60e51b815260206004820152603560248201527f476f7665726e6f72566f74696e6753696d706c653a20696e76616c696420766160448201527f6c756520666f7220656e756d20566f74655479706500000000000000000000006064820152608401610af1565b8154600160801b90819004600f90810b80820b820b6000908152600180870160205260409091209490945584549301900b6fffffffffffffffffffffffffffffffff9081169091029116179055565b6000612981866112fb565b9050600081116129f95760405162461bcd60e51b815260206004820152603160248201527f476f7665726e6f7254696d656c6f636b436f6d706f756e643a2070726f706f7360448201527f616c206e6f7420796574207175657565640000000000000000000000000000006064820152608401610af1565b600854612a0f906001600160a01b031634612d59565b60005b8551811015612b075760085486516001600160a01b0390911690630825f38f90889084908110612a4457612a44613c9f565b6020026020010151878481518110612a5e57612a5e613c9f565b6020026020010151878581518110612a7857612a78613c9f565b6020026020010151866040518563ffffffff1660e01b8152600401612aa094939291906138cd565b600060405180830381600087803b158015612aba57600080fd5b505af1158015612ace573d6000803e3d6000fd5b505050506040513d6000823e601f3d908101601f19168201604052612af69190810190613515565b50612b0081613c58565b9050612a12565b50505050505050565b6000818152600160205260408120600281015460ff1615612b345750600792915050565b6002810154610100900460ff1615612b4f5750600292915050565b6000612b5a84610f97565b905080612ba95760405162461bcd60e51b815260206004820152601d60248201527f476f7665726e6f723a20756e6b6e6f776e2070726f706f73616c2069640000006044820152606401610af1565b438110612bba575060009392505050565b6000612bc58561139d565b9050438110612bd957506001949350505050565b612be285612e72565b8015612c01575060008581526007602052604090208054600190910154115b15612c1157506004949350505050565b506003949350505050565b606082471015612c945760405162461bcd60e51b815260206004820152602660248201527f416464726573733a20696e73756666696369656e742062616c616e636520666f60448201527f722063616c6c00000000000000000000000000000000000000000000000000006064820152608401610af1565b6001600160a01b0385163b612ceb5760405162461bcd60e51b815260206004820152601d60248201527f416464726573733a2063616c6c20746f206e6f6e2d636f6e74726163740000006044820152606401610af1565b600080866001600160a01b03168587604051612d0791906138b1565b60006040518083038185875af1925050503d8060008114612d44576040519150601f19603f3d011682016040523d82523d6000602084013e612d49565b606091505b5091509150611046828286612ea9565b80471015612da95760405162461bcd60e51b815260206004820152601d60248201527f416464726573733a20696e73756666696369656e742062616c616e63650000006044820152606401610af1565b6000826001600160a01b03168260405160006040518083038185875af1925050503d8060008114612df6576040519150601f19603f3d011682016040523d82523d6000602084013e612dfb565b606091505b5050905080611bbf5760405162461bcd60e51b815260206004820152603a60248201527f416464726573733a20756e61626c6520746f2073656e642076616c75652c207260448201527f6563697069656e74206d617920686176652072657665727465640000000000006064820152608401610af1565b600081815260076020526040812060028101546001820154612e949190613b77565b612ea061087885610f97565b11159392505050565b60608315612eb857508161120c565b825115612ec85782518084602001fd5b8160405162461bcd60e51b8152600401610af19190613987565b6000612ef5612ef084613b4f565b613afa565b9050828152838383011115612f0957600080fd5b828260208301376000602084830101529392505050565b600082601f830112612f3157600080fd5b81356020612f41612ef083613b2b565b80838252828201915082860187848660051b8901011115612f6157600080fd5b60005b85811015612f89578135612f7781613ccb565b84529284019290840190600101612f64565b5090979650505050505050565b600082601f830112612fa757600080fd5b81356020612fb7612ef083613b2b565b80838252828201915082860187848660051b8901011115612fd757600080fd5b6000805b8681101561301a57823567ffffffffffffffff811115612ff9578283fd5b6130078b88838d01016130d1565b8652509385019391850191600101612fdb565b509198975050505050505050565b600082601f83011261303957600080fd5b81356020613049612ef083613b2b565b80838252828201915082860187848660051b890101111561306957600080fd5b60005b85811015612f895781358452928401929084019060010161306c565b60008083601f84011261309a57600080fd5b50813567ffffffffffffffff8111156130b257600080fd5b6020830191508360208285010111156130ca57600080fd5b9250929050565b600082601f8301126130e257600080fd5b61120c83833560208501612ee2565b803560ff8116811461310257600080fd5b919050565b600080600080600060a0868803121561311f57600080fd5b853561312a81613ccb565b9450602086013561313a81613ccb565b9350604086013567ffffffffffffffff8082111561315757600080fd5b61316389838a01613028565b9450606088013591508082111561317957600080fd5b61318589838a01613028565b9350608088013591508082111561319b57600080fd5b506131a8888289016130d1565b9150509295509295909350565b600080600080608085870312156131cb57600080fd5b84356131d681613ccb565b935060208501356131e681613ccb565b925060408501359150606085013567ffffffffffffffff81111561320957600080fd5b613215878288016130d1565b91505092959194509250565b600080600080600060a0868803121561323957600080fd5b853561324481613ccb565b9450602086013561325481613ccb565b93506040860135925060608601359150608086013567ffffffffffffffff81111561327e57600080fd5b6131a8888289016130d1565b6000806040838503121561329d57600080fd5b82356132a881613ccb565b946020939093013593505050565b600080600080606085870312156132cc57600080fd5b84356132d781613ccb565b935060208501359250604085013567ffffffffffffffff8111156132fa57600080fd5b61330687828801613088565b95989497509550505050565b60008060006060848603121561332757600080fd5b833561333281613ccb565b925060208401359150604084013567ffffffffffffffff81111561335557600080fd5b613361868287016130d1565b9150509250925092565b6000806000806080858703121561338157600080fd5b843567ffffffffffffffff8082111561339957600080fd5b6133a588838901612f20565b955060208701359150808211156133bb57600080fd5b6133c788838901613028565b945060408701359150808211156133dd57600080fd5b506133ea87828801612f96565b949793965093946060013593505050565b6000806000806080858703121561341157600080fd5b843567ffffffffffffffff8082111561342957600080fd5b61343588838901612f20565b9550602087013591508082111561344b57600080fd5b61345788838901613028565b9450604087013591508082111561346d57600080fd5b61347988838901612f96565b9350606087013591508082111561348f57600080fd5b508501601f810187136134a157600080fd5b61321587823560208401612ee2565b6000602082840312156134c257600080fd5b8151801515811461120c57600080fd5b6000602082840312156134e457600080fd5b5051919050565b6000602082840312156134fd57600080fd5b81356001600160e01b03198116811461120c57600080fd5b60006020828403121561352757600080fd5b815167ffffffffffffffff81111561353e57600080fd5b8201601f8101841361354f57600080fd5b805161355d612ef082613b4f565b81815285602083850101111561357257600080fd5b6111f3826020830160208601613bf1565b60006020828403121561359557600080fd5b813561120c81613ccb565b6000602082840312156135b257600080fd5b5035919050565b600080604083850312156135cc57600080fd5b8235915060208301356135de81613ccb565b809150509250929050565b600080604083850312156135fc57600080fd5b8235915061360c602084016130f1565b90509250929050565b6000806000806060858703121561362b57600080fd5b8435935061363b602086016130f1565b9250604085013567ffffffffffffffff8111156132fa57600080fd5b60008060008060006080868803121561366f57600080fd5b8535945061367f602087016130f1565b9350604086013567ffffffffffffffff8082111561369c57600080fd5b6136a889838a01613088565b9095509350606088013591508082111561319b57600080fd5b60008060008060008060008060e0898b0312156136dd57600080fd5b883597506136ed60208a016130f1565b9650604089013567ffffffffffffffff8082111561370a57600080fd5b6137168c838d01613088565b909850965060608b013591508082111561372f57600080fd5b5061373c8b828c016130d1565b94505061374b60808a016130f1565b925060a0890135915060c089013590509295985092959890939650565b600080600080600060a0868803121561378057600080fd5b85359450613790602087016130f1565b935061379e604087016130f1565b94979396509394606081013594506080013592915050565b600081518084526020808501945080840160005b838110156137ef5781516001600160a01b0316875295820195908201906001016137ca565b509495945050505050565b600082825180855260208086019550808260051b84010181860160005b84811015612f8957601f19868403018952613833838351613875565b98840198925090830190600101613817565b600081518084526020808501945080840160005b838110156137ef57815187529582019590820190600101613859565b6000815180845261388d816020860160208601613bf1565b601f01601f19169290920160200192915050565b8183823760009101908152919050565b600082516138c3818460208701613bf1565b9190910192915050565b6001600160a01b038516815283602082015260a06040820152600060a082015260c06060820152600061390360c0830185613875565b905082608083015295945050505050565b60808152600061392760808301876137b6565b82810360208401526139398187613845565b9050828103604084015261394d81866137fa565b91505082606083015295945050505050565b602081016008831061398157634e487b7160e01b600052602160045260246000fd5b91905290565b60208152600061120c6020830184613875565b60006101208b835260206001600160a01b038c16818501528160408501526139c48285018c6137b6565b915083820360608501526139d8828b613845565b915083820360808501528189518084528284019150828160051b850101838c0160005b83811015613a2957601f19878403018552613a17838351613875565b948601949250908501906001016139fb565b505086810360a0880152613a3d818c6137fa565b945050505050613a5960c084018767ffffffffffffffff169052565b67ffffffffffffffff851660e0840152828103610100840152613a7c8185613875565b9c9b505050505050505050505050565b84815260ff841660208201528260408201526080606082015260006111db6080830184613875565b85815260ff8516602082015283604082015260a060608201526000613adc60a0830185613875565b8281036080840152613aee8185613875565b98975050505050505050565b604051601f8201601f1916810167ffffffffffffffff81118282101715613b2357613b23613cb5565b604052919050565b600067ffffffffffffffff821115613b4557613b45613cb5565b5060051b60200190565b600067ffffffffffffffff821115613b6957613b69613cb5565b50601f01601f191660200190565b60008219821115613b8a57613b8a613c73565b500190565b600067ffffffffffffffff808316818516808303821115613bb257613bb2613c73565b01949350505050565b6000816000190483118215151615613bd557613bd5613c73565b500290565b600082821015613bec57613bec613c73565b500390565b60005b83811015613c0c578181015183820152602001613bf4565b838111156113975750506000910152565b600181811c90821680613c3157607f821691505b60208210811415613c5257634e487b7160e01b600052602260045260246000fd5b50919050565b6000600019821415613c6c57613c6c613c73565b5060010190565b634e487b7160e01b600052601160045260246000fd5b634e487b7160e01b600052602160045260246000fd5b634e487b7160e01b600052603260045260246000fd5b634e487b7160e01b600052604160045260246000fd5b6001600160a01b038116811461119057600080fdfe416464726573733a206c6f772d6c6576656c2063616c6c20776974682076616c7565206661696c6564a164736f6c6343000806000a",
  "linkReferences": {},
  "deployedLinkReferences": {}
}