{
  "_format": "hh-sol-artifact-1",
  "contractName": "MyGovernor",
  "sourceName": "contracts/MyGovernor.sol",
  "abi": [
    {
      "inputs": [
        {
          "internalType": "contract IVotes",
          "name": "_token",
          "type": "address"
        },
        {
          "internalType": "contract ICompoundTimelock",
          "name": "_timelock",
          "type": "address"
        },
        {
          "internalType": "contract IMyGovernorHelper",
          "name": "_helper",
          "type": "address"
        }
      ],
      "stateMutability": "nonpayable",
      "type": "constructor"
    },
    {
      "inputs": [],
      "name": "Empty",
      "type": "error"
    },
    {
      "anonymous": false,
      "inputs": [
        {
          "indexed": false,
          "internalType": "uint256",
          "name": "proposalId",
          "type": "uint256"
        }
      ],
      "name": "ProposalCanceled",
      "type": "event"
    },
    {
      "anonymous": false,
      "inputs": [
        {
          "indexed": false,
          "internalType": "uint256",
          "name": "proposalId",
          "type": "uint256"
        },
        {
          "indexed": false,
          "internalType": "address",
          "name": "proposer",
          "type": "address"
        },
        {
          "indexed": false,
          "internalType": "address[]",
          "name": "targets",
          "type": "address[]"
        },
        {
          "indexed": false,
          "internalType": "uint256[]",
          "name": "values",
          "type": "uint256[]"
        },
        {
          "indexed": false,
          "internalType": "string[]",
          "name": "signatures",
          "type": "string[]"
        },
        {
          "indexed": false,
          "internalType": "bytes[]",
          "name": "calldatas",
          "type": "bytes[]"
        },
        {
          "indexed": false,
          "internalType": "uint256",
          "name": "startBlock",
          "type": "uint256"
        },
        {
          "indexed": false,
          "internalType": "uint256",
          "name": "endBlock",
          "type": "uint256"
        },
        {
          "indexed": false,
          "internalType": "string",
          "name": "description",
          "type": "string"
        }
      ],
      "name": "ProposalCreated",
      "type": "event"
    },
    {
      "anonymous": false,
      "inputs": [
        {
          "indexed": false,
          "internalType": "uint256",
          "name": "proposalId",
          "type": "uint256"
        }
      ],
      "name": "ProposalExecuted",
      "type": "event"
    },
    {
      "anonymous": false,
      "inputs": [
        {
          "indexed": false,
          "internalType": "uint256",
          "name": "proposalId",
          "type": "uint256"
        },
        {
          "indexed": false,
          "internalType": "uint256",
          "name": "eta",
          "type": "uint256"
        }
      ],
      "name": "ProposalQueued",
      "type": "event"
    },
    {
      "anonymous": false,
      "inputs": [
        {
          "indexed": false,
          "internalType": "uint256",
          "name": "oldProposalThreshold",
          "type": "uint256"
        },
        {
          "indexed": false,
          "internalType": "uint256",
          "name": "newProposalThreshold",
          "type": "uint256"
        }
      ],
      "name": "ProposalThresholdSet",
      "type": "event"
    },
    {
      "anonymous": false,
      "inputs": [
        {
          "indexed": false,
          "internalType": "address",
          "name": "oldTimelock",
          "type": "address"
        },
        {
          "indexed": false,
          "internalType": "address",
          "name": "newTimelock",
          "type": "address"
        }
      ],
      "name": "TimelockChange",
      "type": "event"
    },
    {
      "anonymous": false,
      "inputs": [
        {
          "indexed": true,
          "internalType": "address",
          "name": "voter",
          "type": "address"
        },
        {
          "indexed": false,
          "internalType": "uint256",
          "name": "proposalId",
          "type": "uint256"
        },
        {
          "indexed": false,
          "internalType": "uint8",
          "name": "support",
          "type": "uint8"
        },
        {
          "indexed": false,
          "internalType": "uint256",
          "name": "weight",
          "type": "uint256"
        },
        {
          "indexed": false,
          "internalType": "string",
          "name": "reason",
          "type": "string"
        }
      ],
      "name": "VoteCast",
      "type": "event"
    },
    {
      "anonymous": false,
      "inputs": [
        {
          "indexed": true,
          "internalType": "address",
          "name": "voter",
          "type": "address"
        },
        {
          "indexed": false,
          "internalType": "uint256",
          "name": "proposalId",
          "type": "uint256"
        },
        {
          "indexed": false,
          "internalType": "uint8",
          "name": "support",
          "type": "uint8"
        },
        {
          "indexed": false,
          "internalType": "uint256",
          "name": "weight",
          "type": "uint256"
        },
        {
          "indexed": false,
          "internalType": "string",
          "name": "reason",
          "type": "string"
        },
        {
          "indexed": false,
          "internalType": "bytes",
          "name": "params",
          "type": "bytes"
        }
      ],
      "name": "VoteCastWithParams",
      "type": "event"
    },
    {
      "anonymous": false,
      "inputs": [
        {
          "indexed": false,
          "internalType": "uint256",
          "name": "oldVotingDelay",
          "type": "uint256"
        },
        {
          "indexed": false,
          "internalType": "uint256",
          "name": "newVotingDelay",
          "type": "uint256"
        }
      ],
      "name": "VotingDelaySet",
      "type": "event"
    },
    {
      "anonymous": false,
      "inputs": [
        {
          "indexed": false,
          "internalType": "uint256",
          "name": "oldVotingPeriod",
          "type": "uint256"
        },
        {
          "indexed": false,
          "internalType": "uint256",
          "name": "newVotingPeriod",
          "type": "uint256"
        }
      ],
      "name": "VotingPeriodSet",
      "type": "event"
    },
    {
      "inputs": [],
      "name": "BALLOT_TYPEHASH",
      "outputs": [
        {
          "internalType": "bytes32",
          "name": "",
          "type": "bytes32"
        }
      ],
      "stateMutability": "view",
      "type": "function"
    },
    {
      "inputs": [],
      "name": "COUNTING_MODE",
      "outputs": [
        {
          "internalType": "string",
          "name": "",
          "type": "string"
        }
      ],
      "stateMutability": "pure",
      "type": "function"
    },
    {
      "inputs": [],
      "name": "EXTENDED_BALLOT_TYPEHASH",
      "outputs": [
        {
          "internalType": "bytes32",
          "name": "",
          "type": "bytes32"
        }
      ],
      "stateMutability": "view",
      "type": "function"
    },
    {
      "inputs": [],
      "name": "__acceptAdmin",
      "outputs": [],
      "stateMutability": "nonpayable",
      "type": "function"
    },
    {
      "inputs": [
        {
          "internalType": "uint256",
          "name": "proposalId",
          "type": "uint256"
        },
        {
          "internalType": "uint8",
          "name": "support",
          "type": "uint8"
        }
      ],
      "name": "castVote",
      "outputs": [
        {
          "internalType": "uint256",
          "name": "",
          "type": "uint256"
        }
      ],
      "stateMutability": "nonpayable",
      "type": "function"
    },
    {
      "inputs": [
        {
          "internalType": "uint256",
          "name": "proposalId",
          "type": "uint256"
        },
        {
          "internalType": "uint8",
          "name": "support",
          "type": "uint8"
        }
      ],
      "name": "castVoteAllIn",
      "outputs": [
        {
          "internalType": "uint256",
          "name": "",
          "type": "uint256"
        }
      ],
      "stateMutability": "payable",
      "type": "function"
    },
    {
      "inputs": [
        {
          "internalType": "uint256",
          "name": "proposalId",
          "type": "uint256"
        },
        {
          "internalType": "uint8",
          "name": "support",
          "type": "uint8"
        },
        {
          "internalType": "uint8",
          "name": "v",
          "type": "uint8"
        },
        {
          "internalType": "bytes32",
          "name": "r",
          "type": "bytes32"
        },
        {
          "internalType": "bytes32",
          "name": "s",
          "type": "bytes32"
        }
      ],
      "name": "castVoteBySig",
      "outputs": [
        {
          "internalType": "uint256",
          "name": "",
          "type": "uint256"
        }
      ],
      "stateMutability": "nonpayable",
      "type": "function"
    },
    {
      "inputs": [
        {
          "internalType": "uint256",
          "name": "proposalId",
          "type": "uint256"
        },
        {
          "internalType": "uint8",
          "name": "support",
          "type": "uint8"
        }
      ],
      "name": "castVoteSimple",
      "outputs": [
        {
          "internalType": "uint256",
          "name": "",
          "type": "uint256"
        }
      ],
      "stateMutability": "payable",
      "type": "function"
    },
    {
      "inputs": [
        {
          "internalType": "uint256",
          "name": "proposalId",
          "type": "uint256"
        },
        {
          "internalType": "uint8",
          "name": "support",
          "type": "uint8"
        },
        {
          "internalType": "string",
          "name": "reason",
          "type": "string"
        }
      ],
      "name": "castVoteWithReason",
      "outputs": [
        {
          "internalType": "uint256",
          "name": "",
          "type": "uint256"
        }
      ],
      "stateMutability": "nonpayable",
      "type": "function"
    },
    {
      "inputs": [
        {
          "internalType": "uint256",
          "name": "proposalId",
          "type": "uint256"
        },
        {
          "internalType": "uint8",
          "name": "support",
          "type": "uint8"
        },
        {
          "internalType": "string",
          "name": "reason",
          "type": "string"
        },
        {
          "internalType": "bytes",
          "name": "params",
          "type": "bytes"
        }
      ],
      "name": "castVoteWithReasonAndParams",
      "outputs": [
        {
          "internalType": "uint256",
          "name": "",
          "type": "uint256"
        }
      ],
      "stateMutability": "nonpayable",
      "type": "function"
    },
    {
      "inputs": [
        {
          "internalType": "uint256",
          "name": "proposalId",
          "type": "uint256"
        },
        {
          "internalType": "uint8",
          "name": "support",
          "type": "uint8"
        },
        {
          "internalType": "string",
          "name": "reason",
          "type": "string"
        },
        {
          "internalType": "bytes",
          "name": "params",
          "type": "bytes"
        },
        {
          "internalType": "uint8",
          "name": "v",
          "type": "uint8"
        },
        {
          "internalType": "bytes32",
          "name": "r",
          "type": "bytes32"
        },
        {
          "internalType": "bytes32",
          "name": "s",
          "type": "bytes32"
        }
      ],
      "name": "castVoteWithReasonAndParamsBySig",
      "outputs": [
        {
          "internalType": "uint256",
          "name": "",
          "type": "uint256"
        }
      ],
      "stateMutability": "nonpayable",
      "type": "function"
    },
    {
      "inputs": [
        {
          "internalType": "address[]",
          "name": "targets",
          "type": "address[]"
        },
        {
          "internalType": "uint256[]",
          "name": "values",
          "type": "uint256[]"
        },
        {
          "internalType": "bytes[]",
          "name": "calldatas",
          "type": "bytes[]"
        },
        {
          "internalType": "bytes32",
          "name": "descriptionHash",
          "type": "bytes32"
        }
      ],
      "name": "execute",
      "outputs": [
        {
          "internalType": "uint256",
          "name": "",
          "type": "uint256"
        }
      ],
      "stateMutability": "payable",
      "type": "function"
    },
    {
      "inputs": [],
      "name": "getBalance",
      "outputs": [
        {
          "internalType": "uint256",
          "name": "",
          "type": "uint256"
        }
      ],
      "stateMutability": "view",
      "type": "function"
    },
    {
      "inputs": [
        {
          "internalType": "uint256",
          "name": "proposalId",
          "type": "uint256"
        }
      ],
      "name": "getProposerBudget",
      "outputs": [
        {
          "internalType": "uint256",
          "name": "",
          "type": "uint256"
        }
      ],
      "stateMutability": "view",
      "type": "function"
    },
    {
      "inputs": [
        {
          "internalType": "uint256",
          "name": "proposalId",
          "type": "uint256"
        }
      ],
      "name": "getProposerName",
      "outputs": [
        {
          "internalType": "address",
          "name": "",
          "type": "address"
        }
      ],
      "stateMutability": "view",
      "type": "function"
    },
    {
      "inputs": [
        {
          "internalType": "address",
          "name": "account",
          "type": "address"
        },
        {
          "internalType": "uint256",
          "name": "blockNumber",
          "type": "uint256"
        }
      ],
      "name": "getVotes",
      "outputs": [
        {
          "internalType": "uint256",
          "name": "",
          "type": "uint256"
        }
      ],
      "stateMutability": "view",
      "type": "function"
    },
    {
      "inputs": [
        {
          "internalType": "address",
          "name": "account",
          "type": "address"
        },
        {
          "internalType": "uint256",
          "name": "blockNumber",
          "type": "uint256"
        },
        {
          "internalType": "bytes",
          "name": "params",
          "type": "bytes"
        }
      ],
      "name": "getVotesWithParams",
      "outputs": [
        {
          "internalType": "uint256",
          "name": "",
          "type": "uint256"
        }
      ],
      "stateMutability": "view",
      "type": "function"
    },
    {
      "inputs": [
        {
          "internalType": "uint256",
          "name": "proposalId",
          "type": "uint256"
        },
        {
          "internalType": "address",
          "name": "account",
          "type": "address"
        }
      ],
      "name": "hasVoted",
      "outputs": [
        {
          "internalType": "bool",
          "name": "",
          "type": "bool"
        }
      ],
      "stateMutability": "view",
      "type": "function"
    },
    {
      "inputs": [
        {
          "internalType": "address[]",
          "name": "targets",
          "type": "address[]"
        },
        {
          "internalType": "uint256[]",
          "name": "values",
          "type": "uint256[]"
        },
        {
          "internalType": "bytes[]",
          "name": "calldatas",
          "type": "bytes[]"
        },
        {
          "internalType": "bytes32",
          "name": "descriptionHash",
          "type": "bytes32"
        }
      ],
      "name": "hashProposal",
      "outputs": [
        {
          "internalType": "uint256",
          "name": "",
          "type": "uint256"
        }
      ],
      "stateMutability": "pure",
      "type": "function"
    },
    {
      "inputs": [],
      "name": "helper",
      "outputs": [
        {
          "internalType": "address",
          "name": "",
          "type": "address"
        }
      ],
      "stateMutability": "view",
      "type": "function"
    },
    {
      "inputs": [],
      "name": "name",
      "outputs": [
        {
          "internalType": "string",
          "name": "",
          "type": "string"
        }
      ],
      "stateMutability": "view",
      "type": "function"
    },
    {
      "inputs": [
        {
          "internalType": "address",
          "name": "",
          "type": "address"
        },
        {
          "internalType": "address",
          "name": "",
          "type": "address"
        },
        {
          "internalType": "uint256[]",
          "name": "",
          "type": "uint256[]"
        },
        {
          "internalType": "uint256[]",
          "name": "",
          "type": "uint256[]"
        },
        {
          "internalType": "bytes",
          "name": "",
          "type": "bytes"
        }
      ],
      "name": "onERC1155BatchReceived",
      "outputs": [
        {
          "internalType": "bytes4",
          "name": "",
          "type": "bytes4"
        }
      ],
      "stateMutability": "nonpayable",
      "type": "function"
    },
    {
      "inputs": [
        {
          "internalType": "address",
          "name": "",
          "type": "address"
        },
        {
          "internalType": "address",
          "name": "",
          "type": "address"
        },
        {
          "internalType": "uint256",
          "name": "",
          "type": "uint256"
        },
        {
          "internalType": "uint256",
          "name": "",
          "type": "uint256"
        },
        {
          "internalType": "bytes",
          "name": "",
          "type": "bytes"
        }
      ],
      "name": "onERC1155Received",
      "outputs": [
        {
          "internalType": "bytes4",
          "name": "",
          "type": "bytes4"
        }
      ],
      "stateMutability": "nonpayable",
      "type": "function"
    },
    {
      "inputs": [
        {
          "internalType": "address",
          "name": "",
          "type": "address"
        },
        {
          "internalType": "address",
          "name": "",
          "type": "address"
        },
        {
          "internalType": "uint256",
          "name": "",
          "type": "uint256"
        },
        {
          "internalType": "bytes",
          "name": "",
          "type": "bytes"
        }
      ],
      "name": "onERC721Received",
      "outputs": [
        {
          "internalType": "bytes4",
          "name": "",
          "type": "bytes4"
        }
      ],
      "stateMutability": "nonpayable",
      "type": "function"
    },
    {
      "inputs": [],
      "name": "owner",
      "outputs": [
        {
          "internalType": "address",
          "name": "",
          "type": "address"
        }
      ],
      "stateMutability": "view",
      "type": "function"
    },
    {
      "inputs": [
        {
          "internalType": "uint256",
          "name": "proposalId",
          "type": "uint256"
        }
      ],
      "name": "proposalDeadline",
      "outputs": [
        {
          "internalType": "uint256",
          "name": "",
          "type": "uint256"
        }
      ],
      "stateMutability": "view",
      "type": "function"
    },
    {
      "inputs": [
        {
          "internalType": "uint256",
          "name": "proposalId",
          "type": "uint256"
        }
      ],
      "name": "proposalEta",
      "outputs": [
        {
          "internalType": "uint256",
          "name": "",
          "type": "uint256"
        }
      ],
      "stateMutability": "view",
      "type": "function"
    },
    {
      "inputs": [
        {
          "internalType": "uint256",
          "name": "proposalId",
          "type": "uint256"
        }
      ],
      "name": "proposalSnapshot",
      "outputs": [
        {
          "internalType": "uint256",
          "name": "",
          "type": "uint256"
        }
      ],
      "stateMutability": "view",
      "type": "function"
    },
    {
      "inputs": [],
      "name": "proposalThreshold",
      "outputs": [
        {
          "internalType": "uint256",
          "name": "",
          "type": "uint256"
        }
      ],
      "stateMutability": "view",
      "type": "function"
    },
    {
      "inputs": [
        {
          "internalType": "uint256",
          "name": "proposalId",
          "type": "uint256"
        }
      ],
      "name": "proposalVotes",
      "outputs": [
        {
          "internalType": "uint256",
          "name": "againstVotes",
          "type": "uint256"
        },
        {
          "internalType": "uint256",
          "name": "forVotes",
          "type": "uint256"
        },
        {
          "internalType": "uint256",
          "name": "abstainVotes",
          "type": "uint256"
        }
      ],
      "stateMutability": "view",
      "type": "function"
    },
    {
      "inputs": [
        {
          "internalType": "address[]",
          "name": "targets",
          "type": "address[]"
        },
        {
          "internalType": "uint256[]",
          "name": "values",
          "type": "uint256[]"
        },
        {
          "internalType": "bytes[]",
          "name": "calldatas",
          "type": "bytes[]"
        },
        {
          "internalType": "string",
          "name": "description",
          "type": "string"
        }
      ],
      "name": "propose",
      "outputs": [
        {
          "internalType": "uint256",
          "name": "",
          "type": "uint256"
        }
      ],
      "stateMutability": "nonpayable",
      "type": "function"
    },
    {
      "inputs": [
        {
          "internalType": "uint256",
          "name": "proposalId",
          "type": "uint256"
        }
      ],
      "name": "quadraticVoting",
      "outputs": [],
      "stateMutability": "payable",
      "type": "function"
    },
    {
      "inputs": [
        {
          "internalType": "address[]",
          "name": "targets",
          "type": "address[]"
        },
        {
          "internalType": "uint256[]",
          "name": "values",
          "type": "uint256[]"
        },
        {
          "internalType": "bytes[]",
          "name": "calldatas",
          "type": "bytes[]"
        },
        {
          "internalType": "bytes32",
          "name": "descriptionHash",
          "type": "bytes32"
        }
      ],
      "name": "queue",
      "outputs": [
        {
          "internalType": "uint256",
          "name": "",
          "type": "uint256"
        }
      ],
      "stateMutability": "nonpayable",
      "type": "function"
    },
    {
      "inputs": [
        {
          "internalType": "uint256",
          "name": "blockNumber",
          "type": "uint256"
        }
      ],
      "name": "quorum",
      "outputs": [
        {
          "internalType": "uint256",
          "name": "",
          "type": "uint256"
        }
      ],
      "stateMutability": "pure",
      "type": "function"
    },
    {
      "inputs": [
        {
          "internalType": "address",
          "name": "target",
          "type": "address"
        },
        {
          "internalType": "uint256",
          "name": "value",
          "type": "uint256"
        },
        {
          "internalType": "bytes",
          "name": "data",
          "type": "bytes"
        }
      ],
      "name": "relay",
      "outputs": [],
      "stateMutability": "nonpayable",
      "type": "function"
    },
    {
      "inputs": [
        {
          "internalType": "uint256",
          "name": "proposalId",
          "type": "uint256"
        },
        {
          "internalType": "uint256",
          "name": "budget",
          "type": "uint256"
        }
      ],
      "name": "setProposalBudget",
      "outputs": [],
      "stateMutability": "nonpayable",
      "type": "function"
    },
    {
      "inputs": [
        {
          "internalType": "uint256",
          "name": "newProposalThreshold",
          "type": "uint256"
        }
      ],
      "name": "setProposalThreshold",
      "outputs": [],
      "stateMutability": "nonpayable",
      "type": "function"
    },
    {
      "inputs": [
        {
          "internalType": "uint256",
          "name": "newVotingDelay",
          "type": "uint256"
        }
      ],
      "name": "setVotingDelay",
      "outputs": [],
      "stateMutability": "nonpayable",
      "type": "function"
    },
    {
      "inputs": [
        {
          "internalType": "uint256",
          "name": "newVotingPeriod",
          "type": "uint256"
        }
      ],
      "name": "setVotingPeriod",
      "outputs": [],
      "stateMutability": "nonpayable",
      "type": "function"
    },
    {
      "inputs": [
        {
          "internalType": "uint256",
          "name": "proposalId",
          "type": "uint256"
        }
      ],
      "name": "state",
      "outputs": [
        {
          "internalType": "enum IGovernor.ProposalState",
          "name": "",
          "type": "uint8"
        }
      ],
      "stateMutability": "view",
      "type": "function"
    },
    {
      "inputs": [
        {
          "internalType": "bytes4",
          "name": "interfaceId",
          "type": "bytes4"
        }
      ],
      "name": "supportsInterface",
      "outputs": [
        {
          "internalType": "bool",
          "name": "",
          "type": "bool"
        }
      ],
      "stateMutability": "view",
      "type": "function"
    },
    {
      "inputs": [],
      "name": "timelock",
      "outputs": [
        {
          "internalType": "address",
          "name": "",
          "type": "address"
        }
      ],
      "stateMutability": "view",
      "type": "function"
    },
    {
      "inputs": [],
      "name": "timelockAddress",
      "outputs": [
        {
          "internalType": "contract ICompoundTimelock",
          "name": "",
          "type": "address"
        }
      ],
      "stateMutability": "view",
      "type": "function"
    },
    {
      "inputs": [],
      "name": "token",
      "outputs": [
        {
          "internalType": "contract IVotes",
          "name": "",
          "type": "address"
        }
      ],
      "stateMutability": "view",
      "type": "function"
    },
    {
      "inputs": [],
      "name": "tokenAddress",
      "outputs": [
        {
          "internalType": "address",
          "name": "",
          "type": "address"
        }
      ],
      "stateMutability": "view",
      "type": "function"
    },
    {
      "inputs": [
        {
          "internalType": "address payable",
          "name": "_receiver",
          "type": "address"
        },
        {
          "internalType": "uint256",
          "name": "amount",
          "type": "uint256"
        }
      ],
      "name": "transferFunds",
      "outputs": [],
      "stateMutability": "payable",
      "type": "function"
    },
    {
      "inputs": [
        {
          "internalType": "contract ICompoundTimelock",
          "name": "newTimelock",
          "type": "address"
        }
      ],
      "name": "updateTimelock",
      "outputs": [],
      "stateMutability": "nonpayable",
      "type": "function"
    },
    {
      "inputs": [],
      "name": "version",
      "outputs": [
        {
          "internalType": "string",
          "name": "",
          "type": "string"
        }
      ],
      "stateMutability": "view",
      "type": "function"
    },
    {
      "inputs": [],
      "name": "votingDelay",
      "outputs": [
        {
          "internalType": "uint256",
          "name": "",
          "type": "uint256"
        }
      ],
      "stateMutability": "view",
      "type": "function"
    },
    {
      "inputs": [],
      "name": "votingPeriod",
      "outputs": [
        {
          "internalType": "uint256",
          "name": "",
          "type": "uint256"
        }
      ],
      "stateMutability": "view",
      "type": "function"
    },
    {
      "stateMutability": "payable",
      "type": "receive"
    }
  ],
  "bytecode": "0x6101606040523480156200001257600080fd5b506040516200466738038062004667833981016040819052620000359162000403565b81836001601460026040518060400160405280600a81526020016926bca3b7bb32b93737b960b11b8152508062000071620001b160201b60201c565b815160208084019190912082518383012060e08290526101008190524660a0818152604080517f8b73c3c69bb8fe3d512ecc4cf759cc79239f7b179b0ffacaa9a75d522b39400f81880181905281830187905260608201869052608082019490945230818401528151808203909301835260c00190528051940193909320919290916080523060601b60c05261012052505082516200011a92506000915060208401906200035d565b5062000128905083620001cc565b62000133826200020d565b6200013e81620002b3565b50505060601b6001600160601b031916610140526200015d81620002f4565b50600a80546001600160a01b039485166001600160a01b031991821617909155600d805492851692821692909217909155600b80549290931691811691909117909155600c805490911633179055620004ad565b6040805180820190915260018152603160f81b602082015290565b60045460408051918252602082018390527fc565b045403dc03c2eea82b81a0465edad9e2e7fc4d97e11421c209da93d7a93910160405180910390a1600455565b60008111620002725760405162461bcd60e51b815260206004820152602760248201527f476f7665726e6f7253657474696e67733a20766f74696e6720706572696f6420604482015266746f6f206c6f7760c81b606482015260840160405180910390fd5b60055460408051918252602082018390527f7e3f7f0708a84de9203036abaa450dccc85ad5ff52f78c170f3edb55cf5e8828910160405180910390a1600555565b60065460408051918252602082018390527fccb45da8d5717e6c4544694297c4ba5cf151d455c9bb0ed4fc7a38411bc05461910160405180910390a1600655565b600854604080516001600160a01b03928316815291831660208301527f08f74ea46ef7894f65eabfb5e6e695de773a000b47c529ab559178069b226401910160405180910390a1600880546001600160a01b0319166001600160a01b0392909216919091179055565b8280546200036b9062000457565b90600052602060002090601f0160209004810192826200038f5760008555620003da565b82601f10620003aa57805160ff1916838001178555620003da565b82800160010185558215620003da579182015b82811115620003da578251825591602001919060010190620003bd565b50620003e8929150620003ec565b5090565b5b80821115620003e85760008155600101620003ed565b6000806000606084860312156200041957600080fd5b8351620004268162000494565b6020850151909350620004398162000494565b60408501519092506200044c8162000494565b809150509250925092565b600181811c908216806200046c57607f821691505b602082108114156200048e57634e487b7160e01b600052602260045260246000fd5b50919050565b6001600160a01b0381168114620004aa57600080fd5b50565b60805160a05160c05160601c60e05161010051610120516101405160601c61415262000515600039600081816109470152611ed50152600061289f015260006128ee015260006128c9015260006128220152600061284c0152600061287601526141526000f3fe60806040526004361061023d5760003560e01c806301ffc9a71461026557806302a251a31461029a57806303420181146102bd57806306fdde03146102dd57806312065fe0146102ff578063150b7a0214610312578063160cbed714610356578063227588b5146103765780632656227d146103895780632d63f6931461039c5780632fe3e261146103bc5780633932abb1146103de5780633bccf4fd146103f35780633e4f49e614610413578063438596321461044057806345df67ce1461048a5780634bc66f32146104cd578063544ffc9c146104ed57806354fd4d5014610542578063567813881461056c5780635d9499721461058c5780635f398a14146105ac57806363b0e66a146105cc5780636a9bb000146105ec57806370b0f6601461061c5780637b3c71d31461063c5780637d5e81e21461065c5780638da5cb5b1461067c578063990dc9db1461069c5780639a802a6d146106af5780639c61248a146106cf5780639d76ea58146106e2578063a890c91014610702578063ab58fb8e14610722578063b58131b014610742578063b9a6196114610757578063bc197c811461076c578063c006b57f14610798578063c01f9e37146107ab578063c28bc2fa146107cb578063c59057e4146107eb578063d33219b41461080b578063dd4e2ba514610820578063deaaa7cc14610866578063ea0217cf14610888578063eb9019d4146108a8578063ece40cc1146108c8578063f23a6e61146108e8578063f8ce560a14610914578063fc0c546a1461093557600080fd5b36610260573061024b610969565b6001600160a01b03161461025e57600080fd5b005b600080fd5b34801561027157600080fd5b50610285610280366004613731565b610978565b60405190151581526020015b60405180910390f35b3480156102a657600080fd5b506102af610989565b604051908152602001610291565b3480156102c957600080fd5b506102af6102d8366004613926565b610994565b3480156102e957600080fd5b506102f2610a7a565b6040516102919190613bfe565b34801561030b57600080fd5b50476102af565b34801561031e57600080fd5b5061033d61032d36600461342d565b630a85bd0160e11b949350505050565b6040516001600160e01b03199091168152602001610291565b34801561036257600080fd5b506102af6103713660046135b3565b610b0c565b61025e6103843660046137e5565b610ef1565b6102af6103973660046135b3565b610fb1565b3480156103a857600080fd5b506102af6103b73660046137e5565b61119b565b3480156103c857600080fd5b506102af6000805160206140bd83398151915281565b3480156103ea57600080fd5b506102af6111d2565b3480156103ff57600080fd5b506102af61040e3660046139cc565b6111dd565b34801561041f57600080fd5b5061043361042e3660046137e5565b611241565b6040516102919190613bd6565b34801561044c57600080fd5b5061028561045b3660046137fe565b60008281526007602090815260408083206001600160a01b038516845260030190915290205460ff1692915050565b34801561049657600080fd5b506104c06104a53660046137e5565b6000908152600f60205260409020546001600160a01b031690565b6040516102919190613b31565b3480156104d957600080fd5b50600b546104c0906001600160a01b031681565b3480156104f957600080fd5b506105276105083660046137e5565b6000908152600760205260409020805460018201546002909201549092565b60408051938452602084019290925290820152606001610291565b34801561054e57600080fd5b506040805180820190915260018152603160f81b60208201526102f2565b34801561057857600080fd5b506102af610587366004613850565b61124c565b34801561059857600080fd5b5061025e6105a736600461382e565b611275565b3480156105b857600080fd5b506102af6105c73660046138bd565b6113a5565b3480156105d857600080fd5b50600d546104c0906001600160a01b031681565b3480156105f857600080fd5b506102af6106073660046137e5565b6000908152600f602052604090206001015490565b34801561062857600080fd5b5061025e6106373660046137e5565b6113ef565b34801561064857600080fd5b506102af61065736600461387c565b61147e565b34801561066857600080fd5b506102af610677366004613642565b6114d0565b34801561068857600080fd5b50600c546104c0906001600160a01b031681565b61025e6106aa366004613354565b6115ba565b3480156106bb57600080fd5b506102af6106ca36600461355b565b61164b565b6102af6106dd366004613850565b611662565b3480156106ee57600080fd5b50600a546104c0906001600160a01b031681565b34801561070e57600080fd5b5061025e61071d3660046137c8565b611736565b34801561072e57600080fd5b506102af61073d3660046137e5565b6117c2565b34801561074e57600080fd5b506102af6117ee565b34801561076357600080fd5b5061025e6117f9565b34801561077857600080fd5b5061033d610787366004613380565b63bc197c8160e01b95945050505050565b6102af6107a6366004613850565b611863565b3480156107b757600080fd5b506102af6107c63660046137e5565b611a13565b3480156107d757600080fd5b5061025e6107e6366004613500565b611a42565b3480156107f757600080fd5b506102af6108063660046135b3565b611b0e565b34801561081757600080fd5b506104c0611b48565b34801561082c57600080fd5b506040805180820190915260208082527f737570706f72743d627261766f2671756f72756d3d666f722c6162737461696e908201526102f2565b34801561087257600080fd5b506102af60008051602061409d83398151915281565b34801561089457600080fd5b5061025e6108a33660046137e5565b611b57565b3480156108b457600080fd5b506102af6108c3366004613354565b611be3565b3480156108d457600080fd5b5061025e6108e33660046137e5565b611c04565b3480156108f457600080fd5b5061033d610903366004613498565b63f23a6e6160e01b95945050505050565b34801561092057600080fd5b506102af61092f3660046137e5565b50600390565b34801561094157600080fd5b506104c07f000000000000000000000000000000000000000000000000000000000000000081565b6000610973611b48565b905090565b600061098382611c90565b92915050565b600061097360055490565b600080610a26610a1e6000805160206140bd8339815191528c8c8c8c6040516109be929190613b05565b60405180910390208b80519060200120604051602001610a03959493929190948552602085019390935260ff9190911660408401526060830152608082015260a00190565b60405160208183030381529060405280519060200120611cb5565b868686611d03565b9050610a6c8a828b8b8b8080601f0160208091040260200160405190810160405280939291908181526020018383808284376000920191909152508d9250611d21915050565b9a9950505050505050505050565b606060008054610a8990613fd9565b80601f0160208091040260200160405190810160405280929190818152602001828054610ab590613fd9565b8015610b025780601f10610ad757610100808354040283529160200191610b02565b820191906000526020600020905b815481529060010190602001808311610ae557829003601f168201915b5050505050905090565b600080610b1b86868686611b0e565b90506004610b2882611241565b6007811115610b3957610b39614045565b14610b955760405162461bcd60e51b815260206004820152602160248201527f476f7665726e6f723a2070726f706f73616c206e6f74207375636365737366756044820152601b60fa1b60648201526084015b60405180910390fd5b60085460408051630d48571f60e31b815290516000926001600160a01b031691636a42b8f8916004808301926020929190829003018186803b158015610bda57600080fd5b505afa158015610bee573d6000803e3d6000fd5b505050506040513d601f19601f82011682018060405250810190610c129190613718565b610c1c9042613f34565b9050610c3e610c2a82611e23565b600084815260096020526040902090611e8f565b60005b8751811015610ead5760085488516001600160a01b039091169063f2b06537908a9084908110610c7357610c7361405b565b6020026020010151898481518110610c8d57610c8d61405b565b6020026020010151898581518110610ca757610ca761405b565b602002602001015186604051602001610cc39493929190613b45565b604051602081830303815290604052805190602001206040518263ffffffff1660e01b8152600401610cf791815260200190565b60206040518083038186803b158015610d0f57600080fd5b505afa158015610d23573d6000803e3d6000fd5b505050506040513d601f19601f82011682018060405250810190610d4791906136f6565b15610dc55760405162461bcd60e51b815260206004820152604260248201527f476f7665726e6f7254696d656c6f636b436f6d706f756e643a206964656e746960448201527f63616c2070726f706f73616c20616374696f6e20616c72656164792071756575606482015261195960f21b608482015260a401610b8c565b60085488516001600160a01b0390911690633a66f901908a9084908110610dee57610dee61405b565b6020026020010151898481518110610e0857610e0861405b565b6020026020010151898581518110610e2257610e2261405b565b6020026020010151866040518563ffffffff1660e01b8152600401610e4a9493929190613b45565b602060405180830381600087803b158015610e6457600080fd5b505af1158015610e78573d6000803e3d6000fd5b505050506040513d601f19601f82011682018060405250810190610e9c9190613718565b50610ea681614014565b9050610c41565b507f9a2e42fd6722813d69113e7d0079d3d940171428df7373df9c7f7617cfda28928282604051610edf929190613e4a565b60405180910390a15095945050505050565b6000610f1533610f008461119b565b60405180602001604052806000815250611eac565b90506000610f238280613f77565b90506103e8811115610f3457506103e85b80341015610fac576040805162461bcd60e51b81526020600482015260248101919091527f51756164726174696320766f74696e673a20596f75206e656564206d6f72652060448201527f657468657220746f20636f76657220796f757220766f7465207765696768742e6064820152608401610b8c565b505050565b6000610fbb6117ee565b600a546040516370a0823160e01b81526001600160a01b03909116906370a0823190610feb903390600401613b31565b60206040518083038186803b15801561100357600080fd5b505afa158015611017573d6000803e3d6000fd5b505050506040513d601f19601f8201168201806040525081019061103b9190613718565b10156110595760405162461bcd60e51b8152600401610b8c90613d0a565b600061106786868686611b0e565b90506110733447613f34565b6000828152600f6020526040902060010154106110ee5760405162461bcd60e51b815260206004820152603360248201527f476f7665726e6f723a2062756467657420726571756573746564206578636565604482015272323990333ab732399030bb30b4b630b136329760691b6064820152608401610b8c565b600d54600b54604051633e37ce4760e01b8152600481018490526001600160a01b039182166024820152600160448201526000929190911690633e37ce4790606401602060405180830381600087803b15801561114a57600080fd5b505af115801561115e573d6000803e3d6000fd5b505050506040513d601f19601f820116820180604052508101906111829190613337565b90506111918288888888611f51565b5095945050505050565b60008181526001602090815260408083208151928301909152546001600160401b0316908190525b6001600160401b031692915050565b600061097360045490565b6040805160008051602061409d833981519152602082015290810186905260ff85166060820152600090819061121990610a1e90608001610a03565b9050611236878288604051806020016040528060008152506120df565b979650505050505050565b60006109838261210b565b60008033905061126d848285604051806020016040528060008152506120df565b949350505050565b6000828152600f60205260409020546001600160a01b031633146113015760405162461bcd60e51b815260206004820152603f60248201527f476f7665726e6f723a206f6e6c79207468652070726f706f7365722063616e2060448201527f7365742074686520627564676574206f66207468652070726f706f73616c2e006064820152608401610b8c565b600061130c83611241565b600781111561131d5761131d614045565b146113905760405162461bcd60e51b815260206004820152603e60248201527f476f7665726e6f723a2063616e6e6f74206368616e6765206275646765742e2060448201527f50726f706f73616c20766f746520616c726561647920737461727465642e00006064820152608401610b8c565b6000918252600f602052604090912060010155565b60008033905061123687828888888080601f0160208091040260200160405190810160405280939291908181526020018383808284376000920191909152508a9250611d21915050565b6113f7610969565b6001600160a01b0316336001600160a01b0316146114275760405162461bcd60e51b8152600401610b8c90613c11565b30611430610969565b6001600160a01b0316146114725760008036604051611450929190613b05565b604051809103902090505b8061146660026121fb565b146114705761145b565b505b61147b8161227e565b50565b6000803390506114c686828787878080601f0160208091040260200160405190810160405280939291908181526020018383808284376000920191909152506120df92505050565b9695505050505050565b60006114da6117ee565b600a546040516370a0823160e01b81526001600160a01b03909116906370a082319061150a903390600401613b31565b60206040518083038186803b15801561152257600080fd5b505afa158015611536573d6000803e3d6000fd5b505050506040513d601f19601f8201168201806040525081019061155a9190613718565b10156115785760405162461bcd60e51b8152600401610b8c90613d0a565b600061158d8686868680519060200120611b0e565b6000818152600f6020526040902080546001600160a01b03191633178155909150611236878787876122be565b600c546001600160a01b03163314806115dd5750600d546001600160a01b031633145b6116155760405162461bcd60e51b81526020600482015260096024820152682737ba1037bbb732b960b91b6044820152606401610b8c565b6040516001600160a01b0383169082156108fc029083906000818181858888f19350505050158015610fac573d6000803e3d6000fd5b6000611658848484611eac565b90505b9392505050565b600a546040516370a0823160e01b81526000916001916001600160a01b03909116906370a0823190611698903390600401613b31565b60206040518083038186803b1580156116b057600080fd5b505afa1580156116c4573d6000803e3d6000fd5b505050506040513d601f19601f820116820180604052508101906116e89190613718565b10156117065760405162461bcd60e51b8152600401610b8c90613c84565b600033905061126d8482856040518060200160405280600081525060405180602001604052806000815250612511565b61173e610969565b6001600160a01b0316336001600160a01b03161461176e5760405162461bcd60e51b8152600401610b8c90613c11565b30611777610969565b6001600160a01b0316146117b95760008036604051611797929190613b05565b604051809103902090505b806117ad60026121fb565b146117b7576117a2565b505b61147b816125dc565b60008181526009602090815260408083208151928301909152546001600160401b0316908190526111c3565b600061097360065490565b600860009054906101000a90046001600160a01b03166001600160a01b0316630e18b6816040518163ffffffff1660e01b8152600401600060405180830381600087803b15801561184957600080fd5b505af115801561185d573d6000803e3d6000fd5b50505050565b600a546040516370a0823160e01b81526000916001916001600160a01b03909116906370a0823190611899903390600401613b31565b60206040518083038186803b1580156118b157600080fd5b505afa1580156118c5573d6000803e3d6000fd5b505050506040513d601f19601f820116820180604052508101906118e99190613718565b10156119075760405162461bcd60e51b8152600401610b8c90613c84565b600061191633610f008661119b565b905060006119248280613f77565b90506000662386f26fc100006001841415611942576000915061194f565b61194c8184613f77565b91505b813410156119d75760405162461bcd60e51b815260206004820152604960248201527f596f75206e656564206d6f726520657468657220746f20766f7465207769746860448201527f20616c6c204e4654733a20636f7374203d20286e566f746573295e32202a20306064820152681718189032ba3432b960b91b608482015260a401610b8c565b6000339050611a078882896040518060200160405280600081525060405180602001604052806000815250612645565b98975050505050505050565b60008181526001602081815260408084208151928301909152909101546001600160401b0316908190526111c3565b611a4a610969565b6001600160a01b0316336001600160a01b031614611a7a5760405162461bcd60e51b8152600401610b8c90613c11565b30611a83610969565b6001600160a01b031614611ac55760008036604051611aa3929190613b05565b604051809103902090505b80611ab960026121fb565b14611ac357611aae565b505b611b078483838080601f0160208091040260200160405190810160405280939291908181526020018383808284376000920191909152508892506126a4915050565b5050505050565b600084848484604051602001611b279493929190613b8b565b60408051601f19818403018152919052805160209091012095945050505050565b6008546001600160a01b031690565b611b5f610969565b6001600160a01b0316336001600160a01b031614611b8f5760405162461bcd60e51b8152600401610b8c90613c11565b30611b98610969565b6001600160a01b031614611bda5760008036604051611bb8929190613b05565b604051809103902090505b80611bce60026121fb565b14611bd857611bc3565b505b61147b816126ca565b600061165b8383611bff60408051602081019091526000815290565b611eac565b611c0c610969565b6001600160a01b0316336001600160a01b031614611c3c5760405162461bcd60e51b8152600401610b8c90613c11565b30611c45610969565b6001600160a01b031614611c875760008036604051611c65929190613b05565b604051809103902090505b80611c7b60026121fb565b14611c8557611c70565b505b61147b8161276a565b60006001600160e01b03198216636e665ced60e01b14806109835750610983826127aa565b6000610983611cc2612815565b8360405161190160f01b6020820152602281018390526042810182905260009060620160405160208183030381529060405280519060200120905092915050565b6000806000611d148787878761293c565b9150915061119181612a1f565b6000858152600160208190526040822090611d3b88611241565b6007811115611d4c57611d4c614045565b14611d695760405162461bcd60e51b8152600401610b8c90613cc7565b604080516020810190915281546001600160401b031690819052600090611d9290889086611eac565b9050611da18888888488612bd5565b8351611de157866001600160a01b031660008051602061412683398151915289888489604051611dd49493929190613e58565b60405180910390a2611236565b866001600160a01b03166000805160206141068339815191528988848989604051611e10959493929190613e80565b60405180910390a2979650505050505050565b60006001600160401b03821115611e8b5760405162461bcd60e51b815260206004820152602660248201527f53616665436173743a2076616c756520646f65736e27742066697420696e203660448201526534206269747360d01b6064820152608401610b8c565b5090565b81546001600160401b0319166001600160401b0391909116179055565b604051630748d63560e31b81526001600160a01b038481166004830152602482018490526000917f000000000000000000000000000000000000000000000000000000000000000090911690633a46b1a89060440160206040518083038186803b158015611f1957600080fd5b505afa158015611f2d573d6000803e3d6000fd5b505050506040513d601f19601f820116820180604052508101906116589190613718565b6000611f5c866117c2565b905060008111611fc85760405162461bcd60e51b815260206004820152603160248201527f476f7665726e6f7254696d656c6f636b436f6d706f756e643a2070726f706f73604482015270185b081b9bdd081e595d081c5d595d5959607a1b6064820152608401610b8c565b600854611fde906001600160a01b031634612d5c565b60005b85518110156120d65760085486516001600160a01b0390911690630825f38f908890849081106120135761201361405b565b602002602001015187848151811061202d5761202d61405b565b60200260200101518785815181106120475761204761405b565b6020026020010151866040518563ffffffff1660e01b815260040161206f9493929190613b45565b600060405180830381600087803b15801561208957600080fd5b505af115801561209d573d6000803e3d6000fd5b505050506040513d6000823e601f3d908101601f191682016040526120c5919081019061375b565b506120cf81614014565b9050611fe1565b50505050505050565b6000612102858585856120fd60408051602081019091526000815290565b611d21565b95945050505050565b60008061211783612e72565b9050600481600781111561212d5761212d614045565b146121385792915050565b6000612143846117c2565b905080612151575092915050565b600860009054906101000a90046001600160a01b03166001600160a01b031663c1a287e26040518163ffffffff1660e01b815260040160206040518083038186803b15801561219f57600080fd5b505afa1580156121b3573d6000803e3d6000fd5b505050506040513d601f19601f820116820180604052508101906121d79190613718565b6121e19082613f34565b42106121f1575060069392505050565b5060059392505050565b600061221a8254600f81810b810b600160801b909204810b900b131590565b1561223857604051631ed9509560e11b815260040160405180910390fd5b508054600f90810b80820b820b600090815260018085016020526040822080549290558454920190920b6001600160801b03166001600160801b03199091161790915590565b7fc565b045403dc03c2eea82b81a0465edad9e2e7fc4d97e11421c209da93d7a93600454826040516122b1929190613e4a565b60405180910390a1600455565b60006122c86117ee565b6122d7336108c3600143613f96565b10156122f55760405162461bcd60e51b8152600401610b8c90613d0a565b600061230a8686868680519060200120611b0e565b9050845186511461232d5760405162461bcd60e51b8152600401610b8c90613c43565b835186511461234e5760405162461bcd60e51b8152600401610b8c90613c43565b600086511161239a5760405162461bcd60e51b815260206004820152601860248201527711dbdd995c9b9bdc8e88195b5c1d1e481c1c9bdc1bdcd85b60421b6044820152606401610b8c565b600081815260016020908152604091829020825191820190925281546001600160401b0316908190521561241a5760405162461bcd60e51b815260206004820152602160248201527f476f7665726e6f723a2070726f706f73616c20616c72656164792065786973746044820152607360f81b6064820152608401610b8c565b600061242c6124276111d2565b611e23565b61243543611e23565b61243f9190613f4c565b9050600061244e612427610989565b6124589083613f4c565b90506124648383611e8f565b6124716001840182611e8f565b7f7d84a6263ae0d98d3329bd7b46bb4e8d6f98cd35a7adb45c274c8b7fd5ebd5e084338b8b8d516001600160401b038111156124af576124af614071565b6040519080825280602002602001820160405280156124e257816020015b60608152602001906001900390816124cd5790505b508c88888e6040516124fc99989796959493929190613d5b565b60405180910390a15091979650505050505050565b6000600161251e87611241565b600781111561252f5761252f614045565b1461254c5760405162461bcd60e51b8152600401610b8c90613cc7565b600161255b8787878487612bd5565b825161259b57856001600160a01b03166000805160206141268339815191528887848860405161258e9493929190613e58565b60405180910390a26114c6565b856001600160a01b031660008051602061410683398151915288878488886040516125ca959493929190613e80565b60405180910390a29695505050505050565b600854604080516001600160a01b03928316815291831660208301527f08f74ea46ef7894f65eabfb5e6e695de773a000b47c529ab559178069b226401910160405180910390a1600880546001600160a01b0319166001600160a01b0392909216919091179055565b6000600161265287611241565b600781111561266357612663614045565b146126805760405162461bcd60e51b8152600401610b8c90613cc7565b60006126958661268f8961119b565b85611eac565b905061255b8787878487612bd5565b60606116588484846040518060600160405280602981526020016140dd60299139612f7e565b6000811161272a5760405162461bcd60e51b815260206004820152602760248201527f476f7665726e6f7253657474696e67733a20766f74696e6720706572696f6420604482015266746f6f206c6f7760c81b6064820152608401610b8c565b7f7e3f7f0708a84de9203036abaa450dccc85ad5ff52f78c170f3edb55cf5e88286005548260405161275d929190613e4a565b60405180910390a1600555565b7fccb45da8d5717e6c4544694297c4ba5cf151d455c9bb0ed4fc7a38411bc054616006548260405161279d929190613e4a565b60405180910390a1600655565b60006001600160e01b0319821663bf26d89760e01b14806127db57506001600160e01b031982166379dd796f60e01b145b806127f657506001600160e01b03198216630271189760e51b145b8061098357506301ffc9a760e01b6001600160e01b0319831614610983565b6000306001600160a01b037f00000000000000000000000000000000000000000000000000000000000000001614801561286e57507f000000000000000000000000000000000000000000000000000000000000000046145b1561289857507f000000000000000000000000000000000000000000000000000000000000000090565b50604080517f00000000000000000000000000000000000000000000000000000000000000006020808301919091527f0000000000000000000000000000000000000000000000000000000000000000828401527f000000000000000000000000000000000000000000000000000000000000000060608301524660808301523060a0808401919091528351808403909101815260c0909201909252805191012090565b6000806fa2a8918ca85bafe22016d0b997e4df60600160ff1b038311156129695750600090506003612a16565b8460ff16601b1415801561298157508460ff16601c14155b156129925750600090506004612a16565b6040805160008082526020820180845289905260ff881692820192909252606081018690526080810185905260019060a0016020604051602081039080840390855afa1580156129e6573d6000803e3d6000fd5b5050604051601f1901519150506001600160a01b038116612a0f57600060019250925050612a16565b9150600090505b94509492505050565b6000816004811115612a3357612a33614045565b1415612a3c5750565b6001816004811115612a5057612a50614045565b1415612a995760405162461bcd60e51b815260206004820152601860248201527745434453413a20696e76616c6964207369676e617475726560401b6044820152606401610b8c565b6002816004811115612aad57612aad614045565b1415612afb5760405162461bcd60e51b815260206004820152601f60248201527f45434453413a20696e76616c6964207369676e6174757265206c656e677468006044820152606401610b8c565b6003816004811115612b0f57612b0f614045565b1415612b685760405162461bcd60e51b815260206004820152602260248201527f45434453413a20696e76616c6964207369676e6174757265202773272076616c604482015261756560f01b6064820152608401610b8c565b6004816004811115612b7c57612b7c614045565b141561147b5760405162461bcd60e51b815260206004820152602260248201527f45434453413a20696e76616c6964207369676e6174757265202776272076616c604482015261756560f01b6064820152608401610b8c565b60008581526007602090815260408083206001600160a01b0388168452600381019092529091205460ff1615612c5d5760405162461bcd60e51b815260206004820152602760248201527f476f7665726e6f72566f74696e6753696d706c653a20766f746520616c726561604482015266191e4818d85cdd60ca1b6064820152608401610b8c565b6001600160a01b03851660009081526003820160205260408120805460ff1916600117905560ff168460ff161415612cae5782816000016000828254612ca39190613f34565b90915550612d549050565b60ff841660011415612cce5782816001016000828254612ca39190613f34565b60ff841660021415612cee5782816002016000828254612ca39190613f34565b60405162461bcd60e51b815260206004820152603560248201527f476f7665726e6f72566f74696e6753696d706c653a20696e76616c69642076616044820152746c756520666f7220656e756d20566f74655479706560581b6064820152608401610b8c565b505050505050565b80471015612dac5760405162461bcd60e51b815260206004820152601d60248201527f416464726573733a20696e73756666696369656e742062616c616e63650000006044820152606401610b8c565b6000826001600160a01b03168260405160006040518083038185875af1925050503d8060008114612df9576040519150601f19603f3d011682016040523d82523d6000602084013e612dfe565b606091505b5050905080610fac5760405162461bcd60e51b815260206004820152603a60248201527f416464726573733a20756e61626c6520746f2073656e642076616c75652c20726044820152791958da5c1a595b9d081b585e481a185d99481c995d995c9d195960321b6064820152608401610b8c565b6000818152600160205260408120600281015460ff1615612e965750600792915050565b6002810154610100900460ff1615612eb15750600292915050565b6000612ebc8461119b565b905080612f0b5760405162461bcd60e51b815260206004820152601d60248201527f476f7665726e6f723a20756e6b6e6f776e2070726f706f73616c2069640000006044820152606401610b8c565b438110612f1c575060009392505050565b6000612f2785611a13565b9050438110612f3b57506001949350505050565b612f44856130a4565b8015612f63575060008581526007602052604090208054600190910154115b15612f7357506004949350505050565b506003949350505050565b606082471015612fdf5760405162461bcd60e51b815260206004820152602660248201527f416464726573733a20696e73756666696369656e742062616c616e636520666f6044820152651c8818d85b1b60d21b6064820152608401610b8c565b6001600160a01b0385163b6130365760405162461bcd60e51b815260206004820152601d60248201527f416464726573733a2063616c6c20746f206e6f6e2d636f6e74726163740000006044820152606401610b8c565b600080866001600160a01b031685876040516130529190613b15565b60006040518083038185875af1925050503d806000811461308f576040519150601f19603f3d011682016040523d82523d6000602084013e613094565b606091505b50915091506112368282866130db565b6000818152600760205260408120600281015460018201546130c69190613f34565b6130d261092f8561119b565b11159392505050565b606083156130ea57508161165b565b8251156130fa5782518084602001fd5b8160405162461bcd60e51b8152600401610b8c9190613bfe565b600061312761312284613f0d565b613eba565b905082815283838301111561313b57600080fd5b828260208301376000602084830101529392505050565b600082601f83011261316357600080fd5b8135602061317361312283613eea565b80838252828201915082860187848660051b890101111561319357600080fd5b60005b858110156131bb5781356131a981614087565b84529284019290840190600101613196565b5090979650505050505050565b600082601f8301126131d957600080fd5b813560206131e961312283613eea565b80838252828201915082860187848660051b890101111561320957600080fd5b6000805b8681101561324b5782356001600160401b0381111561322a578283fd5b6132388b88838d0101613301565b865250938501939185019160010161320d565b509198975050505050505050565b600082601f83011261326a57600080fd5b8135602061327a61312283613eea565b80838252828201915082860187848660051b890101111561329a57600080fd5b60005b858110156131bb5781358452928401929084019060010161329d565b60008083601f8401126132cb57600080fd5b5081356001600160401b038111156132e257600080fd5b6020830191508360208285010111156132fa57600080fd5b9250929050565b600082601f83011261331257600080fd5b61165b83833560208501613114565b803560ff8116811461333257600080fd5b919050565b60006020828403121561334957600080fd5b815161165b81614087565b6000806040838503121561336757600080fd5b823561337281614087565b946020939093013593505050565b600080600080600060a0868803121561339857600080fd5b85356133a381614087565b945060208601356133b381614087565b935060408601356001600160401b03808211156133cf57600080fd5b6133db89838a01613259565b945060608801359150808211156133f157600080fd5b6133fd89838a01613259565b9350608088013591508082111561341357600080fd5b5061342088828901613301565b9150509295509295909350565b6000806000806080858703121561344357600080fd5b843561344e81614087565b9350602085013561345e81614087565b92506040850135915060608501356001600160401b0381111561348057600080fd5b61348c87828801613301565b91505092959194509250565b600080600080600060a086880312156134b057600080fd5b85356134bb81614087565b945060208601356134cb81614087565b9350604086013592506060860135915060808601356001600160401b038111156134f457600080fd5b61342088828901613301565b6000806000806060858703121561351657600080fd5b843561352181614087565b93506020850135925060408501356001600160401b0381111561354357600080fd5b61354f878288016132b9565b95989497509550505050565b60008060006060848603121561357057600080fd5b833561357b81614087565b92506020840135915060408401356001600160401b0381111561359d57600080fd5b6135a986828701613301565b9150509250925092565b600080600080608085870312156135c957600080fd5b84356001600160401b03808211156135e057600080fd5b6135ec88838901613152565b9550602087013591508082111561360257600080fd5b61360e88838901613259565b9450604087013591508082111561362457600080fd5b50613631878288016131c8565b949793965093946060013593505050565b6000806000806080858703121561365857600080fd5b84356001600160401b038082111561366f57600080fd5b61367b88838901613152565b9550602087013591508082111561369157600080fd5b61369d88838901613259565b945060408701359150808211156136b357600080fd5b6136bf888389016131c8565b935060608701359150808211156136d557600080fd5b508501601f810187136136e757600080fd5b61348c87823560208401613114565b60006020828403121561370857600080fd5b8151801515811461165b57600080fd5b60006020828403121561372a57600080fd5b5051919050565b60006020828403121561374357600080fd5b81356001600160e01b03198116811461165b57600080fd5b60006020828403121561376d57600080fd5b81516001600160401b0381111561378357600080fd5b8201601f8101841361379457600080fd5b80516137a261312282613f0d565b8181528560208385010111156137b757600080fd5b612102826020830160208601613fad565b6000602082840312156137da57600080fd5b813561165b81614087565b6000602082840312156137f757600080fd5b5035919050565b6000806040838503121561381157600080fd5b82359150602083013561382381614087565b809150509250929050565b6000806040838503121561384157600080fd5b50508035926020909101359150565b6000806040838503121561386357600080fd5b8235915061387360208401613321565b90509250929050565b6000806000806060858703121561389257600080fd5b843593506138a260208601613321565b925060408501356001600160401b0381111561354357600080fd5b6000806000806000608086880312156138d557600080fd5b853594506138e560208701613321565b935060408601356001600160401b038082111561390157600080fd5b61390d89838a016132b9565b9095509350606088013591508082111561341357600080fd5b60008060008060008060008060e0898b03121561394257600080fd5b8835975061395260208a01613321565b965060408901356001600160401b038082111561396e57600080fd5b61397a8c838d016132b9565b909850965060608b013591508082111561399357600080fd5b506139a08b828c01613301565b9450506139af60808a01613321565b925060a0890135915060c089013590509295985092959890939650565b600080600080600060a086880312156139e457600080fd5b853594506139f460208701613321565b9350613a0260408701613321565b94979396509394606081013594506080013592915050565b600081518084526020808501945080840160005b83811015613a535781516001600160a01b031687529582019590820190600101613a2e565b509495945050505050565b600082825180855260208086019550808260051b84010181860160005b848110156131bb57601f19868403018952613a97838351613ad9565b98840198925090830190600101613a7b565b600081518084526020808501945080840160005b83811015613a5357815187529582019590820190600101613abd565b60008151808452613af1816020860160208601613fad565b601f01601f19169290920160200192915050565b8183823760009101908152919050565b60008251613b27818460208701613fad565b9190910192915050565b6001600160a01b0391909116815260200190565b60018060a01b038516815283602082015260a06040820152600060a082015260c060608201526000613b7a60c0830185613ad9565b905082608083015295945050505050565b608081526000613b9e6080830187613a1a565b8281036020840152613bb08187613aa9565b90508281036040840152613bc48186613a5e565b91505082606083015295945050505050565b6020810160088310613bf857634e487b7160e01b600052602160045260246000fd5b91905290565b60208152600061165b6020830184613ad9565b602080825260189082015277476f7665726e6f723a206f6e6c79476f7665726e616e636560401b604082015260600190565b60208082526021908201527f476f7665726e6f723a20696e76616c69642070726f706f73616c206c656e67746040820152600d60fb1b606082015260800190565b60208082526023908201527f596f75206d757374206265206120746f6b656e20686f6c64657220746f20766f6040820152623a329760e91b606082015260800190565b60208082526023908201527f476f7665726e6f723a20766f7465206e6f742063757272656e746c792061637460408201526269766560e81b606082015260800190565b60208082526031908201527f476f7665726e6f723a2070726f706f73657220766f7465732062656c6f7720706040820152701c9bdc1bdcd85b081d1a1c995cda1bdb19607a1b606082015260800190565b60006101208b8352602060018060a01b038c1681850152816040850152613d848285018c613a1a565b91508382036060850152613d98828b613aa9565b915083820360808501528189518084528284019150828160051b850101838c0160005b83811015613de957601f19878403018552613dd7838351613ad9565b94860194925090850190600101613dbb565b505086810360a0880152613dfd818c613a5e565b945050505050613e1860c08401876001600160401b03169052565b6001600160401b03851660e0840152828103610100840152613e3a8185613ad9565b9c9b505050505050505050505050565b918252602082015260400190565b84815260ff841660208201528260408201526080606082015260006114c66080830184613ad9565b85815260ff8516602082015283604082015260a060608201526000613ea860a0830185613ad9565b8281036080840152611a078185613ad9565b604051601f8201601f191681016001600160401b0381118282101715613ee257613ee2614071565b604052919050565b60006001600160401b03821115613f0357613f03614071565b5060051b60200190565b60006001600160401b03821115613f2657613f26614071565b50601f01601f191660200190565b60008219821115613f4757613f4761402f565b500190565b60006001600160401b03828116848216808303821115613f6e57613f6e61402f565b01949350505050565b6000816000190483118215151615613f9157613f9161402f565b500290565b600082821015613fa857613fa861402f565b500390565b60005b83811015613fc8578181015183820152602001613fb0565b8381111561185d5750506000910152565b600181811c90821680613fed57607f821691505b6020821081141561400e57634e487b7160e01b600052602260045260246000fd5b50919050565b60006000198214156140285761402861402f565b5060010190565b634e487b7160e01b600052601160045260246000fd5b634e487b7160e01b600052602160045260246000fd5b634e487b7160e01b600052603260045260246000fd5b634e487b7160e01b600052604160045260246000fd5b6001600160a01b038116811461147b57600080fdfe150214d74d59b7d1e90c73fc22ef3d991dd0a76b046543d4d80ab92d2a50328fb3b3f3b703cd84ce352197dcff232b1b5d3cfb2025ce47cf04742d0651f1af88416464726573733a206c6f772d6c6576656c2063616c6c20776974682076616c7565206661696c6564e2babfbac5889a709b63bb7f598b324e08bc5a4fb9ec647fb3cbc9ec07eb8712b8e138887d0aa13bab447e82de9d5c1777041ecd21ca36ba824ff1e6c07ddda4a164736f6c6343000806000a",
  "linkReferences": {},
  "deployedLinkReferences": {}
}