{
  "_format": "hh-sol-artifact-1",
  "contractName": "MyGovernor",
  "sourceName": "contracts/MyGovernor.sol",
  "abi": [
    {
      "inputs": [
        {
          "internalType": "contract IVotes",
          "name": "_token",
          "type": "address"
        },
        {
          "internalType": "contract ICompoundTimelock",
          "name": "_timelock",
          "type": "address"
        }
      ],
      "stateMutability": "nonpayable",
      "type": "constructor"
    },
    {
      "inputs": [],
      "name": "Empty",
      "type": "error"
    },
    {
      "anonymous": false,
      "inputs": [
        {
          "indexed": false,
          "internalType": "uint256",
          "name": "proposalId",
          "type": "uint256"
        }
      ],
      "name": "ProposalCanceled",
      "type": "event"
    },
    {
      "anonymous": false,
      "inputs": [
        {
          "indexed": false,
          "internalType": "uint256",
          "name": "proposalId",
          "type": "uint256"
        },
        {
          "indexed": false,
          "internalType": "address",
          "name": "proposer",
          "type": "address"
        },
        {
          "indexed": false,
          "internalType": "address[]",
          "name": "targets",
          "type": "address[]"
        },
        {
          "indexed": false,
          "internalType": "uint256[]",
          "name": "values",
          "type": "uint256[]"
        },
        {
          "indexed": false,
          "internalType": "string[]",
          "name": "signatures",
          "type": "string[]"
        },
        {
          "indexed": false,
          "internalType": "bytes[]",
          "name": "calldatas",
          "type": "bytes[]"
        },
        {
          "indexed": false,
          "internalType": "uint256",
          "name": "startBlock",
          "type": "uint256"
        },
        {
          "indexed": false,
          "internalType": "uint256",
          "name": "endBlock",
          "type": "uint256"
        },
        {
          "indexed": false,
          "internalType": "string",
          "name": "description",
          "type": "string"
        }
      ],
      "name": "ProposalCreated",
      "type": "event"
    },
    {
      "anonymous": false,
      "inputs": [
        {
          "indexed": false,
          "internalType": "uint256",
          "name": "proposalId",
          "type": "uint256"
        }
      ],
      "name": "ProposalExecuted",
      "type": "event"
    },
    {
      "anonymous": false,
      "inputs": [
        {
          "indexed": false,
          "internalType": "uint256",
          "name": "proposalId",
          "type": "uint256"
        },
        {
          "indexed": false,
          "internalType": "uint256",
          "name": "eta",
          "type": "uint256"
        }
      ],
      "name": "ProposalQueued",
      "type": "event"
    },
    {
      "anonymous": false,
      "inputs": [
        {
          "indexed": false,
          "internalType": "uint256",
          "name": "oldProposalThreshold",
          "type": "uint256"
        },
        {
          "indexed": false,
          "internalType": "uint256",
          "name": "newProposalThreshold",
          "type": "uint256"
        }
      ],
      "name": "ProposalThresholdSet",
      "type": "event"
    },
    {
      "anonymous": false,
      "inputs": [
        {
          "indexed": false,
          "internalType": "address",
          "name": "oldTimelock",
          "type": "address"
        },
        {
          "indexed": false,
          "internalType": "address",
          "name": "newTimelock",
          "type": "address"
        }
      ],
      "name": "TimelockChange",
      "type": "event"
    },
    {
      "anonymous": false,
      "inputs": [
        {
          "indexed": true,
          "internalType": "address",
          "name": "voter",
          "type": "address"
        },
        {
          "indexed": false,
          "internalType": "uint256",
          "name": "proposalId",
          "type": "uint256"
        },
        {
          "indexed": false,
          "internalType": "uint8",
          "name": "support",
          "type": "uint8"
        },
        {
          "indexed": false,
          "internalType": "uint256",
          "name": "weight",
          "type": "uint256"
        },
        {
          "indexed": false,
          "internalType": "string",
          "name": "reason",
          "type": "string"
        }
      ],
      "name": "VoteCast",
      "type": "event"
    },
    {
      "anonymous": false,
      "inputs": [
        {
          "indexed": true,
          "internalType": "address",
          "name": "voter",
          "type": "address"
        },
        {
          "indexed": false,
          "internalType": "uint256",
          "name": "proposalId",
          "type": "uint256"
        },
        {
          "indexed": false,
          "internalType": "uint8",
          "name": "support",
          "type": "uint8"
        },
        {
          "indexed": false,
          "internalType": "uint256",
          "name": "weight",
          "type": "uint256"
        },
        {
          "indexed": false,
          "internalType": "string",
          "name": "reason",
          "type": "string"
        },
        {
          "indexed": false,
          "internalType": "bytes",
          "name": "params",
          "type": "bytes"
        }
      ],
      "name": "VoteCastWithParams",
      "type": "event"
    },
    {
      "anonymous": false,
      "inputs": [
        {
          "indexed": false,
          "internalType": "uint256",
          "name": "oldVotingDelay",
          "type": "uint256"
        },
        {
          "indexed": false,
          "internalType": "uint256",
          "name": "newVotingDelay",
          "type": "uint256"
        }
      ],
      "name": "VotingDelaySet",
      "type": "event"
    },
    {
      "anonymous": false,
      "inputs": [
        {
          "indexed": false,
          "internalType": "uint256",
          "name": "oldVotingPeriod",
          "type": "uint256"
        },
        {
          "indexed": false,
          "internalType": "uint256",
          "name": "newVotingPeriod",
          "type": "uint256"
        }
      ],
      "name": "VotingPeriodSet",
      "type": "event"
    },
    {
      "inputs": [],
      "name": "BALLOT_TYPEHASH",
      "outputs": [
        {
          "internalType": "bytes32",
          "name": "",
          "type": "bytes32"
        }
      ],
      "stateMutability": "view",
      "type": "function"
    },
    {
      "inputs": [],
      "name": "COUNTING_MODE",
      "outputs": [
        {
          "internalType": "string",
          "name": "",
          "type": "string"
        }
      ],
      "stateMutability": "pure",
      "type": "function"
    },
    {
      "inputs": [],
      "name": "EXTENDED_BALLOT_TYPEHASH",
      "outputs": [
        {
          "internalType": "bytes32",
          "name": "",
          "type": "bytes32"
        }
      ],
      "stateMutability": "view",
      "type": "function"
    },
    {
      "inputs": [],
      "name": "__acceptAdmin",
      "outputs": [],
      "stateMutability": "nonpayable",
      "type": "function"
    },
    {
      "inputs": [
        {
          "internalType": "uint256",
          "name": "proposalId",
          "type": "uint256"
        },
        {
          "internalType": "uint8",
          "name": "support",
          "type": "uint8"
        }
      ],
      "name": "castVote",
      "outputs": [
        {
          "internalType": "uint256",
          "name": "",
          "type": "uint256"
        }
      ],
      "stateMutability": "nonpayable",
      "type": "function"
    },
    {
      "inputs": [
        {
          "internalType": "uint256",
          "name": "proposalId",
          "type": "uint256"
        },
        {
          "internalType": "uint8",
          "name": "support",
          "type": "uint8"
        }
      ],
      "name": "castVoteAllIn",
      "outputs": [
        {
          "internalType": "uint256",
          "name": "",
          "type": "uint256"
        }
      ],
      "stateMutability": "payable",
      "type": "function"
    },
    {
      "inputs": [
        {
          "internalType": "uint256",
          "name": "proposalId",
          "type": "uint256"
        },
        {
          "internalType": "uint8",
          "name": "support",
          "type": "uint8"
        },
        {
          "internalType": "uint8",
          "name": "v",
          "type": "uint8"
        },
        {
          "internalType": "bytes32",
          "name": "r",
          "type": "bytes32"
        },
        {
          "internalType": "bytes32",
          "name": "s",
          "type": "bytes32"
        }
      ],
      "name": "castVoteBySig",
      "outputs": [
        {
          "internalType": "uint256",
          "name": "",
          "type": "uint256"
        }
      ],
      "stateMutability": "nonpayable",
      "type": "function"
    },
    {
      "inputs": [
        {
          "internalType": "uint256",
          "name": "proposalId",
          "type": "uint256"
        },
        {
          "internalType": "uint8",
          "name": "support",
          "type": "uint8"
        }
      ],
      "name": "castVoteSimple",
      "outputs": [
        {
          "internalType": "uint256",
          "name": "",
          "type": "uint256"
        }
      ],
      "stateMutability": "payable",
      "type": "function"
    },
    {
      "inputs": [
        {
          "internalType": "uint256",
          "name": "proposalId",
          "type": "uint256"
        },
        {
          "internalType": "uint8",
          "name": "support",
          "type": "uint8"
        },
        {
          "internalType": "string",
          "name": "reason",
          "type": "string"
        }
      ],
      "name": "castVoteWithReason",
      "outputs": [
        {
          "internalType": "uint256",
          "name": "",
          "type": "uint256"
        }
      ],
      "stateMutability": "nonpayable",
      "type": "function"
    },
    {
      "inputs": [
        {
          "internalType": "uint256",
          "name": "proposalId",
          "type": "uint256"
        },
        {
          "internalType": "uint8",
          "name": "support",
          "type": "uint8"
        },
        {
          "internalType": "string",
          "name": "reason",
          "type": "string"
        },
        {
          "internalType": "bytes",
          "name": "params",
          "type": "bytes"
        }
      ],
      "name": "castVoteWithReasonAndParams",
      "outputs": [
        {
          "internalType": "uint256",
          "name": "",
          "type": "uint256"
        }
      ],
      "stateMutability": "nonpayable",
      "type": "function"
    },
    {
      "inputs": [
        {
          "internalType": "uint256",
          "name": "proposalId",
          "type": "uint256"
        },
        {
          "internalType": "uint8",
          "name": "support",
          "type": "uint8"
        },
        {
          "internalType": "string",
          "name": "reason",
          "type": "string"
        },
        {
          "internalType": "bytes",
          "name": "params",
          "type": "bytes"
        },
        {
          "internalType": "uint8",
          "name": "v",
          "type": "uint8"
        },
        {
          "internalType": "bytes32",
          "name": "r",
          "type": "bytes32"
        },
        {
          "internalType": "bytes32",
          "name": "s",
          "type": "bytes32"
        }
      ],
      "name": "castVoteWithReasonAndParamsBySig",
      "outputs": [
        {
          "internalType": "uint256",
          "name": "",
          "type": "uint256"
        }
      ],
      "stateMutability": "nonpayable",
      "type": "function"
    },
    {
      "inputs": [
        {
          "internalType": "address[]",
          "name": "targets",
          "type": "address[]"
        },
        {
          "internalType": "uint256[]",
          "name": "values",
          "type": "uint256[]"
        },
        {
          "internalType": "bytes[]",
          "name": "calldatas",
          "type": "bytes[]"
        },
        {
          "internalType": "bytes32",
          "name": "descriptionHash",
          "type": "bytes32"
        }
      ],
      "name": "execute",
      "outputs": [
        {
          "internalType": "uint256",
          "name": "",
          "type": "uint256"
        }
      ],
      "stateMutability": "payable",
      "type": "function"
    },
    {
      "inputs": [],
      "name": "getBalance",
      "outputs": [
        {
          "internalType": "uint256",
          "name": "",
          "type": "uint256"
        }
      ],
      "stateMutability": "view",
      "type": "function"
    },
    {
      "inputs": [
        {
          "internalType": "address",
          "name": "account",
          "type": "address"
        },
        {
          "internalType": "uint256",
          "name": "blockNumber",
          "type": "uint256"
        }
      ],
      "name": "getVotes",
      "outputs": [
        {
          "internalType": "uint256",
          "name": "",
          "type": "uint256"
        }
      ],
      "stateMutability": "view",
      "type": "function"
    },
    {
      "inputs": [
        {
          "internalType": "address",
          "name": "account",
          "type": "address"
        },
        {
          "internalType": "uint256",
          "name": "blockNumber",
          "type": "uint256"
        },
        {
          "internalType": "bytes",
          "name": "params",
          "type": "bytes"
        }
      ],
      "name": "getVotesWithParams",
      "outputs": [
        {
          "internalType": "uint256",
          "name": "",
          "type": "uint256"
        }
      ],
      "stateMutability": "view",
      "type": "function"
    },
    {
      "inputs": [
        {
          "internalType": "uint256",
          "name": "proposalId",
          "type": "uint256"
        },
        {
          "internalType": "address",
          "name": "account",
          "type": "address"
        }
      ],
      "name": "hasVoted",
      "outputs": [
        {
          "internalType": "bool",
          "name": "",
          "type": "bool"
        }
      ],
      "stateMutability": "view",
      "type": "function"
    },
    {
      "inputs": [
        {
          "internalType": "address[]",
          "name": "targets",
          "type": "address[]"
        },
        {
          "internalType": "uint256[]",
          "name": "values",
          "type": "uint256[]"
        },
        {
          "internalType": "bytes[]",
          "name": "calldatas",
          "type": "bytes[]"
        },
        {
          "internalType": "bytes32",
          "name": "descriptionHash",
          "type": "bytes32"
        }
      ],
      "name": "hashProposal",
      "outputs": [
        {
          "internalType": "uint256",
          "name": "",
          "type": "uint256"
        }
      ],
      "stateMutability": "pure",
      "type": "function"
    },
    {
      "inputs": [],
      "name": "name",
      "outputs": [
        {
          "internalType": "string",
          "name": "",
          "type": "string"
        }
      ],
      "stateMutability": "view",
      "type": "function"
    },
    {
      "inputs": [
        {
          "internalType": "address",
          "name": "",
          "type": "address"
        },
        {
          "internalType": "address",
          "name": "",
          "type": "address"
        },
        {
          "internalType": "uint256[]",
          "name": "",
          "type": "uint256[]"
        },
        {
          "internalType": "uint256[]",
          "name": "",
          "type": "uint256[]"
        },
        {
          "internalType": "bytes",
          "name": "",
          "type": "bytes"
        }
      ],
      "name": "onERC1155BatchReceived",
      "outputs": [
        {
          "internalType": "bytes4",
          "name": "",
          "type": "bytes4"
        }
      ],
      "stateMutability": "nonpayable",
      "type": "function"
    },
    {
      "inputs": [
        {
          "internalType": "address",
          "name": "",
          "type": "address"
        },
        {
          "internalType": "address",
          "name": "",
          "type": "address"
        },
        {
          "internalType": "uint256",
          "name": "",
          "type": "uint256"
        },
        {
          "internalType": "uint256",
          "name": "",
          "type": "uint256"
        },
        {
          "internalType": "bytes",
          "name": "",
          "type": "bytes"
        }
      ],
      "name": "onERC1155Received",
      "outputs": [
        {
          "internalType": "bytes4",
          "name": "",
          "type": "bytes4"
        }
      ],
      "stateMutability": "nonpayable",
      "type": "function"
    },
    {
      "inputs": [
        {
          "internalType": "address",
          "name": "",
          "type": "address"
        },
        {
          "internalType": "address",
          "name": "",
          "type": "address"
        },
        {
          "internalType": "uint256",
          "name": "",
          "type": "uint256"
        },
        {
          "internalType": "bytes",
          "name": "",
          "type": "bytes"
        }
      ],
      "name": "onERC721Received",
      "outputs": [
        {
          "internalType": "bytes4",
          "name": "",
          "type": "bytes4"
        }
      ],
      "stateMutability": "nonpayable",
      "type": "function"
    },
    {
      "inputs": [],
      "name": "owner",
      "outputs": [
        {
          "internalType": "address",
          "name": "",
          "type": "address"
        }
      ],
      "stateMutability": "view",
      "type": "function"
    },
    {
      "inputs": [
        {
          "internalType": "uint256",
          "name": "proposalId",
          "type": "uint256"
        }
      ],
      "name": "proposalDeadline",
      "outputs": [
        {
          "internalType": "uint256",
          "name": "",
          "type": "uint256"
        }
      ],
      "stateMutability": "view",
      "type": "function"
    },
    {
      "inputs": [
        {
          "internalType": "uint256",
          "name": "proposalId",
          "type": "uint256"
        }
      ],
      "name": "proposalEta",
      "outputs": [
        {
          "internalType": "uint256",
          "name": "",
          "type": "uint256"
        }
      ],
      "stateMutability": "view",
      "type": "function"
    },
    {
      "inputs": [
        {
          "internalType": "uint256",
          "name": "proposalId",
          "type": "uint256"
        }
      ],
      "name": "proposalSnapshot",
      "outputs": [
        {
          "internalType": "uint256",
          "name": "",
          "type": "uint256"
        }
      ],
      "stateMutability": "view",
      "type": "function"
    },
    {
      "inputs": [],
      "name": "proposalThreshold",
      "outputs": [
        {
          "internalType": "uint256",
          "name": "",
          "type": "uint256"
        }
      ],
      "stateMutability": "view",
      "type": "function"
    },
    {
      "inputs": [
        {
          "internalType": "uint256",
          "name": "proposalId",
          "type": "uint256"
        }
      ],
      "name": "proposalVotes",
      "outputs": [
        {
          "internalType": "uint256",
          "name": "againstVotes",
          "type": "uint256"
        },
        {
          "internalType": "uint256",
          "name": "forVotes",
          "type": "uint256"
        },
        {
          "internalType": "uint256",
          "name": "abstainVotes",
          "type": "uint256"
        }
      ],
      "stateMutability": "view",
      "type": "function"
    },
    {
      "inputs": [
        {
          "internalType": "address[]",
          "name": "targets",
          "type": "address[]"
        },
        {
          "internalType": "uint256[]",
          "name": "values",
          "type": "uint256[]"
        },
        {
          "internalType": "bytes[]",
          "name": "calldatas",
          "type": "bytes[]"
        },
        {
          "internalType": "string",
          "name": "description",
          "type": "string"
        }
      ],
      "name": "propose",
      "outputs": [
        {
          "internalType": "uint256",
          "name": "",
          "type": "uint256"
        }
      ],
      "stateMutability": "nonpayable",
      "type": "function"
    },
    {
      "inputs": [
        {
          "internalType": "uint256",
          "name": "proposalId",
          "type": "uint256"
        }
      ],
      "name": "quadraticVoting",
      "outputs": [],
      "stateMutability": "payable",
      "type": "function"
    },
    {
      "inputs": [
        {
          "internalType": "address[]",
          "name": "targets",
          "type": "address[]"
        },
        {
          "internalType": "uint256[]",
          "name": "values",
          "type": "uint256[]"
        },
        {
          "internalType": "bytes[]",
          "name": "calldatas",
          "type": "bytes[]"
        },
        {
          "internalType": "bytes32",
          "name": "descriptionHash",
          "type": "bytes32"
        }
      ],
      "name": "queue",
      "outputs": [
        {
          "internalType": "uint256",
          "name": "",
          "type": "uint256"
        }
      ],
      "stateMutability": "nonpayable",
      "type": "function"
    },
    {
      "inputs": [
        {
          "internalType": "uint256",
          "name": "blockNumber",
          "type": "uint256"
        }
      ],
      "name": "quorum",
      "outputs": [
        {
          "internalType": "uint256",
          "name": "",
          "type": "uint256"
        }
      ],
      "stateMutability": "pure",
      "type": "function"
    },
    {
      "inputs": [
        {
          "internalType": "address",
          "name": "target",
          "type": "address"
        },
        {
          "internalType": "uint256",
          "name": "value",
          "type": "uint256"
        },
        {
          "internalType": "bytes",
          "name": "data",
          "type": "bytes"
        }
      ],
      "name": "relay",
      "outputs": [],
      "stateMutability": "nonpayable",
      "type": "function"
    },
    {
      "inputs": [
        {
          "internalType": "uint256",
          "name": "newProposalThreshold",
          "type": "uint256"
        }
      ],
      "name": "setProposalThreshold",
      "outputs": [],
      "stateMutability": "nonpayable",
      "type": "function"
    },
    {
      "inputs": [
        {
          "internalType": "uint256",
          "name": "newVotingDelay",
          "type": "uint256"
        }
      ],
      "name": "setVotingDelay",
      "outputs": [],
      "stateMutability": "nonpayable",
      "type": "function"
    },
    {
      "inputs": [
        {
          "internalType": "uint256",
          "name": "newVotingPeriod",
          "type": "uint256"
        }
      ],
      "name": "setVotingPeriod",
      "outputs": [],
      "stateMutability": "nonpayable",
      "type": "function"
    },
    {
      "inputs": [
        {
          "internalType": "uint256",
          "name": "proposalId",
          "type": "uint256"
        }
      ],
      "name": "state",
      "outputs": [
        {
          "internalType": "enum IGovernor.ProposalState",
          "name": "",
          "type": "uint8"
        }
      ],
      "stateMutability": "view",
      "type": "function"
    },
    {
      "inputs": [
        {
          "internalType": "bytes4",
          "name": "interfaceId",
          "type": "bytes4"
        }
      ],
      "name": "supportsInterface",
      "outputs": [
        {
          "internalType": "bool",
          "name": "",
          "type": "bool"
        }
      ],
      "stateMutability": "view",
      "type": "function"
    },
    {
      "inputs": [],
      "name": "timelock",
      "outputs": [
        {
          "internalType": "address",
          "name": "",
          "type": "address"
        }
      ],
      "stateMutability": "view",
      "type": "function"
    },
    {
      "inputs": [],
      "name": "token",
      "outputs": [
        {
          "internalType": "contract IVotes",
          "name": "",
          "type": "address"
        }
      ],
      "stateMutability": "view",
      "type": "function"
    },
    {
      "inputs": [],
      "name": "tokenContract",
      "outputs": [
        {
          "internalType": "contract MyNftToken",
          "name": "",
          "type": "address"
        }
      ],
      "stateMutability": "view",
      "type": "function"
    },
    {
      "inputs": [
        {
          "internalType": "address payable",
          "name": "_receiver",
          "type": "address"
        },
        {
          "internalType": "uint256",
          "name": "amount",
          "type": "uint256"
        }
      ],
      "name": "transferFunds",
      "outputs": [],
      "stateMutability": "payable",
      "type": "function"
    },
    {
      "inputs": [
        {
          "internalType": "contract ICompoundTimelock",
          "name": "newTimelock",
          "type": "address"
        }
      ],
      "name": "updateTimelock",
      "outputs": [],
      "stateMutability": "nonpayable",
      "type": "function"
    },
    {
      "inputs": [],
      "name": "version",
      "outputs": [
        {
          "internalType": "string",
          "name": "",
          "type": "string"
        }
      ],
      "stateMutability": "view",
      "type": "function"
    },
    {
      "inputs": [],
      "name": "votingDelay",
      "outputs": [
        {
          "internalType": "uint256",
          "name": "",
          "type": "uint256"
        }
      ],
      "stateMutability": "view",
      "type": "function"
    },
    {
      "inputs": [],
      "name": "votingPeriod",
      "outputs": [
        {
          "internalType": "uint256",
          "name": "",
          "type": "uint256"
        }
      ],
      "stateMutability": "view",
      "type": "function"
    },
    {
      "stateMutability": "payable",
      "type": "receive"
    }
  ],
  "bytecode": "0x6101606040523480156200001257600080fd5b5060405162004814380380620048148339810160408190526200003591620003f2565b80826001601460026040518060400160405280600a81526020016926bca3b7bb32b93737b960b11b8152508062000071620001a060201b60201c565b815160208084019190912082518383012060e08290526101008190524660a0818152604080517f8b73c3c69bb8fe3d512ecc4cf759cc79239f7b179b0ffacaa9a75d522b39400f81880181905281830187905260608201869052608082019490945230818401528151808203909301835260c00190528051940193909320919290916080523060601b60c05261012052505082516200011a92506000915060208401906200034c565b5062000128905083620001bb565b6200013382620001fc565b6200013e81620002a2565b50505060601b6001600160601b031916610140526200015d81620002e3565b50600a80546001600160a01b039384166001600160a01b031991821617909155600b80549290931691811691909117909155600c80549091163317905562000487565b6040805180820190915260018152603160f81b602082015290565b60045460408051918252602082018390527fc565b045403dc03c2eea82b81a0465edad9e2e7fc4d97e11421c209da93d7a93910160405180910390a1600455565b60008111620002615760405162461bcd60e51b815260206004820152602760248201527f476f7665726e6f7253657474696e67733a20766f74696e6720706572696f6420604482015266746f6f206c6f7760c81b606482015260840160405180910390fd5b60055460408051918252602082018390527f7e3f7f0708a84de9203036abaa450dccc85ad5ff52f78c170f3edb55cf5e8828910160405180910390a1600555565b60065460408051918252602082018390527fccb45da8d5717e6c4544694297c4ba5cf151d455c9bb0ed4fc7a38411bc05461910160405180910390a1600655565b600854604080516001600160a01b03928316815291831660208301527f08f74ea46ef7894f65eabfb5e6e695de773a000b47c529ab559178069b226401910160405180910390a1600880546001600160a01b0319166001600160a01b0392909216919091179055565b8280546200035a9062000431565b90600052602060002090601f0160209004810192826200037e5760008555620003c9565b82601f106200039957805160ff1916838001178555620003c9565b82800160010185558215620003c9579182015b82811115620003c9578251825591602001919060010190620003ac565b50620003d7929150620003db565b5090565b5b80821115620003d75760008155600101620003dc565b600080604083850312156200040657600080fd5b825162000413816200046e565b602084015190925062000426816200046e565b809150509250929050565b600181811c908216806200044657607f821691505b602082108114156200046857634e487b7160e01b600052602260045260246000fd5b50919050565b6001600160a01b03811681146200048457600080fd5b50565b60805160a05160c05160601c60e05161010051610120516101405160601c614325620004ef600039600081816109720152611f7001526000612a6001526000612aaf01526000612a8a015260006129e301526000612a0d01526000612a3701526143256000f3fe6080604052600436106102f65760003560e01c80637d5e81e21161018f578063c01f9e37116100e1578063ea0217cf1161008a578063f23a6e6111610064578063f23a6e6114610913578063f8ce560a1461093f578063fc0c546a1461096057600080fd5b8063ea0217cf146108b3578063eb9019d4146108d3578063ece40cc1146108f357600080fd5b8063d33219b4116100bb578063d33219b41461081b578063dd4e2ba514610839578063deaaa7cc1461087f57600080fd5b8063c01f9e37146107bb578063c28bc2fa146107db578063c59057e4146107fb57600080fd5b8063a890c91011610143578063b9a619611161011d578063b9a6196114610767578063bc197c811461077c578063c006b57f146107a857600080fd5b8063a890c91014610712578063ab58fb8e14610732578063b58131b01461075257600080fd5b8063990dc9db11610174578063990dc9db146106cc5780639a802a6d146106df5780639c61248a146106ff57600080fd5b80637d5e81e21461068c5780638da5cb5b146106ac57600080fd5b80633932abb11161024857806354fd4d50116101fc5780635f398a14116101d65780635f398a141461062c57806370b0f6601461064c5780637b3c71d31461066c57600080fd5b806354fd4d50146105aa57806355a373d6146105d4578063567813881461060c57600080fd5b80633e4f49e61161022d5780633e4f49e6146104de578063438596321461050b578063544ffc9c1461055557600080fd5b80633932abb1146104a95780633bccf4fd146104be57600080fd5b8063150b7a02116102aa5780632656227d116102845780632656227d146104425780632d63f693146104555780632fe3e2611461047557600080fd5b8063150b7a02146103cb578063160cbed71461040f578063227588b51461042f57600080fd5b806303420181116102db578063034201811461037657806306fdde031461039657806312065fe0146103b857600080fd5b806301ffc9a71461031e57806302a251a31461035357600080fd5b366103195730610304610994565b6001600160a01b03161461031757600080fd5b005b600080fd5b34801561032a57600080fd5b5061033e610339366004613b06565b6109ad565b60405190151581526020015b60405180910390f35b34801561035f57600080fd5b506103686109be565b60405190815260200161034a565b34801561038257600080fd5b50610368610391366004613cdc565b6109c9565b3480156103a257600080fd5b506103ab610ac1565b60405161034a9190613fa2565b3480156103c457600080fd5b5047610368565b3480156103d757600080fd5b506103f66103e63660046137fc565b630a85bd0160e11b949350505050565b6040516001600160e01b0319909116815260200161034a565b34801561041b57600080fd5b5061036861042a366004613986565b610b53565b61031761043d366004613bbb565b610f52565b610368610450366004613986565b611012565b34801561046157600080fd5b50610368610470366004613bbb565b611139565b34801561048157600080fd5b506103687fb3b3f3b703cd84ce352197dcff232b1b5d3cfb2025ce47cf04742d0651f1af8881565b3480156104b557600080fd5b50610368611172565b3480156104ca57600080fd5b506103686104d9366004613d83565b61117d565b3480156104ea57600080fd5b506104fe6104f9366004613bbb565b6111f3565b60405161034a9190613f7a565b34801561051757600080fd5b5061033e610526366004613bd4565b60008281526007602090815260408083206001600160a01b038516845260030190915290205460ff1692915050565b34801561056157600080fd5b5061058f610570366004613bbb565b6000908152600760205260409020805460018201546002909201549092565b6040805193845260208401929092529082015260600161034a565b3480156105b657600080fd5b506040805180820190915260018152603160f81b60208201526103ab565b3480156105e057600080fd5b50600a546105f4906001600160a01b031681565b6040516001600160a01b03909116815260200161034a565b34801561061857600080fd5b50610368610627366004613c04565b6111fe565b34801561063857600080fd5b50610368610647366004613c72565b611311565b34801561065857600080fd5b50610317610667366004613bbb565b61135b565b34801561067857600080fd5b50610368610687366004613c30565b611415565b34801561069857600080fd5b506103686106a7366004613a16565b611467565b3480156106b857600080fd5b50600c546105f4906001600160a01b031681565b6103176106da366004613722565b6114d9565b3480156106eb57600080fd5b506103686106fa36600461392d565b611569565b61036861070d366004613c04565b611580565b34801561071e57600080fd5b5061031761072d366004613b9e565b61168b565b34801561073e57600080fd5b5061036861074d366004613bbb565b611742565b34801561075e57600080fd5b5061036861176f565b34801561077357600080fd5b5061031761177a565b34801561078857600080fd5b506103f661079736600461374e565b63bc197c8160e01b95945050505050565b6103686107b6366004613c04565b6117e4565b3480156107c757600080fd5b506103686107d6366004613bbb565b6119df565b3480156107e757600080fd5b506103176107f63660046138d1565b611a0f565b34801561080757600080fd5b50610368610816366004613986565b611b06565b34801561082757600080fd5b506008546001600160a01b03166105f4565b34801561084557600080fd5b506040805180820190915260208082527f737570706f72743d627261766f2671756f72756d3d666f722c6162737461696e908201526103ab565b34801561088b57600080fd5b506103687f150214d74d59b7d1e90c73fc22ef3d991dd0a76b046543d4d80ab92d2a50328f81565b3480156108bf57600080fd5b506103176108ce366004613bbb565b611b40565b3480156108df57600080fd5b506103686108ee366004613722565b611bf7565b3480156108ff57600080fd5b5061031761090e366004613bbb565b611c18565b34801561091f57600080fd5b506103f661092e366004613868565b63f23a6e6160e01b95945050505050565b34801561094b57600080fd5b5061036861095a366004613bbb565b50600390565b34801561096c57600080fd5b506105f47f000000000000000000000000000000000000000000000000000000000000000081565b60006109a86008546001600160a01b031690565b905090565b60006109b882611ccf565b92915050565b60006109a860055490565b600080610a6d610a657fb3b3f3b703cd84ce352197dcff232b1b5d3cfb2025ce47cf04742d0651f1af888c8c8c8c604051610a05929190613ebc565b60405180910390208b80519060200120604051602001610a4a959493929190948552602085019390935260ff9190911660408401526060830152608082015260a00190565b60405160208183030381529060405280519060200120611cf4565b868686611d42565b9050610ab38a828b8b8b8080601f0160208091040260200160405190810160405280939291908181526020018383808284376000920191909152508d9250611d60915050565b9a9950505050505050505050565b606060008054610ad09061422c565b80601f0160208091040260200160405190810160405280929190818152602001828054610afc9061422c565b8015610b495780601f10610b1e57610100808354040283529160200191610b49565b820191906000526020600020905b815481529060010190602001808311610b2c57829003601f168201915b5050505050905090565b600080610b6286868686611b06565b90506004610b6f826111f3565b6007811115610b8057610b80614298565b14610bdc5760405162461bcd60e51b815260206004820152602160248201527f476f7665726e6f723a2070726f706f73616c206e6f74207375636365737366756044820152601b60fa1b60648201526084015b60405180910390fd5b60085460408051630d48571f60e31b815290516000926001600160a01b031691636a42b8f8916004808301926020929190829003018186803b158015610c2157600080fd5b505afa158015610c35573d6000803e3d6000fd5b505050506040513d601f19601f82011682018060405250810190610c599190613aed565b610c639042614186565b9050610c9f610c7182611ec3565b600084815260096020526040902090815467ffffffffffffffff191667ffffffffffffffff91909116179055565b60005b8751811015610f0e5760085488516001600160a01b039091169063f2b06537908a9084908110610cd457610cd46142ae565b6020026020010151898481518110610cee57610cee6142ae565b6020026020010151898581518110610d0857610d086142ae565b602002602001015186604051602001610d249493929190613ee8565b604051602081830303815290604052805190602001206040518263ffffffff1660e01b8152600401610d5891815260200190565b60206040518083038186803b158015610d7057600080fd5b505afa158015610d84573d6000803e3d6000fd5b505050506040513d601f19601f82011682018060405250810190610da89190613acb565b15610e265760405162461bcd60e51b815260206004820152604260248201527f476f7665726e6f7254696d656c6f636b436f6d706f756e643a206964656e746960448201527f63616c2070726f706f73616c20616374696f6e20616c72656164792071756575606482015261195960f21b608482015260a401610bd3565b60085488516001600160a01b0390911690633a66f901908a9084908110610e4f57610e4f6142ae565b6020026020010151898481518110610e6957610e696142ae565b6020026020010151898581518110610e8357610e836142ae565b6020026020010151866040518563ffffffff1660e01b8152600401610eab9493929190613ee8565b602060405180830381600087803b158015610ec557600080fd5b505af1158015610ed9573d6000803e3d6000fd5b505050506040513d601f19601f82011682018060405250810190610efd9190613aed565b50610f0781614267565b9050610ca2565b5060408051838152602081018390527f9a2e42fd6722813d69113e7d0079d3d940171428df7373df9c7f7617cfda2892910160405180910390a15095945050505050565b6000610f7633610f6184611139565b60405180602001604052806000815250611f47565b90506000610f8482806141ca565b90506103e8811115610f9557506103e85b8034101561100d576040805162461bcd60e51b81526020600482015260248101919091527f51756164726174696320766f74696e673a20596f75206e656564206d6f72652060448201527f657468657220746f20636f76657220796f757220766f7465207765696768742e6064820152608401610bd3565b505050565b60008061102186868686611b06565b9050600061102e826111f3565b9050600481600781111561104457611044614298565b14806110615750600581600781111561105f5761105f614298565b145b6110b75760405162461bcd60e51b815260206004820152602160248201527f476f7665726e6f723a2070726f706f73616c206e6f74207375636365737366756044820152601b60fa1b6064820152608401610bd3565b600082815260016020818152604092839020600201805460ff191690921790915590518381527f712ae1383f79ac853f8d882153778e0260ef8f03b504e2866e0593e04d2b291f910160405180910390a16111158288888888611fec565b611122828888888861208e565b61112f828888888861209b565b5095945050505050565b600081815260016020908152604080832081519283019091525467ffffffffffffffff16908190525b67ffffffffffffffff1692915050565b60006109a860045490565b604080517f150214d74d59b7d1e90c73fc22ef3d991dd0a76b046543d4d80ab92d2a50328f602082015290810186905260ff8516606082015260009081906111cb90610a6590608001610a4a565b90506111e8878288604051806020016040528060008152506120d8565b979650505050505050565b60006109b882612104565b600a546040516370a0823160e01b81523360048201526000916001916001600160a01b03909116906370a082319060240160206040518083038186803b15801561124757600080fd5b505afa15801561125b573d6000803e3d6000fd5b505050506040513d601f19601f8201168201806040525081019061127f9190613aed565b10156112d95760405162461bcd60e51b815260206004820152602360248201527f596f75206d757374206265206120746f6b656e20686f6c64657220746f20766f6044820152623a329760e91b6064820152608401610bd3565b60003390506113098482856040518060200160405280600081525060405180602001604052806000815250611d60565b949350505050565b6000803390506111e887828888888080601f0160208091040260200160405190810160405280939291908181526020018383808284376000920191909152508a9250611d60915050565b611363610994565b6001600160a01b0316336001600160a01b0316146113be5760405162461bcd60e51b8152602060048201526018602482015277476f7665726e6f723a206f6e6c79476f7665726e616e636560401b6044820152606401610bd3565b306113c7610994565b6001600160a01b03161461140957600080366040516113e7929190613ebc565b604051809103902090505b806113fd60026121f4565b14611407576113f2565b505b61141281612289565b50565b60008033905061145d86828787878080601f0160208091040260200160405190810160405280939291908181526020018383808284376000920191909152506120d892505050565b9695505050505050565b60008061147d8686868680519060200120611b06565b6000818152600e60205260408120805473ffffffffffffffffffffffffffffffffffffffff1916331781558751929350918791906114bd576114bd6142ae565b602002602001015181600101819055506111e8878787876122ca565b600c546001600160a01b031633146115335760405162461bcd60e51b815260206004820152600960248201527f4e6f74206f776e657200000000000000000000000000000000000000000000006044820152606401610bd3565b6040516001600160a01b0383169082156108fc029083906000818181858888f1935050505015801561100d573d6000803e3d6000fd5b6000611576848484611f47565b90505b9392505050565b600a546040516370a0823160e01b81523360048201526000916001916001600160a01b03909116906370a082319060240160206040518083038186803b1580156115c957600080fd5b505afa1580156115dd573d6000803e3d6000fd5b505050506040513d601f19601f820116820180604052508101906116019190613aed565b101561165b5760405162461bcd60e51b815260206004820152602360248201527f596f75206d757374206265206120746f6b656e20686f6c64657220746f20766f6044820152623a329760e91b6064820152608401610bd3565b60003390506113098482856040518060200160405280600081525060405180602001604052806000815250612611565b611693610994565b6001600160a01b0316336001600160a01b0316146116ee5760405162461bcd60e51b8152602060048201526018602482015277476f7665726e6f723a206f6e6c79476f7665726e616e636560401b6044820152606401610bd3565b306116f7610994565b6001600160a01b0316146117395760008036604051611717929190613ebc565b604051809103902090505b8061172d60026121f4565b1461173757611722565b505b6114128161273c565b600081815260096020908152604080832081519283019091525467ffffffffffffffff1690819052611162565b60006109a860065490565b600860009054906101000a90046001600160a01b03166001600160a01b0316630e18b6816040518163ffffffff1660e01b8152600401600060405180830381600087803b1580156117ca57600080fd5b505af11580156117de573d6000803e3d6000fd5b50505050565b600a546040516370a0823160e01b81523360048201526000916001916001600160a01b03909116906370a082319060240160206040518083038186803b15801561182d57600080fd5b505afa158015611841573d6000803e3d6000fd5b505050506040513d601f19601f820116820180604052508101906118659190613aed565b10156118bf5760405162461bcd60e51b815260206004820152602360248201527f596f75206d757374206265206120746f6b656e20686f6c64657220746f20766f6044820152623a329760e91b6064820152608401610bd3565b60006118ce33610f6186611139565b905060006118dc82806141ca565b90506000662386f26fc1000060018414156118fa5760009150611907565b61190481846141ca565b91505b813410156119a35760405162461bcd60e51b815260206004820152605b60248201527f596f75206e65656420746f20737570706c79206d6f726520657468657220746f60448201527f20766f7465207769746820616c6c20796f757220746f6b656e732e20436f737460648201527f20697320286e566f746573295e32202a20302e30312065746865720000000000608482015260a401610bd3565b60003390506119d388828960405180602001604052806000815250604051806020016040528060008152506127b2565b98975050505050505050565b600081815260016020818152604080842081519283019091529091015467ffffffffffffffff1690819052611162565b611a17610994565b6001600160a01b0316336001600160a01b031614611a725760405162461bcd60e51b8152602060048201526018602482015277476f7665726e6f723a206f6e6c79476f7665726e616e636560401b6044820152606401610bd3565b30611a7b610994565b6001600160a01b031614611abd5760008036604051611a9b929190613ebc565b604051809103902090505b80611ab160026121f4565b14611abb57611aa6565b505b611aff8483838080601f01602080910402602001604051908101604052809392919081815260200183838082843760009201919091525088925061284d915050565b5050505050565b600084848484604051602001611b1f9493929190613f2f565b60408051601f19818403018152919052805160209091012095945050505050565b611b48610994565b6001600160a01b0316336001600160a01b031614611ba35760405162461bcd60e51b8152602060048201526018602482015277476f7665726e6f723a206f6e6c79476f7665726e616e636560401b6044820152606401610bd3565b30611bac610994565b6001600160a01b031614611bee5760008036604051611bcc929190613ebc565b604051809103902090505b80611be260026121f4565b14611bec57611bd7565b505b61141281612873565b60006115798383611c1360408051602081019091526000815290565b611f47565b611c20610994565b6001600160a01b0316336001600160a01b031614611c7b5760405162461bcd60e51b8152602060048201526018602482015277476f7665726e6f723a206f6e6c79476f7665726e616e636560401b6044820152606401610bd3565b30611c84610994565b6001600160a01b031614611cc65760008036604051611ca4929190613ebc565b604051809103902090505b80611cba60026121f4565b14611cc457611caf565b505b6114128161292a565b60006001600160e01b03198216636e665ced60e01b14806109b857506109b88261296b565b60006109b8611d016129d6565b8360405161190160f01b6020820152602281018390526042810182905260009060620160405160208183030381529060405280519060200120905092915050565b6000806000611d5387878787612afd565b9150915061112f81612bea565b6000858152600160208190526040822090611d7a886111f3565b6007811115611d8b57611d8b614298565b14611de45760405162461bcd60e51b815260206004820152602360248201527f476f7665726e6f723a20766f7465206e6f742063757272656e746c792061637460448201526269766560e81b6064820152608401610bd3565b6040805160208101909152815467ffffffffffffffff1690819052600090611e0e90889086611f47565b9050611e1d8888888488612da5565b8351611e6f57866001600160a01b03167fb8e138887d0aa13bab447e82de9d5c1777041ecd21ca36ba824ff1e6c07ddda489888489604051611e6294939291906140a7565b60405180910390a26111e8565b866001600160a01b03167fe2babfbac5889a709b63bb7f598b324e08bc5a4fb9ec647fb3cbc9ec07eb87128988848989604051611eb09594939291906140cf565b60405180910390a2979650505050505050565b600067ffffffffffffffff821115611f435760405162461bcd60e51b815260206004820152602660248201527f53616665436173743a2076616c756520646f65736e27742066697420696e203660448201527f34206269747300000000000000000000000000000000000000000000000000006064820152608401610bd3565b5090565b604051630748d63560e31b81526001600160a01b038481166004830152602482018490526000917f000000000000000000000000000000000000000000000000000000000000000090911690633a46b1a89060440160206040518083038186803b158015611fb457600080fd5b505afa158015611fc8573d6000803e3d6000fd5b505050506040513d601f19601f820116820180604052508101906115769190613aed565b30611ff5610994565b6001600160a01b031614611aff5760005b845181101561208657306001600160a01b031685828151811061202b5761202b6142ae565b60200260200101516001600160a01b0316141561207657612076838281518110612057576120576142ae565b6020026020010151805190602001206002612f4290919063ffffffff16565b61207f81614267565b9050612006565b505050505050565b611aff8585858585612f91565b306120a4610994565b6001600160a01b031614611aff57600254600f81810b810b600160801b909204810b900b1315611aff576000600255611aff565b60006120fb858585856120f660408051602081019091526000815290565b611d60565b95945050505050565b6000806121108361312b565b9050600481600781111561212657612126614298565b146121315792915050565b600061213c84611742565b90508061214a575092915050565b600860009054906101000a90046001600160a01b03166001600160a01b031663c1a287e26040518163ffffffff1660e01b815260040160206040518083038186803b15801561219857600080fd5b505afa1580156121ac573d6000803e3d6000fd5b505050506040513d601f19601f820116820180604052508101906121d09190613aed565b6121da9082614186565b42106121ea575060069392505050565b5060059392505050565b60006122138254600f81810b810b600160801b909204810b900b131590565b1561223157604051631ed9509560e11b815260040160405180910390fd5b508054600f90810b80820b820b600090815260018085016020526040822080549290558454920190920b6fffffffffffffffffffffffffffffffff166fffffffffffffffffffffffffffffffff199091161790915590565b60045460408051918252602082018390527fc565b045403dc03c2eea82b81a0465edad9e2e7fc4d97e11421c209da93d7a93910160405180910390a1600455565b60006122d461176f565b6122e3336108ee6001436141e9565b10156123575760405162461bcd60e51b815260206004820152603160248201527f476f7665726e6f723a2070726f706f73657220766f7465732062656c6f77207060448201527f726f706f73616c207468726573686f6c640000000000000000000000000000006064820152608401610bd3565b600061236c8686868680519060200120611b06565b905084518651146123c95760405162461bcd60e51b815260206004820152602160248201527f476f7665726e6f723a20696e76616c69642070726f706f73616c206c656e67746044820152600d60fb1b6064820152608401610bd3565b83518651146124245760405162461bcd60e51b815260206004820152602160248201527f476f7665726e6f723a20696e76616c69642070726f706f73616c206c656e67746044820152600d60fb1b6064820152608401610bd3565b60008651116124755760405162461bcd60e51b815260206004820152601860248201527f476f7665726e6f723a20656d7074792070726f706f73616c00000000000000006044820152606401610bd3565b6000818152600160209081526040918290208251918201909252815467ffffffffffffffff1690819052156124f65760405162461bcd60e51b815260206004820152602160248201527f476f7665726e6f723a2070726f706f73616c20616c72656164792065786973746044820152607360f81b6064820152608401610bd3565b6000612508612503611172565b611ec3565b61251143611ec3565b61251b919061419e565b9050600061252a6125036109be565b612534908361419e565b835467ffffffffffffffff191667ffffffffffffffff8416178455905060018301805467ffffffffffffffff191667ffffffffffffffff83161790557f7d84a6263ae0d98d3329bd7b46bb4e8d6f98cd35a7adb45c274c8b7fd5ebd5e084338b8b8d5167ffffffffffffffff8111156125af576125af6142c4565b6040519080825280602002602001820160405280156125e257816020015b60608152602001906001900390816125cd5790505b508c88888e6040516125fc99989796959493929190613fb5565b60405180910390a15091979650505050505050565b6000600161261e876111f3565b600781111561262f5761262f614298565b146126885760405162461bcd60e51b815260206004820152602360248201527f476f7665726e6f723a20766f7465206e6f742063757272656e746c792061637460448201526269766560e81b6064820152608401610bd3565b60016126978787878487612da5565b82516126e957856001600160a01b03167fb8e138887d0aa13bab447e82de9d5c1777041ecd21ca36ba824ff1e6c07ddda4888784886040516126dc94939291906140a7565b60405180910390a261145d565b856001600160a01b03167fe2babfbac5889a709b63bb7f598b324e08bc5a4fb9ec647fb3cbc9ec07eb8712888784888860405161272a9594939291906140cf565b60405180910390a29695505050505050565b600854604080516001600160a01b03928316815291831660208301527f08f74ea46ef7894f65eabfb5e6e695de773a000b47c529ab559178069b226401910160405180910390a16008805473ffffffffffffffffffffffffffffffffffffffff19166001600160a01b0392909216919091179055565b600060016127bf876111f3565b60078111156127d0576127d0614298565b146128295760405162461bcd60e51b815260206004820152602360248201527f476f7665726e6f723a20766f7465206e6f742063757272656e746c792061637460448201526269766560e81b6064820152608401610bd3565b600061283e8661283889611139565b85611f47565b90506126978787878487612da5565b60606115768484846040518060600160405280602981526020016142f060299139613237565b600081116128e95760405162461bcd60e51b815260206004820152602760248201527f476f7665726e6f7253657474696e67733a20766f74696e6720706572696f642060448201527f746f6f206c6f77000000000000000000000000000000000000000000000000006064820152608401610bd3565b60055460408051918252602082018390527f7e3f7f0708a84de9203036abaa450dccc85ad5ff52f78c170f3edb55cf5e8828910160405180910390a1600555565b60065460408051918252602082018390527fccb45da8d5717e6c4544694297c4ba5cf151d455c9bb0ed4fc7a38411bc05461910160405180910390a1600655565b60006001600160e01b0319821663bf26d89760e01b148061299c57506001600160e01b031982166379dd796f60e01b145b806129b757506001600160e01b03198216630271189760e51b145b806109b857506301ffc9a760e01b6001600160e01b03198316146109b8565b6000306001600160a01b037f000000000000000000000000000000000000000000000000000000000000000016148015612a2f57507f000000000000000000000000000000000000000000000000000000000000000046145b15612a5957507f000000000000000000000000000000000000000000000000000000000000000090565b50604080517f00000000000000000000000000000000000000000000000000000000000000006020808301919091527f0000000000000000000000000000000000000000000000000000000000000000828401527f000000000000000000000000000000000000000000000000000000000000000060608301524660808301523060a0808401919091528351808403909101815260c0909201909252805191012090565b6000807f7fffffffffffffffffffffffffffffff5d576e7357a4501ddfe92f46681b20a0831115612b345750600090506003612be1565b8460ff16601b14158015612b4c57508460ff16601c14155b15612b5d5750600090506004612be1565b6040805160008082526020820180845289905260ff881692820192909252606081018690526080810185905260019060a0016020604051602081039080840390855afa158015612bb1573d6000803e3d6000fd5b5050604051601f1901519150506001600160a01b038116612bda57600060019250925050612be1565b9150600090505b94509492505050565b6000816004811115612bfe57612bfe614298565b1415612c075750565b6001816004811115612c1b57612c1b614298565b1415612c695760405162461bcd60e51b815260206004820152601860248201527f45434453413a20696e76616c6964207369676e617475726500000000000000006044820152606401610bd3565b6002816004811115612c7d57612c7d614298565b1415612ccb5760405162461bcd60e51b815260206004820152601f60248201527f45434453413a20696e76616c6964207369676e6174757265206c656e677468006044820152606401610bd3565b6003816004811115612cdf57612cdf614298565b1415612d385760405162461bcd60e51b815260206004820152602260248201527f45434453413a20696e76616c6964207369676e6174757265202773272076616c604482015261756560f01b6064820152608401610bd3565b6004816004811115612d4c57612d4c614298565b14156114125760405162461bcd60e51b815260206004820152602260248201527f45434453413a20696e76616c6964207369676e6174757265202776272076616c604482015261756560f01b6064820152608401610bd3565b60008581526007602090815260408083206001600160a01b0388168452600381019092529091205460ff1615612e435760405162461bcd60e51b815260206004820152602760248201527f476f7665726e6f72566f74696e6753696d706c653a20766f746520616c72656160448201527f64792063617374000000000000000000000000000000000000000000000000006064820152608401610bd3565b6001600160a01b03851660009081526003820160205260408120805460ff1916600117905560ff168460ff161415612e945782816000016000828254612e899190614186565b909155506120869050565b60ff841660011415612eb45782816001016000828254612e899190614186565b60ff841660021415612ed45782816002016000828254612e899190614186565b60405162461bcd60e51b815260206004820152603560248201527f476f7665726e6f72566f74696e6753696d706c653a20696e76616c696420766160448201527f6c756520666f7220656e756d20566f74655479706500000000000000000000006064820152608401610bd3565b8154600160801b90819004600f90810b80820b820b6000908152600180870160205260409091209490945584549301900b6fffffffffffffffffffffffffffffffff9081169091029116179055565b6000612f9c86611742565b9050600081116130145760405162461bcd60e51b815260206004820152603160248201527f476f7665726e6f7254696d656c6f636b436f6d706f756e643a2070726f706f7360448201527f616c206e6f7420796574207175657565640000000000000000000000000000006064820152608401610bd3565b60085461302a906001600160a01b031634613374565b60005b85518110156131225760085486516001600160a01b0390911690630825f38f9088908490811061305f5761305f6142ae565b6020026020010151878481518110613079576130796142ae565b6020026020010151878581518110613093576130936142ae565b6020026020010151866040518563ffffffff1660e01b81526004016130bb9493929190613ee8565b600060405180830381600087803b1580156130d557600080fd5b505af11580156130e9573d6000803e3d6000fd5b505050506040513d6000823e601f3d908101601f191682016040526131119190810190613b30565b5061311b81614267565b905061302d565b50505050505050565b6000818152600160205260408120600281015460ff161561314f5750600792915050565b6002810154610100900460ff161561316a5750600292915050565b600061317584611139565b9050806131c45760405162461bcd60e51b815260206004820152601d60248201527f476f7665726e6f723a20756e6b6e6f776e2070726f706f73616c2069640000006044820152606401610bd3565b4381106131d5575060009392505050565b60006131e0856119df565b90504381106131f457506001949350505050565b6131fd8561348d565b801561321c575060008581526007602052604090208054600190910154115b1561322c57506004949350505050565b506003949350505050565b6060824710156132af5760405162461bcd60e51b815260206004820152602660248201527f416464726573733a20696e73756666696369656e742062616c616e636520666f60448201527f722063616c6c00000000000000000000000000000000000000000000000000006064820152608401610bd3565b6001600160a01b0385163b6133065760405162461bcd60e51b815260206004820152601d60248201527f416464726573733a2063616c6c20746f206e6f6e2d636f6e74726163740000006044820152606401610bd3565b600080866001600160a01b031685876040516133229190613ecc565b60006040518083038185875af1925050503d806000811461335f576040519150601f19603f3d011682016040523d82523d6000602084013e613364565b606091505b50915091506111e88282866134c4565b804710156133c45760405162461bcd60e51b815260206004820152601d60248201527f416464726573733a20696e73756666696369656e742062616c616e63650000006044820152606401610bd3565b6000826001600160a01b03168260405160006040518083038185875af1925050503d8060008114613411576040519150601f19603f3d011682016040523d82523d6000602084013e613416565b606091505b505090508061100d5760405162461bcd60e51b815260206004820152603a60248201527f416464726573733a20756e61626c6520746f2073656e642076616c75652c207260448201527f6563697069656e74206d617920686176652072657665727465640000000000006064820152608401610bd3565b6000818152600760205260408120600281015460018201546134af9190614186565b6134bb61095a85611139565b11159392505050565b606083156134d3575081611579565b8251156134e35782518084602001fd5b8160405162461bcd60e51b8152600401610bd39190613fa2565b600061351061350b8461415e565b614109565b905082815283838301111561352457600080fd5b828260208301376000602084830101529392505050565b600082601f83011261354c57600080fd5b8135602061355c61350b8361413a565b80838252828201915082860187848660051b890101111561357c57600080fd5b60005b858110156135a4578135613592816142da565b8452928401929084019060010161357f565b5090979650505050505050565b600082601f8301126135c257600080fd5b813560206135d261350b8361413a565b80838252828201915082860187848660051b89010111156135f257600080fd5b6000805b8681101561363557823567ffffffffffffffff811115613614578283fd5b6136228b88838d01016136ec565b86525093850193918501916001016135f6565b509198975050505050505050565b600082601f83011261365457600080fd5b8135602061366461350b8361413a565b80838252828201915082860187848660051b890101111561368457600080fd5b60005b858110156135a457813584529284019290840190600101613687565b60008083601f8401126136b557600080fd5b50813567ffffffffffffffff8111156136cd57600080fd5b6020830191508360208285010111156136e557600080fd5b9250929050565b600082601f8301126136fd57600080fd5b611579838335602085016134fd565b803560ff8116811461371d57600080fd5b919050565b6000806040838503121561373557600080fd5b8235613740816142da565b946020939093013593505050565b600080600080600060a0868803121561376657600080fd5b8535613771816142da565b94506020860135613781816142da565b9350604086013567ffffffffffffffff8082111561379e57600080fd5b6137aa89838a01613643565b945060608801359150808211156137c057600080fd5b6137cc89838a01613643565b935060808801359150808211156137e257600080fd5b506137ef888289016136ec565b9150509295509295909350565b6000806000806080858703121561381257600080fd5b843561381d816142da565b9350602085013561382d816142da565b925060408501359150606085013567ffffffffffffffff81111561385057600080fd5b61385c878288016136ec565b91505092959194509250565b600080600080600060a0868803121561388057600080fd5b853561388b816142da565b9450602086013561389b816142da565b93506040860135925060608601359150608086013567ffffffffffffffff8111156138c557600080fd5b6137ef888289016136ec565b600080600080606085870312156138e757600080fd5b84356138f2816142da565b935060208501359250604085013567ffffffffffffffff81111561391557600080fd5b613921878288016136a3565b95989497509550505050565b60008060006060848603121561394257600080fd5b833561394d816142da565b925060208401359150604084013567ffffffffffffffff81111561397057600080fd5b61397c868287016136ec565b9150509250925092565b6000806000806080858703121561399c57600080fd5b843567ffffffffffffffff808211156139b457600080fd5b6139c08883890161353b565b955060208701359150808211156139d657600080fd5b6139e288838901613643565b945060408701359150808211156139f857600080fd5b50613a05878288016135b1565b949793965093946060013593505050565b60008060008060808587031215613a2c57600080fd5b843567ffffffffffffffff80821115613a4457600080fd5b613a508883890161353b565b95506020870135915080821115613a6657600080fd5b613a7288838901613643565b94506040870135915080821115613a8857600080fd5b613a94888389016135b1565b93506060870135915080821115613aaa57600080fd5b508501601f81018713613abc57600080fd5b61385c878235602084016134fd565b600060208284031215613add57600080fd5b8151801515811461157957600080fd5b600060208284031215613aff57600080fd5b5051919050565b600060208284031215613b1857600080fd5b81356001600160e01b03198116811461157957600080fd5b600060208284031215613b4257600080fd5b815167ffffffffffffffff811115613b5957600080fd5b8201601f81018413613b6a57600080fd5b8051613b7861350b8261415e565b818152856020838501011115613b8d57600080fd5b6120fb826020830160208601614200565b600060208284031215613bb057600080fd5b8135611579816142da565b600060208284031215613bcd57600080fd5b5035919050565b60008060408385031215613be757600080fd5b823591506020830135613bf9816142da565b809150509250929050565b60008060408385031215613c1757600080fd5b82359150613c276020840161370c565b90509250929050565b60008060008060608587031215613c4657600080fd5b84359350613c566020860161370c565b9250604085013567ffffffffffffffff81111561391557600080fd5b600080600080600060808688031215613c8a57600080fd5b85359450613c9a6020870161370c565b9350604086013567ffffffffffffffff80821115613cb757600080fd5b613cc389838a016136a3565b909550935060608801359150808211156137e257600080fd5b60008060008060008060008060e0898b031215613cf857600080fd5b88359750613d0860208a0161370c565b9650604089013567ffffffffffffffff80821115613d2557600080fd5b613d318c838d016136a3565b909850965060608b0135915080821115613d4a57600080fd5b50613d578b828c016136ec565b945050613d6660808a0161370c565b925060a0890135915060c089013590509295985092959890939650565b600080600080600060a08688031215613d9b57600080fd5b85359450613dab6020870161370c565b9350613db96040870161370c565b94979396509394606081013594506080013592915050565b600081518084526020808501945080840160005b83811015613e0a5781516001600160a01b031687529582019590820190600101613de5565b509495945050505050565b600082825180855260208086019550808260051b84010181860160005b848110156135a457601f19868403018952613e4e838351613e90565b98840198925090830190600101613e32565b600081518084526020808501945080840160005b83811015613e0a57815187529582019590820190600101613e74565b60008151808452613ea8816020860160208601614200565b601f01601f19169290920160200192915050565b8183823760009101908152919050565b60008251613ede818460208701614200565b9190910192915050565b6001600160a01b038516815283602082015260a06040820152600060a082015260c060608201526000613f1e60c0830185613e90565b905082608083015295945050505050565b608081526000613f426080830187613dd1565b8281036020840152613f548187613e60565b90508281036040840152613f688186613e15565b91505082606083015295945050505050565b6020810160088310613f9c57634e487b7160e01b600052602160045260246000fd5b91905290565b6020815260006115796020830184613e90565b60006101208b835260206001600160a01b038c1681850152816040850152613fdf8285018c613dd1565b91508382036060850152613ff3828b613e60565b915083820360808501528189518084528284019150828160051b850101838c0160005b8381101561404457601f19878403018552614032838351613e90565b94860194925090850190600101614016565b505086810360a0880152614058818c613e15565b94505050505061407460c084018767ffffffffffffffff169052565b67ffffffffffffffff851660e08401528281036101008401526140978185613e90565b9c9b505050505050505050505050565b84815260ff8416602082015282604082015260806060820152600061145d6080830184613e90565b85815260ff8516602082015283604082015260a0606082015260006140f760a0830185613e90565b82810360808401526119d38185613e90565b604051601f8201601f1916810167ffffffffffffffff81118282101715614132576141326142c4565b604052919050565b600067ffffffffffffffff821115614154576141546142c4565b5060051b60200190565b600067ffffffffffffffff821115614178576141786142c4565b50601f01601f191660200190565b6000821982111561419957614199614282565b500190565b600067ffffffffffffffff8083168185168083038211156141c1576141c1614282565b01949350505050565b60008160001904831182151516156141e4576141e4614282565b500290565b6000828210156141fb576141fb614282565b500390565b60005b8381101561421b578181015183820152602001614203565b838111156117de5750506000910152565b600181811c9082168061424057607f821691505b6020821081141561426157634e487b7160e01b600052602260045260246000fd5b50919050565b600060001982141561427b5761427b614282565b5060010190565b634e487b7160e01b600052601160045260246000fd5b634e487b7160e01b600052602160045260246000fd5b634e487b7160e01b600052603260045260246000fd5b634e487b7160e01b600052604160045260246000fd5b6001600160a01b038116811461141257600080fdfe416464726573733a206c6f772d6c6576656c2063616c6c20776974682076616c7565206661696c6564a164736f6c6343000806000a",
  "linkReferences": {},
  "deployedLinkReferences": {}
}