{
  "_format": "hh-sol-artifact-1",
  "contractName": "MyGovernor",
  "sourceName": "contracts/MyGovernor.sol",
  "abi": [
    {
      "inputs": [
        {
          "internalType": "contract IVotes",
          "name": "_token",
          "type": "address"
        },
        {
          "internalType": "contract ICompoundTimelock",
          "name": "_timelock",
          "type": "address"
        }
      ],
      "stateMutability": "nonpayable",
      "type": "constructor"
    },
    {
      "inputs": [],
      "name": "Empty",
      "type": "error"
    },
    {
      "anonymous": false,
      "inputs": [
        {
          "indexed": false,
          "internalType": "uint256",
          "name": "proposalId",
          "type": "uint256"
        }
      ],
      "name": "ProposalCanceled",
      "type": "event"
    },
    {
      "anonymous": false,
      "inputs": [
        {
          "indexed": false,
          "internalType": "uint256",
          "name": "proposalId",
          "type": "uint256"
        },
        {
          "indexed": false,
          "internalType": "address",
          "name": "proposer",
          "type": "address"
        },
        {
          "indexed": false,
          "internalType": "address[]",
          "name": "targets",
          "type": "address[]"
        },
        {
          "indexed": false,
          "internalType": "uint256[]",
          "name": "values",
          "type": "uint256[]"
        },
        {
          "indexed": false,
          "internalType": "string[]",
          "name": "signatures",
          "type": "string[]"
        },
        {
          "indexed": false,
          "internalType": "bytes[]",
          "name": "calldatas",
          "type": "bytes[]"
        },
        {
          "indexed": false,
          "internalType": "uint256",
          "name": "startBlock",
          "type": "uint256"
        },
        {
          "indexed": false,
          "internalType": "uint256",
          "name": "endBlock",
          "type": "uint256"
        },
        {
          "indexed": false,
          "internalType": "string",
          "name": "description",
          "type": "string"
        }
      ],
      "name": "ProposalCreated",
      "type": "event"
    },
    {
      "anonymous": false,
      "inputs": [
        {
          "indexed": false,
          "internalType": "uint256",
          "name": "proposalId",
          "type": "uint256"
        }
      ],
      "name": "ProposalExecuted",
      "type": "event"
    },
    {
      "anonymous": false,
      "inputs": [
        {
          "indexed": false,
          "internalType": "uint256",
          "name": "proposalId",
          "type": "uint256"
        },
        {
          "indexed": false,
          "internalType": "uint256",
          "name": "eta",
          "type": "uint256"
        }
      ],
      "name": "ProposalQueued",
      "type": "event"
    },
    {
      "anonymous": false,
      "inputs": [
        {
          "indexed": false,
          "internalType": "uint256",
          "name": "oldProposalThreshold",
          "type": "uint256"
        },
        {
          "indexed": false,
          "internalType": "uint256",
          "name": "newProposalThreshold",
          "type": "uint256"
        }
      ],
      "name": "ProposalThresholdSet",
      "type": "event"
    },
    {
      "anonymous": false,
      "inputs": [
        {
          "indexed": false,
          "internalType": "address",
          "name": "oldTimelock",
          "type": "address"
        },
        {
          "indexed": false,
          "internalType": "address",
          "name": "newTimelock",
          "type": "address"
        }
      ],
      "name": "TimelockChange",
      "type": "event"
    },
    {
      "anonymous": false,
      "inputs": [
        {
          "indexed": true,
          "internalType": "address",
          "name": "voter",
          "type": "address"
        },
        {
          "indexed": false,
          "internalType": "uint256",
          "name": "proposalId",
          "type": "uint256"
        },
        {
          "indexed": false,
          "internalType": "uint8",
          "name": "support",
          "type": "uint8"
        },
        {
          "indexed": false,
          "internalType": "uint256",
          "name": "weight",
          "type": "uint256"
        },
        {
          "indexed": false,
          "internalType": "string",
          "name": "reason",
          "type": "string"
        }
      ],
      "name": "VoteCast",
      "type": "event"
    },
    {
      "anonymous": false,
      "inputs": [
        {
          "indexed": true,
          "internalType": "address",
          "name": "voter",
          "type": "address"
        },
        {
          "indexed": false,
          "internalType": "uint256",
          "name": "proposalId",
          "type": "uint256"
        },
        {
          "indexed": false,
          "internalType": "uint8",
          "name": "support",
          "type": "uint8"
        },
        {
          "indexed": false,
          "internalType": "uint256",
          "name": "weight",
          "type": "uint256"
        },
        {
          "indexed": false,
          "internalType": "string",
          "name": "reason",
          "type": "string"
        },
        {
          "indexed": false,
          "internalType": "bytes",
          "name": "params",
          "type": "bytes"
        }
      ],
      "name": "VoteCastWithParams",
      "type": "event"
    },
    {
      "anonymous": false,
      "inputs": [
        {
          "indexed": false,
          "internalType": "uint256",
          "name": "oldVotingDelay",
          "type": "uint256"
        },
        {
          "indexed": false,
          "internalType": "uint256",
          "name": "newVotingDelay",
          "type": "uint256"
        }
      ],
      "name": "VotingDelaySet",
      "type": "event"
    },
    {
      "anonymous": false,
      "inputs": [
        {
          "indexed": false,
          "internalType": "uint256",
          "name": "oldVotingPeriod",
          "type": "uint256"
        },
        {
          "indexed": false,
          "internalType": "uint256",
          "name": "newVotingPeriod",
          "type": "uint256"
        }
      ],
      "name": "VotingPeriodSet",
      "type": "event"
    },
    {
      "inputs": [],
      "name": "BALLOT_TYPEHASH",
      "outputs": [
        {
          "internalType": "bytes32",
          "name": "",
          "type": "bytes32"
        }
      ],
      "stateMutability": "view",
      "type": "function"
    },
    {
      "inputs": [],
      "name": "COUNTING_MODE",
      "outputs": [
        {
          "internalType": "string",
          "name": "",
          "type": "string"
        }
      ],
      "stateMutability": "pure",
      "type": "function"
    },
    {
      "inputs": [],
      "name": "EXTENDED_BALLOT_TYPEHASH",
      "outputs": [
        {
          "internalType": "bytes32",
          "name": "",
          "type": "bytes32"
        }
      ],
      "stateMutability": "view",
      "type": "function"
    },
    {
      "inputs": [],
      "name": "__acceptAdmin",
      "outputs": [],
      "stateMutability": "nonpayable",
      "type": "function"
    },
    {
      "inputs": [
        {
          "internalType": "uint256",
          "name": "proposalId",
          "type": "uint256"
        },
        {
          "internalType": "uint8",
          "name": "support",
          "type": "uint8"
        }
      ],
      "name": "castVote",
      "outputs": [
        {
          "internalType": "uint256",
          "name": "",
          "type": "uint256"
        }
      ],
      "stateMutability": "nonpayable",
      "type": "function"
    },
    {
      "inputs": [
        {
          "internalType": "uint256",
          "name": "proposalId",
          "type": "uint256"
        },
        {
          "internalType": "uint8",
          "name": "support",
          "type": "uint8"
        }
      ],
      "name": "castVoteAllIn",
      "outputs": [
        {
          "internalType": "uint256",
          "name": "",
          "type": "uint256"
        }
      ],
      "stateMutability": "payable",
      "type": "function"
    },
    {
      "inputs": [
        {
          "internalType": "uint256",
          "name": "proposalId",
          "type": "uint256"
        },
        {
          "internalType": "uint8",
          "name": "support",
          "type": "uint8"
        },
        {
          "internalType": "uint8",
          "name": "v",
          "type": "uint8"
        },
        {
          "internalType": "bytes32",
          "name": "r",
          "type": "bytes32"
        },
        {
          "internalType": "bytes32",
          "name": "s",
          "type": "bytes32"
        }
      ],
      "name": "castVoteBySig",
      "outputs": [
        {
          "internalType": "uint256",
          "name": "",
          "type": "uint256"
        }
      ],
      "stateMutability": "nonpayable",
      "type": "function"
    },
    {
      "inputs": [
        {
          "internalType": "uint256",
          "name": "proposalId",
          "type": "uint256"
        },
        {
          "internalType": "uint8",
          "name": "support",
          "type": "uint8"
        }
      ],
      "name": "castVoteSimple",
      "outputs": [
        {
          "internalType": "uint256",
          "name": "",
          "type": "uint256"
        }
      ],
      "stateMutability": "payable",
      "type": "function"
    },
    {
      "inputs": [
        {
          "internalType": "uint256",
          "name": "proposalId",
          "type": "uint256"
        },
        {
          "internalType": "uint8",
          "name": "support",
          "type": "uint8"
        },
        {
          "internalType": "string",
          "name": "reason",
          "type": "string"
        }
      ],
      "name": "castVoteWithReason",
      "outputs": [
        {
          "internalType": "uint256",
          "name": "",
          "type": "uint256"
        }
      ],
      "stateMutability": "nonpayable",
      "type": "function"
    },
    {
      "inputs": [
        {
          "internalType": "uint256",
          "name": "proposalId",
          "type": "uint256"
        },
        {
          "internalType": "uint8",
          "name": "support",
          "type": "uint8"
        },
        {
          "internalType": "string",
          "name": "reason",
          "type": "string"
        },
        {
          "internalType": "bytes",
          "name": "params",
          "type": "bytes"
        }
      ],
      "name": "castVoteWithReasonAndParams",
      "outputs": [
        {
          "internalType": "uint256",
          "name": "",
          "type": "uint256"
        }
      ],
      "stateMutability": "nonpayable",
      "type": "function"
    },
    {
      "inputs": [
        {
          "internalType": "uint256",
          "name": "proposalId",
          "type": "uint256"
        },
        {
          "internalType": "uint8",
          "name": "support",
          "type": "uint8"
        },
        {
          "internalType": "string",
          "name": "reason",
          "type": "string"
        },
        {
          "internalType": "bytes",
          "name": "params",
          "type": "bytes"
        },
        {
          "internalType": "uint8",
          "name": "v",
          "type": "uint8"
        },
        {
          "internalType": "bytes32",
          "name": "r",
          "type": "bytes32"
        },
        {
          "internalType": "bytes32",
          "name": "s",
          "type": "bytes32"
        }
      ],
      "name": "castVoteWithReasonAndParamsBySig",
      "outputs": [
        {
          "internalType": "uint256",
          "name": "",
          "type": "uint256"
        }
      ],
      "stateMutability": "nonpayable",
      "type": "function"
    },
    {
      "inputs": [
        {
          "internalType": "address[]",
          "name": "targets",
          "type": "address[]"
        },
        {
          "internalType": "uint256[]",
          "name": "values",
          "type": "uint256[]"
        },
        {
          "internalType": "bytes[]",
          "name": "calldatas",
          "type": "bytes[]"
        },
        {
          "internalType": "bytes32",
          "name": "descriptionHash",
          "type": "bytes32"
        }
      ],
      "name": "execute",
      "outputs": [
        {
          "internalType": "uint256",
          "name": "",
          "type": "uint256"
        }
      ],
      "stateMutability": "payable",
      "type": "function"
    },
    {
      "inputs": [
        {
          "internalType": "address",
          "name": "account",
          "type": "address"
        },
        {
          "internalType": "uint256",
          "name": "blockNumber",
          "type": "uint256"
        }
      ],
      "name": "getVotes",
      "outputs": [
        {
          "internalType": "uint256",
          "name": "",
          "type": "uint256"
        }
      ],
      "stateMutability": "view",
      "type": "function"
    },
    {
      "inputs": [
        {
          "internalType": "address",
          "name": "account",
          "type": "address"
        },
        {
          "internalType": "uint256",
          "name": "blockNumber",
          "type": "uint256"
        },
        {
          "internalType": "bytes",
          "name": "params",
          "type": "bytes"
        }
      ],
      "name": "getVotesWithParams",
      "outputs": [
        {
          "internalType": "uint256",
          "name": "",
          "type": "uint256"
        }
      ],
      "stateMutability": "view",
      "type": "function"
    },
    {
      "inputs": [
        {
          "internalType": "uint256",
          "name": "proposalId",
          "type": "uint256"
        },
        {
          "internalType": "address",
          "name": "account",
          "type": "address"
        }
      ],
      "name": "hasVoted",
      "outputs": [
        {
          "internalType": "bool",
          "name": "",
          "type": "bool"
        }
      ],
      "stateMutability": "view",
      "type": "function"
    },
    {
      "inputs": [
        {
          "internalType": "address[]",
          "name": "targets",
          "type": "address[]"
        },
        {
          "internalType": "uint256[]",
          "name": "values",
          "type": "uint256[]"
        },
        {
          "internalType": "bytes[]",
          "name": "calldatas",
          "type": "bytes[]"
        },
        {
          "internalType": "bytes32",
          "name": "descriptionHash",
          "type": "bytes32"
        }
      ],
      "name": "hashProposal",
      "outputs": [
        {
          "internalType": "uint256",
          "name": "",
          "type": "uint256"
        }
      ],
      "stateMutability": "pure",
      "type": "function"
    },
    {
      "inputs": [],
      "name": "name",
      "outputs": [
        {
          "internalType": "string",
          "name": "",
          "type": "string"
        }
      ],
      "stateMutability": "view",
      "type": "function"
    },
    {
      "inputs": [
        {
          "internalType": "address",
          "name": "",
          "type": "address"
        },
        {
          "internalType": "address",
          "name": "",
          "type": "address"
        },
        {
          "internalType": "uint256[]",
          "name": "",
          "type": "uint256[]"
        },
        {
          "internalType": "uint256[]",
          "name": "",
          "type": "uint256[]"
        },
        {
          "internalType": "bytes",
          "name": "",
          "type": "bytes"
        }
      ],
      "name": "onERC1155BatchReceived",
      "outputs": [
        {
          "internalType": "bytes4",
          "name": "",
          "type": "bytes4"
        }
      ],
      "stateMutability": "nonpayable",
      "type": "function"
    },
    {
      "inputs": [
        {
          "internalType": "address",
          "name": "",
          "type": "address"
        },
        {
          "internalType": "address",
          "name": "",
          "type": "address"
        },
        {
          "internalType": "uint256",
          "name": "",
          "type": "uint256"
        },
        {
          "internalType": "uint256",
          "name": "",
          "type": "uint256"
        },
        {
          "internalType": "bytes",
          "name": "",
          "type": "bytes"
        }
      ],
      "name": "onERC1155Received",
      "outputs": [
        {
          "internalType": "bytes4",
          "name": "",
          "type": "bytes4"
        }
      ],
      "stateMutability": "nonpayable",
      "type": "function"
    },
    {
      "inputs": [
        {
          "internalType": "address",
          "name": "",
          "type": "address"
        },
        {
          "internalType": "address",
          "name": "",
          "type": "address"
        },
        {
          "internalType": "uint256",
          "name": "",
          "type": "uint256"
        },
        {
          "internalType": "bytes",
          "name": "",
          "type": "bytes"
        }
      ],
      "name": "onERC721Received",
      "outputs": [
        {
          "internalType": "bytes4",
          "name": "",
          "type": "bytes4"
        }
      ],
      "stateMutability": "nonpayable",
      "type": "function"
    },
    {
      "inputs": [],
      "name": "owner",
      "outputs": [
        {
          "internalType": "address",
          "name": "",
          "type": "address"
        }
      ],
      "stateMutability": "view",
      "type": "function"
    },
    {
      "inputs": [
        {
          "internalType": "uint256",
          "name": "proposalId",
          "type": "uint256"
        }
      ],
      "name": "proposalDeadline",
      "outputs": [
        {
          "internalType": "uint256",
          "name": "",
          "type": "uint256"
        }
      ],
      "stateMutability": "view",
      "type": "function"
    },
    {
      "inputs": [
        {
          "internalType": "uint256",
          "name": "proposalId",
          "type": "uint256"
        }
      ],
      "name": "proposalEta",
      "outputs": [
        {
          "internalType": "uint256",
          "name": "",
          "type": "uint256"
        }
      ],
      "stateMutability": "view",
      "type": "function"
    },
    {
      "inputs": [
        {
          "internalType": "uint256",
          "name": "proposalId",
          "type": "uint256"
        }
      ],
      "name": "proposalSnapshot",
      "outputs": [
        {
          "internalType": "uint256",
          "name": "",
          "type": "uint256"
        }
      ],
      "stateMutability": "view",
      "type": "function"
    },
    {
      "inputs": [],
      "name": "proposalThreshold",
      "outputs": [
        {
          "internalType": "uint256",
          "name": "",
          "type": "uint256"
        }
      ],
      "stateMutability": "view",
      "type": "function"
    },
    {
      "inputs": [
        {
          "internalType": "uint256",
          "name": "proposalId",
          "type": "uint256"
        }
      ],
      "name": "proposalVotes",
      "outputs": [
        {
          "internalType": "uint256",
          "name": "againstVotes",
          "type": "uint256"
        },
        {
          "internalType": "uint256",
          "name": "forVotes",
          "type": "uint256"
        },
        {
          "internalType": "uint256",
          "name": "abstainVotes",
          "type": "uint256"
        }
      ],
      "stateMutability": "view",
      "type": "function"
    },
    {
      "inputs": [
        {
          "internalType": "address[]",
          "name": "targets",
          "type": "address[]"
        },
        {
          "internalType": "uint256[]",
          "name": "values",
          "type": "uint256[]"
        },
        {
          "internalType": "bytes[]",
          "name": "calldatas",
          "type": "bytes[]"
        },
        {
          "internalType": "string",
          "name": "description",
          "type": "string"
        }
      ],
      "name": "propose",
      "outputs": [
        {
          "internalType": "uint256",
          "name": "",
          "type": "uint256"
        }
      ],
      "stateMutability": "nonpayable",
      "type": "function"
    },
    {
      "inputs": [
        {
          "internalType": "uint256",
          "name": "proposalId",
          "type": "uint256"
        }
      ],
      "name": "quadraticVoting",
      "outputs": [],
      "stateMutability": "payable",
      "type": "function"
    },
    {
      "inputs": [
        {
          "internalType": "address[]",
          "name": "targets",
          "type": "address[]"
        },
        {
          "internalType": "uint256[]",
          "name": "values",
          "type": "uint256[]"
        },
        {
          "internalType": "bytes[]",
          "name": "calldatas",
          "type": "bytes[]"
        },
        {
          "internalType": "bytes32",
          "name": "descriptionHash",
          "type": "bytes32"
        }
      ],
      "name": "queue",
      "outputs": [
        {
          "internalType": "uint256",
          "name": "",
          "type": "uint256"
        }
      ],
      "stateMutability": "nonpayable",
      "type": "function"
    },
    {
      "inputs": [
        {
          "internalType": "uint256",
          "name": "blockNumber",
          "type": "uint256"
        }
      ],
      "name": "quorum",
      "outputs": [
        {
          "internalType": "uint256",
          "name": "",
          "type": "uint256"
        }
      ],
      "stateMutability": "pure",
      "type": "function"
    },
    {
      "inputs": [
        {
          "internalType": "address",
          "name": "target",
          "type": "address"
        },
        {
          "internalType": "uint256",
          "name": "value",
          "type": "uint256"
        },
        {
          "internalType": "bytes",
          "name": "data",
          "type": "bytes"
        }
      ],
      "name": "relay",
      "outputs": [],
      "stateMutability": "nonpayable",
      "type": "function"
    },
    {
      "inputs": [
        {
          "internalType": "uint256",
          "name": "newProposalThreshold",
          "type": "uint256"
        }
      ],
      "name": "setProposalThreshold",
      "outputs": [],
      "stateMutability": "nonpayable",
      "type": "function"
    },
    {
      "inputs": [
        {
          "internalType": "uint256",
          "name": "newVotingDelay",
          "type": "uint256"
        }
      ],
      "name": "setVotingDelay",
      "outputs": [],
      "stateMutability": "nonpayable",
      "type": "function"
    },
    {
      "inputs": [
        {
          "internalType": "uint256",
          "name": "newVotingPeriod",
          "type": "uint256"
        }
      ],
      "name": "setVotingPeriod",
      "outputs": [],
      "stateMutability": "nonpayable",
      "type": "function"
    },
    {
      "inputs": [
        {
          "internalType": "uint256",
          "name": "proposalId",
          "type": "uint256"
        }
      ],
      "name": "state",
      "outputs": [
        {
          "internalType": "enum IGovernor.ProposalState",
          "name": "",
          "type": "uint8"
        }
      ],
      "stateMutability": "view",
      "type": "function"
    },
    {
      "inputs": [
        {
          "internalType": "bytes4",
          "name": "interfaceId",
          "type": "bytes4"
        }
      ],
      "name": "supportsInterface",
      "outputs": [
        {
          "internalType": "bool",
          "name": "",
          "type": "bool"
        }
      ],
      "stateMutability": "view",
      "type": "function"
    },
    {
      "inputs": [],
      "name": "timelock",
      "outputs": [
        {
          "internalType": "address",
          "name": "",
          "type": "address"
        }
      ],
      "stateMutability": "view",
      "type": "function"
    },
    {
      "inputs": [],
      "name": "token",
      "outputs": [
        {
          "internalType": "contract IVotes",
          "name": "",
          "type": "address"
        }
      ],
      "stateMutability": "view",
      "type": "function"
    },
    {
      "inputs": [],
      "name": "tokenContract",
      "outputs": [
        {
          "internalType": "contract MyNftToken",
          "name": "",
          "type": "address"
        }
      ],
      "stateMutability": "view",
      "type": "function"
    },
    {
      "inputs": [
        {
          "internalType": "contract ICompoundTimelock",
          "name": "newTimelock",
          "type": "address"
        }
      ],
      "name": "updateTimelock",
      "outputs": [],
      "stateMutability": "nonpayable",
      "type": "function"
    },
    {
      "inputs": [],
      "name": "version",
      "outputs": [
        {
          "internalType": "string",
          "name": "",
          "type": "string"
        }
      ],
      "stateMutability": "view",
      "type": "function"
    },
    {
      "inputs": [],
      "name": "votingDelay",
      "outputs": [
        {
          "internalType": "uint256",
          "name": "",
          "type": "uint256"
        }
      ],
      "stateMutability": "view",
      "type": "function"
    },
    {
      "inputs": [],
      "name": "votingPeriod",
      "outputs": [
        {
          "internalType": "uint256",
          "name": "",
          "type": "uint256"
        }
      ],
      "stateMutability": "view",
      "type": "function"
    },
    {
      "stateMutability": "payable",
      "type": "receive"
    }
  ],
  "bytecode": "0x6101606040523480156200001257600080fd5b5060405162004537380380620045378339810160408190526200003591620003e0565b80826001601460026040518060400160405280600a81526020016926bca3b7bb32b93737b960b11b81525080620000716200018e60201b60201c565b815160208084019190912082518383012060e08290526101008190524660a0818152604080517f8b73c3c69bb8fe3d512ecc4cf759cc79239f7b179b0ffacaa9a75d522b39400f81880181905281830187905260608201869052608082019490945230818401528151808203909301835260c00190528051940193909320919290916080523060601b60c05261012052505082516200011a92506000915060208401906200033a565b5062000128905083620001a9565b6200013382620001ea565b6200013e8162000290565b50505060601b6001600160601b031916610140526200015d81620002d1565b5050600a80546001600160a01b039092166001600160a01b0319928316179055600b80549091163317905562000475565b6040805180820190915260018152603160f81b602082015290565b60045460408051918252602082018390527fc565b045403dc03c2eea82b81a0465edad9e2e7fc4d97e11421c209da93d7a93910160405180910390a1600455565b600081116200024f5760405162461bcd60e51b815260206004820152602760248201527f476f7665726e6f7253657474696e67733a20766f74696e6720706572696f6420604482015266746f6f206c6f7760c81b606482015260840160405180910390fd5b60055460408051918252602082018390527f7e3f7f0708a84de9203036abaa450dccc85ad5ff52f78c170f3edb55cf5e8828910160405180910390a1600555565b60065460408051918252602082018390527fccb45da8d5717e6c4544694297c4ba5cf151d455c9bb0ed4fc7a38411bc05461910160405180910390a1600655565b600854604080516001600160a01b03928316815291831660208301527f08f74ea46ef7894f65eabfb5e6e695de773a000b47c529ab559178069b226401910160405180910390a1600880546001600160a01b0319166001600160a01b0392909216919091179055565b82805462000348906200041f565b90600052602060002090601f0160209004810192826200036c5760008555620003b7565b82601f106200038757805160ff1916838001178555620003b7565b82800160010185558215620003b7579182015b82811115620003b75782518255916020019190600101906200039a565b50620003c5929150620003c9565b5090565b5b80821115620003c55760008155600101620003ca565b60008060408385031215620003f457600080fd5b825162000401816200045c565b602084015190925062000414816200045c565b809150509250929050565b600181811c908216806200043457607f821691505b602082108114156200045657634e487b7160e01b600052602260045260246000fd5b50919050565b6001600160a01b03811681146200047257600080fd5b50565b60805160a05160c05160601c60e05161010051610120516101405160601c61405a620004dd600039600081816109360152611d280152600061291c0152600061296b015260006129460152600061289f015260006128c9015260006128f3015261405a6000f3fe6080604052600436106102e05760003560e01c80637d5e81e211610184578063c28bc2fa116100d6578063ea0217cf1161008a578063f23a6e6111610064578063f23a6e61146108d7578063f8ce560a14610903578063fc0c546a1461092457600080fd5b8063ea0217cf14610877578063eb9019d414610897578063ece40cc1146108b757600080fd5b8063d33219b4116100bb578063d33219b4146107df578063dd4e2ba5146107fd578063deaaa7cc1461084357600080fd5b8063c28bc2fa1461079f578063c59057e4146107bf57600080fd5b8063ab58fb8e11610138578063bc197c8111610112578063bc197c8114610740578063c006b57f1461076c578063c01f9e371461077f57600080fd5b8063ab58fb8e146106f6578063b58131b014610716578063b9a619611461072b57600080fd5b80639a802a6d116101695780639a802a6d146106a35780639c61248a146106c3578063a890c910146106d657600080fd5b80637d5e81e2146106635780638da5cb5b1461068357600080fd5b80633932abb11161023d57806354fd4d50116101f15780635f398a14116101cb5780635f398a141461060357806370b0f660146106235780637b3c71d31461064357600080fd5b806354fd4d501461058157806355a373d6146105ab57806356781388146105e357600080fd5b80633e4f49e6116102225780633e4f49e6146104b557806343859632146104e2578063544ffc9c1461052c57600080fd5b80633932abb1146104805780633bccf4fd1461049557600080fd5b8063160cbed7116102945780632656227d116102795780632656227d146104195780632d63f6931461042c5780632fe3e2611461044c57600080fd5b8063160cbed7146103e6578063227588b51461040657600080fd5b806303420181116102c5578063034201811461036057806306fdde0314610380578063150b7a02146103a257600080fd5b806301ffc9a71461030857806302a251a31461033d57600080fd5b3661030357306102ee610958565b6001600160a01b03161461030157600080fd5b005b600080fd5b34801561031457600080fd5b50610328610323366004613825565b610971565b60405190151581526020015b60405180910390f35b34801561034957600080fd5b50610352610982565b604051908152602001610334565b34801561036c57600080fd5b5061035261037b3660046139fb565b61098d565b34801561038c57600080fd5b50610395610a85565b6040516103349190613ccb565b3480156103ae57600080fd5b506103cd6103bd3660046134ef565b630a85bd0160e11b949350505050565b6040516001600160e01b03199091168152602001610334565b3480156103f257600080fd5b506103526104013660046136a5565b610b17565b6103016104143660046138da565b610f16565b6103526104273660046136a5565b610fd6565b34801561043857600080fd5b506103526104473660046138da565b6110fd565b34801561045857600080fd5b506103527fb3b3f3b703cd84ce352197dcff232b1b5d3cfb2025ce47cf04742d0651f1af8881565b34801561048c57600080fd5b50610352611136565b3480156104a157600080fd5b506103526104b0366004613aa2565b611141565b3480156104c157600080fd5b506104d56104d03660046138da565b6111b7565b6040516103349190613ca3565b3480156104ee57600080fd5b506103286104fd3660046138f3565b60008281526007602090815260408083206001600160a01b038516845260030190915290205460ff1692915050565b34801561053857600080fd5b506105666105473660046138da565b6000908152600760205260409020805460018201546002909201549092565b60408051938452602084019290925290820152606001610334565b34801561058d57600080fd5b506040805180820190915260018152603160f81b6020820152610395565b3480156105b757600080fd5b50600a546105cb906001600160a01b031681565b6040516001600160a01b039091168152602001610334565b3480156105ef57600080fd5b506103526105fe366004613923565b6111c2565b34801561060f57600080fd5b5061035261061e366004613991565b6112ff565b34801561062f57600080fd5b5061030161063e3660046138da565b611349565b34801561064f57600080fd5b5061035261065e36600461394f565b611403565b34801561066f57600080fd5b5061035261067e366004613735565b611455565b34801561068f57600080fd5b50600b546105cb906001600160a01b031681565b3480156106af57600080fd5b506103526106be36600461364c565b611463565b6103526106d1366004613923565b61147a565b3480156106e257600080fd5b506103016106f13660046138bd565b61158d565b34801561070257600080fd5b506103526107113660046138da565b611644565b34801561072257600080fd5b50610352611671565b34801561073757600080fd5b5061030161167c565b34801561074c57600080fd5b506103cd61075b366004613441565b63bc197c8160e01b95945050505050565b61035261077a366004613923565b6116e6565b34801561078b57600080fd5b5061035261079a3660046138da565b611797565b3480156107ab57600080fd5b506103016107ba3660046135f0565b6117c7565b3480156107cb57600080fd5b506103526107da3660046136a5565b6118be565b3480156107eb57600080fd5b506008546001600160a01b03166105cb565b34801561080957600080fd5b506040805180820190915260208082527f737570706f72743d627261766f2671756f72756d3d666f722c6162737461696e90820152610395565b34801561084f57600080fd5b506103527f150214d74d59b7d1e90c73fc22ef3d991dd0a76b046543d4d80ab92d2a50328f81565b34801561088357600080fd5b506103016108923660046138da565b6118f8565b3480156108a357600080fd5b506103526108b23660046135c4565b6119af565b3480156108c357600080fd5b506103016108d23660046138da565b6119d0565b3480156108e357600080fd5b506103cd6108f236600461355b565b63f23a6e6160e01b95945050505050565b34801561090f57600080fd5b5061035261091e3660046138da565b50600390565b34801561093057600080fd5b506105cb7f000000000000000000000000000000000000000000000000000000000000000081565b600061096c6008546001600160a01b031690565b905090565b600061097c82611a87565b92915050565b600061096c60055490565b600080610a31610a297fb3b3f3b703cd84ce352197dcff232b1b5d3cfb2025ce47cf04742d0651f1af888c8c8c8c6040516109c9929190613be5565b60405180910390208b80519060200120604051602001610a0e959493929190948552602085019390935260ff9190911660408401526060830152608082015260a00190565b60405160208183030381529060405280519060200120611aac565b868686611afa565b9050610a778a828b8b8b8080601f0160208091040260200160405190810160405280939291908181526020018383808284376000920191909152508d9250611b18915050565b9a9950505050505050505050565b606060008054610a9490613f61565b80601f0160208091040260200160405190810160405280929190818152602001828054610ac090613f61565b8015610b0d5780601f10610ae257610100808354040283529160200191610b0d565b820191906000526020600020905b815481529060010190602001808311610af057829003601f168201915b5050505050905090565b600080610b26868686866118be565b90506004610b33826111b7565b6007811115610b4457610b44613fcd565b14610ba05760405162461bcd60e51b815260206004820152602160248201527f476f7665726e6f723a2070726f706f73616c206e6f74207375636365737366756044820152601b60fa1b60648201526084015b60405180910390fd5b60085460408051630d48571f60e31b815290516000926001600160a01b031691636a42b8f8916004808301926020929190829003018186803b158015610be557600080fd5b505afa158015610bf9573d6000803e3d6000fd5b505050506040513d601f19601f82011682018060405250810190610c1d919061380c565b610c279042613ebb565b9050610c63610c3582611c7b565b600084815260096020526040902090815467ffffffffffffffff191667ffffffffffffffff91909116179055565b60005b8751811015610ed25760085488516001600160a01b039091169063f2b06537908a9084908110610c9857610c98613fe3565b6020026020010151898481518110610cb257610cb2613fe3565b6020026020010151898581518110610ccc57610ccc613fe3565b602002602001015186604051602001610ce89493929190613c11565b604051602081830303815290604052805190602001206040518263ffffffff1660e01b8152600401610d1c91815260200190565b60206040518083038186803b158015610d3457600080fd5b505afa158015610d48573d6000803e3d6000fd5b505050506040513d601f19601f82011682018060405250810190610d6c91906137ea565b15610dea5760405162461bcd60e51b815260206004820152604260248201527f476f7665726e6f7254696d656c6f636b436f6d706f756e643a206964656e746960448201527f63616c2070726f706f73616c20616374696f6e20616c72656164792071756575606482015261195960f21b608482015260a401610b97565b60085488516001600160a01b0390911690633a66f901908a9084908110610e1357610e13613fe3565b6020026020010151898481518110610e2d57610e2d613fe3565b6020026020010151898581518110610e4757610e47613fe3565b6020026020010151866040518563ffffffff1660e01b8152600401610e6f9493929190613c11565b602060405180830381600087803b158015610e8957600080fd5b505af1158015610e9d573d6000803e3d6000fd5b505050506040513d601f19601f82011682018060405250810190610ec1919061380c565b50610ecb81613f9c565b9050610c66565b5060408051838152602081018390527f9a2e42fd6722813d69113e7d0079d3d940171428df7373df9c7f7617cfda2892910160405180910390a15095945050505050565b6000610f3a33610f25846110fd565b60405180602001604052806000815250611cff565b90506000610f488280613eff565b90506103e8811115610f5957506103e85b80341015610fd1576040805162461bcd60e51b81526020600482015260248101919091527f51756164726174696320766f74696e673a20596f75206e656564206d6f72652060448201527f657468657220746f20636f76657220796f757220766f7465207765696768742e6064820152608401610b97565b505050565b600080610fe5868686866118be565b90506000610ff2826111b7565b9050600481600781111561100857611008613fcd565b14806110255750600581600781111561102357611023613fcd565b145b61107b5760405162461bcd60e51b815260206004820152602160248201527f476f7665726e6f723a2070726f706f73616c206e6f74207375636365737366756044820152601b60fa1b6064820152608401610b97565b600082815260016020818152604092839020600201805460ff191690921790915590518381527f712ae1383f79ac853f8d882153778e0260ef8f03b504e2866e0593e04d2b291f910160405180910390a16110d98288888888611da4565b6110e68288888888611e46565b6110f38288888888611e53565b5095945050505050565b600081815260016020908152604080832081519283019091525467ffffffffffffffff16908190525b67ffffffffffffffff1692915050565b600061096c60045490565b604080517f150214d74d59b7d1e90c73fc22ef3d991dd0a76b046543d4d80ab92d2a50328f602082015290810186905260ff85166060820152600090819061118f90610a2990608001610a0e565b90506111ac87828860405180602001604052806000815250611e90565b979650505050505050565b600061097c82611eb3565b600a546040516370a0823160e01b81523360048201526000916001916001600160a01b03909116906370a082319060240160206040518083038186803b15801561120b57600080fd5b505afa15801561121f573d6000803e3d6000fd5b505050506040513d601f19601f82011682018060405250810190611243919061380c565b101561129d5760405162461bcd60e51b815260206004820152602360248201527f596f75206d757374206265206120746f6b656e20686f6c64657220746f20766f6044820152623a329760e91b6064820152608401610b97565b3360006112ad82610f25876110fd565b90506112cb8583868460405180602001604052806000815250611fa3565b6112f68583866040518060200160405280600081525060405180602001604052806000815250611b18565b95945050505050565b6000803390506111ac87828888888080601f0160208091040260200160405190810160405280939291908181526020018383808284376000920191909152508a9250611b18915050565b611351610958565b6001600160a01b0316336001600160a01b0316146113ac5760405162461bcd60e51b8152602060048201526018602482015277476f7665726e6f723a206f6e6c79476f7665726e616e636560401b6044820152606401610b97565b306113b5610958565b6001600160a01b0316146113f757600080366040516113d5929190613be5565b604051809103902090505b806113eb6002612140565b146113f5576113e0565b505b611400816121d5565b50565b60008033905061144b86828787878080601f016020809104026020016040519081016040528093929190818152602001838380828437600092019190915250611e9092505050565b9695505050505050565b60006112f685858585612216565b6000611470848484611cff565b90505b9392505050565b600a546040516370a0823160e01b81523360048201526000916001916001600160a01b03909116906370a082319060240160206040518083038186803b1580156114c357600080fd5b505afa1580156114d7573d6000803e3d6000fd5b505050506040513d601f19601f820116820180604052508101906114fb919061380c565b10156115555760405162461bcd60e51b815260206004820152602360248201527f596f75206d757374206265206120746f6b656e20686f6c64657220746f20766f6044820152623a329760e91b6064820152608401610b97565b6000339050611585848285604051806020016040528060008152506040518060200160405280600081525061255d565b949350505050565b611595610958565b6001600160a01b0316336001600160a01b0316146115f05760405162461bcd60e51b8152602060048201526018602482015277476f7665726e6f723a206f6e6c79476f7665726e616e636560401b6044820152606401610b97565b306115f9610958565b6001600160a01b03161461163b5760008036604051611619929190613be5565b604051809103902090505b8061162f6002612140565b1461163957611624565b505b61140081612688565b600081815260096020908152604080832081519283019091525467ffffffffffffffff1690819052611126565b600061096c60065490565b600860009054906101000a90046001600160a01b03166001600160a01b0316630e18b6816040518163ffffffff1660e01b8152600401600060405180830381600087803b1580156116cc57600080fd5b505af11580156116e0573d6000803e3d6000fd5b50505050565b6000806116f633610f25866110fd565b905060006117048280613eff565b90506103e881111561171557506103e85b8034101561178d576040805162461bcd60e51b81526020600482015260248101919091527f51756164726174696320766f74696e673a20596f75206e656564206d6f72652060448201527f657468657220746f20636f76657220796f757220766f7465207765696768742e6064820152608401610b97565b6112f685856111c2565b600081815260016020818152604080842081519283019091529091015467ffffffffffffffff1690819052611126565b6117cf610958565b6001600160a01b0316336001600160a01b03161461182a5760405162461bcd60e51b8152602060048201526018602482015277476f7665726e6f723a206f6e6c79476f7665726e616e636560401b6044820152606401610b97565b30611833610958565b6001600160a01b0316146118755760008036604051611853929190613be5565b604051809103902090505b806118696002612140565b146118735761185e565b505b6118b78483838080601f016020809104026020016040519081016040528093929190818152602001838380828437600092019190915250889250612709915050565b5050505050565b6000848484846040516020016118d79493929190613c58565b60408051601f19818403018152919052805160209091012095945050505050565b611900610958565b6001600160a01b0316336001600160a01b03161461195b5760405162461bcd60e51b8152602060048201526018602482015277476f7665726e6f723a206f6e6c79476f7665726e616e636560401b6044820152606401610b97565b30611964610958565b6001600160a01b0316146119a65760008036604051611984929190613be5565b604051809103902090505b8061199a6002612140565b146119a45761198f565b505b6114008161272f565b600061147383836119cb60408051602081019091526000815290565b611cff565b6119d8610958565b6001600160a01b0316336001600160a01b031614611a335760405162461bcd60e51b8152602060048201526018602482015277476f7665726e6f723a206f6e6c79476f7665726e616e636560401b6044820152606401610b97565b30611a3c610958565b6001600160a01b031614611a7e5760008036604051611a5c929190613be5565b604051809103902090505b80611a726002612140565b14611a7c57611a67565b505b611400816127e6565b60006001600160e01b03198216636e665ced60e01b148061097c575061097c82612827565b600061097c611ab9612892565b8360405161190160f01b6020820152602281018390526042810182905260009060620160405160208183030381529060405280519060200120905092915050565b6000806000611b0b878787876129b9565b915091506110f381612aa6565b6000858152600160208190526040822090611b32886111b7565b6007811115611b4357611b43613fcd565b14611b9c5760405162461bcd60e51b815260206004820152602360248201527f476f7665726e6f723a20766f7465206e6f742063757272656e746c792061637460448201526269766560e81b6064820152608401610b97565b6040805160208101909152815467ffffffffffffffff1690819052600090611bc690889086611cff565b9050611bd58888888488611fa3565b8351611c2757866001600160a01b03167fb8e138887d0aa13bab447e82de9d5c1777041ecd21ca36ba824ff1e6c07ddda489888489604051611c1a9493929190613dd0565b60405180910390a26111ac565b866001600160a01b03167fe2babfbac5889a709b63bb7f598b324e08bc5a4fb9ec647fb3cbc9ec07eb87128988848989604051611c68959493929190613df8565b60405180910390a2979650505050505050565b600067ffffffffffffffff821115611cfb5760405162461bcd60e51b815260206004820152602660248201527f53616665436173743a2076616c756520646f65736e27742066697420696e203660448201527f34206269747300000000000000000000000000000000000000000000000000006064820152608401610b97565b5090565b604051630748d63560e31b81526001600160a01b038481166004830152602482018490526000917f000000000000000000000000000000000000000000000000000000000000000090911690633a46b1a89060440160206040518083038186803b158015611d6c57600080fd5b505afa158015611d80573d6000803e3d6000fd5b505050506040513d601f19601f82011682018060405250810190611470919061380c565b30611dad610958565b6001600160a01b0316146118b75760005b8451811015611e3e57306001600160a01b0316858281518110611de357611de3613fe3565b60200260200101516001600160a01b03161415611e2e57611e2e838281518110611e0f57611e0f613fe3565b6020026020010151805190602001206002612c6190919063ffffffff16565b611e3781613f9c565b9050611dbe565b505050505050565b6118b78585858585612cb0565b30611e5c610958565b6001600160a01b0316146118b757600254600f81810b810b600160801b909204810b900b13156118b75760006002556118b7565b60006112f685858585611eae60408051602081019091526000815290565b611b18565b600080611ebf83612e4a565b90506004816007811115611ed557611ed5613fcd565b14611ee05792915050565b6000611eeb84611644565b905080611ef9575092915050565b600860009054906101000a90046001600160a01b03166001600160a01b031663c1a287e26040518163ffffffff1660e01b815260040160206040518083038186803b158015611f4757600080fd5b505afa158015611f5b573d6000803e3d6000fd5b505050506040513d601f19601f82011682018060405250810190611f7f919061380c565b611f899082613ebb565b4210611f99575060069392505050565b5060059392505050565b60008581526007602090815260408083206001600160a01b0388168452600381019092529091205460ff16156120415760405162461bcd60e51b815260206004820152602760248201527f476f7665726e6f72566f74696e6753696d706c653a20766f746520616c72656160448201527f64792063617374000000000000000000000000000000000000000000000000006064820152608401610b97565b6001600160a01b03851660009081526003820160205260408120805460ff1916600117905560ff168460ff16141561209257828160000160008282546120879190613ebb565b90915550611e3e9050565b60ff8416600114156120b257828160010160008282546120879190613ebb565b60ff8416600214156120d257828160020160008282546120879190613ebb565b60405162461bcd60e51b815260206004820152603560248201527f476f7665726e6f72566f74696e6753696d706c653a20696e76616c696420766160448201527f6c756520666f7220656e756d20566f74655479706500000000000000000000006064820152608401610b97565b600061215f8254600f81810b810b600160801b909204810b900b131590565b1561217d57604051631ed9509560e11b815260040160405180910390fd5b508054600f90810b80820b820b600090815260018085016020526040822080549290558454920190920b6fffffffffffffffffffffffffffffffff166fffffffffffffffffffffffffffffffff199091161790915590565b60045460408051918252602082018390527fc565b045403dc03c2eea82b81a0465edad9e2e7fc4d97e11421c209da93d7a93910160405180910390a1600455565b6000612220611671565b61222f336108b2600143613f1e565b10156122a35760405162461bcd60e51b815260206004820152603160248201527f476f7665726e6f723a2070726f706f73657220766f7465732062656c6f77207060448201527f726f706f73616c207468726573686f6c640000000000000000000000000000006064820152608401610b97565b60006122b886868686805190602001206118be565b905084518651146123155760405162461bcd60e51b815260206004820152602160248201527f476f7665726e6f723a20696e76616c69642070726f706f73616c206c656e67746044820152600d60fb1b6064820152608401610b97565b83518651146123705760405162461bcd60e51b815260206004820152602160248201527f476f7665726e6f723a20696e76616c69642070726f706f73616c206c656e67746044820152600d60fb1b6064820152608401610b97565b60008651116123c15760405162461bcd60e51b815260206004820152601860248201527f476f7665726e6f723a20656d7074792070726f706f73616c00000000000000006044820152606401610b97565b6000818152600160209081526040918290208251918201909252815467ffffffffffffffff1690819052156124425760405162461bcd60e51b815260206004820152602160248201527f476f7665726e6f723a2070726f706f73616c20616c72656164792065786973746044820152607360f81b6064820152608401610b97565b600061245461244f611136565b611c7b565b61245d43611c7b565b6124679190613ed3565b9050600061247661244f610982565b6124809083613ed3565b835467ffffffffffffffff191667ffffffffffffffff8416178455905060018301805467ffffffffffffffff191667ffffffffffffffff83161790557f7d84a6263ae0d98d3329bd7b46bb4e8d6f98cd35a7adb45c274c8b7fd5ebd5e084338b8b8d5167ffffffffffffffff8111156124fb576124fb613ff9565b60405190808252806020026020018201604052801561252e57816020015b60608152602001906001900390816125195790505b508c88888e60405161254899989796959493929190613cde565b60405180910390a15091979650505050505050565b6000600161256a876111b7565b600781111561257b5761257b613fcd565b146125d45760405162461bcd60e51b815260206004820152602360248201527f476f7665726e6f723a20766f7465206e6f742063757272656e746c792061637460448201526269766560e81b6064820152608401610b97565b60016125e38787878487611fa3565b825161263557856001600160a01b03167fb8e138887d0aa13bab447e82de9d5c1777041ecd21ca36ba824ff1e6c07ddda4888784886040516126289493929190613dd0565b60405180910390a261144b565b856001600160a01b03167fe2babfbac5889a709b63bb7f598b324e08bc5a4fb9ec647fb3cbc9ec07eb87128887848888604051612676959493929190613df8565b60405180910390a29695505050505050565b600854604080516001600160a01b03928316815291831660208301527f08f74ea46ef7894f65eabfb5e6e695de773a000b47c529ab559178069b226401910160405180910390a1600880547fffffffffffffffffffffffff0000000000000000000000000000000000000000166001600160a01b0392909216919091179055565b606061147084848460405180606001604052806029815260200161402560299139612f56565b600081116127a55760405162461bcd60e51b815260206004820152602760248201527f476f7665726e6f7253657474696e67733a20766f74696e6720706572696f642060448201527f746f6f206c6f77000000000000000000000000000000000000000000000000006064820152608401610b97565b60055460408051918252602082018390527f7e3f7f0708a84de9203036abaa450dccc85ad5ff52f78c170f3edb55cf5e8828910160405180910390a1600555565b60065460408051918252602082018390527fccb45da8d5717e6c4544694297c4ba5cf151d455c9bb0ed4fc7a38411bc05461910160405180910390a1600655565b60006001600160e01b0319821663bf26d89760e01b148061285857506001600160e01b031982166379dd796f60e01b145b8061287357506001600160e01b03198216630271189760e51b145b8061097c57506301ffc9a760e01b6001600160e01b031983161461097c565b6000306001600160a01b037f0000000000000000000000000000000000000000000000000000000000000000161480156128eb57507f000000000000000000000000000000000000000000000000000000000000000046145b1561291557507f000000000000000000000000000000000000000000000000000000000000000090565b50604080517f00000000000000000000000000000000000000000000000000000000000000006020808301919091527f0000000000000000000000000000000000000000000000000000000000000000828401527f000000000000000000000000000000000000000000000000000000000000000060608301524660808301523060a0808401919091528351808403909101815260c0909201909252805191012090565b6000807f7fffffffffffffffffffffffffffffff5d576e7357a4501ddfe92f46681b20a08311156129f05750600090506003612a9d565b8460ff16601b14158015612a0857508460ff16601c14155b15612a195750600090506004612a9d565b6040805160008082526020820180845289905260ff881692820192909252606081018690526080810185905260019060a0016020604051602081039080840390855afa158015612a6d573d6000803e3d6000fd5b5050604051601f1901519150506001600160a01b038116612a9657600060019250925050612a9d565b9150600090505b94509492505050565b6000816004811115612aba57612aba613fcd565b1415612ac35750565b6001816004811115612ad757612ad7613fcd565b1415612b255760405162461bcd60e51b815260206004820152601860248201527f45434453413a20696e76616c6964207369676e617475726500000000000000006044820152606401610b97565b6002816004811115612b3957612b39613fcd565b1415612b875760405162461bcd60e51b815260206004820152601f60248201527f45434453413a20696e76616c6964207369676e6174757265206c656e677468006044820152606401610b97565b6003816004811115612b9b57612b9b613fcd565b1415612bf45760405162461bcd60e51b815260206004820152602260248201527f45434453413a20696e76616c6964207369676e6174757265202773272076616c604482015261756560f01b6064820152608401610b97565b6004816004811115612c0857612c08613fcd565b14156114005760405162461bcd60e51b815260206004820152602260248201527f45434453413a20696e76616c6964207369676e6174757265202776272076616c604482015261756560f01b6064820152608401610b97565b8154600160801b90819004600f90810b80820b820b6000908152600180870160205260409091209490945584549301900b6fffffffffffffffffffffffffffffffff9081169091029116179055565b6000612cbb86611644565b905060008111612d335760405162461bcd60e51b815260206004820152603160248201527f476f7665726e6f7254696d656c6f636b436f6d706f756e643a2070726f706f7360448201527f616c206e6f7420796574207175657565640000000000000000000000000000006064820152608401610b97565b600854612d49906001600160a01b031634613093565b60005b8551811015612e415760085486516001600160a01b0390911690630825f38f90889084908110612d7e57612d7e613fe3565b6020026020010151878481518110612d9857612d98613fe3565b6020026020010151878581518110612db257612db2613fe3565b6020026020010151866040518563ffffffff1660e01b8152600401612dda9493929190613c11565b600060405180830381600087803b158015612df457600080fd5b505af1158015612e08573d6000803e3d6000fd5b505050506040513d6000823e601f3d908101601f19168201604052612e30919081019061384f565b50612e3a81613f9c565b9050612d4c565b50505050505050565b6000818152600160205260408120600281015460ff1615612e6e5750600792915050565b6002810154610100900460ff1615612e895750600292915050565b6000612e94846110fd565b905080612ee35760405162461bcd60e51b815260206004820152601d60248201527f476f7665726e6f723a20756e6b6e6f776e2070726f706f73616c2069640000006044820152606401610b97565b438110612ef4575060009392505050565b6000612eff85611797565b9050438110612f1357506001949350505050565b612f1c856131ac565b8015612f3b575060008581526007602052604090208054600190910154115b15612f4b57506004949350505050565b506003949350505050565b606082471015612fce5760405162461bcd60e51b815260206004820152602660248201527f416464726573733a20696e73756666696369656e742062616c616e636520666f60448201527f722063616c6c00000000000000000000000000000000000000000000000000006064820152608401610b97565b6001600160a01b0385163b6130255760405162461bcd60e51b815260206004820152601d60248201527f416464726573733a2063616c6c20746f206e6f6e2d636f6e74726163740000006044820152606401610b97565b600080866001600160a01b031685876040516130419190613bf5565b60006040518083038185875af1925050503d806000811461307e576040519150601f19603f3d011682016040523d82523d6000602084013e613083565b606091505b50915091506111ac8282866131e3565b804710156130e35760405162461bcd60e51b815260206004820152601d60248201527f416464726573733a20696e73756666696369656e742062616c616e63650000006044820152606401610b97565b6000826001600160a01b03168260405160006040518083038185875af1925050503d8060008114613130576040519150601f19603f3d011682016040523d82523d6000602084013e613135565b606091505b5050905080610fd15760405162461bcd60e51b815260206004820152603a60248201527f416464726573733a20756e61626c6520746f2073656e642076616c75652c207260448201527f6563697069656e74206d617920686176652072657665727465640000000000006064820152608401610b97565b6000818152600760205260408120600281015460018201546131ce9190613ebb565b6131da61091e856110fd565b11159392505050565b606083156131f2575081611473565b8251156132025782518084602001fd5b8160405162461bcd60e51b8152600401610b979190613ccb565b600061322f61322a84613e93565b613e3e565b905082815283838301111561324357600080fd5b828260208301376000602084830101529392505050565b600082601f83011261326b57600080fd5b8135602061327b61322a83613e6f565b80838252828201915082860187848660051b890101111561329b57600080fd5b60005b858110156132c35781356132b18161400f565b8452928401929084019060010161329e565b5090979650505050505050565b600082601f8301126132e157600080fd5b813560206132f161322a83613e6f565b80838252828201915082860187848660051b890101111561331157600080fd5b6000805b8681101561335457823567ffffffffffffffff811115613333578283fd5b6133418b88838d010161340b565b8652509385019391850191600101613315565b509198975050505050505050565b600082601f83011261337357600080fd5b8135602061338361322a83613e6f565b80838252828201915082860187848660051b89010111156133a357600080fd5b60005b858110156132c3578135845292840192908401906001016133a6565b60008083601f8401126133d457600080fd5b50813567ffffffffffffffff8111156133ec57600080fd5b60208301915083602082850101111561340457600080fd5b9250929050565b600082601f83011261341c57600080fd5b6114738383356020850161321c565b803560ff8116811461343c57600080fd5b919050565b600080600080600060a0868803121561345957600080fd5b85356134648161400f565b945060208601356134748161400f565b9350604086013567ffffffffffffffff8082111561349157600080fd5b61349d89838a01613362565b945060608801359150808211156134b357600080fd5b6134bf89838a01613362565b935060808801359150808211156134d557600080fd5b506134e28882890161340b565b9150509295509295909350565b6000806000806080858703121561350557600080fd5b84356135108161400f565b935060208501356135208161400f565b925060408501359150606085013567ffffffffffffffff81111561354357600080fd5b61354f8782880161340b565b91505092959194509250565b600080600080600060a0868803121561357357600080fd5b853561357e8161400f565b9450602086013561358e8161400f565b93506040860135925060608601359150608086013567ffffffffffffffff8111156135b857600080fd5b6134e28882890161340b565b600080604083850312156135d757600080fd5b82356135e28161400f565b946020939093013593505050565b6000806000806060858703121561360657600080fd5b84356136118161400f565b935060208501359250604085013567ffffffffffffffff81111561363457600080fd5b613640878288016133c2565b95989497509550505050565b60008060006060848603121561366157600080fd5b833561366c8161400f565b925060208401359150604084013567ffffffffffffffff81111561368f57600080fd5b61369b8682870161340b565b9150509250925092565b600080600080608085870312156136bb57600080fd5b843567ffffffffffffffff808211156136d357600080fd5b6136df8883890161325a565b955060208701359150808211156136f557600080fd5b61370188838901613362565b9450604087013591508082111561371757600080fd5b50613724878288016132d0565b949793965093946060013593505050565b6000806000806080858703121561374b57600080fd5b843567ffffffffffffffff8082111561376357600080fd5b61376f8883890161325a565b9550602087013591508082111561378557600080fd5b61379188838901613362565b945060408701359150808211156137a757600080fd5b6137b3888389016132d0565b935060608701359150808211156137c957600080fd5b508501601f810187136137db57600080fd5b61354f8782356020840161321c565b6000602082840312156137fc57600080fd5b8151801515811461147357600080fd5b60006020828403121561381e57600080fd5b5051919050565b60006020828403121561383757600080fd5b81356001600160e01b03198116811461147357600080fd5b60006020828403121561386157600080fd5b815167ffffffffffffffff81111561387857600080fd5b8201601f8101841361388957600080fd5b805161389761322a82613e93565b8181528560208385010111156138ac57600080fd5b6112f6826020830160208601613f35565b6000602082840312156138cf57600080fd5b81356114738161400f565b6000602082840312156138ec57600080fd5b5035919050565b6000806040838503121561390657600080fd5b8235915060208301356139188161400f565b809150509250929050565b6000806040838503121561393657600080fd5b823591506139466020840161342b565b90509250929050565b6000806000806060858703121561396557600080fd5b843593506139756020860161342b565b9250604085013567ffffffffffffffff81111561363457600080fd5b6000806000806000608086880312156139a957600080fd5b853594506139b96020870161342b565b9350604086013567ffffffffffffffff808211156139d657600080fd5b6139e289838a016133c2565b909550935060608801359150808211156134d557600080fd5b60008060008060008060008060e0898b031215613a1757600080fd5b88359750613a2760208a0161342b565b9650604089013567ffffffffffffffff80821115613a4457600080fd5b613a508c838d016133c2565b909850965060608b0135915080821115613a6957600080fd5b50613a768b828c0161340b565b945050613a8560808a0161342b565b925060a0890135915060c089013590509295985092959890939650565b600080600080600060a08688031215613aba57600080fd5b85359450613aca6020870161342b565b9350613ad86040870161342b565b94979396509394606081013594506080013592915050565b600081518084526020808501945080840160005b83811015613b295781516001600160a01b031687529582019590820190600101613b04565b509495945050505050565b600081518084526020808501808196508360051b8101915082860160005b85811015613b7c578284038952613b6a848351613bb9565b98850198935090840190600101613b52565b5091979650505050505050565b600081518084526020808501945080840160005b83811015613b2957815187529582019590820190600101613b9d565b60008151808452613bd1816020860160208601613f35565b601f01601f19169290920160200192915050565b8183823760009101908152919050565b60008251613c07818460208701613f35565b9190910192915050565b6001600160a01b038516815283602082015260a06040820152600060a082015260c060608201526000613c4760c0830185613bb9565b905082608083015295945050505050565b608081526000613c6b6080830187613af0565b8281036020840152613c7d8187613b89565b90508281036040840152613c918186613b34565b91505082606083015295945050505050565b6020810160088310613cc557634e487b7160e01b600052602160045260246000fd5b91905290565b6020815260006114736020830184613bb9565b60006101208b835260206001600160a01b038c1681850152816040850152613d088285018c613af0565b91508382036060850152613d1c828b613b89565b915083820360808501528189518084528284019150828160051b850101838c0160005b83811015613d6d57601f19878403018552613d5b838351613bb9565b94860194925090850190600101613d3f565b505086810360a0880152613d81818c613b34565b945050505050613d9d60c084018767ffffffffffffffff169052565b67ffffffffffffffff851660e0840152828103610100840152613dc08185613bb9565b9c9b505050505050505050505050565b84815260ff8416602082015282604082015260806060820152600061144b6080830184613bb9565b85815260ff8516602082015283604082015260a060608201526000613e2060a0830185613bb9565b8281036080840152613e328185613bb9565b98975050505050505050565b604051601f8201601f1916810167ffffffffffffffff81118282101715613e6757613e67613ff9565b604052919050565b600067ffffffffffffffff821115613e8957613e89613ff9565b5060051b60200190565b600067ffffffffffffffff821115613ead57613ead613ff9565b50601f01601f191660200190565b60008219821115613ece57613ece613fb7565b500190565b600067ffffffffffffffff808316818516808303821115613ef657613ef6613fb7565b01949350505050565b6000816000190483118215151615613f1957613f19613fb7565b500290565b600082821015613f3057613f30613fb7565b500390565b60005b83811015613f50578181015183820152602001613f38565b838111156116e05750506000910152565b600181811c90821680613f7557607f821691505b60208210811415613f9657634e487b7160e01b600052602260045260246000fd5b50919050565b6000600019821415613fb057613fb0613fb7565b5060010190565b634e487b7160e01b600052601160045260246000fd5b634e487b7160e01b600052602160045260246000fd5b634e487b7160e01b600052603260045260246000fd5b634e487b7160e01b600052604160045260246000fd5b6001600160a01b038116811461140057600080fdfe416464726573733a206c6f772d6c6576656c2063616c6c20776974682076616c7565206661696c6564a164736f6c6343000806000a",
  "linkReferences": {},
  "deployedLinkReferences": {}
}