{
  "_format": "hh-sol-artifact-1",
  "contractName": "MyGovernor",
  "sourceName": "contracts/MyGovernor.sol",
  "abi": [
    {
      "inputs": [
        {
          "internalType": "contract IVotes",
          "name": "_token",
          "type": "address"
        },
        {
          "internalType": "contract ICompoundTimelock",
          "name": "_timelock",
          "type": "address"
        }
      ],
      "stateMutability": "nonpayable",
      "type": "constructor"
    },
    {
      "inputs": [],
      "name": "Empty",
      "type": "error"
    },
    {
      "anonymous": false,
      "inputs": [
        {
          "indexed": false,
          "internalType": "uint256",
          "name": "proposalId",
          "type": "uint256"
        }
      ],
      "name": "ProposalCanceled",
      "type": "event"
    },
    {
      "anonymous": false,
      "inputs": [
        {
          "indexed": false,
          "internalType": "uint256",
          "name": "proposalId",
          "type": "uint256"
        },
        {
          "indexed": false,
          "internalType": "address",
          "name": "proposer",
          "type": "address"
        },
        {
          "indexed": false,
          "internalType": "address[]",
          "name": "targets",
          "type": "address[]"
        },
        {
          "indexed": false,
          "internalType": "uint256[]",
          "name": "values",
          "type": "uint256[]"
        },
        {
          "indexed": false,
          "internalType": "string[]",
          "name": "signatures",
          "type": "string[]"
        },
        {
          "indexed": false,
          "internalType": "bytes[]",
          "name": "calldatas",
          "type": "bytes[]"
        },
        {
          "indexed": false,
          "internalType": "uint256",
          "name": "startBlock",
          "type": "uint256"
        },
        {
          "indexed": false,
          "internalType": "uint256",
          "name": "endBlock",
          "type": "uint256"
        },
        {
          "indexed": false,
          "internalType": "string",
          "name": "description",
          "type": "string"
        }
      ],
      "name": "ProposalCreated",
      "type": "event"
    },
    {
      "anonymous": false,
      "inputs": [
        {
          "indexed": false,
          "internalType": "uint256",
          "name": "proposalId",
          "type": "uint256"
        }
      ],
      "name": "ProposalExecuted",
      "type": "event"
    },
    {
      "anonymous": false,
      "inputs": [
        {
          "indexed": false,
          "internalType": "uint256",
          "name": "proposalId",
          "type": "uint256"
        },
        {
          "indexed": false,
          "internalType": "uint256",
          "name": "eta",
          "type": "uint256"
        }
      ],
      "name": "ProposalQueued",
      "type": "event"
    },
    {
      "anonymous": false,
      "inputs": [
        {
          "indexed": false,
          "internalType": "uint256",
          "name": "oldProposalThreshold",
          "type": "uint256"
        },
        {
          "indexed": false,
          "internalType": "uint256",
          "name": "newProposalThreshold",
          "type": "uint256"
        }
      ],
      "name": "ProposalThresholdSet",
      "type": "event"
    },
    {
      "anonymous": false,
      "inputs": [
        {
          "indexed": false,
          "internalType": "address",
          "name": "oldTimelock",
          "type": "address"
        },
        {
          "indexed": false,
          "internalType": "address",
          "name": "newTimelock",
          "type": "address"
        }
      ],
      "name": "TimelockChange",
      "type": "event"
    },
    {
      "anonymous": false,
      "inputs": [
        {
          "indexed": true,
          "internalType": "address",
          "name": "voter",
          "type": "address"
        },
        {
          "indexed": false,
          "internalType": "uint256",
          "name": "proposalId",
          "type": "uint256"
        },
        {
          "indexed": false,
          "internalType": "uint8",
          "name": "support",
          "type": "uint8"
        },
        {
          "indexed": false,
          "internalType": "uint256",
          "name": "weight",
          "type": "uint256"
        },
        {
          "indexed": false,
          "internalType": "string",
          "name": "reason",
          "type": "string"
        }
      ],
      "name": "VoteCast",
      "type": "event"
    },
    {
      "anonymous": false,
      "inputs": [
        {
          "indexed": true,
          "internalType": "address",
          "name": "voter",
          "type": "address"
        },
        {
          "indexed": false,
          "internalType": "uint256",
          "name": "proposalId",
          "type": "uint256"
        },
        {
          "indexed": false,
          "internalType": "uint8",
          "name": "support",
          "type": "uint8"
        },
        {
          "indexed": false,
          "internalType": "uint256",
          "name": "weight",
          "type": "uint256"
        },
        {
          "indexed": false,
          "internalType": "string",
          "name": "reason",
          "type": "string"
        },
        {
          "indexed": false,
          "internalType": "bytes",
          "name": "params",
          "type": "bytes"
        }
      ],
      "name": "VoteCastWithParams",
      "type": "event"
    },
    {
      "anonymous": false,
      "inputs": [
        {
          "indexed": false,
          "internalType": "uint256",
          "name": "oldVotingDelay",
          "type": "uint256"
        },
        {
          "indexed": false,
          "internalType": "uint256",
          "name": "newVotingDelay",
          "type": "uint256"
        }
      ],
      "name": "VotingDelaySet",
      "type": "event"
    },
    {
      "anonymous": false,
      "inputs": [
        {
          "indexed": false,
          "internalType": "uint256",
          "name": "oldVotingPeriod",
          "type": "uint256"
        },
        {
          "indexed": false,
          "internalType": "uint256",
          "name": "newVotingPeriod",
          "type": "uint256"
        }
      ],
      "name": "VotingPeriodSet",
      "type": "event"
    },
    {
      "inputs": [],
      "name": "BALLOT_TYPEHASH",
      "outputs": [
        {
          "internalType": "bytes32",
          "name": "",
          "type": "bytes32"
        }
      ],
      "stateMutability": "view",
      "type": "function"
    },
    {
      "inputs": [],
      "name": "COUNTING_MODE",
      "outputs": [
        {
          "internalType": "string",
          "name": "",
          "type": "string"
        }
      ],
      "stateMutability": "pure",
      "type": "function"
    },
    {
      "inputs": [],
      "name": "EXTENDED_BALLOT_TYPEHASH",
      "outputs": [
        {
          "internalType": "bytes32",
          "name": "",
          "type": "bytes32"
        }
      ],
      "stateMutability": "view",
      "type": "function"
    },
    {
      "inputs": [],
      "name": "__acceptAdmin",
      "outputs": [],
      "stateMutability": "nonpayable",
      "type": "function"
    },
    {
      "inputs": [
        {
          "internalType": "uint256",
          "name": "proposalId",
          "type": "uint256"
        },
        {
          "internalType": "uint8",
          "name": "support",
          "type": "uint8"
        }
      ],
      "name": "castVote",
      "outputs": [
        {
          "internalType": "uint256",
          "name": "",
          "type": "uint256"
        }
      ],
      "stateMutability": "nonpayable",
      "type": "function"
    },
    {
      "inputs": [
        {
          "internalType": "uint256",
          "name": "proposalId",
          "type": "uint256"
        },
        {
          "internalType": "uint8",
          "name": "support",
          "type": "uint8"
        }
      ],
      "name": "castVoteAllIn",
      "outputs": [
        {
          "internalType": "uint256",
          "name": "",
          "type": "uint256"
        }
      ],
      "stateMutability": "payable",
      "type": "function"
    },
    {
      "inputs": [
        {
          "internalType": "uint256",
          "name": "proposalId",
          "type": "uint256"
        },
        {
          "internalType": "uint8",
          "name": "support",
          "type": "uint8"
        },
        {
          "internalType": "uint8",
          "name": "v",
          "type": "uint8"
        },
        {
          "internalType": "bytes32",
          "name": "r",
          "type": "bytes32"
        },
        {
          "internalType": "bytes32",
          "name": "s",
          "type": "bytes32"
        }
      ],
      "name": "castVoteBySig",
      "outputs": [
        {
          "internalType": "uint256",
          "name": "",
          "type": "uint256"
        }
      ],
      "stateMutability": "nonpayable",
      "type": "function"
    },
    {
      "inputs": [
        {
          "internalType": "uint256",
          "name": "proposalId",
          "type": "uint256"
        },
        {
          "internalType": "uint8",
          "name": "support",
          "type": "uint8"
        }
      ],
      "name": "castVoteSimple",
      "outputs": [
        {
          "internalType": "uint256",
          "name": "",
          "type": "uint256"
        }
      ],
      "stateMutability": "payable",
      "type": "function"
    },
    {
      "inputs": [
        {
          "internalType": "uint256",
          "name": "proposalId",
          "type": "uint256"
        },
        {
          "internalType": "uint8",
          "name": "support",
          "type": "uint8"
        },
        {
          "internalType": "string",
          "name": "reason",
          "type": "string"
        }
      ],
      "name": "castVoteWithReason",
      "outputs": [
        {
          "internalType": "uint256",
          "name": "",
          "type": "uint256"
        }
      ],
      "stateMutability": "nonpayable",
      "type": "function"
    },
    {
      "inputs": [
        {
          "internalType": "uint256",
          "name": "proposalId",
          "type": "uint256"
        },
        {
          "internalType": "uint8",
          "name": "support",
          "type": "uint8"
        },
        {
          "internalType": "string",
          "name": "reason",
          "type": "string"
        },
        {
          "internalType": "bytes",
          "name": "params",
          "type": "bytes"
        }
      ],
      "name": "castVoteWithReasonAndParams",
      "outputs": [
        {
          "internalType": "uint256",
          "name": "",
          "type": "uint256"
        }
      ],
      "stateMutability": "nonpayable",
      "type": "function"
    },
    {
      "inputs": [
        {
          "internalType": "uint256",
          "name": "proposalId",
          "type": "uint256"
        },
        {
          "internalType": "uint8",
          "name": "support",
          "type": "uint8"
        },
        {
          "internalType": "string",
          "name": "reason",
          "type": "string"
        },
        {
          "internalType": "bytes",
          "name": "params",
          "type": "bytes"
        },
        {
          "internalType": "uint8",
          "name": "v",
          "type": "uint8"
        },
        {
          "internalType": "bytes32",
          "name": "r",
          "type": "bytes32"
        },
        {
          "internalType": "bytes32",
          "name": "s",
          "type": "bytes32"
        }
      ],
      "name": "castVoteWithReasonAndParamsBySig",
      "outputs": [
        {
          "internalType": "uint256",
          "name": "",
          "type": "uint256"
        }
      ],
      "stateMutability": "nonpayable",
      "type": "function"
    },
    {
      "inputs": [
        {
          "internalType": "address[]",
          "name": "targets",
          "type": "address[]"
        },
        {
          "internalType": "uint256[]",
          "name": "values",
          "type": "uint256[]"
        },
        {
          "internalType": "bytes[]",
          "name": "calldatas",
          "type": "bytes[]"
        },
        {
          "internalType": "bytes32",
          "name": "descriptionHash",
          "type": "bytes32"
        }
      ],
      "name": "execute",
      "outputs": [
        {
          "internalType": "uint256",
          "name": "",
          "type": "uint256"
        }
      ],
      "stateMutability": "payable",
      "type": "function"
    },
    {
      "inputs": [],
      "name": "getBalance",
      "outputs": [
        {
          "internalType": "uint256",
          "name": "",
          "type": "uint256"
        }
      ],
      "stateMutability": "view",
      "type": "function"
    },
    {
      "inputs": [
        {
          "internalType": "uint256",
          "name": "proposalId",
          "type": "uint256"
        }
      ],
      "name": "getProposerBudget",
      "outputs": [
        {
          "internalType": "uint256",
          "name": "",
          "type": "uint256"
        }
      ],
      "stateMutability": "view",
      "type": "function"
    },
    {
      "inputs": [
        {
          "internalType": "uint256",
          "name": "proposalId",
          "type": "uint256"
        }
      ],
      "name": "getProposerName",
      "outputs": [
        {
          "internalType": "address",
          "name": "",
          "type": "address"
        }
      ],
      "stateMutability": "view",
      "type": "function"
    },
    {
      "inputs": [
        {
          "internalType": "address",
          "name": "account",
          "type": "address"
        },
        {
          "internalType": "uint256",
          "name": "blockNumber",
          "type": "uint256"
        }
      ],
      "name": "getVotes",
      "outputs": [
        {
          "internalType": "uint256",
          "name": "",
          "type": "uint256"
        }
      ],
      "stateMutability": "view",
      "type": "function"
    },
    {
      "inputs": [
        {
          "internalType": "address",
          "name": "account",
          "type": "address"
        },
        {
          "internalType": "uint256",
          "name": "blockNumber",
          "type": "uint256"
        },
        {
          "internalType": "bytes",
          "name": "params",
          "type": "bytes"
        }
      ],
      "name": "getVotesWithParams",
      "outputs": [
        {
          "internalType": "uint256",
          "name": "",
          "type": "uint256"
        }
      ],
      "stateMutability": "view",
      "type": "function"
    },
    {
      "inputs": [
        {
          "internalType": "uint256",
          "name": "proposalId",
          "type": "uint256"
        },
        {
          "internalType": "address",
          "name": "account",
          "type": "address"
        }
      ],
      "name": "hasVoted",
      "outputs": [
        {
          "internalType": "bool",
          "name": "",
          "type": "bool"
        }
      ],
      "stateMutability": "view",
      "type": "function"
    },
    {
      "inputs": [
        {
          "internalType": "address[]",
          "name": "targets",
          "type": "address[]"
        },
        {
          "internalType": "uint256[]",
          "name": "values",
          "type": "uint256[]"
        },
        {
          "internalType": "bytes[]",
          "name": "calldatas",
          "type": "bytes[]"
        },
        {
          "internalType": "bytes32",
          "name": "descriptionHash",
          "type": "bytes32"
        }
      ],
      "name": "hashProposal",
      "outputs": [
        {
          "internalType": "uint256",
          "name": "",
          "type": "uint256"
        }
      ],
      "stateMutability": "pure",
      "type": "function"
    },
    {
      "inputs": [],
      "name": "name",
      "outputs": [
        {
          "internalType": "string",
          "name": "",
          "type": "string"
        }
      ],
      "stateMutability": "view",
      "type": "function"
    },
    {
      "inputs": [
        {
          "internalType": "address",
          "name": "",
          "type": "address"
        },
        {
          "internalType": "address",
          "name": "",
          "type": "address"
        },
        {
          "internalType": "uint256[]",
          "name": "",
          "type": "uint256[]"
        },
        {
          "internalType": "uint256[]",
          "name": "",
          "type": "uint256[]"
        },
        {
          "internalType": "bytes",
          "name": "",
          "type": "bytes"
        }
      ],
      "name": "onERC1155BatchReceived",
      "outputs": [
        {
          "internalType": "bytes4",
          "name": "",
          "type": "bytes4"
        }
      ],
      "stateMutability": "nonpayable",
      "type": "function"
    },
    {
      "inputs": [
        {
          "internalType": "address",
          "name": "",
          "type": "address"
        },
        {
          "internalType": "address",
          "name": "",
          "type": "address"
        },
        {
          "internalType": "uint256",
          "name": "",
          "type": "uint256"
        },
        {
          "internalType": "uint256",
          "name": "",
          "type": "uint256"
        },
        {
          "internalType": "bytes",
          "name": "",
          "type": "bytes"
        }
      ],
      "name": "onERC1155Received",
      "outputs": [
        {
          "internalType": "bytes4",
          "name": "",
          "type": "bytes4"
        }
      ],
      "stateMutability": "nonpayable",
      "type": "function"
    },
    {
      "inputs": [
        {
          "internalType": "address",
          "name": "",
          "type": "address"
        },
        {
          "internalType": "address",
          "name": "",
          "type": "address"
        },
        {
          "internalType": "uint256",
          "name": "",
          "type": "uint256"
        },
        {
          "internalType": "bytes",
          "name": "",
          "type": "bytes"
        }
      ],
      "name": "onERC721Received",
      "outputs": [
        {
          "internalType": "bytes4",
          "name": "",
          "type": "bytes4"
        }
      ],
      "stateMutability": "nonpayable",
      "type": "function"
    },
    {
      "inputs": [],
      "name": "owner",
      "outputs": [
        {
          "internalType": "address",
          "name": "",
          "type": "address"
        }
      ],
      "stateMutability": "view",
      "type": "function"
    },
    {
      "inputs": [
        {
          "internalType": "uint256",
          "name": "proposalId",
          "type": "uint256"
        }
      ],
      "name": "proposalDeadline",
      "outputs": [
        {
          "internalType": "uint256",
          "name": "",
          "type": "uint256"
        }
      ],
      "stateMutability": "view",
      "type": "function"
    },
    {
      "inputs": [
        {
          "internalType": "uint256",
          "name": "proposalId",
          "type": "uint256"
        }
      ],
      "name": "proposalEta",
      "outputs": [
        {
          "internalType": "uint256",
          "name": "",
          "type": "uint256"
        }
      ],
      "stateMutability": "view",
      "type": "function"
    },
    {
      "inputs": [
        {
          "internalType": "uint256",
          "name": "proposalId",
          "type": "uint256"
        }
      ],
      "name": "proposalSnapshot",
      "outputs": [
        {
          "internalType": "uint256",
          "name": "",
          "type": "uint256"
        }
      ],
      "stateMutability": "view",
      "type": "function"
    },
    {
      "inputs": [],
      "name": "proposalThreshold",
      "outputs": [
        {
          "internalType": "uint256",
          "name": "",
          "type": "uint256"
        }
      ],
      "stateMutability": "view",
      "type": "function"
    },
    {
      "inputs": [
        {
          "internalType": "uint256",
          "name": "proposalId",
          "type": "uint256"
        }
      ],
      "name": "proposalVotes",
      "outputs": [
        {
          "internalType": "uint256",
          "name": "againstVotes",
          "type": "uint256"
        },
        {
          "internalType": "uint256",
          "name": "forVotes",
          "type": "uint256"
        },
        {
          "internalType": "uint256",
          "name": "abstainVotes",
          "type": "uint256"
        }
      ],
      "stateMutability": "view",
      "type": "function"
    },
    {
      "inputs": [
        {
          "internalType": "address[]",
          "name": "targets",
          "type": "address[]"
        },
        {
          "internalType": "uint256[]",
          "name": "values",
          "type": "uint256[]"
        },
        {
          "internalType": "bytes[]",
          "name": "calldatas",
          "type": "bytes[]"
        },
        {
          "internalType": "string",
          "name": "description",
          "type": "string"
        }
      ],
      "name": "propose",
      "outputs": [
        {
          "internalType": "uint256",
          "name": "",
          "type": "uint256"
        }
      ],
      "stateMutability": "nonpayable",
      "type": "function"
    },
    {
      "inputs": [
        {
          "internalType": "uint256",
          "name": "proposalId",
          "type": "uint256"
        }
      ],
      "name": "quadraticVoting",
      "outputs": [],
      "stateMutability": "payable",
      "type": "function"
    },
    {
      "inputs": [
        {
          "internalType": "address[]",
          "name": "targets",
          "type": "address[]"
        },
        {
          "internalType": "uint256[]",
          "name": "values",
          "type": "uint256[]"
        },
        {
          "internalType": "bytes[]",
          "name": "calldatas",
          "type": "bytes[]"
        },
        {
          "internalType": "bytes32",
          "name": "descriptionHash",
          "type": "bytes32"
        }
      ],
      "name": "queue",
      "outputs": [
        {
          "internalType": "uint256",
          "name": "",
          "type": "uint256"
        }
      ],
      "stateMutability": "nonpayable",
      "type": "function"
    },
    {
      "inputs": [
        {
          "internalType": "uint256",
          "name": "blockNumber",
          "type": "uint256"
        }
      ],
      "name": "quorum",
      "outputs": [
        {
          "internalType": "uint256",
          "name": "",
          "type": "uint256"
        }
      ],
      "stateMutability": "pure",
      "type": "function"
    },
    {
      "inputs": [
        {
          "internalType": "address",
          "name": "target",
          "type": "address"
        },
        {
          "internalType": "uint256",
          "name": "value",
          "type": "uint256"
        },
        {
          "internalType": "bytes",
          "name": "data",
          "type": "bytes"
        }
      ],
      "name": "relay",
      "outputs": [],
      "stateMutability": "nonpayable",
      "type": "function"
    },
    {
      "inputs": [
        {
          "internalType": "uint256",
          "name": "proposalId",
          "type": "uint256"
        },
        {
          "internalType": "uint256",
          "name": "budget",
          "type": "uint256"
        }
      ],
      "name": "setProposalBudget",
      "outputs": [],
      "stateMutability": "nonpayable",
      "type": "function"
    },
    {
      "inputs": [
        {
          "internalType": "uint256",
          "name": "newProposalThreshold",
          "type": "uint256"
        }
      ],
      "name": "setProposalThreshold",
      "outputs": [],
      "stateMutability": "nonpayable",
      "type": "function"
    },
    {
      "inputs": [
        {
          "internalType": "uint256",
          "name": "newVotingDelay",
          "type": "uint256"
        }
      ],
      "name": "setVotingDelay",
      "outputs": [],
      "stateMutability": "nonpayable",
      "type": "function"
    },
    {
      "inputs": [
        {
          "internalType": "uint256",
          "name": "newVotingPeriod",
          "type": "uint256"
        }
      ],
      "name": "setVotingPeriod",
      "outputs": [],
      "stateMutability": "nonpayable",
      "type": "function"
    },
    {
      "inputs": [
        {
          "internalType": "uint256",
          "name": "proposalId",
          "type": "uint256"
        }
      ],
      "name": "state",
      "outputs": [
        {
          "internalType": "enum IGovernor.ProposalState",
          "name": "",
          "type": "uint8"
        }
      ],
      "stateMutability": "view",
      "type": "function"
    },
    {
      "inputs": [
        {
          "internalType": "bytes4",
          "name": "interfaceId",
          "type": "bytes4"
        }
      ],
      "name": "supportsInterface",
      "outputs": [
        {
          "internalType": "bool",
          "name": "",
          "type": "bool"
        }
      ],
      "stateMutability": "view",
      "type": "function"
    },
    {
      "inputs": [],
      "name": "timelock",
      "outputs": [
        {
          "internalType": "address",
          "name": "",
          "type": "address"
        }
      ],
      "stateMutability": "view",
      "type": "function"
    },
    {
      "inputs": [],
      "name": "timelockAddress",
      "outputs": [
        {
          "internalType": "contract ICompoundTimelock",
          "name": "",
          "type": "address"
        }
      ],
      "stateMutability": "view",
      "type": "function"
    },
    {
      "inputs": [],
      "name": "token",
      "outputs": [
        {
          "internalType": "contract IVotes",
          "name": "",
          "type": "address"
        }
      ],
      "stateMutability": "view",
      "type": "function"
    },
    {
      "inputs": [],
      "name": "tokenAddress",
      "outputs": [
        {
          "internalType": "address",
          "name": "",
          "type": "address"
        }
      ],
      "stateMutability": "view",
      "type": "function"
    },
    {
      "inputs": [
        {
          "internalType": "address payable",
          "name": "_receiver",
          "type": "address"
        },
        {
          "internalType": "uint256",
          "name": "amount",
          "type": "uint256"
        }
      ],
      "name": "transferFunds",
      "outputs": [],
      "stateMutability": "payable",
      "type": "function"
    },
    {
      "inputs": [
        {
          "internalType": "contract ICompoundTimelock",
          "name": "newTimelock",
          "type": "address"
        }
      ],
      "name": "updateTimelock",
      "outputs": [],
      "stateMutability": "nonpayable",
      "type": "function"
    },
    {
      "inputs": [],
      "name": "version",
      "outputs": [
        {
          "internalType": "string",
          "name": "",
          "type": "string"
        }
      ],
      "stateMutability": "view",
      "type": "function"
    },
    {
      "inputs": [],
      "name": "votingDelay",
      "outputs": [
        {
          "internalType": "uint256",
          "name": "",
          "type": "uint256"
        }
      ],
      "stateMutability": "view",
      "type": "function"
    },
    {
      "inputs": [],
      "name": "votingPeriod",
      "outputs": [
        {
          "internalType": "uint256",
          "name": "",
          "type": "uint256"
        }
      ],
      "stateMutability": "view",
      "type": "function"
    },
    {
      "stateMutability": "payable",
      "type": "receive"
    }
  ],
  "bytecode": "0x6101606040523480156200001257600080fd5b5060405162004652380380620046528339810160408190526200003591620003f2565b80826001601460026040518060400160405280600a81526020016926bca3b7bb32b93737b960b11b8152508062000071620001a060201b60201c565b815160208084019190912082518383012060e08290526101008190524660a0818152604080517f8b73c3c69bb8fe3d512ecc4cf759cc79239f7b179b0ffacaa9a75d522b39400f81880181905281830187905260608201869052608082019490945230818401528151808203909301835260c00190528051940193909320919290916080523060601b60c05261012052505082516200011a92506000915060208401906200034c565b5062000128905083620001bb565b6200013382620001fc565b6200013e81620002a2565b50505060601b6001600160601b031916610140526200015d81620002e3565b50600a80546001600160a01b039384166001600160a01b031991821617909155600b80549290931691811691909117909155600c80549091163317905562000487565b6040805180820190915260018152603160f81b602082015290565b60045460408051918252602082018390527fc565b045403dc03c2eea82b81a0465edad9e2e7fc4d97e11421c209da93d7a93910160405180910390a1600455565b60008111620002615760405162461bcd60e51b815260206004820152602760248201527f476f7665726e6f7253657474696e67733a20766f74696e6720706572696f6420604482015266746f6f206c6f7760c81b606482015260840160405180910390fd5b60055460408051918252602082018390527f7e3f7f0708a84de9203036abaa450dccc85ad5ff52f78c170f3edb55cf5e8828910160405180910390a1600555565b60065460408051918252602082018390527fccb45da8d5717e6c4544694297c4ba5cf151d455c9bb0ed4fc7a38411bc05461910160405180910390a1600655565b600854604080516001600160a01b03928316815291831660208301527f08f74ea46ef7894f65eabfb5e6e695de773a000b47c529ab559178069b226401910160405180910390a1600880546001600160a01b0319166001600160a01b0392909216919091179055565b8280546200035a9062000431565b90600052602060002090601f0160209004810192826200037e5760008555620003c9565b82601f106200039957805160ff1916838001178555620003c9565b82800160010185558215620003c9579182015b82811115620003c9578251825591602001919060010190620003ac565b50620003d7929150620003db565b5090565b5b80821115620003d75760008155600101620003dc565b600080604083850312156200040657600080fd5b825162000413816200046e565b602084015190925062000426816200046e565b809150509250929050565b600181811c908216806200044657607f821691505b602082108114156200046857634e487b7160e01b600052602260045260246000fd5b50919050565b6001600160a01b03811681146200048457600080fd5b50565b60805160a05160c05160601c60e05161010051610120516101405160601c614163620004ef6000396000818161091c0152611e72015260006128d301526000612922015260006128fd0152600061285601526000612880015260006128aa01526141636000f3fe6080604052600436106102325760003560e01c806301ffc9a71461025a57806302a251a31461028f57806303420181146102b257806306fdde03146102d257806312065fe0146102f4578063150b7a0214610307578063160cbed71461034b578063227588b51461036b5780632656227d1461037e5780632d63f693146103915780632fe3e261146103b15780633932abb1146103d35780633bccf4fd146103e85780633e4f49e614610408578063438596321461043557806345df67ce1461047f5780634bc66f32146104c2578063544ffc9c146104e257806354fd4d501461053757806356781388146105615780635d949972146105815780635f398a14146105a15780636a9bb000146105c157806370b0f660146105f15780637b3c71d3146106115780637d5e81e2146106315780638da5cb5b14610651578063990dc9db146106715780639a802a6d146106845780639c61248a146106a45780639d76ea58146106b7578063a890c910146106d7578063ab58fb8e146106f7578063b58131b014610717578063b9a619611461072c578063bc197c8114610741578063c006b57f1461076d578063c01f9e3714610780578063c28bc2fa146107a0578063c59057e4146107c0578063d33219b4146107e0578063dd4e2ba5146107f5578063deaaa7cc1461083b578063ea0217cf1461085d578063eb9019d41461087d578063ece40cc11461089d578063f23a6e61146108bd578063f8ce560a146108e9578063fc0c546a1461090a57600080fd5b36610255573061024061093e565b6001600160a01b03161461025357600080fd5b005b600080fd5b34801561026657600080fd5b5061027a610275366004613748565b61094d565b60405190151581526020015b60405180910390f35b34801561029b57600080fd5b506102a461095e565b604051908152602001610286565b3480156102be57600080fd5b506102a46102cd36600461393d565b610969565b3480156102de57600080fd5b506102e7610a4f565b6040516102869190613c0f565b34801561030057600080fd5b50476102a4565b34801561031357600080fd5b50610332610322366004613444565b630a85bd0160e11b949350505050565b6040516001600160e01b03199091168152602001610286565b34801561035757600080fd5b506102a46103663660046135ca565b610ae1565b6102536103793660046137fc565b610ec6565b6102a461038c3660046135ca565b610f86565b34801561039d57600080fd5b506102a46103ac3660046137fc565b61108e565b3480156103bd57600080fd5b506102a46000805160206140ce83398151915281565b3480156103df57600080fd5b506102a46110c5565b3480156103f457600080fd5b506102a46104033660046139e3565b6110d0565b34801561041457600080fd5b506104286104233660046137fc565b611134565b6040516102869190613be7565b34801561044157600080fd5b5061027a610450366004613815565b60008281526007602090815260408083206001600160a01b038516845260030190915290205460ff1692915050565b34801561048b57600080fd5b506104b561049a3660046137fc565b6000908152600e60205260409020546001600160a01b031690565b6040516102869190613b42565b3480156104ce57600080fd5b50600b546104b5906001600160a01b031681565b3480156104ee57600080fd5b5061051c6104fd3660046137fc565b6000908152600760205260409020805460018201546002909201549092565b60408051938452602084019290925290820152606001610286565b34801561054357600080fd5b506040805180820190915260018152603160f81b60208201526102e7565b34801561056d57600080fd5b506102a461057c366004613867565b61113f565b34801561058d57600080fd5b5061025361059c366004613845565b61121b565b3480156105ad57600080fd5b506102a46105bc3660046138d4565b61134b565b3480156105cd57600080fd5b506102a46105dc3660046137fc565b6000908152600e602052604090206001015490565b3480156105fd57600080fd5b5061025361060c3660046137fc565b611395565b34801561061d57600080fd5b506102a461062c366004613893565b611424565b34801561063d57600080fd5b506102a461064c366004613659565b611476565b34801561065d57600080fd5b50600c546104b5906001600160a01b031681565b61025361067f36600461336b565b611560565b34801561069057600080fd5b506102a461069f366004613572565b6115dc565b6102a46106b2366004613867565b6115f3565b3480156106c357600080fd5b50600a546104b5906001600160a01b031681565b3480156106e357600080fd5b506102536106f23660046137df565b6116c7565b34801561070357600080fd5b506102a46107123660046137fc565b611753565b34801561072357600080fd5b506102a461177f565b34801561073857600080fd5b5061025361178a565b34801561074d57600080fd5b5061033261075c366004613397565b63bc197c8160e01b95945050505050565b6102a461077b366004613867565b6117f4565b34801561078c57600080fd5b506102a461079b3660046137fc565b6119a6565b3480156107ac57600080fd5b506102536107bb366004613517565b6119d5565b3480156107cc57600080fd5b506102a46107db3660046135ca565b611aa1565b3480156107ec57600080fd5b506104b5611adb565b34801561080157600080fd5b506040805180820190915260208082527f737570706f72743d627261766f2671756f72756d3d666f722c6162737461696e908201526102e7565b34801561084757600080fd5b506102a46000805160206140ae83398151915281565b34801561086957600080fd5b506102536108783660046137fc565b611aea565b34801561088957600080fd5b506102a461089836600461336b565b611b76565b3480156108a957600080fd5b506102536108b83660046137fc565b611b97565b3480156108c957600080fd5b506103326108d83660046134af565b63f23a6e6160e01b95945050505050565b3480156108f557600080fd5b506102a46109043660046137fc565b50600390565b34801561091657600080fd5b506104b57f000000000000000000000000000000000000000000000000000000000000000081565b6000610948611adb565b905090565b600061095882611c23565b92915050565b600061094860055490565b6000806109fb6109f36000805160206140ce8339815191528c8c8c8c604051610993929190613b16565b60405180910390208b805190602001206040516020016109d8959493929190948552602085019390935260ff9190911660408401526060830152608082015260a00190565b60405160208183030381529060405280519060200120611c48565b868686611c96565b9050610a418a828b8b8b8080601f0160208091040260200160405190810160405280939291908181526020018383808284376000920191909152508d9250611cbe915050565b9a9950505050505050505050565b606060008054610a5e90613fea565b80601f0160208091040260200160405190810160405280929190818152602001828054610a8a90613fea565b8015610ad75780601f10610aac57610100808354040283529160200191610ad7565b820191906000526020600020905b815481529060010190602001808311610aba57829003601f168201915b5050505050905090565b600080610af086868686611aa1565b90506004610afd82611134565b6007811115610b0e57610b0e614056565b14610b6a5760405162461bcd60e51b815260206004820152602160248201527f476f7665726e6f723a2070726f706f73616c206e6f74207375636365737366756044820152601b60fa1b60648201526084015b60405180910390fd5b60085460408051630d48571f60e31b815290516000926001600160a01b031691636a42b8f8916004808301926020929190829003018186803b158015610baf57600080fd5b505afa158015610bc3573d6000803e3d6000fd5b505050506040513d601f19601f82011682018060405250810190610be7919061372f565b610bf19042613f45565b9050610c13610bff82611dc0565b600084815260096020526040902090611e2c565b60005b8751811015610e825760085488516001600160a01b039091169063f2b06537908a9084908110610c4857610c4861406c565b6020026020010151898481518110610c6257610c6261406c565b6020026020010151898581518110610c7c57610c7c61406c565b602002602001015186604051602001610c989493929190613b56565b604051602081830303815290604052805190602001206040518263ffffffff1660e01b8152600401610ccc91815260200190565b60206040518083038186803b158015610ce457600080fd5b505afa158015610cf8573d6000803e3d6000fd5b505050506040513d601f19601f82011682018060405250810190610d1c919061370d565b15610d9a5760405162461bcd60e51b815260206004820152604260248201527f476f7665726e6f7254696d656c6f636b436f6d706f756e643a206964656e746960448201527f63616c2070726f706f73616c20616374696f6e20616c72656164792071756575606482015261195960f21b608482015260a401610b61565b60085488516001600160a01b0390911690633a66f901908a9084908110610dc357610dc361406c565b6020026020010151898481518110610ddd57610ddd61406c565b6020026020010151898581518110610df757610df761406c565b6020026020010151866040518563ffffffff1660e01b8152600401610e1f9493929190613b56565b602060405180830381600087803b158015610e3957600080fd5b505af1158015610e4d573d6000803e3d6000fd5b505050506040513d601f19601f82011682018060405250810190610e71919061372f565b50610e7b81614025565b9050610c16565b507f9a2e42fd6722813d69113e7d0079d3d940171428df7373df9c7f7617cfda28928282604051610eb4929190613e5b565b60405180910390a15095945050505050565b6000610eea33610ed58461108e565b60405180602001604052806000815250611e49565b90506000610ef88280613f88565b90506103e8811115610f0957506103e85b80341015610f81576040805162461bcd60e51b81526020600482015260248101919091527f51756164726174696320766f74696e673a20596f75206e656564206d6f72652060448201527f657468657220746f20636f76657220796f757220766f7465207765696768742e6064820152608401610b61565b505050565b6000610f9061177f565b600a546040516370a0823160e01b81526001600160a01b03909116906370a0823190610fc0903390600401613b42565b60206040518083038186803b158015610fd857600080fd5b505afa158015610fec573d6000803e3d6000fd5b505050506040513d601f19601f82011682018060405250810190611010919061372f565b101561102e5760405162461bcd60e51b8152600401610b6190613d1b565b600061103c86868686611aa1565b6000818152600e602052604090208054600190910154919250611078916001600160a01b039091169061107390633b9aca00613f88565b611eee565b6110858187878787611f8e565b95945050505050565b60008181526001602090815260408083208151928301909152546001600160401b0316908190525b6001600160401b031692915050565b600061094860045490565b604080516000805160206140ae833981519152602082015290810186905260ff85166060820152600090819061110c906109f3906080016109d8565b90506111298782886040518060200160405280600081525061211c565b979650505050505050565b60006109588261213f565b600a546040516370a0823160e01b81526000916001916001600160a01b03909116906370a0823190611175903390600401613b42565b60206040518083038186803b15801561118d57600080fd5b505afa1580156111a1573d6000803e3d6000fd5b505050506040513d601f19601f820116820180604052508101906111c5919061372f565b10156111e35760405162461bcd60e51b8152600401610b6190613c95565b60003390506112138482856040518060200160405280600081525060405180602001604052806000815250611cbe565b949350505050565b6000828152600e60205260409020546001600160a01b031633146112a75760405162461bcd60e51b815260206004820152603f60248201527f476f7665726e6f723a206f6e6c79207468652070726f706f7365722063616e2060448201527f7365742074686520627564676574206f66207468652070726f706f73616c2e006064820152608401610b61565b60006112b283611134565b60078111156112c3576112c3614056565b146113365760405162461bcd60e51b815260206004820152603e60248201527f476f7665726e6f723a2063616e6e6f74206368616e6765206275646765742e2060448201527f50726f706f73616c20766f746520616c726561647920737461727465642e00006064820152608401610b61565b6000918252600e602052604090912060010155565b60008033905061112987828888888080601f0160208091040260200160405190810160405280939291908181526020018383808284376000920191909152508a9250611cbe915050565b61139d61093e565b6001600160a01b0316336001600160a01b0316146113cd5760405162461bcd60e51b8152600401610b6190613c22565b306113d661093e565b6001600160a01b03161461141857600080366040516113f6929190613b16565b604051809103902090505b8061140c600261222f565b1461141657611401565b505b611421816122b2565b50565b60008033905061146c86828787878080601f01602080910402602001604051908101604052809392919081815260200183838082843760009201919091525061211c92505050565b9695505050505050565b600061148061177f565b600a546040516370a0823160e01b81526001600160a01b03909116906370a08231906114b0903390600401613b42565b60206040518083038186803b1580156114c857600080fd5b505afa1580156114dc573d6000803e3d6000fd5b505050506040513d601f19601f82011682018060405250810190611500919061372f565b101561151e5760405162461bcd60e51b8152600401610b6190613d1b565b60006115338686868680519060200120611aa1565b6000818152600e6020526040902080546001600160a01b03191633178155909150611129878787876122f2565b600c546001600160a01b031633146115a65760405162461bcd60e51b81526020600482015260096024820152682737ba1037bbb732b960b91b6044820152606401610b61565b6040516001600160a01b0383169082156108fc029083906000818181858888f19350505050158015610f81573d6000803e3d6000fd5b60006115e9848484611e49565b90505b9392505050565b600a546040516370a0823160e01b81526000916001916001600160a01b03909116906370a0823190611629903390600401613b42565b60206040518083038186803b15801561164157600080fd5b505afa158015611655573d6000803e3d6000fd5b505050506040513d601f19601f82011682018060405250810190611679919061372f565b10156116975760405162461bcd60e51b8152600401610b6190613c95565b60003390506112138482856040518060200160405280600081525060405180602001604052806000815250612545565b6116cf61093e565b6001600160a01b0316336001600160a01b0316146116ff5760405162461bcd60e51b8152600401610b6190613c22565b3061170861093e565b6001600160a01b03161461174a5760008036604051611728929190613b16565b604051809103902090505b8061173e600261222f565b1461174857611733565b505b61142181612610565b60008181526009602090815260408083208151928301909152546001600160401b0316908190526110b6565b600061094860065490565b600860009054906101000a90046001600160a01b03166001600160a01b0316630e18b6816040518163ffffffff1660e01b8152600401600060405180830381600087803b1580156117da57600080fd5b505af11580156117ee573d6000803e3d6000fd5b50505050565b600a546040516370a0823160e01b81526000916001916001600160a01b03909116906370a082319061182a903390600401613b42565b60206040518083038186803b15801561184257600080fd5b505afa158015611856573d6000803e3d6000fd5b505050506040513d601f19601f8201168201806040525081019061187a919061372f565b10156118985760405162461bcd60e51b8152600401610b6190613c95565b60006118a733610ed58661108e565b905060006118b58280613f88565b90506000662386f26fc1000060018414156118d357600091506118e0565b6118dd8184613f88565b91505b8134101561196a5760405162461bcd60e51b815260206004820152604b60248201527f596f75206e656564206d6f726520657468657220746f20766f7465207769746860448201527f20616c6c204e4654732e2028636f7374203d20286e566f746573295e32202a2060648201526a302e30312065746865722960a81b608482015260a401610b61565b600033905061199a8882896040518060200160405280600081525060405180602001604052806000815250612679565b98975050505050505050565b60008181526001602081815260408084208151928301909152909101546001600160401b0316908190526110b6565b6119dd61093e565b6001600160a01b0316336001600160a01b031614611a0d5760405162461bcd60e51b8152600401610b6190613c22565b30611a1661093e565b6001600160a01b031614611a585760008036604051611a36929190613b16565b604051809103902090505b80611a4c600261222f565b14611a5657611a41565b505b611a9a8483838080601f0160208091040260200160405190810160405280939291908181526020018383808284376000920191909152508892506126d8915050565b5050505050565b600084848484604051602001611aba9493929190613b9c565b60408051601f19818403018152919052805160209091012095945050505050565b6008546001600160a01b031690565b611af261093e565b6001600160a01b0316336001600160a01b031614611b225760405162461bcd60e51b8152600401610b6190613c22565b30611b2b61093e565b6001600160a01b031614611b6d5760008036604051611b4b929190613b16565b604051809103902090505b80611b61600261222f565b14611b6b57611b56565b505b611421816126fe565b60006115ec8383611b9260408051602081019091526000815290565b611e49565b611b9f61093e565b6001600160a01b0316336001600160a01b031614611bcf5760405162461bcd60e51b8152600401610b6190613c22565b30611bd861093e565b6001600160a01b031614611c1a5760008036604051611bf8929190613b16565b604051809103902090505b80611c0e600261222f565b14611c1857611c03565b505b6114218161279e565b60006001600160e01b03198216636e665ced60e01b14806109585750610958826127de565b6000610958611c55612849565b8360405161190160f01b6020820152602281018390526042810182905260009060620160405160208183030381529060405280519060200120905092915050565b6000806000611ca787878787612970565b91509150611cb481612a53565b5095945050505050565b6000858152600160208190526040822090611cd888611134565b6007811115611ce957611ce9614056565b14611d065760405162461bcd60e51b8152600401610b6190613cd8565b604080516020810190915281546001600160401b031690819052600090611d2f90889086611e49565b9050611d3e8888888488612c09565b8351611d7e57866001600160a01b031660008051602061413783398151915289888489604051611d719493929190613e69565b60405180910390a2611129565b866001600160a01b03166000805160206141178339815191528988848989604051611dad959493929190613e91565b60405180910390a2979650505050505050565b60006001600160401b03821115611e285760405162461bcd60e51b815260206004820152602660248201527f53616665436173743a2076616c756520646f65736e27742066697420696e203660448201526534206269747360d01b6064820152608401610b61565b5090565b81546001600160401b0319166001600160401b0391909116179055565b604051630748d63560e31b81526001600160a01b038481166004830152602482018490526000917f000000000000000000000000000000000000000000000000000000000000000090911690633a46b1a89060440160206040518083038186803b158015611eb657600080fd5b505afa158015611eca573d6000803e3d6000fd5b505050506040513d601f19601f820116820180604052508101906115e9919061372f565b600080836001600160a01b03168360405160006040518083038185875af1925050503d8060008114611f3c576040519150601f19603f3d011682016040523d82523d6000602084013e611f41565b606091505b5091509150816117ee5760405162461bcd60e51b81526020600482015260186024820152772330b4b632b2103a37903bb4ba34323930bb9022ba3432b960411b6044820152606401610b61565b6000611f9986611753565b9050600081116120055760405162461bcd60e51b815260206004820152603160248201527f476f7665726e6f7254696d656c6f636b436f6d706f756e643a2070726f706f73604482015270185b081b9bdd081e595d081c5d595d5959607a1b6064820152608401610b61565b60085461201b906001600160a01b031634612d90565b60005b85518110156121135760085486516001600160a01b0390911690630825f38f908890849081106120505761205061406c565b602002602001015187848151811061206a5761206a61406c565b60200260200101518785815181106120845761208461406c565b6020026020010151866040518563ffffffff1660e01b81526004016120ac9493929190613b56565b600060405180830381600087803b1580156120c657600080fd5b505af11580156120da573d6000803e3d6000fd5b505050506040513d6000823e601f3d908101601f191682016040526121029190810190613772565b5061210c81614025565b905061201e565b50505050505050565b60006110858585858561213a60408051602081019091526000815290565b611cbe565b60008061214b83612ea6565b9050600481600781111561216157612161614056565b1461216c5792915050565b600061217784611753565b905080612185575092915050565b600860009054906101000a90046001600160a01b03166001600160a01b031663c1a287e26040518163ffffffff1660e01b815260040160206040518083038186803b1580156121d357600080fd5b505afa1580156121e7573d6000803e3d6000fd5b505050506040513d601f19601f8201168201806040525081019061220b919061372f565b6122159082613f45565b4210612225575060069392505050565b5060059392505050565b600061224e8254600f81810b810b600160801b909204810b900b131590565b1561226c57604051631ed9509560e11b815260040160405180910390fd5b508054600f90810b80820b820b600090815260018085016020526040822080549290558454920190920b6001600160801b03166001600160801b03199091161790915590565b7fc565b045403dc03c2eea82b81a0465edad9e2e7fc4d97e11421c209da93d7a93600454826040516122e5929190613e5b565b60405180910390a1600455565b60006122fc61177f565b61230b33610898600143613fa7565b10156123295760405162461bcd60e51b8152600401610b6190613d1b565b600061233e8686868680519060200120611aa1565b905084518651146123615760405162461bcd60e51b8152600401610b6190613c54565b83518651146123825760405162461bcd60e51b8152600401610b6190613c54565b60008651116123ce5760405162461bcd60e51b815260206004820152601860248201527711dbdd995c9b9bdc8e88195b5c1d1e481c1c9bdc1bdcd85b60421b6044820152606401610b61565b600081815260016020908152604091829020825191820190925281546001600160401b0316908190521561244e5760405162461bcd60e51b815260206004820152602160248201527f476f7665726e6f723a2070726f706f73616c20616c72656164792065786973746044820152607360f81b6064820152608401610b61565b600061246061245b6110c5565b611dc0565b61246943611dc0565b6124739190613f5d565b9050600061248261245b61095e565b61248c9083613f5d565b90506124988383611e2c565b6124a56001840182611e2c565b7f7d84a6263ae0d98d3329bd7b46bb4e8d6f98cd35a7adb45c274c8b7fd5ebd5e084338b8b8d516001600160401b038111156124e3576124e3614082565b60405190808252806020026020018201604052801561251657816020015b60608152602001906001900390816125015790505b508c88888e60405161253099989796959493929190613d6c565b60405180910390a15091979650505050505050565b6000600161255287611134565b600781111561256357612563614056565b146125805760405162461bcd60e51b8152600401610b6190613cd8565b600161258f8787878487612c09565b82516125cf57856001600160a01b0316600080516020614137833981519152888784886040516125c29493929190613e69565b60405180910390a261146c565b856001600160a01b031660008051602061411783398151915288878488886040516125fe959493929190613e91565b60405180910390a29695505050505050565b600854604080516001600160a01b03928316815291831660208301527f08f74ea46ef7894f65eabfb5e6e695de773a000b47c529ab559178069b226401910160405180910390a1600880546001600160a01b0319166001600160a01b0392909216919091179055565b6000600161268687611134565b600781111561269757612697614056565b146126b45760405162461bcd60e51b8152600401610b6190613cd8565b60006126c9866126c38961108e565b85611e49565b905061258f8787878487612c09565b60606115e98484846040518060600160405280602981526020016140ee60299139612fb2565b6000811161275e5760405162461bcd60e51b815260206004820152602760248201527f476f7665726e6f7253657474696e67733a20766f74696e6720706572696f6420604482015266746f6f206c6f7760c81b6064820152608401610b61565b7f7e3f7f0708a84de9203036abaa450dccc85ad5ff52f78c170f3edb55cf5e882860055482604051612791929190613e5b565b60405180910390a1600555565b7fccb45da8d5717e6c4544694297c4ba5cf151d455c9bb0ed4fc7a38411bc05461600654826040516127d1929190613e5b565b60405180910390a1600655565b60006001600160e01b0319821663bf26d89760e01b148061280f57506001600160e01b031982166379dd796f60e01b145b8061282a57506001600160e01b03198216630271189760e51b145b8061095857506301ffc9a760e01b6001600160e01b0319831614610958565b6000306001600160a01b037f0000000000000000000000000000000000000000000000000000000000000000161480156128a257507f000000000000000000000000000000000000000000000000000000000000000046145b156128cc57507f000000000000000000000000000000000000000000000000000000000000000090565b50604080517f00000000000000000000000000000000000000000000000000000000000000006020808301919091527f0000000000000000000000000000000000000000000000000000000000000000828401527f000000000000000000000000000000000000000000000000000000000000000060608301524660808301523060a0808401919091528351808403909101815260c0909201909252805191012090565b6000806fa2a8918ca85bafe22016d0b997e4df60600160ff1b0383111561299d5750600090506003612a4a565b8460ff16601b141580156129b557508460ff16601c14155b156129c65750600090506004612a4a565b6040805160008082526020820180845289905260ff881692820192909252606081018690526080810185905260019060a0016020604051602081039080840390855afa158015612a1a573d6000803e3d6000fd5b5050604051601f1901519150506001600160a01b038116612a4357600060019250925050612a4a565b9150600090505b94509492505050565b6000816004811115612a6757612a67614056565b1415612a705750565b6001816004811115612a8457612a84614056565b1415612acd5760405162461bcd60e51b815260206004820152601860248201527745434453413a20696e76616c6964207369676e617475726560401b6044820152606401610b61565b6002816004811115612ae157612ae1614056565b1415612b2f5760405162461bcd60e51b815260206004820152601f60248201527f45434453413a20696e76616c6964207369676e6174757265206c656e677468006044820152606401610b61565b6003816004811115612b4357612b43614056565b1415612b9c5760405162461bcd60e51b815260206004820152602260248201527f45434453413a20696e76616c6964207369676e6174757265202773272076616c604482015261756560f01b6064820152608401610b61565b6004816004811115612bb057612bb0614056565b14156114215760405162461bcd60e51b815260206004820152602260248201527f45434453413a20696e76616c6964207369676e6174757265202776272076616c604482015261756560f01b6064820152608401610b61565b60008581526007602090815260408083206001600160a01b0388168452600381019092529091205460ff1615612c915760405162461bcd60e51b815260206004820152602760248201527f476f7665726e6f72566f74696e6753696d706c653a20766f746520616c726561604482015266191e4818d85cdd60ca1b6064820152608401610b61565b6001600160a01b03851660009081526003820160205260408120805460ff1916600117905560ff168460ff161415612ce25782816000016000828254612cd79190613f45565b90915550612d889050565b60ff841660011415612d025782816001016000828254612cd79190613f45565b60ff841660021415612d225782816002016000828254612cd79190613f45565b60405162461bcd60e51b815260206004820152603560248201527f476f7665726e6f72566f74696e6753696d706c653a20696e76616c69642076616044820152746c756520666f7220656e756d20566f74655479706560581b6064820152608401610b61565b505050505050565b80471015612de05760405162461bcd60e51b815260206004820152601d60248201527f416464726573733a20696e73756666696369656e742062616c616e63650000006044820152606401610b61565b6000826001600160a01b03168260405160006040518083038185875af1925050503d8060008114612e2d576040519150601f19603f3d011682016040523d82523d6000602084013e612e32565b606091505b5050905080610f815760405162461bcd60e51b815260206004820152603a60248201527f416464726573733a20756e61626c6520746f2073656e642076616c75652c20726044820152791958da5c1a595b9d081b585e481a185d99481c995d995c9d195960321b6064820152608401610b61565b6000818152600160205260408120600281015460ff1615612eca5750600792915050565b6002810154610100900460ff1615612ee55750600292915050565b6000612ef08461108e565b905080612f3f5760405162461bcd60e51b815260206004820152601d60248201527f476f7665726e6f723a20756e6b6e6f776e2070726f706f73616c2069640000006044820152606401610b61565b438110612f50575060009392505050565b6000612f5b856119a6565b9050438110612f6f57506001949350505050565b612f78856130d8565b8015612f97575060008581526007602052604090208054600190910154115b15612fa757506004949350505050565b506003949350505050565b6060824710156130135760405162461bcd60e51b815260206004820152602660248201527f416464726573733a20696e73756666696369656e742062616c616e636520666f6044820152651c8818d85b1b60d21b6064820152608401610b61565b6001600160a01b0385163b61306a5760405162461bcd60e51b815260206004820152601d60248201527f416464726573733a2063616c6c20746f206e6f6e2d636f6e74726163740000006044820152606401610b61565b600080866001600160a01b031685876040516130869190613b26565b60006040518083038185875af1925050503d80600081146130c3576040519150601f19603f3d011682016040523d82523d6000602084013e6130c8565b606091505b509150915061112982828661310f565b6000818152600760205260408120600281015460018201546130fa9190613f45565b6131066109048561108e565b11159392505050565b6060831561311e5750816115ec565b82511561312e5782518084602001fd5b8160405162461bcd60e51b8152600401610b619190613c0f565b600061315b61315684613f1e565b613ecb565b905082815283838301111561316f57600080fd5b828260208301376000602084830101529392505050565b600082601f83011261319757600080fd5b813560206131a761315683613efb565b80838252828201915082860187848660051b89010111156131c757600080fd5b60005b858110156131ef5781356131dd81614098565b845292840192908401906001016131ca565b5090979650505050505050565b600082601f83011261320d57600080fd5b8135602061321d61315683613efb565b80838252828201915082860187848660051b890101111561323d57600080fd5b6000805b8681101561327f5782356001600160401b0381111561325e578283fd5b61326c8b88838d0101613335565b8652509385019391850191600101613241565b509198975050505050505050565b600082601f83011261329e57600080fd5b813560206132ae61315683613efb565b80838252828201915082860187848660051b89010111156132ce57600080fd5b60005b858110156131ef578135845292840192908401906001016132d1565b60008083601f8401126132ff57600080fd5b5081356001600160401b0381111561331657600080fd5b60208301915083602082850101111561332e57600080fd5b9250929050565b600082601f83011261334657600080fd5b6115ec83833560208501613148565b803560ff8116811461336657600080fd5b919050565b6000806040838503121561337e57600080fd5b823561338981614098565b946020939093013593505050565b600080600080600060a086880312156133af57600080fd5b85356133ba81614098565b945060208601356133ca81614098565b935060408601356001600160401b03808211156133e657600080fd5b6133f289838a0161328d565b9450606088013591508082111561340857600080fd5b61341489838a0161328d565b9350608088013591508082111561342a57600080fd5b5061343788828901613335565b9150509295509295909350565b6000806000806080858703121561345a57600080fd5b843561346581614098565b9350602085013561347581614098565b92506040850135915060608501356001600160401b0381111561349757600080fd5b6134a387828801613335565b91505092959194509250565b600080600080600060a086880312156134c757600080fd5b85356134d281614098565b945060208601356134e281614098565b9350604086013592506060860135915060808601356001600160401b0381111561350b57600080fd5b61343788828901613335565b6000806000806060858703121561352d57600080fd5b843561353881614098565b93506020850135925060408501356001600160401b0381111561355a57600080fd5b613566878288016132ed565b95989497509550505050565b60008060006060848603121561358757600080fd5b833561359281614098565b92506020840135915060408401356001600160401b038111156135b457600080fd5b6135c086828701613335565b9150509250925092565b600080600080608085870312156135e057600080fd5b84356001600160401b03808211156135f757600080fd5b61360388838901613186565b9550602087013591508082111561361957600080fd5b6136258883890161328d565b9450604087013591508082111561363b57600080fd5b50613648878288016131fc565b949793965093946060013593505050565b6000806000806080858703121561366f57600080fd5b84356001600160401b038082111561368657600080fd5b61369288838901613186565b955060208701359150808211156136a857600080fd5b6136b48883890161328d565b945060408701359150808211156136ca57600080fd5b6136d6888389016131fc565b935060608701359150808211156136ec57600080fd5b508501601f810187136136fe57600080fd5b6134a387823560208401613148565b60006020828403121561371f57600080fd5b815180151581146115ec57600080fd5b60006020828403121561374157600080fd5b5051919050565b60006020828403121561375a57600080fd5b81356001600160e01b0319811681146115ec57600080fd5b60006020828403121561378457600080fd5b81516001600160401b0381111561379a57600080fd5b8201601f810184136137ab57600080fd5b80516137b961315682613f1e565b8181528560208385010111156137ce57600080fd5b611085826020830160208601613fbe565b6000602082840312156137f157600080fd5b81356115ec81614098565b60006020828403121561380e57600080fd5b5035919050565b6000806040838503121561382857600080fd5b82359150602083013561383a81614098565b809150509250929050565b6000806040838503121561385857600080fd5b50508035926020909101359150565b6000806040838503121561387a57600080fd5b8235915061388a60208401613355565b90509250929050565b600080600080606085870312156138a957600080fd5b843593506138b960208601613355565b925060408501356001600160401b0381111561355a57600080fd5b6000806000806000608086880312156138ec57600080fd5b853594506138fc60208701613355565b935060408601356001600160401b038082111561391857600080fd5b61392489838a016132ed565b9095509350606088013591508082111561342a57600080fd5b60008060008060008060008060e0898b03121561395957600080fd5b8835975061396960208a01613355565b965060408901356001600160401b038082111561398557600080fd5b6139918c838d016132ed565b909850965060608b01359150808211156139aa57600080fd5b506139b78b828c01613335565b9450506139c660808a01613355565b925060a0890135915060c089013590509295985092959890939650565b600080600080600060a086880312156139fb57600080fd5b85359450613a0b60208701613355565b9350613a1960408701613355565b94979396509394606081013594506080013592915050565b600081518084526020808501945080840160005b83811015613a6a5781516001600160a01b031687529582019590820190600101613a45565b509495945050505050565b6000815180845260208085019450848260051b860182860160005b858110156131ef578383038952613aa8838351613aea565b98850198925090840190600101613a90565b600081518084526020808501945080840160005b83811015613a6a57815187529582019590820190600101613ace565b60008151808452613b02816020860160208601613fbe565b601f01601f19169290920160200192915050565b8183823760009101908152919050565b60008251613b38818460208701613fbe565b9190910192915050565b6001600160a01b0391909116815260200190565b60018060a01b038516815283602082015260a06040820152600060a082015260c060608201526000613b8b60c0830185613aea565b905082608083015295945050505050565b608081526000613baf6080830187613a31565b8281036020840152613bc18187613aba565b90508281036040840152613bd58186613a75565b91505082606083015295945050505050565b6020810160088310613c0957634e487b7160e01b600052602160045260246000fd5b91905290565b6020815260006115ec6020830184613aea565b602080825260189082015277476f7665726e6f723a206f6e6c79476f7665726e616e636560401b604082015260600190565b60208082526021908201527f476f7665726e6f723a20696e76616c69642070726f706f73616c206c656e67746040820152600d60fb1b606082015260800190565b60208082526023908201527f596f75206d757374206265206120746f6b656e20686f6c64657220746f20766f6040820152623a329760e91b606082015260800190565b60208082526023908201527f476f7665726e6f723a20766f7465206e6f742063757272656e746c792061637460408201526269766560e81b606082015260800190565b60208082526031908201527f476f7665726e6f723a2070726f706f73657220766f7465732062656c6f7720706040820152701c9bdc1bdcd85b081d1a1c995cda1bdb19607a1b606082015260800190565b60006101208b8352602060018060a01b038c1681850152816040850152613d958285018c613a31565b91508382036060850152613da9828b613aba565b915083820360808501528189518084528284019150828160051b850101838c0160005b83811015613dfa57601f19878403018552613de8838351613aea565b94860194925090850190600101613dcc565b505086810360a0880152613e0e818c613a75565b945050505050613e2960c08401876001600160401b03169052565b6001600160401b03851660e0840152828103610100840152613e4b8185613aea565b9c9b505050505050505050505050565b918252602082015260400190565b84815260ff8416602082015282604082015260806060820152600061146c6080830184613aea565b85815260ff8516602082015283604082015260a060608201526000613eb960a0830185613aea565b828103608084015261199a8185613aea565b604051601f8201601f191681016001600160401b0381118282101715613ef357613ef3614082565b604052919050565b60006001600160401b03821115613f1457613f14614082565b5060051b60200190565b60006001600160401b03821115613f3757613f37614082565b50601f01601f191660200190565b60008219821115613f5857613f58614040565b500190565b60006001600160401b03828116848216808303821115613f7f57613f7f614040565b01949350505050565b6000816000190483118215151615613fa257613fa2614040565b500290565b600082821015613fb957613fb9614040565b500390565b60005b83811015613fd9578181015183820152602001613fc1565b838111156117ee5750506000910152565b600181811c90821680613ffe57607f821691505b6020821081141561401f57634e487b7160e01b600052602260045260246000fd5b50919050565b600060001982141561403957614039614040565b5060010190565b634e487b7160e01b600052601160045260246000fd5b634e487b7160e01b600052602160045260246000fd5b634e487b7160e01b600052603260045260246000fd5b634e487b7160e01b600052604160045260246000fd5b6001600160a01b038116811461142157600080fdfe150214d74d59b7d1e90c73fc22ef3d991dd0a76b046543d4d80ab92d2a50328fb3b3f3b703cd84ce352197dcff232b1b5d3cfb2025ce47cf04742d0651f1af88416464726573733a206c6f772d6c6576656c2063616c6c20776974682076616c7565206661696c6564e2babfbac5889a709b63bb7f598b324e08bc5a4fb9ec647fb3cbc9ec07eb8712b8e138887d0aa13bab447e82de9d5c1777041ecd21ca36ba824ff1e6c07ddda4a164736f6c6343000806000a",
  "linkReferences": {},
  "deployedLinkReferences": {}
}