{
  "_format": "hh-sol-artifact-1",
  "contractName": "MyGovernor",
  "sourceName": "contracts/MyGovernor.sol",
  "abi": [
    {
      "inputs": [
        {
          "internalType": "contract IVotes",
          "name": "_token",
          "type": "address"
        },
        {
          "internalType": "contract ICompoundTimelock",
          "name": "_timelock",
          "type": "address"
        },
        {
          "internalType": "contract IMyGovernorHelper",
          "name": "_helper",
          "type": "address"
        }
      ],
      "stateMutability": "nonpayable",
      "type": "constructor"
    },
    {
      "inputs": [],
      "name": "Empty",
      "type": "error"
    },
    {
      "anonymous": false,
      "inputs": [
        {
          "indexed": false,
          "internalType": "uint256",
          "name": "proposalId",
          "type": "uint256"
        }
      ],
      "name": "ProposalCanceled",
      "type": "event"
    },
    {
      "anonymous": false,
      "inputs": [
        {
          "indexed": false,
          "internalType": "uint256",
          "name": "proposalId",
          "type": "uint256"
        },
        {
          "indexed": false,
          "internalType": "address",
          "name": "proposer",
          "type": "address"
        },
        {
          "indexed": false,
          "internalType": "address[]",
          "name": "targets",
          "type": "address[]"
        },
        {
          "indexed": false,
          "internalType": "uint256[]",
          "name": "values",
          "type": "uint256[]"
        },
        {
          "indexed": false,
          "internalType": "string[]",
          "name": "signatures",
          "type": "string[]"
        },
        {
          "indexed": false,
          "internalType": "bytes[]",
          "name": "calldatas",
          "type": "bytes[]"
        },
        {
          "indexed": false,
          "internalType": "uint256",
          "name": "startBlock",
          "type": "uint256"
        },
        {
          "indexed": false,
          "internalType": "uint256",
          "name": "endBlock",
          "type": "uint256"
        },
        {
          "indexed": false,
          "internalType": "string",
          "name": "description",
          "type": "string"
        }
      ],
      "name": "ProposalCreated",
      "type": "event"
    },
    {
      "anonymous": false,
      "inputs": [
        {
          "indexed": false,
          "internalType": "uint256",
          "name": "proposalId",
          "type": "uint256"
        }
      ],
      "name": "ProposalExecuted",
      "type": "event"
    },
    {
      "anonymous": false,
      "inputs": [
        {
          "indexed": false,
          "internalType": "uint256",
          "name": "proposalId",
          "type": "uint256"
        },
        {
          "indexed": false,
          "internalType": "uint256",
          "name": "eta",
          "type": "uint256"
        }
      ],
      "name": "ProposalQueued",
      "type": "event"
    },
    {
      "anonymous": false,
      "inputs": [
        {
          "indexed": false,
          "internalType": "uint256",
          "name": "oldProposalThreshold",
          "type": "uint256"
        },
        {
          "indexed": false,
          "internalType": "uint256",
          "name": "newProposalThreshold",
          "type": "uint256"
        }
      ],
      "name": "ProposalThresholdSet",
      "type": "event"
    },
    {
      "anonymous": false,
      "inputs": [
        {
          "indexed": false,
          "internalType": "address",
          "name": "oldTimelock",
          "type": "address"
        },
        {
          "indexed": false,
          "internalType": "address",
          "name": "newTimelock",
          "type": "address"
        }
      ],
      "name": "TimelockChange",
      "type": "event"
    },
    {
      "anonymous": false,
      "inputs": [
        {
          "indexed": true,
          "internalType": "address",
          "name": "voter",
          "type": "address"
        },
        {
          "indexed": false,
          "internalType": "uint256",
          "name": "proposalId",
          "type": "uint256"
        },
        {
          "indexed": false,
          "internalType": "uint8",
          "name": "support",
          "type": "uint8"
        },
        {
          "indexed": false,
          "internalType": "uint256",
          "name": "weight",
          "type": "uint256"
        },
        {
          "indexed": false,
          "internalType": "string",
          "name": "reason",
          "type": "string"
        }
      ],
      "name": "VoteCast",
      "type": "event"
    },
    {
      "anonymous": false,
      "inputs": [
        {
          "indexed": true,
          "internalType": "address",
          "name": "voter",
          "type": "address"
        },
        {
          "indexed": false,
          "internalType": "uint256",
          "name": "proposalId",
          "type": "uint256"
        },
        {
          "indexed": false,
          "internalType": "uint8",
          "name": "support",
          "type": "uint8"
        },
        {
          "indexed": false,
          "internalType": "uint256",
          "name": "weight",
          "type": "uint256"
        },
        {
          "indexed": false,
          "internalType": "string",
          "name": "reason",
          "type": "string"
        },
        {
          "indexed": false,
          "internalType": "bytes",
          "name": "params",
          "type": "bytes"
        }
      ],
      "name": "VoteCastWithParams",
      "type": "event"
    },
    {
      "anonymous": false,
      "inputs": [
        {
          "indexed": false,
          "internalType": "uint256",
          "name": "oldVotingDelay",
          "type": "uint256"
        },
        {
          "indexed": false,
          "internalType": "uint256",
          "name": "newVotingDelay",
          "type": "uint256"
        }
      ],
      "name": "VotingDelaySet",
      "type": "event"
    },
    {
      "anonymous": false,
      "inputs": [
        {
          "indexed": false,
          "internalType": "uint256",
          "name": "oldVotingPeriod",
          "type": "uint256"
        },
        {
          "indexed": false,
          "internalType": "uint256",
          "name": "newVotingPeriod",
          "type": "uint256"
        }
      ],
      "name": "VotingPeriodSet",
      "type": "event"
    },
    {
      "inputs": [],
      "name": "BALLOT_TYPEHASH",
      "outputs": [
        {
          "internalType": "bytes32",
          "name": "",
          "type": "bytes32"
        }
      ],
      "stateMutability": "view",
      "type": "function"
    },
    {
      "inputs": [],
      "name": "COUNTING_MODE",
      "outputs": [
        {
          "internalType": "string",
          "name": "",
          "type": "string"
        }
      ],
      "stateMutability": "pure",
      "type": "function"
    },
    {
      "inputs": [],
      "name": "EXTENDED_BALLOT_TYPEHASH",
      "outputs": [
        {
          "internalType": "bytes32",
          "name": "",
          "type": "bytes32"
        }
      ],
      "stateMutability": "view",
      "type": "function"
    },
    {
      "inputs": [],
      "name": "__acceptAdmin",
      "outputs": [],
      "stateMutability": "nonpayable",
      "type": "function"
    },
    {
      "inputs": [
        {
          "internalType": "address[]",
          "name": "targets",
          "type": "address[]"
        },
        {
          "internalType": "uint256[]",
          "name": "values",
          "type": "uint256[]"
        },
        {
          "internalType": "bytes[]",
          "name": "calldatas",
          "type": "bytes[]"
        },
        {
          "internalType": "bytes32",
          "name": "descriptionHash",
          "type": "bytes32"
        }
      ],
      "name": "cancel",
      "outputs": [
        {
          "internalType": "uint256",
          "name": "",
          "type": "uint256"
        }
      ],
      "stateMutability": "nonpayable",
      "type": "function"
    },
    {
      "inputs": [
        {
          "internalType": "uint256",
          "name": "proposalId",
          "type": "uint256"
        },
        {
          "internalType": "uint8",
          "name": "support",
          "type": "uint8"
        }
      ],
      "name": "castVote",
      "outputs": [
        {
          "internalType": "uint256",
          "name": "",
          "type": "uint256"
        }
      ],
      "stateMutability": "nonpayable",
      "type": "function"
    },
    {
      "inputs": [
        {
          "internalType": "uint256",
          "name": "proposalId",
          "type": "uint256"
        },
        {
          "internalType": "uint8",
          "name": "support",
          "type": "uint8"
        }
      ],
      "name": "castVoteAllIn",
      "outputs": [
        {
          "internalType": "uint256",
          "name": "",
          "type": "uint256"
        }
      ],
      "stateMutability": "payable",
      "type": "function"
    },
    {
      "inputs": [
        {
          "internalType": "uint256",
          "name": "proposalId",
          "type": "uint256"
        },
        {
          "internalType": "uint8",
          "name": "support",
          "type": "uint8"
        },
        {
          "internalType": "uint8",
          "name": "v",
          "type": "uint8"
        },
        {
          "internalType": "bytes32",
          "name": "r",
          "type": "bytes32"
        },
        {
          "internalType": "bytes32",
          "name": "s",
          "type": "bytes32"
        }
      ],
      "name": "castVoteBySig",
      "outputs": [
        {
          "internalType": "uint256",
          "name": "",
          "type": "uint256"
        }
      ],
      "stateMutability": "nonpayable",
      "type": "function"
    },
    {
      "inputs": [
        {
          "internalType": "uint256",
          "name": "proposalId",
          "type": "uint256"
        },
        {
          "internalType": "uint8",
          "name": "support",
          "type": "uint8"
        }
      ],
      "name": "castVoteSimple",
      "outputs": [
        {
          "internalType": "uint256",
          "name": "",
          "type": "uint256"
        }
      ],
      "stateMutability": "payable",
      "type": "function"
    },
    {
      "inputs": [
        {
          "internalType": "uint256",
          "name": "proposalId",
          "type": "uint256"
        },
        {
          "internalType": "uint8",
          "name": "support",
          "type": "uint8"
        },
        {
          "internalType": "string",
          "name": "reason",
          "type": "string"
        }
      ],
      "name": "castVoteWithReason",
      "outputs": [
        {
          "internalType": "uint256",
          "name": "",
          "type": "uint256"
        }
      ],
      "stateMutability": "nonpayable",
      "type": "function"
    },
    {
      "inputs": [
        {
          "internalType": "uint256",
          "name": "proposalId",
          "type": "uint256"
        },
        {
          "internalType": "uint8",
          "name": "support",
          "type": "uint8"
        },
        {
          "internalType": "string",
          "name": "reason",
          "type": "string"
        },
        {
          "internalType": "bytes",
          "name": "params",
          "type": "bytes"
        }
      ],
      "name": "castVoteWithReasonAndParams",
      "outputs": [
        {
          "internalType": "uint256",
          "name": "",
          "type": "uint256"
        }
      ],
      "stateMutability": "nonpayable",
      "type": "function"
    },
    {
      "inputs": [
        {
          "internalType": "uint256",
          "name": "proposalId",
          "type": "uint256"
        },
        {
          "internalType": "uint8",
          "name": "support",
          "type": "uint8"
        },
        {
          "internalType": "string",
          "name": "reason",
          "type": "string"
        },
        {
          "internalType": "bytes",
          "name": "params",
          "type": "bytes"
        },
        {
          "internalType": "uint8",
          "name": "v",
          "type": "uint8"
        },
        {
          "internalType": "bytes32",
          "name": "r",
          "type": "bytes32"
        },
        {
          "internalType": "bytes32",
          "name": "s",
          "type": "bytes32"
        }
      ],
      "name": "castVoteWithReasonAndParamsBySig",
      "outputs": [
        {
          "internalType": "uint256",
          "name": "",
          "type": "uint256"
        }
      ],
      "stateMutability": "nonpayable",
      "type": "function"
    },
    {
      "inputs": [
        {
          "internalType": "address[]",
          "name": "targets",
          "type": "address[]"
        },
        {
          "internalType": "uint256[]",
          "name": "values",
          "type": "uint256[]"
        },
        {
          "internalType": "bytes[]",
          "name": "calldatas",
          "type": "bytes[]"
        },
        {
          "internalType": "bytes32",
          "name": "descriptionHash",
          "type": "bytes32"
        }
      ],
      "name": "execute",
      "outputs": [
        {
          "internalType": "uint256",
          "name": "",
          "type": "uint256"
        }
      ],
      "stateMutability": "payable",
      "type": "function"
    },
    {
      "inputs": [],
      "name": "getBalance",
      "outputs": [
        {
          "internalType": "uint256",
          "name": "",
          "type": "uint256"
        }
      ],
      "stateMutability": "view",
      "type": "function"
    },
    {
      "inputs": [
        {
          "internalType": "uint256",
          "name": "proposalId",
          "type": "uint256"
        }
      ],
      "name": "getChildBoxAddress",
      "outputs": [
        {
          "internalType": "address",
          "name": "",
          "type": "address"
        }
      ],
      "stateMutability": "view",
      "type": "function"
    },
    {
      "inputs": [
        {
          "internalType": "uint256",
          "name": "proposalId",
          "type": "uint256"
        }
      ],
      "name": "getProposerBudget",
      "outputs": [
        {
          "internalType": "uint256",
          "name": "",
          "type": "uint256"
        }
      ],
      "stateMutability": "view",
      "type": "function"
    },
    {
      "inputs": [
        {
          "internalType": "uint256",
          "name": "proposalId",
          "type": "uint256"
        }
      ],
      "name": "getProposerName",
      "outputs": [
        {
          "internalType": "address",
          "name": "",
          "type": "address"
        }
      ],
      "stateMutability": "view",
      "type": "function"
    },
    {
      "inputs": [
        {
          "internalType": "address",
          "name": "account",
          "type": "address"
        },
        {
          "internalType": "uint256",
          "name": "blockNumber",
          "type": "uint256"
        }
      ],
      "name": "getVotes",
      "outputs": [
        {
          "internalType": "uint256",
          "name": "",
          "type": "uint256"
        }
      ],
      "stateMutability": "view",
      "type": "function"
    },
    {
      "inputs": [
        {
          "internalType": "address",
          "name": "account",
          "type": "address"
        },
        {
          "internalType": "uint256",
          "name": "blockNumber",
          "type": "uint256"
        },
        {
          "internalType": "bytes",
          "name": "params",
          "type": "bytes"
        }
      ],
      "name": "getVotesWithParams",
      "outputs": [
        {
          "internalType": "uint256",
          "name": "",
          "type": "uint256"
        }
      ],
      "stateMutability": "view",
      "type": "function"
    },
    {
      "inputs": [
        {
          "internalType": "uint256",
          "name": "proposalId",
          "type": "uint256"
        },
        {
          "internalType": "address",
          "name": "account",
          "type": "address"
        }
      ],
      "name": "hasVoted",
      "outputs": [
        {
          "internalType": "bool",
          "name": "",
          "type": "bool"
        }
      ],
      "stateMutability": "view",
      "type": "function"
    },
    {
      "inputs": [
        {
          "internalType": "address[]",
          "name": "targets",
          "type": "address[]"
        },
        {
          "internalType": "uint256[]",
          "name": "values",
          "type": "uint256[]"
        },
        {
          "internalType": "bytes[]",
          "name": "calldatas",
          "type": "bytes[]"
        },
        {
          "internalType": "bytes32",
          "name": "descriptionHash",
          "type": "bytes32"
        }
      ],
      "name": "hashProposal",
      "outputs": [
        {
          "internalType": "uint256",
          "name": "",
          "type": "uint256"
        }
      ],
      "stateMutability": "pure",
      "type": "function"
    },
    {
      "inputs": [],
      "name": "helper",
      "outputs": [
        {
          "internalType": "address",
          "name": "",
          "type": "address"
        }
      ],
      "stateMutability": "view",
      "type": "function"
    },
    {
      "inputs": [],
      "name": "name",
      "outputs": [
        {
          "internalType": "string",
          "name": "",
          "type": "string"
        }
      ],
      "stateMutability": "view",
      "type": "function"
    },
    {
      "inputs": [
        {
          "internalType": "address",
          "name": "",
          "type": "address"
        },
        {
          "internalType": "address",
          "name": "",
          "type": "address"
        },
        {
          "internalType": "uint256[]",
          "name": "",
          "type": "uint256[]"
        },
        {
          "internalType": "uint256[]",
          "name": "",
          "type": "uint256[]"
        },
        {
          "internalType": "bytes",
          "name": "",
          "type": "bytes"
        }
      ],
      "name": "onERC1155BatchReceived",
      "outputs": [
        {
          "internalType": "bytes4",
          "name": "",
          "type": "bytes4"
        }
      ],
      "stateMutability": "nonpayable",
      "type": "function"
    },
    {
      "inputs": [
        {
          "internalType": "address",
          "name": "",
          "type": "address"
        },
        {
          "internalType": "address",
          "name": "",
          "type": "address"
        },
        {
          "internalType": "uint256",
          "name": "",
          "type": "uint256"
        },
        {
          "internalType": "uint256",
          "name": "",
          "type": "uint256"
        },
        {
          "internalType": "bytes",
          "name": "",
          "type": "bytes"
        }
      ],
      "name": "onERC1155Received",
      "outputs": [
        {
          "internalType": "bytes4",
          "name": "",
          "type": "bytes4"
        }
      ],
      "stateMutability": "nonpayable",
      "type": "function"
    },
    {
      "inputs": [
        {
          "internalType": "address",
          "name": "",
          "type": "address"
        },
        {
          "internalType": "address",
          "name": "",
          "type": "address"
        },
        {
          "internalType": "uint256",
          "name": "",
          "type": "uint256"
        },
        {
          "internalType": "bytes",
          "name": "",
          "type": "bytes"
        }
      ],
      "name": "onERC721Received",
      "outputs": [
        {
          "internalType": "bytes4",
          "name": "",
          "type": "bytes4"
        }
      ],
      "stateMutability": "nonpayable",
      "type": "function"
    },
    {
      "inputs": [],
      "name": "owner",
      "outputs": [
        {
          "internalType": "address",
          "name": "",
          "type": "address"
        }
      ],
      "stateMutability": "view",
      "type": "function"
    },
    {
      "inputs": [
        {
          "internalType": "uint256",
          "name": "proposalId",
          "type": "uint256"
        }
      ],
      "name": "proposalDeadline",
      "outputs": [
        {
          "internalType": "uint256",
          "name": "",
          "type": "uint256"
        }
      ],
      "stateMutability": "view",
      "type": "function"
    },
    {
      "inputs": [
        {
          "internalType": "uint256",
          "name": "proposalId",
          "type": "uint256"
        }
      ],
      "name": "proposalEta",
      "outputs": [
        {
          "internalType": "uint256",
          "name": "",
          "type": "uint256"
        }
      ],
      "stateMutability": "view",
      "type": "function"
    },
    {
      "inputs": [
        {
          "internalType": "uint256",
          "name": "proposalId",
          "type": "uint256"
        }
      ],
      "name": "proposalSnapshot",
      "outputs": [
        {
          "internalType": "uint256",
          "name": "",
          "type": "uint256"
        }
      ],
      "stateMutability": "view",
      "type": "function"
    },
    {
      "inputs": [],
      "name": "proposalThreshold",
      "outputs": [
        {
          "internalType": "uint256",
          "name": "",
          "type": "uint256"
        }
      ],
      "stateMutability": "view",
      "type": "function"
    },
    {
      "inputs": [
        {
          "internalType": "uint256",
          "name": "proposalId",
          "type": "uint256"
        }
      ],
      "name": "proposalVotes",
      "outputs": [
        {
          "internalType": "uint256",
          "name": "againstVotes",
          "type": "uint256"
        },
        {
          "internalType": "uint256",
          "name": "forVotes",
          "type": "uint256"
        },
        {
          "internalType": "uint256",
          "name": "abstainVotes",
          "type": "uint256"
        }
      ],
      "stateMutability": "view",
      "type": "function"
    },
    {
      "inputs": [
        {
          "internalType": "address[]",
          "name": "targets",
          "type": "address[]"
        },
        {
          "internalType": "uint256[]",
          "name": "values",
          "type": "uint256[]"
        },
        {
          "internalType": "bytes[]",
          "name": "calldatas",
          "type": "bytes[]"
        },
        {
          "internalType": "string",
          "name": "description",
          "type": "string"
        }
      ],
      "name": "propose",
      "outputs": [
        {
          "internalType": "uint256",
          "name": "",
          "type": "uint256"
        }
      ],
      "stateMutability": "nonpayable",
      "type": "function"
    },
    {
      "inputs": [
        {
          "internalType": "uint256",
          "name": "proposalId",
          "type": "uint256"
        }
      ],
      "name": "quadraticVoting",
      "outputs": [],
      "stateMutability": "payable",
      "type": "function"
    },
    {
      "inputs": [
        {
          "internalType": "address[]",
          "name": "targets",
          "type": "address[]"
        },
        {
          "internalType": "uint256[]",
          "name": "values",
          "type": "uint256[]"
        },
        {
          "internalType": "bytes[]",
          "name": "calldatas",
          "type": "bytes[]"
        },
        {
          "internalType": "bytes32",
          "name": "descriptionHash",
          "type": "bytes32"
        }
      ],
      "name": "queue",
      "outputs": [
        {
          "internalType": "uint256",
          "name": "",
          "type": "uint256"
        }
      ],
      "stateMutability": "nonpayable",
      "type": "function"
    },
    {
      "inputs": [
        {
          "internalType": "uint256",
          "name": "blockNumber",
          "type": "uint256"
        }
      ],
      "name": "quorum",
      "outputs": [
        {
          "internalType": "uint256",
          "name": "",
          "type": "uint256"
        }
      ],
      "stateMutability": "pure",
      "type": "function"
    },
    {
      "inputs": [
        {
          "internalType": "address",
          "name": "target",
          "type": "address"
        },
        {
          "internalType": "uint256",
          "name": "value",
          "type": "uint256"
        },
        {
          "internalType": "bytes",
          "name": "data",
          "type": "bytes"
        }
      ],
      "name": "relay",
      "outputs": [],
      "stateMutability": "nonpayable",
      "type": "function"
    },
    {
      "inputs": [
        {
          "internalType": "uint256",
          "name": "proposalId",
          "type": "uint256"
        },
        {
          "internalType": "uint256",
          "name": "budget",
          "type": "uint256"
        }
      ],
      "name": "setProposalBudget",
      "outputs": [],
      "stateMutability": "nonpayable",
      "type": "function"
    },
    {
      "inputs": [
        {
          "internalType": "uint256",
          "name": "newProposalThreshold",
          "type": "uint256"
        }
      ],
      "name": "setProposalThreshold",
      "outputs": [],
      "stateMutability": "nonpayable",
      "type": "function"
    },
    {
      "inputs": [
        {
          "internalType": "uint256",
          "name": "newVotingDelay",
          "type": "uint256"
        }
      ],
      "name": "setVotingDelay",
      "outputs": [],
      "stateMutability": "nonpayable",
      "type": "function"
    },
    {
      "inputs": [
        {
          "internalType": "uint256",
          "name": "newVotingPeriod",
          "type": "uint256"
        }
      ],
      "name": "setVotingPeriod",
      "outputs": [],
      "stateMutability": "nonpayable",
      "type": "function"
    },
    {
      "inputs": [
        {
          "internalType": "uint256",
          "name": "proposalId",
          "type": "uint256"
        }
      ],
      "name": "state",
      "outputs": [
        {
          "internalType": "enum IGovernor.ProposalState",
          "name": "",
          "type": "uint8"
        }
      ],
      "stateMutability": "view",
      "type": "function"
    },
    {
      "inputs": [
        {
          "internalType": "address[]",
          "name": "targets",
          "type": "address[]"
        },
        {
          "internalType": "uint256[]",
          "name": "values",
          "type": "uint256[]"
        },
        {
          "internalType": "bytes[]",
          "name": "calldatas",
          "type": "bytes[]"
        },
        {
          "internalType": "string",
          "name": "description",
          "type": "string"
        },
        {
          "internalType": "uint256",
          "name": "budgetGwei",
          "type": "uint256"
        }
      ],
      "name": "submitProposal",
      "outputs": [],
      "stateMutability": "nonpayable",
      "type": "function"
    },
    {
      "inputs": [
        {
          "internalType": "bytes4",
          "name": "interfaceId",
          "type": "bytes4"
        }
      ],
      "name": "supportsInterface",
      "outputs": [
        {
          "internalType": "bool",
          "name": "",
          "type": "bool"
        }
      ],
      "stateMutability": "view",
      "type": "function"
    },
    {
      "inputs": [],
      "name": "timelock",
      "outputs": [
        {
          "internalType": "address",
          "name": "",
          "type": "address"
        }
      ],
      "stateMutability": "view",
      "type": "function"
    },
    {
      "inputs": [],
      "name": "timelockAddress",
      "outputs": [
        {
          "internalType": "contract ICompoundTimelock",
          "name": "",
          "type": "address"
        }
      ],
      "stateMutability": "view",
      "type": "function"
    },
    {
      "inputs": [],
      "name": "token",
      "outputs": [
        {
          "internalType": "contract IVotes",
          "name": "",
          "type": "address"
        }
      ],
      "stateMutability": "view",
      "type": "function"
    },
    {
      "inputs": [],
      "name": "tokenAddress",
      "outputs": [
        {
          "internalType": "address",
          "name": "",
          "type": "address"
        }
      ],
      "stateMutability": "view",
      "type": "function"
    },
    {
      "inputs": [
        {
          "internalType": "address payable",
          "name": "_receiver",
          "type": "address"
        },
        {
          "internalType": "uint256",
          "name": "amount",
          "type": "uint256"
        }
      ],
      "name": "transferFunds",
      "outputs": [],
      "stateMutability": "payable",
      "type": "function"
    },
    {
      "inputs": [
        {
          "internalType": "contract ICompoundTimelock",
          "name": "newTimelock",
          "type": "address"
        }
      ],
      "name": "updateTimelock",
      "outputs": [],
      "stateMutability": "nonpayable",
      "type": "function"
    },
    {
      "inputs": [],
      "name": "version",
      "outputs": [
        {
          "internalType": "string",
          "name": "",
          "type": "string"
        }
      ],
      "stateMutability": "view",
      "type": "function"
    },
    {
      "inputs": [],
      "name": "votingDelay",
      "outputs": [
        {
          "internalType": "uint256",
          "name": "",
          "type": "uint256"
        }
      ],
      "stateMutability": "view",
      "type": "function"
    },
    {
      "inputs": [],
      "name": "votingPeriod",
      "outputs": [
        {
          "internalType": "uint256",
          "name": "",
          "type": "uint256"
        }
      ],
      "stateMutability": "view",
      "type": "function"
    },
    {
      "stateMutability": "payable",
      "type": "receive"
    }
  ],
  "bytecode": "0x6101606040523480156200001257600080fd5b5060405162004c8a38038062004c8a833981016040819052620000359162000403565b81836001601460026040518060400160405280600a81526020016926bca3b7bb32b93737b960b11b8152508062000071620001b160201b60201c565b815160208084019190912082518383012060e08290526101008190524660a0818152604080517f8b73c3c69bb8fe3d512ecc4cf759cc79239f7b179b0ffacaa9a75d522b39400f81880181905281830187905260608201869052608082019490945230818401528151808203909301835260c00190528051940193909320919290916080523060601b60c05261012052505082516200011a92506000915060208401906200035d565b5062000128905083620001cc565b62000133826200020d565b6200013e81620002b3565b50505060601b6001600160601b031916610140526200015d81620002f4565b50600a80546001600160a01b039485166001600160a01b031991821617909155600d805492851692821692909217909155600b80549290931691811691909117909155600c805490911633179055620004ad565b6040805180820190915260018152603160f81b602082015290565b60045460408051918252602082018390527fc565b045403dc03c2eea82b81a0465edad9e2e7fc4d97e11421c209da93d7a93910160405180910390a1600455565b60008111620002725760405162461bcd60e51b815260206004820152602760248201527f476f7665726e6f7253657474696e67733a20766f74696e6720706572696f6420604482015266746f6f206c6f7760c81b606482015260840160405180910390fd5b60055460408051918252602082018390527f7e3f7f0708a84de9203036abaa450dccc85ad5ff52f78c170f3edb55cf5e8828910160405180910390a1600555565b60065460408051918252602082018390527fccb45da8d5717e6c4544694297c4ba5cf151d455c9bb0ed4fc7a38411bc05461910160405180910390a1600655565b600854604080516001600160a01b03928316815291831660208301527f08f74ea46ef7894f65eabfb5e6e695de773a000b47c529ab559178069b226401910160405180910390a1600880546001600160a01b0319166001600160a01b0392909216919091179055565b8280546200036b9062000457565b90600052602060002090601f0160209004810192826200038f5760008555620003da565b82601f10620003aa57805160ff1916838001178555620003da565b82800160010185558215620003da579182015b82811115620003da578251825591602001919060010190620003bd565b50620003e8929150620003ec565b5090565b5b80821115620003e85760008155600101620003ed565b6000806000606084860312156200041957600080fd5b8351620004268162000494565b6020850151909350620004398162000494565b60408501519092506200044c8162000494565b809150509250925092565b600181811c908216806200046c57607f821691505b602082108114156200048e57634e487b7160e01b600052602260045260246000fd5b50919050565b6001600160a01b0381168114620004aa57600080fd5b50565b60805160a05160c05160601c60e05161010051610120516101405160601c61477562000515600039600081816109c80152611ffc01526000612a1801526000612a6701526000612a420152600061299b015260006129c5015260006129ef01526147756000f3fe60806040526004361061025e5760003560e01c806301ffc9a71461028657806302a251a3146102bb57806303420181146102de57806306fdde03146102fe57806312065fe014610320578063150b7a0214610333578063160cbed714610377578063227588b5146103975780632656227d146103aa5780632d63f693146103bd5780632fe3e261146103dd5780633932abb1146103ff5780633bccf4fd146104145780633e4f49e6146104345780634385963214610461578063452115d6146104ab57806345df67ce146104cb5780634bc66f321461050e578063544ffc9c1461052e57806354fd4d501461058357806356781388146105ad5780635d949972146105cd5780635f398a14146105ed57806363b0e66a1461060d57806369bd71a91461062d5780636a9bb0001461064d5780636d7438ec1461067d57806370b0f6601461069d5780637b3c71d3146106bd5780637d5e81e2146106dd5780638da5cb5b146106fd578063990dc9db1461071d5780639a802a6d146107305780639c61248a146107505780639d76ea5814610763578063a890c91014610783578063ab58fb8e146107a3578063b58131b0146107c3578063b9a61961146107d8578063bc197c81146107ed578063c006b57f14610819578063c01f9e371461082c578063c28bc2fa1461084c578063c59057e41461086c578063d33219b41461088c578063dd4e2ba5146108a1578063deaaa7cc146108e7578063ea0217cf14610909578063eb9019d414610929578063ece40cc114610949578063f23a6e6114610969578063f8ce560a14610995578063fc0c546a146109b657600080fd5b36610281573061026c6109ea565b6001600160a01b03161461027f57600080fd5b005b600080fd5b34801561029257600080fd5b506102a66102a1366004613d09565b6109f9565b60405190151581526020015b60405180910390f35b3480156102c757600080fd5b506102d0610a0a565b6040519081526020016102b2565b3480156102ea57600080fd5b506102d06102f9366004613efe565b610a15565b34801561030a57600080fd5b50610313610afb565b6040516102b291906141e0565b34801561032c57600080fd5b50476102d0565b34801561033f57600080fd5b5061035e61034e366004613965565b630a85bd0160e11b949350505050565b6040516001600160e01b031990911681526020016102b2565b34801561038357600080fd5b506102d0610392366004613aeb565b610b8d565b61027f6103a5366004613dbd565b610f3c565b6102d06103b8366004613aeb565b610ffc565b3480156103c957600080fd5b506102d06103d8366004613dbd565b611140565b3480156103e957600080fd5b506102d06000805160206146e083398151915281565b34801561040b57600080fd5b506102d0611177565b34801561042057600080fd5b506102d061042f366004613fa4565b611182565b34801561044057600080fd5b5061045461044f366004613dbd565b6111e6565b6040516102b291906141b8565b34801561046d57600080fd5b506102a661047c366004613dd6565b60008281526007602090815260408083206001600160a01b038516845260030190915290205460ff1692915050565b3480156104b757600080fd5b506102d06104c6366004613aeb565b6111f1565b3480156104d757600080fd5b506105016104e6366004613dbd565b6000908152600f60205260409020546001600160a01b031690565b6040516102b29190614113565b34801561051a57600080fd5b50600b54610501906001600160a01b031681565b34801561053a57600080fd5b50610568610549366004613dbd565b6000908152600760205260409020805460018201546002909201549092565b604080519384526020840192909252908201526060016102b2565b34801561058f57600080fd5b506040805180820190915260018152603160f81b6020820152610313565b3480156105b957600080fd5b506102d06105c8366004613e28565b611208565b3480156105d957600080fd5b5061027f6105e8366004613e06565b611231565b3480156105f957600080fd5b506102d0610608366004613e95565b611361565b34801561061957600080fd5b50600d54610501906001600160a01b031681565b34801561063957600080fd5b5061027f610648366004613c1a565b6113ab565b34801561065957600080fd5b506102d0610668366004613dbd565b6000908152600f602052604090206001015490565b34801561068957600080fd5b50610501610698366004613dbd565b611487565b3480156106a957600080fd5b5061027f6106b8366004613dbd565b611504565b3480156106c957600080fd5b506102d06106d8366004613e54565b611593565b3480156106e957600080fd5b506102d06106f8366004613b7a565b6115e5565b34801561070957600080fd5b50600c54610501906001600160a01b031681565b61027f61072b36600461388c565b6116d7565b34801561073c57600080fd5b506102d061074b366004613a93565b611768565b6102d061075e366004613e28565b61177f565b34801561076f57600080fd5b50600a54610501906001600160a01b031681565b34801561078f57600080fd5b5061027f61079e366004613da0565b611853565b3480156107af57600080fd5b506102d06107be366004613dbd565b6118df565b3480156107cf57600080fd5b506102d061190b565b3480156107e457600080fd5b5061027f611916565b3480156107f957600080fd5b5061035e6108083660046138b8565b63bc197c8160e01b95945050505050565b6102d0610827366004613e28565b611980565b34801561083857600080fd5b506102d0610847366004613dbd565b611b30565b34801561085857600080fd5b5061027f610867366004613a38565b611b5f565b34801561087857600080fd5b506102d0610887366004613aeb565b611c2b565b34801561089857600080fd5b50610501611c65565b3480156108ad57600080fd5b506040805180820190915260208082527f737570706f72743d627261766f2671756f72756d3d666f722c6162737461696e90820152610313565b3480156108f357600080fd5b506102d06000805160206146c083398151915281565b34801561091557600080fd5b5061027f610924366004613dbd565b611c74565b34801561093557600080fd5b506102d061094436600461388c565b611d00565b34801561095557600080fd5b5061027f610964366004613dbd565b611d21565b34801561097557600080fd5b5061035e6109843660046139d0565b63f23a6e6160e01b95945050505050565b3480156109a157600080fd5b506102d06109b0366004613dbd565b50600390565b3480156109c257600080fd5b506105017f000000000000000000000000000000000000000000000000000000000000000081565b60006109f4611c65565b905090565b6000610a0482611dad565b92915050565b60006109f460055490565b600080610aa7610a9f6000805160206146e08339815191528c8c8c8c604051610a3f9291906140e7565b60405180910390208b80519060200120604051602001610a84959493929190948552602085019390935260ff9190911660408401526060830152608082015260a00190565b60405160208183030381529060405280519060200120611dd2565b868686611e20565b9050610aed8a828b8b8b8080601f0160208091040260200160405190810160405280939291908181526020018383808284376000920191909152508d9250611e48915050565b9a9950505050505050505050565b606060008054610b0a906145fc565b80601f0160208091040260200160405190810160405280929190818152602001828054610b36906145fc565b8015610b835780601f10610b5857610100808354040283529160200191610b83565b820191906000526020600020905b815481529060010190602001808311610b6657829003601f168201915b5050505050905090565b600080610b9c86868686611c2b565b90506004610ba9826111e6565b6007811115610bba57610bba614668565b14610be05760405162461bcd60e51b8152600401610bd7906142ec565b60405180910390fd5b60085460408051630d48571f60e31b815290516000926001600160a01b031691636a42b8f8916004808301926020929190829003018186803b158015610c2557600080fd5b505afa158015610c39573d6000803e3d6000fd5b505050506040513d601f19601f82011682018060405250810190610c5d9190613cf0565b610c679042614557565b9050610c89610c7582611f4a565b600084815260096020526040902090611fb6565b60005b8751811015610ef85760085488516001600160a01b039091169063f2b06537908a9084908110610cbe57610cbe61467e565b6020026020010151898481518110610cd857610cd861467e565b6020026020010151898581518110610cf257610cf261467e565b602002602001015186604051602001610d0e9493929190614127565b604051602081830303815290604052805190602001206040518263ffffffff1660e01b8152600401610d4291815260200190565b60206040518083038186803b158015610d5a57600080fd5b505afa158015610d6e573d6000803e3d6000fd5b505050506040513d601f19601f82011682018060405250810190610d929190613cce565b15610e105760405162461bcd60e51b815260206004820152604260248201527f476f7665726e6f7254696d656c6f636b436f6d706f756e643a206964656e746960448201527f63616c2070726f706f73616c20616374696f6e20616c72656164792071756575606482015261195960f21b608482015260a401610bd7565b60085488516001600160a01b0390911690633a66f901908a9084908110610e3957610e3961467e565b6020026020010151898481518110610e5357610e5361467e565b6020026020010151898581518110610e6d57610e6d61467e565b6020026020010151866040518563ffffffff1660e01b8152600401610e959493929190614127565b602060405180830381600087803b158015610eaf57600080fd5b505af1158015610ec3573d6000803e3d6000fd5b505050506040513d601f19601f82011682018060405250810190610ee79190613cf0565b50610ef181614637565b9050610c8c565b507f9a2e42fd6722813d69113e7d0079d3d940171428df7373df9c7f7617cfda28928282604051610f2a92919061446d565b60405180910390a15095945050505050565b6000610f6033610f4b84611140565b60405180602001604052806000815250611fd3565b90506000610f6e828061459a565b90506103e8811115610f7f57506103e85b80341015610ff7576040805162461bcd60e51b81526020600482015260248101919091527f51756164726174696320766f74696e673a20596f75206e656564206d6f72652060448201527f657468657220746f20636f76657220796f757220766f7465207765696768742e6064820152608401610bd7565b505050565b60008061100b86868686611c2b565b90506110173447614557565b6000828152600f6020526040902060010154106110925760405162461bcd60e51b815260206004820152603360248201527f476f7665726e6f723a2062756467657420726571756573746564206578636565604482015272323990333ab732399030bb30b4b630b136329760691b6064820152608401610bd7565b600d54600b54604051633e37ce4760e01b8152600481018490526001600160a01b039182166024820152600160448201526000929190911690633e37ce4790606401602060405180830381600087803b1580156110ee57600080fd5b505af1158015611102573d6000803e3d6000fd5b505050506040513d601f19601f82011682018060405250810190611126919061386f565b905061113487878787612078565b50909695505050505050565b60008181526001602090815260408083208151928301909152546001600160401b0316908190525b6001600160401b031692915050565b60006109f460045490565b604080516000805160206146c0833981519152602082015290810186905260ff8516606082015260009081906111be90610a9f90608001610a84565b90506111db8782886040518060200160405280600081525061215b565b979650505050505050565b6000610a048261217e565b60006111ff8585858561226e565b95945050505050565b6000803390506112298482856040518060200160405280600081525061215b565b949350505050565b6000828152600f60205260409020546001600160a01b031633146112bd5760405162461bcd60e51b815260206004820152603f60248201527f476f7665726e6f723a206f6e6c79207468652070726f706f7365722063616e2060448201527f7365742074686520627564676574206f66207468652070726f706f73616c2e006064820152608401610bd7565b60006112c8836111e6565b60078111156112d9576112d9614668565b1461134c5760405162461bcd60e51b815260206004820152603e60248201527f476f7665726e6f723a2063616e6e6f74206368616e6765206275646765742e2060448201527f50726f706f73616c20766f746520616c726561647920737461727465642e00006064820152608401610bd7565b6000918252600f602052604090912060010155565b6000803390506111db87828888888080601f0160208091040260200160405190810160405280939291908181526020018383808284376000920191909152508a9250611e48915050565b6113b361190b565b600a546040516370a0823160e01b81526001600160a01b03909116906370a08231906113e3903390600401614113565b60206040518083038186803b1580156113fb57600080fd5b505afa15801561140f573d6000803e3d6000fd5b505050506040513d601f19601f820116820180604052508101906114339190613cf0565b10156114515760405162461bcd60e51b8152600401610bd79061432d565b61145d858585856115e5565b5060006114738686868680519060200120611c2b565b905061147f8183611231565b505050505050565b600d5460405163b71fba4760e01b8152600481018390526000916001600160a01b03169063b71fba479060240160206040518083038186803b1580156114cc57600080fd5b505afa1580156114e0573d6000803e3d6000fd5b505050506040513d601f19601f82011682018060405250810190610a04919061386f565b61150c6109ea565b6001600160a01b0316336001600160a01b03161461153c5760405162461bcd60e51b8152600401610bd7906141f3565b306115456109ea565b6001600160a01b03161461158757600080366040516115659291906140e7565b604051809103902090505b8061157b6002612388565b1461158557611570565b505b611590816123f7565b50565b6000803390506115db86828787878080601f01602080910402602001604051908101604052809392919081815260200183838082843760009201919091525061215b92505050565b9695505050505050565b60006115ef61190b565b600a546040516370a0823160e01b81526001600160a01b03909116906370a082319061161f903390600401614113565b60206040518083038186803b15801561163757600080fd5b505afa15801561164b573d6000803e3d6000fd5b505050506040513d601f19601f8201168201806040525081019061166f9190613cf0565b101561168d5760405162461bcd60e51b8152600401610bd79061432d565b60006116a28686868680519060200120611c2b565b6000818152600f6020526040812080546001600160a01b0319163317815560018101919091559091506111db87878787612437565b600c546001600160a01b03163314806116fa5750600d546001600160a01b031633145b6117325760405162461bcd60e51b81526020600482015260096024820152682737ba1037bbb732b960b91b6044820152606401610bd7565b6040516001600160a01b0383169082156108fc029083906000818181858888f19350505050158015610ff7573d6000803e3d6000fd5b6000611775848484611fd3565b90505b9392505050565b600a546040516370a0823160e01b81526000916001916001600160a01b03909116906370a08231906117b5903390600401614113565b60206040518083038186803b1580156117cd57600080fd5b505afa1580156117e1573d6000803e3d6000fd5b505050506040513d601f19601f820116820180604052508101906118059190613cf0565b10156118235760405162461bcd60e51b8152600401610bd790614266565b6000339050611229848285604051806020016040528060008152506040518060200160405280600081525061268a565b61185b6109ea565b6001600160a01b0316336001600160a01b03161461188b5760405162461bcd60e51b8152600401610bd7906141f3565b306118946109ea565b6001600160a01b0316146118d657600080366040516118b49291906140e7565b604051809103902090505b806118ca6002612388565b146118d4576118bf565b505b61159081612755565b60008181526009602090815260408083208151928301909152546001600160401b031690819052611168565b60006109f460065490565b600860009054906101000a90046001600160a01b03166001600160a01b0316630e18b6816040518163ffffffff1660e01b8152600401600060405180830381600087803b15801561196657600080fd5b505af115801561197a573d6000803e3d6000fd5b50505050565b600a546040516370a0823160e01b81526000916001916001600160a01b03909116906370a08231906119b6903390600401614113565b60206040518083038186803b1580156119ce57600080fd5b505afa1580156119e2573d6000803e3d6000fd5b505050506040513d601f19601f82011682018060405250810190611a069190613cf0565b1015611a245760405162461bcd60e51b8152600401610bd790614266565b6000611a3333610f4b86611140565b90506000611a41828061459a565b90506000662386f26fc100006001841415611a5f5760009150611a6c565b611a69818461459a565b91505b81341015611af45760405162461bcd60e51b815260206004820152604960248201527f596f75206e656564206d6f726520657468657220746f20766f7465207769746860448201527f20616c6c204e4654733a20636f7374203d20286e566f746573295e32202a20306064820152681718189032ba3432b960b91b608482015260a401610bd7565b6000339050611b2488828960405180602001604052806000815250604051806020016040528060008152506127be565b98975050505050505050565b60008181526001602081815260408084208151928301909152909101546001600160401b031690819052611168565b611b676109ea565b6001600160a01b0316336001600160a01b031614611b975760405162461bcd60e51b8152600401610bd7906141f3565b30611ba06109ea565b6001600160a01b031614611be25760008036604051611bc09291906140e7565b604051809103902090505b80611bd66002612388565b14611be057611bcb565b505b611c248483838080601f01602080910402602001604051908101604052809392919081815260200183838082843760009201919091525088925061281d915050565b5050505050565b600084848484604051602001611c44949392919061416d565b60408051601f19818403018152919052805160209091012095945050505050565b6008546001600160a01b031690565b611c7c6109ea565b6001600160a01b0316336001600160a01b031614611cac5760405162461bcd60e51b8152600401610bd7906141f3565b30611cb56109ea565b6001600160a01b031614611cf75760008036604051611cd59291906140e7565b604051809103902090505b80611ceb6002612388565b14611cf557611ce0565b505b61159081612843565b60006117788383611d1c60408051602081019091526000815290565b611fd3565b611d296109ea565b6001600160a01b0316336001600160a01b031614611d595760405162461bcd60e51b8152600401610bd7906141f3565b30611d626109ea565b6001600160a01b031614611da45760008036604051611d829291906140e7565b604051809103902090505b80611d986002612388565b14611da257611d8d565b505b611590816128e3565b60006001600160e01b03198216636e665ced60e01b1480610a045750610a0482612923565b6000610a04611ddf61298e565b8360405161190160f01b6020820152602281018390526042810182905260009060620160405160208183030381529060405280519060200120905092915050565b6000806000611e3187878787612ab5565b91509150611e3e81612b98565b5095945050505050565b6000858152600160208190526040822090611e62886111e6565b6007811115611e7357611e73614668565b14611e905760405162461bcd60e51b8152600401610bd7906142a9565b604080516020810190915281546001600160401b031690819052600090611eb990889086611fd3565b9050611ec88888888488612d4e565b8351611f0857866001600160a01b031660008051602061474983398151915289888489604051611efb949392919061447b565b60405180910390a26111db565b866001600160a01b03166000805160206147298339815191528988848989604051611f379594939291906144a3565b60405180910390a2979650505050505050565b60006001600160401b03821115611fb25760405162461bcd60e51b815260206004820152602660248201527f53616665436173743a2076616c756520646f65736e27742066697420696e203660448201526534206269747360d01b6064820152608401610bd7565b5090565b81546001600160401b0319166001600160401b0391909116179055565b604051630748d63560e31b81526001600160a01b038481166004830152602482018490526000917f000000000000000000000000000000000000000000000000000000000000000090911690633a46b1a89060440160206040518083038186803b15801561204057600080fd5b505afa158015612054573d6000803e3d6000fd5b505050506040513d601f19601f820116820180604052508101906117759190613cf0565b60008061208786868686611c2b565b90506000612094826111e6565b905060048160078111156120aa576120aa614668565b14806120c7575060058160078111156120c5576120c5614668565b145b6120e35760405162461bcd60e51b8152600401610bd7906142ec565b600082815260016020818152604092839020600201805460ff191690921790915590518381527f712ae1383f79ac853f8d882153778e0260ef8f03b504e2866e0593e04d2b291f910160405180910390a16121418288888888612ecd565b61214e8288888888612f67565b611e3e8288888888612f74565b60006111ff8585858561217960408051602081019091526000815290565b611e48565b60008061218a83612fa3565b905060048160078111156121a0576121a0614668565b146121ab5792915050565b60006121b6846118df565b9050806121c4575092915050565b600860009054906101000a90046001600160a01b03166001600160a01b031663c1a287e26040518163ffffffff1660e01b815260040160206040518083038186803b15801561221257600080fd5b505afa158015612226573d6000803e3d6000fd5b505050506040513d601f19601f8201168201806040525081019061224a9190613cf0565b6122549082614557565b4210612264575060069392505050565b5060059392505050565b60008061227d868686866130af565b9050600061228a826118df565b90508015611e3e5760005b87518110156123665760085488516001600160a01b039091169063591fcdfe908a90849081106122c7576122c761467e565b60200260200101518984815181106122e1576122e161467e565b60200260200101518985815181106122fb576122fb61467e565b6020026020010151866040518563ffffffff1660e01b81526004016123239493929190614127565b600060405180830381600087803b15801561233d57600080fd5b505af1158015612351573d6000803e3d6000fd5b505050508061235f90614637565b9050612295565b50600082815260096020526040902080546001600160401b0319169055611e3e565b6000612393826131bb565b156123b157604051631ed9509560e11b815260040160405180910390fd5b508054600f90810b80820b820b600090815260018085016020526040822080549290558454920190920b6001600160801b03166001600160801b03199091161790915590565b7fc565b045403dc03c2eea82b81a0465edad9e2e7fc4d97e11421c209da93d7a936004548260405161242a92919061446d565b60405180910390a1600455565b600061244161190b565b612450336109446001436145b9565b101561246e5760405162461bcd60e51b8152600401610bd79061432d565b60006124838686868680519060200120611c2b565b905084518651146124a65760405162461bcd60e51b8152600401610bd790614225565b83518651146124c75760405162461bcd60e51b8152600401610bd790614225565b60008651116125135760405162461bcd60e51b815260206004820152601860248201527711dbdd995c9b9bdc8e88195b5c1d1e481c1c9bdc1bdcd85b60421b6044820152606401610bd7565b600081815260016020908152604091829020825191820190925281546001600160401b031690819052156125935760405162461bcd60e51b815260206004820152602160248201527f476f7665726e6f723a2070726f706f73616c20616c72656164792065786973746044820152607360f81b6064820152608401610bd7565b60006125a56125a0611177565b611f4a565b6125ae43611f4a565b6125b8919061456f565b905060006125c76125a0610a0a565b6125d1908361456f565b90506125dd8383611fb6565b6125ea6001840182611fb6565b7f7d84a6263ae0d98d3329bd7b46bb4e8d6f98cd35a7adb45c274c8b7fd5ebd5e084338b8b8d516001600160401b0381111561262857612628614694565b60405190808252806020026020018201604052801561265b57816020015b60608152602001906001900390816126465790505b508c88888e6040516126759998979695949392919061437e565b60405180910390a15091979650505050505050565b60006001612697876111e6565b60078111156126a8576126a8614668565b146126c55760405162461bcd60e51b8152600401610bd7906142a9565b60016126d48787878487612d4e565b825161271457856001600160a01b031660008051602061474983398151915288878488604051612707949392919061447b565b60405180910390a26115db565b856001600160a01b031660008051602061472983398151915288878488886040516127439594939291906144a3565b60405180910390a29695505050505050565b600854604080516001600160a01b03928316815291831660208301527f08f74ea46ef7894f65eabfb5e6e695de773a000b47c529ab559178069b226401910160405180910390a1600880546001600160a01b0319166001600160a01b0392909216919091179055565b600060016127cb876111e6565b60078111156127dc576127dc614668565b146127f95760405162461bcd60e51b8152600401610bd7906142a9565b600061280e8661280889611140565b85611fd3565b90506126d48787878487612d4e565b6060611775848484604051806060016040528060298152602001614700602991396131d4565b600081116128a35760405162461bcd60e51b815260206004820152602760248201527f476f7665726e6f7253657474696e67733a20766f74696e6720706572696f6420604482015266746f6f206c6f7760c81b6064820152608401610bd7565b7f7e3f7f0708a84de9203036abaa450dccc85ad5ff52f78c170f3edb55cf5e8828600554826040516128d692919061446d565b60405180910390a1600555565b7fccb45da8d5717e6c4544694297c4ba5cf151d455c9bb0ed4fc7a38411bc054616006548260405161291692919061446d565b60405180910390a1600655565b60006001600160e01b0319821663bf26d89760e01b148061295457506001600160e01b031982166379dd796f60e01b145b8061296f57506001600160e01b03198216630271189760e51b145b80610a0457506301ffc9a760e01b6001600160e01b0319831614610a04565b6000306001600160a01b037f0000000000000000000000000000000000000000000000000000000000000000161480156129e757507f000000000000000000000000000000000000000000000000000000000000000046145b15612a1157507f000000000000000000000000000000000000000000000000000000000000000090565b50604080517f00000000000000000000000000000000000000000000000000000000000000006020808301919091527f0000000000000000000000000000000000000000000000000000000000000000828401527f000000000000000000000000000000000000000000000000000000000000000060608301524660808301523060a0808401919091528351808403909101815260c0909201909252805191012090565b6000806fa2a8918ca85bafe22016d0b997e4df60600160ff1b03831115612ae25750600090506003612b8f565b8460ff16601b14158015612afa57508460ff16601c14155b15612b0b5750600090506004612b8f565b6040805160008082526020820180845289905260ff881692820192909252606081018690526080810185905260019060a0016020604051602081039080840390855afa158015612b5f573d6000803e3d6000fd5b5050604051601f1901519150506001600160a01b038116612b8857600060019250925050612b8f565b9150600090505b94509492505050565b6000816004811115612bac57612bac614668565b1415612bb55750565b6001816004811115612bc957612bc9614668565b1415612c125760405162461bcd60e51b815260206004820152601860248201527745434453413a20696e76616c6964207369676e617475726560401b6044820152606401610bd7565b6002816004811115612c2657612c26614668565b1415612c745760405162461bcd60e51b815260206004820152601f60248201527f45434453413a20696e76616c6964207369676e6174757265206c656e677468006044820152606401610bd7565b6003816004811115612c8857612c88614668565b1415612ce15760405162461bcd60e51b815260206004820152602260248201527f45434453413a20696e76616c6964207369676e6174757265202773272076616c604482015261756560f01b6064820152608401610bd7565b6004816004811115612cf557612cf5614668565b14156115905760405162461bcd60e51b815260206004820152602260248201527f45434453413a20696e76616c6964207369676e6174757265202776272076616c604482015261756560f01b6064820152608401610bd7565b60008581526007602090815260408083206001600160a01b0388168452600381019092529091205460ff1615612dd65760405162461bcd60e51b815260206004820152602760248201527f476f7665726e6f72566f74696e6753696d706c653a20766f746520616c726561604482015266191e4818d85cdd60ca1b6064820152608401610bd7565b6001600160a01b03851660009081526003820160205260408120805460ff1916600117905560ff168460ff161415612e275782816000016000828254612e1c9190614557565b9091555061147f9050565b60ff841660011415612e475782816001016000828254612e1c9190614557565b60ff841660021415612e675782816002016000828254612e1c9190614557565b60405162461bcd60e51b815260206004820152603560248201527f476f7665726e6f72566f74696e6753696d706c653a20696e76616c69642076616044820152746c756520666f7220656e756d20566f74655479706560581b6064820152608401610bd7565b30612ed66109ea565b6001600160a01b031614611c245760005b845181101561147f57306001600160a01b0316858281518110612f0c57612f0c61467e565b60200260200101516001600160a01b03161415612f5757612f57838281518110612f3857612f3861467e565b60200260200101518051906020012060026132fa90919063ffffffff16565b612f6081614637565b9050612ee7565b611c248585858585613340565b30612f7d6109ea565b6001600160a01b031614611c2457612f9560026131bb565b611c24576000600255611c24565b6000818152600160205260408120600281015460ff1615612fc75750600792915050565b6002810154610100900460ff1615612fe25750600292915050565b6000612fed84611140565b90508061303c5760405162461bcd60e51b815260206004820152601d60248201527f476f7665726e6f723a20756e6b6e6f776e2070726f706f73616c2069640000006044820152606401610bd7565b43811061304d575060009392505050565b600061305885611b30565b905043811061306c57506001949350505050565b613075856134ce565b8015613094575060008581526007602052604090208054600190910154115b156130a457506004949350505050565b506003949350505050565b6000806130be86868686611c2b565b905060006130cb826111e6565b905060028160078111156130e1576130e1614668565b14158015613101575060068160078111156130fe576130fe614668565b14155b801561311f5750600781600781111561311c5761311c614668565b14155b61316b5760405162461bcd60e51b815260206004820152601d60248201527f476f7665726e6f723a2070726f706f73616c206e6f74206163746976650000006044820152606401610bd7565b60008281526001602052604090819020600201805461ff001916610100179055517f789cf55be980739dad1d0699b93b58e806b51c9d96619bfa8fe0a28abaa7b30c90610f2a9084815260200190565b54600f81810b810b600160801b909204810b900b131590565b6060824710156132355760405162461bcd60e51b815260206004820152602660248201527f416464726573733a20696e73756666696369656e742062616c616e636520666f6044820152651c8818d85b1b60d21b6064820152608401610bd7565b6001600160a01b0385163b61328c5760405162461bcd60e51b815260206004820152601d60248201527f416464726573733a2063616c6c20746f206e6f6e2d636f6e74726163740000006044820152606401610bd7565b600080866001600160a01b031685876040516132a891906140f7565b60006040518083038185875af1925050503d80600081146132e5576040519150601f19603f3d011682016040523d82523d6000602084013e6132ea565b606091505b50915091506111db828286613505565b8154600160801b90819004600f90810b80820b820b6000908152600180870160205260409091209490945584549301900b6001600160801b039081169091029116179055565b600061334b866118df565b9050600081116133b75760405162461bcd60e51b815260206004820152603160248201527f476f7665726e6f7254696d656c6f636b436f6d706f756e643a2070726f706f73604482015270185b081b9bdd081e595d081c5d595d5959607a1b6064820152608401610bd7565b6008546133cd906001600160a01b03163461353e565b60005b85518110156134c55760085486516001600160a01b0390911690630825f38f908890849081106134025761340261467e565b602002602001015187848151811061341c5761341c61467e565b60200260200101518785815181106134365761343661467e565b6020026020010151866040518563ffffffff1660e01b815260040161345e9493929190614127565b600060405180830381600087803b15801561347857600080fd5b505af115801561348c573d6000803e3d6000fd5b505050506040513d6000823e601f3d908101601f191682016040526134b49190810190613d33565b506134be81614637565b90506133d0565b50505050505050565b6000818152600760205260408120600281015460018201546134f09190614557565b6134fc6109b085611140565b11159392505050565b60608315613514575081611778565b8251156135245782518084602001fd5b8160405162461bcd60e51b8152600401610bd791906141e0565b8047101561358e5760405162461bcd60e51b815260206004820152601d60248201527f416464726573733a20696e73756666696369656e742062616c616e63650000006044820152606401610bd7565b6000826001600160a01b03168260405160006040518083038185875af1925050503d80600081146135db576040519150601f19603f3d011682016040523d82523d6000602084013e6135e0565b606091505b5050905080610ff75760405162461bcd60e51b815260206004820152603a60248201527f416464726573733a20756e61626c6520746f2073656e642076616c75652c20726044820152791958da5c1a595b9d081b585e481a185d99481c995d995c9d195960321b6064820152608401610bd7565b600082601f83011261366557600080fd5b8135602061367a6136758361450d565b6144dd565b80838252828201915082860187848660051b890101111561369a57600080fd5b60005b858110156136c25781356136b0816146aa565b8452928401929084019060010161369d565b5090979650505050505050565b600082601f8301126136e057600080fd5b813560206136f06136758361450d565b80838252828201915082860187848660051b890101111561371057600080fd5b6000805b868110156137525782356001600160401b03811115613731578283fd5b61373f8b88838d0101613808565b8652509385019391850191600101613714565b509198975050505050505050565b600082601f83011261377157600080fd5b813560206137816136758361450d565b80838252828201915082860187848660051b89010111156137a157600080fd5b60005b858110156136c2578135845292840192908401906001016137a4565b60008083601f8401126137d257600080fd5b5081356001600160401b038111156137e957600080fd5b60208301915083602082850101111561380157600080fd5b9250929050565b600082601f83011261381957600080fd5b813561382761367582614530565b81815284602083860101111561383c57600080fd5b816020850160208301376000918101602001919091529392505050565b803560ff8116811461386a57600080fd5b919050565b60006020828403121561388157600080fd5b8151611778816146aa565b6000806040838503121561389f57600080fd5b82356138aa816146aa565b946020939093013593505050565b600080600080600060a086880312156138d057600080fd5b85356138db816146aa565b945060208601356138eb816146aa565b935060408601356001600160401b038082111561390757600080fd5b61391389838a01613760565b9450606088013591508082111561392957600080fd5b61393589838a01613760565b9350608088013591508082111561394b57600080fd5b5061395888828901613808565b9150509295509295909350565b6000806000806080858703121561397b57600080fd5b8435613986816146aa565b93506020850135613996816146aa565b92506040850135915060608501356001600160401b038111156139b857600080fd5b6139c487828801613808565b91505092959194509250565b600080600080600060a086880312156139e857600080fd5b85356139f3816146aa565b94506020860135613a03816146aa565b9350604086013592506060860135915060808601356001600160401b03811115613a2c57600080fd5b61395888828901613808565b60008060008060608587031215613a4e57600080fd5b8435613a59816146aa565b93506020850135925060408501356001600160401b03811115613a7b57600080fd5b613a87878288016137c0565b95989497509550505050565b600080600060608486031215613aa857600080fd5b8335613ab3816146aa565b92506020840135915060408401356001600160401b03811115613ad557600080fd5b613ae186828701613808565b9150509250925092565b60008060008060808587031215613b0157600080fd5b84356001600160401b0380821115613b1857600080fd5b613b2488838901613654565b95506020870135915080821115613b3a57600080fd5b613b4688838901613760565b94506040870135915080821115613b5c57600080fd5b50613b69878288016136cf565b949793965093946060013593505050565b60008060008060808587031215613b9057600080fd5b84356001600160401b0380821115613ba757600080fd5b613bb388838901613654565b95506020870135915080821115613bc957600080fd5b613bd588838901613760565b94506040870135915080821115613beb57600080fd5b613bf7888389016136cf565b93506060870135915080821115613c0d57600080fd5b506139c487828801613808565b600080600080600060a08688031215613c3257600080fd5b85356001600160401b0380821115613c4957600080fd5b613c5589838a01613654565b96506020880135915080821115613c6b57600080fd5b613c7789838a01613760565b95506040880135915080821115613c8d57600080fd5b613c9989838a016136cf565b94506060880135915080821115613caf57600080fd5b50613cbc88828901613808565b95989497509295608001359392505050565b600060208284031215613ce057600080fd5b8151801515811461177857600080fd5b600060208284031215613d0257600080fd5b5051919050565b600060208284031215613d1b57600080fd5b81356001600160e01b03198116811461177857600080fd5b600060208284031215613d4557600080fd5b81516001600160401b03811115613d5b57600080fd5b8201601f81018413613d6c57600080fd5b8051613d7a61367582614530565b818152856020838501011115613d8f57600080fd5b6111ff8260208301602086016145d0565b600060208284031215613db257600080fd5b8135611778816146aa565b600060208284031215613dcf57600080fd5b5035919050565b60008060408385031215613de957600080fd5b823591506020830135613dfb816146aa565b809150509250929050565b60008060408385031215613e1957600080fd5b50508035926020909101359150565b60008060408385031215613e3b57600080fd5b82359150613e4b60208401613859565b90509250929050565b60008060008060608587031215613e6a57600080fd5b84359350613e7a60208601613859565b925060408501356001600160401b03811115613a7b57600080fd5b600080600080600060808688031215613ead57600080fd5b85359450613ebd60208701613859565b935060408601356001600160401b0380821115613ed957600080fd5b613ee589838a016137c0565b9095509350606088013591508082111561394b57600080fd5b60008060008060008060008060e0898b031215613f1a57600080fd5b88359750613f2a60208a01613859565b965060408901356001600160401b0380821115613f4657600080fd5b613f528c838d016137c0565b909850965060608b0135915080821115613f6b57600080fd5b50613f788b828c01613808565b945050613f8760808a01613859565b925060a0890135915060c089013590509295985092959890939650565b600080600080600060a08688031215613fbc57600080fd5b85359450613fcc60208701613859565b9350613fda60408701613859565b94979396509394606081013594506080013592915050565b600081518084526020808501945080840160005b8381101561402b5781516001600160a01b031687529582019590820190600101614006565b509495945050505050565b600081518084526020808501808196508360051b8101915082860160005b8581101561407e57828403895261406c8483516140bb565b98850198935090840190600101614054565b5091979650505050505050565b600081518084526020808501945080840160005b8381101561402b5781518752958201959082019060010161409f565b600081518084526140d38160208601602086016145d0565b601f01601f19169290920160200192915050565b8183823760009101908152919050565b600082516141098184602087016145d0565b9190910192915050565b6001600160a01b0391909116815260200190565b60018060a01b038516815283602082015260a06040820152600060a082015260c06060820152600061415c60c08301856140bb565b905082608083015295945050505050565b6080815260006141806080830187613ff2565b8281036020840152614192818761408b565b905082810360408401526141a68186614036565b91505082606083015295945050505050565b60208101600883106141da57634e487b7160e01b600052602160045260246000fd5b91905290565b60208152600061177860208301846140bb565b602080825260189082015277476f7665726e6f723a206f6e6c79476f7665726e616e636560401b604082015260600190565b60208082526021908201527f476f7665726e6f723a20696e76616c69642070726f706f73616c206c656e67746040820152600d60fb1b606082015260800190565b60208082526023908201527f596f75206d757374206265206120746f6b656e20686f6c64657220746f20766f6040820152623a329760e91b606082015260800190565b60208082526023908201527f476f7665726e6f723a20766f7465206e6f742063757272656e746c792061637460408201526269766560e81b606082015260800190565b60208082526021908201527f476f7665726e6f723a2070726f706f73616c206e6f74207375636365737366756040820152601b60fa1b606082015260800190565b60208082526031908201527f476f7665726e6f723a2070726f706f73657220766f7465732062656c6f7720706040820152701c9bdc1bdcd85b081d1a1c995cda1bdb19607a1b606082015260800190565b60006101208b8352602060018060a01b038c16818501528160408501526143a78285018c613ff2565b915083820360608501526143bb828b61408b565b915083820360808501528189518084528284019150828160051b850101838c0160005b8381101561440c57601f198784030185526143fa8383516140bb565b948601949250908501906001016143de565b505086810360a0880152614420818c614036565b94505050505061443b60c08401876001600160401b03169052565b6001600160401b03851660e084015282810361010084015261445d81856140bb565b9c9b505050505050505050505050565b918252602082015260400190565b84815260ff841660208201528260408201526080606082015260006115db60808301846140bb565b85815260ff8516602082015283604082015260a0606082015260006144cb60a08301856140bb565b8281036080840152611b2481856140bb565b604051601f8201601f191681016001600160401b038111828210171561450557614505614694565b604052919050565b60006001600160401b0382111561452657614526614694565b5060051b60200190565b60006001600160401b0382111561454957614549614694565b50601f01601f191660200190565b6000821982111561456a5761456a614652565b500190565b60006001600160401b0382811684821680830382111561459157614591614652565b01949350505050565b60008160001904831182151516156145b4576145b4614652565b500290565b6000828210156145cb576145cb614652565b500390565b60005b838110156145eb5781810151838201526020016145d3565b8381111561197a5750506000910152565b600181811c9082168061461057607f821691505b6020821081141561463157634e487b7160e01b600052602260045260246000fd5b50919050565b600060001982141561464b5761464b614652565b5060010190565b634e487b7160e01b600052601160045260246000fd5b634e487b7160e01b600052602160045260246000fd5b634e487b7160e01b600052603260045260246000fd5b634e487b7160e01b600052604160045260246000fd5b6001600160a01b038116811461159057600080fdfe150214d74d59b7d1e90c73fc22ef3d991dd0a76b046543d4d80ab92d2a50328fb3b3f3b703cd84ce352197dcff232b1b5d3cfb2025ce47cf04742d0651f1af88416464726573733a206c6f772d6c6576656c2063616c6c20776974682076616c7565206661696c6564e2babfbac5889a709b63bb7f598b324e08bc5a4fb9ec647fb3cbc9ec07eb8712b8e138887d0aa13bab447e82de9d5c1777041ecd21ca36ba824ff1e6c07ddda4a164736f6c6343000806000a",
  "linkReferences": {},
  "deployedLinkReferences": {}
}