{
  "_format": "hh-sol-artifact-1",
  "contractName": "ProjectNftToken",
  "sourceName": "contracts/ProjectNftToken.sol",
  "abi": [
    {
      "inputs": [
        {
          "internalType": "address",
          "name": "myGovernor",
          "type": "address"
        }
      ],
      "stateMutability": "nonpayable",
      "type": "constructor"
    },
    {
      "anonymous": false,
      "inputs": [
        {
          "indexed": true,
          "internalType": "address",
          "name": "owner",
          "type": "address"
        },
        {
          "indexed": true,
          "internalType": "address",
          "name": "approved",
          "type": "address"
        },
        {
          "indexed": true,
          "internalType": "uint256",
          "name": "tokenId",
          "type": "uint256"
        }
      ],
      "name": "Approval",
      "type": "event"
    },
    {
      "anonymous": false,
      "inputs": [
        {
          "indexed": true,
          "internalType": "address",
          "name": "owner",
          "type": "address"
        },
        {
          "indexed": true,
          "internalType": "address",
          "name": "operator",
          "type": "address"
        },
        {
          "indexed": false,
          "internalType": "bool",
          "name": "approved",
          "type": "bool"
        }
      ],
      "name": "ApprovalForAll",
      "type": "event"
    },
    {
      "anonymous": false,
      "inputs": [
        {
          "indexed": true,
          "internalType": "address",
          "name": "delegator",
          "type": "address"
        },
        {
          "indexed": true,
          "internalType": "address",
          "name": "fromDelegate",
          "type": "address"
        },
        {
          "indexed": true,
          "internalType": "address",
          "name": "toDelegate",
          "type": "address"
        }
      ],
      "name": "DelegateChanged",
      "type": "event"
    },
    {
      "anonymous": false,
      "inputs": [
        {
          "indexed": true,
          "internalType": "address",
          "name": "delegate",
          "type": "address"
        },
        {
          "indexed": false,
          "internalType": "uint256",
          "name": "previousBalance",
          "type": "uint256"
        },
        {
          "indexed": false,
          "internalType": "uint256",
          "name": "newBalance",
          "type": "uint256"
        }
      ],
      "name": "DelegateVotesChanged",
      "type": "event"
    },
    {
      "anonymous": false,
      "inputs": [
        {
          "indexed": false,
          "internalType": "uint256",
          "name": "gas",
          "type": "uint256"
        }
      ],
      "name": "Log",
      "type": "event"
    },
    {
      "anonymous": false,
      "inputs": [
        {
          "indexed": true,
          "internalType": "address",
          "name": "previousOwner",
          "type": "address"
        },
        {
          "indexed": true,
          "internalType": "address",
          "name": "newOwner",
          "type": "address"
        }
      ],
      "name": "OwnershipTransferred",
      "type": "event"
    },
    {
      "anonymous": false,
      "inputs": [
        {
          "indexed": false,
          "internalType": "address",
          "name": "account",
          "type": "address"
        }
      ],
      "name": "Paused",
      "type": "event"
    },
    {
      "anonymous": false,
      "inputs": [
        {
          "indexed": true,
          "internalType": "address",
          "name": "from",
          "type": "address"
        },
        {
          "indexed": true,
          "internalType": "address",
          "name": "to",
          "type": "address"
        },
        {
          "indexed": true,
          "internalType": "uint256",
          "name": "tokenId",
          "type": "uint256"
        }
      ],
      "name": "Transfer",
      "type": "event"
    },
    {
      "anonymous": false,
      "inputs": [
        {
          "indexed": false,
          "internalType": "address",
          "name": "account",
          "type": "address"
        }
      ],
      "name": "Unpaused",
      "type": "event"
    },
    {
      "stateMutability": "payable",
      "type": "fallback"
    },
    {
      "inputs": [],
      "name": "DOMAIN_SEPARATOR",
      "outputs": [
        {
          "internalType": "bytes32",
          "name": "",
          "type": "bytes32"
        }
      ],
      "stateMutability": "view",
      "type": "function"
    },
    {
      "inputs": [],
      "name": "MAX_PER_MINT",
      "outputs": [
        {
          "internalType": "uint256",
          "name": "",
          "type": "uint256"
        }
      ],
      "stateMutability": "view",
      "type": "function"
    },
    {
      "inputs": [],
      "name": "MAX_SUPPLY",
      "outputs": [
        {
          "internalType": "uint256",
          "name": "",
          "type": "uint256"
        }
      ],
      "stateMutability": "view",
      "type": "function"
    },
    {
      "inputs": [],
      "name": "PRICE",
      "outputs": [
        {
          "internalType": "uint256",
          "name": "",
          "type": "uint256"
        }
      ],
      "stateMutability": "view",
      "type": "function"
    },
    {
      "inputs": [],
      "name": "ROYALTY",
      "outputs": [
        {
          "internalType": "uint256",
          "name": "",
          "type": "uint256"
        }
      ],
      "stateMutability": "view",
      "type": "function"
    },
    {
      "inputs": [],
      "name": "aUri",
      "outputs": [
        {
          "internalType": "string",
          "name": "",
          "type": "string"
        }
      ],
      "stateMutability": "view",
      "type": "function"
    },
    {
      "inputs": [
        {
          "internalType": "address",
          "name": "",
          "type": "address"
        }
      ],
      "name": "adminMembers",
      "outputs": [
        {
          "internalType": "bool",
          "name": "",
          "type": "bool"
        }
      ],
      "stateMutability": "view",
      "type": "function"
    },
    {
      "inputs": [
        {
          "internalType": "address",
          "name": "to",
          "type": "address"
        },
        {
          "internalType": "uint256",
          "name": "tokenId",
          "type": "uint256"
        }
      ],
      "name": "approve",
      "outputs": [],
      "stateMutability": "nonpayable",
      "type": "function"
    },
    {
      "inputs": [],
      "name": "bUri",
      "outputs": [
        {
          "internalType": "string",
          "name": "",
          "type": "string"
        }
      ],
      "stateMutability": "view",
      "type": "function"
    },
    {
      "inputs": [
        {
          "internalType": "address",
          "name": "owner",
          "type": "address"
        }
      ],
      "name": "balanceOf",
      "outputs": [
        {
          "internalType": "uint256",
          "name": "",
          "type": "uint256"
        }
      ],
      "stateMutability": "view",
      "type": "function"
    },
    {
      "inputs": [],
      "name": "baseExtension",
      "outputs": [
        {
          "internalType": "string",
          "name": "",
          "type": "string"
        }
      ],
      "stateMutability": "view",
      "type": "function"
    },
    {
      "inputs": [],
      "name": "creator",
      "outputs": [
        {
          "internalType": "address",
          "name": "",
          "type": "address"
        }
      ],
      "stateMutability": "view",
      "type": "function"
    },
    {
      "inputs": [
        {
          "internalType": "address",
          "name": "delegatee",
          "type": "address"
        }
      ],
      "name": "delegate",
      "outputs": [],
      "stateMutability": "nonpayable",
      "type": "function"
    },
    {
      "inputs": [
        {
          "internalType": "address",
          "name": "delegatee",
          "type": "address"
        },
        {
          "internalType": "uint256",
          "name": "nonce",
          "type": "uint256"
        },
        {
          "internalType": "uint256",
          "name": "expiry",
          "type": "uint256"
        },
        {
          "internalType": "uint8",
          "name": "v",
          "type": "uint8"
        },
        {
          "internalType": "bytes32",
          "name": "r",
          "type": "bytes32"
        },
        {
          "internalType": "bytes32",
          "name": "s",
          "type": "bytes32"
        }
      ],
      "name": "delegateBySig",
      "outputs": [],
      "stateMutability": "nonpayable",
      "type": "function"
    },
    {
      "inputs": [
        {
          "internalType": "address",
          "name": "account",
          "type": "address"
        }
      ],
      "name": "delegates",
      "outputs": [
        {
          "internalType": "address",
          "name": "",
          "type": "address"
        }
      ],
      "stateMutability": "view",
      "type": "function"
    },
    {
      "inputs": [
        {
          "internalType": "uint256",
          "name": "tokenId",
          "type": "uint256"
        }
      ],
      "name": "getApproved",
      "outputs": [
        {
          "internalType": "address",
          "name": "",
          "type": "address"
        }
      ],
      "stateMutability": "view",
      "type": "function"
    },
    {
      "inputs": [],
      "name": "getBalance",
      "outputs": [
        {
          "internalType": "uint256",
          "name": "",
          "type": "uint256"
        }
      ],
      "stateMutability": "view",
      "type": "function"
    },
    {
      "inputs": [
        {
          "internalType": "uint256",
          "name": "blockNumber",
          "type": "uint256"
        }
      ],
      "name": "getPastTotalSupply",
      "outputs": [
        {
          "internalType": "uint256",
          "name": "",
          "type": "uint256"
        }
      ],
      "stateMutability": "view",
      "type": "function"
    },
    {
      "inputs": [
        {
          "internalType": "address",
          "name": "account",
          "type": "address"
        },
        {
          "internalType": "uint256",
          "name": "blockNumber",
          "type": "uint256"
        }
      ],
      "name": "getPastVotes",
      "outputs": [
        {
          "internalType": "uint256",
          "name": "",
          "type": "uint256"
        }
      ],
      "stateMutability": "view",
      "type": "function"
    },
    {
      "inputs": [
        {
          "internalType": "address",
          "name": "account",
          "type": "address"
        }
      ],
      "name": "getVotes",
      "outputs": [
        {
          "internalType": "uint256",
          "name": "",
          "type": "uint256"
        }
      ],
      "stateMutability": "view",
      "type": "function"
    },
    {
      "inputs": [],
      "name": "initialProposer",
      "outputs": [
        {
          "internalType": "address",
          "name": "",
          "type": "address"
        }
      ],
      "stateMutability": "view",
      "type": "function"
    },
    {
      "inputs": [
        {
          "internalType": "address",
          "name": "owner",
          "type": "address"
        },
        {
          "internalType": "address",
          "name": "operator",
          "type": "address"
        }
      ],
      "name": "isApprovedForAll",
      "outputs": [
        {
          "internalType": "bool",
          "name": "",
          "type": "bool"
        }
      ],
      "stateMutability": "view",
      "type": "function"
    },
    {
      "inputs": [
        {
          "internalType": "address",
          "name": "_whitelistedAddress",
          "type": "address"
        }
      ],
      "name": "isWhitelisted",
      "outputs": [
        {
          "internalType": "bool",
          "name": "",
          "type": "bool"
        }
      ],
      "stateMutability": "view",
      "type": "function"
    },
    {
      "inputs": [],
      "name": "mintWhitelist",
      "outputs": [],
      "stateMutability": "payable",
      "type": "function"
    },
    {
      "inputs": [],
      "name": "myGov",
      "outputs": [
        {
          "internalType": "address",
          "name": "",
          "type": "address"
        }
      ],
      "stateMutability": "view",
      "type": "function"
    },
    {
      "inputs": [],
      "name": "name",
      "outputs": [
        {
          "internalType": "string",
          "name": "",
          "type": "string"
        }
      ],
      "stateMutability": "view",
      "type": "function"
    },
    {
      "inputs": [
        {
          "internalType": "address",
          "name": "owner",
          "type": "address"
        }
      ],
      "name": "nonces",
      "outputs": [
        {
          "internalType": "uint256",
          "name": "",
          "type": "uint256"
        }
      ],
      "stateMutability": "view",
      "type": "function"
    },
    {
      "inputs": [],
      "name": "owner",
      "outputs": [
        {
          "internalType": "address",
          "name": "",
          "type": "address"
        }
      ],
      "stateMutability": "view",
      "type": "function"
    },
    {
      "inputs": [
        {
          "internalType": "uint256",
          "name": "tokenId",
          "type": "uint256"
        }
      ],
      "name": "ownerOf",
      "outputs": [
        {
          "internalType": "address",
          "name": "",
          "type": "address"
        }
      ],
      "stateMutability": "view",
      "type": "function"
    },
    {
      "inputs": [],
      "name": "pause",
      "outputs": [],
      "stateMutability": "nonpayable",
      "type": "function"
    },
    {
      "inputs": [],
      "name": "pauseLocalsOnly",
      "outputs": [],
      "stateMutability": "nonpayable",
      "type": "function"
    },
    {
      "inputs": [],
      "name": "paused",
      "outputs": [
        {
          "internalType": "bool",
          "name": "",
          "type": "bool"
        }
      ],
      "stateMutability": "view",
      "type": "function"
    },
    {
      "inputs": [
        {
          "internalType": "address",
          "name": "to",
          "type": "address"
        }
      ],
      "name": "payWithRoyalty",
      "outputs": [],
      "stateMutability": "payable",
      "type": "function"
    },
    {
      "inputs": [],
      "name": "renounceOwnership",
      "outputs": [],
      "stateMutability": "nonpayable",
      "type": "function"
    },
    {
      "inputs": [
        {
          "internalType": "address",
          "name": "to",
          "type": "address"
        }
      ],
      "name": "safeMint",
      "outputs": [],
      "stateMutability": "payable",
      "type": "function"
    },
    {
      "inputs": [
        {
          "internalType": "address",
          "name": "from",
          "type": "address"
        },
        {
          "internalType": "address",
          "name": "to",
          "type": "address"
        },
        {
          "internalType": "uint256",
          "name": "tokenId",
          "type": "uint256"
        }
      ],
      "name": "safeTransferFrom",
      "outputs": [],
      "stateMutability": "nonpayable",
      "type": "function"
    },
    {
      "inputs": [
        {
          "internalType": "address",
          "name": "from",
          "type": "address"
        },
        {
          "internalType": "address",
          "name": "to",
          "type": "address"
        },
        {
          "internalType": "uint256",
          "name": "tokenId",
          "type": "uint256"
        },
        {
          "internalType": "bytes",
          "name": "data",
          "type": "bytes"
        }
      ],
      "name": "safeTransferFrom",
      "outputs": [],
      "stateMutability": "nonpayable",
      "type": "function"
    },
    {
      "inputs": [
        {
          "internalType": "string",
          "name": "_baseTokenURI",
          "type": "string"
        }
      ],
      "name": "setAURI",
      "outputs": [],
      "stateMutability": "nonpayable",
      "type": "function"
    },
    {
      "inputs": [
        {
          "internalType": "address",
          "name": "account",
          "type": "address"
        }
      ],
      "name": "setAdminMember",
      "outputs": [],
      "stateMutability": "nonpayable",
      "type": "function"
    },
    {
      "inputs": [
        {
          "internalType": "address",
          "name": "operator",
          "type": "address"
        },
        {
          "internalType": "bool",
          "name": "approved",
          "type": "bool"
        }
      ],
      "name": "setApprovalForAll",
      "outputs": [],
      "stateMutability": "nonpayable",
      "type": "function"
    },
    {
      "inputs": [
        {
          "internalType": "string",
          "name": "_baseTokenURI",
          "type": "string"
        }
      ],
      "name": "setBURI",
      "outputs": [],
      "stateMutability": "nonpayable",
      "type": "function"
    },
    {
      "inputs": [
        {
          "internalType": "address",
          "name": "account",
          "type": "address"
        }
      ],
      "name": "setInitialProposer",
      "outputs": [],
      "stateMutability": "nonpayable",
      "type": "function"
    },
    {
      "inputs": [
        {
          "internalType": "address[]",
          "name": "addresses",
          "type": "address[]"
        }
      ],
      "name": "setWhitelist",
      "outputs": [],
      "stateMutability": "nonpayable",
      "type": "function"
    },
    {
      "inputs": [
        {
          "internalType": "bytes4",
          "name": "interfaceId",
          "type": "bytes4"
        }
      ],
      "name": "supportsInterface",
      "outputs": [
        {
          "internalType": "bool",
          "name": "",
          "type": "bool"
        }
      ],
      "stateMutability": "view",
      "type": "function"
    },
    {
      "inputs": [],
      "name": "symbol",
      "outputs": [
        {
          "internalType": "string",
          "name": "",
          "type": "string"
        }
      ],
      "stateMutability": "view",
      "type": "function"
    },
    {
      "inputs": [
        {
          "internalType": "uint256",
          "name": "index",
          "type": "uint256"
        }
      ],
      "name": "tokenByIndex",
      "outputs": [
        {
          "internalType": "uint256",
          "name": "",
          "type": "uint256"
        }
      ],
      "stateMutability": "view",
      "type": "function"
    },
    {
      "inputs": [
        {
          "internalType": "address",
          "name": "owner",
          "type": "address"
        },
        {
          "internalType": "uint256",
          "name": "index",
          "type": "uint256"
        }
      ],
      "name": "tokenOfOwnerByIndex",
      "outputs": [
        {
          "internalType": "uint256",
          "name": "",
          "type": "uint256"
        }
      ],
      "stateMutability": "view",
      "type": "function"
    },
    {
      "inputs": [
        {
          "internalType": "uint256",
          "name": "tokenId",
          "type": "uint256"
        }
      ],
      "name": "tokenURI",
      "outputs": [
        {
          "internalType": "string",
          "name": "",
          "type": "string"
        }
      ],
      "stateMutability": "view",
      "type": "function"
    },
    {
      "inputs": [],
      "name": "totalSupply",
      "outputs": [
        {
          "internalType": "uint256",
          "name": "",
          "type": "uint256"
        }
      ],
      "stateMutability": "view",
      "type": "function"
    },
    {
      "inputs": [
        {
          "internalType": "address",
          "name": "from",
          "type": "address"
        },
        {
          "internalType": "address",
          "name": "to",
          "type": "address"
        },
        {
          "internalType": "uint256",
          "name": "tokenId",
          "type": "uint256"
        }
      ],
      "name": "transferFrom",
      "outputs": [],
      "stateMutability": "nonpayable",
      "type": "function"
    },
    {
      "inputs": [
        {
          "internalType": "address",
          "name": "newOwner",
          "type": "address"
        }
      ],
      "name": "transferOwnership",
      "outputs": [],
      "stateMutability": "nonpayable",
      "type": "function"
    },
    {
      "inputs": [],
      "name": "unpause",
      "outputs": [],
      "stateMutability": "nonpayable",
      "type": "function"
    },
    {
      "inputs": [],
      "name": "unpauseLocalsOnly",
      "outputs": [],
      "stateMutability": "nonpayable",
      "type": "function"
    },
    {
      "inputs": [],
      "name": "whitelistPaused",
      "outputs": [
        {
          "internalType": "bool",
          "name": "",
          "type": "bool"
        }
      ],
      "stateMutability": "view",
      "type": "function"
    }
  ],
  "bytecode": "0x60c8600f55610180604052600d6101408190526c5552496161616161616161616160981b610160908152620000389160149190620002f0565b5060408051808201909152600d8082526c2aa924b131313131313131313160991b60209092019182526200006f91601591620002f0565b5060408051808201909152600580825264173539b7b760d91b60209092019182526200009e91601691620002f0565b5060c8601955601a805460ff19166001179055348015620000be57600080fd5b5060405162003ff438038062003ff4833981016040819052620000e19162000396565b6040518060400160405280600c81526020016b283937b532b1ba2a37b5b2b760a11b815250604051806040016040528060018152602001603160f81b8152506040518060400160405280600c81526020016b283937b532b1ba2a37b5b2b760a11b8152506040518060400160405280600381526020016250544b60e81b815250816000908051906020019062000179929190620002f0565b5080516200018f906001906020840190620002f0565b5050600a805460ff1916905550620001a73362000296565b815160208084019190912082518383012060e08290526101008190524660a0818152604080517f8b73c3c69bb8fe3d512ecc4cf759cc79239f7b179b0ffacaa9a75d522b39400f81880181905281830187905260608201869052608082019490945230818401528151808203909301835260c00190528051940193909320919290916080523060601b60c052610120525050601780546001600160a01b0319166001600160a01b038516179055506200026f9050600a5461010090046001600160a01b031690565b601180546001600160a01b0319166001600160a01b03929092169190911790555062000405565b600a80546001600160a01b03838116610100818102610100600160a81b031985161790945560405193909204169182907f8be0079c531659141344cd1fd0a4f28419497f9722a3daafe3b4186f6b6457e090600090a35050565b828054620002fe90620003c8565b90600052602060002090601f0160209004810192826200032257600085556200036d565b82601f106200033d57805160ff19168380011785556200036d565b828001600101855582156200036d579182015b828111156200036d57825182559160200191906001019062000350565b506200037b9291506200037f565b5090565b5b808211156200037b576000815560010162000380565b600060208284031215620003a957600080fd5b81516001600160a01b0381168114620003c157600080fd5b9392505050565b600181811c90821680620003dd57607f821691505b60208210811415620003ff57634e487b7160e01b600052602260045260246000fd5b50919050565b60805160a05160c05160601c60e0516101005161012051613b9c620004586000396000611df501526000611e4401526000611e1f01526000611d7801526000611da201526000611dcc0152613b9c6000f3fe6080604052600436106102655760003560e01c806301ffc9a71461029a57806302d05d3f146102cf57806305bf4f35146102fc57806306fdde031461032c578063081812fc1461034e578063095ea7b31461036e57806309d42b30146103905780630c1ffafa146103b35780630dad0928146103d357806312065fe0146103f357806318160ddd146104065780631cb5972d1461041b57806323b872dd146104305780632824c017146104505780632d3df31f146104705780632f745c591461047857806332cb6b0c146104985780633644e515146104ae57806337264d5e146104c35780633a46b1a8146104d85780633af32abf146104f85780633f4ba83a1461053157806340d097c31461054657806342842e0e146105595780634f6ccce714610579578063587cde1e146105995780635c19a95c146105b95780635c975abb146105d957806361e61a25146105f15780636352211e1461061057806370a0823114610630578063715018a6146106505780637ecebe001461066557806380f2b788146106855780638456cb59146106a55780638704a208146103905780638d859f3e146106ba5780638da5cb5b146106d55780638e539e8c146106ea57806395d89b411461070a5780639ab24eb01461071f578063a22cb4651461073f578063b88d4fde1461075f578063bb2419b91461077f578063bf1c45741461079f578063c3cda520146107bf578063c6682862146107df578063c87b56dd146107f4578063e985e9c514610814578063e9b4a99c14610834578063f187737e14610847578063f2fde38b1461085c578063f42176481461087c578063fa29b65a1461089c575b7f909c57d5c6ac08245cf2a6de3900e2b868513fa59099b92b27d8db823d92df9c5a60405190815260200160405180910390a1005b3480156102a657600080fd5b506102ba6102b53660046135e5565b6108b1565b60405190151581526020015b60405180910390f35b3480156102db57600080fd5b506011546102ef906001600160a01b031681565b6040516102c69190613779565b34801561030857600080fd5b506102ba61031736600461338e565b60126020526000908152604090205460ff1681565b34801561033857600080fd5b506103416108c2565b6040516102c691906137ca565b34801561035a57600080fd5b506102ef610369366004613667565b610954565b34801561037a57600080fd5b5061038e6103893660046134ca565b61097b565b005b34801561039c57600080fd5b506103a5600581565b6040519081526020016102c6565b3480156103bf57600080fd5b5061038e6103ce36600461361f565b610a96565b3480156103df57600080fd5b5061038e6103ee36600461338e565b610afa565b3480156103ff57600080fd5b50476103a5565b34801561041257600080fd5b506008546103a5565b34801561042757600080fd5b50610341610b8e565b34801561043c57600080fd5b5061038e61044b3660046133dc565b610c1c565b34801561045c57600080fd5b5061038e61046b36600461338e565b610c72565b61038e610d3a565b34801561048457600080fd5b506103a56104933660046134ca565b610f8f565b3480156104a457600080fd5b506103a561025881565b3480156104ba57600080fd5b506103a5610fa2565b3480156104cf57600080fd5b50610341610fb1565b3480156104e457600080fd5b506103a56104f33660046134ca565b610fbe565b34801561050457600080fd5b506102ba61051336600461338e565b6001600160a01b031660009081526018602052604090205460ff1690565b34801561053d57600080fd5b5061038e610fe0565b61038e61055436600461338e565b61104c565b34801561056557600080fd5b5061038e6105743660046133dc565b6110d7565b34801561058557600080fd5b506103a5610594366004613667565b611124565b3480156105a557600080fd5b506102ef6105b436600461338e565b6111b7565b3480156105c557600080fd5b5061038e6105d436600461338e565b6111d5565b3480156105e557600080fd5b50600a5460ff166102ba565b3480156105fd57600080fd5b50601a546102ba90610100900460ff1681565b34801561061c57600080fd5b506102ef61062b366004613667565b6111e0565b34801561063c57600080fd5b506103a561064b36600461338e565b611215565b34801561065c57600080fd5b5061038e61129b565b34801561067157600080fd5b506103a561068036600461338e565b6112ad565b34801561069157600080fd5b506017546102ef906001600160a01b031681565b3480156106b157600080fd5b5061038e6112cb565b3480156106c657600080fd5b506103a566470de4df82000081565b3480156106e157600080fd5b506102ef611339565b3480156106f657600080fd5b506103a5610705366004613667565b61134d565b34801561071657600080fd5b506103416113a6565b34801561072b57600080fd5b506103a561073a36600461338e565b6113b5565b34801561074b57600080fd5b5061038e61075a366004613493565b6113d6565b34801561076b57600080fd5b5061038e61077a366004613418565b6113e1565b34801561078b57600080fd5b5061038e61079a36600461361f565b611419565b3480156107ab57600080fd5b506013546102ef906001600160a01b031681565b3480156107cb57600080fd5b5061038e6107da3660046134f4565b611479565b3480156107eb57600080fd5b506103416115a1565b34801561080057600080fd5b5061034161080f366004613667565b6115ae565b34801561082057600080fd5b506102ba61082f3660046133a9565b611743565b61038e61084236600461338e565b611771565b34801561085357600080fd5b5061038e611885565b34801561086857600080fd5b5061038e61087736600461338e565b6118ed565b34801561088857600080fd5b5061038e610897366004613554565b611966565b3480156108a857600080fd5b5061038e611b28565b60006108bc82611b8c565b92915050565b6060600080546108d190613a43565b80601f01602080910402602001604051908101604052809291908181526020018280546108fd90613a43565b801561094a5780601f1061091f5761010080835404028352916020019161094a565b820191906000526020600020905b81548152906001019060200180831161092d57829003601f168201915b5050505050905090565b600061095f82611bb1565b506000908152600460205260409020546001600160a01b031690565b6000610986826111e0565b9050806001600160a01b0316836001600160a01b031614156109f95760405162461bcd60e51b815260206004820152602160248201527f4552433732313a20617070726f76616c20746f2063757272656e74206f776e656044820152603960f91b60648201526084015b60405180910390fd5b336001600160a01b0382161480610a155750610a158133611743565b610a875760405162461bcd60e51b815260206004820152603e60248201527f4552433732313a20617070726f76652063616c6c6572206973206e6f7420746f60448201527f6b656e206f776e6572206e6f7220617070726f76656420666f7220616c6c000060648201526084016109f0565b610a918383611bd6565b505050565b6011546001600160a01b0316331480610ac75750610ab2611339565b6001600160a01b0316336001600160a01b0316145b610ae35760405162461bcd60e51b81526004016109f09061390d565b8051610af690601590602084019061326d565b5050565b6011546001600160a01b03163314610b6c5760405162461bcd60e51b815260206004820152602f60248201527f5468652070726f706f7365722063616e206f6e6c79206265207365742062792060448201526e3a34329033b7bb103432b63832b91760891b60648201526084016109f0565b601380546001600160a01b0319166001600160a01b0392909216919091179055565b60148054610b9b90613a43565b80601f0160208091040260200160405190810160405280929190818152602001828054610bc790613a43565b8015610c145780601f10610be957610100808354040283529160200191610c14565b820191906000526020600020905b815481529060010190602001808311610bf757829003601f168201915b505050505081565b610c24611c44565b601a5460ff6101009091041615156001148015610c42575060c88110155b610c5e5760405162461bcd60e51b81526004016109f090613882565b610c6782611771565b610a91838383611c8a565b6011546001600160a01b0316331480610ca35750610c8e611339565b6001600160a01b0316336001600160a01b0316145b610cbf5760405162461bcd60e51b81526004016109f09061390d565b3360009081526012602052604090205460ff16151560011480610cfa5750610ce5611339565b6001600160a01b0316336001600160a01b0316145b610d165760405162461bcd60e51b81526004016109f09061382f565b6001600160a01b03166000908152601260205260409020805460ff19166001179055565b601a54610100900460ff1615610da75760405162461bcd60e51b815260206004820152602c60248201527f596f752063616e6e6f742077686974656c697374206d696e74206e667473206160448201526b3a103a3434b9903a34b6b29760a11b60648201526084016109f0565b6000610db260105490565b601a5490915060ff16610e025760405162461bcd60e51b8152602060048201526018602482015277416c6c6f77206c697374206973206e6f742061637469766560401b60448201526064016109f0565b3360009081526018602052604090206001908101541015610e7a5760405162461bcd60e51b815260206004820152602c60248201527f43616c6c6572206e6f7420616c6c6f77656420746f207075726368617365207760448201526b1a1a5d195b1a5cdd0813919560a21b60648201526084016109f0565b601954610e888260016139b5565b1115610ee95760405162461bcd60e51b815260206004820152602a60248201527f507572636861736520776f756c6420657863656564206d61782077686974656c60448201526969737420746f6b656e7360b01b60648201526084016109f0565b34610efc66470de4df82000060016139e1565b1115610f4a5760405162461bcd60e51b815260206004820152601f60248201527f45746865722076616c75652073656e74206973206e6f7420636f72726563740060448201526064016109f0565b3360009081526018602052604081206001908101805491929091610f6f908490613a00565b9091555050601054610f813382611cbb565b610af6601080546001019055565b6000610f9b8383611cd5565b9392505050565b6000610fac611d6b565b905090565b60158054610b9b90613a43565b6001600160a01b0382166000908152600c60205260408120610f9b9083611e92565b3360009081526012602052604090205460ff1615156001148061101b5750611006611339565b6001600160a01b0316336001600160a01b0316145b6110375760405162461bcd60e51b81526004016109f09061382f565b601a805461ff001916905561104a611fa0565b565b66470de4df8200003410156110ae5760405162461bcd60e51b815260206004820152602260248201527f4e6f7420656e6f75676820657468657220746f207075726368617365204e4654604482015261399760f11b60648201526084016109f0565b600f546110bb8282611cbb565b6001600f60008282546110ce91906139b5565b90915550505050565b6110df611c44565b601a5460ff61010090910416151560011480156110fd575060c88110155b6111195760405162461bcd60e51b81526004016109f090613882565b610a91838383611fec565b600061112f60085490565b82106111925760405162461bcd60e51b815260206004820152602c60248201527f455243373231456e756d657261626c653a20676c6f62616c20696e646578206f60448201526b7574206f6620626f756e647360a01b60648201526084016109f0565b600882815481106111a5576111a5613aff565b90600052602060002001549050919050565b6001600160a01b039081166000908152600b60205260409020541690565b33610af68183612007565b6000818152600260205260408120546001600160a01b0316806108bc5760405162461bcd60e51b81526004016109f0906138db565b60006001600160a01b03821661127f5760405162461bcd60e51b815260206004820152602960248201527f4552433732313a2061646472657373207a65726f206973206e6f7420612076616044820152683634b21037bbb732b960b91b60648201526084016109f0565b506001600160a01b031660009081526003602052604090205490565b6112a3612082565b61104a60006120e1565b6001600160a01b0381166000908152600e60205260408120546108bc565b3360009081526012602052604090205460ff1615156001148061130657506112f1611339565b6001600160a01b0316336001600160a01b0316145b6113225760405162461bcd60e51b81526004016109f09061382f565b601a805461ff00191661010017905561104a61213b565b600a5461010090046001600160a01b031690565b600043821061139b5760405162461bcd60e51b815260206004820152601a602482015279159bdd195cce88189b1bd8dac81b9bdd081e595d081b5a5b995960321b60448201526064016109f0565b6108bc600d83611e92565b6060600180546108d190613a43565b6001600160a01b0381166000908152600c602052604081206108bc90612178565b610af63383836121d3565b6113eb338361229e565b6114075760405162461bcd60e51b81526004016109f090613967565b611413848484846122fd565b50505050565b6011546001600160a01b031633148061144a5750611435611339565b6001600160a01b0316336001600160a01b0316145b6114665760405162461bcd60e51b81526004016109f09061390d565b8051610af690601490602084019061326d565b834211156114c45760405162461bcd60e51b8152602060048201526018602482015277159bdd195cce881cda59db985d1d5c9948195e1c1a5c995960421b60448201526064016109f0565b604080517fe48329057bfd03d55e49b547132e39cffd9c1820ad7b9d4c5307691425d15adf60208201526001600160a01b03881691810191909152606081018690526080810185905260009061153e906115369060a00160405160208183030381529060405280519060200120612330565b85858561237e565b9050611549816123a6565b861461158e5760405162461bcd60e51b8152602060048201526014602482015273566f7465733a20696e76616c6964206e6f6e636560601b60448201526064016109f0565b6115988188612007565b50505050505050565b60168054610b9b90613a43565b60606115b9826123ce565b61161d5760405162461bcd60e51b815260206004820152602f60248201527f4552433732314d657461646174613a2055524920717565727920666f72206e6f60448201526e3732bc34b9ba32b73a103a37b5b2b760891b60648201526084016109f0565b6000611628836111e0565b60175460405162f1738560e21b81529192506001600160a01b0316906303c5ce1490611658908490600401613779565b60206040518083038186803b15801561167057600080fd5b505afa158015611684573d6000803e3d6000fd5b505050506040513d601f19601f820116820180604052508101906116a891906135c8565b1561170d576000601480546116bc90613a43565b9050116116d85760405180602001604052806000815250610f9b565b60146116e3846123eb565b60166040516020016116f793929190613746565b6040516020818303038152906040529392505050565b60006015805461171c90613a43565b9050116117385760405180602001604052806000815250610f9b565b60156116e3846123eb565b6001600160a01b03918216600090815260056020908152604080832093909416825291909152205460ff1690565b600060646117803460056139e1565b61178a91906139cd565b905066038d7ea4c680008110156117a5575066038d7ea4c680005b803410156118125760405162461bcd60e51b815260206004820152603460248201527f796f75206e65656420746f2070726f76696465206d6f72652065746865722074604482015273379034b731b63ab232903937bcb0b63a34b2b99760611b60648201526084016109f0565b604051309082156108fc029083906000818181858888f1935050505015801561183f573d6000803e3d6000fd5b50600061184c8234613a00565b6040519091506001600160a01b0384169082156108fc029083906000818181858888f19350505050158015611413573d6000803e3d6000fd5b3360009081526012602052604090205460ff161515600114806118c057506118ab611339565b6001600160a01b0316336001600160a01b0316145b6118dc5760405162461bcd60e51b81526004016109f09061382f565b601a805461ff001916610100179055565b6118f5612082565b6001600160a01b03811661195a5760405162461bcd60e51b815260206004820152602660248201527f4f776e61626c653a206e6577206f776e657220697320746865207a65726f206160448201526564647265737360d01b60648201526084016109f0565b611963816120e1565b50565b3360009081526012602052604090205460ff161515600114806119a1575061198c611339565b6001600160a01b0316336001600160a01b0316145b6119bd5760405162461bcd60e51b81526004016109f09061382f565b60005b81811015610a915760008383838181106119dc576119dc613aff565b90506020020160208101906119f1919061338e565b6001600160a01b03811660009081526018602052604090205490915060ff1615611a6c5760405162461bcd60e51b815260206004820152602660248201527f4572726f723a2053656e64657220616c7265616479206265656e2077686974656044820152651b1a5cdd195960d21b60648201526084016109f0565b600160186000868686818110611a8457611a84613aff565b9050602002016020810190611a99919061338e565b6001600160a01b03166001600160a01b0316815260200190815260200160002060010181905550600160186000868686818110611ad857611ad8613aff565b9050602002016020810190611aed919061338e565b6001600160a01b031681526020810191909152604001600020805460ff19169115159190911790555080611b2081613a78565b9150506119c0565b3360009081526012602052604090205460ff16151560011480611b635750611b4e611339565b6001600160a01b0316336001600160a01b0316145b611b7f5760405162461bcd60e51b81526004016109f09061382f565b601a805461ff0019169055565b60006001600160e01b0319821663780e9d6360e01b14806108bc57506108bc826124e8565b611bba816123ce565b6119635760405162461bcd60e51b81526004016109f0906138db565b600081815260046020526040902080546001600160a01b0319166001600160a01b0384169081179091558190611c0b826111e0565b6001600160a01b03167f8c5be1e5ebec7d5bd14f71427d1e84f3dd0314c0f7b2291e5b200ac8c7c3b92560405160405180910390a45050565b600a5460ff161561104a5760405162461bcd60e51b815260206004820152601060248201526f14185d5cd8589b194e881c185d5cd95960821b60448201526064016109f0565b611c94338261229e565b611cb05760405162461bcd60e51b81526004016109f090613967565b610a91838383612538565b610af68282604051806020016040528060008152506126d3565b6000611ce083611215565b8210611d425760405162461bcd60e51b815260206004820152602b60248201527f455243373231456e756d657261626c653a206f776e657220696e646578206f7560448201526a74206f6620626f756e647360a81b60648201526084016109f0565b506001600160a01b03919091166000908152600660209081526040808320938352929052205490565b6000306001600160a01b037f000000000000000000000000000000000000000000000000000000000000000016148015611dc457507f000000000000000000000000000000000000000000000000000000000000000046145b15611dee57507f000000000000000000000000000000000000000000000000000000000000000090565b50604080517f00000000000000000000000000000000000000000000000000000000000000006020808301919091527f0000000000000000000000000000000000000000000000000000000000000000828401527f000000000000000000000000000000000000000000000000000000000000000060608301524660808301523060a0808401919091528351808403909101815260c0909201909252805191012090565b6000438210611ee35760405162461bcd60e51b815260206004820181905260248201527f436865636b706f696e74733a20626c6f636b206e6f7420796574206d696e656460448201526064016109f0565b825460005b81811015611f48576000611efc8284612706565b905084866000018281548110611f1457611f14613aff565b60009182526020909120015463ffffffff161115611f3457809250611f42565b611f3f8160016139b5565b91505b50611ee8565b8115611f8b5784611f5a600184613a00565b81548110611f6a57611f6a613aff565b600091825260209091200154600160201b90046001600160e01b0316611f8e565b60005b6001600160e01b031695945050505050565b611fa8612721565b600a805460ff191690557f5db9ee0a495bf2e6ff9c91a7834c1ba4fdd244a5e8aa4e537bd38aeae4b073aa335b604051611fe29190613779565b60405180910390a1565b610a91838383604051806020016040528060008152506113e1565b6000612012836111b7565b6001600160a01b038481166000818152600b602052604080822080546001600160a01b031916888616908117909155905194955093928516927f3134e8a2e6d97e929a7e54011ea5485d7d196dd5f0ba4d4ef95803e8e3fc257f9190a4610a91818361207d8661276a565b612775565b3361208b611339565b6001600160a01b03161461104a5760405162461bcd60e51b815260206004820181905260248201527f4f776e61626c653a2063616c6c6572206973206e6f7420746865206f776e657260448201526064016109f0565b600a80546001600160a01b03838116610100818102610100600160a81b031985161790945560405193909204169182907f8be0079c531659141344cd1fd0a4f28419497f9722a3daafe3b4186f6b6457e090600090a35050565b612143611c44565b600a805460ff191660011790557f62e78cea01bee320cd4e420270b5ea74000d11b0c9f74754ebdbfc544b05a258611fd53390565b805460009080156121c0578261218f600183613a00565b8154811061219f5761219f613aff565b600091825260209091200154600160201b90046001600160e01b03166121c3565b60005b6001600160e01b03169392505050565b816001600160a01b0316836001600160a01b031614156122315760405162461bcd60e51b815260206004820152601960248201527822a9219b99189d1030b8383937bb32903a379031b0b63632b960391b60448201526064016109f0565b6001600160a01b03838116600081815260056020908152604080832094871680845294825291829020805460ff191686151590811790915591519182527f17307eab39ab6107e8899845ad3d59bd9653f200f220920489ca2b5937696c31910160405180910390a3505050565b6000806122aa836111e0565b9050806001600160a01b0316846001600160a01b031614806122d157506122d18185611743565b806122f55750836001600160a01b03166122ea84610954565b6001600160a01b0316145b949350505050565b612308848484612538565b6123148484848461288e565b6114135760405162461bcd60e51b81526004016109f0906137dd565b60006108bc61233d611d6b565b8360405161190160f01b6020820152602281018390526042810182905260009060620160405160208183030381529060405280519060200120905092915050565b600080600061238f87878787612998565b9150915061239c81612a7b565b5095945050505050565b6001600160a01b0381166000908152600e602052604090208054600181018255905b50919050565b6000908152600260205260409020546001600160a01b0316151590565b60608161240f5750506040805180820190915260018152600360fc1b602082015290565b8160005b8115612439578061242381613a78565b91506124329050600a836139cd565b9150612413565b6000816001600160401b0381111561245357612453613b15565b6040519080825280601f01601f19166020018201604052801561247d576020820181803683370190505b5090505b84156122f557612492600183613a00565b915061249f600a86613a93565b6124aa9060306139b5565b60f81b8183815181106124bf576124bf613aff565b60200101906001600160f81b031916908160001a9053506124e1600a866139cd565b9450612481565b60006001600160e01b031982166380ac58cd60e01b148061251957506001600160e01b03198216635b5e139f60e01b145b806108bc57506301ffc9a760e01b6001600160e01b03198316146108bc565b826001600160a01b031661254b826111e0565b6001600160a01b0316146125af5760405162461bcd60e51b815260206004820152602560248201527f4552433732313a207472616e736665722066726f6d20696e636f72726563742060448201526437bbb732b960d91b60648201526084016109f0565b6001600160a01b0382166126115760405162461bcd60e51b8152602060048201526024808201527f4552433732313a207472616e7366657220746f20746865207a65726f206164646044820152637265737360e01b60648201526084016109f0565b61261c838383612c31565b612627600082611bd6565b6001600160a01b0383166000908152600360205260408120805460019290612650908490613a00565b90915550506001600160a01b038216600090815260036020526040812080546001929061267e9084906139b5565b909155505060008181526002602052604080822080546001600160a01b0319166001600160a01b038681169182179092559151849391871691600080516020613b5083398151915291a4610a91838383612c44565b6126dd8383612c4f565b6126ea600084848461288e565b610a915760405162461bcd60e51b81526004016109f0906137dd565b600061271560028484186139cd565b610f9b908484166139b5565b600a5460ff1661104a5760405162461bcd60e51b815260206004820152601460248201527314185d5cd8589b194e881b9bdd081c185d5cd95960621b60448201526064016109f0565b60006108bc82611215565b816001600160a01b0316836001600160a01b0316141580156127975750600081115b15610a91576001600160a01b03831615612813576001600160a01b0383166000908152600c6020526040812081906127d290612d8385612d8f565b91509150846001600160a01b0316600080516020613b708339815191528383604051612808929190918252602082015260400190565b60405180910390a250505b6001600160a01b03821615610a91576001600160a01b0382166000908152600c60205260408120819061284990612dbd85612d8f565b91509150836001600160a01b0316600080516020613b70833981519152838360405161287f929190918252602082015260400190565b60405180910390a25050505050565b60006001600160a01b0384163b1561299057604051630a85bd0160e11b81526001600160a01b0385169063150b7a02906128d290339089908890889060040161378d565b602060405180830381600087803b1580156128ec57600080fd5b505af192505050801561291c575060408051601f3d908101601f1916820190925261291991810190613602565b60015b612976573d80801561294a576040519150601f19603f3d011682016040523d82523d6000602084013e61294f565b606091505b50805161296e5760405162461bcd60e51b81526004016109f0906137dd565b805181602001fd5b6001600160e01b031916630a85bd0160e11b1490506122f5565b5060016122f5565b6000806fa2a8918ca85bafe22016d0b997e4df60600160ff1b038311156129c55750600090506003612a72565b8460ff16601b141580156129dd57508460ff16601c14155b156129ee5750600090506004612a72565b6040805160008082526020820180845289905260ff881692820192909252606081018690526080810185905260019060a0016020604051602081039080840390855afa158015612a42573d6000803e3d6000fd5b5050604051601f1901519150506001600160a01b038116612a6b57600060019250925050612a72565b9150600090505b94509492505050565b6000816004811115612a8f57612a8f613ad3565b1415612a985750565b6001816004811115612aac57612aac613ad3565b1415612af55760405162461bcd60e51b815260206004820152601860248201527745434453413a20696e76616c6964207369676e617475726560401b60448201526064016109f0565b6002816004811115612b0957612b09613ad3565b1415612b575760405162461bcd60e51b815260206004820152601f60248201527f45434453413a20696e76616c6964207369676e6174757265206c656e6774680060448201526064016109f0565b6003816004811115612b6b57612b6b613ad3565b1415612bc45760405162461bcd60e51b815260206004820152602260248201527f45434453413a20696e76616c6964207369676e6174757265202773272076616c604482015261756560f01b60648201526084016109f0565b6004816004811115612bd857612bd8613ad3565b14156119635760405162461bcd60e51b815260206004820152602260248201527f45434453413a20696e76616c6964207369676e6174757265202776272076616c604482015261756560f01b60648201526084016109f0565b612c39611c44565b610a91838383612dc9565b610a91838383612e81565b6001600160a01b038216612ca55760405162461bcd60e51b815260206004820181905260248201527f4552433732313a206d696e7420746f20746865207a65726f206164647265737360448201526064016109f0565b612cae816123ce565b15612cfa5760405162461bcd60e51b815260206004820152601c60248201527b115490cdcc8c4e881d1bdad95b88185b1c9958591e481b5a5b9d195960221b60448201526064016109f0565b612d0660008383612c31565b6001600160a01b0382166000908152600360205260408120805460019290612d2f9084906139b5565b909155505060008181526002602052604080822080546001600160a01b0319166001600160a01b0386169081179091559051839290600080516020613b50833981519152908290a4610af660008383612c44565b6000610f9b8284613a00565b600080612db185612dac612da288612178565b868863ffffffff16565b612e8d565b91509150935093915050565b6000610f9b82846139b5565b6001600160a01b038316612e2457612e1f81600880546000838152600960205260408120829055600182018355919091527ff3f7a9fe364faab93b216da50a3214154f22a0a2b415b23a84c8169e8b636ee30155565b612e47565b816001600160a01b0316836001600160a01b031614612e4757612e478382612fb2565b6001600160a01b038216612e5e57610a918161304f565b826001600160a01b0316826001600160a01b031614610a9157610a9182826130fe565b610a9183836001613142565b8154600090819081612e9e86612178565b9050600082118015612edc57504386612eb8600185613a00565b81548110612ec857612ec8613aff565b60009182526020909120015463ffffffff16145b15612f3c57612eea8561319b565b86612ef6600185613a00565b81548110612f0657612f06613aff565b9060005260206000200160000160046101000a8154816001600160e01b0302191690836001600160e01b03160217905550612fa9565b856000016040518060400160405280612f5443613208565b63ffffffff168152602001612f688861319b565b6001600160e01b039081169091528254600181018455600093845260209384902083519490930151909116600160201b0263ffffffff909316929092179101555b95939450505050565b60006001612fbf84611215565b612fc99190613a00565b60008381526007602052604090205490915080821461301c576001600160a01b03841660009081526006602090815260408083208584528252808320548484528184208190558352600790915290208190555b5060009182526007602090815260408084208490556001600160a01b039094168352600681528383209183525290812055565b60085460009061306190600190613a00565b6000838152600960205260408120546008805493945090928490811061308957613089613aff565b9060005260206000200154905080600883815481106130aa576130aa613aff565b60009182526020808320909101929092558281526009909152604080822084905585825281205560088054806130e2576130e2613ae9565b6001900381819060005260206000200160009055905550505050565b600061310983611215565b6001600160a01b039093166000908152600660209081526040808320868452825280832085905593825260079052919091209190915550565b6001600160a01b0383166131615761315e600d612dbd83612d8f565b50505b6001600160a01b0382166131805761317d600d612d8383612d8f565b50505b610a9161318c846111b7565b613195846111b7565b83612775565b60006001600160e01b038211156132045760405162461bcd60e51b815260206004820152602760248201527f53616665436173743a2076616c756520646f65736e27742066697420696e20326044820152663234206269747360c81b60648201526084016109f0565b5090565b600063ffffffff8211156132045760405162461bcd60e51b815260206004820152602660248201527f53616665436173743a2076616c756520646f65736e27742066697420696e203360448201526532206269747360d01b60648201526084016109f0565b82805461327990613a43565b90600052602060002090601f01602090048101928261329b57600085556132e1565b82601f106132b457805160ff19168380011785556132e1565b828001600101855582156132e1579182015b828111156132e15782518255916020019190600101906132c6565b506132049291505b8082111561320457600081556001016132e9565b60006001600160401b038084111561331757613317613b15565b604051601f8501601f19908116603f0116810190828211818310171561333f5761333f613b15565b8160405280935085815286868601111561335857600080fd5b858560208301376000602087830101525050509392505050565b80356001600160a01b038116811461338957600080fd5b919050565b6000602082840312156133a057600080fd5b610f9b82613372565b600080604083850312156133bc57600080fd5b6133c583613372565b91506133d360208401613372565b90509250929050565b6000806000606084860312156133f157600080fd5b6133fa84613372565b925061340860208501613372565b9150604084013590509250925092565b6000806000806080858703121561342e57600080fd5b61343785613372565b935061344560208601613372565b92506040850135915060608501356001600160401b0381111561346757600080fd5b8501601f8101871361347857600080fd5b613487878235602084016132fd565b91505092959194509250565b600080604083850312156134a657600080fd5b6134af83613372565b915060208301356134bf81613b2b565b809150509250929050565b600080604083850312156134dd57600080fd5b6134e683613372565b946020939093013593505050565b60008060008060008060c0878903121561350d57600080fd5b61351687613372565b95506020870135945060408701359350606087013560ff8116811461353a57600080fd5b9598949750929560808101359460a0909101359350915050565b6000806020838503121561356757600080fd5b82356001600160401b038082111561357e57600080fd5b818501915085601f83011261359257600080fd5b8135818111156135a157600080fd5b8660208260051b85010111156135b657600080fd5b60209290920196919550909350505050565b6000602082840312156135da57600080fd5b8151610f9b81613b2b565b6000602082840312156135f757600080fd5b8135610f9b81613b39565b60006020828403121561361457600080fd5b8151610f9b81613b39565b60006020828403121561363157600080fd5b81356001600160401b0381111561364757600080fd5b8201601f8101841361365857600080fd5b6122f5848235602084016132fd565b60006020828403121561367957600080fd5b5035919050565b60008151808452613698816020860160208601613a17565b601f01601f19169290920160200192915050565b8054600090600181811c90808316806136c657607f831692505b60208084108214156136e857634e487b7160e01b600052602260045260246000fd5b8180156136fc576001811461370d5761373a565b60ff1986168952848901965061373a565b60008881526020902060005b868110156137325781548b820152908501908301613719565b505084890196505b50505050505092915050565b600061375282866136ac565b8451613762818360208901613a17565b61376e818301866136ac565b979650505050505050565b6001600160a01b0391909116815260200190565b6001600160a01b03858116825284166020820152604081018390526080606082018190526000906137c090830184613680565b9695505050505050565b602081526000610f9b6020830184613680565b60208082526032908201527f4552433732313a207472616e7366657220746f206e6f6e20455243373231526560408201527131b2b4bb32b91034b6b83632b6b2b73a32b960711b606082015260800190565b60208082526033908201527f50726f6a204e66743a204f6e6c792044414f2061646d696e2063616e2065786560408201527231baba32903a3434b990333ab731ba34b7b71760691b606082015260800190565b60208082526039908201527f6f6e6c79206e6f6e2d77686974656c69737420746f6b656e732063616e206265604082015278207472616e7366657272656420617420746869732074696d6560381b606082015260800190565b602080825260189082015277115490cdcc8c4e881a5b9d985b1a59081d1bdad95b88125160421b604082015260600190565b6020808252603a908201527f50726f6a204e66743a20596f7520646f206e6f742068617665207065726d697360408201527939b4b7b7103a37903ab9b2903a3434b990333ab731ba34b7b71760311b606082015260800190565b6020808252602e908201527f4552433732313a2063616c6c6572206973206e6f7420746f6b656e206f776e6560408201526d1c881b9bdc88185c1c1c9bdd995960921b606082015260800190565b600082198211156139c8576139c8613aa7565b500190565b6000826139dc576139dc613abd565b500490565b60008160001904831182151516156139fb576139fb613aa7565b500290565b600082821015613a1257613a12613aa7565b500390565b60005b83811015613a32578181015183820152602001613a1a565b838111156114135750506000910152565b600181811c90821680613a5757607f821691505b602082108114156123c857634e487b7160e01b600052602260045260246000fd5b6000600019821415613a8c57613a8c613aa7565b5060010190565b600082613aa257613aa2613abd565b500690565b634e487b7160e01b600052601160045260246000fd5b634e487b7160e01b600052601260045260246000fd5b634e487b7160e01b600052602160045260246000fd5b634e487b7160e01b600052603160045260246000fd5b634e487b7160e01b600052603260045260246000fd5b634e487b7160e01b600052604160045260246000fd5b801515811461196357600080fd5b6001600160e01b03198116811461196357600080fdfeddf252ad1be2c89b69c2b068fc378daa952ba7f163c4a11628f55a4df523b3efdec2bacdd2f05b59de34da9b523dff8be42e5e38e818c82fdb0bae774387a724a164736f6c6343000806000a",
  "linkReferences": {},
  "deployedLinkReferences": {}
}