{
  "_format": "hh-sol-artifact-1",
  "contractName": "ConvictionVoting",
  "sourceName": "contracts/ProjectCV.sol",
  "abi": [
    {
      "inputs": [
        {
          "internalType": "address",
          "name": "_stakedToken",
          "type": "address"
        },
        {
          "internalType": "address",
          "name": "_tokenAddress",
          "type": "address"
        }
      ],
      "stateMutability": "nonpayable",
      "type": "constructor"
    },
    {
      "anonymous": false,
      "inputs": [
        {
          "indexed": false,
          "internalType": "uint256",
          "name": "decay",
          "type": "uint256"
        },
        {
          "indexed": false,
          "internalType": "uint256",
          "name": "maxRatio",
          "type": "uint256"
        },
        {
          "indexed": false,
          "internalType": "uint256",
          "name": "weight",
          "type": "uint256"
        },
        {
          "indexed": false,
          "internalType": "uint256",
          "name": "minThresholdStakePercentage",
          "type": "uint256"
        }
      ],
      "name": "ConvictionSettingsChanged",
      "type": "event"
    },
    {
      "anonymous": false,
      "inputs": [
        {
          "indexed": true,
          "internalType": "address",
          "name": "entity",
          "type": "address"
        },
        {
          "indexed": true,
          "internalType": "uint256",
          "name": "id",
          "type": "uint256"
        },
        {
          "indexed": false,
          "internalType": "string",
          "name": "title",
          "type": "string"
        },
        {
          "indexed": false,
          "internalType": "bytes",
          "name": "link",
          "type": "bytes"
        },
        {
          "indexed": false,
          "internalType": "uint256",
          "name": "amount",
          "type": "uint256"
        },
        {
          "indexed": false,
          "internalType": "bool",
          "name": "stable",
          "type": "bool"
        },
        {
          "indexed": false,
          "internalType": "address",
          "name": "beneficiary",
          "type": "address"
        }
      ],
      "name": "ProposalAdded",
      "type": "event"
    },
    {
      "anonymous": false,
      "inputs": [
        {
          "indexed": true,
          "internalType": "uint256",
          "name": "proposalId",
          "type": "uint256"
        }
      ],
      "name": "ProposalCancelled",
      "type": "event"
    },
    {
      "anonymous": false,
      "inputs": [
        {
          "indexed": true,
          "internalType": "uint256",
          "name": "id",
          "type": "uint256"
        },
        {
          "indexed": false,
          "internalType": "uint256",
          "name": "conviction",
          "type": "uint256"
        }
      ],
      "name": "ProposalExecuted",
      "type": "event"
    },
    {
      "anonymous": false,
      "inputs": [
        {
          "indexed": true,
          "internalType": "uint256",
          "name": "proposalId",
          "type": "uint256"
        },
        {
          "indexed": true,
          "internalType": "uint256",
          "name": "challengeId",
          "type": "uint256"
        }
      ],
      "name": "ProposalPaused",
      "type": "event"
    },
    {
      "anonymous": false,
      "inputs": [
        {
          "indexed": true,
          "internalType": "uint256",
          "name": "proposalId",
          "type": "uint256"
        }
      ],
      "name": "ProposalRejected",
      "type": "event"
    },
    {
      "anonymous": false,
      "inputs": [
        {
          "indexed": true,
          "internalType": "uint256",
          "name": "proposalId",
          "type": "uint256"
        }
      ],
      "name": "ProposalResumed",
      "type": "event"
    },
    {
      "anonymous": false,
      "inputs": [
        {
          "indexed": true,
          "internalType": "address",
          "name": "entity",
          "type": "address"
        },
        {
          "indexed": true,
          "internalType": "uint256",
          "name": "id",
          "type": "uint256"
        },
        {
          "indexed": false,
          "internalType": "uint256",
          "name": "amount",
          "type": "uint256"
        },
        {
          "indexed": false,
          "internalType": "uint256",
          "name": "tokensStaked",
          "type": "uint256"
        },
        {
          "indexed": false,
          "internalType": "uint256",
          "name": "totalTokensStaked",
          "type": "uint256"
        },
        {
          "indexed": false,
          "internalType": "uint256",
          "name": "conviction",
          "type": "uint256"
        }
      ],
      "name": "StakeAdded",
      "type": "event"
    },
    {
      "anonymous": false,
      "inputs": [
        {
          "indexed": false,
          "internalType": "address",
          "name": "entity",
          "type": "address"
        },
        {
          "indexed": true,
          "internalType": "uint256",
          "name": "id",
          "type": "uint256"
        },
        {
          "indexed": false,
          "internalType": "uint256",
          "name": "amount",
          "type": "uint256"
        },
        {
          "indexed": false,
          "internalType": "uint256",
          "name": "tokensStaked",
          "type": "uint256"
        },
        {
          "indexed": false,
          "internalType": "uint256",
          "name": "totalTokensStaked",
          "type": "uint256"
        },
        {
          "indexed": false,
          "internalType": "uint256",
          "name": "conviction",
          "type": "uint256"
        }
      ],
      "name": "StakeWithdrawn",
      "type": "event"
    },
    {
      "inputs": [],
      "name": "ABSTAIN_PROPOSAL_ID",
      "outputs": [
        {
          "internalType": "uint256",
          "name": "",
          "type": "uint256"
        }
      ],
      "stateMutability": "view",
      "type": "function"
    },
    {
      "inputs": [],
      "name": "D",
      "outputs": [
        {
          "internalType": "uint256",
          "name": "",
          "type": "uint256"
        }
      ],
      "stateMutability": "view",
      "type": "function"
    },
    {
      "inputs": [],
      "name": "MAX_STAKED_PROPOSALS",
      "outputs": [
        {
          "internalType": "uint64",
          "name": "",
          "type": "uint64"
        }
      ],
      "stateMutability": "view",
      "type": "function"
    },
    {
      "inputs": [],
      "name": "ONE_HUNDRED_PERCENT",
      "outputs": [
        {
          "internalType": "uint256",
          "name": "",
          "type": "uint256"
        }
      ],
      "stateMutability": "view",
      "type": "function"
    },
    {
      "inputs": [
        {
          "internalType": "string",
          "name": "_title",
          "type": "string"
        },
        {
          "internalType": "bytes",
          "name": "_link",
          "type": "bytes"
        },
        {
          "internalType": "uint256",
          "name": "_requestedAmount",
          "type": "uint256"
        },
        {
          "internalType": "bool",
          "name": "_stableRequestAmount",
          "type": "bool"
        },
        {
          "internalType": "address",
          "name": "_beneficiary",
          "type": "address"
        }
      ],
      "name": "addProposal",
      "outputs": [],
      "stateMutability": "nonpayable",
      "type": "function"
    },
    {
      "inputs": [
        {
          "internalType": "uint64",
          "name": "_timePassed",
          "type": "uint64"
        },
        {
          "internalType": "uint256",
          "name": "_lastConv",
          "type": "uint256"
        },
        {
          "internalType": "uint256",
          "name": "_oldAmount",
          "type": "uint256"
        }
      ],
      "name": "calculateConviction",
      "outputs": [
        {
          "internalType": "uint256",
          "name": "",
          "type": "uint256"
        }
      ],
      "stateMutability": "view",
      "type": "function"
    },
    {
      "inputs": [
        {
          "internalType": "uint256",
          "name": "_requestedAmount",
          "type": "uint256"
        }
      ],
      "name": "calculateThreshold",
      "outputs": [
        {
          "internalType": "uint256",
          "name": "_threshold",
          "type": "uint256"
        }
      ],
      "stateMutability": "view",
      "type": "function"
    },
    {
      "inputs": [
        {
          "internalType": "uint256",
          "name": "_proposalId",
          "type": "uint256"
        }
      ],
      "name": "cancelProposal",
      "outputs": [],
      "stateMutability": "nonpayable",
      "type": "function"
    },
    {
      "inputs": [],
      "name": "contractPaused",
      "outputs": [
        {
          "internalType": "bool",
          "name": "",
          "type": "bool"
        }
      ],
      "stateMutability": "view",
      "type": "function"
    },
    {
      "inputs": [],
      "name": "decay",
      "outputs": [
        {
          "internalType": "uint256",
          "name": "",
          "type": "uint256"
        }
      ],
      "stateMutability": "view",
      "type": "function"
    },
    {
      "inputs": [
        {
          "internalType": "uint256",
          "name": "_proposalId",
          "type": "uint256"
        }
      ],
      "name": "executeProposal",
      "outputs": [],
      "stateMutability": "nonpayable",
      "type": "function"
    },
    {
      "inputs": [],
      "name": "fundsManager",
      "outputs": [
        {
          "internalType": "address",
          "name": "",
          "type": "address"
        }
      ],
      "stateMutability": "view",
      "type": "function"
    },
    {
      "inputs": [
        {
          "internalType": "address",
          "name": "_stakeToken",
          "type": "address"
        },
        {
          "internalType": "address",
          "name": "_requestToken",
          "type": "address"
        },
        {
          "internalType": "address",
          "name": "_stableToken",
          "type": "address"
        },
        {
          "internalType": "address",
          "name": "_fundsManager",
          "type": "address"
        },
        {
          "internalType": "uint256",
          "name": "_decay",
          "type": "uint256"
        },
        {
          "internalType": "uint256",
          "name": "_maxRatio",
          "type": "uint256"
        },
        {
          "internalType": "uint256",
          "name": "_weight",
          "type": "uint256"
        },
        {
          "internalType": "uint256",
          "name": "_minThresholdStakePercentage",
          "type": "uint256"
        }
      ],
      "name": "initialize",
      "outputs": [],
      "stateMutability": "nonpayable",
      "type": "function"
    },
    {
      "inputs": [],
      "name": "maxRatio",
      "outputs": [
        {
          "internalType": "uint256",
          "name": "",
          "type": "uint256"
        }
      ],
      "stateMutability": "view",
      "type": "function"
    },
    {
      "inputs": [],
      "name": "minThresholdStakePercentage",
      "outputs": [
        {
          "internalType": "uint256",
          "name": "",
          "type": "uint256"
        }
      ],
      "stateMutability": "view",
      "type": "function"
    },
    {
      "inputs": [],
      "name": "proposalCounter",
      "outputs": [
        {
          "internalType": "uint256",
          "name": "",
          "type": "uint256"
        }
      ],
      "stateMutability": "view",
      "type": "function"
    },
    {
      "inputs": [],
      "name": "requestToken",
      "outputs": [
        {
          "internalType": "address",
          "name": "",
          "type": "address"
        }
      ],
      "stateMutability": "view",
      "type": "function"
    },
    {
      "inputs": [
        {
          "internalType": "uint256",
          "name": "_decay",
          "type": "uint256"
        },
        {
          "internalType": "uint256",
          "name": "_maxRatio",
          "type": "uint256"
        },
        {
          "internalType": "uint256",
          "name": "_weight",
          "type": "uint256"
        },
        {
          "internalType": "uint256",
          "name": "_minThresholdStakePercentage",
          "type": "uint256"
        }
      ],
      "name": "setConvictionCalculationSettings",
      "outputs": [],
      "stateMutability": "nonpayable",
      "type": "function"
    },
    {
      "inputs": [],
      "name": "stableToken",
      "outputs": [
        {
          "internalType": "address",
          "name": "",
          "type": "address"
        }
      ],
      "stateMutability": "view",
      "type": "function"
    },
    {
      "inputs": [
        {
          "internalType": "uint256",
          "name": "_proposalId",
          "type": "uint256"
        }
      ],
      "name": "stakeAllToProposal",
      "outputs": [],
      "stateMutability": "nonpayable",
      "type": "function"
    },
    {
      "inputs": [
        {
          "internalType": "uint256",
          "name": "_proposalId",
          "type": "uint256"
        },
        {
          "internalType": "uint256",
          "name": "_amount",
          "type": "uint256"
        }
      ],
      "name": "stakeToProposal",
      "outputs": [],
      "stateMutability": "nonpayable",
      "type": "function"
    },
    {
      "inputs": [],
      "name": "stakeToken",
      "outputs": [
        {
          "internalType": "address",
          "name": "",
          "type": "address"
        }
      ],
      "stateMutability": "view",
      "type": "function"
    },
    {
      "inputs": [],
      "name": "totalStaked",
      "outputs": [
        {
          "internalType": "uint256",
          "name": "",
          "type": "uint256"
        }
      ],
      "stateMutability": "view",
      "type": "function"
    },
    {
      "inputs": [],
      "name": "weight",
      "outputs": [
        {
          "internalType": "uint256",
          "name": "",
          "type": "uint256"
        }
      ],
      "stateMutability": "view",
      "type": "function"
    },
    {
      "inputs": [
        {
          "internalType": "uint256",
          "name": "_proposalId",
          "type": "uint256"
        }
      ],
      "name": "withdrawAllFromProposal",
      "outputs": [],
      "stateMutability": "nonpayable",
      "type": "function"
    },
    {
      "inputs": [],
      "name": "withdrawFromInactiveProposals",
      "outputs": [],
      "stateMutability": "nonpayable",
      "type": "function"
    },
    {
      "inputs": [
        {
          "internalType": "uint256",
          "name": "_proposalId",
          "type": "uint256"
        },
        {
          "internalType": "uint256",
          "name": "_amount",
          "type": "uint256"
        }
      ],
      "name": "withdrawFromProposal",
      "outputs": [],
      "stateMutability": "nonpayable",
      "type": "function"
    }
  ],
  "bytecode": "0x60806040523480156200001157600080fd5b50604051620023af380380620023af833981016040819052620000349162000083565b600080546001600160a01b039384166001600160a01b03199182161790915560038054929093169116179055620000bb565b80516001600160a01b03811681146200007e57600080fd5b919050565b600080604083850312156200009757600080fd5b620000a28362000066565b9150620000b26020840162000066565b90509250929050565b6122e480620000cb6000396000f3fe608060405234801561001057600080fd5b50600436106101495760003560e01c80630c0512e91461014e5780630d1166521461016a5780630d61b5191461018a5780630f529ba21461019f5780631522eb43146101a95780631df67d2f146101b1578063406244d8146101c45780634d7ec628146101e45780634ef4d13f146101f75780634fb3cbbc1461020a57806351ed6a301461021d57806354fac9191461023057806359a5db8b14610239578063649c649c1461024c57806376365af71461025f578063817b1cd2146102685780638a67456a146102715780639d9985661461028e578063a1aab33f14610296578063a9d75b2b1461029f578063c35ac76d146102b2578063c843e81c146102c5578063dac61260146102d8578063db2d878c146102eb578063dd0081c7146102f4578063e0a8f6f514610303578063fc37005114610316575b600080fd5b61015760085481565b6040519081526020015b60405180910390f35b60035461017d906001600160a01b031681565b6040516101619190612080565b61019d610198366004611f6c565b610329565b005b6101576298968081565b610157600181565b61019d6101bf366004611f6c565b610638565b6101cc600a81565b6040516001600160401b039091168152602001610161565b60015461017d906001600160a01b031681565b61019d610205366004611eb3565b61072a565b61019d610218366004611f6c565b6107dc565b60005461017d906001600160a01b031681565b61015760045481565b610157610247366004611f6c565b610879565b61019d61025a366004611f9e565b61098c565b61015760055481565b61015760095481565b600a5461027e9060ff1681565b6040519015158152602001610161565b61019d610a08565b61015760065481565b60025461017d906001600160a01b031681565b61019d6102c0366004611fc0565b610a15565b61019d6102d3366004611e3b565b610a6d565b6101576102e6366004611ff2565b610c1c565b61015760075481565b610157670de0b6b3a764000081565b61019d610311366004611f6c565b610ca6565b61019d610324366004611f9e565b610ec4565b600a5460408051808201909152601281527110d597d0d3d395149050d517d4105554d15160721b60208201529060ff16156103805760405162461bcd60e51b81526004016103779190612094565b60405180910390fd5b508080600114806103aa57506000818152600b60205260409020600601546001600160a01b031615155b6040518060400160405280601a81526020016000805160206122b8833981519152815250906103ec5760405162461bcd60e51b81526004016103779190612094565b506000600b60008481526020019081526020016000209050600183141560405180606001604052806022815260200161225560229139906104405760405162461bcd60e51b81526004016103779190612094565b50600081600001541160405180606001604052806025815260200161223060259139906104805760405162461bcd60e51b81526004016103779190612094565b5060006004820154600160401b900460ff1660038111156104a3576104a36121ed565b146040518060400160405280601681526020017543565f50524f504f53414c5f4e4f545f41435449564560501b815250906104f15760405162461bcd60e51b81526004016103779190612094565b50610500818260020154610ecf565b600061050a825490565b905061051581610879565b8260030154116040518060400160405280601981526020017821ab2fa4a729aaa32324a1a4a2a72a2fa1a7a72b24a1a4a7a760391b8152509061056b5760405162461bcd60e51b81526004016103779190612094565b5060048281018054600360401b60ff60401b19909116179055600054600184015460405163d6e982e560e01b81526001600160a01b0361010090920482169381019390935260248301849052169063d6e982e590604401600060405180830381600087803b1580156105dc57600080fd5b505af11580156105f0573d6000803e3d6000fd5b50505050837ff758fc91e01b00ea6b4a6138756f7f28e021f9bf21db6dbf8c36c88eb737257a836003015460405161062a91815260200190565b60405180910390a250505050565b336000908152600c6020908152604091829020548251808401909352601983527810d597d4d51052d25391d7d053149150511657d4d51052d151603a1b918301919091521561069a5760405162461bcd60e51b81526004016103779190612094565b506000546040516370a0823160e01b81526107279183916001600160a01b03909116906370a08231906106d1903390600401612080565b60206040518083038186803b1580156106e957600080fd5b505afa1580156106fd573d6000803e3d6000fd5b505050506040513d601f19601f820116820180604052508101906107219190611f85565b33610f73565b50565b60408051808201909152601881527743565f5245515545535445445f414d4f554e545f5a45524f60401b6020820152836107775760405162461bcd60e51b81526004016103779190612094565b5060408051808201909152601181527043565f4e4f5f42454e454649434941525960781b60208201526001600160a01b0382166107c75760405162461bcd60e51b81526004016103779190612094565b506107d58585858585611435565b5050505050565b80806001148061080557506000818152600b60205260409020600601546001600160a01b031615155b6040518060400160405280601a81526020016000805160206122b8833981519152815250906108475760405162461bcd60e51b81526004016103779190612094565b506000828152600b602090815260408083203380855260059091019092529091205461087591849190611552565b5050565b6003546000906001600160a01b0316316108968362989680611813565b6005546108a39083611813565b116040518060400160405280601881526020017743565f414d4f554e545f4f5645525f4d41585f524154494f60401b815250906108f35760405162461bcd60e51b81526004016103779190612094565b506000610920610907604086901b84611826565b60055461091a9060401b62989680611826565b90611832565b9050604061098261092f61183e565b61097c61094a6004546298968061183290919063ffffffff16565b6109766298968061097c60406109608a80611813565b600654911c906109769060801b62989680611826565b90611826565b90611813565b901c949350505050565b8180600114806109b557506000818152600b60205260409020600601546001600160a01b031615155b6040518060400160405280601a81526020016000805160206122b8833981519152815250906109f75760405162461bcd60e51b81526004016103779190612094565b50610a03838333611552565b505050565b60001961072781336118f2565b60048490556005839055600682905560078190556040517fab0e1d16e026a71973fa1c1862074f152ee6c430f36fce58005928c3bb15883690610a5f9086908690869086906120f3565b60405180910390a150505050565b60026008819055600080546001600160a01b03199081166001600160a01b038c81169190911783556001805483168c831617815584548316918b16919091179093556004879055600586905560068590556007849055828252600b60209081527f72c6bfb7988af3a1efa6568f02a999bc52252641c659d85961ca3d372b57d5cf8381557f72c6bfb7988af3a1efa6568f02a999bc52252641c659d85961ca3d372b57d5d080546001600160a81b03191690557f72c6bfb7988af3a1efa6568f02a999bc52252641c659d85961ca3d372b57d5d18490557f72c6bfb7988af3a1efa6568f02a999bc52252641c659d85961ca3d372b57d5d28490557f72c6bfb7988af3a1efa6568f02a999bc52252641c659d85961ca3d372b57d5d380546001600160481b03191690557f72c6bfb7988af3a1efa6568f02a999bc52252641c659d85961ca3d372b57d5d580549093169092556040805160a0808252810185905260c0928101839052918201849052810183905260608101839052608081018390529192909183906000805160206122988339815191529060e00160405180910390a350505050505050505050565b6004546000906001600160401b038516908290610c4990610c439060801b62989680611826565b83611a4e565b90506080610c9a6001607f1b610c94610c8a60045462989680610c6c9190612167565b610976610c7d600160801b89611832565b61097c8c62989680611813565b610c94868b611813565b90611af3565b901c9695505050505050565b600a5460408051808201909152601281527110d597d0d3d395149050d517d4105554d15160721b60208201529060ff1615610cf45760405162461bcd60e51b81526004016103779190612094565b50808060011480610d1e57506000818152600b60205260409020600601546001600160a01b031615155b6040518060400160405280601a81526020016000805160206122b883398151915281525090610d605760405162461bcd60e51b81526004016103779190612094565b506000828152600b602090815260409182902060068101548351808501909452601784527610d597d4d15391115497d0d0539393d517d0d05390d153604a1b9284019290925291906001600160a01b03163314610dd05760405162461bcd60e51b81526004016103779190612094565b5060018314156040518060600160405280602181526020016122776021913990610e0d5760405162461bcd60e51b81526004016103779190612094565b5060006004820154600160401b900460ff166003811115610e3057610e306121ed565b146040518060400160405280601681526020017543565f50524f504f53414c5f4e4f545f41435449564560501b81525090610e7e5760405162461bcd60e51b81526004016103779190612094565b5060048101805460ff60401b1916600160411b17905560405183907f416e669c63d9a3a5e36ee7cc7e2104b8db28ccd286aa18966e98fa230c73b08c90600090a2505050565b610875828233610f73565b6000610ed9611aff565b60048401549091506001600160401b0380831691161115610efc57610efc6121c1565b60048301546001600160401b0382811691161415610f1957505050565b6004830154600090610f4390610f38906001600160401b03168461217e565b856003015485610c1c565b6004850180546001600160401b0319166001600160401b0394909416939093179092555060039092019190915550565b600a5460408051808201909152601281527110d597d0d3d395149050d517d4105554d15160721b60208201529060ff1615610fc15760405162461bcd60e51b81526004016103779190612094565b50828060011480610feb57506000818152600b60205260409020600601546001600160a01b031615155b6040518060400160405280601a81526020016000805160206122b88339815191528152509061102d5760405162461bcd60e51b81526004016103779190612094565b506000848152600b60209081526040918290208251808401909352601983527843565f414d4f554e545f43414e5f4e4f545f42455f5a45524f60381b91830191909152908461108f5760405162461bcd60e51b81526004016103779190612094565b5060006004820154600160401b900460ff1660038111156110b2576110b26121ed565b14806110dd575060016004820154600160401b900460ff1660038111156110db576110db6121ed565b145b6040518060400160405280601c81526020017b43565f494e434f52524543545f50524f504f53414c5f53544154555360201b815250906111305760405162461bcd60e51b81526004016103779190612094565b506001600160a01b038084166000908152600c602052604080822054825491516370a0823160e01b815292936111c893919216906370a0823190611178908990600401612080565b60206040518083038186803b15801561119057600080fd5b505afa1580156111a4573d6000803e3d6000fd5b505050506040513d601f19601f8201168201806040525081019061091a9190611f85565b9050808511156111e5576111e56111df8683611832565b856118f2565b6000546040516370a0823160e01b81526001600160a01b03909116906370a0823190611215908790600401612080565b60206040518083038186803b15801561122d57600080fd5b505afa158015611241573d6000803e3d6000fd5b505050506040513d601f19601f820116820180604052508101906112659190611f85565b6001600160a01b0385166000908152600c60205260409020546112889087611af3565b11156040518060400160405280601e81526020017f43565f5354414b494e475f4d4f52455f5448414e5f415641494c41424c450000815250906112de5760405162461bcd60e51b81526004016103779190612094565b5060028201546112ee8187611af3565b60028401556001600160a01b03851660009081526005840160205260409020546113189087611af3565b6001600160a01b0386166000908152600585016020908152604080832093909355600c905220546113499087611af3565b6001600160a01b0386166000908152600c602052604090205560095461136f9087611af3565b60095560048301546001600160401b03166113b35761138c611aff565b6004840180546001600160401b0319166001600160401b03929092169190911790556113bd565b6113bd8382610ecf565b6113c78786611b0e565b6001600160a01b038516600081815260058501602052604090819020546002860154600387015492518b94937f28d9b583e0c477691a08f6c1e00fedc0895ed4221487c627fa96a7024119f49993611424938d93919290916120f3565b60405180910390a350505050505050565b600a5460408051808201909152601281527110d597d0d3d395149050d517d4105554d15160721b60208201529060ff16156114835760405162461bcd60e51b81526004016103779190612094565b50600880546000908152600b60205260408082208681556001810180546001600160a81b031916871515610100600160a81b031916176101006001600160a01b038816021790556002810183905560038101929092556004820180546001600160481b03191690556006820180546001600160a01b0319163390811790915592549051919290916000805160206122988339815191529061152d908a908a908a908a908a906120a7565b60405180910390a360088054906000611545836121a6565b9190505550505050505050565b6000838152600b602090815260408083206001600160a01b038516845260058101835292819020548151808301909252601c82527b10d597d5d2551211149055d7d353d49157d512105397d4d51052d15160221b92820192909252908411156115ce5760405162461bcd60e51b81526004016103779190612094565b5060408051808201909152601981527843565f414d4f554e545f43414e5f4e4f545f42455f5a45524f60381b60208201528361161d5760405162461bcd60e51b81526004016103779190612094565b50600281015461162d8185611832565b60028301556001600160a01b03831660009081526005830160205260409020546116579085611832565b6001600160a01b0384166000908152600584016020908152604080832093909355600c905220546116889085611832565b6001600160a01b0384166000908152600c60205260409020556009546116ae9085611832565b6009556001600160a01b038316600090815260058301602052604090205461173c576001600160a01b0383166000908152600d6020908152604091829020805483518184028101840190945280845261173c939283018282801561173157602002820191906000526020600020905b81548152602001906001019080831161171d575b505050505086611be6565b60006004830154600160401b900460ff16600381111561175e5761175e6121ed565b1480611789575060016004830154600160401b900460ff166003811115611787576117876121ed565b145b15611798576117988282610ecf565b6001600160a01b038316600081815260058401602090815260409182902054600286015460038701548451958652928501899052928401526060830191909152608082015285907f16f23283da3097bc9027dcdf31f24863b1520556f04818d406f0e6ecd08580f59060a00160405180910390a25050505050565b600061181f8284612148565b9392505050565b600061181f8284612126565b600061181f8284612167565b6000806118d7670de0b6b3a764000061097660075460008054906101000a90046001600160a01b03166001600160a01b03166318160ddd6040518163ffffffff1660e01b815260040160206040518083038186803b15801561189f57600080fd5b505afa1580156118b3573d6000803e3d6000fd5b505050506040513d601f19601f8201168201806040525081019061097c9190611f85565b905080600954106118ea576009546118ec565b805b91505090565b6001600160a01b0381166000908152600d6020908152604080832080548251818502810185019093528083528493849384939092909183018282801561195757602002820191906000526020600020905b815481526020019060010190808311611943575b505050505090505b80518410801561196e57508582105b15611a4657600081858151811061198757611987612203565b6020908102919091018101516000818152600b909252604090912090915060036004820154600160401b900460ff1660038111156119c7576119c76121ed565b14806119f2575060026004820154600160401b900460ff1660038111156119f0576119f06121ed565b145b15611a32576001600160a01b038716600090815260058201602052604090205494508415611a3257611a25828689611552565b611a2f8486611af3565b93505b85611a3c816121a6565b965050505061195f565b505050505050565b6000600160801b8310611aa25760405162461bcd60e51b815260206004820152601c60248201527b0bec240e6d0deead8c840c4ca40d8cae6e640e8d0c2dc4064bc6264760231b6044820152606401610377565b50600160801b82825b8015611aeb5760018116611acd57611ac38283611cc4565b915060011c611aab565b611ad78383611cc4565b9250611ae4600182612167565b9050611aab565b505092915050565b600061181f828461210e565b6000611b09611aff565b905090565b6001600160a01b0381166000908152600d6020526040812090805b8254811015611b7157828181548110611b4457611b44612203565b9060005260206000200154851415611b5f5760019150611b71565b80611b69816121a6565b915050611b29565b5080611be057815460408051808201909152601881527710d597d3505617d41493d413d4d05314d7d4915050d2115160421b602082015290600a11611bc95760405162461bcd60e51b81526004016103779190612094565b508154600181018355600083815260209020018490555b50505050565b81516060906000805b82811015611c6e5784868281518110611c0a57611c0a612203565b602002602001015114611c5c57858181518110611c2957611c29612203565b6020026020010151848381518110611c4357611c43612203565b602090810291909101015281611c58816121a6565b9250505b80611c66816121a6565b915050611bef565b5060005b8351811015611a4657838181518110611c8d57611c8d612203565b6020026020010151868281518110611ca757611ca7612203565b602090810291909101015280611cbc816121a6565b915050611c72565b6000600160801b831115611d2b5760405162461bcd60e51b815260206004820152602860248201527f5f612073686f756c64206265206c657373207468616e206f7220657175616c206044820152670e8de4064bc6264760c31b6064820152608401610377565b600160801b8210611d7d5760405162461bcd60e51b815260206004820152601c60248201527b0bec440e6d0deead8c840c4ca40d8cae6e640e8d0c2dc4064bc6264760231b6044820152606401610377565b6080611d916001607f1b610c948686611813565b901c9392505050565b60006001600160401b0380841115611db457611db4612219565b604051601f8501601f19908116603f01168101908282118183101715611ddc57611ddc612219565b81604052809350858152868686011115611df557600080fd5b858560208301376000602087830101525050509392505050565b80356001600160a01b0381168114611e2657600080fd5b919050565b80358015158114611e2657600080fd5b600080600080600080600080610100898b031215611e5857600080fd5b611e6189611e0f565b9750611e6f60208a01611e0f565b9650611e7d60408a01611e0f565b9550611e8b60608a01611e0f565b979a969950949760808101359660a0820135965060c0820135955060e0909101359350915050565b600080600080600060a08688031215611ecb57600080fd5b85356001600160401b0380821115611ee257600080fd5b818801915088601f830112611ef657600080fd5b611f0589833560208501611d9a565b96506020880135915080821115611f1b57600080fd5b508601601f81018813611f2d57600080fd5b611f3c88823560208401611d9a565b94505060408601359250611f5260608701611e2b565b9150611f6060808701611e0f565b90509295509295909350565b600060208284031215611f7e57600080fd5b5035919050565b600060208284031215611f9757600080fd5b5051919050565b60008060408385031215611fb157600080fd5b50508035926020909101359150565b60008060008060808587031215611fd657600080fd5b5050823594602084013594506040840135936060013592509050565b60008060006060848603121561200757600080fd5b83356001600160401b038116811461201e57600080fd5b95602085013595506040909401359392505050565b6000815180845260005b818110156120595760208185018101518683018201520161203d565b8181111561206b576000602083870101525b50601f01601f19169290920160200192915050565b6001600160a01b0391909116815260200190565b60208152600061181f6020830184612033565b60a0815260006120ba60a0830188612033565b82810360208401526120cc8188612033565b6040840196909652505091151560608301526001600160a01b031660809091015292915050565b93845260208401929092526040830152606082015260800190565b60008219821115612121576121216121d7565b500190565b60008261214357634e487b7160e01b600052601260045260246000fd5b500490565b6000816000190483118215151615612162576121626121d7565b500290565b600082821015612179576121796121d7565b500390565b60006001600160401b038381169083168181101561219e5761219e6121d7565b039392505050565b60006000198214156121ba576121ba6121d7565b5060010190565b634e487b7160e01b600052600160045260246000fd5b634e487b7160e01b600052601160045260246000fd5b634e487b7160e01b600052602160045260246000fd5b634e487b7160e01b600052603260045260246000fd5b634e487b7160e01b600052604160045260246000fdfe43565f43414e4e4f545f455845435554455f5a45524f5f56414c55455f50524f504f53414c43565f43414e4e4f545f455845435554455f4142535441494e5f50524f504f53414c43565f43414e4e4f545f43414e43454c5f4142535441494e5f50524f504f53414ce4b0c57adcb4dc1012d0b8bef8f259078b60a6fcbcf85cb0b9cc7b273f8e4a9b43565f50524f504f53414c5f444f45535f4e4f545f4558495354000000000000a164736f6c6343000806000a",
  "linkReferences": {},
  "deployedLinkReferences": {}
}