{
  "_format": "hh-sol-artifact-1",
  "contractName": "ProjectGovernor",
  "sourceName": "contracts/ProjectGovernor.sol",
  "abi": [
    {
      "inputs": [
        {
          "internalType": "contract IVotes",
          "name": "_token",
          "type": "address"
        },
        {
          "internalType": "contract ICompoundTimelock",
          "name": "_timelock",
          "type": "address"
        },
        {
          "internalType": "address",
          "name": "_governor",
          "type": "address"
        },
        {
          "internalType": "uint256",
          "name": "proposalId",
          "type": "uint256"
        }
      ],
      "stateMutability": "nonpayable",
      "type": "constructor"
    },
    {
      "inputs": [],
      "name": "Empty",
      "type": "error"
    },
    {
      "anonymous": false,
      "inputs": [
        {
          "indexed": false,
          "internalType": "uint256",
          "name": "proposalId",
          "type": "uint256"
        }
      ],
      "name": "ProposalCanceled",
      "type": "event"
    },
    {
      "anonymous": false,
      "inputs": [
        {
          "indexed": false,
          "internalType": "uint256",
          "name": "proposalId",
          "type": "uint256"
        },
        {
          "indexed": false,
          "internalType": "address",
          "name": "proposer",
          "type": "address"
        },
        {
          "indexed": false,
          "internalType": "address[]",
          "name": "targets",
          "type": "address[]"
        },
        {
          "indexed": false,
          "internalType": "uint256[]",
          "name": "values",
          "type": "uint256[]"
        },
        {
          "indexed": false,
          "internalType": "string[]",
          "name": "signatures",
          "type": "string[]"
        },
        {
          "indexed": false,
          "internalType": "bytes[]",
          "name": "calldatas",
          "type": "bytes[]"
        },
        {
          "indexed": false,
          "internalType": "uint256",
          "name": "startBlock",
          "type": "uint256"
        },
        {
          "indexed": false,
          "internalType": "uint256",
          "name": "endBlock",
          "type": "uint256"
        },
        {
          "indexed": false,
          "internalType": "string",
          "name": "description",
          "type": "string"
        }
      ],
      "name": "ProposalCreated",
      "type": "event"
    },
    {
      "anonymous": false,
      "inputs": [
        {
          "indexed": false,
          "internalType": "uint256",
          "name": "proposalId",
          "type": "uint256"
        }
      ],
      "name": "ProposalExecuted",
      "type": "event"
    },
    {
      "anonymous": false,
      "inputs": [
        {
          "indexed": false,
          "internalType": "uint256",
          "name": "proposalId",
          "type": "uint256"
        },
        {
          "indexed": false,
          "internalType": "uint256",
          "name": "eta",
          "type": "uint256"
        }
      ],
      "name": "ProposalQueued",
      "type": "event"
    },
    {
      "anonymous": false,
      "inputs": [
        {
          "indexed": false,
          "internalType": "uint256",
          "name": "oldProposalThreshold",
          "type": "uint256"
        },
        {
          "indexed": false,
          "internalType": "uint256",
          "name": "newProposalThreshold",
          "type": "uint256"
        }
      ],
      "name": "ProposalThresholdSet",
      "type": "event"
    },
    {
      "anonymous": false,
      "inputs": [
        {
          "indexed": false,
          "internalType": "address",
          "name": "oldTimelock",
          "type": "address"
        },
        {
          "indexed": false,
          "internalType": "address",
          "name": "newTimelock",
          "type": "address"
        }
      ],
      "name": "TimelockChange",
      "type": "event"
    },
    {
      "anonymous": false,
      "inputs": [
        {
          "indexed": true,
          "internalType": "address",
          "name": "voter",
          "type": "address"
        },
        {
          "indexed": false,
          "internalType": "uint256",
          "name": "proposalId",
          "type": "uint256"
        },
        {
          "indexed": false,
          "internalType": "uint8",
          "name": "support",
          "type": "uint8"
        },
        {
          "indexed": false,
          "internalType": "uint256",
          "name": "weight",
          "type": "uint256"
        },
        {
          "indexed": false,
          "internalType": "string",
          "name": "reason",
          "type": "string"
        }
      ],
      "name": "VoteCast",
      "type": "event"
    },
    {
      "anonymous": false,
      "inputs": [
        {
          "indexed": true,
          "internalType": "address",
          "name": "voter",
          "type": "address"
        },
        {
          "indexed": false,
          "internalType": "uint256",
          "name": "proposalId",
          "type": "uint256"
        },
        {
          "indexed": false,
          "internalType": "uint8",
          "name": "support",
          "type": "uint8"
        },
        {
          "indexed": false,
          "internalType": "uint256",
          "name": "weight",
          "type": "uint256"
        },
        {
          "indexed": false,
          "internalType": "string",
          "name": "reason",
          "type": "string"
        },
        {
          "indexed": false,
          "internalType": "bytes",
          "name": "params",
          "type": "bytes"
        }
      ],
      "name": "VoteCastWithParams",
      "type": "event"
    },
    {
      "anonymous": false,
      "inputs": [
        {
          "indexed": false,
          "internalType": "uint256",
          "name": "oldVotingDelay",
          "type": "uint256"
        },
        {
          "indexed": false,
          "internalType": "uint256",
          "name": "newVotingDelay",
          "type": "uint256"
        }
      ],
      "name": "VotingDelaySet",
      "type": "event"
    },
    {
      "anonymous": false,
      "inputs": [
        {
          "indexed": false,
          "internalType": "uint256",
          "name": "oldVotingPeriod",
          "type": "uint256"
        },
        {
          "indexed": false,
          "internalType": "uint256",
          "name": "newVotingPeriod",
          "type": "uint256"
        }
      ],
      "name": "VotingPeriodSet",
      "type": "event"
    },
    {
      "inputs": [],
      "name": "BALLOT_TYPEHASH",
      "outputs": [
        {
          "internalType": "bytes32",
          "name": "",
          "type": "bytes32"
        }
      ],
      "stateMutability": "view",
      "type": "function"
    },
    {
      "inputs": [],
      "name": "COUNTING_MODE",
      "outputs": [
        {
          "internalType": "string",
          "name": "",
          "type": "string"
        }
      ],
      "stateMutability": "pure",
      "type": "function"
    },
    {
      "inputs": [],
      "name": "EXTENDED_BALLOT_TYPEHASH",
      "outputs": [
        {
          "internalType": "bytes32",
          "name": "",
          "type": "bytes32"
        }
      ],
      "stateMutability": "view",
      "type": "function"
    },
    {
      "inputs": [],
      "name": "__acceptAdmin",
      "outputs": [],
      "stateMutability": "nonpayable",
      "type": "function"
    },
    {
      "inputs": [
        {
          "internalType": "uint256",
          "name": "proposalId",
          "type": "uint256"
        },
        {
          "internalType": "uint8",
          "name": "support",
          "type": "uint8"
        }
      ],
      "name": "castLocalVote",
      "outputs": [
        {
          "internalType": "uint256",
          "name": "",
          "type": "uint256"
        }
      ],
      "stateMutability": "nonpayable",
      "type": "function"
    },
    {
      "inputs": [
        {
          "internalType": "uint256",
          "name": "proposalId",
          "type": "uint256"
        },
        {
          "internalType": "uint8",
          "name": "support",
          "type": "uint8"
        }
      ],
      "name": "castVote",
      "outputs": [
        {
          "internalType": "uint256",
          "name": "",
          "type": "uint256"
        }
      ],
      "stateMutability": "nonpayable",
      "type": "function"
    },
    {
      "inputs": [
        {
          "internalType": "uint256",
          "name": "proposalId",
          "type": "uint256"
        },
        {
          "internalType": "uint8",
          "name": "support",
          "type": "uint8"
        }
      ],
      "name": "castVoteAllIn",
      "outputs": [
        {
          "internalType": "uint256",
          "name": "",
          "type": "uint256"
        }
      ],
      "stateMutability": "payable",
      "type": "function"
    },
    {
      "inputs": [
        {
          "internalType": "uint256",
          "name": "proposalId",
          "type": "uint256"
        },
        {
          "internalType": "uint8",
          "name": "support",
          "type": "uint8"
        },
        {
          "internalType": "uint8",
          "name": "v",
          "type": "uint8"
        },
        {
          "internalType": "bytes32",
          "name": "r",
          "type": "bytes32"
        },
        {
          "internalType": "bytes32",
          "name": "s",
          "type": "bytes32"
        }
      ],
      "name": "castVoteBySig",
      "outputs": [
        {
          "internalType": "uint256",
          "name": "",
          "type": "uint256"
        }
      ],
      "stateMutability": "nonpayable",
      "type": "function"
    },
    {
      "inputs": [
        {
          "internalType": "uint256",
          "name": "proposalId",
          "type": "uint256"
        },
        {
          "internalType": "uint8",
          "name": "support",
          "type": "uint8"
        }
      ],
      "name": "castVoteSimple",
      "outputs": [
        {
          "internalType": "uint256",
          "name": "",
          "type": "uint256"
        }
      ],
      "stateMutability": "payable",
      "type": "function"
    },
    {
      "inputs": [
        {
          "internalType": "uint256",
          "name": "proposalId",
          "type": "uint256"
        },
        {
          "internalType": "uint8",
          "name": "support",
          "type": "uint8"
        },
        {
          "internalType": "string",
          "name": "reason",
          "type": "string"
        }
      ],
      "name": "castVoteWithReason",
      "outputs": [
        {
          "internalType": "uint256",
          "name": "",
          "type": "uint256"
        }
      ],
      "stateMutability": "nonpayable",
      "type": "function"
    },
    {
      "inputs": [
        {
          "internalType": "uint256",
          "name": "proposalId",
          "type": "uint256"
        },
        {
          "internalType": "uint8",
          "name": "support",
          "type": "uint8"
        },
        {
          "internalType": "string",
          "name": "reason",
          "type": "string"
        },
        {
          "internalType": "bytes",
          "name": "params",
          "type": "bytes"
        }
      ],
      "name": "castVoteWithReasonAndParams",
      "outputs": [
        {
          "internalType": "uint256",
          "name": "",
          "type": "uint256"
        }
      ],
      "stateMutability": "nonpayable",
      "type": "function"
    },
    {
      "inputs": [
        {
          "internalType": "uint256",
          "name": "proposalId",
          "type": "uint256"
        },
        {
          "internalType": "uint8",
          "name": "support",
          "type": "uint8"
        },
        {
          "internalType": "string",
          "name": "reason",
          "type": "string"
        },
        {
          "internalType": "bytes",
          "name": "params",
          "type": "bytes"
        },
        {
          "internalType": "uint8",
          "name": "v",
          "type": "uint8"
        },
        {
          "internalType": "bytes32",
          "name": "r",
          "type": "bytes32"
        },
        {
          "internalType": "bytes32",
          "name": "s",
          "type": "bytes32"
        }
      ],
      "name": "castVoteWithReasonAndParamsBySig",
      "outputs": [
        {
          "internalType": "uint256",
          "name": "",
          "type": "uint256"
        }
      ],
      "stateMutability": "nonpayable",
      "type": "function"
    },
    {
      "inputs": [
        {
          "internalType": "address[]",
          "name": "targets",
          "type": "address[]"
        },
        {
          "internalType": "uint256[]",
          "name": "values",
          "type": "uint256[]"
        },
        {
          "internalType": "bytes[]",
          "name": "calldatas",
          "type": "bytes[]"
        },
        {
          "internalType": "bytes32",
          "name": "descriptionHash",
          "type": "bytes32"
        }
      ],
      "name": "execute",
      "outputs": [
        {
          "internalType": "uint256",
          "name": "",
          "type": "uint256"
        }
      ],
      "stateMutability": "payable",
      "type": "function"
    },
    {
      "inputs": [],
      "name": "getBalance",
      "outputs": [
        {
          "internalType": "uint256",
          "name": "",
          "type": "uint256"
        }
      ],
      "stateMutability": "view",
      "type": "function"
    },
    {
      "inputs": [
        {
          "internalType": "uint256",
          "name": "proposalId",
          "type": "uint256"
        }
      ],
      "name": "getProposerBudget",
      "outputs": [
        {
          "internalType": "uint256",
          "name": "",
          "type": "uint256"
        }
      ],
      "stateMutability": "view",
      "type": "function"
    },
    {
      "inputs": [
        {
          "internalType": "uint256",
          "name": "proposalId",
          "type": "uint256"
        }
      ],
      "name": "getProposerName",
      "outputs": [
        {
          "internalType": "address",
          "name": "",
          "type": "address"
        }
      ],
      "stateMutability": "view",
      "type": "function"
    },
    {
      "inputs": [
        {
          "internalType": "address",
          "name": "account",
          "type": "address"
        },
        {
          "internalType": "uint256",
          "name": "blockNumber",
          "type": "uint256"
        }
      ],
      "name": "getVotes",
      "outputs": [
        {
          "internalType": "uint256",
          "name": "",
          "type": "uint256"
        }
      ],
      "stateMutability": "view",
      "type": "function"
    },
    {
      "inputs": [
        {
          "internalType": "address",
          "name": "account",
          "type": "address"
        },
        {
          "internalType": "uint256",
          "name": "blockNumber",
          "type": "uint256"
        },
        {
          "internalType": "bytes",
          "name": "params",
          "type": "bytes"
        }
      ],
      "name": "getVotesWithParams",
      "outputs": [
        {
          "internalType": "uint256",
          "name": "",
          "type": "uint256"
        }
      ],
      "stateMutability": "view",
      "type": "function"
    },
    {
      "inputs": [
        {
          "internalType": "uint256",
          "name": "proposalId",
          "type": "uint256"
        },
        {
          "internalType": "address",
          "name": "account",
          "type": "address"
        }
      ],
      "name": "hasVoted",
      "outputs": [
        {
          "internalType": "bool",
          "name": "",
          "type": "bool"
        }
      ],
      "stateMutability": "view",
      "type": "function"
    },
    {
      "inputs": [
        {
          "internalType": "address[]",
          "name": "targets",
          "type": "address[]"
        },
        {
          "internalType": "uint256[]",
          "name": "values",
          "type": "uint256[]"
        },
        {
          "internalType": "bytes[]",
          "name": "calldatas",
          "type": "bytes[]"
        },
        {
          "internalType": "bytes32",
          "name": "descriptionHash",
          "type": "bytes32"
        }
      ],
      "name": "hashProposal",
      "outputs": [
        {
          "internalType": "uint256",
          "name": "",
          "type": "uint256"
        }
      ],
      "stateMutability": "pure",
      "type": "function"
    },
    {
      "inputs": [
        {
          "internalType": "uint256",
          "name": "",
          "type": "uint256"
        }
      ],
      "name": "hotProposals",
      "outputs": [
        {
          "internalType": "uint256",
          "name": "",
          "type": "uint256"
        }
      ],
      "stateMutability": "view",
      "type": "function"
    },
    {
      "inputs": [],
      "name": "hotPtr",
      "outputs": [
        {
          "internalType": "uint8",
          "name": "",
          "type": "uint8"
        }
      ],
      "stateMutability": "view",
      "type": "function"
    },
    {
      "inputs": [],
      "name": "initialBudget",
      "outputs": [
        {
          "internalType": "uint256",
          "name": "",
          "type": "uint256"
        }
      ],
      "stateMutability": "view",
      "type": "function"
    },
    {
      "inputs": [],
      "name": "initialProposer",
      "outputs": [
        {
          "internalType": "address",
          "name": "",
          "type": "address"
        }
      ],
      "stateMutability": "view",
      "type": "function"
    },
    {
      "inputs": [
        {
          "internalType": "address",
          "name": "account",
          "type": "address"
        }
      ],
      "name": "isLoyal",
      "outputs": [
        {
          "internalType": "bool",
          "name": "",
          "type": "bool"
        }
      ],
      "stateMutability": "nonpayable",
      "type": "function"
    },
    {
      "inputs": [],
      "name": "name",
      "outputs": [
        {
          "internalType": "string",
          "name": "",
          "type": "string"
        }
      ],
      "stateMutability": "view",
      "type": "function"
    },
    {
      "inputs": [
        {
          "internalType": "address",
          "name": "",
          "type": "address"
        },
        {
          "internalType": "address",
          "name": "",
          "type": "address"
        },
        {
          "internalType": "uint256[]",
          "name": "",
          "type": "uint256[]"
        },
        {
          "internalType": "uint256[]",
          "name": "",
          "type": "uint256[]"
        },
        {
          "internalType": "bytes",
          "name": "",
          "type": "bytes"
        }
      ],
      "name": "onERC1155BatchReceived",
      "outputs": [
        {
          "internalType": "bytes4",
          "name": "",
          "type": "bytes4"
        }
      ],
      "stateMutability": "nonpayable",
      "type": "function"
    },
    {
      "inputs": [
        {
          "internalType": "address",
          "name": "",
          "type": "address"
        },
        {
          "internalType": "address",
          "name": "",
          "type": "address"
        },
        {
          "internalType": "uint256",
          "name": "",
          "type": "uint256"
        },
        {
          "internalType": "uint256",
          "name": "",
          "type": "uint256"
        },
        {
          "internalType": "bytes",
          "name": "",
          "type": "bytes"
        }
      ],
      "name": "onERC1155Received",
      "outputs": [
        {
          "internalType": "bytes4",
          "name": "",
          "type": "bytes4"
        }
      ],
      "stateMutability": "nonpayable",
      "type": "function"
    },
    {
      "inputs": [
        {
          "internalType": "address",
          "name": "",
          "type": "address"
        },
        {
          "internalType": "address",
          "name": "",
          "type": "address"
        },
        {
          "internalType": "uint256",
          "name": "",
          "type": "uint256"
        },
        {
          "internalType": "bytes",
          "name": "",
          "type": "bytes"
        }
      ],
      "name": "onERC721Received",
      "outputs": [
        {
          "internalType": "bytes4",
          "name": "",
          "type": "bytes4"
        }
      ],
      "stateMutability": "nonpayable",
      "type": "function"
    },
    {
      "inputs": [],
      "name": "owner",
      "outputs": [
        {
          "internalType": "address",
          "name": "",
          "type": "address"
        }
      ],
      "stateMutability": "view",
      "type": "function"
    },
    {
      "inputs": [
        {
          "internalType": "uint256",
          "name": "proposalId",
          "type": "uint256"
        }
      ],
      "name": "proposalDeadline",
      "outputs": [
        {
          "internalType": "uint256",
          "name": "",
          "type": "uint256"
        }
      ],
      "stateMutability": "view",
      "type": "function"
    },
    {
      "inputs": [
        {
          "internalType": "uint256",
          "name": "proposalId",
          "type": "uint256"
        }
      ],
      "name": "proposalEta",
      "outputs": [
        {
          "internalType": "uint256",
          "name": "",
          "type": "uint256"
        }
      ],
      "stateMutability": "view",
      "type": "function"
    },
    {
      "inputs": [
        {
          "internalType": "uint256",
          "name": "proposalId",
          "type": "uint256"
        }
      ],
      "name": "proposalSnapshot",
      "outputs": [
        {
          "internalType": "uint256",
          "name": "",
          "type": "uint256"
        }
      ],
      "stateMutability": "view",
      "type": "function"
    },
    {
      "inputs": [],
      "name": "proposalThreshold",
      "outputs": [
        {
          "internalType": "uint256",
          "name": "",
          "type": "uint256"
        }
      ],
      "stateMutability": "view",
      "type": "function"
    },
    {
      "inputs": [
        {
          "internalType": "uint256",
          "name": "proposalId",
          "type": "uint256"
        }
      ],
      "name": "proposalVotes",
      "outputs": [
        {
          "internalType": "uint256",
          "name": "againstVotes",
          "type": "uint256"
        },
        {
          "internalType": "uint256",
          "name": "forVotes",
          "type": "uint256"
        },
        {
          "internalType": "uint256",
          "name": "abstainVotes",
          "type": "uint256"
        }
      ],
      "stateMutability": "view",
      "type": "function"
    },
    {
      "inputs": [
        {
          "internalType": "address[]",
          "name": "targets",
          "type": "address[]"
        },
        {
          "internalType": "uint256[]",
          "name": "values",
          "type": "uint256[]"
        },
        {
          "internalType": "bytes[]",
          "name": "calldatas",
          "type": "bytes[]"
        },
        {
          "internalType": "string",
          "name": "description",
          "type": "string"
        }
      ],
      "name": "propose",
      "outputs": [
        {
          "internalType": "uint256",
          "name": "",
          "type": "uint256"
        }
      ],
      "stateMutability": "nonpayable",
      "type": "function"
    },
    {
      "inputs": [
        {
          "internalType": "uint256",
          "name": "proposalId",
          "type": "uint256"
        }
      ],
      "name": "quadraticVoting",
      "outputs": [],
      "stateMutability": "payable",
      "type": "function"
    },
    {
      "inputs": [
        {
          "internalType": "address[]",
          "name": "targets",
          "type": "address[]"
        },
        {
          "internalType": "uint256[]",
          "name": "values",
          "type": "uint256[]"
        },
        {
          "internalType": "bytes[]",
          "name": "calldatas",
          "type": "bytes[]"
        },
        {
          "internalType": "bytes32",
          "name": "descriptionHash",
          "type": "bytes32"
        }
      ],
      "name": "queue",
      "outputs": [
        {
          "internalType": "uint256",
          "name": "",
          "type": "uint256"
        }
      ],
      "stateMutability": "nonpayable",
      "type": "function"
    },
    {
      "inputs": [
        {
          "internalType": "uint256",
          "name": "blockNumber",
          "type": "uint256"
        }
      ],
      "name": "quorum",
      "outputs": [
        {
          "internalType": "uint256",
          "name": "",
          "type": "uint256"
        }
      ],
      "stateMutability": "pure",
      "type": "function"
    },
    {
      "inputs": [
        {
          "internalType": "address",
          "name": "target",
          "type": "address"
        },
        {
          "internalType": "uint256",
          "name": "value",
          "type": "uint256"
        },
        {
          "internalType": "bytes",
          "name": "data",
          "type": "bytes"
        }
      ],
      "name": "relay",
      "outputs": [],
      "stateMutability": "nonpayable",
      "type": "function"
    },
    {
      "inputs": [
        {
          "internalType": "uint256",
          "name": "proposalId",
          "type": "uint256"
        },
        {
          "internalType": "uint256",
          "name": "budget",
          "type": "uint256"
        }
      ],
      "name": "setProposalBudget",
      "outputs": [],
      "stateMutability": "nonpayable",
      "type": "function"
    },
    {
      "inputs": [
        {
          "internalType": "uint256",
          "name": "newProposalThreshold",
          "type": "uint256"
        }
      ],
      "name": "setProposalThreshold",
      "outputs": [],
      "stateMutability": "nonpayable",
      "type": "function"
    },
    {
      "inputs": [
        {
          "internalType": "uint256",
          "name": "newVotingDelay",
          "type": "uint256"
        }
      ],
      "name": "setVotingDelay",
      "outputs": [],
      "stateMutability": "nonpayable",
      "type": "function"
    },
    {
      "inputs": [
        {
          "internalType": "uint256",
          "name": "newVotingPeriod",
          "type": "uint256"
        }
      ],
      "name": "setVotingPeriod",
      "outputs": [],
      "stateMutability": "nonpayable",
      "type": "function"
    },
    {
      "inputs": [
        {
          "internalType": "uint256",
          "name": "proposalId",
          "type": "uint256"
        }
      ],
      "name": "state",
      "outputs": [
        {
          "internalType": "enum IGovernor.ProposalState",
          "name": "",
          "type": "uint8"
        }
      ],
      "stateMutability": "view",
      "type": "function"
    },
    {
      "inputs": [
        {
          "internalType": "bytes4",
          "name": "interfaceId",
          "type": "bytes4"
        }
      ],
      "name": "supportsInterface",
      "outputs": [
        {
          "internalType": "bool",
          "name": "",
          "type": "bool"
        }
      ],
      "stateMutability": "view",
      "type": "function"
    },
    {
      "inputs": [],
      "name": "timelock",
      "outputs": [
        {
          "internalType": "address",
          "name": "",
          "type": "address"
        }
      ],
      "stateMutability": "view",
      "type": "function"
    },
    {
      "inputs": [],
      "name": "token",
      "outputs": [
        {
          "internalType": "contract IVotes",
          "name": "",
          "type": "address"
        }
      ],
      "stateMutability": "view",
      "type": "function"
    },
    {
      "inputs": [],
      "name": "tokenAddress",
      "outputs": [
        {
          "internalType": "address",
          "name": "",
          "type": "address"
        }
      ],
      "stateMutability": "view",
      "type": "function"
    },
    {
      "inputs": [
        {
          "internalType": "contract ICompoundTimelock",
          "name": "newTimelock",
          "type": "address"
        }
      ],
      "name": "updateTimelock",
      "outputs": [],
      "stateMutability": "nonpayable",
      "type": "function"
    },
    {
      "inputs": [],
      "name": "version",
      "outputs": [
        {
          "internalType": "string",
          "name": "",
          "type": "string"
        }
      ],
      "stateMutability": "view",
      "type": "function"
    },
    {
      "inputs": [],
      "name": "votingDelay",
      "outputs": [
        {
          "internalType": "uint256",
          "name": "",
          "type": "uint256"
        }
      ],
      "stateMutability": "view",
      "type": "function"
    },
    {
      "inputs": [],
      "name": "votingPeriod",
      "outputs": [
        {
          "internalType": "uint256",
          "name": "",
          "type": "uint256"
        }
      ],
      "stateMutability": "view",
      "type": "function"
    },
    {
      "stateMutability": "payable",
      "type": "receive"
    }
  ],
  "bytecode": "0x6101606040526013805460ff191690553480156200001c57600080fd5b5060405162004a6938038062004a698339810160408190526200003f9162000532565b82846001601460026040518060400160405280600a81526020016926bca3b7bb32b93737b960b11b815250806200007b620002b960201b60201c565b815160208084019190912082518383012060e08290526101008190524660a0818152604080517f8b73c3c69bb8fe3d512ecc4cf759cc79239f7b179b0ffacaa9a75d522b39400f81880181905281830187905260608201869052608082019490945230818401528151808203909301835260c00190528051940193909320919290916080523060601b60c052610120525050825162000124925060009150602084019062000465565b5062000132905083620002d4565b6200013d8262000315565b6200014881620003bb565b50505060601b6001600160601b031916610140526200016781620003fc565b50600a80546001600160a01b038087166001600160a01b031992831617909255600b8054909116331790556040516206a9bb60ec1b815290831690636a9bb00090620001bb90849060040190815260200190565b60206040518083038186803b158015620001d457600080fd5b505afa158015620001e9573d6000803e3d6000fd5b505050506040513d601f19601f820116820180604052508101906200020f91906200058c565b600c556040516322efb3e760e11b8152600481018290526001600160a01b038316906345df67ce9060240160206040518083038186803b1580156200025357600080fd5b505afa15801562000268573d6000803e3d6000fd5b505050506040513d601f19601f820116820180604052508101906200028e91906200050b565b600d80546001600160a01b0319166001600160a01b039290921691909117905550620005fc92505050565b6040805180820190915260018152603160f81b602082015290565b60045460408051918252602082018390527fc565b045403dc03c2eea82b81a0465edad9e2e7fc4d97e11421c209da93d7a93910160405180910390a1600455565b600081116200037a5760405162461bcd60e51b815260206004820152602760248201527f476f7665726e6f7253657474696e67733a20766f74696e6720706572696f6420604482015266746f6f206c6f7760c81b606482015260840160405180910390fd5b60055460408051918252602082018390527f7e3f7f0708a84de9203036abaa450dccc85ad5ff52f78c170f3edb55cf5e8828910160405180910390a1600555565b60065460408051918252602082018390527fccb45da8d5717e6c4544694297c4ba5cf151d455c9bb0ed4fc7a38411bc05461910160405180910390a1600655565b600854604080516001600160a01b03928316815291831660208301527f08f74ea46ef7894f65eabfb5e6e695de773a000b47c529ab559178069b226401910160405180910390a1600880546001600160a01b0319166001600160a01b0392909216919091179055565b8280546200047390620005a6565b90600052602060002090601f016020900481019282620004975760008555620004e2565b82601f10620004b257805160ff1916838001178555620004e2565b82800160010185558215620004e2579182015b82811115620004e2578251825591602001919060010190620004c5565b50620004f0929150620004f4565b5090565b5b80821115620004f05760008155600101620004f5565b6000602082840312156200051e57600080fd5b81516200052b81620005e3565b9392505050565b600080600080608085870312156200054957600080fd5b84516200055681620005e3565b60208601519094506200056981620005e3565b60408601519093506200057c81620005e3565b6060959095015193969295505050565b6000602082840312156200059f57600080fd5b5051919050565b600181811c90821680620005bb57607f821691505b60208210811415620005dd57634e487b7160e01b600052602260045260246000fd5b50919050565b6001600160a01b0381168114620005f957600080fd5b50565b60805160a05160c05160601c60e05161010051610120516101405160601c614405620006646000396000818161098d015261212801526000612af201526000612b4101526000612b1c01526000612a7501526000612a9f01526000612ac901526144056000f3fe60806040526004361061025e5760003560e01c806301ffc9a71461028657806302a251a3146102bb57806303420181146102de57806303c5ce14146102fe57806306fdde031461031e57806312065fe014610340578063150b7a0214610353578063160cbed714610397578063227588b5146103b75780632656227d146103ca5780632d63f693146103dd5780632fe3e261146103fd5780633932abb11461041f5780633bccf4fd146104345780633e4f49e614610454578063438596321461048157806345df67ce146104a1578063544ffc9c146104e457806354fd4d501461053957806356781388146105635780635d949972146105835780635f398a14146105a35780636a9bb000146105c357806370b0f660146105f35780637b3c71d3146106135780637d5e81e2146106335780638506a6d9146106535780638da5cb5b146106735780639a802a6d146106935780639c61248a146106b35780639d76ea58146106c6578063a890c910146106e6578063ab58fb8e14610706578063ae56e40a14610726578063b04a393714610752578063b58131b014610768578063b9a619611461077d578063bc197c8114610792578063bf1c4574146107be578063c006b57f146107de578063c01f9e37146107f1578063c28bc2fa14610811578063c59057e414610831578063d33219b414610851578063dd4e2ba514610866578063deaaa7cc146108ac578063ea0217cf146108ce578063eb9019d4146108ee578063ece40cc11461090e578063f23a6e611461092e578063f8ce560a1461095a578063fc0c546a1461097b578063fd590579146109af57600080fd5b36610281573061026c6109cf565b6001600160a01b03161461027f57600080fd5b005b600080fd5b34801561029257600080fd5b506102a66102a1366004613984565b6109de565b60405190151581526020015b60405180910390f35b3480156102c757600080fd5b506102d06109ef565b6040519081526020016102b2565b3480156102ea57600080fd5b506102d06102f9366004613b5c565b6109fa565b34801561030a57600080fd5b506102a661031936600461358a565b610ae0565b34801561032a57600080fd5b50610333610b7a565b6040516102b29190613e3e565b34801561034c57600080fd5b50476102d0565b34801561035f57600080fd5b5061037e61036e366004613654565b630a85bd0160e11b949350505050565b6040516001600160e01b031990911681526020016102b2565b3480156103a357600080fd5b506102d06103b2366004613806565b610c0c565b61027f6103c5366004613a1b565b610ff1565b6102d06103d8366004613806565b6110b1565b3480156103e957600080fd5b506102d06103f8366004613a1b565b6112da565b34801561040957600080fd5b506102d060008051602061437083398151915281565b34801561042b57600080fd5b506102d0611311565b34801561044057600080fd5b506102d061044f366004613c02565b61131c565b34801561046057600080fd5b5061047461046f366004613a1b565b611380565b6040516102b29190613e16565b34801561048d57600080fd5b506102a661049c366004613a34565b61138b565b3480156104ad57600080fd5b506104d76104bc366004613a1b565b6000908152600e60205260409020546001600160a01b031690565b6040516102b29190613d71565b3480156104f057600080fd5b5061051e6104ff366004613a1b565b6000908152600760205260409020805460018201546002909201549092565b604080519384526020840192909252908201526060016102b2565b34801561054557600080fd5b506040805180820190915260018152603160f81b6020820152610333565b34801561056f57600080fd5b506102d061057e366004613a86565b6113ba565b34801561058f57600080fd5b5061027f61059e366004613a64565b6113e3565b3480156105af57600080fd5b506102d06105be366004613af3565b611513565b3480156105cf57600080fd5b506102d06105de366004613a1b565b6000908152600e602052604090206001015490565b3480156105ff57600080fd5b5061027f61060e366004613a1b565b61155d565b34801561061f57600080fd5b506102d061062e366004613ab2565b6115ec565b34801561063f57600080fd5b506102d061064e366004613895565b61163e565b34801561065f57600080fd5b506102d061066e366004613a86565b611728565b34801561067f57600080fd5b50600b546104d7906001600160a01b031681565b34801561069f57600080fd5b506102d06106ae3660046137ae565b61181e565b6102d06106c1366004613a86565b611835565b3480156106d257600080fd5b50600a546104d7906001600160a01b031681565b3480156106f257600080fd5b5061027f61070136600461358a565b611928565b34801561071257600080fd5b506102d0610721366004613a1b565b6119b4565b34801561073257600080fd5b506013546107409060ff1681565b60405160ff90911681526020016102b2565b34801561075e57600080fd5b506102d0600c5481565b34801561077457600080fd5b506102d06119e0565b34801561078957600080fd5b5061027f6119eb565b34801561079e57600080fd5b5061037e6107ad3660046135a7565b63bc197c8160e01b95945050505050565b3480156107ca57600080fd5b50600d546104d7906001600160a01b031681565b6102d06107ec366004613a86565b611a55565b3480156107fd57600080fd5b506102d061080c366004613a1b565b611c4f565b34801561081d57600080fd5b5061027f61082c366004613753565b611c7e565b34801561083d57600080fd5b506102d061084c366004613806565b611d4a565b34801561085d57600080fd5b506104d7611d84565b34801561087257600080fd5b506040805180820190915260208082527f737570706f72743d627261766f2671756f72756d3d666f722c6162737461696e90820152610333565b3480156108b857600080fd5b506102d060008051602061435083398151915281565b3480156108da57600080fd5b5061027f6108e9366004613a1b565b611d93565b3480156108fa57600080fd5b506102d0610909366004613727565b611e1f565b34801561091a57600080fd5b5061027f610929366004613a1b565b611e40565b34801561093a57600080fd5b5061037e6109493660046136bf565b63f23a6e6160e01b95945050505050565b34801561096657600080fd5b506102d0610975366004613a1b565b50600390565b34801561098757600080fd5b506104d77f000000000000000000000000000000000000000000000000000000000000000081565b3480156109bb57600080fd5b506102d06109ca366004613a1b565b611ecc565b60006109d9611d84565b905090565b60006109e982611ee3565b92915050565b60006109d960055490565b600080610a8c610a846000805160206143708339815191528c8c8c8c604051610a24929190613d45565b60405180910390208b80519060200120604051602001610a69959493929190948552602085019390935260ff9190911660408401526060830152608082015260a00190565b60405160208183030381529060405280519060200120611f08565b868686611f56565b9050610ad28a828b8b8b8080601f0160208091040260200160405190810160405280939291908181526020018383808284376000920191909152508d9250611f74915050565b9a9950505050505050505050565b6000600381805b6003811015610b46576000610b1060108360038110610b0857610b0861430e565b01548761138b565b9050600081610b20576000610b23565b60015b9050610b2f81856141c7565b935050508080610b3e906142a7565b915050610ae7565b506001600160a01b0384166000908152600f60205260409020548211610b70575060019392505050565b5060009392505050565b606060008054610b899061426c565b80601f0160208091040260200160405190810160405280929190818152602001828054610bb59061426c565b8015610c025780601f10610bd757610100808354040283529160200191610c02565b820191906000526020600020905b815481529060010190602001808311610be557829003601f168201915b5050505050905090565b600080610c1b86868686611d4a565b90506004610c2882611380565b6007811115610c3957610c396142f8565b14610c955760405162461bcd60e51b815260206004820152602160248201527f476f7665726e6f723a2070726f706f73616c206e6f74207375636365737366756044820152601b60fa1b60648201526084015b60405180910390fd5b60085460408051630d48571f60e31b815290516000926001600160a01b031691636a42b8f8916004808301926020929190829003018186803b158015610cda57600080fd5b505afa158015610cee573d6000803e3d6000fd5b505050506040513d601f19601f82011682018060405250810190610d12919061396b565b610d1c90426141c7565b9050610d3e610d2a82612076565b6000848152600960205260409020906120e2565b60005b8751811015610fad5760085488516001600160a01b039091169063f2b06537908a9084908110610d7357610d7361430e565b6020026020010151898481518110610d8d57610d8d61430e565b6020026020010151898581518110610da757610da761430e565b602002602001015186604051602001610dc39493929190613d85565b604051602081830303815290604052805190602001206040518263ffffffff1660e01b8152600401610df791815260200190565b60206040518083038186803b158015610e0f57600080fd5b505afa158015610e23573d6000803e3d6000fd5b505050506040513d601f19601f82011682018060405250810190610e479190613949565b15610ec55760405162461bcd60e51b815260206004820152604260248201527f476f7665726e6f7254696d656c6f636b436f6d706f756e643a206964656e746960448201527f63616c2070726f706f73616c20616374696f6e20616c72656164792071756575606482015261195960f21b608482015260a401610c8c565b60085488516001600160a01b0390911690633a66f901908a9084908110610eee57610eee61430e565b6020026020010151898481518110610f0857610f0861430e565b6020026020010151898581518110610f2257610f2261430e565b6020026020010151866040518563ffffffff1660e01b8152600401610f4a9493929190613d85565b602060405180830381600087803b158015610f6457600080fd5b505af1158015610f78573d6000803e3d6000fd5b505050506040513d601f19601f82011682018060405250810190610f9c919061396b565b50610fa6816142a7565b9050610d41565b507f9a2e42fd6722813d69113e7d0079d3d940171428df7373df9c7f7617cfda28928282604051610fdf9291906140d1565b60405180910390a15095945050505050565b600061101533611000846112da565b604051806020016040528060008152506120ff565b90506000611023828061420a565b90506103e881111561103457506103e85b803410156110ac576040805162461bcd60e51b81526020600482015260248101919091527f51756164726174696320766f74696e673a20596f75206e656564206d6f72652060448201527f657468657220746f20636f76657220796f757220766f7465207765696768742e6064820152608401610c8c565b505050565b60006110bb6119e0565b600a546040516370a0823160e01b81526001600160a01b03909116906370a08231906110eb903390600401613d71565b60206040518083038186803b15801561110357600080fd5b505afa158015611117573d6000803e3d6000fd5b505050506040513d601f19601f8201168201806040525081019061113b919061396b565b10156111595760405162461bcd60e51b8152600401610c8c90613f91565b600061116786868686611d4a565b601354909150600260ff90911610156111c857601354819060109060ff16600381106111955761119561430e565b01556013805460ff169060006111aa836142c2565b91906101000a81548160ff021916908360ff160217905550506111f0565b601354819060109060ff16600381106111e3576111e361430e565b01556013805460ff191690555b6111fa34476141c7565b6000828152600e6020526040902060010154106112755760405162461bcd60e51b815260206004820152603360248201527f476f7665726e6f723a2062756467657420726571756573746564206578636565604482015272323990333ab732399030bb30b4b630b136329760691b6064820152608401610c8c565b6000818152600e6020526040902080546001909101546001600160a01b039091169081906108fc906112ab90633b9aca0061420a565b6040518115909202916000818181858888f19350505050506112d082888888886121a4565b5095945050505050565b60008181526001602090815260408083208151928301909152546001600160401b0316908190525b6001600160401b031692915050565b60006109d960045490565b60408051600080516020614350833981519152602082015290810186905260ff85166060820152600090819061135890610a8490608001610a69565b905061137587828860405180602001604052806000815250612332565b979650505050505050565b60006109e98261235e565b60008281526007602090815260408083206001600160a01b038516845260030190915290205460ff1692915050565b6000803390506113db84828560405180602001604052806000815250612332565b949350505050565b6000828152600e60205260409020546001600160a01b0316331461146f5760405162461bcd60e51b815260206004820152603f60248201527f476f7665726e6f723a206f6e6c79207468652070726f706f7365722063616e2060448201527f7365742074686520627564676574206f66207468652070726f706f73616c2e006064820152608401610c8c565b600061147a83611380565b600781111561148b5761148b6142f8565b146114fe5760405162461bcd60e51b815260206004820152603e60248201527f476f7665726e6f723a2063616e6e6f74206368616e6765206275646765742e2060448201527f50726f706f73616c20766f746520616c726561647920737461727465642e00006064820152608401610c8c565b6000918252600e602052604090912060010155565b60008033905061137587828888888080601f0160208091040260200160405190810160405280939291908181526020018383808284376000920191909152508a9250611f74915050565b6115656109cf565b6001600160a01b0316336001600160a01b0316146115955760405162461bcd60e51b8152600401610c8c90613e51565b3061159e6109cf565b6001600160a01b0316146115e057600080366040516115be929190613d45565b604051809103902090505b806115d4600261244e565b146115de576115c9565b505b6115e9816124d1565b50565b60008033905061163486828787878080601f01602080910402602001604051908101604052809392919081815260200183838082843760009201919091525061233292505050565b9695505050505050565b60006116486119e0565b600a546040516370a0823160e01b81526001600160a01b03909116906370a0823190611678903390600401613d71565b60206040518083038186803b15801561169057600080fd5b505afa1580156116a4573d6000803e3d6000fd5b505050506040513d601f19601f820116820180604052508101906116c8919061396b565b10156116e65760405162461bcd60e51b8152600401610c8c90613f91565b60006116fb8686868680519060200120611d4a565b6000818152600e6020526040902080546001600160a01b0319163317815590915061137587878787612511565b600a54604051600091829182916001600160a01b03169061174d903390602001613f07565b60408051601f198184030181529082905261176791613d55565b6000604051808303816000865af19150503d80600081146117a4576040519150601f19603f3d011682016040523d82523d6000602084013e6117a9565b606091505b50915091506000818060200190518101906117c4919061396b565b90506117ce6119e0565b8110156117ed5760405162461bcd60e51b8152600401610c8c90613f44565b6000335b90506113758782886040518060200160405280600081525060405180602001604052806000815250612764565b600061182b8484846120ff565b90505b9392505050565b600a54604051600091829182916001600160a01b03169061185a903390602001613f07565b60408051601f198184030181529082905261187491613d55565b6000604051808303816000865af19150503d80600081146118b1576040519150601f19603f3d011682016040523d82523d6000602084013e6118b6565b606091505b50915091506000818060200190518101906118d1919061396b565b90506118db6119e0565b8110156118fa5760405162461bcd60e51b8152600401610c8c90613f44565b336000908152600f6020526040812080546001929061191a9084906141c7565b9091555060009050336117f1565b6119306109cf565b6001600160a01b0316336001600160a01b0316146119605760405162461bcd60e51b8152600401610c8c90613e51565b306119696109cf565b6001600160a01b0316146119ab5760008036604051611989929190613d45565b604051809103902090505b8061199f600261244e565b146119a957611994565b505b6115e98161282f565b60008181526009602090815260408083208151928301909152546001600160401b031690819052611302565b60006109d960065490565b600860009054906101000a90046001600160a01b03166001600160a01b0316630e18b6816040518163ffffffff1660e01b8152600401600060405180830381600087803b158015611a3b57600080fd5b505af1158015611a4f573d6000803e3d6000fd5b50505050565b600a54604051600091829182916001600160a01b031690611a7a903390602001613f07565b60408051601f1981840301815290829052611a9491613d55565b6000604051808303816000865af19150503d8060008114611ad1576040519150601f19603f3d011682016040523d82523d6000602084013e611ad6565b606091505b5091509150600081806020019051810190611af1919061396b565b9050611afb6119e0565b811015611b1a5760405162461bcd60e51b8152600401610c8c90613f44565b6000611b2933611000896112da565b90506000611b37828061420a565b90506000662386f26fc100006001841415611b555760009150611b62565b611b5f818461420a565b91505b81341015611bea5760405162461bcd60e51b815260206004820152604960248201527f596f75206e656564206d6f726520657468657220746f20766f7465207769746860448201527f20616c6c204e4654733a20636f7374203d20286e566f746573295e32202a20306064820152681718189032ba3432b960b91b608482015260a401610c8c565b336000908152600f60205260408120805460019290611c0a9084906141c7565b9091555060009050339050611c408b828c6040518060200160405280600081525060405180602001604052806000815250612898565b9b9a5050505050505050505050565b60008181526001602081815260408084208151928301909152909101546001600160401b031690819052611302565b611c866109cf565b6001600160a01b0316336001600160a01b031614611cb65760405162461bcd60e51b8152600401610c8c90613e51565b30611cbf6109cf565b6001600160a01b031614611d015760008036604051611cdf929190613d45565b604051809103902090505b80611cf5600261244e565b14611cff57611cea565b505b611d438483838080601f0160208091040260200160405190810160405280939291908181526020018383808284376000920191909152508892506128f7915050565b5050505050565b600084848484604051602001611d639493929190613dcb565b60408051601f19818403018152919052805160209091012095945050505050565b6008546001600160a01b031690565b611d9b6109cf565b6001600160a01b0316336001600160a01b031614611dcb5760405162461bcd60e51b8152600401610c8c90613e51565b30611dd46109cf565b6001600160a01b031614611e165760008036604051611df4929190613d45565b604051809103902090505b80611e0a600261244e565b14611e1457611dff565b505b6115e98161291d565b600061182e8383611e3b60408051602081019091526000815290565b6120ff565b611e486109cf565b6001600160a01b0316336001600160a01b031614611e785760405162461bcd60e51b8152600401610c8c90613e51565b30611e816109cf565b6001600160a01b031614611ec35760008036604051611ea1929190613d45565b604051809103902090505b80611eb7600261244e565b14611ec157611eac565b505b6115e9816129bd565b60108160038110611edc57600080fd5b0154905081565b60006001600160e01b03198216636e665ced60e01b14806109e957506109e9826129fd565b60006109e9611f15612a68565b8360405161190160f01b6020820152602281018390526042810182905260009060620160405160208183030381529060405280519060200120905092915050565b6000806000611f6787878787612b8f565b915091506112d081612c72565b6000858152600160208190526040822090611f8e88611380565b6007811115611f9f57611f9f6142f8565b14611fbc5760405162461bcd60e51b8152600401610c8c90613ec4565b604080516020810190915281546001600160401b031690819052600090611fe5908890866120ff565b9050611ff48888888488612e28565b835161203457866001600160a01b03166000805160206143d98339815191528988848960405161202794939291906140df565b60405180910390a2611375565b866001600160a01b03166000805160206143b98339815191528988848989604051612063959493929190614107565b60405180910390a2979650505050505050565b60006001600160401b038211156120de5760405162461bcd60e51b815260206004820152602660248201527f53616665436173743a2076616c756520646f65736e27742066697420696e203660448201526534206269747360d01b6064820152608401610c8c565b5090565b81546001600160401b0319166001600160401b0391909116179055565b604051630748d63560e31b81526001600160a01b038481166004830152602482018490526000917f000000000000000000000000000000000000000000000000000000000000000090911690633a46b1a89060440160206040518083038186803b15801561216c57600080fd5b505afa158015612180573d6000803e3d6000fd5b505050506040513d601f19601f8201168201806040525081019061182b919061396b565b60006121af866119b4565b90506000811161221b5760405162461bcd60e51b815260206004820152603160248201527f476f7665726e6f7254696d656c6f636b436f6d706f756e643a2070726f706f73604482015270185b081b9bdd081e595d081c5d595d5959607a1b6064820152608401610c8c565b600854612231906001600160a01b031634612faf565b60005b85518110156123295760085486516001600160a01b0390911690630825f38f908890849081106122665761226661430e565b60200260200101518784815181106122805761228061430e565b602002602001015187858151811061229a5761229a61430e565b6020026020010151866040518563ffffffff1660e01b81526004016122c29493929190613d85565b600060405180830381600087803b1580156122dc57600080fd5b505af11580156122f0573d6000803e3d6000fd5b505050506040513d6000823e601f3d908101601f1916820160405261231891908101906139ae565b50612322816142a7565b9050612234565b50505050505050565b60006123558585858561235060408051602081019091526000815290565b611f74565b95945050505050565b60008061236a836130c5565b90506004816007811115612380576123806142f8565b1461238b5792915050565b6000612396846119b4565b9050806123a4575092915050565b600860009054906101000a90046001600160a01b03166001600160a01b031663c1a287e26040518163ffffffff1660e01b815260040160206040518083038186803b1580156123f257600080fd5b505afa158015612406573d6000803e3d6000fd5b505050506040513d601f19601f8201168201806040525081019061242a919061396b565b61243490826141c7565b4210612444575060069392505050565b5060059392505050565b600061246d8254600f81810b810b600160801b909204810b900b131590565b1561248b57604051631ed9509560e11b815260040160405180910390fd5b508054600f90810b80820b820b600090815260018085016020526040822080549290558454920190920b6001600160801b03166001600160801b03199091161790915590565b7fc565b045403dc03c2eea82b81a0465edad9e2e7fc4d97e11421c209da93d7a93600454826040516125049291906140d1565b60405180910390a1600455565b600061251b6119e0565b61252a33610909600143614229565b10156125485760405162461bcd60e51b8152600401610c8c90613f91565b600061255d8686868680519060200120611d4a565b905084518651146125805760405162461bcd60e51b8152600401610c8c90613e83565b83518651146125a15760405162461bcd60e51b8152600401610c8c90613e83565b60008651116125ed5760405162461bcd60e51b815260206004820152601860248201527711dbdd995c9b9bdc8e88195b5c1d1e481c1c9bdc1bdcd85b60421b6044820152606401610c8c565b600081815260016020908152604091829020825191820190925281546001600160401b0316908190521561266d5760405162461bcd60e51b815260206004820152602160248201527f476f7665726e6f723a2070726f706f73616c20616c72656164792065786973746044820152607360f81b6064820152608401610c8c565b600061267f61267a611311565b612076565b61268843612076565b61269291906141df565b905060006126a161267a6109ef565b6126ab90836141df565b90506126b783836120e2565b6126c460018401826120e2565b7f7d84a6263ae0d98d3329bd7b46bb4e8d6f98cd35a7adb45c274c8b7fd5ebd5e084338b8b8d516001600160401b0381111561270257612702614324565b60405190808252806020026020018201604052801561273557816020015b60608152602001906001900390816127205790505b508c88888e60405161274f99989796959493929190613fe2565b60405180910390a15091979650505050505050565b6000600161277187611380565b6007811115612782576127826142f8565b1461279f5760405162461bcd60e51b8152600401610c8c90613ec4565b60016127ae8787878487612e28565b82516127ee57856001600160a01b03166000805160206143d9833981519152888784886040516127e194939291906140df565b60405180910390a2611634565b856001600160a01b03166000805160206143b9833981519152888784888860405161281d959493929190614107565b60405180910390a29695505050505050565b600854604080516001600160a01b03928316815291831660208301527f08f74ea46ef7894f65eabfb5e6e695de773a000b47c529ab559178069b226401910160405180910390a1600880546001600160a01b0319166001600160a01b0392909216919091179055565b600060016128a587611380565b60078111156128b6576128b66142f8565b146128d35760405162461bcd60e51b8152600401610c8c90613ec4565b60006128e8866128e2896112da565b856120ff565b90506127ae8787878487612e28565b606061182b848484604051806060016040528060298152602001614390602991396131d1565b6000811161297d5760405162461bcd60e51b815260206004820152602760248201527f476f7665726e6f7253657474696e67733a20766f74696e6720706572696f6420604482015266746f6f206c6f7760c81b6064820152608401610c8c565b7f7e3f7f0708a84de9203036abaa450dccc85ad5ff52f78c170f3edb55cf5e8828600554826040516129b09291906140d1565b60405180910390a1600555565b7fccb45da8d5717e6c4544694297c4ba5cf151d455c9bb0ed4fc7a38411bc05461600654826040516129f09291906140d1565b60405180910390a1600655565b60006001600160e01b0319821663bf26d89760e01b1480612a2e57506001600160e01b031982166379dd796f60e01b145b80612a4957506001600160e01b03198216630271189760e51b145b806109e957506301ffc9a760e01b6001600160e01b03198316146109e9565b6000306001600160a01b037f000000000000000000000000000000000000000000000000000000000000000016148015612ac157507f000000000000000000000000000000000000000000000000000000000000000046145b15612aeb57507f000000000000000000000000000000000000000000000000000000000000000090565b50604080517f00000000000000000000000000000000000000000000000000000000000000006020808301919091527f0000000000000000000000000000000000000000000000000000000000000000828401527f000000000000000000000000000000000000000000000000000000000000000060608301524660808301523060a0808401919091528351808403909101815260c0909201909252805191012090565b6000806fa2a8918ca85bafe22016d0b997e4df60600160ff1b03831115612bbc5750600090506003612c69565b8460ff16601b14158015612bd457508460ff16601c14155b15612be55750600090506004612c69565b6040805160008082526020820180845289905260ff881692820192909252606081018690526080810185905260019060a0016020604051602081039080840390855afa158015612c39573d6000803e3d6000fd5b5050604051601f1901519150506001600160a01b038116612c6257600060019250925050612c69565b9150600090505b94509492505050565b6000816004811115612c8657612c866142f8565b1415612c8f5750565b6001816004811115612ca357612ca36142f8565b1415612cec5760405162461bcd60e51b815260206004820152601860248201527745434453413a20696e76616c6964207369676e617475726560401b6044820152606401610c8c565b6002816004811115612d0057612d006142f8565b1415612d4e5760405162461bcd60e51b815260206004820152601f60248201527f45434453413a20696e76616c6964207369676e6174757265206c656e677468006044820152606401610c8c565b6003816004811115612d6257612d626142f8565b1415612dbb5760405162461bcd60e51b815260206004820152602260248201527f45434453413a20696e76616c6964207369676e6174757265202773272076616c604482015261756560f01b6064820152608401610c8c565b6004816004811115612dcf57612dcf6142f8565b14156115e95760405162461bcd60e51b815260206004820152602260248201527f45434453413a20696e76616c6964207369676e6174757265202776272076616c604482015261756560f01b6064820152608401610c8c565b60008581526007602090815260408083206001600160a01b0388168452600381019092529091205460ff1615612eb05760405162461bcd60e51b815260206004820152602760248201527f476f7665726e6f72566f74696e6753696d706c653a20766f746520616c726561604482015266191e4818d85cdd60ca1b6064820152608401610c8c565b6001600160a01b03851660009081526003820160205260408120805460ff1916600117905560ff168460ff161415612f015782816000016000828254612ef691906141c7565b90915550612fa79050565b60ff841660011415612f215782816001016000828254612ef691906141c7565b60ff841660021415612f415782816002016000828254612ef691906141c7565b60405162461bcd60e51b815260206004820152603560248201527f476f7665726e6f72566f74696e6753696d706c653a20696e76616c69642076616044820152746c756520666f7220656e756d20566f74655479706560581b6064820152608401610c8c565b505050505050565b80471015612fff5760405162461bcd60e51b815260206004820152601d60248201527f416464726573733a20696e73756666696369656e742062616c616e63650000006044820152606401610c8c565b6000826001600160a01b03168260405160006040518083038185875af1925050503d806000811461304c576040519150601f19603f3d011682016040523d82523d6000602084013e613051565b606091505b50509050806110ac5760405162461bcd60e51b815260206004820152603a60248201527f416464726573733a20756e61626c6520746f2073656e642076616c75652c20726044820152791958da5c1a595b9d081b585e481a185d99481c995d995c9d195960321b6064820152608401610c8c565b6000818152600160205260408120600281015460ff16156130e95750600792915050565b6002810154610100900460ff16156131045750600292915050565b600061310f846112da565b90508061315e5760405162461bcd60e51b815260206004820152601d60248201527f476f7665726e6f723a20756e6b6e6f776e2070726f706f73616c2069640000006044820152606401610c8c565b43811061316f575060009392505050565b600061317a85611c4f565b905043811061318e57506001949350505050565b613197856132f7565b80156131b6575060008581526007602052604090208054600190910154115b156131c657506004949350505050565b506003949350505050565b6060824710156132325760405162461bcd60e51b815260206004820152602660248201527f416464726573733a20696e73756666696369656e742062616c616e636520666f6044820152651c8818d85b1b60d21b6064820152608401610c8c565b6001600160a01b0385163b6132895760405162461bcd60e51b815260206004820152601d60248201527f416464726573733a2063616c6c20746f206e6f6e2d636f6e74726163740000006044820152606401610c8c565b600080866001600160a01b031685876040516132a59190613d55565b60006040518083038185875af1925050503d80600081146132e2576040519150601f19603f3d011682016040523d82523d6000602084013e6132e7565b606091505b509150915061137582828661332e565b60008181526007602052604081206002810154600182015461331991906141c7565b613325610975856112da565b11159392505050565b6060831561333d57508161182e565b82511561334d5782518084602001fd5b8160405162461bcd60e51b8152600401610c8c9190613e3e565b600061337a613375846141a0565b61414d565b905082815283838301111561338e57600080fd5b828260208301376000602084830101529392505050565b600082601f8301126133b657600080fd5b813560206133c66133758361417d565b80838252828201915082860187848660051b89010111156133e657600080fd5b60005b8581101561340e5781356133fc8161433a565b845292840192908401906001016133e9565b5090979650505050505050565b600082601f83011261342c57600080fd5b8135602061343c6133758361417d565b80838252828201915082860187848660051b890101111561345c57600080fd5b6000805b8681101561349e5782356001600160401b0381111561347d578283fd5b61348b8b88838d0101613554565b8652509385019391850191600101613460565b509198975050505050505050565b600082601f8301126134bd57600080fd5b813560206134cd6133758361417d565b80838252828201915082860187848660051b89010111156134ed57600080fd5b60005b8581101561340e578135845292840192908401906001016134f0565b60008083601f84011261351e57600080fd5b5081356001600160401b0381111561353557600080fd5b60208301915083602082850101111561354d57600080fd5b9250929050565b600082601f83011261356557600080fd5b61182e83833560208501613367565b803560ff8116811461358557600080fd5b919050565b60006020828403121561359c57600080fd5b813561182e8161433a565b600080600080600060a086880312156135bf57600080fd5b85356135ca8161433a565b945060208601356135da8161433a565b935060408601356001600160401b03808211156135f657600080fd5b61360289838a016134ac565b9450606088013591508082111561361857600080fd5b61362489838a016134ac565b9350608088013591508082111561363a57600080fd5b5061364788828901613554565b9150509295509295909350565b6000806000806080858703121561366a57600080fd5b84356136758161433a565b935060208501356136858161433a565b92506040850135915060608501356001600160401b038111156136a757600080fd5b6136b387828801613554565b91505092959194509250565b600080600080600060a086880312156136d757600080fd5b85356136e28161433a565b945060208601356136f28161433a565b9350604086013592506060860135915060808601356001600160401b0381111561371b57600080fd5b61364788828901613554565b6000806040838503121561373a57600080fd5b82356137458161433a565b946020939093013593505050565b6000806000806060858703121561376957600080fd5b84356137748161433a565b93506020850135925060408501356001600160401b0381111561379657600080fd5b6137a28782880161350c565b95989497509550505050565b6000806000606084860312156137c357600080fd5b83356137ce8161433a565b92506020840135915060408401356001600160401b038111156137f057600080fd5b6137fc86828701613554565b9150509250925092565b6000806000806080858703121561381c57600080fd5b84356001600160401b038082111561383357600080fd5b61383f888389016133a5565b9550602087013591508082111561385557600080fd5b613861888389016134ac565b9450604087013591508082111561387757600080fd5b506138848782880161341b565b949793965093946060013593505050565b600080600080608085870312156138ab57600080fd5b84356001600160401b03808211156138c257600080fd5b6138ce888389016133a5565b955060208701359150808211156138e457600080fd5b6138f0888389016134ac565b9450604087013591508082111561390657600080fd5b6139128883890161341b565b9350606087013591508082111561392857600080fd5b508501601f8101871361393a57600080fd5b6136b387823560208401613367565b60006020828403121561395b57600080fd5b8151801515811461182e57600080fd5b60006020828403121561397d57600080fd5b5051919050565b60006020828403121561399657600080fd5b81356001600160e01b03198116811461182e57600080fd5b6000602082840312156139c057600080fd5b81516001600160401b038111156139d657600080fd5b8201601f810184136139e757600080fd5b80516139f5613375826141a0565b818152856020838501011115613a0a57600080fd5b612355826020830160208601614240565b600060208284031215613a2d57600080fd5b5035919050565b60008060408385031215613a4757600080fd5b823591506020830135613a598161433a565b809150509250929050565b60008060408385031215613a7757600080fd5b50508035926020909101359150565b60008060408385031215613a9957600080fd5b82359150613aa960208401613574565b90509250929050565b60008060008060608587031215613ac857600080fd5b84359350613ad860208601613574565b925060408501356001600160401b0381111561379657600080fd5b600080600080600060808688031215613b0b57600080fd5b85359450613b1b60208701613574565b935060408601356001600160401b0380821115613b3757600080fd5b613b4389838a0161350c565b9095509350606088013591508082111561363a57600080fd5b60008060008060008060008060e0898b031215613b7857600080fd5b88359750613b8860208a01613574565b965060408901356001600160401b0380821115613ba457600080fd5b613bb08c838d0161350c565b909850965060608b0135915080821115613bc957600080fd5b50613bd68b828c01613554565b945050613be560808a01613574565b925060a0890135915060c089013590509295985092959890939650565b600080600080600060a08688031215613c1a57600080fd5b85359450613c2a60208701613574565b9350613c3860408701613574565b94979396509394606081013594506080013592915050565b600081518084526020808501945080840160005b83811015613c895781516001600160a01b031687529582019590820190600101613c64565b509495945050505050565b600081518084526020808501808196508360051b8101915082860160005b85811015613cdc578284038952613cca848351613d19565b98850198935090840190600101613cb2565b5091979650505050505050565b600081518084526020808501945080840160005b83811015613c8957815187529582019590820190600101613cfd565b60008151808452613d31816020860160208601614240565b601f01601f19169290920160200192915050565b8183823760009101908152919050565b60008251613d67818460208701614240565b9190910192915050565b6001600160a01b0391909116815260200190565b60018060a01b038516815283602082015260a06040820152600060a082015260c060608201526000613dba60c0830185613d19565b905082608083015295945050505050565b608081526000613dde6080830187613c50565b8281036020840152613df08187613ce9565b90508281036040840152613e048186613c94565b91505082606083015295945050505050565b6020810160088310613e3857634e487b7160e01b600052602160045260246000fd5b91905290565b60208152600061182e6020830184613d19565b602080825260189082015277476f7665726e6f723a206f6e6c79476f7665726e616e636560401b604082015260600190565b60208082526021908201527f476f7665726e6f723a20696e76616c69642070726f706f73616c206c656e67746040820152600d60fb1b606082015260800190565b60208082526023908201527f476f7665726e6f723a20766f7465206e6f742063757272656e746c792061637460408201526269766560e81b606082015260800190565b60408082526012908201527162616c616e63654f6628616464726573732960701b60608201526001600160a01b0391909116602082015260800190565b6020808252602d908201527f596f7520646f6e2774206f776e20656e6f7567682047656e65736973204e465460408201526c39903a3790383937b837b9b29760991b606082015260800190565b60208082526031908201527f476f7665726e6f723a2070726f706f73657220766f7465732062656c6f7720706040820152701c9bdc1bdcd85b081d1a1c995cda1bdb19607a1b606082015260800190565b60006101208b8352602060018060a01b038c168185015281604085015261400b8285018c613c50565b9150838203606085015261401f828b613ce9565b915083820360808501528189518084528284019150828160051b850101838c0160005b8381101561407057601f1987840301855261405e838351613d19565b94860194925090850190600101614042565b505086810360a0880152614084818c613c94565b94505050505061409f60c08401876001600160401b03169052565b6001600160401b03851660e08401528281036101008401526140c18185613d19565b9c9b505050505050505050505050565b918252602082015260400190565b84815260ff841660208201528260408201526080606082015260006116346080830184613d19565b85815260ff8516602082015283604082015260a06060820152600061412f60a0830185613d19565b82810360808401526141418185613d19565b98975050505050505050565b604051601f8201601f191681016001600160401b038111828210171561417557614175614324565b604052919050565b60006001600160401b0382111561419657614196614324565b5060051b60200190565b60006001600160401b038211156141b9576141b9614324565b50601f01601f191660200190565b600082198211156141da576141da6142e2565b500190565b60006001600160401b03828116848216808303821115614201576142016142e2565b01949350505050565b6000816000190483118215151615614224576142246142e2565b500290565b60008282101561423b5761423b6142e2565b500390565b60005b8381101561425b578181015183820152602001614243565b83811115611a4f5750506000910152565b600181811c9082168061428057607f821691505b602082108114156142a157634e487b7160e01b600052602260045260246000fd5b50919050565b60006000198214156142bb576142bb6142e2565b5060010190565b600060ff821660ff8114156142d9576142d96142e2565b60010192915050565b634e487b7160e01b600052601160045260246000fd5b634e487b7160e01b600052602160045260246000fd5b634e487b7160e01b600052603260045260246000fd5b634e487b7160e01b600052604160045260246000fd5b6001600160a01b03811681146115e957600080fdfe150214d74d59b7d1e90c73fc22ef3d991dd0a76b046543d4d80ab92d2a50328fb3b3f3b703cd84ce352197dcff232b1b5d3cfb2025ce47cf04742d0651f1af88416464726573733a206c6f772d6c6576656c2063616c6c20776974682076616c7565206661696c6564e2babfbac5889a709b63bb7f598b324e08bc5a4fb9ec647fb3cbc9ec07eb8712b8e138887d0aa13bab447e82de9d5c1777041ecd21ca36ba824ff1e6c07ddda4a164736f6c6343000806000a",
  "linkReferences": {},
  "deployedLinkReferences": {}
}