{
  "_format": "hh-sol-artifact-1",
  "contractName": "ProjectGovernor",
  "sourceName": "contracts/ProjectGovernor.sol",
  "abi": [
    {
      "inputs": [
        {
          "internalType": "contract IVotes",
          "name": "_token",
          "type": "address"
        },
        {
          "internalType": "contract ICompoundTimelock",
          "name": "_timelock",
          "type": "address"
        },
        {
          "internalType": "uint256",
          "name": "proposalId",
          "type": "uint256"
        },
        {
          "internalType": "address",
          "name": "proposer",
          "type": "address"
        },
        {
          "internalType": "uint256",
          "name": "budget",
          "type": "uint256"
        }
      ],
      "stateMutability": "nonpayable",
      "type": "constructor"
    },
    {
      "inputs": [],
      "name": "Empty",
      "type": "error"
    },
    {
      "anonymous": false,
      "inputs": [
        {
          "indexed": false,
          "internalType": "uint256",
          "name": "proposalId",
          "type": "uint256"
        }
      ],
      "name": "ProposalCanceled",
      "type": "event"
    },
    {
      "anonymous": false,
      "inputs": [
        {
          "indexed": false,
          "internalType": "uint256",
          "name": "proposalId",
          "type": "uint256"
        },
        {
          "indexed": false,
          "internalType": "address",
          "name": "proposer",
          "type": "address"
        },
        {
          "indexed": false,
          "internalType": "address[]",
          "name": "targets",
          "type": "address[]"
        },
        {
          "indexed": false,
          "internalType": "uint256[]",
          "name": "values",
          "type": "uint256[]"
        },
        {
          "indexed": false,
          "internalType": "string[]",
          "name": "signatures",
          "type": "string[]"
        },
        {
          "indexed": false,
          "internalType": "bytes[]",
          "name": "calldatas",
          "type": "bytes[]"
        },
        {
          "indexed": false,
          "internalType": "uint256",
          "name": "startBlock",
          "type": "uint256"
        },
        {
          "indexed": false,
          "internalType": "uint256",
          "name": "endBlock",
          "type": "uint256"
        },
        {
          "indexed": false,
          "internalType": "string",
          "name": "description",
          "type": "string"
        }
      ],
      "name": "ProposalCreated",
      "type": "event"
    },
    {
      "anonymous": false,
      "inputs": [
        {
          "indexed": false,
          "internalType": "uint256",
          "name": "proposalId",
          "type": "uint256"
        }
      ],
      "name": "ProposalExecuted",
      "type": "event"
    },
    {
      "anonymous": false,
      "inputs": [
        {
          "indexed": false,
          "internalType": "uint256",
          "name": "proposalId",
          "type": "uint256"
        },
        {
          "indexed": false,
          "internalType": "uint256",
          "name": "eta",
          "type": "uint256"
        }
      ],
      "name": "ProposalQueued",
      "type": "event"
    },
    {
      "anonymous": false,
      "inputs": [
        {
          "indexed": false,
          "internalType": "uint256",
          "name": "oldProposalThreshold",
          "type": "uint256"
        },
        {
          "indexed": false,
          "internalType": "uint256",
          "name": "newProposalThreshold",
          "type": "uint256"
        }
      ],
      "name": "ProposalThresholdSet",
      "type": "event"
    },
    {
      "anonymous": false,
      "inputs": [
        {
          "indexed": false,
          "internalType": "address",
          "name": "oldTimelock",
          "type": "address"
        },
        {
          "indexed": false,
          "internalType": "address",
          "name": "newTimelock",
          "type": "address"
        }
      ],
      "name": "TimelockChange",
      "type": "event"
    },
    {
      "anonymous": false,
      "inputs": [
        {
          "indexed": true,
          "internalType": "address",
          "name": "voter",
          "type": "address"
        },
        {
          "indexed": false,
          "internalType": "uint256",
          "name": "proposalId",
          "type": "uint256"
        },
        {
          "indexed": false,
          "internalType": "uint8",
          "name": "support",
          "type": "uint8"
        },
        {
          "indexed": false,
          "internalType": "uint256",
          "name": "weight",
          "type": "uint256"
        },
        {
          "indexed": false,
          "internalType": "string",
          "name": "reason",
          "type": "string"
        }
      ],
      "name": "VoteCast",
      "type": "event"
    },
    {
      "anonymous": false,
      "inputs": [
        {
          "indexed": true,
          "internalType": "address",
          "name": "voter",
          "type": "address"
        },
        {
          "indexed": false,
          "internalType": "uint256",
          "name": "proposalId",
          "type": "uint256"
        },
        {
          "indexed": false,
          "internalType": "uint8",
          "name": "support",
          "type": "uint8"
        },
        {
          "indexed": false,
          "internalType": "uint256",
          "name": "weight",
          "type": "uint256"
        },
        {
          "indexed": false,
          "internalType": "string",
          "name": "reason",
          "type": "string"
        },
        {
          "indexed": false,
          "internalType": "bytes",
          "name": "params",
          "type": "bytes"
        }
      ],
      "name": "VoteCastWithParams",
      "type": "event"
    },
    {
      "anonymous": false,
      "inputs": [
        {
          "indexed": false,
          "internalType": "uint256",
          "name": "oldVotingDelay",
          "type": "uint256"
        },
        {
          "indexed": false,
          "internalType": "uint256",
          "name": "newVotingDelay",
          "type": "uint256"
        }
      ],
      "name": "VotingDelaySet",
      "type": "event"
    },
    {
      "anonymous": false,
      "inputs": [
        {
          "indexed": false,
          "internalType": "uint256",
          "name": "oldVotingPeriod",
          "type": "uint256"
        },
        {
          "indexed": false,
          "internalType": "uint256",
          "name": "newVotingPeriod",
          "type": "uint256"
        }
      ],
      "name": "VotingPeriodSet",
      "type": "event"
    },
    {
      "inputs": [],
      "name": "BALLOT_TYPEHASH",
      "outputs": [
        {
          "internalType": "bytes32",
          "name": "",
          "type": "bytes32"
        }
      ],
      "stateMutability": "view",
      "type": "function"
    },
    {
      "inputs": [],
      "name": "COUNTING_MODE",
      "outputs": [
        {
          "internalType": "string",
          "name": "",
          "type": "string"
        }
      ],
      "stateMutability": "pure",
      "type": "function"
    },
    {
      "inputs": [],
      "name": "EXTENDED_BALLOT_TYPEHASH",
      "outputs": [
        {
          "internalType": "bytes32",
          "name": "",
          "type": "bytes32"
        }
      ],
      "stateMutability": "view",
      "type": "function"
    },
    {
      "inputs": [],
      "name": "__acceptAdmin",
      "outputs": [],
      "stateMutability": "nonpayable",
      "type": "function"
    },
    {
      "inputs": [
        {
          "internalType": "uint256",
          "name": "proposalId",
          "type": "uint256"
        },
        {
          "internalType": "uint8",
          "name": "support",
          "type": "uint8"
        }
      ],
      "name": "castVote",
      "outputs": [
        {
          "internalType": "uint256",
          "name": "",
          "type": "uint256"
        }
      ],
      "stateMutability": "nonpayable",
      "type": "function"
    },
    {
      "inputs": [
        {
          "internalType": "uint256",
          "name": "proposalId",
          "type": "uint256"
        },
        {
          "internalType": "uint8",
          "name": "support",
          "type": "uint8"
        }
      ],
      "name": "castVoteAllIn",
      "outputs": [
        {
          "internalType": "uint256",
          "name": "",
          "type": "uint256"
        }
      ],
      "stateMutability": "payable",
      "type": "function"
    },
    {
      "inputs": [
        {
          "internalType": "uint256",
          "name": "proposalId",
          "type": "uint256"
        },
        {
          "internalType": "uint8",
          "name": "support",
          "type": "uint8"
        },
        {
          "internalType": "uint8",
          "name": "v",
          "type": "uint8"
        },
        {
          "internalType": "bytes32",
          "name": "r",
          "type": "bytes32"
        },
        {
          "internalType": "bytes32",
          "name": "s",
          "type": "bytes32"
        }
      ],
      "name": "castVoteBySig",
      "outputs": [
        {
          "internalType": "uint256",
          "name": "",
          "type": "uint256"
        }
      ],
      "stateMutability": "nonpayable",
      "type": "function"
    },
    {
      "inputs": [
        {
          "internalType": "uint256",
          "name": "proposalId",
          "type": "uint256"
        },
        {
          "internalType": "uint8",
          "name": "support",
          "type": "uint8"
        }
      ],
      "name": "castVoteSimple",
      "outputs": [
        {
          "internalType": "uint256",
          "name": "",
          "type": "uint256"
        }
      ],
      "stateMutability": "payable",
      "type": "function"
    },
    {
      "inputs": [
        {
          "internalType": "uint256",
          "name": "proposalId",
          "type": "uint256"
        },
        {
          "internalType": "uint8",
          "name": "support",
          "type": "uint8"
        },
        {
          "internalType": "string",
          "name": "reason",
          "type": "string"
        }
      ],
      "name": "castVoteWithReason",
      "outputs": [
        {
          "internalType": "uint256",
          "name": "",
          "type": "uint256"
        }
      ],
      "stateMutability": "nonpayable",
      "type": "function"
    },
    {
      "inputs": [
        {
          "internalType": "uint256",
          "name": "proposalId",
          "type": "uint256"
        },
        {
          "internalType": "uint8",
          "name": "support",
          "type": "uint8"
        },
        {
          "internalType": "string",
          "name": "reason",
          "type": "string"
        },
        {
          "internalType": "bytes",
          "name": "params",
          "type": "bytes"
        }
      ],
      "name": "castVoteWithReasonAndParams",
      "outputs": [
        {
          "internalType": "uint256",
          "name": "",
          "type": "uint256"
        }
      ],
      "stateMutability": "nonpayable",
      "type": "function"
    },
    {
      "inputs": [
        {
          "internalType": "uint256",
          "name": "proposalId",
          "type": "uint256"
        },
        {
          "internalType": "uint8",
          "name": "support",
          "type": "uint8"
        },
        {
          "internalType": "string",
          "name": "reason",
          "type": "string"
        },
        {
          "internalType": "bytes",
          "name": "params",
          "type": "bytes"
        },
        {
          "internalType": "uint8",
          "name": "v",
          "type": "uint8"
        },
        {
          "internalType": "bytes32",
          "name": "r",
          "type": "bytes32"
        },
        {
          "internalType": "bytes32",
          "name": "s",
          "type": "bytes32"
        }
      ],
      "name": "castVoteWithReasonAndParamsBySig",
      "outputs": [
        {
          "internalType": "uint256",
          "name": "",
          "type": "uint256"
        }
      ],
      "stateMutability": "nonpayable",
      "type": "function"
    },
    {
      "inputs": [
        {
          "internalType": "address[]",
          "name": "targets",
          "type": "address[]"
        },
        {
          "internalType": "uint256[]",
          "name": "values",
          "type": "uint256[]"
        },
        {
          "internalType": "bytes[]",
          "name": "calldatas",
          "type": "bytes[]"
        },
        {
          "internalType": "bytes32",
          "name": "descriptionHash",
          "type": "bytes32"
        }
      ],
      "name": "execute",
      "outputs": [
        {
          "internalType": "uint256",
          "name": "",
          "type": "uint256"
        }
      ],
      "stateMutability": "payable",
      "type": "function"
    },
    {
      "inputs": [],
      "name": "getBalance",
      "outputs": [
        {
          "internalType": "uint256",
          "name": "",
          "type": "uint256"
        }
      ],
      "stateMutability": "view",
      "type": "function"
    },
    {
      "inputs": [
        {
          "internalType": "address",
          "name": "account",
          "type": "address"
        },
        {
          "internalType": "uint256",
          "name": "blockNumber",
          "type": "uint256"
        }
      ],
      "name": "getVotes",
      "outputs": [
        {
          "internalType": "uint256",
          "name": "",
          "type": "uint256"
        }
      ],
      "stateMutability": "view",
      "type": "function"
    },
    {
      "inputs": [
        {
          "internalType": "address",
          "name": "account",
          "type": "address"
        },
        {
          "internalType": "uint256",
          "name": "blockNumber",
          "type": "uint256"
        },
        {
          "internalType": "bytes",
          "name": "params",
          "type": "bytes"
        }
      ],
      "name": "getVotesWithParams",
      "outputs": [
        {
          "internalType": "uint256",
          "name": "",
          "type": "uint256"
        }
      ],
      "stateMutability": "view",
      "type": "function"
    },
    {
      "inputs": [
        {
          "internalType": "uint256",
          "name": "proposalId",
          "type": "uint256"
        },
        {
          "internalType": "address",
          "name": "account",
          "type": "address"
        }
      ],
      "name": "hasVoted",
      "outputs": [
        {
          "internalType": "bool",
          "name": "",
          "type": "bool"
        }
      ],
      "stateMutability": "view",
      "type": "function"
    },
    {
      "inputs": [
        {
          "internalType": "address[]",
          "name": "targets",
          "type": "address[]"
        },
        {
          "internalType": "uint256[]",
          "name": "values",
          "type": "uint256[]"
        },
        {
          "internalType": "bytes[]",
          "name": "calldatas",
          "type": "bytes[]"
        },
        {
          "internalType": "bytes32",
          "name": "descriptionHash",
          "type": "bytes32"
        }
      ],
      "name": "hashProposal",
      "outputs": [
        {
          "internalType": "uint256",
          "name": "",
          "type": "uint256"
        }
      ],
      "stateMutability": "pure",
      "type": "function"
    },
    {
      "inputs": [],
      "name": "initialBudget",
      "outputs": [
        {
          "internalType": "uint256",
          "name": "",
          "type": "uint256"
        }
      ],
      "stateMutability": "view",
      "type": "function"
    },
    {
      "inputs": [],
      "name": "initialProposer",
      "outputs": [
        {
          "internalType": "address",
          "name": "",
          "type": "address"
        }
      ],
      "stateMutability": "view",
      "type": "function"
    },
    {
      "inputs": [],
      "name": "name",
      "outputs": [
        {
          "internalType": "string",
          "name": "",
          "type": "string"
        }
      ],
      "stateMutability": "view",
      "type": "function"
    },
    {
      "inputs": [
        {
          "internalType": "address",
          "name": "",
          "type": "address"
        },
        {
          "internalType": "address",
          "name": "",
          "type": "address"
        },
        {
          "internalType": "uint256[]",
          "name": "",
          "type": "uint256[]"
        },
        {
          "internalType": "uint256[]",
          "name": "",
          "type": "uint256[]"
        },
        {
          "internalType": "bytes",
          "name": "",
          "type": "bytes"
        }
      ],
      "name": "onERC1155BatchReceived",
      "outputs": [
        {
          "internalType": "bytes4",
          "name": "",
          "type": "bytes4"
        }
      ],
      "stateMutability": "nonpayable",
      "type": "function"
    },
    {
      "inputs": [
        {
          "internalType": "address",
          "name": "",
          "type": "address"
        },
        {
          "internalType": "address",
          "name": "",
          "type": "address"
        },
        {
          "internalType": "uint256",
          "name": "",
          "type": "uint256"
        },
        {
          "internalType": "uint256",
          "name": "",
          "type": "uint256"
        },
        {
          "internalType": "bytes",
          "name": "",
          "type": "bytes"
        }
      ],
      "name": "onERC1155Received",
      "outputs": [
        {
          "internalType": "bytes4",
          "name": "",
          "type": "bytes4"
        }
      ],
      "stateMutability": "nonpayable",
      "type": "function"
    },
    {
      "inputs": [
        {
          "internalType": "address",
          "name": "",
          "type": "address"
        },
        {
          "internalType": "address",
          "name": "",
          "type": "address"
        },
        {
          "internalType": "uint256",
          "name": "",
          "type": "uint256"
        },
        {
          "internalType": "bytes",
          "name": "",
          "type": "bytes"
        }
      ],
      "name": "onERC721Received",
      "outputs": [
        {
          "internalType": "bytes4",
          "name": "",
          "type": "bytes4"
        }
      ],
      "stateMutability": "nonpayable",
      "type": "function"
    },
    {
      "inputs": [],
      "name": "owner",
      "outputs": [
        {
          "internalType": "address",
          "name": "",
          "type": "address"
        }
      ],
      "stateMutability": "view",
      "type": "function"
    },
    {
      "inputs": [
        {
          "internalType": "uint256",
          "name": "proposalId",
          "type": "uint256"
        }
      ],
      "name": "proposalDeadline",
      "outputs": [
        {
          "internalType": "uint256",
          "name": "",
          "type": "uint256"
        }
      ],
      "stateMutability": "view",
      "type": "function"
    },
    {
      "inputs": [
        {
          "internalType": "uint256",
          "name": "proposalId",
          "type": "uint256"
        }
      ],
      "name": "proposalEta",
      "outputs": [
        {
          "internalType": "uint256",
          "name": "",
          "type": "uint256"
        }
      ],
      "stateMutability": "view",
      "type": "function"
    },
    {
      "inputs": [
        {
          "internalType": "uint256",
          "name": "proposalId",
          "type": "uint256"
        }
      ],
      "name": "proposalSnapshot",
      "outputs": [
        {
          "internalType": "uint256",
          "name": "",
          "type": "uint256"
        }
      ],
      "stateMutability": "view",
      "type": "function"
    },
    {
      "inputs": [],
      "name": "proposalThreshold",
      "outputs": [
        {
          "internalType": "uint256",
          "name": "",
          "type": "uint256"
        }
      ],
      "stateMutability": "view",
      "type": "function"
    },
    {
      "inputs": [
        {
          "internalType": "uint256",
          "name": "proposalId",
          "type": "uint256"
        }
      ],
      "name": "proposalVotes",
      "outputs": [
        {
          "internalType": "uint256",
          "name": "againstVotes",
          "type": "uint256"
        },
        {
          "internalType": "uint256",
          "name": "forVotes",
          "type": "uint256"
        },
        {
          "internalType": "uint256",
          "name": "abstainVotes",
          "type": "uint256"
        }
      ],
      "stateMutability": "view",
      "type": "function"
    },
    {
      "inputs": [
        {
          "internalType": "address[]",
          "name": "targets",
          "type": "address[]"
        },
        {
          "internalType": "uint256[]",
          "name": "values",
          "type": "uint256[]"
        },
        {
          "internalType": "bytes[]",
          "name": "calldatas",
          "type": "bytes[]"
        },
        {
          "internalType": "string",
          "name": "description",
          "type": "string"
        }
      ],
      "name": "propose",
      "outputs": [
        {
          "internalType": "uint256",
          "name": "",
          "type": "uint256"
        }
      ],
      "stateMutability": "nonpayable",
      "type": "function"
    },
    {
      "inputs": [
        {
          "internalType": "uint256",
          "name": "proposalId",
          "type": "uint256"
        }
      ],
      "name": "quadraticVoting",
      "outputs": [],
      "stateMutability": "payable",
      "type": "function"
    },
    {
      "inputs": [
        {
          "internalType": "address[]",
          "name": "targets",
          "type": "address[]"
        },
        {
          "internalType": "uint256[]",
          "name": "values",
          "type": "uint256[]"
        },
        {
          "internalType": "bytes[]",
          "name": "calldatas",
          "type": "bytes[]"
        },
        {
          "internalType": "bytes32",
          "name": "descriptionHash",
          "type": "bytes32"
        }
      ],
      "name": "queue",
      "outputs": [
        {
          "internalType": "uint256",
          "name": "",
          "type": "uint256"
        }
      ],
      "stateMutability": "nonpayable",
      "type": "function"
    },
    {
      "inputs": [
        {
          "internalType": "uint256",
          "name": "blockNumber",
          "type": "uint256"
        }
      ],
      "name": "quorum",
      "outputs": [
        {
          "internalType": "uint256",
          "name": "",
          "type": "uint256"
        }
      ],
      "stateMutability": "pure",
      "type": "function"
    },
    {
      "inputs": [
        {
          "internalType": "address",
          "name": "target",
          "type": "address"
        },
        {
          "internalType": "uint256",
          "name": "value",
          "type": "uint256"
        },
        {
          "internalType": "bytes",
          "name": "data",
          "type": "bytes"
        }
      ],
      "name": "relay",
      "outputs": [],
      "stateMutability": "nonpayable",
      "type": "function"
    },
    {
      "inputs": [
        {
          "internalType": "uint256",
          "name": "newProposalThreshold",
          "type": "uint256"
        }
      ],
      "name": "setProposalThreshold",
      "outputs": [],
      "stateMutability": "nonpayable",
      "type": "function"
    },
    {
      "inputs": [
        {
          "internalType": "uint256",
          "name": "newVotingDelay",
          "type": "uint256"
        }
      ],
      "name": "setVotingDelay",
      "outputs": [],
      "stateMutability": "nonpayable",
      "type": "function"
    },
    {
      "inputs": [
        {
          "internalType": "uint256",
          "name": "newVotingPeriod",
          "type": "uint256"
        }
      ],
      "name": "setVotingPeriod",
      "outputs": [],
      "stateMutability": "nonpayable",
      "type": "function"
    },
    {
      "inputs": [
        {
          "internalType": "uint256",
          "name": "proposalId",
          "type": "uint256"
        }
      ],
      "name": "state",
      "outputs": [
        {
          "internalType": "enum IGovernor.ProposalState",
          "name": "",
          "type": "uint8"
        }
      ],
      "stateMutability": "view",
      "type": "function"
    },
    {
      "inputs": [
        {
          "internalType": "bytes4",
          "name": "interfaceId",
          "type": "bytes4"
        }
      ],
      "name": "supportsInterface",
      "outputs": [
        {
          "internalType": "bool",
          "name": "",
          "type": "bool"
        }
      ],
      "stateMutability": "view",
      "type": "function"
    },
    {
      "inputs": [],
      "name": "timelock",
      "outputs": [
        {
          "internalType": "address",
          "name": "",
          "type": "address"
        }
      ],
      "stateMutability": "view",
      "type": "function"
    },
    {
      "inputs": [],
      "name": "token",
      "outputs": [
        {
          "internalType": "contract IVotes",
          "name": "",
          "type": "address"
        }
      ],
      "stateMutability": "view",
      "type": "function"
    },
    {
      "inputs": [],
      "name": "tokenAddress",
      "outputs": [
        {
          "internalType": "address",
          "name": "",
          "type": "address"
        }
      ],
      "stateMutability": "view",
      "type": "function"
    },
    {
      "inputs": [
        {
          "internalType": "contract ICompoundTimelock",
          "name": "newTimelock",
          "type": "address"
        }
      ],
      "name": "updateTimelock",
      "outputs": [],
      "stateMutability": "nonpayable",
      "type": "function"
    },
    {
      "inputs": [],
      "name": "version",
      "outputs": [
        {
          "internalType": "string",
          "name": "",
          "type": "string"
        }
      ],
      "stateMutability": "view",
      "type": "function"
    },
    {
      "inputs": [],
      "name": "votingDelay",
      "outputs": [
        {
          "internalType": "uint256",
          "name": "",
          "type": "uint256"
        }
      ],
      "stateMutability": "view",
      "type": "function"
    },
    {
      "inputs": [],
      "name": "votingPeriod",
      "outputs": [
        {
          "internalType": "uint256",
          "name": "",
          "type": "uint256"
        }
      ],
      "stateMutability": "view",
      "type": "function"
    },
    {
      "stateMutability": "payable",
      "type": "receive"
    }
  ],
  "bytecode": "0x6101606040523480156200001257600080fd5b50604051620042a9380380620042a98339810160408190526200003591620003f6565b83856001601460026040518060400160405280600a81526020016926bca3b7bb32b93737b960b11b8152508062000071620001a460201b60201c565b815160208084019190912082518383012060e08290526101008190524660a0818152604080517f8b73c3c69bb8fe3d512ecc4cf759cc79239f7b179b0ffacaa9a75d522b39400f81880181905281830187905260608201869052608082019490945230818401528151808203909301835260c00190528051940193909320919290916080523060601b60c05261012052505082516200011a925060009150602084019062000350565b5062000128905083620001bf565b620001338262000200565b6200013e81620002a6565b50505060601b6001600160601b031916610140526200015d81620002e7565b50600a80546001600160a01b039687166001600160a01b031991821617909155600b8054821633179055600c91909155600d80549290951691161790925550620004b49050565b6040805180820190915260018152603160f81b602082015290565b60045460408051918252602082018390527fc565b045403dc03c2eea82b81a0465edad9e2e7fc4d97e11421c209da93d7a93910160405180910390a1600455565b60008111620002655760405162461bcd60e51b815260206004820152602760248201527f476f7665726e6f7253657474696e67733a20766f74696e6720706572696f6420604482015266746f6f206c6f7760c81b606482015260840160405180910390fd5b60055460408051918252602082018390527f7e3f7f0708a84de9203036abaa450dccc85ad5ff52f78c170f3edb55cf5e8828910160405180910390a1600555565b60065460408051918252602082018390527fccb45da8d5717e6c4544694297c4ba5cf151d455c9bb0ed4fc7a38411bc05461910160405180910390a1600655565b600854604080516001600160a01b03928316815291831660208301527f08f74ea46ef7894f65eabfb5e6e695de773a000b47c529ab559178069b226401910160405180910390a1600880546001600160a01b0319166001600160a01b0392909216919091179055565b8280546200035e906200045e565b90600052602060002090601f016020900481019282620003825760008555620003cd565b82601f106200039d57805160ff1916838001178555620003cd565b82800160010185558215620003cd579182015b82811115620003cd578251825591602001919060010190620003b0565b50620003db929150620003df565b5090565b5b80821115620003db5760008155600101620003e0565b600080600080600060a086880312156200040f57600080fd5b85516200041c816200049b565b60208701519095506200042f816200049b565b60408701516060880151919550935062000449816200049b565b80925050608086015190509295509295909350565b600181811c908216806200047357607f821691505b602082108114156200049557634e487b7160e01b600052602260045260246000fd5b50919050565b6001600160a01b0381168114620004b157600080fd5b50565b60805160a05160c05160601c60e05161010051610120516101405160601c613d8d6200051c6000396000818161088301526119fe0152600061234e0152600061239d01526000612378015260006122d1015260006122fb015260006123250152613d8d6000f3fe6080604052600436106102115760003560e01c806301ffc9a71461023957806302a251a31461026e578063034201811461029157806306fdde03146102b157806312065fe0146102d3578063150b7a02146102e6578063160cbed71461032a578063227588b51461034a5780632656227d1461035d5780632d63f693146103705780632fe3e261146103905780633932abb1146103b25780633bccf4fd146103c75780633e4f49e6146103e75780634385963214610414578063544ffc9c1461045e57806354fd4d50146104b357806356781388146104dd5780635f398a14146104fd57806370b0f6601461051d5780637b3c71d31461053d5780637d5e81e21461055d5780638da5cb5b1461057d5780639a802a6d146105b55780639c61248a146105d55780639d76ea58146105e8578063a890c91014610608578063ab58fb8e14610628578063b04a393714610648578063b58131b01461065e578063b9a6196114610673578063bc197c8114610688578063bf1c4574146106b4578063c006b57f146106d4578063c01f9e37146106e7578063c28bc2fa14610707578063c59057e414610727578063d33219b414610747578063dd4e2ba51461075c578063deaaa7cc146107a2578063ea0217cf146107c4578063eb9019d4146107e4578063ece40cc114610804578063f23a6e6114610824578063f8ce560a14610850578063fc0c546a1461087157600080fd5b36610234573061021f6108a5565b6001600160a01b03161461023257600080fd5b005b600080fd5b34801561024557600080fd5b506102596102543660046133a8565b6108b4565b60405190151581526020015b60405180910390f35b34801561027a57600080fd5b506102836108c5565b604051908152602001610265565b34801561029d57600080fd5b506102836102ac36600461357b565b6108d0565b3480156102bd57600080fd5b506102c66109b6565b6040516102659190613849565b3480156102df57600080fd5b5047610283565b3480156102f257600080fd5b50610311610301366004613078565b630a85bd0160e11b949350505050565b6040516001600160e01b03199091168152602001610265565b34801561033657600080fd5b5061028361034536600461322a565b610a48565b61023261035836600461345c565b610df7565b61028361036b36600461322a565b610eb7565b34801561037c57600080fd5b5061028361038b36600461345c565b610fa4565b34801561039c57600080fd5b50610283600080516020613cf883398151915281565b3480156103be57600080fd5b50610283610fdb565b3480156103d357600080fd5b506102836103e2366004613621565b610fe6565b3480156103f357600080fd5b5061040761040236600461345c565b61104a565b6040516102659190613821565b34801561042057600080fd5b5061025961042f366004613475565b60008281526007602090815260408083206001600160a01b038516845260030190915290205460ff1692915050565b34801561046a57600080fd5b5061049861047936600461345c565b6000908152600760205260409020805460018201546002909201549092565b60408051938452602084019290925290820152606001610265565b3480156104bf57600080fd5b506040805180820190915260018152603160f81b60208201526102c6565b3480156104e957600080fd5b506102836104f83660046134a5565b611055565b34801561050957600080fd5b50610283610518366004613512565b6110bc565b34801561052957600080fd5b5061023261053836600461345c565b611106565b34801561054957600080fd5b506102836105583660046134d1565b611195565b34801561056957600080fd5b506102836105783660046132b9565b6111e7565b34801561058957600080fd5b50600b5461059d906001600160a01b031681565b6040516001600160a01b039091168152602001610265565b3480156105c157600080fd5b506102836105d03660046131d2565b61124c565b6102836105e33660046134a5565b611263565b3480156105f457600080fd5b50600a5461059d906001600160a01b031681565b34801561061457600080fd5b5061023261062336600461343f565b6112c2565b34801561063457600080fd5b5061028361064336600461345c565b61134e565b34801561065457600080fd5b50610283600c5481565b34801561066a57600080fd5b5061028361137a565b34801561067f57600080fd5b50610232611385565b34801561069457600080fd5b506103116106a3366004612fcb565b63bc197c8160e01b95945050505050565b3480156106c057600080fd5b50600d5461059d906001600160a01b031681565b6102836106e23660046134a5565b6113ef565b3480156106f357600080fd5b5061028361070236600461345c565b61153c565b34801561071357600080fd5b50610232610722366004613177565b61156b565b34801561073357600080fd5b5061028361074236600461322a565b611637565b34801561075357600080fd5b5061059d611671565b34801561076857600080fd5b506040805180820190915260208082527f737570706f72743d627261766f2671756f72756d3d666f722c6162737461696e908201526102c6565b3480156107ae57600080fd5b50610283600080516020613cd883398151915281565b3480156107d057600080fd5b506102326107df36600461345c565b611680565b3480156107f057600080fd5b506102836107ff36600461314b565b61170c565b34801561081057600080fd5b5061023261081f36600461345c565b61172d565b34801561083057600080fd5b5061031161083f3660046130e3565b63f23a6e6160e01b95945050505050565b34801561085c57600080fd5b5061028361086b36600461345c565b50600390565b34801561087d57600080fd5b5061059d7f000000000000000000000000000000000000000000000000000000000000000081565b60006108af611671565b905090565b60006108bf826117b9565b92915050565b60006108af60055490565b60008061096261095a600080516020613cf88339815191528c8c8c8c6040516108fa929190613764565b60405180910390208b8051906020012060405160200161093f959493929190948552602085019390935260ff9190911660408401526060830152608082015260a00190565b604051602081830303815290604052805190602001206117de565b86868661182c565b90506109a88a828b8b8b8080601f0160208091040260200160405190810160405280939291908181526020018383808284376000920191909152508d925061184a915050565b9a9950505050505050505050565b6060600080546109c590613c14565b80601f01602080910402602001604051908101604052809291908181526020018280546109f190613c14565b8015610a3e5780601f10610a1357610100808354040283529160200191610a3e565b820191906000526020600020905b815481529060010190602001808311610a2157829003601f168201915b5050505050905090565b600080610a5786868686611637565b90506004610a648261104a565b6007811115610a7557610a75613c80565b14610a9b5760405162461bcd60e51b8152600401610a9290613955565b60405180910390fd5b60085460408051630d48571f60e31b815290516000926001600160a01b031691636a42b8f8916004808301926020929190829003018186803b158015610ae057600080fd5b505afa158015610af4573d6000803e3d6000fd5b505050506040513d601f19601f82011682018060405250810190610b18919061338f565b610b229042613b6f565b9050610b44610b308261194c565b6000848152600960205260409020906119b8565b60005b8751811015610db35760085488516001600160a01b039091169063f2b06537908a9084908110610b7957610b79613c96565b6020026020010151898481518110610b9357610b93613c96565b6020026020010151898581518110610bad57610bad613c96565b602002602001015186604051602001610bc99493929190613790565b604051602081830303815290604052805190602001206040518263ffffffff1660e01b8152600401610bfd91815260200190565b60206040518083038186803b158015610c1557600080fd5b505afa158015610c29573d6000803e3d6000fd5b505050506040513d601f19601f82011682018060405250810190610c4d919061336d565b15610ccb5760405162461bcd60e51b815260206004820152604260248201527f476f7665726e6f7254696d656c6f636b436f6d706f756e643a206964656e746960448201527f63616c2070726f706f73616c20616374696f6e20616c72656164792071756575606482015261195960f21b608482015260a401610a92565b60085488516001600160a01b0390911690633a66f901908a9084908110610cf457610cf4613c96565b6020026020010151898481518110610d0e57610d0e613c96565b6020026020010151898581518110610d2857610d28613c96565b6020026020010151866040518563ffffffff1660e01b8152600401610d509493929190613790565b602060405180830381600087803b158015610d6a57600080fd5b505af1158015610d7e573d6000803e3d6000fd5b505050506040513d601f19601f82011682018060405250810190610da2919061338f565b50610dac81613c4f565b9050610b47565b507f9a2e42fd6722813d69113e7d0079d3d940171428df7373df9c7f7617cfda28928282604051610de5929190613a85565b60405180910390a15095945050505050565b6000610e1b33610e0684610fa4565b604051806020016040528060008152506119d5565b90506000610e298280613bb2565b90506103e8811115610e3a57506103e85b80341015610eb2576040805162461bcd60e51b81526020600482015260248101919091527f51756164726174696320766f74696e673a20596f75206e656564206d6f72652060448201527f657468657220746f20636f76657220796f757220766f7465207765696768742e6064820152608401610a92565b505050565b600080610ec686868686611637565b90506000610ed38261104a565b90506004816007811115610ee957610ee9613c80565b1480610f0657506005816007811115610f0457610f04613c80565b145b610f225760405162461bcd60e51b8152600401610a9290613955565b600082815260016020818152604092839020600201805460ff191690921790915590518381527f712ae1383f79ac853f8d882153778e0260ef8f03b504e2866e0593e04d2b291f910160405180910390a1610f808288888888611a7a565b610f8d8288888888611b1c565b610f9a8288888888611b29565b5095945050505050565b60008181526001602090815260408083208151928301909152546001600160401b0316908190525b6001600160401b031692915050565b60006108af60045490565b60408051600080516020613cd8833981519152602082015290810186905260ff8516606082015260009081906110229061095a9060800161093f565b905061103f87828860405180602001604052806000815250611b58565b979650505050505050565b60006108bf82611b84565b60006001611066336107ff86610fa4565b10156110845760405162461bcd60e51b8152600401610a92906138cf565b60003390506110b4848285604051806020016040528060008152506040518060200160405280600081525061184a565b949350505050565b60008033905061103f87828888888080601f0160208091040260200160405190810160405280939291908181526020018383808284376000920191909152508a925061184a915050565b61110e6108a5565b6001600160a01b0316336001600160a01b03161461113e5760405162461bcd60e51b8152600401610a929061385c565b306111476108a5565b6001600160a01b0316146111895760008036604051611167929190613764565b604051809103902090505b8061117d6002611c74565b1461118757611172565b505b61119281611ce3565b50565b6000803390506111dd86828787878080601f016020809104026020016040519081016040528093929190818152602001838380828437600092019190915250611b5892505050565b9695505050505050565b6000806111fd8686868680519060200120611637565b6000818152600e6020526040812080546001600160a01b0319163317815587519293509187919061123057611230613c96565b6020026020010151816001018190555061103f87878787611d23565b60006112598484846119d5565b90505b9392505050565b60006001611274336107ff86610fa4565b10156112925760405162461bcd60e51b8152600401610a92906138cf565b60003390506110b48482856040518060200160405280600081525060405180602001604052806000815250611fc0565b6112ca6108a5565b6001600160a01b0316336001600160a01b0316146112fa5760405162461bcd60e51b8152600401610a929061385c565b306113036108a5565b6001600160a01b0316146113455760008036604051611323929190613764565b604051809103902090505b806113396002611c74565b146113435761132e565b505b6111928161208b565b60008181526009602090815260408083208151928301909152546001600160401b031690819052610fcc565b60006108af60065490565b600860009054906101000a90046001600160a01b03166001600160a01b0316630e18b6816040518163ffffffff1660e01b8152600401600060405180830381600087803b1580156113d557600080fd5b505af11580156113e9573d6000803e3d6000fd5b50505050565b60006001611400336107ff86610fa4565b101561141e5760405162461bcd60e51b8152600401610a92906138cf565b600061142d33610e0686610fa4565b9050600061143b8280613bb2565b90506000662386f26fc1000060018414156114595760009150611466565b6114638184613bb2565b91505b813410156115005760405162461bcd60e51b815260206004820152605b60248201527f596f75206e65656420746f20737570706c79206d6f726520657468657220746f60448201527f20766f7465207769746820616c6c20796f757220746f6b656e732e20436f737460648201527a1034b99014372b37ba32b994af19101510181718189032ba3432b960291b608482015260a401610a92565b600033905061153088828960405180602001604052806000815250604051806020016040528060008152506120f4565b98975050505050505050565b60008181526001602081815260408084208151928301909152909101546001600160401b031690819052610fcc565b6115736108a5565b6001600160a01b0316336001600160a01b0316146115a35760405162461bcd60e51b8152600401610a929061385c565b306115ac6108a5565b6001600160a01b0316146115ee57600080366040516115cc929190613764565b604051809103902090505b806115e26002611c74565b146115ec576115d7565b505b6116308483838080601f016020809104026020016040519081016040528093929190818152602001838380828437600092019190915250889250612153915050565b5050505050565b60008484848460405160200161165094939291906137d6565b60408051601f19818403018152919052805160209091012095945050505050565b6008546001600160a01b031690565b6116886108a5565b6001600160a01b0316336001600160a01b0316146116b85760405162461bcd60e51b8152600401610a929061385c565b306116c16108a5565b6001600160a01b03161461170357600080366040516116e1929190613764565b604051809103902090505b806116f76002611c74565b14611701576116ec565b505b61119281612179565b600061125c838361172860408051602081019091526000815290565b6119d5565b6117356108a5565b6001600160a01b0316336001600160a01b0316146117655760405162461bcd60e51b8152600401610a929061385c565b3061176e6108a5565b6001600160a01b0316146117b0576000803660405161178e929190613764565b604051809103902090505b806117a46002611c74565b146117ae57611799565b505b61119281612219565b60006001600160e01b03198216636e665ced60e01b14806108bf57506108bf82612259565b60006108bf6117eb6122c4565b8360405161190160f01b6020820152602281018390526042810182905260009060620160405160208183030381529060405280519060200120905092915050565b600080600061183d878787876123eb565b91509150610f9a816124ce565b60008581526001602081905260408220906118648861104a565b600781111561187557611875613c80565b146118925760405162461bcd60e51b8152600401610a9290613912565b604080516020810190915281546001600160401b0316908190526000906118bb908890866119d5565b90506118ca8888888488612684565b835161190a57866001600160a01b0316600080516020613d61833981519152898884896040516118fd9493929190613a93565b60405180910390a261103f565b866001600160a01b0316600080516020613d418339815191528988848989604051611939959493929190613abb565b60405180910390a2979650505050505050565b60006001600160401b038211156119b45760405162461bcd60e51b815260206004820152602660248201527f53616665436173743a2076616c756520646f65736e27742066697420696e203660448201526534206269747360d01b6064820152608401610a92565b5090565b81546001600160401b0319166001600160401b0391909116179055565b604051630748d63560e31b81526001600160a01b038481166004830152602482018490526000917f000000000000000000000000000000000000000000000000000000000000000090911690633a46b1a89060440160206040518083038186803b158015611a4257600080fd5b505afa158015611a56573d6000803e3d6000fd5b505050506040513d601f19601f82011682018060405250810190611259919061338f565b30611a836108a5565b6001600160a01b0316146116305760005b8451811015611b1457306001600160a01b0316858281518110611ab957611ab9613c96565b60200260200101516001600160a01b03161415611b0457611b04838281518110611ae557611ae5613c96565b602002602001015180519060200120600261280390919063ffffffff16565b611b0d81613c4f565b9050611a94565b505050505050565b6116308585858585612849565b30611b326108a5565b6001600160a01b03161461163057611b4a60026129d7565b611630576000600255611630565b6000611b7b85858585611b7660408051602081019091526000815290565b61184a565b95945050505050565b600080611b90836129f0565b90506004816007811115611ba657611ba6613c80565b14611bb15792915050565b6000611bbc8461134e565b905080611bca575092915050565b600860009054906101000a90046001600160a01b03166001600160a01b031663c1a287e26040518163ffffffff1660e01b815260040160206040518083038186803b158015611c1857600080fd5b505afa158015611c2c573d6000803e3d6000fd5b505050506040513d601f19601f82011682018060405250810190611c50919061338f565b611c5a9082613b6f565b4210611c6a575060069392505050565b5060059392505050565b6000611c7f826129d7565b15611c9d57604051631ed9509560e11b815260040160405180910390fd5b508054600f90810b80820b820b600090815260018085016020526040822080549290558454920190920b6001600160801b03166001600160801b03199091161790915590565b7fc565b045403dc03c2eea82b81a0465edad9e2e7fc4d97e11421c209da93d7a9360045482604051611d16929190613a85565b60405180910390a1600455565b6000611d2d61137a565b611d3c336107ff600143613bd1565b1015611da45760405162461bcd60e51b815260206004820152603160248201527f476f7665726e6f723a2070726f706f73657220766f7465732062656c6f7720706044820152701c9bdc1bdcd85b081d1a1c995cda1bdb19607a1b6064820152608401610a92565b6000611db98686868680519060200120611637565b90508451865114611ddc5760405162461bcd60e51b8152600401610a929061388e565b8351865114611dfd5760405162461bcd60e51b8152600401610a929061388e565b6000865111611e495760405162461bcd60e51b815260206004820152601860248201527711dbdd995c9b9bdc8e88195b5c1d1e481c1c9bdc1bdcd85b60421b6044820152606401610a92565b600081815260016020908152604091829020825191820190925281546001600160401b03169081905215611ec95760405162461bcd60e51b815260206004820152602160248201527f476f7665726e6f723a2070726f706f73616c20616c72656164792065786973746044820152607360f81b6064820152608401610a92565b6000611edb611ed6610fdb565b61194c565b611ee44361194c565b611eee9190613b87565b90506000611efd611ed66108c5565b611f079083613b87565b9050611f1383836119b8565b611f2060018401826119b8565b7f7d84a6263ae0d98d3329bd7b46bb4e8d6f98cd35a7adb45c274c8b7fd5ebd5e084338b8b8d516001600160401b03811115611f5e57611f5e613cac565b604051908082528060200260200182016040528015611f9157816020015b6060815260200190600190039081611f7c5790505b508c88888e604051611fab99989796959493929190613996565b60405180910390a15091979650505050505050565b60006001611fcd8761104a565b6007811115611fde57611fde613c80565b14611ffb5760405162461bcd60e51b8152600401610a9290613912565b600161200a8787878487612684565b825161204a57856001600160a01b0316600080516020613d618339815191528887848860405161203d9493929190613a93565b60405180910390a26111dd565b856001600160a01b0316600080516020613d418339815191528887848888604051612079959493929190613abb565b60405180910390a29695505050505050565b600854604080516001600160a01b03928316815291831660208301527f08f74ea46ef7894f65eabfb5e6e695de773a000b47c529ab559178069b226401910160405180910390a1600880546001600160a01b0319166001600160a01b0392909216919091179055565b600060016121018761104a565b600781111561211257612112613c80565b1461212f5760405162461bcd60e51b8152600401610a9290613912565b60006121448661213e89610fa4565b856119d5565b905061200a8787878487612684565b6060611259848484604051806060016040528060298152602001613d1860299139612afc565b600081116121d95760405162461bcd60e51b815260206004820152602760248201527f476f7665726e6f7253657474696e67733a20766f74696e6720706572696f6420604482015266746f6f206c6f7760c81b6064820152608401610a92565b7f7e3f7f0708a84de9203036abaa450dccc85ad5ff52f78c170f3edb55cf5e88286005548260405161220c929190613a85565b60405180910390a1600555565b7fccb45da8d5717e6c4544694297c4ba5cf151d455c9bb0ed4fc7a38411bc054616006548260405161224c929190613a85565b60405180910390a1600655565b60006001600160e01b0319821663bf26d89760e01b148061228a57506001600160e01b031982166379dd796f60e01b145b806122a557506001600160e01b03198216630271189760e51b145b806108bf57506301ffc9a760e01b6001600160e01b03198316146108bf565b6000306001600160a01b037f00000000000000000000000000000000000000000000000000000000000000001614801561231d57507f000000000000000000000000000000000000000000000000000000000000000046145b1561234757507f000000000000000000000000000000000000000000000000000000000000000090565b50604080517f00000000000000000000000000000000000000000000000000000000000000006020808301919091527f0000000000000000000000000000000000000000000000000000000000000000828401527f000000000000000000000000000000000000000000000000000000000000000060608301524660808301523060a0808401919091528351808403909101815260c0909201909252805191012090565b6000806fa2a8918ca85bafe22016d0b997e4df60600160ff1b0383111561241857506000905060036124c5565b8460ff16601b1415801561243057508460ff16601c14155b1561244157506000905060046124c5565b6040805160008082526020820180845289905260ff881692820192909252606081018690526080810185905260019060a0016020604051602081039080840390855afa158015612495573d6000803e3d6000fd5b5050604051601f1901519150506001600160a01b0381166124be576000600192509250506124c5565b9150600090505b94509492505050565b60008160048111156124e2576124e2613c80565b14156124eb5750565b60018160048111156124ff576124ff613c80565b14156125485760405162461bcd60e51b815260206004820152601860248201527745434453413a20696e76616c6964207369676e617475726560401b6044820152606401610a92565b600281600481111561255c5761255c613c80565b14156125aa5760405162461bcd60e51b815260206004820152601f60248201527f45434453413a20696e76616c6964207369676e6174757265206c656e677468006044820152606401610a92565b60038160048111156125be576125be613c80565b14156126175760405162461bcd60e51b815260206004820152602260248201527f45434453413a20696e76616c6964207369676e6174757265202773272076616c604482015261756560f01b6064820152608401610a92565b600481600481111561262b5761262b613c80565b14156111925760405162461bcd60e51b815260206004820152602260248201527f45434453413a20696e76616c6964207369676e6174757265202776272076616c604482015261756560f01b6064820152608401610a92565b60008581526007602090815260408083206001600160a01b0388168452600381019092529091205460ff161561270c5760405162461bcd60e51b815260206004820152602760248201527f476f7665726e6f72566f74696e6753696d706c653a20766f746520616c726561604482015266191e4818d85cdd60ca1b6064820152608401610a92565b6001600160a01b03851660009081526003820160205260408120805460ff1916600117905560ff168460ff16141561275d57828160000160008282546127529190613b6f565b90915550611b149050565b60ff84166001141561277d57828160010160008282546127529190613b6f565b60ff84166002141561279d57828160020160008282546127529190613b6f565b60405162461bcd60e51b815260206004820152603560248201527f476f7665726e6f72566f74696e6753696d706c653a20696e76616c69642076616044820152746c756520666f7220656e756d20566f74655479706560581b6064820152608401610a92565b8154600160801b90819004600f90810b80820b820b6000908152600180870160205260409091209490945584549301900b6001600160801b039081169091029116179055565b60006128548661134e565b9050600081116128c05760405162461bcd60e51b815260206004820152603160248201527f476f7665726e6f7254696d656c6f636b436f6d706f756e643a2070726f706f73604482015270185b081b9bdd081e595d081c5d595d5959607a1b6064820152608401610a92565b6008546128d6906001600160a01b031634612c22565b60005b85518110156129ce5760085486516001600160a01b0390911690630825f38f9088908490811061290b5761290b613c96565b602002602001015187848151811061292557612925613c96565b602002602001015187858151811061293f5761293f613c96565b6020026020010151866040518563ffffffff1660e01b81526004016129679493929190613790565b600060405180830381600087803b15801561298157600080fd5b505af1158015612995573d6000803e3d6000fd5b505050506040513d6000823e601f3d908101601f191682016040526129bd91908101906133d2565b506129c781613c4f565b90506128d9565b50505050505050565b54600f81810b810b600160801b909204810b900b131590565b6000818152600160205260408120600281015460ff1615612a145750600792915050565b6002810154610100900460ff1615612a2f5750600292915050565b6000612a3a84610fa4565b905080612a895760405162461bcd60e51b815260206004820152601d60248201527f476f7665726e6f723a20756e6b6e6f776e2070726f706f73616c2069640000006044820152606401610a92565b438110612a9a575060009392505050565b6000612aa58561153c565b9050438110612ab957506001949350505050565b612ac285612d38565b8015612ae1575060008581526007602052604090208054600190910154115b15612af157506004949350505050565b506003949350505050565b606082471015612b5d5760405162461bcd60e51b815260206004820152602660248201527f416464726573733a20696e73756666696369656e742062616c616e636520666f6044820152651c8818d85b1b60d21b6064820152608401610a92565b6001600160a01b0385163b612bb45760405162461bcd60e51b815260206004820152601d60248201527f416464726573733a2063616c6c20746f206e6f6e2d636f6e74726163740000006044820152606401610a92565b600080866001600160a01b03168587604051612bd09190613774565b60006040518083038185875af1925050503d8060008114612c0d576040519150601f19603f3d011682016040523d82523d6000602084013e612c12565b606091505b509150915061103f828286612d6f565b80471015612c725760405162461bcd60e51b815260206004820152601d60248201527f416464726573733a20696e73756666696369656e742062616c616e63650000006044820152606401610a92565b6000826001600160a01b03168260405160006040518083038185875af1925050503d8060008114612cbf576040519150601f19603f3d011682016040523d82523d6000602084013e612cc4565b606091505b5050905080610eb25760405162461bcd60e51b815260206004820152603a60248201527f416464726573733a20756e61626c6520746f2073656e642076616c75652c20726044820152791958da5c1a595b9d081b585e481a185d99481c995d995c9d195960321b6064820152608401610a92565b600081815260076020526040812060028101546001820154612d5a9190613b6f565b612d6661086b85610fa4565b11159392505050565b60608315612d7e57508161125c565b825115612d8e5782518084602001fd5b8160405162461bcd60e51b8152600401610a929190613849565b6000612dbb612db684613b48565b613af5565b9050828152838383011115612dcf57600080fd5b828260208301376000602084830101529392505050565b600082601f830112612df757600080fd5b81356020612e07612db683613b25565b80838252828201915082860187848660051b8901011115612e2757600080fd5b60005b85811015612e4f578135612e3d81613cc2565b84529284019290840190600101612e2a565b5090979650505050505050565b600082601f830112612e6d57600080fd5b81356020612e7d612db683613b25565b80838252828201915082860187848660051b8901011115612e9d57600080fd5b6000805b86811015612edf5782356001600160401b03811115612ebe578283fd5b612ecc8b88838d0101612f95565b8652509385019391850191600101612ea1565b509198975050505050505050565b600082601f830112612efe57600080fd5b81356020612f0e612db683613b25565b80838252828201915082860187848660051b8901011115612f2e57600080fd5b60005b85811015612e4f57813584529284019290840190600101612f31565b60008083601f840112612f5f57600080fd5b5081356001600160401b03811115612f7657600080fd5b602083019150836020828501011115612f8e57600080fd5b9250929050565b600082601f830112612fa657600080fd5b61125c83833560208501612da8565b803560ff81168114612fc657600080fd5b919050565b600080600080600060a08688031215612fe357600080fd5b8535612fee81613cc2565b94506020860135612ffe81613cc2565b935060408601356001600160401b038082111561301a57600080fd5b61302689838a01612eed565b9450606088013591508082111561303c57600080fd5b61304889838a01612eed565b9350608088013591508082111561305e57600080fd5b5061306b88828901612f95565b9150509295509295909350565b6000806000806080858703121561308e57600080fd5b843561309981613cc2565b935060208501356130a981613cc2565b92506040850135915060608501356001600160401b038111156130cb57600080fd5b6130d787828801612f95565b91505092959194509250565b600080600080600060a086880312156130fb57600080fd5b853561310681613cc2565b9450602086013561311681613cc2565b9350604086013592506060860135915060808601356001600160401b0381111561313f57600080fd5b61306b88828901612f95565b6000806040838503121561315e57600080fd5b823561316981613cc2565b946020939093013593505050565b6000806000806060858703121561318d57600080fd5b843561319881613cc2565b93506020850135925060408501356001600160401b038111156131ba57600080fd5b6131c687828801612f4d565b95989497509550505050565b6000806000606084860312156131e757600080fd5b83356131f281613cc2565b92506020840135915060408401356001600160401b0381111561321457600080fd5b61322086828701612f95565b9150509250925092565b6000806000806080858703121561324057600080fd5b84356001600160401b038082111561325757600080fd5b61326388838901612de6565b9550602087013591508082111561327957600080fd5b61328588838901612eed565b9450604087013591508082111561329b57600080fd5b506132a887828801612e5c565b949793965093946060013593505050565b600080600080608085870312156132cf57600080fd5b84356001600160401b03808211156132e657600080fd5b6132f288838901612de6565b9550602087013591508082111561330857600080fd5b61331488838901612eed565b9450604087013591508082111561332a57600080fd5b61333688838901612e5c565b9350606087013591508082111561334c57600080fd5b508501601f8101871361335e57600080fd5b6130d787823560208401612da8565b60006020828403121561337f57600080fd5b8151801515811461125c57600080fd5b6000602082840312156133a157600080fd5b5051919050565b6000602082840312156133ba57600080fd5b81356001600160e01b03198116811461125c57600080fd5b6000602082840312156133e457600080fd5b81516001600160401b038111156133fa57600080fd5b8201601f8101841361340b57600080fd5b8051613419612db682613b48565b81815285602083850101111561342e57600080fd5b611b7b826020830160208601613be8565b60006020828403121561345157600080fd5b813561125c81613cc2565b60006020828403121561346e57600080fd5b5035919050565b6000806040838503121561348857600080fd5b82359150602083013561349a81613cc2565b809150509250929050565b600080604083850312156134b857600080fd5b823591506134c860208401612fb5565b90509250929050565b600080600080606085870312156134e757600080fd5b843593506134f760208601612fb5565b925060408501356001600160401b038111156131ba57600080fd5b60008060008060006080868803121561352a57600080fd5b8535945061353a60208701612fb5565b935060408601356001600160401b038082111561355657600080fd5b61356289838a01612f4d565b9095509350606088013591508082111561305e57600080fd5b60008060008060008060008060e0898b03121561359757600080fd5b883597506135a760208a01612fb5565b965060408901356001600160401b03808211156135c357600080fd5b6135cf8c838d01612f4d565b909850965060608b01359150808211156135e857600080fd5b506135f58b828c01612f95565b94505061360460808a01612fb5565b925060a0890135915060c089013590509295985092959890939650565b600080600080600060a0868803121561363957600080fd5b8535945061364960208701612fb5565b935061365760408701612fb5565b94979396509394606081013594506080013592915050565b600081518084526020808501945080840160005b838110156136a85781516001600160a01b031687529582019590820190600101613683565b509495945050505050565b600081518084526020808501808196508360051b8101915082860160005b858110156136fb5782840389526136e9848351613738565b988501989350908401906001016136d1565b5091979650505050505050565b600081518084526020808501945080840160005b838110156136a85781518752958201959082019060010161371c565b60008151808452613750816020860160208601613be8565b601f01601f19169290920160200192915050565b8183823760009101908152919050565b60008251613786818460208701613be8565b9190910192915050565b60018060a01b038516815283602082015260a06040820152600060a082015260c0606082015260006137c560c0830185613738565b905082608083015295945050505050565b6080815260006137e9608083018761366f565b82810360208401526137fb8187613708565b9050828103604084015261380f81866136b3565b91505082606083015295945050505050565b602081016008831061384357634e487b7160e01b600052602160045260246000fd5b91905290565b60208152600061125c6020830184613738565b602080825260189082015277476f7665726e6f723a206f6e6c79476f7665726e616e636560401b604082015260600190565b60208082526021908201527f476f7665726e6f723a20696e76616c69642070726f706f73616c206c656e67746040820152600d60fb1b606082015260800190565b60208082526023908201527f596f75206d757374206265206120746f6b656e20686f6c64657220746f20766f6040820152623a329760e91b606082015260800190565b60208082526023908201527f476f7665726e6f723a20766f7465206e6f742063757272656e746c792061637460408201526269766560e81b606082015260800190565b60208082526021908201527f476f7665726e6f723a2070726f706f73616c206e6f74207375636365737366756040820152601b60fa1b606082015260800190565b60006101208b8352602060018060a01b038c16818501528160408501526139bf8285018c61366f565b915083820360608501526139d3828b613708565b915083820360808501528189518084528284019150828160051b850101838c0160005b83811015613a2457601f19878403018552613a12838351613738565b948601949250908501906001016139f6565b505086810360a0880152613a38818c6136b3565b945050505050613a5360c08401876001600160401b03169052565b6001600160401b03851660e0840152828103610100840152613a758185613738565b9c9b505050505050505050505050565b918252602082015260400190565b84815260ff841660208201528260408201526080606082015260006111dd6080830184613738565b85815260ff8516602082015283604082015260a060608201526000613ae360a0830185613738565b82810360808401526115308185613738565b604051601f8201601f191681016001600160401b0381118282101715613b1d57613b1d613cac565b604052919050565b60006001600160401b03821115613b3e57613b3e613cac565b5060051b60200190565b60006001600160401b03821115613b6157613b61613cac565b50601f01601f191660200190565b60008219821115613b8257613b82613c6a565b500190565b60006001600160401b03828116848216808303821115613ba957613ba9613c6a565b01949350505050565b6000816000190483118215151615613bcc57613bcc613c6a565b500290565b600082821015613be357613be3613c6a565b500390565b60005b83811015613c03578181015183820152602001613beb565b838111156113e95750506000910152565b600181811c90821680613c2857607f821691505b60208210811415613c4957634e487b7160e01b600052602260045260246000fd5b50919050565b6000600019821415613c6357613c63613c6a565b5060010190565b634e487b7160e01b600052601160045260246000fd5b634e487b7160e01b600052602160045260246000fd5b634e487b7160e01b600052603260045260246000fd5b634e487b7160e01b600052604160045260246000fd5b6001600160a01b038116811461119257600080fdfe150214d74d59b7d1e90c73fc22ef3d991dd0a76b046543d4d80ab92d2a50328fb3b3f3b703cd84ce352197dcff232b1b5d3cfb2025ce47cf04742d0651f1af88416464726573733a206c6f772d6c6576656c2063616c6c20776974682076616c7565206661696c6564e2babfbac5889a709b63bb7f598b324e08bc5a4fb9ec647fb3cbc9ec07eb8712b8e138887d0aa13bab447e82de9d5c1777041ecd21ca36ba824ff1e6c07ddda4a164736f6c6343000806000a",
  "linkReferences": {},
  "deployedLinkReferences": {}
}