{
  "_format": "hh-sol-artifact-1",
  "contractName": "ProjectGovernor",
  "sourceName": "contracts/ProjectGovernor.sol",
  "abi": [
    {
      "inputs": [
        {
          "internalType": "contract IVotes",
          "name": "_token",
          "type": "address"
        },
        {
          "internalType": "contract ICompoundTimelock",
          "name": "_timelock",
          "type": "address"
        },
        {
          "internalType": "uint256",
          "name": "proposalId",
          "type": "uint256"
        },
        {
          "internalType": "address",
          "name": "proposer",
          "type": "address"
        },
        {
          "internalType": "uint256",
          "name": "budget",
          "type": "uint256"
        }
      ],
      "stateMutability": "nonpayable",
      "type": "constructor"
    },
    {
      "inputs": [],
      "name": "Empty",
      "type": "error"
    },
    {
      "anonymous": false,
      "inputs": [
        {
          "indexed": false,
          "internalType": "uint256",
          "name": "proposalId",
          "type": "uint256"
        }
      ],
      "name": "ProposalCanceled",
      "type": "event"
    },
    {
      "anonymous": false,
      "inputs": [
        {
          "indexed": false,
          "internalType": "uint256",
          "name": "proposalId",
          "type": "uint256"
        },
        {
          "indexed": false,
          "internalType": "address",
          "name": "proposer",
          "type": "address"
        },
        {
          "indexed": false,
          "internalType": "address[]",
          "name": "targets",
          "type": "address[]"
        },
        {
          "indexed": false,
          "internalType": "uint256[]",
          "name": "values",
          "type": "uint256[]"
        },
        {
          "indexed": false,
          "internalType": "string[]",
          "name": "signatures",
          "type": "string[]"
        },
        {
          "indexed": false,
          "internalType": "bytes[]",
          "name": "calldatas",
          "type": "bytes[]"
        },
        {
          "indexed": false,
          "internalType": "uint256",
          "name": "startBlock",
          "type": "uint256"
        },
        {
          "indexed": false,
          "internalType": "uint256",
          "name": "endBlock",
          "type": "uint256"
        },
        {
          "indexed": false,
          "internalType": "string",
          "name": "description",
          "type": "string"
        }
      ],
      "name": "ProposalCreated",
      "type": "event"
    },
    {
      "anonymous": false,
      "inputs": [
        {
          "indexed": false,
          "internalType": "uint256",
          "name": "proposalId",
          "type": "uint256"
        }
      ],
      "name": "ProposalExecuted",
      "type": "event"
    },
    {
      "anonymous": false,
      "inputs": [
        {
          "indexed": false,
          "internalType": "uint256",
          "name": "proposalId",
          "type": "uint256"
        },
        {
          "indexed": false,
          "internalType": "uint256",
          "name": "eta",
          "type": "uint256"
        }
      ],
      "name": "ProposalQueued",
      "type": "event"
    },
    {
      "anonymous": false,
      "inputs": [
        {
          "indexed": false,
          "internalType": "uint256",
          "name": "oldProposalThreshold",
          "type": "uint256"
        },
        {
          "indexed": false,
          "internalType": "uint256",
          "name": "newProposalThreshold",
          "type": "uint256"
        }
      ],
      "name": "ProposalThresholdSet",
      "type": "event"
    },
    {
      "anonymous": false,
      "inputs": [
        {
          "indexed": false,
          "internalType": "address",
          "name": "oldTimelock",
          "type": "address"
        },
        {
          "indexed": false,
          "internalType": "address",
          "name": "newTimelock",
          "type": "address"
        }
      ],
      "name": "TimelockChange",
      "type": "event"
    },
    {
      "anonymous": false,
      "inputs": [
        {
          "indexed": true,
          "internalType": "address",
          "name": "voter",
          "type": "address"
        },
        {
          "indexed": false,
          "internalType": "uint256",
          "name": "proposalId",
          "type": "uint256"
        },
        {
          "indexed": false,
          "internalType": "uint8",
          "name": "support",
          "type": "uint8"
        },
        {
          "indexed": false,
          "internalType": "uint256",
          "name": "weight",
          "type": "uint256"
        },
        {
          "indexed": false,
          "internalType": "string",
          "name": "reason",
          "type": "string"
        }
      ],
      "name": "VoteCast",
      "type": "event"
    },
    {
      "anonymous": false,
      "inputs": [
        {
          "indexed": true,
          "internalType": "address",
          "name": "voter",
          "type": "address"
        },
        {
          "indexed": false,
          "internalType": "uint256",
          "name": "proposalId",
          "type": "uint256"
        },
        {
          "indexed": false,
          "internalType": "uint8",
          "name": "support",
          "type": "uint8"
        },
        {
          "indexed": false,
          "internalType": "uint256",
          "name": "weight",
          "type": "uint256"
        },
        {
          "indexed": false,
          "internalType": "string",
          "name": "reason",
          "type": "string"
        },
        {
          "indexed": false,
          "internalType": "bytes",
          "name": "params",
          "type": "bytes"
        }
      ],
      "name": "VoteCastWithParams",
      "type": "event"
    },
    {
      "anonymous": false,
      "inputs": [
        {
          "indexed": false,
          "internalType": "uint256",
          "name": "oldVotingDelay",
          "type": "uint256"
        },
        {
          "indexed": false,
          "internalType": "uint256",
          "name": "newVotingDelay",
          "type": "uint256"
        }
      ],
      "name": "VotingDelaySet",
      "type": "event"
    },
    {
      "anonymous": false,
      "inputs": [
        {
          "indexed": false,
          "internalType": "uint256",
          "name": "oldVotingPeriod",
          "type": "uint256"
        },
        {
          "indexed": false,
          "internalType": "uint256",
          "name": "newVotingPeriod",
          "type": "uint256"
        }
      ],
      "name": "VotingPeriodSet",
      "type": "event"
    },
    {
      "inputs": [],
      "name": "BALLOT_TYPEHASH",
      "outputs": [
        {
          "internalType": "bytes32",
          "name": "",
          "type": "bytes32"
        }
      ],
      "stateMutability": "view",
      "type": "function"
    },
    {
      "inputs": [],
      "name": "COUNTING_MODE",
      "outputs": [
        {
          "internalType": "string",
          "name": "",
          "type": "string"
        }
      ],
      "stateMutability": "pure",
      "type": "function"
    },
    {
      "inputs": [],
      "name": "EXTENDED_BALLOT_TYPEHASH",
      "outputs": [
        {
          "internalType": "bytes32",
          "name": "",
          "type": "bytes32"
        }
      ],
      "stateMutability": "view",
      "type": "function"
    },
    {
      "inputs": [],
      "name": "__acceptAdmin",
      "outputs": [],
      "stateMutability": "nonpayable",
      "type": "function"
    },
    {
      "inputs": [
        {
          "internalType": "uint256",
          "name": "proposalId",
          "type": "uint256"
        },
        {
          "internalType": "uint8",
          "name": "support",
          "type": "uint8"
        }
      ],
      "name": "castVote",
      "outputs": [
        {
          "internalType": "uint256",
          "name": "",
          "type": "uint256"
        }
      ],
      "stateMutability": "nonpayable",
      "type": "function"
    },
    {
      "inputs": [
        {
          "internalType": "uint256",
          "name": "proposalId",
          "type": "uint256"
        },
        {
          "internalType": "uint8",
          "name": "support",
          "type": "uint8"
        }
      ],
      "name": "castVoteAllIn",
      "outputs": [
        {
          "internalType": "uint256",
          "name": "",
          "type": "uint256"
        }
      ],
      "stateMutability": "payable",
      "type": "function"
    },
    {
      "inputs": [
        {
          "internalType": "uint256",
          "name": "proposalId",
          "type": "uint256"
        },
        {
          "internalType": "uint8",
          "name": "support",
          "type": "uint8"
        },
        {
          "internalType": "uint8",
          "name": "v",
          "type": "uint8"
        },
        {
          "internalType": "bytes32",
          "name": "r",
          "type": "bytes32"
        },
        {
          "internalType": "bytes32",
          "name": "s",
          "type": "bytes32"
        }
      ],
      "name": "castVoteBySig",
      "outputs": [
        {
          "internalType": "uint256",
          "name": "",
          "type": "uint256"
        }
      ],
      "stateMutability": "nonpayable",
      "type": "function"
    },
    {
      "inputs": [
        {
          "internalType": "uint256",
          "name": "proposalId",
          "type": "uint256"
        },
        {
          "internalType": "uint8",
          "name": "support",
          "type": "uint8"
        }
      ],
      "name": "castVoteSimple",
      "outputs": [
        {
          "internalType": "uint256",
          "name": "",
          "type": "uint256"
        }
      ],
      "stateMutability": "payable",
      "type": "function"
    },
    {
      "inputs": [
        {
          "internalType": "uint256",
          "name": "proposalId",
          "type": "uint256"
        },
        {
          "internalType": "uint8",
          "name": "support",
          "type": "uint8"
        },
        {
          "internalType": "string",
          "name": "reason",
          "type": "string"
        }
      ],
      "name": "castVoteWithReason",
      "outputs": [
        {
          "internalType": "uint256",
          "name": "",
          "type": "uint256"
        }
      ],
      "stateMutability": "nonpayable",
      "type": "function"
    },
    {
      "inputs": [
        {
          "internalType": "uint256",
          "name": "proposalId",
          "type": "uint256"
        },
        {
          "internalType": "uint8",
          "name": "support",
          "type": "uint8"
        },
        {
          "internalType": "string",
          "name": "reason",
          "type": "string"
        },
        {
          "internalType": "bytes",
          "name": "params",
          "type": "bytes"
        }
      ],
      "name": "castVoteWithReasonAndParams",
      "outputs": [
        {
          "internalType": "uint256",
          "name": "",
          "type": "uint256"
        }
      ],
      "stateMutability": "nonpayable",
      "type": "function"
    },
    {
      "inputs": [
        {
          "internalType": "uint256",
          "name": "proposalId",
          "type": "uint256"
        },
        {
          "internalType": "uint8",
          "name": "support",
          "type": "uint8"
        },
        {
          "internalType": "string",
          "name": "reason",
          "type": "string"
        },
        {
          "internalType": "bytes",
          "name": "params",
          "type": "bytes"
        },
        {
          "internalType": "uint8",
          "name": "v",
          "type": "uint8"
        },
        {
          "internalType": "bytes32",
          "name": "r",
          "type": "bytes32"
        },
        {
          "internalType": "bytes32",
          "name": "s",
          "type": "bytes32"
        }
      ],
      "name": "castVoteWithReasonAndParamsBySig",
      "outputs": [
        {
          "internalType": "uint256",
          "name": "",
          "type": "uint256"
        }
      ],
      "stateMutability": "nonpayable",
      "type": "function"
    },
    {
      "inputs": [
        {
          "internalType": "address[]",
          "name": "targets",
          "type": "address[]"
        },
        {
          "internalType": "uint256[]",
          "name": "values",
          "type": "uint256[]"
        },
        {
          "internalType": "bytes[]",
          "name": "calldatas",
          "type": "bytes[]"
        },
        {
          "internalType": "bytes32",
          "name": "descriptionHash",
          "type": "bytes32"
        }
      ],
      "name": "execute",
      "outputs": [
        {
          "internalType": "uint256",
          "name": "",
          "type": "uint256"
        }
      ],
      "stateMutability": "payable",
      "type": "function"
    },
    {
      "inputs": [],
      "name": "getBalance",
      "outputs": [
        {
          "internalType": "uint256",
          "name": "",
          "type": "uint256"
        }
      ],
      "stateMutability": "view",
      "type": "function"
    },
    {
      "inputs": [
        {
          "internalType": "uint256",
          "name": "proposalId",
          "type": "uint256"
        }
      ],
      "name": "getProposerBudget",
      "outputs": [
        {
          "internalType": "uint256",
          "name": "",
          "type": "uint256"
        }
      ],
      "stateMutability": "view",
      "type": "function"
    },
    {
      "inputs": [
        {
          "internalType": "uint256",
          "name": "proposalId",
          "type": "uint256"
        }
      ],
      "name": "getProposerName",
      "outputs": [
        {
          "internalType": "address",
          "name": "",
          "type": "address"
        }
      ],
      "stateMutability": "view",
      "type": "function"
    },
    {
      "inputs": [
        {
          "internalType": "address",
          "name": "account",
          "type": "address"
        },
        {
          "internalType": "uint256",
          "name": "blockNumber",
          "type": "uint256"
        }
      ],
      "name": "getVotes",
      "outputs": [
        {
          "internalType": "uint256",
          "name": "",
          "type": "uint256"
        }
      ],
      "stateMutability": "view",
      "type": "function"
    },
    {
      "inputs": [
        {
          "internalType": "address",
          "name": "account",
          "type": "address"
        },
        {
          "internalType": "uint256",
          "name": "blockNumber",
          "type": "uint256"
        },
        {
          "internalType": "bytes",
          "name": "params",
          "type": "bytes"
        }
      ],
      "name": "getVotesWithParams",
      "outputs": [
        {
          "internalType": "uint256",
          "name": "",
          "type": "uint256"
        }
      ],
      "stateMutability": "view",
      "type": "function"
    },
    {
      "inputs": [
        {
          "internalType": "uint256",
          "name": "proposalId",
          "type": "uint256"
        },
        {
          "internalType": "address",
          "name": "account",
          "type": "address"
        }
      ],
      "name": "hasVoted",
      "outputs": [
        {
          "internalType": "bool",
          "name": "",
          "type": "bool"
        }
      ],
      "stateMutability": "view",
      "type": "function"
    },
    {
      "inputs": [
        {
          "internalType": "address[]",
          "name": "targets",
          "type": "address[]"
        },
        {
          "internalType": "uint256[]",
          "name": "values",
          "type": "uint256[]"
        },
        {
          "internalType": "bytes[]",
          "name": "calldatas",
          "type": "bytes[]"
        },
        {
          "internalType": "bytes32",
          "name": "descriptionHash",
          "type": "bytes32"
        }
      ],
      "name": "hashProposal",
      "outputs": [
        {
          "internalType": "uint256",
          "name": "",
          "type": "uint256"
        }
      ],
      "stateMutability": "pure",
      "type": "function"
    },
    {
      "inputs": [],
      "name": "initialBudget",
      "outputs": [
        {
          "internalType": "uint256",
          "name": "",
          "type": "uint256"
        }
      ],
      "stateMutability": "view",
      "type": "function"
    },
    {
      "inputs": [],
      "name": "initialProposer",
      "outputs": [
        {
          "internalType": "address",
          "name": "",
          "type": "address"
        }
      ],
      "stateMutability": "view",
      "type": "function"
    },
    {
      "inputs": [],
      "name": "name",
      "outputs": [
        {
          "internalType": "string",
          "name": "",
          "type": "string"
        }
      ],
      "stateMutability": "view",
      "type": "function"
    },
    {
      "inputs": [
        {
          "internalType": "address",
          "name": "",
          "type": "address"
        },
        {
          "internalType": "address",
          "name": "",
          "type": "address"
        },
        {
          "internalType": "uint256[]",
          "name": "",
          "type": "uint256[]"
        },
        {
          "internalType": "uint256[]",
          "name": "",
          "type": "uint256[]"
        },
        {
          "internalType": "bytes",
          "name": "",
          "type": "bytes"
        }
      ],
      "name": "onERC1155BatchReceived",
      "outputs": [
        {
          "internalType": "bytes4",
          "name": "",
          "type": "bytes4"
        }
      ],
      "stateMutability": "nonpayable",
      "type": "function"
    },
    {
      "inputs": [
        {
          "internalType": "address",
          "name": "",
          "type": "address"
        },
        {
          "internalType": "address",
          "name": "",
          "type": "address"
        },
        {
          "internalType": "uint256",
          "name": "",
          "type": "uint256"
        },
        {
          "internalType": "uint256",
          "name": "",
          "type": "uint256"
        },
        {
          "internalType": "bytes",
          "name": "",
          "type": "bytes"
        }
      ],
      "name": "onERC1155Received",
      "outputs": [
        {
          "internalType": "bytes4",
          "name": "",
          "type": "bytes4"
        }
      ],
      "stateMutability": "nonpayable",
      "type": "function"
    },
    {
      "inputs": [
        {
          "internalType": "address",
          "name": "",
          "type": "address"
        },
        {
          "internalType": "address",
          "name": "",
          "type": "address"
        },
        {
          "internalType": "uint256",
          "name": "",
          "type": "uint256"
        },
        {
          "internalType": "bytes",
          "name": "",
          "type": "bytes"
        }
      ],
      "name": "onERC721Received",
      "outputs": [
        {
          "internalType": "bytes4",
          "name": "",
          "type": "bytes4"
        }
      ],
      "stateMutability": "nonpayable",
      "type": "function"
    },
    {
      "inputs": [],
      "name": "owner",
      "outputs": [
        {
          "internalType": "address",
          "name": "",
          "type": "address"
        }
      ],
      "stateMutability": "view",
      "type": "function"
    },
    {
      "inputs": [
        {
          "internalType": "uint256",
          "name": "proposalId",
          "type": "uint256"
        }
      ],
      "name": "proposalDeadline",
      "outputs": [
        {
          "internalType": "uint256",
          "name": "",
          "type": "uint256"
        }
      ],
      "stateMutability": "view",
      "type": "function"
    },
    {
      "inputs": [
        {
          "internalType": "uint256",
          "name": "proposalId",
          "type": "uint256"
        }
      ],
      "name": "proposalEta",
      "outputs": [
        {
          "internalType": "uint256",
          "name": "",
          "type": "uint256"
        }
      ],
      "stateMutability": "view",
      "type": "function"
    },
    {
      "inputs": [
        {
          "internalType": "uint256",
          "name": "proposalId",
          "type": "uint256"
        }
      ],
      "name": "proposalSnapshot",
      "outputs": [
        {
          "internalType": "uint256",
          "name": "",
          "type": "uint256"
        }
      ],
      "stateMutability": "view",
      "type": "function"
    },
    {
      "inputs": [],
      "name": "proposalThreshold",
      "outputs": [
        {
          "internalType": "uint256",
          "name": "",
          "type": "uint256"
        }
      ],
      "stateMutability": "view",
      "type": "function"
    },
    {
      "inputs": [
        {
          "internalType": "uint256",
          "name": "proposalId",
          "type": "uint256"
        }
      ],
      "name": "proposalVotes",
      "outputs": [
        {
          "internalType": "uint256",
          "name": "againstVotes",
          "type": "uint256"
        },
        {
          "internalType": "uint256",
          "name": "forVotes",
          "type": "uint256"
        },
        {
          "internalType": "uint256",
          "name": "abstainVotes",
          "type": "uint256"
        }
      ],
      "stateMutability": "view",
      "type": "function"
    },
    {
      "inputs": [
        {
          "internalType": "address[]",
          "name": "targets",
          "type": "address[]"
        },
        {
          "internalType": "uint256[]",
          "name": "values",
          "type": "uint256[]"
        },
        {
          "internalType": "bytes[]",
          "name": "calldatas",
          "type": "bytes[]"
        },
        {
          "internalType": "string",
          "name": "description",
          "type": "string"
        }
      ],
      "name": "propose",
      "outputs": [
        {
          "internalType": "uint256",
          "name": "",
          "type": "uint256"
        }
      ],
      "stateMutability": "nonpayable",
      "type": "function"
    },
    {
      "inputs": [
        {
          "internalType": "uint256",
          "name": "proposalId",
          "type": "uint256"
        }
      ],
      "name": "quadraticVoting",
      "outputs": [],
      "stateMutability": "payable",
      "type": "function"
    },
    {
      "inputs": [
        {
          "internalType": "address[]",
          "name": "targets",
          "type": "address[]"
        },
        {
          "internalType": "uint256[]",
          "name": "values",
          "type": "uint256[]"
        },
        {
          "internalType": "bytes[]",
          "name": "calldatas",
          "type": "bytes[]"
        },
        {
          "internalType": "bytes32",
          "name": "descriptionHash",
          "type": "bytes32"
        }
      ],
      "name": "queue",
      "outputs": [
        {
          "internalType": "uint256",
          "name": "",
          "type": "uint256"
        }
      ],
      "stateMutability": "nonpayable",
      "type": "function"
    },
    {
      "inputs": [
        {
          "internalType": "uint256",
          "name": "blockNumber",
          "type": "uint256"
        }
      ],
      "name": "quorum",
      "outputs": [
        {
          "internalType": "uint256",
          "name": "",
          "type": "uint256"
        }
      ],
      "stateMutability": "pure",
      "type": "function"
    },
    {
      "inputs": [
        {
          "internalType": "address",
          "name": "target",
          "type": "address"
        },
        {
          "internalType": "uint256",
          "name": "value",
          "type": "uint256"
        },
        {
          "internalType": "bytes",
          "name": "data",
          "type": "bytes"
        }
      ],
      "name": "relay",
      "outputs": [],
      "stateMutability": "nonpayable",
      "type": "function"
    },
    {
      "inputs": [
        {
          "internalType": "uint256",
          "name": "proposalId",
          "type": "uint256"
        },
        {
          "internalType": "uint256",
          "name": "budget",
          "type": "uint256"
        }
      ],
      "name": "setProposalBudget",
      "outputs": [],
      "stateMutability": "nonpayable",
      "type": "function"
    },
    {
      "inputs": [
        {
          "internalType": "uint256",
          "name": "newProposalThreshold",
          "type": "uint256"
        }
      ],
      "name": "setProposalThreshold",
      "outputs": [],
      "stateMutability": "nonpayable",
      "type": "function"
    },
    {
      "inputs": [
        {
          "internalType": "uint256",
          "name": "newVotingDelay",
          "type": "uint256"
        }
      ],
      "name": "setVotingDelay",
      "outputs": [],
      "stateMutability": "nonpayable",
      "type": "function"
    },
    {
      "inputs": [
        {
          "internalType": "uint256",
          "name": "newVotingPeriod",
          "type": "uint256"
        }
      ],
      "name": "setVotingPeriod",
      "outputs": [],
      "stateMutability": "nonpayable",
      "type": "function"
    },
    {
      "inputs": [
        {
          "internalType": "uint256",
          "name": "proposalId",
          "type": "uint256"
        }
      ],
      "name": "state",
      "outputs": [
        {
          "internalType": "enum IGovernor.ProposalState",
          "name": "",
          "type": "uint8"
        }
      ],
      "stateMutability": "view",
      "type": "function"
    },
    {
      "inputs": [
        {
          "internalType": "bytes4",
          "name": "interfaceId",
          "type": "bytes4"
        }
      ],
      "name": "supportsInterface",
      "outputs": [
        {
          "internalType": "bool",
          "name": "",
          "type": "bool"
        }
      ],
      "stateMutability": "view",
      "type": "function"
    },
    {
      "inputs": [],
      "name": "timelock",
      "outputs": [
        {
          "internalType": "address",
          "name": "",
          "type": "address"
        }
      ],
      "stateMutability": "view",
      "type": "function"
    },
    {
      "inputs": [],
      "name": "token",
      "outputs": [
        {
          "internalType": "contract IVotes",
          "name": "",
          "type": "address"
        }
      ],
      "stateMutability": "view",
      "type": "function"
    },
    {
      "inputs": [],
      "name": "tokenAddress",
      "outputs": [
        {
          "internalType": "address",
          "name": "",
          "type": "address"
        }
      ],
      "stateMutability": "view",
      "type": "function"
    },
    {
      "inputs": [
        {
          "internalType": "contract ICompoundTimelock",
          "name": "newTimelock",
          "type": "address"
        }
      ],
      "name": "updateTimelock",
      "outputs": [],
      "stateMutability": "nonpayable",
      "type": "function"
    },
    {
      "inputs": [],
      "name": "version",
      "outputs": [
        {
          "internalType": "string",
          "name": "",
          "type": "string"
        }
      ],
      "stateMutability": "view",
      "type": "function"
    },
    {
      "inputs": [],
      "name": "votingDelay",
      "outputs": [
        {
          "internalType": "uint256",
          "name": "",
          "type": "uint256"
        }
      ],
      "stateMutability": "view",
      "type": "function"
    },
    {
      "inputs": [],
      "name": "votingPeriod",
      "outputs": [
        {
          "internalType": "uint256",
          "name": "",
          "type": "uint256"
        }
      ],
      "stateMutability": "view",
      "type": "function"
    },
    {
      "stateMutability": "payable",
      "type": "receive"
    }
  ],
  "bytecode": "0x6101606040523480156200001257600080fd5b50604051620045bc380380620045bc8339810160408190526200003591620003f6565b83856001601460026040518060400160405280600a81526020016926bca3b7bb32b93737b960b11b8152508062000071620001a460201b60201c565b815160208084019190912082518383012060e08290526101008190524660a0818152604080517f8b73c3c69bb8fe3d512ecc4cf759cc79239f7b179b0ffacaa9a75d522b39400f81880181905281830187905260608201869052608082019490945230818401528151808203909301835260c00190528051940193909320919290916080523060601b60c05261012052505082516200011a925060009150602084019062000350565b5062000128905083620001bf565b620001338262000200565b6200013e81620002a6565b50505060601b6001600160601b031916610140526200015d81620002e7565b50600a80546001600160a01b039687166001600160a01b031991821617909155600b8054821633179055600c91909155600d80549290951691161790925550620004b49050565b6040805180820190915260018152603160f81b602082015290565b60045460408051918252602082018390527fc565b045403dc03c2eea82b81a0465edad9e2e7fc4d97e11421c209da93d7a93910160405180910390a1600455565b60008111620002655760405162461bcd60e51b815260206004820152602760248201527f476f7665726e6f7253657474696e67733a20766f74696e6720706572696f6420604482015266746f6f206c6f7760c81b606482015260840160405180910390fd5b60055460408051918252602082018390527f7e3f7f0708a84de9203036abaa450dccc85ad5ff52f78c170f3edb55cf5e8828910160405180910390a1600555565b60065460408051918252602082018390527fccb45da8d5717e6c4544694297c4ba5cf151d455c9bb0ed4fc7a38411bc05461910160405180910390a1600655565b600854604080516001600160a01b03928316815291831660208301527f08f74ea46ef7894f65eabfb5e6e695de773a000b47c529ab559178069b226401910160405180910390a1600880546001600160a01b0319166001600160a01b0392909216919091179055565b8280546200035e906200045e565b90600052602060002090601f016020900481019282620003825760008555620003cd565b82601f106200039d57805160ff1916838001178555620003cd565b82800160010185558215620003cd579182015b82811115620003cd578251825591602001919060010190620003b0565b50620003db929150620003df565b5090565b5b80821115620003db5760008155600101620003e0565b600080600080600060a086880312156200040f57600080fd5b85516200041c816200049b565b60208701519095506200042f816200049b565b60408701516060880151919550935062000449816200049b565b80925050608086015190509295509295909350565b600181811c908216806200047357607f821691505b602082108114156200049557634e487b7160e01b600052602260045260246000fd5b50919050565b6001600160a01b0381168114620004b157600080fd5b50565b60805160a05160c05160601c60e05161010051610120516101405160601c6140a06200051c6000396000818161091f0152611de3015260006127ad015260006127fc015260006127d7015260006127300152600061275a0152600061278401526140a06000f3fe6080604052600436106102325760003560e01c806301ffc9a71461025a57806302a251a31461028f57806303420181146102b257806306fdde03146102d257806312065fe0146102f4578063150b7a0214610307578063160cbed71461034b578063227588b51461036b5780632656227d1461037e5780632d63f693146103915780632fe3e261146103b15780633932abb1146103d35780633bccf4fd146103e85780633e4f49e614610408578063438596321461043557806345df67ce1461047f578063544ffc9c146104c257806354fd4d501461051757806356781388146105415780635d949972146105615780635f398a14146105815780636a9bb000146105a157806370b0f660146105d15780637b3c71d3146105f15780637d5e81e2146106115780638da5cb5b146106315780639a802a6d146106515780639c61248a146106715780639d76ea5814610684578063a890c910146106a4578063ab58fb8e146106c4578063b04a3937146106e4578063b58131b0146106fa578063b9a619611461070f578063bc197c8114610724578063bf1c457414610750578063c006b57f14610770578063c01f9e3714610783578063c28bc2fa146107a3578063c59057e4146107c3578063d33219b4146107e3578063dd4e2ba5146107f8578063deaaa7cc1461083e578063ea0217cf14610860578063eb9019d414610880578063ece40cc1146108a0578063f23a6e61146108c0578063f8ce560a146108ec578063fc0c546a1461090d57600080fd5b366102555730610240610941565b6001600160a01b03161461025357600080fd5b005b600080fd5b34801561026657600080fd5b5061027a610275366004613622565b610950565b60405190151581526020015b60405180910390f35b34801561029b57600080fd5b506102a4610961565b604051908152602001610286565b3480156102be57600080fd5b506102a46102cd366004613817565b61096c565b3480156102de57600080fd5b506102e7610a52565b6040516102869190613af9565b34801561030057600080fd5b50476102a4565b34801561031357600080fd5b506103326103223660046132f2565b630a85bd0160e11b949350505050565b6040516001600160e01b03199091168152602001610286565b34801561035757600080fd5b506102a46103663660046134a4565b610ae4565b6102536103793660046136d6565b610ec9565b6102a461038c3660046134a4565b610f89565b34801561039d57600080fd5b506102a46103ac3660046136d6565b6110f5565b3480156103bd57600080fd5b506102a460008051602061400b83398151915281565b3480156103df57600080fd5b506102a461112c565b3480156103f457600080fd5b506102a46104033660046138bd565b611137565b34801561041457600080fd5b506104286104233660046136d6565b61119b565b6040516102869190613ad1565b34801561044157600080fd5b5061027a6104503660046136ef565b60008281526007602090815260408083206001600160a01b038516845260030190915290205460ff1692915050565b34801561048b57600080fd5b506104b561049a3660046136d6565b6000908152600e60205260409020546001600160a01b031690565b6040516102869190613a2c565b3480156104ce57600080fd5b506104fc6104dd3660046136d6565b6000908152600760205260409020805460018201546002909201549092565b60408051938452602084019290925290820152606001610286565b34801561052357600080fd5b506040805180820190915260018152603160f81b60208201526102e7565b34801561054d57600080fd5b506102a461055c366004613741565b6111a6565b34801561056d57600080fd5b5061025361057c36600461371f565b6111cf565b34801561058d57600080fd5b506102a461059c3660046137ae565b6112ff565b3480156105ad57600080fd5b506102a46105bc3660046136d6565b6000908152600e602052604090206001015490565b3480156105dd57600080fd5b506102536105ec3660046136d6565b611349565b3480156105fd57600080fd5b506102a461060c36600461376d565b6113d8565b34801561061d57600080fd5b506102a461062c366004613533565b61142a565b34801561063d57600080fd5b50600b546104b5906001600160a01b031681565b34801561065d57600080fd5b506102a461066c36600461344c565b611514565b6102a461067f366004613741565b61152b565b34801561069057600080fd5b50600a546104b5906001600160a01b031681565b3480156106b057600080fd5b506102536106bf3660046136b9565b611620565b3480156106d057600080fd5b506102a46106df3660046136d6565b6116ac565b3480156106f057600080fd5b506102a4600c5481565b34801561070657600080fd5b506102a46116d8565b34801561071b57600080fd5b506102536116e3565b34801561073057600080fd5b5061033261073f366004613245565b63bc197c8160e01b95945050505050565b34801561075c57600080fd5b50600d546104b5906001600160a01b031681565b6102a461077e366004613741565b61174d565b34801561078f57600080fd5b506102a461079e3660046136d6565b611921565b3480156107af57600080fd5b506102536107be3660046133f1565b611950565b3480156107cf57600080fd5b506102a46107de3660046134a4565b611a1c565b3480156107ef57600080fd5b506104b5611a56565b34801561080457600080fd5b506040805180820190915260208082527f737570706f72743d627261766f2671756f72756d3d666f722c6162737461696e908201526102e7565b34801561084a57600080fd5b506102a4600080516020613feb83398151915281565b34801561086c57600080fd5b5061025361087b3660046136d6565b611a65565b34801561088c57600080fd5b506102a461089b3660046133c5565b611af1565b3480156108ac57600080fd5b506102536108bb3660046136d6565b611b12565b3480156108cc57600080fd5b506103326108db36600461335d565b63f23a6e6160e01b95945050505050565b3480156108f857600080fd5b506102a46109073660046136d6565b50600390565b34801561091957600080fd5b506104b57f000000000000000000000000000000000000000000000000000000000000000081565b600061094b611a56565b905090565b600061095b82611b9e565b92915050565b600061094b60055490565b6000806109fe6109f660008051602061400b8339815191528c8c8c8c604051610996929190613a00565b60405180910390208b805190602001206040516020016109db959493929190948552602085019390935260ff9190911660408401526060830152608082015260a00190565b60405160208183030381529060405280519060200120611bc3565b868686611c11565b9050610a448a828b8b8b8080601f0160208091040260200160405190810160405280939291908181526020018383808284376000920191909152508d9250611c2f915050565b9a9950505050505050505050565b606060008054610a6190613f27565b80601f0160208091040260200160405190810160405280929190818152602001828054610a8d90613f27565b8015610ada5780601f10610aaf57610100808354040283529160200191610ada565b820191906000526020600020905b815481529060010190602001808311610abd57829003601f168201915b5050505050905090565b600080610af386868686611a1c565b90506004610b008261119b565b6007811115610b1157610b11613f93565b14610b6d5760405162461bcd60e51b815260206004820152602160248201527f476f7665726e6f723a2070726f706f73616c206e6f74207375636365737366756044820152601b60fa1b60648201526084015b60405180910390fd5b60085460408051630d48571f60e31b815290516000926001600160a01b031691636a42b8f8916004808301926020929190829003018186803b158015610bb257600080fd5b505afa158015610bc6573d6000803e3d6000fd5b505050506040513d601f19601f82011682018060405250810190610bea9190613609565b610bf49042613e82565b9050610c16610c0282611d31565b600084815260096020526040902090611d9d565b60005b8751811015610e855760085488516001600160a01b039091169063f2b06537908a9084908110610c4b57610c4b613fa9565b6020026020010151898481518110610c6557610c65613fa9565b6020026020010151898581518110610c7f57610c7f613fa9565b602002602001015186604051602001610c9b9493929190613a40565b604051602081830303815290604052805190602001206040518263ffffffff1660e01b8152600401610ccf91815260200190565b60206040518083038186803b158015610ce757600080fd5b505afa158015610cfb573d6000803e3d6000fd5b505050506040513d601f19601f82011682018060405250810190610d1f91906135e7565b15610d9d5760405162461bcd60e51b815260206004820152604260248201527f476f7665726e6f7254696d656c6f636b436f6d706f756e643a206964656e746960448201527f63616c2070726f706f73616c20616374696f6e20616c72656164792071756575606482015261195960f21b608482015260a401610b64565b60085488516001600160a01b0390911690633a66f901908a9084908110610dc657610dc6613fa9565b6020026020010151898481518110610de057610de0613fa9565b6020026020010151898581518110610dfa57610dfa613fa9565b6020026020010151866040518563ffffffff1660e01b8152600401610e229493929190613a40565b602060405180830381600087803b158015610e3c57600080fd5b505af1158015610e50573d6000803e3d6000fd5b505050506040513d601f19601f82011682018060405250810190610e749190613609565b50610e7e81613f62565b9050610c19565b507f9a2e42fd6722813d69113e7d0079d3d940171428df7373df9c7f7617cfda28928282604051610eb7929190613d8c565b60405180910390a15095945050505050565b6000610eed33610ed8846110f5565b60405180602001604052806000815250611dba565b90506000610efb8280613ec5565b90506103e8811115610f0c57506103e85b80341015610f84576040805162461bcd60e51b81526020600482015260248101919091527f51756164726174696320766f74696e673a20596f75206e656564206d6f72652060448201527f657468657220746f20636f76657220796f757220766f7465207765696768742e6064820152608401610b64565b505050565b6000610f936116d8565b600a546040516370a0823160e01b81526001600160a01b03909116906370a0823190610fc3903390600401613a2c565b60206040518083038186803b158015610fdb57600080fd5b505afa158015610fef573d6000803e3d6000fd5b505050506040513d601f19601f820116820180604052508101906110139190613609565b10156110315760405162461bcd60e51b8152600401610b6490613c4c565b600061103f86868686611a1c565b905061104b3447613e82565b6000828152600e6020526040902060010154106110c65760405162461bcd60e51b815260206004820152603360248201527f476f7665726e6f723a2062756467657420726571756573746564206578636565604482015272323990333ab732399030bb30b4b630b136329760691b6064820152608401610b64565b6000818152600e60205260409020546001600160a01b03166110eb8288888888611e5f565b5095945050505050565b60008181526001602090815260408083208151928301909152546001600160401b0316908190525b6001600160401b031692915050565b600061094b60045490565b60408051600080516020613feb833981519152602082015290810186905260ff851660608201526000908190611173906109f6906080016109db565b905061119087828860405180602001604052806000815250611fed565b979650505050505050565b600061095b82612019565b6000803390506111c784828560405180602001604052806000815250611fed565b949350505050565b6000828152600e60205260409020546001600160a01b0316331461125b5760405162461bcd60e51b815260206004820152603f60248201527f476f7665726e6f723a206f6e6c79207468652070726f706f7365722063616e2060448201527f7365742074686520627564676574206f66207468652070726f706f73616c2e006064820152608401610b64565b60006112668361119b565b600781111561127757611277613f93565b146112ea5760405162461bcd60e51b815260206004820152603e60248201527f476f7665726e6f723a2063616e6e6f74206368616e6765206275646765742e2060448201527f50726f706f73616c20766f746520616c726561647920737461727465642e00006064820152608401610b64565b6000918252600e602052604090912060010155565b60008033905061119087828888888080601f0160208091040260200160405190810160405280939291908181526020018383808284376000920191909152508a9250611c2f915050565b611351610941565b6001600160a01b0316336001600160a01b0316146113815760405162461bcd60e51b8152600401610b6490613b0c565b3061138a610941565b6001600160a01b0316146113cc57600080366040516113aa929190613a00565b604051809103902090505b806113c06002612109565b146113ca576113b5565b505b6113d58161218c565b50565b60008033905061142086828787878080601f016020809104026020016040519081016040528093929190818152602001838380828437600092019190915250611fed92505050565b9695505050505050565b60006114346116d8565b600a546040516370a0823160e01b81526001600160a01b03909116906370a0823190611464903390600401613a2c565b60206040518083038186803b15801561147c57600080fd5b505afa158015611490573d6000803e3d6000fd5b505050506040513d601f19601f820116820180604052508101906114b49190613609565b10156114d25760405162461bcd60e51b8152600401610b6490613c4c565b60006114e78686868680519060200120611a1c565b6000818152600e6020526040902080546001600160a01b03191633178155909150611190878787876121cc565b6000611521848484611dba565b90505b9392505050565b600a54604051600091829182916001600160a01b031690611550903390602001613bc2565b60408051601f198184030181529082905261156a91613a10565b6000604051808303816000865af19150503d80600081146115a7576040519150601f19603f3d011682016040523d82523d6000602084013e6115ac565b606091505b50915091506000818060200190518101906115c79190613609565b90506115d16116d8565b8110156115f05760405162461bcd60e51b8152600401610b6490613bff565b6000339050611190878288604051806020016040528060008152506040518060200160405280600081525061241f565b611628610941565b6001600160a01b0316336001600160a01b0316146116585760405162461bcd60e51b8152600401610b6490613b0c565b30611661610941565b6001600160a01b0316146116a35760008036604051611681929190613a00565b604051809103902090505b806116976002612109565b146116a15761168c565b505b6113d5816124ea565b60008181526009602090815260408083208151928301909152546001600160401b03169081905261111d565b600061094b60065490565b600860009054906101000a90046001600160a01b03166001600160a01b0316630e18b6816040518163ffffffff1660e01b8152600401600060405180830381600087803b15801561173357600080fd5b505af1158015611747573d6000803e3d6000fd5b50505050565b600a54604051600091829182916001600160a01b031690611772903390602001613bc2565b60408051601f198184030181529082905261178c91613a10565b6000604051808303816000865af19150503d80600081146117c9576040519150601f19603f3d011682016040523d82523d6000602084013e6117ce565b606091505b50915091506000818060200190518101906117e99190613609565b90506117f36116d8565b8110156118125760405162461bcd60e51b8152600401610b6490613bff565b600061182133610ed8896110f5565b9050600061182f8280613ec5565b90506000662386f26fc10000600184141561184d576000915061185a565b6118578184613ec5565b91505b813410156118e25760405162461bcd60e51b815260206004820152604960248201527f596f75206e656564206d6f726520657468657220746f20766f7465207769746860448201527f20616c6c204e4654733a20636f7374203d20286e566f746573295e32202a20306064820152681718189032ba3432b960b91b608482015260a401610b64565b60003390506119128b828c6040518060200160405280600081525060405180602001604052806000815250612553565b9b9a5050505050505050505050565b60008181526001602081815260408084208151928301909152909101546001600160401b03169081905261111d565b611958610941565b6001600160a01b0316336001600160a01b0316146119885760405162461bcd60e51b8152600401610b6490613b0c565b30611991610941565b6001600160a01b0316146119d357600080366040516119b1929190613a00565b604051809103902090505b806119c76002612109565b146119d1576119bc565b505b611a158483838080601f0160208091040260200160405190810160405280939291908181526020018383808284376000920191909152508892506125b2915050565b5050505050565b600084848484604051602001611a359493929190613a86565b60408051601f19818403018152919052805160209091012095945050505050565b6008546001600160a01b031690565b611a6d610941565b6001600160a01b0316336001600160a01b031614611a9d5760405162461bcd60e51b8152600401610b6490613b0c565b30611aa6610941565b6001600160a01b031614611ae85760008036604051611ac6929190613a00565b604051809103902090505b80611adc6002612109565b14611ae657611ad1565b505b6113d5816125d8565b60006115248383611b0d60408051602081019091526000815290565b611dba565b611b1a610941565b6001600160a01b0316336001600160a01b031614611b4a5760405162461bcd60e51b8152600401610b6490613b0c565b30611b53610941565b6001600160a01b031614611b955760008036604051611b73929190613a00565b604051809103902090505b80611b896002612109565b14611b9357611b7e565b505b6113d581612678565b60006001600160e01b03198216636e665ced60e01b148061095b575061095b826126b8565b600061095b611bd0612723565b8360405161190160f01b6020820152602281018390526042810182905260009060620160405160208183030381529060405280519060200120905092915050565b6000806000611c228787878761284a565b915091506110eb8161292d565b6000858152600160208190526040822090611c498861119b565b6007811115611c5a57611c5a613f93565b14611c775760405162461bcd60e51b8152600401610b6490613b7f565b604080516020810190915281546001600160401b031690819052600090611ca090889086611dba565b9050611caf8888888488612ae3565b8351611cef57866001600160a01b031660008051602061407483398151915289888489604051611ce29493929190613d9a565b60405180910390a2611190565b866001600160a01b03166000805160206140548339815191528988848989604051611d1e959493929190613dc2565b60405180910390a2979650505050505050565b60006001600160401b03821115611d995760405162461bcd60e51b815260206004820152602660248201527f53616665436173743a2076616c756520646f65736e27742066697420696e203660448201526534206269747360d01b6064820152608401610b64565b5090565b81546001600160401b0319166001600160401b0391909116179055565b604051630748d63560e31b81526001600160a01b038481166004830152602482018490526000917f000000000000000000000000000000000000000000000000000000000000000090911690633a46b1a89060440160206040518083038186803b158015611e2757600080fd5b505afa158015611e3b573d6000803e3d6000fd5b505050506040513d601f19601f820116820180604052508101906115219190613609565b6000611e6a866116ac565b905060008111611ed65760405162461bcd60e51b815260206004820152603160248201527f476f7665726e6f7254696d656c6f636b436f6d706f756e643a2070726f706f73604482015270185b081b9bdd081e595d081c5d595d5959607a1b6064820152608401610b64565b600854611eec906001600160a01b031634612c6a565b60005b8551811015611fe45760085486516001600160a01b0390911690630825f38f90889084908110611f2157611f21613fa9565b6020026020010151878481518110611f3b57611f3b613fa9565b6020026020010151878581518110611f5557611f55613fa9565b6020026020010151866040518563ffffffff1660e01b8152600401611f7d9493929190613a40565b600060405180830381600087803b158015611f9757600080fd5b505af1158015611fab573d6000803e3d6000fd5b505050506040513d6000823e601f3d908101601f19168201604052611fd3919081019061364c565b50611fdd81613f62565b9050611eef565b50505050505050565b60006120108585858561200b60408051602081019091526000815290565b611c2f565b95945050505050565b60008061202583612d80565b9050600481600781111561203b5761203b613f93565b146120465792915050565b6000612051846116ac565b90508061205f575092915050565b600860009054906101000a90046001600160a01b03166001600160a01b031663c1a287e26040518163ffffffff1660e01b815260040160206040518083038186803b1580156120ad57600080fd5b505afa1580156120c1573d6000803e3d6000fd5b505050506040513d601f19601f820116820180604052508101906120e59190613609565b6120ef9082613e82565b42106120ff575060069392505050565b5060059392505050565b60006121288254600f81810b810b600160801b909204810b900b131590565b1561214657604051631ed9509560e11b815260040160405180910390fd5b508054600f90810b80820b820b600090815260018085016020526040822080549290558454920190920b6001600160801b03166001600160801b03199091161790915590565b7fc565b045403dc03c2eea82b81a0465edad9e2e7fc4d97e11421c209da93d7a93600454826040516121bf929190613d8c565b60405180910390a1600455565b60006121d66116d8565b6121e53361089b600143613ee4565b10156122035760405162461bcd60e51b8152600401610b6490613c4c565b60006122188686868680519060200120611a1c565b9050845186511461223b5760405162461bcd60e51b8152600401610b6490613b3e565b835186511461225c5760405162461bcd60e51b8152600401610b6490613b3e565b60008651116122a85760405162461bcd60e51b815260206004820152601860248201527711dbdd995c9b9bdc8e88195b5c1d1e481c1c9bdc1bdcd85b60421b6044820152606401610b64565b600081815260016020908152604091829020825191820190925281546001600160401b031690819052156123285760405162461bcd60e51b815260206004820152602160248201527f476f7665726e6f723a2070726f706f73616c20616c72656164792065786973746044820152607360f81b6064820152608401610b64565b600061233a61233561112c565b611d31565b61234343611d31565b61234d9190613e9a565b9050600061235c612335610961565b6123669083613e9a565b90506123728383611d9d565b61237f6001840182611d9d565b7f7d84a6263ae0d98d3329bd7b46bb4e8d6f98cd35a7adb45c274c8b7fd5ebd5e084338b8b8d516001600160401b038111156123bd576123bd613fbf565b6040519080825280602002602001820160405280156123f057816020015b60608152602001906001900390816123db5790505b508c88888e60405161240a99989796959493929190613c9d565b60405180910390a15091979650505050505050565b6000600161242c8761119b565b600781111561243d5761243d613f93565b1461245a5760405162461bcd60e51b8152600401610b6490613b7f565b60016124698787878487612ae3565b82516124a957856001600160a01b03166000805160206140748339815191528887848860405161249c9493929190613d9a565b60405180910390a2611420565b856001600160a01b031660008051602061405483398151915288878488886040516124d8959493929190613dc2565b60405180910390a29695505050505050565b600854604080516001600160a01b03928316815291831660208301527f08f74ea46ef7894f65eabfb5e6e695de773a000b47c529ab559178069b226401910160405180910390a1600880546001600160a01b0319166001600160a01b0392909216919091179055565b600060016125608761119b565b600781111561257157612571613f93565b1461258e5760405162461bcd60e51b8152600401610b6490613b7f565b60006125a38661259d896110f5565b85611dba565b90506124698787878487612ae3565b606061152184848460405180606001604052806029815260200161402b60299139612e8c565b600081116126385760405162461bcd60e51b815260206004820152602760248201527f476f7665726e6f7253657474696e67733a20766f74696e6720706572696f6420604482015266746f6f206c6f7760c81b6064820152608401610b64565b7f7e3f7f0708a84de9203036abaa450dccc85ad5ff52f78c170f3edb55cf5e88286005548260405161266b929190613d8c565b60405180910390a1600555565b7fccb45da8d5717e6c4544694297c4ba5cf151d455c9bb0ed4fc7a38411bc05461600654826040516126ab929190613d8c565b60405180910390a1600655565b60006001600160e01b0319821663bf26d89760e01b14806126e957506001600160e01b031982166379dd796f60e01b145b8061270457506001600160e01b03198216630271189760e51b145b8061095b57506301ffc9a760e01b6001600160e01b031983161461095b565b6000306001600160a01b037f00000000000000000000000000000000000000000000000000000000000000001614801561277c57507f000000000000000000000000000000000000000000000000000000000000000046145b156127a657507f000000000000000000000000000000000000000000000000000000000000000090565b50604080517f00000000000000000000000000000000000000000000000000000000000000006020808301919091527f0000000000000000000000000000000000000000000000000000000000000000828401527f000000000000000000000000000000000000000000000000000000000000000060608301524660808301523060a0808401919091528351808403909101815260c0909201909252805191012090565b6000806fa2a8918ca85bafe22016d0b997e4df60600160ff1b038311156128775750600090506003612924565b8460ff16601b1415801561288f57508460ff16601c14155b156128a05750600090506004612924565b6040805160008082526020820180845289905260ff881692820192909252606081018690526080810185905260019060a0016020604051602081039080840390855afa1580156128f4573d6000803e3d6000fd5b5050604051601f1901519150506001600160a01b03811661291d57600060019250925050612924565b9150600090505b94509492505050565b600081600481111561294157612941613f93565b141561294a5750565b600181600481111561295e5761295e613f93565b14156129a75760405162461bcd60e51b815260206004820152601860248201527745434453413a20696e76616c6964207369676e617475726560401b6044820152606401610b64565b60028160048111156129bb576129bb613f93565b1415612a095760405162461bcd60e51b815260206004820152601f60248201527f45434453413a20696e76616c6964207369676e6174757265206c656e677468006044820152606401610b64565b6003816004811115612a1d57612a1d613f93565b1415612a765760405162461bcd60e51b815260206004820152602260248201527f45434453413a20696e76616c6964207369676e6174757265202773272076616c604482015261756560f01b6064820152608401610b64565b6004816004811115612a8a57612a8a613f93565b14156113d55760405162461bcd60e51b815260206004820152602260248201527f45434453413a20696e76616c6964207369676e6174757265202776272076616c604482015261756560f01b6064820152608401610b64565b60008581526007602090815260408083206001600160a01b0388168452600381019092529091205460ff1615612b6b5760405162461bcd60e51b815260206004820152602760248201527f476f7665726e6f72566f74696e6753696d706c653a20766f746520616c726561604482015266191e4818d85cdd60ca1b6064820152608401610b64565b6001600160a01b03851660009081526003820160205260408120805460ff1916600117905560ff168460ff161415612bbc5782816000016000828254612bb19190613e82565b90915550612c629050565b60ff841660011415612bdc5782816001016000828254612bb19190613e82565b60ff841660021415612bfc5782816002016000828254612bb19190613e82565b60405162461bcd60e51b815260206004820152603560248201527f476f7665726e6f72566f74696e6753696d706c653a20696e76616c69642076616044820152746c756520666f7220656e756d20566f74655479706560581b6064820152608401610b64565b505050505050565b80471015612cba5760405162461bcd60e51b815260206004820152601d60248201527f416464726573733a20696e73756666696369656e742062616c616e63650000006044820152606401610b64565b6000826001600160a01b03168260405160006040518083038185875af1925050503d8060008114612d07576040519150601f19603f3d011682016040523d82523d6000602084013e612d0c565b606091505b5050905080610f845760405162461bcd60e51b815260206004820152603a60248201527f416464726573733a20756e61626c6520746f2073656e642076616c75652c20726044820152791958da5c1a595b9d081b585e481a185d99481c995d995c9d195960321b6064820152608401610b64565b6000818152600160205260408120600281015460ff1615612da45750600792915050565b6002810154610100900460ff1615612dbf5750600292915050565b6000612dca846110f5565b905080612e195760405162461bcd60e51b815260206004820152601d60248201527f476f7665726e6f723a20756e6b6e6f776e2070726f706f73616c2069640000006044820152606401610b64565b438110612e2a575060009392505050565b6000612e3585611921565b9050438110612e4957506001949350505050565b612e5285612fb2565b8015612e71575060008581526007602052604090208054600190910154115b15612e8157506004949350505050565b506003949350505050565b606082471015612eed5760405162461bcd60e51b815260206004820152602660248201527f416464726573733a20696e73756666696369656e742062616c616e636520666f6044820152651c8818d85b1b60d21b6064820152608401610b64565b6001600160a01b0385163b612f445760405162461bcd60e51b815260206004820152601d60248201527f416464726573733a2063616c6c20746f206e6f6e2d636f6e74726163740000006044820152606401610b64565b600080866001600160a01b03168587604051612f609190613a10565b60006040518083038185875af1925050503d8060008114612f9d576040519150601f19603f3d011682016040523d82523d6000602084013e612fa2565b606091505b5091509150611190828286612fe9565b600081815260076020526040812060028101546001820154612fd49190613e82565b612fe0610907856110f5565b11159392505050565b60608315612ff8575081611524565b8251156130085782518084602001fd5b8160405162461bcd60e51b8152600401610b649190613af9565b600061303561303084613e5b565b613e08565b905082815283838301111561304957600080fd5b828260208301376000602084830101529392505050565b600082601f83011261307157600080fd5b8135602061308161303083613e38565b80838252828201915082860187848660051b89010111156130a157600080fd5b60005b858110156130c95781356130b781613fd5565b845292840192908401906001016130a4565b5090979650505050505050565b600082601f8301126130e757600080fd5b813560206130f761303083613e38565b80838252828201915082860187848660051b890101111561311757600080fd5b6000805b868110156131595782356001600160401b03811115613138578283fd5b6131468b88838d010161320f565b865250938501939185019160010161311b565b509198975050505050505050565b600082601f83011261317857600080fd5b8135602061318861303083613e38565b80838252828201915082860187848660051b89010111156131a857600080fd5b60005b858110156130c9578135845292840192908401906001016131ab565b60008083601f8401126131d957600080fd5b5081356001600160401b038111156131f057600080fd5b60208301915083602082850101111561320857600080fd5b9250929050565b600082601f83011261322057600080fd5b61152483833560208501613022565b803560ff8116811461324057600080fd5b919050565b600080600080600060a0868803121561325d57600080fd5b853561326881613fd5565b9450602086013561327881613fd5565b935060408601356001600160401b038082111561329457600080fd5b6132a089838a01613167565b945060608801359150808211156132b657600080fd5b6132c289838a01613167565b935060808801359150808211156132d857600080fd5b506132e58882890161320f565b9150509295509295909350565b6000806000806080858703121561330857600080fd5b843561331381613fd5565b9350602085013561332381613fd5565b92506040850135915060608501356001600160401b0381111561334557600080fd5b6133518782880161320f565b91505092959194509250565b600080600080600060a0868803121561337557600080fd5b853561338081613fd5565b9450602086013561339081613fd5565b9350604086013592506060860135915060808601356001600160401b038111156133b957600080fd5b6132e58882890161320f565b600080604083850312156133d857600080fd5b82356133e381613fd5565b946020939093013593505050565b6000806000806060858703121561340757600080fd5b843561341281613fd5565b93506020850135925060408501356001600160401b0381111561343457600080fd5b613440878288016131c7565b95989497509550505050565b60008060006060848603121561346157600080fd5b833561346c81613fd5565b92506020840135915060408401356001600160401b0381111561348e57600080fd5b61349a8682870161320f565b9150509250925092565b600080600080608085870312156134ba57600080fd5b84356001600160401b03808211156134d157600080fd5b6134dd88838901613060565b955060208701359150808211156134f357600080fd5b6134ff88838901613167565b9450604087013591508082111561351557600080fd5b50613522878288016130d6565b949793965093946060013593505050565b6000806000806080858703121561354957600080fd5b84356001600160401b038082111561356057600080fd5b61356c88838901613060565b9550602087013591508082111561358257600080fd5b61358e88838901613167565b945060408701359150808211156135a457600080fd5b6135b0888389016130d6565b935060608701359150808211156135c657600080fd5b508501601f810187136135d857600080fd5b61335187823560208401613022565b6000602082840312156135f957600080fd5b8151801515811461152457600080fd5b60006020828403121561361b57600080fd5b5051919050565b60006020828403121561363457600080fd5b81356001600160e01b03198116811461152457600080fd5b60006020828403121561365e57600080fd5b81516001600160401b0381111561367457600080fd5b8201601f8101841361368557600080fd5b805161369361303082613e5b565b8181528560208385010111156136a857600080fd5b612010826020830160208601613efb565b6000602082840312156136cb57600080fd5b813561152481613fd5565b6000602082840312156136e857600080fd5b5035919050565b6000806040838503121561370257600080fd5b82359150602083013561371481613fd5565b809150509250929050565b6000806040838503121561373257600080fd5b50508035926020909101359150565b6000806040838503121561375457600080fd5b823591506137646020840161322f565b90509250929050565b6000806000806060858703121561378357600080fd5b843593506137936020860161322f565b925060408501356001600160401b0381111561343457600080fd5b6000806000806000608086880312156137c657600080fd5b853594506137d66020870161322f565b935060408601356001600160401b03808211156137f257600080fd5b6137fe89838a016131c7565b909550935060608801359150808211156132d857600080fd5b60008060008060008060008060e0898b03121561383357600080fd5b8835975061384360208a0161322f565b965060408901356001600160401b038082111561385f57600080fd5b61386b8c838d016131c7565b909850965060608b013591508082111561388457600080fd5b506138918b828c0161320f565b9450506138a060808a0161322f565b925060a0890135915060c089013590509295985092959890939650565b600080600080600060a086880312156138d557600080fd5b853594506138e56020870161322f565b93506138f36040870161322f565b94979396509394606081013594506080013592915050565b600081518084526020808501945080840160005b838110156139445781516001600160a01b03168752958201959082019060010161391f565b509495945050505050565b600081518084526020808501808196508360051b8101915082860160005b858110156139975782840389526139858483516139d4565b9885019893509084019060010161396d565b5091979650505050505050565b600081518084526020808501945080840160005b83811015613944578151875295820195908201906001016139b8565b600081518084526139ec816020860160208601613efb565b601f01601f19169290920160200192915050565b8183823760009101908152919050565b60008251613a22818460208701613efb565b9190910192915050565b6001600160a01b0391909116815260200190565b60018060a01b038516815283602082015260a06040820152600060a082015260c060608201526000613a7560c08301856139d4565b905082608083015295945050505050565b608081526000613a99608083018761390b565b8281036020840152613aab81876139a4565b90508281036040840152613abf818661394f565b91505082606083015295945050505050565b6020810160088310613af357634e487b7160e01b600052602160045260246000fd5b91905290565b60208152600061152460208301846139d4565b602080825260189082015277476f7665726e6f723a206f6e6c79476f7665726e616e636560401b604082015260600190565b60208082526021908201527f476f7665726e6f723a20696e76616c69642070726f706f73616c206c656e67746040820152600d60fb1b606082015260800190565b60208082526023908201527f476f7665726e6f723a20766f7465206e6f742063757272656e746c792061637460408201526269766560e81b606082015260800190565b60408082526012908201527162616c616e63654f6628616464726573732960701b60608201526001600160a01b0391909116602082015260800190565b6020808252602d908201527f596f7520646f6e2774206f776e20656e6f7567682047656e65736973204e465460408201526c39903a3790383937b837b9b29760991b606082015260800190565b60208082526031908201527f476f7665726e6f723a2070726f706f73657220766f7465732062656c6f7720706040820152701c9bdc1bdcd85b081d1a1c995cda1bdb19607a1b606082015260800190565b60006101208b8352602060018060a01b038c1681850152816040850152613cc68285018c61390b565b91508382036060850152613cda828b6139a4565b915083820360808501528189518084528284019150828160051b850101838c0160005b83811015613d2b57601f19878403018552613d198383516139d4565b94860194925090850190600101613cfd565b505086810360a0880152613d3f818c61394f565b945050505050613d5a60c08401876001600160401b03169052565b6001600160401b03851660e0840152828103610100840152613d7c81856139d4565b9c9b505050505050505050505050565b918252602082015260400190565b84815260ff8416602082015282604082015260806060820152600061142060808301846139d4565b85815260ff8516602082015283604082015260a060608201526000613dea60a08301856139d4565b8281036080840152613dfc81856139d4565b98975050505050505050565b604051601f8201601f191681016001600160401b0381118282101715613e3057613e30613fbf565b604052919050565b60006001600160401b03821115613e5157613e51613fbf565b5060051b60200190565b60006001600160401b03821115613e7457613e74613fbf565b50601f01601f191660200190565b60008219821115613e9557613e95613f7d565b500190565b60006001600160401b03828116848216808303821115613ebc57613ebc613f7d565b01949350505050565b6000816000190483118215151615613edf57613edf613f7d565b500290565b600082821015613ef657613ef6613f7d565b500390565b60005b83811015613f16578181015183820152602001613efe565b838111156117475750506000910152565b600181811c90821680613f3b57607f821691505b60208210811415613f5c57634e487b7160e01b600052602260045260246000fd5b50919050565b6000600019821415613f7657613f76613f7d565b5060010190565b634e487b7160e01b600052601160045260246000fd5b634e487b7160e01b600052602160045260246000fd5b634e487b7160e01b600052603260045260246000fd5b634e487b7160e01b600052604160045260246000fd5b6001600160a01b03811681146113d557600080fdfe150214d74d59b7d1e90c73fc22ef3d991dd0a76b046543d4d80ab92d2a50328fb3b3f3b703cd84ce352197dcff232b1b5d3cfb2025ce47cf04742d0651f1af88416464726573733a206c6f772d6c6576656c2063616c6c20776974682076616c7565206661696c6564e2babfbac5889a709b63bb7f598b324e08bc5a4fb9ec647fb3cbc9ec07eb8712b8e138887d0aa13bab447e82de9d5c1777041ecd21ca36ba824ff1e6c07ddda4a164736f6c6343000806000a",
  "linkReferences": {},
  "deployedLinkReferences": {}
}