{
  "_format": "hh-sol-artifact-1",
  "contractName": "MyNftToken",
  "sourceName": "contracts/MyNftToken.sol",
  "abi": [
    {
      "inputs": [],
      "stateMutability": "nonpayable",
      "type": "constructor"
    },
    {
      "anonymous": false,
      "inputs": [
        {
          "indexed": true,
          "internalType": "address",
          "name": "owner",
          "type": "address"
        },
        {
          "indexed": true,
          "internalType": "address",
          "name": "approved",
          "type": "address"
        },
        {
          "indexed": true,
          "internalType": "uint256",
          "name": "tokenId",
          "type": "uint256"
        }
      ],
      "name": "Approval",
      "type": "event"
    },
    {
      "anonymous": false,
      "inputs": [
        {
          "indexed": true,
          "internalType": "address",
          "name": "owner",
          "type": "address"
        },
        {
          "indexed": true,
          "internalType": "address",
          "name": "operator",
          "type": "address"
        },
        {
          "indexed": false,
          "internalType": "bool",
          "name": "approved",
          "type": "bool"
        }
      ],
      "name": "ApprovalForAll",
      "type": "event"
    },
    {
      "anonymous": false,
      "inputs": [
        {
          "indexed": true,
          "internalType": "address",
          "name": "delegator",
          "type": "address"
        },
        {
          "indexed": true,
          "internalType": "address",
          "name": "fromDelegate",
          "type": "address"
        },
        {
          "indexed": true,
          "internalType": "address",
          "name": "toDelegate",
          "type": "address"
        }
      ],
      "name": "DelegateChanged",
      "type": "event"
    },
    {
      "anonymous": false,
      "inputs": [
        {
          "indexed": true,
          "internalType": "address",
          "name": "delegate",
          "type": "address"
        },
        {
          "indexed": false,
          "internalType": "uint256",
          "name": "previousBalance",
          "type": "uint256"
        },
        {
          "indexed": false,
          "internalType": "uint256",
          "name": "newBalance",
          "type": "uint256"
        }
      ],
      "name": "DelegateVotesChanged",
      "type": "event"
    },
    {
      "anonymous": false,
      "inputs": [
        {
          "indexed": true,
          "internalType": "address",
          "name": "previousOwner",
          "type": "address"
        },
        {
          "indexed": true,
          "internalType": "address",
          "name": "newOwner",
          "type": "address"
        }
      ],
      "name": "OwnershipTransferred",
      "type": "event"
    },
    {
      "anonymous": false,
      "inputs": [
        {
          "indexed": true,
          "internalType": "address",
          "name": "from",
          "type": "address"
        },
        {
          "indexed": true,
          "internalType": "address",
          "name": "to",
          "type": "address"
        },
        {
          "indexed": true,
          "internalType": "uint256",
          "name": "tokenId",
          "type": "uint256"
        }
      ],
      "name": "Transfer",
      "type": "event"
    },
    {
      "inputs": [],
      "name": "DOMAIN_SEPARATOR",
      "outputs": [
        {
          "internalType": "bytes32",
          "name": "",
          "type": "bytes32"
        }
      ],
      "stateMutability": "view",
      "type": "function"
    },
    {
      "inputs": [],
      "name": "MAX_PER_MINT",
      "outputs": [
        {
          "internalType": "uint256",
          "name": "",
          "type": "uint256"
        }
      ],
      "stateMutability": "view",
      "type": "function"
    },
    {
      "inputs": [],
      "name": "MAX_SUPPLY",
      "outputs": [
        {
          "internalType": "uint256",
          "name": "",
          "type": "uint256"
        }
      ],
      "stateMutability": "view",
      "type": "function"
    },
    {
      "inputs": [],
      "name": "PRICE",
      "outputs": [
        {
          "internalType": "uint256",
          "name": "",
          "type": "uint256"
        }
      ],
      "stateMutability": "view",
      "type": "function"
    },
    {
      "inputs": [
        {
          "internalType": "address",
          "name": "to",
          "type": "address"
        },
        {
          "internalType": "uint256",
          "name": "tokenId",
          "type": "uint256"
        }
      ],
      "name": "approve",
      "outputs": [],
      "stateMutability": "nonpayable",
      "type": "function"
    },
    {
      "inputs": [
        {
          "internalType": "address",
          "name": "owner",
          "type": "address"
        }
      ],
      "name": "balanceOf",
      "outputs": [
        {
          "internalType": "uint256",
          "name": "",
          "type": "uint256"
        }
      ],
      "stateMutability": "view",
      "type": "function"
    },
    {
      "inputs": [],
      "name": "baseTokenURI",
      "outputs": [
        {
          "internalType": "string",
          "name": "",
          "type": "string"
        }
      ],
      "stateMutability": "view",
      "type": "function"
    },
    {
      "inputs": [
        {
          "internalType": "address",
          "name": "delegatee",
          "type": "address"
        }
      ],
      "name": "delegate",
      "outputs": [],
      "stateMutability": "nonpayable",
      "type": "function"
    },
    {
      "inputs": [
        {
          "internalType": "address",
          "name": "delegatee",
          "type": "address"
        },
        {
          "internalType": "uint256",
          "name": "nonce",
          "type": "uint256"
        },
        {
          "internalType": "uint256",
          "name": "expiry",
          "type": "uint256"
        },
        {
          "internalType": "uint8",
          "name": "v",
          "type": "uint8"
        },
        {
          "internalType": "bytes32",
          "name": "r",
          "type": "bytes32"
        },
        {
          "internalType": "bytes32",
          "name": "s",
          "type": "bytes32"
        }
      ],
      "name": "delegateBySig",
      "outputs": [],
      "stateMutability": "nonpayable",
      "type": "function"
    },
    {
      "inputs": [
        {
          "internalType": "address",
          "name": "account",
          "type": "address"
        }
      ],
      "name": "delegates",
      "outputs": [
        {
          "internalType": "address",
          "name": "",
          "type": "address"
        }
      ],
      "stateMutability": "view",
      "type": "function"
    },
    {
      "inputs": [
        {
          "internalType": "uint256",
          "name": "tokenId",
          "type": "uint256"
        }
      ],
      "name": "getApproved",
      "outputs": [
        {
          "internalType": "address",
          "name": "",
          "type": "address"
        }
      ],
      "stateMutability": "view",
      "type": "function"
    },
    {
      "inputs": [
        {
          "internalType": "uint256",
          "name": "blockNumber",
          "type": "uint256"
        }
      ],
      "name": "getPastTotalSupply",
      "outputs": [
        {
          "internalType": "uint256",
          "name": "",
          "type": "uint256"
        }
      ],
      "stateMutability": "view",
      "type": "function"
    },
    {
      "inputs": [
        {
          "internalType": "address",
          "name": "account",
          "type": "address"
        },
        {
          "internalType": "uint256",
          "name": "blockNumber",
          "type": "uint256"
        }
      ],
      "name": "getPastVotes",
      "outputs": [
        {
          "internalType": "uint256",
          "name": "",
          "type": "uint256"
        }
      ],
      "stateMutability": "view",
      "type": "function"
    },
    {
      "inputs": [
        {
          "internalType": "address",
          "name": "account",
          "type": "address"
        }
      ],
      "name": "getVotes",
      "outputs": [
        {
          "internalType": "uint256",
          "name": "",
          "type": "uint256"
        }
      ],
      "stateMutability": "view",
      "type": "function"
    },
    {
      "inputs": [
        {
          "internalType": "address",
          "name": "owner",
          "type": "address"
        },
        {
          "internalType": "address",
          "name": "operator",
          "type": "address"
        }
      ],
      "name": "isApprovedForAll",
      "outputs": [
        {
          "internalType": "bool",
          "name": "",
          "type": "bool"
        }
      ],
      "stateMutability": "view",
      "type": "function"
    },
    {
      "inputs": [],
      "name": "name",
      "outputs": [
        {
          "internalType": "string",
          "name": "",
          "type": "string"
        }
      ],
      "stateMutability": "view",
      "type": "function"
    },
    {
      "inputs": [
        {
          "internalType": "address",
          "name": "owner",
          "type": "address"
        }
      ],
      "name": "nonces",
      "outputs": [
        {
          "internalType": "uint256",
          "name": "",
          "type": "uint256"
        }
      ],
      "stateMutability": "view",
      "type": "function"
    },
    {
      "inputs": [],
      "name": "owner",
      "outputs": [
        {
          "internalType": "address",
          "name": "",
          "type": "address"
        }
      ],
      "stateMutability": "view",
      "type": "function"
    },
    {
      "inputs": [
        {
          "internalType": "uint256",
          "name": "tokenId",
          "type": "uint256"
        }
      ],
      "name": "ownerOf",
      "outputs": [
        {
          "internalType": "address",
          "name": "",
          "type": "address"
        }
      ],
      "stateMutability": "view",
      "type": "function"
    },
    {
      "inputs": [],
      "name": "renounceOwnership",
      "outputs": [],
      "stateMutability": "nonpayable",
      "type": "function"
    },
    {
      "inputs": [
        {
          "internalType": "address",
          "name": "to",
          "type": "address"
        }
      ],
      "name": "safeMint",
      "outputs": [],
      "stateMutability": "payable",
      "type": "function"
    },
    {
      "inputs": [
        {
          "internalType": "address",
          "name": "from",
          "type": "address"
        },
        {
          "internalType": "address",
          "name": "to",
          "type": "address"
        },
        {
          "internalType": "uint256",
          "name": "tokenId",
          "type": "uint256"
        }
      ],
      "name": "safeTransferFrom",
      "outputs": [],
      "stateMutability": "nonpayable",
      "type": "function"
    },
    {
      "inputs": [
        {
          "internalType": "address",
          "name": "from",
          "type": "address"
        },
        {
          "internalType": "address",
          "name": "to",
          "type": "address"
        },
        {
          "internalType": "uint256",
          "name": "tokenId",
          "type": "uint256"
        },
        {
          "internalType": "bytes",
          "name": "data",
          "type": "bytes"
        }
      ],
      "name": "safeTransferFrom",
      "outputs": [],
      "stateMutability": "nonpayable",
      "type": "function"
    },
    {
      "inputs": [
        {
          "internalType": "address",
          "name": "operator",
          "type": "address"
        },
        {
          "internalType": "bool",
          "name": "approved",
          "type": "bool"
        }
      ],
      "name": "setApprovalForAll",
      "outputs": [],
      "stateMutability": "nonpayable",
      "type": "function"
    },
    {
      "inputs": [
        {
          "internalType": "string",
          "name": "_baseTokenURI",
          "type": "string"
        }
      ],
      "name": "setBaseURI",
      "outputs": [],
      "stateMutability": "nonpayable",
      "type": "function"
    },
    {
      "inputs": [
        {
          "internalType": "bytes4",
          "name": "interfaceId",
          "type": "bytes4"
        }
      ],
      "name": "supportsInterface",
      "outputs": [
        {
          "internalType": "bool",
          "name": "",
          "type": "bool"
        }
      ],
      "stateMutability": "view",
      "type": "function"
    },
    {
      "inputs": [],
      "name": "symbol",
      "outputs": [
        {
          "internalType": "string",
          "name": "",
          "type": "string"
        }
      ],
      "stateMutability": "view",
      "type": "function"
    },
    {
      "inputs": [
        {
          "internalType": "uint256",
          "name": "tokenId",
          "type": "uint256"
        }
      ],
      "name": "tokenURI",
      "outputs": [
        {
          "internalType": "string",
          "name": "",
          "type": "string"
        }
      ],
      "stateMutability": "view",
      "type": "function"
    },
    {
      "inputs": [
        {
          "internalType": "address",
          "name": "from",
          "type": "address"
        },
        {
          "internalType": "address",
          "name": "to",
          "type": "address"
        },
        {
          "internalType": "uint256",
          "name": "tokenId",
          "type": "uint256"
        }
      ],
      "name": "transferFrom",
      "outputs": [],
      "stateMutability": "nonpayable",
      "type": "function"
    },
    {
      "inputs": [
        {
          "internalType": "address",
          "name": "newOwner",
          "type": "address"
        }
      ],
      "name": "transferOwnership",
      "outputs": [],
      "stateMutability": "nonpayable",
      "type": "function"
    }
  ],
  "bytecode": "0x6101c060405260516101408181529062002beb6101603980516200002c91600d9160209091019062000230565b503480156200003a57600080fd5b506040518060400160405280600c81526020016b23b2b732b9b4b9aa37b5b2b760a11b815250604051806040016040528060018152602001603160f81b8152506040518060400160405280600c81526020016b23b2b732b9b4b9aa37b5b2b760a11b8152506040518060400160405280600281526020016111d560f21b8152508160009080519060200190620000d292919062000230565b508051620000e890600190602084019062000230565b50505062000105620000ff620001cb60201b60201c565b620001cf565b815160208084019190912082518383012060e08290526101008190524660a0818152604080517f8b73c3c69bb8fe3d512ecc4cf759cc79239f7b179b0ffacaa9a75d522b39400f81880181905281830187905260608201869052608082019490945230818401528151808203909301835260c00190528051940193909320919290916080523060601b60c0526101205250620001a5925050620002219050565b600c80546001600160a01b0319166001600160a01b039290921691909117905562000313565b3390565b600680546001600160a01b038381166001600160a01b0319831681179093556040519116919082907f8be0079c531659141344cd1fd0a4f28419497f9722a3daafe3b4186f6b6457e090600090a35050565b6006546001600160a01b031690565b8280546200023e90620002d6565b90600052602060002090601f016020900481019282620002625760008555620002ad565b82601f106200027d57805160ff1916838001178555620002ad565b82800160010185558215620002ad579182015b82811115620002ad57825182559160200191906001019062000290565b50620002bb929150620002bf565b5090565b5b80821115620002bb5760008155600101620002c0565b600181811c90821680620002eb57607f821691505b602082108114156200030d57634e487b7160e01b600052602260045260246000fd5b50919050565b60805160a05160c05160601c60e0516101005161012051612885620003666000396000611283015260006112d2015260006112ad01526000611206015260006112300152600061125a01526128856000f3fe6080604052600436106101cd5760003560e01c806370a08231116100f75780639ab24eb011610095578063c87b56dd11610064578063c87b56dd14610520578063d547cfb714610540578063e985e9c514610555578063f2fde38b1461059e57600080fd5b80639ab24eb0146104a0578063a22cb465146104c0578063b88d4fde146104e0578063c3cda5201461050057600080fd5b80638d859f3e116100d15780638d859f3e146104325780638da5cb5b1461044d5780638e539e8c1461046b57806395d89b411461048b57600080fd5b806370a08231146103dd578063715018a6146103fd5780637ecebe001461041257600080fd5b80633644e5151161016f57806355f804b31161013e57806355f804b314610344578063587cde1e146103645780635c19a95c1461039d5780636352211e146103bd57600080fd5b80633644e515146102dc5780633a46b1a8146102f157806340d097c31461031157806342842e0e1461032457600080fd5b8063095ea7b3116101ab578063095ea7b31461026157806309d42b301461028357806323b872dd146102a657806332cb6b0c146102c657600080fd5b806301ffc9a7146101d257806306fdde0314610207578063081812fc14610229575b600080fd5b3480156101de57600080fd5b506101f26101ed3660046125db565b6105be565b60405190151581526020015b60405180910390f35b34801561021357600080fd5b5061021c610610565b6040516101fe919061270e565b34801561023557600080fd5b5061024961024436600461265e565b6106a2565b6040516001600160a01b0390911681526020016101fe565b34801561026d57600080fd5b5061028161027c366004612551565b6106c9565b005b34801561028f57600080fd5b50610298600581565b6040519081526020016101fe565b3480156102b257600080fd5b506102816102c136600461245d565b6107e4565b3480156102d257600080fd5b5061029861025881565b3480156102e857600080fd5b5061029861085c565b3480156102fd57600080fd5b5061029861030c366004612551565b61086b565b61028161031f36600461240f565b610894565b34801561033057600080fd5b5061028161033f36600461245d565b61091f565b34801561035057600080fd5b5061028161035f366004612615565b61093a565b34801561037057600080fd5b5061024961037f36600461240f565b6001600160a01b039081166000908152600760205260409020541690565b3480156103a957600080fd5b506102816103b836600461240f565b6109e2565b3480156103c957600080fd5b506102496103d836600461265e565b6109ed565b3480156103e957600080fd5b506102986103f836600461240f565b610a52565b34801561040957600080fd5b50610281610aec565b34801561041e57600080fd5b5061029861042d36600461240f565b610b00565b34801561043e57600080fd5b5061029866470de4df82000081565b34801561045957600080fd5b506006546001600160a01b0316610249565b34801561047757600080fd5b5061029861048636600461265e565b610b1e565b34801561049757600080fd5b5061021c610b7a565b3480156104ac57600080fd5b506102986104bb36600461240f565b610b89565b3480156104cc57600080fd5b506102816104db366004612515565b610baa565b3480156104ec57600080fd5b506102816104fb366004612499565b610bb5565b34801561050c57600080fd5b5061028161051b36600461257b565b610c34565b34801561052c57600080fd5b5061021c61053b36600461265e565b610d6a565b34801561054c57600080fd5b5061021c610dd0565b34801561056157600080fd5b506101f261057036600461242a565b6001600160a01b03918216600090815260056020908152604080832093909416825291909152205460ff1690565b3480156105aa57600080fd5b506102816105b936600461240f565b610e5e565b60006001600160e01b031982166380ac58cd60e01b14806105ef57506001600160e01b03198216635b5e139f60e01b145b8061060a57506301ffc9a760e01b6001600160e01b03198316145b92915050565b60606000805461061f90612790565b80601f016020809104026020016040519081016040528092919081815260200182805461064b90612790565b80156106985780601f1061066d57610100808354040283529160200191610698565b820191906000526020600020905b81548152906001019060200180831161067b57829003601f168201915b5050505050905090565b60006106ad82610eee565b506000908152600460205260409020546001600160a01b031690565b60006106d4826109ed565b9050806001600160a01b0316836001600160a01b031614156107475760405162461bcd60e51b815260206004820152602160248201527f4552433732313a20617070726f76616c20746f2063757272656e74206f776e656044820152603960f91b60648201526084015b60405180910390fd5b336001600160a01b038216148061076357506107638133610570565b6107d55760405162461bcd60e51b815260206004820152603e60248201527f4552433732313a20617070726f76652063616c6c6572206973206e6f7420746f60448201527f6b656e206f776e6572206e6f7220617070726f76656420666f7220616c6c0000606482015260840161073e565b6107df8383610f52565b505050565b6107ee3382610fc0565b6108515760405162461bcd60e51b815260206004820152602e60248201527f4552433732313a2063616c6c6572206973206e6f7420746f6b656e206f776e6560448201526d1c881b9bdc88185c1c1c9bdd995960921b606482015260840161073e565b6107df83838361103f565b60006108666111f9565b905090565b6001600160a01b038216600090815260086020526040812061088d9083611320565b9392505050565b66470de4df8200003410156108f65760405162461bcd60e51b815260206004820152602260248201527f4e6f7420656e6f75676820657468657220746f207075726368617365204e4654604482015261399760f11b606482015260840161073e565b6000610901600b5490565b905061090d828261142f565b61091b600b80546001019055565b5050565b6107df83838360405180602001604052806000815250610bb5565b600c546001600160a01b031633148061095d57506006546001600160a01b031633145b6109cf5760405162461bcd60e51b815260206004820152603060248201527f596f7520646f206e6f742068617665207065726d697373696f6e20746f20757360448201527f6520746869732066756e6374696f6e2e00000000000000000000000000000000606482015260840161073e565b805161091b90600d9060208401906122ed565b3361091b8183611449565b6000818152600260205260408120546001600160a01b03168061060a5760405162461bcd60e51b815260206004820152601860248201527f4552433732313a20696e76616c696420746f6b656e2049440000000000000000604482015260640161073e565b60006001600160a01b038216610ad05760405162461bcd60e51b815260206004820152602960248201527f4552433732313a2061646472657373207a65726f206973206e6f74206120766160448201527f6c6964206f776e65720000000000000000000000000000000000000000000000606482015260840161073e565b506001600160a01b031660009081526003602052604090205490565b610af46114bb565b610afe6000611515565b565b6001600160a01b0381166000908152600a602052604081205461060a565b6000438210610b6f5760405162461bcd60e51b815260206004820152601a60248201527f566f7465733a20626c6f636b206e6f7420796574206d696e6564000000000000604482015260640161073e565b61060a600983611320565b60606001805461061f90612790565b6001600160a01b038116600090815260086020526040812061060a90611567565b61091b3383836115c3565b610bbf3383610fc0565b610c225760405162461bcd60e51b815260206004820152602e60248201527f4552433732313a2063616c6c6572206973206e6f7420746f6b656e206f776e6560448201526d1c881b9bdc88185c1c1c9bdd995960921b606482015260840161073e565b610c2e84848484611692565b50505050565b83421115610c845760405162461bcd60e51b815260206004820152601860248201527f566f7465733a207369676e617475726520657870697265640000000000000000604482015260640161073e565b604080517fe48329057bfd03d55e49b547132e39cffd9c1820ad7b9d4c5307691425d15adf60208201526001600160a01b038816918101919091526060810186905260808101859052600090610cfe90610cf69060a00160405160208183030381529060405280519060200120611710565b85858561175e565b9050610d0981611786565b8614610d575760405162461bcd60e51b815260206004820152601460248201527f566f7465733a20696e76616c6964206e6f6e6365000000000000000000000000604482015260640161073e565b610d618188611449565b50505050505050565b6060610d7582610eee565b6000610d7f6117ae565b90506000815111610d9f576040518060200160405280600081525061088d565b80610da9846117bd565b604051602001610dba9291906126a3565b6040516020818303038152906040529392505050565b600d8054610ddd90612790565b80601f0160208091040260200160405190810160405280929190818152602001828054610e0990612790565b8015610e565780601f10610e2b57610100808354040283529160200191610e56565b820191906000526020600020905b815481529060010190602001808311610e3957829003601f168201915b505050505081565b610e666114bb565b6001600160a01b038116610ee25760405162461bcd60e51b815260206004820152602660248201527f4f776e61626c653a206e6577206f776e657220697320746865207a65726f206160448201527f6464726573730000000000000000000000000000000000000000000000000000606482015260840161073e565b610eeb81611515565b50565b6000818152600260205260409020546001600160a01b0316610eeb5760405162461bcd60e51b815260206004820152601860248201527f4552433732313a20696e76616c696420746f6b656e2049440000000000000000604482015260640161073e565b600081815260046020526040902080546001600160a01b0319166001600160a01b0384169081179091558190610f87826109ed565b6001600160a01b03167f8c5be1e5ebec7d5bd14f71427d1e84f3dd0314c0f7b2291e5b200ac8c7c3b92560405160405180910390a45050565b600080610fcc836109ed565b9050806001600160a01b0316846001600160a01b0316148061101357506001600160a01b0380821660009081526005602090815260408083209388168352929052205460ff165b806110375750836001600160a01b031661102c846106a2565b6001600160a01b0316145b949350505050565b826001600160a01b0316611052826109ed565b6001600160a01b0316146110ce5760405162461bcd60e51b815260206004820152602560248201527f4552433732313a207472616e736665722066726f6d20696e636f72726563742060448201527f6f776e6572000000000000000000000000000000000000000000000000000000606482015260840161073e565b6001600160a01b0382166111305760405162461bcd60e51b8152602060048201526024808201527f4552433732313a207472616e7366657220746f20746865207a65726f206164646044820152637265737360e01b606482015260840161073e565b61113b600082610f52565b6001600160a01b038316600090815260036020526040812080546001929061116490849061274d565b90915550506001600160a01b0382166000908152600360205260408120805460019290611192908490612721565b909155505060008181526002602052604080822080546001600160a01b0319166001600160a01b0386811691821790925591518493918716917fddf252ad1be2c89b69c2b068fc378daa952ba7f163c4a11628f55a4df523b3ef91a46107df8383836118d3565b6000306001600160a01b037f00000000000000000000000000000000000000000000000000000000000000001614801561125257507f000000000000000000000000000000000000000000000000000000000000000046145b1561127c57507f000000000000000000000000000000000000000000000000000000000000000090565b50604080517f00000000000000000000000000000000000000000000000000000000000000006020808301919091527f0000000000000000000000000000000000000000000000000000000000000000828401527f000000000000000000000000000000000000000000000000000000000000000060608301524660808301523060a0808401919091528351808403909101815260c0909201909252805191012090565b60004382106113715760405162461bcd60e51b815260206004820181905260248201527f436865636b706f696e74733a20626c6f636b206e6f7420796574206d696e6564604482015260640161073e565b825460005b818110156113d657600061138a82846118de565b9050848660000182815481106113a2576113a2612836565b60009182526020909120015463ffffffff1611156113c2578092506113d0565b6113cd816001612721565b91505b50611376565b811561141a57846113e860018461274d565b815481106113f8576113f8612836565b60009182526020909120015464010000000090046001600160e01b031661141d565b60005b6001600160e01b031695945050505050565b61091b8282604051806020016040528060008152506118f9565b6001600160a01b0382811660008181526007602052604080822080548686166001600160a01b0319821681179092559151919094169392849290917f3134e8a2e6d97e929a7e54011ea5485d7d196dd5f0ba4d4ef95803e8e3fc257f9190a46107df81836114b686611977565b611982565b6006546001600160a01b03163314610afe5760405162461bcd60e51b815260206004820181905260248201527f4f776e61626c653a2063616c6c6572206973206e6f7420746865206f776e6572604482015260640161073e565b600680546001600160a01b038381166001600160a01b0319831681179093556040519116919082907f8be0079c531659141344cd1fd0a4f28419497f9722a3daafe3b4186f6b6457e090600090a35050565b805460009080156115b0578261157e60018361274d565b8154811061158e5761158e612836565b60009182526020909120015464010000000090046001600160e01b03166115b3565b60005b6001600160e01b03169392505050565b816001600160a01b0316836001600160a01b031614156116255760405162461bcd60e51b815260206004820152601960248201527f4552433732313a20617070726f766520746f2063616c6c657200000000000000604482015260640161073e565b6001600160a01b03838116600081815260056020908152604080832094871680845294825291829020805460ff191686151590811790915591519182527f17307eab39ab6107e8899845ad3d59bd9653f200f220920489ca2b5937696c31910160405180910390a3505050565b61169d84848461103f565b6116a984848484611abf565b610c2e5760405162461bcd60e51b815260206004820152603260248201527f4552433732313a207472616e7366657220746f206e6f6e20455243373231526560448201527131b2b4bb32b91034b6b83632b6b2b73a32b960711b606482015260840161073e565b600061060a61171d6111f9565b8360405161190160f01b6020820152602281018390526042810182905260009060620160405160208183030381529060405280519060200120905092915050565b600080600061176f87878787611c14565b9150915061177c81611d01565b5095945050505050565b6001600160a01b0381166000908152600a602052604090208054600181018255905b50919050565b6060600d805461061f90612790565b6060816117e15750506040805180820190915260018152600360fc1b602082015290565b8160005b811561180b57806117f5816127c5565b91506118049050600a83612739565b91506117e5565b60008167ffffffffffffffff8111156118265761182661284c565b6040519080825280601f01601f191660200182016040528015611850576020820181803683370190505b5090505b84156110375761186560018361274d565b9150611872600a866127e0565b61187d906030612721565b60f81b81838151811061189257611892612836565b60200101907effffffffffffffffffffffffffffffffffffffffffffffffffffffffffffff1916908160001a9053506118cc600a86612739565b9450611854565b6107df838383611ebc565b60006118ed6002848418612739565b61088d90848416612721565b6119038383611ec8565b6119106000848484611abf565b6107df5760405162461bcd60e51b815260206004820152603260248201527f4552433732313a207472616e7366657220746f206e6f6e20455243373231526560448201527131b2b4bb32b91034b6b83632b6b2b73a32b960711b606482015260840161073e565b600061060a82610a52565b816001600160a01b0316836001600160a01b0316141580156119a45750600081115b156107df576001600160a01b03831615611a32576001600160a01b038316600090815260086020526040812081906119df906120128561201e565b91509150846001600160a01b03167fdec2bacdd2f05b59de34da9b523dff8be42e5e38e818c82fdb0bae774387a7248383604051611a27929190918252602082015260400190565b60405180910390a250505b6001600160a01b038216156107df576001600160a01b03821660009081526008602052604081208190611a689061204c8561201e565b91509150836001600160a01b03167fdec2bacdd2f05b59de34da9b523dff8be42e5e38e818c82fdb0bae774387a7248383604051611ab0929190918252602082015260400190565b60405180910390a25050505050565b60006001600160a01b0384163b15611c0c57604051630a85bd0160e11b81526001600160a01b0385169063150b7a0290611b039033908990889088906004016126d2565b602060405180830381600087803b158015611b1d57600080fd5b505af1925050508015611b4d575060408051601f3d908101601f19168201909252611b4a918101906125f8565b60015b611bf2573d808015611b7b576040519150601f19603f3d011682016040523d82523d6000602084013e611b80565b606091505b508051611bea5760405162461bcd60e51b815260206004820152603260248201527f4552433732313a207472616e7366657220746f206e6f6e20455243373231526560448201527131b2b4bb32b91034b6b83632b6b2b73a32b960711b606482015260840161073e565b805181602001fd5b6001600160e01b031916630a85bd0160e11b149050611037565b506001611037565b6000807f7fffffffffffffffffffffffffffffff5d576e7357a4501ddfe92f46681b20a0831115611c4b5750600090506003611cf8565b8460ff16601b14158015611c6357508460ff16601c14155b15611c745750600090506004611cf8565b6040805160008082526020820180845289905260ff881692820192909252606081018690526080810185905260019060a0016020604051602081039080840390855afa158015611cc8573d6000803e3d6000fd5b5050604051601f1901519150506001600160a01b038116611cf157600060019250925050611cf8565b9150600090505b94509492505050565b6000816004811115611d1557611d15612820565b1415611d1e5750565b6001816004811115611d3257611d32612820565b1415611d805760405162461bcd60e51b815260206004820152601860248201527f45434453413a20696e76616c6964207369676e61747572650000000000000000604482015260640161073e565b6002816004811115611d9457611d94612820565b1415611de25760405162461bcd60e51b815260206004820152601f60248201527f45434453413a20696e76616c6964207369676e6174757265206c656e67746800604482015260640161073e565b6003816004811115611df657611df6612820565b1415611e4f5760405162461bcd60e51b815260206004820152602260248201527f45434453413a20696e76616c6964207369676e6174757265202773272076616c604482015261756560f01b606482015260840161073e565b6004816004811115611e6357611e63612820565b1415610eeb5760405162461bcd60e51b815260206004820152602260248201527f45434453413a20696e76616c6964207369676e6174757265202776272076616c604482015261756560f01b606482015260840161073e565b6107df83836001612058565b6001600160a01b038216611f1e5760405162461bcd60e51b815260206004820181905260248201527f4552433732313a206d696e7420746f20746865207a65726f2061646472657373604482015260640161073e565b6000818152600260205260409020546001600160a01b031615611f835760405162461bcd60e51b815260206004820152601c60248201527f4552433732313a20746f6b656e20616c7265616479206d696e74656400000000604482015260640161073e565b6001600160a01b0382166000908152600360205260408120805460019290611fac908490612721565b909155505060008181526002602052604080822080546001600160a01b0319166001600160a01b03861690811790915590518392907fddf252ad1be2c89b69c2b068fc378daa952ba7f163c4a11628f55a4df523b3ef908290a461091b600083836118d3565b600061088d828461274d565b6000806120408561203b61203188611567565b868863ffffffff16565b6120c8565b91509150935093915050565b600061088d8284612721565b6001600160a01b03831661207757612074600961204c8361201e565b50505b6001600160a01b0382166120965761209360096120128361201e565b50505b6001600160a01b038381166000908152600760205260408082205485841683529120546107df92918216911683611982565b81546000908190816120d986611567565b9050600082118015612117575043866120f360018561274d565b8154811061210357612103612836565b60009182526020909120015463ffffffff16145b1561217757612125856121ee565b8661213160018561274d565b8154811061214157612141612836565b9060005260206000200160000160046101000a8154816001600160e01b0302191690836001600160e01b031602179055506121e5565b85600001604051806040016040528061218f43612271565b63ffffffff1681526020016121a3886121ee565b6001600160e01b0390811690915282546001810184556000938452602093849020835194909301519091166401000000000263ffffffff909316929092179101555b95939450505050565b60006001600160e01b0382111561226d5760405162461bcd60e51b815260206004820152602760248201527f53616665436173743a2076616c756520646f65736e27742066697420696e203260448201527f3234206269747300000000000000000000000000000000000000000000000000606482015260840161073e565b5090565b600063ffffffff82111561226d5760405162461bcd60e51b815260206004820152602660248201527f53616665436173743a2076616c756520646f65736e27742066697420696e203360448201527f3220626974730000000000000000000000000000000000000000000000000000606482015260840161073e565b8280546122f990612790565b90600052602060002090601f01602090048101928261231b5760008555612361565b82601f1061233457805160ff1916838001178555612361565b82800160010185558215612361579182015b82811115612361578251825591602001919060010190612346565b5061226d9291505b8082111561226d5760008155600101612369565b600067ffffffffffffffff808411156123985761239861284c565b604051601f8501601f19908116603f011681019082821181831017156123c0576123c061284c565b816040528093508581528686860111156123d957600080fd5b858560208301376000602087830101525050509392505050565b80356001600160a01b038116811461240a57600080fd5b919050565b60006020828403121561242157600080fd5b61088d826123f3565b6000806040838503121561243d57600080fd5b612446836123f3565b9150612454602084016123f3565b90509250929050565b60008060006060848603121561247257600080fd5b61247b846123f3565b9250612489602085016123f3565b9150604084013590509250925092565b600080600080608085870312156124af57600080fd5b6124b8856123f3565b93506124c6602086016123f3565b925060408501359150606085013567ffffffffffffffff8111156124e957600080fd5b8501601f810187136124fa57600080fd5b6125098782356020840161237d565b91505092959194509250565b6000806040838503121561252857600080fd5b612531836123f3565b91506020830135801515811461254657600080fd5b809150509250929050565b6000806040838503121561256457600080fd5b61256d836123f3565b946020939093013593505050565b60008060008060008060c0878903121561259457600080fd5b61259d876123f3565b95506020870135945060408701359350606087013560ff811681146125c157600080fd5b9598949750929560808101359460a0909101359350915050565b6000602082840312156125ed57600080fd5b813561088d81612862565b60006020828403121561260a57600080fd5b815161088d81612862565b60006020828403121561262757600080fd5b813567ffffffffffffffff81111561263e57600080fd5b8201601f8101841361264f57600080fd5b6110378482356020840161237d565b60006020828403121561267057600080fd5b5035919050565b6000815180845261268f816020860160208601612764565b601f01601f19169290920160200192915050565b600083516126b5818460208801612764565b8351908301906126c9818360208801612764565b01949350505050565b60006001600160a01b038087168352808616602084015250836040830152608060608301526127046080830184612677565b9695505050505050565b60208152600061088d6020830184612677565b60008219821115612734576127346127f4565b500190565b6000826127485761274861280a565b500490565b60008282101561275f5761275f6127f4565b500390565b60005b8381101561277f578181015183820152602001612767565b83811115610c2e5750506000910152565b600181811c908216806127a457607f821691505b602082108114156117a857634e487b7160e01b600052602260045260246000fd5b60006000198214156127d9576127d96127f4565b5060010190565b6000826127ef576127ef61280a565b500690565b634e487b7160e01b600052601160045260246000fd5b634e487b7160e01b600052601260045260246000fd5b634e487b7160e01b600052602160045260246000fd5b634e487b7160e01b600052603260045260246000fd5b634e487b7160e01b600052604160045260246000fd5b6001600160e01b031981168114610eeb57600080fdfea164736f6c6343000806000a68747470733a2f2f676174657761792e70696e6174612e636c6f75642f697066732f516d523179484a596166426b7743584d666e79746f515872796979575769436e63546f746b4b78734867685447582f",
  "linkReferences": {},
  "deployedLinkReferences": {}
}