{
  "_format": "hh-sol-artifact-1",
  "contractName": "MyGovernorHelper",
  "sourceName": "contracts/MyGovernorHelper.sol",
  "abi": [
    {
      "inputs": [
        {
          "internalType": "address",
          "name": "myGovernorX",
          "type": "address"
        }
      ],
      "stateMutability": "payable",
      "type": "constructor"
    },
    {
      "anonymous": false,
      "inputs": [
        {
          "indexed": false,
          "internalType": "uint256",
          "name": "gas",
          "type": "uint256"
        }
      ],
      "name": "Log",
      "type": "event"
    },
    {
      "stateMutability": "payable",
      "type": "fallback"
    },
    {
      "inputs": [],
      "name": "daughterToken",
      "outputs": [
        {
          "internalType": "contract ProjectNftToken",
          "name": "",
          "type": "address"
        }
      ],
      "stateMutability": "view",
      "type": "function"
    },
    {
      "inputs": [
        {
          "internalType": "uint256",
          "name": "proposalId",
          "type": "uint256"
        },
        {
          "internalType": "contract ICompoundTimelock",
          "name": "_timelock",
          "type": "address"
        }
      ],
      "name": "newProject",
      "outputs": [
        {
          "internalType": "address",
          "name": "newContract",
          "type": "address"
        }
      ],
      "stateMutability": "payable",
      "type": "function"
    }
  ],
  "bytecode": "0x6080604052604051612cf3380380612cf383398101604081905261002291610047565b600080546001600160a01b0319166001600160a01b0392909216919091179055610077565b60006020828403121561005957600080fd5b81516001600160a01b038116811461007057600080fd5b9392505050565b612c6d806100866000396000f3fe6080604052600436106100295760003560e01c80631084b3f91461005e5780637627ffb41461009a575b7f909c57d5c6ac08245cf2a6de3900e2b868513fa59099b92b27d8db823d92df9c5a60405190815260200160405180910390a1005b34801561006a57600080fd5b5060015461007e906001600160a01b031681565b6040516001600160a01b03909116815260200160405180910390f35b61007e6100a8366004610207565b60006040516100b6906101e1565b604051809103906000f0801580156100d2573d6000803e3d6000fd5b50600180546001600160a01b0319166001600160a01b039283169081179091556000546040516206a9bb60ec1b8152600481018790529192169063990dc9db9083908390636a9bb0009060240160206040518083038186803b15801561013757600080fd5b505afa15801561014b573d6000803e3d6000fd5b505050506040513d601f19601f8201168201806040525081019061016f91906101ee565b6040516001600160e01b031960e085901b1681526001600160a01b0390921660048301526024820152604401600060405180830381600087803b1580156101b557600080fd5b505af11580156101c9573d6000803e3d6000fd5b50506001546001600160a01b03169695505050505050565b612a1d8061024483390190565b60006020828403121561020057600080fd5b5051919050565b6000806040838503121561021a57600080fd5b8235915060208301356001600160a01b038116811461023857600080fd5b80915050925092905056fe6101c0604052605161014081815290620029cc6101603980516200002c91600d9160209091019062000222565b506040518060400160405280600c81526020016b283937b532b1ba2a37b5b2b760a11b815250604051806040016040528060018152602001603160f81b8152506040518060400160405280600c81526020016b283937b532b1ba2a37b5b2b760a11b8152506040518060400160405280600281526020016111d560f21b8152508160009080519060200190620000c492919062000222565b508051620000da90600190602084019062000222565b505050620000f7620000f1620001bd60201b60201c565b620001c1565b815160208084019190912082518383012060e08290526101008190524660a0818152604080517f8b73c3c69bb8fe3d512ecc4cf759cc79239f7b179b0ffacaa9a75d522b39400f81880181905281830187905260608201869052608082019490945230818401528151808203909301835260c00190528051940193909320919290916080523060601b60c052610120525062000197925050620002139050565b600c80546001600160a01b0319166001600160a01b039290921691909117905562000305565b3390565b600680546001600160a01b038381166001600160a01b0319831681179093556040519116919082907f8be0079c531659141344cd1fd0a4f28419497f9722a3daafe3b4186f6b6457e090600090a35050565b6006546001600160a01b031690565b8280546200023090620002c8565b90600052602060002090601f0160209004810192826200025457600085556200029f565b82601f106200026f57805160ff19168380011785556200029f565b828001600101855582156200029f579182015b828111156200029f57825182559160200191906001019062000282565b50620002ad929150620002b1565b5090565b5b80821115620002ad5760008155600101620002b2565b600181811c90821680620002dd57607f821691505b60208210811415620002ff57634e487b7160e01b600052602260045260246000fd5b50919050565b60805160a05160c05160601c60e05161010051610120516126746200035860003960006110d101526000611120015260006110fb015260006110540152600061107e015260006110a801526126746000f3fe60806040526004361061015d5760003560e01c806301ffc9a71461019257806306fdde03146101c7578063081812fc146101e9578063095ea7b31461022157806309d42b301461024357806323b872dd1461026657806332cb6b0c146102865780633644e5151461029c5780633a46b1a8146102b157806340d097c3146102d157806342842e0e146102e457806355f804b314610304578063587cde1e146103245780635c19a95c146103445780636352211e1461036457806370a0823114610384578063715018a6146103a45780637ecebe00146103b95780638d859f3e146103d95780638da5cb5b146103f45780638e539e8c1461040957806395d89b41146104295780639ab24eb01461043e578063a22cb4651461045e578063b88d4fde1461047e578063c3cda5201461049e578063c87b56dd146104be578063d547cfb7146104de578063e985e9c5146104f3578063f2fde38b14610513575b7f909c57d5c6ac08245cf2a6de3900e2b868513fa59099b92b27d8db823d92df9c5a60405190815260200160405180910390a1005b34801561019e57600080fd5b506101b26101ad3660046122b8565b610533565b60405190151581526020015b60405180910390f35b3480156101d357600080fd5b506101dc610585565b6040516101be91906123eb565b3480156101f557600080fd5b5061020961020436600461233a565b610617565b6040516001600160a01b0390911681526020016101be565b34801561022d57600080fd5b5061024161023c36600461222e565b61063e565b005b34801561024f57600080fd5b50610258600581565b6040519081526020016101be565b34801561027257600080fd5b5061024161028136600461213b565b610759565b34801561029257600080fd5b5061025861025881565b3480156102a857600080fd5b5061025861078a565b3480156102bd57600080fd5b506102586102cc36600461222e565b610799565b6102416102df3660046120ed565b6107c2565b3480156102f057600080fd5b506102416102ff36600461213b565b61084d565b34801561031057600080fd5b5061024161031f3660046122f2565b610868565b34801561033057600080fd5b5061020961033f3660046120ed565b610911565b34801561035057600080fd5b5061024161035f3660046120ed565b61092f565b34801561037057600080fd5b5061020961037f36600461233a565b61093a565b34801561039057600080fd5b5061025861039f3660046120ed565b61096f565b3480156103b057600080fd5b506102416109f5565b3480156103c557600080fd5b506102586103d43660046120ed565b610a09565b3480156103e557600080fd5b5061025866470de4df82000081565b34801561040057600080fd5b50610209610a27565b34801561041557600080fd5b5061025861042436600461233a565b610a36565b34801561043557600080fd5b506101dc610a8f565b34801561044a57600080fd5b506102586104593660046120ed565b610a9e565b34801561046a57600080fd5b506102416104793660046121f2565b610abf565b34801561048a57600080fd5b50610241610499366004612177565b610aca565b3480156104aa57600080fd5b506102416104b9366004612258565b610b02565b3480156104ca57600080fd5b506101dc6104d936600461233a565b610c2a565b3480156104ea57600080fd5b506101dc610c90565b3480156104ff57600080fd5b506101b261050e366004612108565b610d1e565b34801561051f57600080fd5b5061024161052e3660046120ed565b610d4c565b60006001600160e01b031982166380ac58cd60e01b148061056457506001600160e01b03198216635b5e139f60e01b145b8061057f57506301ffc9a760e01b6001600160e01b03198316145b92915050565b6060600080546105949061253f565b80601f01602080910402602001604051908101604052809291908181526020018280546105c09061253f565b801561060d5780601f106105e25761010080835404028352916020019161060d565b820191906000526020600020905b8154815290600101906020018083116105f057829003601f168201915b5050505050905090565b600061062282610dc5565b506000908152600460205260409020546001600160a01b031690565b60006106498261093a565b9050806001600160a01b0316836001600160a01b031614156106bc5760405162461bcd60e51b815260206004820152602160248201527f4552433732313a20617070726f76616c20746f2063757272656e74206f776e656044820152603960f91b60648201526084015b60405180910390fd5b336001600160a01b03821614806106d857506106d88133610d1e565b61074a5760405162461bcd60e51b815260206004820152603e60248201527f4552433732313a20617070726f76652063616c6c6572206973206e6f7420746f60448201527f6b656e206f776e6572206e6f7220617070726f76656420666f7220616c6c000060648201526084016106b3565b6107548383610dea565b505050565b6107633382610e58565b61077f5760405162461bcd60e51b81526004016106b390612482565b610754838383610eb7565b6000610794611047565b905090565b6001600160a01b03821660009081526008602052604081206107bb908361116e565b9392505050565b66470de4df8200003410156108245760405162461bcd60e51b815260206004820152602260248201527f4e6f7420656e6f75676820657468657220746f207075726368617365204e4654604482015261399760f11b60648201526084016106b3565b600061082f600b5490565b905061083b828261127c565b610849600b80546001019055565b5050565b61075483838360405180602001604052806000815250610aca565b600c546001600160a01b03163314806108995750610884610a27565b6001600160a01b0316336001600160a01b0316145b6108fe5760405162461bcd60e51b815260206004820152603060248201527f596f7520646f206e6f742068617665207065726d697373696f6e20746f20757360448201526f32903a3434b990333ab731ba34b7b71760811b60648201526084016106b3565b805161084990600d906020840190611fcc565b6001600160a01b039081166000908152600760205260409020541690565b336108498183611296565b6000818152600260205260408120546001600160a01b03168061057f5760405162461bcd60e51b81526004016106b390612450565b60006001600160a01b0382166109d95760405162461bcd60e51b815260206004820152602960248201527f4552433732313a2061646472657373207a65726f206973206e6f7420612076616044820152683634b21037bbb732b960b91b60648201526084016106b3565b506001600160a01b031660009081526003602052604090205490565b6109fd611311565b610a076000611370565b565b6001600160a01b0381166000908152600a602052604081205461057f565b6006546001600160a01b031690565b6000438210610a845760405162461bcd60e51b815260206004820152601a602482015279159bdd195cce88189b1bd8dac81b9bdd081e595d081b5a5b995960321b60448201526064016106b3565b61057f60098361116e565b6060600180546105949061253f565b6001600160a01b038116600090815260086020526040812061057f906113c2565b61084933838361141d565b610ad43383610e58565b610af05760405162461bcd60e51b81526004016106b390612482565b610afc848484846114e8565b50505050565b83421115610b4d5760405162461bcd60e51b8152602060048201526018602482015277159bdd195cce881cda59db985d1d5c9948195e1c1a5c995960421b60448201526064016106b3565b604080517fe48329057bfd03d55e49b547132e39cffd9c1820ad7b9d4c5307691425d15adf60208201526001600160a01b038816918101919091526060810186905260808101859052600090610bc790610bbf9060a0016040516020818303038152906040528051906020012061151b565b858585611569565b9050610bd281611591565b8614610c175760405162461bcd60e51b8152602060048201526014602482015273566f7465733a20696e76616c6964206e6f6e636560601b60448201526064016106b3565b610c218188611296565b50505050505050565b6060610c3582610dc5565b6000610c3f6115b9565b90506000815111610c5f57604051806020016040528060008152506107bb565b80610c69846115c8565b604051602001610c7a92919061237f565b6040516020818303038152906040529392505050565b600d8054610c9d9061253f565b80601f0160208091040260200160405190810160405280929190818152602001828054610cc99061253f565b8015610d165780601f10610ceb57610100808354040283529160200191610d16565b820191906000526020600020905b815481529060010190602001808311610cf957829003601f168201915b505050505081565b6001600160a01b03918216600090815260056020908152604080832093909416825291909152205460ff1690565b610d54611311565b6001600160a01b038116610db95760405162461bcd60e51b815260206004820152602660248201527f4f776e61626c653a206e6577206f776e657220697320746865207a65726f206160448201526564647265737360d01b60648201526084016106b3565b610dc281611370565b50565b610dce816116c5565b610dc25760405162461bcd60e51b81526004016106b390612450565b600081815260046020526040902080546001600160a01b0319166001600160a01b0384169081179091558190610e1f8261093a565b6001600160a01b03167f8c5be1e5ebec7d5bd14f71427d1e84f3dd0314c0f7b2291e5b200ac8c7c3b92560405160405180910390a45050565b600080610e648361093a565b9050806001600160a01b0316846001600160a01b03161480610e8b5750610e8b8185610d1e565b80610eaf5750836001600160a01b0316610ea484610617565b6001600160a01b0316145b949350505050565b826001600160a01b0316610eca8261093a565b6001600160a01b031614610f2e5760405162461bcd60e51b815260206004820152602560248201527f4552433732313a207472616e736665722066726f6d20696e636f72726563742060448201526437bbb732b960d91b60648201526084016106b3565b6001600160a01b038216610f905760405162461bcd60e51b8152602060048201526024808201527f4552433732313a207472616e7366657220746f20746865207a65726f206164646044820152637265737360e01b60648201526084016106b3565b610f9b600082610dea565b6001600160a01b0383166000908152600360205260408120805460019290610fc49084906124fc565b90915550506001600160a01b0382166000908152600360205260408120805460019290610ff29084906124d0565b909155505060008181526002602052604080822080546001600160a01b0319166001600160a01b03868116918217909255915184939187169160008051602061262883398151915291a46107548383836116e2565b6000306001600160a01b037f0000000000000000000000000000000000000000000000000000000000000000161480156110a057507f000000000000000000000000000000000000000000000000000000000000000046145b156110ca57507f000000000000000000000000000000000000000000000000000000000000000090565b50604080517f00000000000000000000000000000000000000000000000000000000000000006020808301919091527f0000000000000000000000000000000000000000000000000000000000000000828401527f000000000000000000000000000000000000000000000000000000000000000060608301524660808301523060a0808401919091528351808403909101815260c0909201909252805191012090565b60004382106111bf5760405162461bcd60e51b815260206004820181905260248201527f436865636b706f696e74733a20626c6f636b206e6f7420796574206d696e656460448201526064016106b3565b825460005b818110156112245760006111d882846116ed565b9050848660000182815481106111f0576111f06125e5565b60009182526020909120015463ffffffff1611156112105780925061121e565b61121b8160016124d0565b91505b506111c4565b811561126757846112366001846124fc565b81548110611246576112466125e5565b600091825260209091200154600160201b90046001600160e01b031661126a565b60005b6001600160e01b031695945050505050565b610849828260405180602001604052806000815250611708565b60006112a183610911565b6001600160a01b0384811660008181526007602052604080822080546001600160a01b031916888616908117909155905194955093928516927f3134e8a2e6d97e929a7e54011ea5485d7d196dd5f0ba4d4ef95803e8e3fc257f9190a4610754818361130c8661173b565b611746565b3361131a610a27565b6001600160a01b031614610a075760405162461bcd60e51b815260206004820181905260248201527f4f776e61626c653a2063616c6c6572206973206e6f7420746865206f776e657260448201526064016106b3565b600680546001600160a01b038381166001600160a01b0319831681179093556040519116919082907f8be0079c531659141344cd1fd0a4f28419497f9722a3daafe3b4186f6b6457e090600090a35050565b8054600090801561140a57826113d96001836124fc565b815481106113e9576113e96125e5565b600091825260209091200154600160201b90046001600160e01b031661140d565b60005b6001600160e01b03169392505050565b816001600160a01b0316836001600160a01b0316141561147b5760405162461bcd60e51b815260206004820152601960248201527822a9219b99189d1030b8383937bb32903a379031b0b63632b960391b60448201526064016106b3565b6001600160a01b03838116600081815260056020908152604080832094871680845294825291829020805460ff191686151590811790915591519182527f17307eab39ab6107e8899845ad3d59bd9653f200f220920489ca2b5937696c31910160405180910390a3505050565b6114f3848484610eb7565b6114ff8484848461185f565b610afc5760405162461bcd60e51b81526004016106b3906123fe565b600061057f611528611047565b8360405161190160f01b6020820152602281018390526042810182905260009060620160405160208183030381529060405280519060200120905092915050565b600080600061157a87878787611969565b9150915061158781611a4c565b5095945050505050565b6001600160a01b0381166000908152600a602052604090208054600181018255905b50919050565b6060600d80546105949061253f565b6060816115ec5750506040805180820190915260018152600360fc1b602082015290565b8160005b8115611616578061160081612574565b915061160f9050600a836124e8565b91506115f0565b6000816001600160401b03811115611630576116306125fb565b6040519080825280601f01601f19166020018201604052801561165a576020820181803683370190505b5090505b8415610eaf5761166f6001836124fc565b915061167c600a8661258f565b6116879060306124d0565b60f81b81838151811061169c5761169c6125e5565b60200101906001600160f81b031916908160001a9053506116be600a866124e8565b945061165e565b6000908152600260205260409020546001600160a01b0316151590565b610754838383611c02565b60006116fc60028484186124e8565b6107bb908484166124d0565b6117128383611c0e565b61171f600084848461185f565b6107545760405162461bcd60e51b81526004016106b3906123fe565b600061057f8261096f565b816001600160a01b0316836001600160a01b0316141580156117685750600081115b15610754576001600160a01b038316156117e4576001600160a01b038316600090815260086020526040812081906117a390611d3685611d42565b91509150846001600160a01b031660008051602061264883398151915283836040516117d9929190918252602082015260400190565b60405180910390a250505b6001600160a01b03821615610754576001600160a01b0382166000908152600860205260408120819061181a90611d7085611d42565b91509150836001600160a01b03166000805160206126488339815191528383604051611850929190918252602082015260400190565b60405180910390a25050505050565b60006001600160a01b0384163b1561196157604051630a85bd0160e11b81526001600160a01b0385169063150b7a02906118a39033908990889088906004016123ae565b602060405180830381600087803b1580156118bd57600080fd5b505af19250505080156118ed575060408051601f3d908101601f191682019092526118ea918101906122d5565b60015b611947573d80801561191b576040519150601f19603f3d011682016040523d82523d6000602084013e611920565b606091505b50805161193f5760405162461bcd60e51b81526004016106b3906123fe565b805181602001fd5b6001600160e01b031916630a85bd0160e11b149050610eaf565b506001610eaf565b6000806fa2a8918ca85bafe22016d0b997e4df60600160ff1b038311156119965750600090506003611a43565b8460ff16601b141580156119ae57508460ff16601c14155b156119bf5750600090506004611a43565b6040805160008082526020820180845289905260ff881692820192909252606081018690526080810185905260019060a0016020604051602081039080840390855afa158015611a13573d6000803e3d6000fd5b5050604051601f1901519150506001600160a01b038116611a3c57600060019250925050611a43565b9150600090505b94509492505050565b6000816004811115611a6057611a606125cf565b1415611a695750565b6001816004811115611a7d57611a7d6125cf565b1415611ac65760405162461bcd60e51b815260206004820152601860248201527745434453413a20696e76616c6964207369676e617475726560401b60448201526064016106b3565b6002816004811115611ada57611ada6125cf565b1415611b285760405162461bcd60e51b815260206004820152601f60248201527f45434453413a20696e76616c6964207369676e6174757265206c656e6774680060448201526064016106b3565b6003816004811115611b3c57611b3c6125cf565b1415611b955760405162461bcd60e51b815260206004820152602260248201527f45434453413a20696e76616c6964207369676e6174757265202773272076616c604482015261756560f01b60648201526084016106b3565b6004816004811115611ba957611ba96125cf565b1415610dc25760405162461bcd60e51b815260206004820152602260248201527f45434453413a20696e76616c6964207369676e6174757265202776272076616c604482015261756560f01b60648201526084016106b3565b61075483836001611d7c565b6001600160a01b038216611c645760405162461bcd60e51b815260206004820181905260248201527f4552433732313a206d696e7420746f20746865207a65726f206164647265737360448201526064016106b3565b611c6d816116c5565b15611cb95760405162461bcd60e51b815260206004820152601c60248201527b115490cdcc8c4e881d1bdad95b88185b1c9958591e481b5a5b9d195960221b60448201526064016106b3565b6001600160a01b0382166000908152600360205260408120805460019290611ce29084906124d0565b909155505060008181526002602052604080822080546001600160a01b0319166001600160a01b0386169081179091559051839290600080516020612628833981519152908290a4610849600083836116e2565b60006107bb82846124fc565b600080611d6485611d5f611d55886113c2565b868863ffffffff16565b611dd5565b91509150935093915050565b60006107bb82846124d0565b6001600160a01b038316611d9b57611d986009611d7083611d42565b50505b6001600160a01b038216611dba57611db76009611d3683611d42565b50505b610754611dc684610911565b611dcf84610911565b83611746565b8154600090819081611de6866113c2565b9050600082118015611e2457504386611e006001856124fc565b81548110611e1057611e106125e5565b60009182526020909120015463ffffffff16145b15611e8457611e3285611efa565b86611e3e6001856124fc565b81548110611e4e57611e4e6125e5565b9060005260206000200160000160046101000a8154816001600160e01b0302191690836001600160e01b03160217905550611ef1565b856000016040518060400160405280611e9c43611f67565b63ffffffff168152602001611eb088611efa565b6001600160e01b039081169091528254600181018455600093845260209384902083519490930151909116600160201b0263ffffffff909316929092179101555b95939450505050565b60006001600160e01b03821115611f635760405162461bcd60e51b815260206004820152602760248201527f53616665436173743a2076616c756520646f65736e27742066697420696e20326044820152663234206269747360c81b60648201526084016106b3565b5090565b600063ffffffff821115611f635760405162461bcd60e51b815260206004820152602660248201527f53616665436173743a2076616c756520646f65736e27742066697420696e203360448201526532206269747360d01b60648201526084016106b3565b828054611fd89061253f565b90600052602060002090601f016020900481019282611ffa5760008555612040565b82601f1061201357805160ff1916838001178555612040565b82800160010185558215612040579182015b82811115612040578251825591602001919060010190612025565b50611f639291505b80821115611f635760008155600101612048565b60006001600160401b0380841115612076576120766125fb565b604051601f8501601f19908116603f0116810190828211818310171561209e5761209e6125fb565b816040528093508581528686860111156120b757600080fd5b858560208301376000602087830101525050509392505050565b80356001600160a01b03811681146120e857600080fd5b919050565b6000602082840312156120ff57600080fd5b6107bb826120d1565b6000806040838503121561211b57600080fd5b612124836120d1565b9150612132602084016120d1565b90509250929050565b60008060006060848603121561215057600080fd5b612159846120d1565b9250612167602085016120d1565b9150604084013590509250925092565b6000806000806080858703121561218d57600080fd5b612196856120d1565b93506121a4602086016120d1565b92506040850135915060608501356001600160401b038111156121c657600080fd5b8501601f810187136121d757600080fd5b6121e68782356020840161205c565b91505092959194509250565b6000806040838503121561220557600080fd5b61220e836120d1565b91506020830135801515811461222357600080fd5b809150509250929050565b6000806040838503121561224157600080fd5b61224a836120d1565b946020939093013593505050565b60008060008060008060c0878903121561227157600080fd5b61227a876120d1565b95506020870135945060408701359350606087013560ff8116811461229e57600080fd5b9598949750929560808101359460a0909101359350915050565b6000602082840312156122ca57600080fd5b81356107bb81612611565b6000602082840312156122e757600080fd5b81516107bb81612611565b60006020828403121561230457600080fd5b81356001600160401b0381111561231a57600080fd5b8201601f8101841361232b57600080fd5b610eaf8482356020840161205c565b60006020828403121561234c57600080fd5b5035919050565b6000815180845261236b816020860160208601612513565b601f01601f19169290920160200192915050565b60008351612391818460208801612513565b8351908301906123a5818360208801612513565b01949350505050565b6001600160a01b03858116825284166020820152604081018390526080606082018190526000906123e190830184612353565b9695505050505050565b6020815260006107bb6020830184612353565b60208082526032908201527f4552433732313a207472616e7366657220746f206e6f6e20455243373231526560408201527131b2b4bb32b91034b6b83632b6b2b73a32b960711b606082015260800190565b602080825260189082015277115490cdcc8c4e881a5b9d985b1a59081d1bdad95b88125160421b604082015260600190565b6020808252602e908201527f4552433732313a2063616c6c6572206973206e6f7420746f6b656e206f776e6560408201526d1c881b9bdc88185c1c1c9bdd995960921b606082015260800190565b600082198211156124e3576124e36125a3565b500190565b6000826124f7576124f76125b9565b500490565b60008282101561250e5761250e6125a3565b500390565b60005b8381101561252e578181015183820152602001612516565b83811115610afc5750506000910152565b600181811c9082168061255357607f821691505b602082108114156115b357634e487b7160e01b600052602260045260246000fd5b6000600019821415612588576125886125a3565b5060010190565b60008261259e5761259e6125b9565b500690565b634e487b7160e01b600052601160045260246000fd5b634e487b7160e01b600052601260045260246000fd5b634e487b7160e01b600052602160045260246000fd5b634e487b7160e01b600052603260045260246000fd5b634e487b7160e01b600052604160045260246000fd5b6001600160e01b031981168114610dc257600080fdfeddf252ad1be2c89b69c2b068fc378daa952ba7f163c4a11628f55a4df523b3efdec2bacdd2f05b59de34da9b523dff8be42e5e38e818c82fdb0bae774387a724a164736f6c6343000806000a68747470733a2f2f676174657761792e70696e6174612e636c6f75642f697066732f516d523179484a596166426b7743584d666e79746f515872796979575769436e63546f746b4b78734867685447582fa164736f6c6343000806000a",
  "linkReferences": {},
  "deployedLinkReferences": {}
}