{
  "_format": "hh-sol-artifact-1",
  "contractName": "MyGovernorHelper",
  "sourceName": "contracts/MyGovernorHelper.sol",
  "abi": [
    {
      "inputs": [
        {
          "internalType": "address",
          "name": "myGovernorX",
          "type": "address"
        }
      ],
      "stateMutability": "payable",
      "type": "constructor"
    },
    {
      "anonymous": false,
      "inputs": [
        {
          "indexed": false,
          "internalType": "uint256",
          "name": "gas",
          "type": "uint256"
        }
      ],
      "name": "Log",
      "type": "event"
    },
    {
      "stateMutability": "payable",
      "type": "fallback"
    },
    {
      "inputs": [
        {
          "internalType": "uint256",
          "name": "",
          "type": "uint256"
        }
      ],
      "name": "_children",
      "outputs": [
        {
          "internalType": "contract BoxLocal",
          "name": "",
          "type": "address"
        }
      ],
      "stateMutability": "view",
      "type": "function"
    },
    {
      "inputs": [],
      "name": "getBalance",
      "outputs": [
        {
          "internalType": "uint256",
          "name": "",
          "type": "uint256"
        }
      ],
      "stateMutability": "view",
      "type": "function"
    },
    {
      "inputs": [
        {
          "internalType": "uint256",
          "name": "proposalId",
          "type": "uint256"
        }
      ],
      "name": "getTokenAddress",
      "outputs": [
        {
          "internalType": "address",
          "name": "",
          "type": "address"
        }
      ],
      "stateMutability": "view",
      "type": "function"
    },
    {
      "inputs": [
        {
          "internalType": "address",
          "name": "newLocalGov",
          "type": "address"
        },
        {
          "internalType": "uint256",
          "name": "proposalId",
          "type": "uint256"
        }
      ],
      "name": "linkLocalGov",
      "outputs": [],
      "stateMutability": "nonpayable",
      "type": "function"
    },
    {
      "inputs": [],
      "name": "myGovernor",
      "outputs": [
        {
          "internalType": "address",
          "name": "",
          "type": "address"
        }
      ],
      "stateMutability": "view",
      "type": "function"
    },
    {
      "inputs": [
        {
          "internalType": "uint256",
          "name": "proposalId",
          "type": "uint256"
        },
        {
          "internalType": "contract ICompoundTimelock",
          "name": "_timelock",
          "type": "address"
        },
        {
          "internalType": "bool",
          "name": "fundsToContract",
          "type": "bool"
        }
      ],
      "name": "newProject",
      "outputs": [
        {
          "internalType": "address",
          "name": "newContract",
          "type": "address"
        }
      ],
      "stateMutability": "payable",
      "type": "function"
    }
  ],
  "bytecode": "0x6080604052604051610f58380380610f5883398101604081905261002291610047565b600080546001600160a01b0319166001600160a01b0392909216919091179055610077565b60006020828403121561005957600080fd5b81516001600160a01b038116811461007057600080fd5b9392505050565b610ed2806100866000396000f3fe6080604052600436106100555760003560e01c806312065fe01461008a5780633e37ce47146100aa57806367ccdf38146100ca5780638770289414610100578063b7d0d9ce14610122578063f1f6ab9b14610142575b7f909c57d5c6ac08245cf2a6de3900e2b868513fa59099b92b27d8db823d92df9c5a60405190815260200160405180910390a1005b34801561009657600080fd5b506040514781526020015b60405180910390f35b6100bd6100b83660046105e0565b610178565b6040516100a19190610627565b3480156100d657600080fd5b506100bd6100e53660046105ae565b6000908152600160205260409020546001600160a01b031690565b34801561010c57600080fd5b5061012061011b366004610582565b6104db565b005b34801561012e57600080fd5b506000546100bd906001600160a01b031681565b34801561014e57600080fd5b506100bd61015d3660046105ae565b6001602052600090815260409020546001600160a01b031681565b600080546001600160a01b031633146101ee5760405162461bcd60e51b815260206004820152602e60248201527f476f762048656c7065723a204f6e6c7920476f7665726e6f722063616e20736560448201526d3a103ab81039bab1102220a7b99760911b606482015260840160405180910390fd5b6000546040516001600160a01b0390911690309061020b90610551565b6001600160a01b03928316815291166020820152604001604051809103906000f08015801561023e573d6000803e3d6000fd5b50600085815260016020526040902080546001600160a01b0319166001600160a01b039290921691821790558215610357576000546040516206a9bb60ec1b8152600481018790526001600160a01b039091169063990dc9db9083908390636a9bb0009060240160206040518083038186803b1580156102bd57600080fd5b505afa1580156102d1573d6000803e3d6000fd5b505050506040513d601f19601f820116820180604052508101906102f591906105c7565b61030390633b9aca00610654565b6040518363ffffffff1660e01b815260040161032092919061063b565b600060405180830381600087803b15801561033a57600080fd5b505af115801561034e573d6000803e3d6000fd5b505050506104bc565b600080546040516322efb3e760e11b8152600481018890526001600160a01b03909116906345df67ce9060240160206040518083038186803b15801561039c57600080fd5b505afa1580156103b0573d6000803e3d6000fd5b505050506040513d601f19601f820116820180604052508101906103d4919061055e565b6000549091506001600160a01b031663990dc9db8282636a9bb0006103fd8b633b9aca00610654565b6040518263ffffffff1660e01b815260040161041b91815260200190565b60206040518083038186803b15801561043357600080fd5b505afa158015610447573d6000803e3d6000fd5b505050506040513d601f19601f8201168201806040525081019061046b91906105c7565b6040518363ffffffff1660e01b815260040161048892919061063b565b600060405180830381600087803b1580156104a257600080fd5b505af11580156104b6573d6000803e3d6000fd5b50505050505b505050600091825250600160205260409020546001600160a01b031690565b600081815260016020526040908190205490516001628c510d60e01b031981526001600160a01b039091169063ff73aef39061051b908590600401610627565b600060405180830381600087803b15801561053557600080fd5b505af1158015610549573d6000803e3d6000fd5b505050505050565b61082c8061069a83390190565b60006020828403121561057057600080fd5b815161057b81610681565b9392505050565b6000806040838503121561059557600080fd5b82356105a081610681565b946020939093013593505050565b6000602082840312156105c057600080fd5b5035919050565b6000602082840312156105d957600080fd5b5051919050565b6000806000606084860312156105f557600080fd5b83359250602084013561060781610681565b91506040840135801515811461061c57600080fd5b809150509250925092565b6001600160a01b0391909116815260200190565b6001600160a01b03929092168252602082015260400190565b600081600019048311821515161561067c57634e487b7160e01b600052601160045260246000fd5b500290565b6001600160a01b038116811461069657600080fd5b5056fe608060405260405161082c38038061082c833981016040819052610022916100c8565b61002b3361005c565b600180546001600160a01b039384166001600160a01b031991821617909155600280549290931691161790556100fb565b600080546001600160a01b038381166001600160a01b0319831681178455604051919092169283917f8be0079c531659141344cd1fd0a4f28419497f9722a3daafe3b4186f6b6457e09190a35050565b80516001600160a01b03811681146100c357600080fd5b919050565b600080604083850312156100db57600080fd5b6100e4836100ac565b91506100f2602084016100ac565b90509250929050565b6107228061010a6000396000f3fe6080604052600436106100ad5760003560e01c806305bf4f35146100e25780631785f53c14610127578063218bc4321461016557806324d7806c1461019d5780632e64cec1146101d657806356e0233b146101f4578063584bae88146102145780636057361d14610229578063704b6c0214610249578063715018a6146102695780638da5cb5b1461027e57806393ef21cf14610293578063f2fde38b146102b3578063ff73aef3146102d3575b7f909c57d5c6ac08245cf2a6de3900e2b868513fa59099b92b27d8db823d92df9c5a60405190815260200160405180910390a1005b3480156100ee57600080fd5b506101126100fd36600461069e565b60056020526000908152604090205460ff1681565b60405190151581526020015b60405180910390f35b34801561013357600080fd5b5061016361014236600461069e565b6001600160a01b03166000908152600560205260409020805460ff19169055565b005b34801561017157600080fd5b50600154610185906001600160a01b031681565b6040516001600160a01b03909116815260200161011e565b3480156101a957600080fd5b506101126101b836600461069e565b6001600160a01b031660009081526005602052604090205460ff1690565b3480156101e257600080fd5b5060045460405190815260200161011e565b34801561020057600080fd5b50600354610185906001600160a01b031681565b34801561022057600080fd5b506101636102f3565b34801561023557600080fd5b506101636102443660046106ce565b6103a7565b34801561025557600080fd5b5061016361026436600461069e565b61044c565b34801561027557600080fd5b506101636104d2565b34801561028a57600080fd5b506101856104e6565b34801561029f57600080fd5b50600254610185906001600160a01b031681565b3480156102bf57600080fd5b506101636102ce36600461069e565b6104f5565b3480156102df57600080fd5b506101636102ee36600461069e565b61056b565b6003546001600160a01b0316331461036b5760405162461bcd60e51b815260206004820152603060248201527f4f6e6c7920746865206c6f63616c20676f7665726e6f722063616e207065726660448201526f37b936903a3434b99030b1ba34b7b71760811b60648201526084015b60405180910390fd5b6001546040516001600160a01b03909116904780156108fc02916000818181858888f193505050501580156103a4573d6000803e3d6000fd5b50565b6001546001600160a01b03163314806103ca57506003546001600160a01b031633145b806103ed57506103d86104e6565b6001600160a01b0316336001600160a01b0316145b6104095760405162461bcd60e51b8152600401610362906106e7565b6104116105ef565b60048190556040518181527f93fe6d397c74fdf1402a8b72e47b68512f0510d7b98a4bc4cbdf6ac7108b3c599060200160405180910390a150565b6001546001600160a01b031633148061046f57506003546001600160a01b031633145b80610492575061047d6104e6565b6001600160a01b0316336001600160a01b0316145b6104ae5760405162461bcd60e51b8152600401610362906106e7565b6001600160a01b03166000908152600560205260409020805460ff19166001179055565b6104da6105ef565b6104e4600061064e565b565b6000546001600160a01b031690565b6104fd6105ef565b6001600160a01b0381166105625760405162461bcd60e51b815260206004820152602660248201527f4f776e61626c653a206e6577206f776e657220697320746865207a65726f206160448201526564647265737360d01b6064820152608401610362565b6103a48161064e565b6001546001600160a01b031633148061058e57506003546001600160a01b031633145b806105b1575061059c6104e6565b6001600160a01b0316336001600160a01b0316145b6105cd5760405162461bcd60e51b8152600401610362906106e7565b600380546001600160a01b0319166001600160a01b0392909216919091179055565b336105f86104e6565b6001600160a01b0316146104e45760405162461bcd60e51b815260206004820181905260248201527f4f776e61626c653a2063616c6c6572206973206e6f7420746865206f776e65726044820152606401610362565b600080546001600160a01b038381166001600160a01b0319831681178455604051919092169283917f8be0079c531659141344cd1fd0a4f28419497f9722a3daafe3b4186f6b6457e09190a35050565b6000602082840312156106b057600080fd5b81356001600160a01b03811681146106c757600080fd5b9392505050565b6000602082840312156106e057600080fd5b5035919050565b60208082526014908201527327b7363c902220a79031b0b7103ab83230ba329760611b60408201526060019056fea164736f6c6343000806000aa164736f6c6343000806000a",
  "linkReferences": {},
  "deployedLinkReferences": {}
}