{
  "_format": "hh-sol-artifact-1",
  "contractName": "MyGovernorHelper",
  "sourceName": "contracts/MyGovernorHelper.sol",
  "abi": [
    {
      "inputs": [
        {
          "internalType": "address",
          "name": "myGovernorX",
          "type": "address"
        }
      ],
      "stateMutability": "payable",
      "type": "constructor"
    },
    {
      "anonymous": false,
      "inputs": [
        {
          "indexed": false,
          "internalType": "uint256",
          "name": "gas",
          "type": "uint256"
        }
      ],
      "name": "Log",
      "type": "event"
    },
    {
      "stateMutability": "payable",
      "type": "fallback"
    },
    {
      "inputs": [
        {
          "internalType": "uint256",
          "name": "",
          "type": "uint256"
        }
      ],
      "name": "_children",
      "outputs": [
        {
          "internalType": "contract BoxLocal",
          "name": "",
          "type": "address"
        }
      ],
      "stateMutability": "view",
      "type": "function"
    },
    {
      "inputs": [],
      "name": "getBalance",
      "outputs": [
        {
          "internalType": "uint256",
          "name": "",
          "type": "uint256"
        }
      ],
      "stateMutability": "view",
      "type": "function"
    },
    {
      "inputs": [
        {
          "internalType": "uint256",
          "name": "proposalId",
          "type": "uint256"
        }
      ],
      "name": "getTokenAddress",
      "outputs": [
        {
          "internalType": "address",
          "name": "",
          "type": "address"
        }
      ],
      "stateMutability": "view",
      "type": "function"
    },
    {
      "inputs": [],
      "name": "myGovernor",
      "outputs": [
        {
          "internalType": "address",
          "name": "",
          "type": "address"
        }
      ],
      "stateMutability": "view",
      "type": "function"
    },
    {
      "inputs": [
        {
          "internalType": "uint256",
          "name": "proposalId",
          "type": "uint256"
        },
        {
          "internalType": "contract ICompoundTimelock",
          "name": "_timelock",
          "type": "address"
        },
        {
          "internalType": "bool",
          "name": "fundsToContract",
          "type": "bool"
        }
      ],
      "name": "newProject",
      "outputs": [
        {
          "internalType": "address",
          "name": "newContract",
          "type": "address"
        }
      ],
      "stateMutability": "payable",
      "type": "function"
    }
  ],
  "bytecode": "0x6080604052604051610c49380380610c4983398101604081905261002291610047565b600080546001600160a01b0319166001600160a01b0392909216919091179055610077565b60006020828403121561005957600080fd5b81516001600160a01b038116811461007057600080fd5b9392505050565b610bc3806100866000396000f3fe60806040526004361061004a5760003560e01c806312065fe01461007f5780633e37ce471461009f57806367ccdf38146100ca578063b7d0d9ce14610100578063f1f6ab9b14610120575b7f909c57d5c6ac08245cf2a6de3900e2b868513fa59099b92b27d8db823d92df9c5a60405190815260200160405180910390a1005b34801561008b57600080fd5b506040514781526020015b60405180910390f35b6100b26100ad36600461051c565b610156565b6040516001600160a01b039091168152602001610096565b3480156100d657600080fd5b506100b26100e53660046104ea565b6000908152600160205260409020546001600160a01b031690565b34801561010c57600080fd5b506000546100b2906001600160a01b031681565b34801561012c57600080fd5b506100b261013b3660046104ea565b6001602052600090815260409020546001600160a01b031681565b600080546001600160a01b031633146101cc5760405162461bcd60e51b815260206004820152602e60248201527f476f762048656c7065723a204f6e6c7920476f7665726e6f722063616e20736560448201526d3a103ab81039bab1102220a7b99760911b606482015260840160405180910390fd5b6000546040516001600160a01b039091169030906101e9906104b9565b6001600160a01b03928316815291166020820152604001604051809103906000f08015801561021c573d6000803e3d6000fd5b50600085815260016020526040902080546001600160a01b0319166001600160a01b039290921691821790558215610335576000546040516206a9bb60ec1b8152600481018790526001600160a01b039091169063990dc9db9083908390636a9bb0009060240160206040518083038186803b15801561029b57600080fd5b505afa1580156102af573d6000803e3d6000fd5b505050506040513d601f19601f820116820180604052508101906102d39190610503565b6102e190633b9aca0061057c565b6040518363ffffffff1660e01b81526004016102fe929190610563565b600060405180830381600087803b15801561031857600080fd5b505af115801561032c573d6000803e3d6000fd5b5050505061049a565b600080546040516322efb3e760e11b8152600481018890526001600160a01b03909116906345df67ce9060240160206040518083038186803b15801561037a57600080fd5b505afa15801561038e573d6000803e3d6000fd5b505050506040513d601f19601f820116820180604052508101906103b291906104c6565b6000549091506001600160a01b031663990dc9db8282636a9bb0006103db8b633b9aca0061057c565b6040518263ffffffff1660e01b81526004016103f991815260200190565b60206040518083038186803b15801561041157600080fd5b505afa158015610425573d6000803e3d6000fd5b505050506040513d601f19601f820116820180604052508101906104499190610503565b6040518363ffffffff1660e01b8152600401610466929190610563565b600060405180830381600087803b15801561048057600080fd5b505af1158015610494573d6000803e3d6000fd5b50505050505b505050600091825250600160205260409020546001600160a01b031690565b6105f5806105c283390190565b6000602082840312156104d857600080fd5b81516104e3816105a9565b9392505050565b6000602082840312156104fc57600080fd5b5035919050565b60006020828403121561051557600080fd5b5051919050565b60008060006060848603121561053157600080fd5b833592506020840135610543816105a9565b91506040840135801515811461055857600080fd5b809150509250925092565b6001600160a01b03929092168252602082015260400190565b60008160001904831182151516156105a457634e487b7160e01b600052601160045260246000fd5b500290565b6001600160a01b03811681146105be57600080fd5b5056fe60806040526040516105f53803806105f5833981016040819052610022916100c8565b61002b3361005c565b600180546001600160a01b039384166001600160a01b031991821617909155600280549290931691161790556100fb565b600080546001600160a01b038381166001600160a01b0319831681178455604051919092169283917f8be0079c531659141344cd1fd0a4f28419497f9722a3daafe3b4186f6b6457e09190a35050565b80516001600160a01b03811681146100c357600080fd5b919050565b600080604083850312156100db57600080fd5b6100e4836100ac565b91506100f2602084016100ac565b90509250929050565b6104eb8061010a6000396000f3fe60806040526004361061008c5760003560e01c806305bf4f35146100c15780630c340a24146101065780631785f53c1461013e57806324d7806c1461017c5780632e64cec1146101b55780636057361d146101d3578063704b6c02146101f3578063715018a6146102325780638da5cb5b1461024757806393ef21cf1461025c578063f2fde38b1461027c575b7f909c57d5c6ac08245cf2a6de3900e2b868513fa59099b92b27d8db823d92df9c5a60405190815260200160405180910390a1005b3480156100cd57600080fd5b506100f16100dc366004610495565b60046020526000908152604090205460ff1681565b60405190151581526020015b60405180910390f35b34801561011257600080fd5b50600154610126906001600160a01b031681565b6040516001600160a01b0390911681526020016100fd565b34801561014a57600080fd5b5061017a610159366004610495565b6001600160a01b03166000908152600460205260409020805460ff19169055565b005b34801561018857600080fd5b506100f1610197366004610495565b6001600160a01b031660009081526004602052604090205460ff1690565b3480156101c157600080fd5b506003546040519081526020016100fd565b3480156101df57600080fd5b5061017a6101ee3660046104c5565b61029c565b3480156101ff57600080fd5b5061017a61020e366004610495565b6001600160a01b03166000908152600460205260409020805460ff19166001179055565b34801561023e57600080fd5b5061017a61034a565b34801561025357600080fd5b5061012661035e565b34801561026857600080fd5b50600254610126906001600160a01b031681565b34801561028857600080fd5b5061017a610297366004610495565b61036d565b6001546001600160a01b03163314806102bf57506002546001600160a01b031633145b6103075760405162461bcd60e51b815260206004820152601460248201527327b7363c902220a79031b0b7103ab83230ba329760611b60448201526064015b60405180910390fd5b61030f6103e6565b60038190556040518181527f93fe6d397c74fdf1402a8b72e47b68512f0510d7b98a4bc4cbdf6ac7108b3c599060200160405180910390a150565b6103526103e6565b61035c6000610445565b565b6000546001600160a01b031690565b6103756103e6565b6001600160a01b0381166103da5760405162461bcd60e51b815260206004820152602660248201527f4f776e61626c653a206e6577206f776e657220697320746865207a65726f206160448201526564647265737360d01b60648201526084016102fe565b6103e381610445565b50565b336103ef61035e565b6001600160a01b03161461035c5760405162461bcd60e51b815260206004820181905260248201527f4f776e61626c653a2063616c6c6572206973206e6f7420746865206f776e657260448201526064016102fe565b600080546001600160a01b038381166001600160a01b0319831681178455604051919092169283917f8be0079c531659141344cd1fd0a4f28419497f9722a3daafe3b4186f6b6457e09190a35050565b6000602082840312156104a757600080fd5b81356001600160a01b03811681146104be57600080fd5b9392505050565b6000602082840312156104d757600080fd5b503591905056fea164736f6c6343000806000aa164736f6c6343000806000a",
  "linkReferences": {},
  "deployedLinkReferences": {}
}