{
  "_format": "hh-sol-artifact-1",
  "contractName": "BoxLocal",
  "sourceName": "contracts/BoxLocal.sol",
  "abi": [
    {
      "inputs": [
        {
          "internalType": "address",
          "name": "myGovernor",
          "type": "address"
        },
        {
          "internalType": "address",
          "name": "myGovernorHelper",
          "type": "address"
        }
      ],
      "stateMutability": "payable",
      "type": "constructor"
    },
    {
      "anonymous": false,
      "inputs": [
        {
          "indexed": false,
          "internalType": "uint256",
          "name": "gas",
          "type": "uint256"
        }
      ],
      "name": "Log",
      "type": "event"
    },
    {
      "anonymous": false,
      "inputs": [
        {
          "indexed": true,
          "internalType": "address",
          "name": "previousOwner",
          "type": "address"
        },
        {
          "indexed": true,
          "internalType": "address",
          "name": "newOwner",
          "type": "address"
        }
      ],
      "name": "OwnershipTransferred",
      "type": "event"
    },
    {
      "anonymous": false,
      "inputs": [
        {
          "indexed": false,
          "internalType": "uint256",
          "name": "newValue",
          "type": "uint256"
        }
      ],
      "name": "ValueChanged",
      "type": "event"
    },
    {
      "stateMutability": "payable",
      "type": "fallback"
    },
    {
      "inputs": [
        {
          "internalType": "address",
          "name": "",
          "type": "address"
        }
      ],
      "name": "adminMembers",
      "outputs": [
        {
          "internalType": "bool",
          "name": "",
          "type": "bool"
        }
      ],
      "stateMutability": "view",
      "type": "function"
    },
    {
      "inputs": [],
      "name": "governor",
      "outputs": [
        {
          "internalType": "address",
          "name": "",
          "type": "address"
        }
      ],
      "stateMutability": "view",
      "type": "function"
    },
    {
      "inputs": [],
      "name": "governorHelper",
      "outputs": [
        {
          "internalType": "address",
          "name": "",
          "type": "address"
        }
      ],
      "stateMutability": "view",
      "type": "function"
    },
    {
      "inputs": [
        {
          "internalType": "address",
          "name": "account",
          "type": "address"
        }
      ],
      "name": "isAdmin",
      "outputs": [
        {
          "internalType": "bool",
          "name": "",
          "type": "bool"
        }
      ],
      "stateMutability": "view",
      "type": "function"
    },
    {
      "inputs": [],
      "name": "owner",
      "outputs": [
        {
          "internalType": "address",
          "name": "",
          "type": "address"
        }
      ],
      "stateMutability": "view",
      "type": "function"
    },
    {
      "inputs": [
        {
          "internalType": "address",
          "name": "account",
          "type": "address"
        }
      ],
      "name": "removeAdmin",
      "outputs": [],
      "stateMutability": "nonpayable",
      "type": "function"
    },
    {
      "inputs": [],
      "name": "renounceOwnership",
      "outputs": [],
      "stateMutability": "nonpayable",
      "type": "function"
    },
    {
      "inputs": [],
      "name": "retrieve",
      "outputs": [
        {
          "internalType": "uint256",
          "name": "",
          "type": "uint256"
        }
      ],
      "stateMutability": "view",
      "type": "function"
    },
    {
      "inputs": [
        {
          "internalType": "address",
          "name": "account",
          "type": "address"
        }
      ],
      "name": "setAdmin",
      "outputs": [],
      "stateMutability": "nonpayable",
      "type": "function"
    },
    {
      "inputs": [
        {
          "internalType": "uint256",
          "name": "newValue",
          "type": "uint256"
        }
      ],
      "name": "store",
      "outputs": [],
      "stateMutability": "nonpayable",
      "type": "function"
    },
    {
      "inputs": [
        {
          "internalType": "address",
          "name": "newOwner",
          "type": "address"
        }
      ],
      "name": "transferOwnership",
      "outputs": [],
      "stateMutability": "nonpayable",
      "type": "function"
    }
  ],
  "bytecode": "0x6080604052604051610660380380610660833981016040819052610022916100c8565b61002b3361005c565b600180546001600160a01b039384166001600160a01b031991821617909155600280549290931691161790556100fb565b600080546001600160a01b038381166001600160a01b0319831681178455604051919092169283917f8be0079c531659141344cd1fd0a4f28419497f9722a3daafe3b4186f6b6457e09190a35050565b80516001600160a01b03811681146100c357600080fd5b919050565b600080604083850312156100db57600080fd5b6100e4836100ac565b91506100f2602084016100ac565b90509250929050565b6105568061010a6000396000f3fe60806040526004361061008c5760003560e01c806305bf4f35146100c15780630c340a24146101065780631785f53c1461013e57806324d7806c1461017c5780632e64cec1146101b55780636057361d146101d3578063704b6c02146101f3578063715018a6146102135780638da5cb5b1461022857806393ef21cf1461023d578063f2fde38b1461025d575b7f909c57d5c6ac08245cf2a6de3900e2b868513fa59099b92b27d8db823d92df9c5a60405190815260200160405180910390a1005b3480156100cd57600080fd5b506100f16100dc3660046104d2565b60046020526000908152604090205460ff1681565b60405190151581526020015b60405180910390f35b34801561011257600080fd5b50600154610126906001600160a01b031681565b6040516001600160a01b0390911681526020016100fd565b34801561014a57600080fd5b5061017a6101593660046104d2565b6001600160a01b03166000908152600460205260409020805460ff19169055565b005b34801561018857600080fd5b506100f16101973660046104d2565b6001600160a01b031660009081526004602052604090205460ff1690565b3480156101c157600080fd5b506003546040519081526020016100fd565b3480156101df57600080fd5b5061017a6101ee366004610502565b61027d565b3480156101ff57600080fd5b5061017a61020e3660046104d2565b610316565b34801561021f57600080fd5b5061017a610387565b34801561023457600080fd5b5061012661039b565b34801561024957600080fd5b50600254610126906001600160a01b031681565b34801561026957600080fd5b5061017a6102783660046104d2565b6103aa565b6001546001600160a01b03163314806102ae575061029961039b565b6001600160a01b0316336001600160a01b0316145b6102d35760405162461bcd60e51b81526004016102ca9061051b565b60405180910390fd5b6102db610423565b60038190556040518181527f93fe6d397c74fdf1402a8b72e47b68512f0510d7b98a4bc4cbdf6ac7108b3c599060200160405180910390a150565b6001546001600160a01b0316331480610347575061033261039b565b6001600160a01b0316336001600160a01b0316145b6103635760405162461bcd60e51b81526004016102ca9061051b565b6001600160a01b03166000908152600460205260409020805460ff19166001179055565b61038f610423565b6103996000610482565b565b6000546001600160a01b031690565b6103b2610423565b6001600160a01b0381166104175760405162461bcd60e51b815260206004820152602660248201527f4f776e61626c653a206e6577206f776e657220697320746865207a65726f206160448201526564647265737360d01b60648201526084016102ca565b61042081610482565b50565b3361042c61039b565b6001600160a01b0316146103995760405162461bcd60e51b815260206004820181905260248201527f4f776e61626c653a2063616c6c6572206973206e6f7420746865206f776e657260448201526064016102ca565b600080546001600160a01b038381166001600160a01b0319831681178455604051919092169283917f8be0079c531659141344cd1fd0a4f28419497f9722a3daafe3b4186f6b6457e09190a35050565b6000602082840312156104e457600080fd5b81356001600160a01b03811681146104fb57600080fd5b9392505050565b60006020828403121561051457600080fd5b5035919050565b60208082526014908201527327b7363c902220a79031b0b7103ab83230ba329760611b60408201526060019056fea164736f6c6343000806000a",
  "linkReferences": {},
  "deployedLinkReferences": {}
}