{
  "_format": "hh-sol-artifact-1",
  "contractName": "MyGovernor",
  "sourceName": "contracts/MyGovernor.sol",
  "abi": [
    {
      "inputs": [
        {
          "internalType": "contract IVotes",
          "name": "_token",
          "type": "address"
        },
        {
          "internalType": "contract ICompoundTimelock",
          "name": "_timelock",
          "type": "address"
        }
      ],
      "stateMutability": "nonpayable",
      "type": "constructor"
    },
    {
      "inputs": [],
      "name": "Empty",
      "type": "error"
    },
    {
      "anonymous": false,
      "inputs": [
        {
          "indexed": false,
          "internalType": "uint256",
          "name": "proposalId",
          "type": "uint256"
        }
      ],
      "name": "ProposalCanceled",
      "type": "event"
    },
    {
      "anonymous": false,
      "inputs": [
        {
          "indexed": false,
          "internalType": "uint256",
          "name": "proposalId",
          "type": "uint256"
        },
        {
          "indexed": false,
          "internalType": "address",
          "name": "proposer",
          "type": "address"
        },
        {
          "indexed": false,
          "internalType": "address[]",
          "name": "targets",
          "type": "address[]"
        },
        {
          "indexed": false,
          "internalType": "uint256[]",
          "name": "values",
          "type": "uint256[]"
        },
        {
          "indexed": false,
          "internalType": "string[]",
          "name": "signatures",
          "type": "string[]"
        },
        {
          "indexed": false,
          "internalType": "bytes[]",
          "name": "calldatas",
          "type": "bytes[]"
        },
        {
          "indexed": false,
          "internalType": "uint256",
          "name": "startBlock",
          "type": "uint256"
        },
        {
          "indexed": false,
          "internalType": "uint256",
          "name": "endBlock",
          "type": "uint256"
        },
        {
          "indexed": false,
          "internalType": "string",
          "name": "description",
          "type": "string"
        }
      ],
      "name": "ProposalCreated",
      "type": "event"
    },
    {
      "anonymous": false,
      "inputs": [
        {
          "indexed": false,
          "internalType": "uint256",
          "name": "proposalId",
          "type": "uint256"
        }
      ],
      "name": "ProposalExecuted",
      "type": "event"
    },
    {
      "anonymous": false,
      "inputs": [
        {
          "indexed": false,
          "internalType": "uint256",
          "name": "proposalId",
          "type": "uint256"
        },
        {
          "indexed": false,
          "internalType": "uint256",
          "name": "eta",
          "type": "uint256"
        }
      ],
      "name": "ProposalQueued",
      "type": "event"
    },
    {
      "anonymous": false,
      "inputs": [
        {
          "indexed": false,
          "internalType": "uint256",
          "name": "oldProposalThreshold",
          "type": "uint256"
        },
        {
          "indexed": false,
          "internalType": "uint256",
          "name": "newProposalThreshold",
          "type": "uint256"
        }
      ],
      "name": "ProposalThresholdSet",
      "type": "event"
    },
    {
      "anonymous": false,
      "inputs": [
        {
          "indexed": false,
          "internalType": "address",
          "name": "oldTimelock",
          "type": "address"
        },
        {
          "indexed": false,
          "internalType": "address",
          "name": "newTimelock",
          "type": "address"
        }
      ],
      "name": "TimelockChange",
      "type": "event"
    },
    {
      "anonymous": false,
      "inputs": [
        {
          "indexed": true,
          "internalType": "address",
          "name": "voter",
          "type": "address"
        },
        {
          "indexed": false,
          "internalType": "uint256",
          "name": "proposalId",
          "type": "uint256"
        },
        {
          "indexed": false,
          "internalType": "uint8",
          "name": "support",
          "type": "uint8"
        },
        {
          "indexed": false,
          "internalType": "uint256",
          "name": "weight",
          "type": "uint256"
        },
        {
          "indexed": false,
          "internalType": "string",
          "name": "reason",
          "type": "string"
        }
      ],
      "name": "VoteCast",
      "type": "event"
    },
    {
      "anonymous": false,
      "inputs": [
        {
          "indexed": true,
          "internalType": "address",
          "name": "voter",
          "type": "address"
        },
        {
          "indexed": false,
          "internalType": "uint256",
          "name": "proposalId",
          "type": "uint256"
        },
        {
          "indexed": false,
          "internalType": "uint8",
          "name": "support",
          "type": "uint8"
        },
        {
          "indexed": false,
          "internalType": "uint256",
          "name": "weight",
          "type": "uint256"
        },
        {
          "indexed": false,
          "internalType": "string",
          "name": "reason",
          "type": "string"
        },
        {
          "indexed": false,
          "internalType": "bytes",
          "name": "params",
          "type": "bytes"
        }
      ],
      "name": "VoteCastWithParams",
      "type": "event"
    },
    {
      "anonymous": false,
      "inputs": [
        {
          "indexed": false,
          "internalType": "uint256",
          "name": "oldVotingDelay",
          "type": "uint256"
        },
        {
          "indexed": false,
          "internalType": "uint256",
          "name": "newVotingDelay",
          "type": "uint256"
        }
      ],
      "name": "VotingDelaySet",
      "type": "event"
    },
    {
      "anonymous": false,
      "inputs": [
        {
          "indexed": false,
          "internalType": "uint256",
          "name": "oldVotingPeriod",
          "type": "uint256"
        },
        {
          "indexed": false,
          "internalType": "uint256",
          "name": "newVotingPeriod",
          "type": "uint256"
        }
      ],
      "name": "VotingPeriodSet",
      "type": "event"
    },
    {
      "inputs": [],
      "name": "BALLOT_TYPEHASH",
      "outputs": [
        {
          "internalType": "bytes32",
          "name": "",
          "type": "bytes32"
        }
      ],
      "stateMutability": "view",
      "type": "function"
    },
    {
      "inputs": [],
      "name": "COUNTING_MODE",
      "outputs": [
        {
          "internalType": "string",
          "name": "",
          "type": "string"
        }
      ],
      "stateMutability": "pure",
      "type": "function"
    },
    {
      "inputs": [],
      "name": "EXTENDED_BALLOT_TYPEHASH",
      "outputs": [
        {
          "internalType": "bytes32",
          "name": "",
          "type": "bytes32"
        }
      ],
      "stateMutability": "view",
      "type": "function"
    },
    {
      "inputs": [],
      "name": "__acceptAdmin",
      "outputs": [],
      "stateMutability": "nonpayable",
      "type": "function"
    },
    {
      "inputs": [
        {
          "internalType": "uint256",
          "name": "proposalId",
          "type": "uint256"
        },
        {
          "internalType": "uint8",
          "name": "support",
          "type": "uint8"
        }
      ],
      "name": "castVote",
      "outputs": [
        {
          "internalType": "uint256",
          "name": "",
          "type": "uint256"
        }
      ],
      "stateMutability": "nonpayable",
      "type": "function"
    },
    {
      "inputs": [
        {
          "internalType": "uint256",
          "name": "proposalId",
          "type": "uint256"
        },
        {
          "internalType": "uint8",
          "name": "support",
          "type": "uint8"
        },
        {
          "internalType": "uint8",
          "name": "v",
          "type": "uint8"
        },
        {
          "internalType": "bytes32",
          "name": "r",
          "type": "bytes32"
        },
        {
          "internalType": "bytes32",
          "name": "s",
          "type": "bytes32"
        }
      ],
      "name": "castVoteBySig",
      "outputs": [
        {
          "internalType": "uint256",
          "name": "",
          "type": "uint256"
        }
      ],
      "stateMutability": "nonpayable",
      "type": "function"
    },
    {
      "inputs": [
        {
          "internalType": "uint256",
          "name": "proposalId",
          "type": "uint256"
        },
        {
          "internalType": "uint8",
          "name": "support",
          "type": "uint8"
        },
        {
          "internalType": "string",
          "name": "reason",
          "type": "string"
        }
      ],
      "name": "castVoteWithReason",
      "outputs": [
        {
          "internalType": "uint256",
          "name": "",
          "type": "uint256"
        }
      ],
      "stateMutability": "nonpayable",
      "type": "function"
    },
    {
      "inputs": [
        {
          "internalType": "uint256",
          "name": "proposalId",
          "type": "uint256"
        },
        {
          "internalType": "uint8",
          "name": "support",
          "type": "uint8"
        },
        {
          "internalType": "string",
          "name": "reason",
          "type": "string"
        },
        {
          "internalType": "bytes",
          "name": "params",
          "type": "bytes"
        }
      ],
      "name": "castVoteWithReasonAndParams",
      "outputs": [
        {
          "internalType": "uint256",
          "name": "",
          "type": "uint256"
        }
      ],
      "stateMutability": "nonpayable",
      "type": "function"
    },
    {
      "inputs": [
        {
          "internalType": "uint256",
          "name": "proposalId",
          "type": "uint256"
        },
        {
          "internalType": "uint8",
          "name": "support",
          "type": "uint8"
        },
        {
          "internalType": "string",
          "name": "reason",
          "type": "string"
        },
        {
          "internalType": "bytes",
          "name": "params",
          "type": "bytes"
        },
        {
          "internalType": "uint8",
          "name": "v",
          "type": "uint8"
        },
        {
          "internalType": "bytes32",
          "name": "r",
          "type": "bytes32"
        },
        {
          "internalType": "bytes32",
          "name": "s",
          "type": "bytes32"
        }
      ],
      "name": "castVoteWithReasonAndParamsBySig",
      "outputs": [
        {
          "internalType": "uint256",
          "name": "",
          "type": "uint256"
        }
      ],
      "stateMutability": "nonpayable",
      "type": "function"
    },
    {
      "inputs": [
        {
          "internalType": "address[]",
          "name": "targets",
          "type": "address[]"
        },
        {
          "internalType": "uint256[]",
          "name": "values",
          "type": "uint256[]"
        },
        {
          "internalType": "bytes[]",
          "name": "calldatas",
          "type": "bytes[]"
        },
        {
          "internalType": "bytes32",
          "name": "descriptionHash",
          "type": "bytes32"
        }
      ],
      "name": "execute",
      "outputs": [
        {
          "internalType": "uint256",
          "name": "",
          "type": "uint256"
        }
      ],
      "stateMutability": "payable",
      "type": "function"
    },
    {
      "inputs": [
        {
          "internalType": "address",
          "name": "account",
          "type": "address"
        },
        {
          "internalType": "uint256",
          "name": "blockNumber",
          "type": "uint256"
        }
      ],
      "name": "getVotes",
      "outputs": [
        {
          "internalType": "uint256",
          "name": "",
          "type": "uint256"
        }
      ],
      "stateMutability": "view",
      "type": "function"
    },
    {
      "inputs": [
        {
          "internalType": "address",
          "name": "account",
          "type": "address"
        },
        {
          "internalType": "uint256",
          "name": "blockNumber",
          "type": "uint256"
        },
        {
          "internalType": "bytes",
          "name": "params",
          "type": "bytes"
        }
      ],
      "name": "getVotesWithParams",
      "outputs": [
        {
          "internalType": "uint256",
          "name": "",
          "type": "uint256"
        }
      ],
      "stateMutability": "view",
      "type": "function"
    },
    {
      "inputs": [
        {
          "internalType": "uint256",
          "name": "proposalId",
          "type": "uint256"
        },
        {
          "internalType": "address",
          "name": "account",
          "type": "address"
        }
      ],
      "name": "hasVoted",
      "outputs": [
        {
          "internalType": "bool",
          "name": "",
          "type": "bool"
        }
      ],
      "stateMutability": "view",
      "type": "function"
    },
    {
      "inputs": [
        {
          "internalType": "address[]",
          "name": "targets",
          "type": "address[]"
        },
        {
          "internalType": "uint256[]",
          "name": "values",
          "type": "uint256[]"
        },
        {
          "internalType": "bytes[]",
          "name": "calldatas",
          "type": "bytes[]"
        },
        {
          "internalType": "bytes32",
          "name": "descriptionHash",
          "type": "bytes32"
        }
      ],
      "name": "hashProposal",
      "outputs": [
        {
          "internalType": "uint256",
          "name": "",
          "type": "uint256"
        }
      ],
      "stateMutability": "pure",
      "type": "function"
    },
    {
      "inputs": [],
      "name": "name",
      "outputs": [
        {
          "internalType": "string",
          "name": "",
          "type": "string"
        }
      ],
      "stateMutability": "view",
      "type": "function"
    },
    {
      "inputs": [
        {
          "internalType": "address",
          "name": "",
          "type": "address"
        },
        {
          "internalType": "address",
          "name": "",
          "type": "address"
        },
        {
          "internalType": "uint256[]",
          "name": "",
          "type": "uint256[]"
        },
        {
          "internalType": "uint256[]",
          "name": "",
          "type": "uint256[]"
        },
        {
          "internalType": "bytes",
          "name": "",
          "type": "bytes"
        }
      ],
      "name": "onERC1155BatchReceived",
      "outputs": [
        {
          "internalType": "bytes4",
          "name": "",
          "type": "bytes4"
        }
      ],
      "stateMutability": "nonpayable",
      "type": "function"
    },
    {
      "inputs": [
        {
          "internalType": "address",
          "name": "",
          "type": "address"
        },
        {
          "internalType": "address",
          "name": "",
          "type": "address"
        },
        {
          "internalType": "uint256",
          "name": "",
          "type": "uint256"
        },
        {
          "internalType": "uint256",
          "name": "",
          "type": "uint256"
        },
        {
          "internalType": "bytes",
          "name": "",
          "type": "bytes"
        }
      ],
      "name": "onERC1155Received",
      "outputs": [
        {
          "internalType": "bytes4",
          "name": "",
          "type": "bytes4"
        }
      ],
      "stateMutability": "nonpayable",
      "type": "function"
    },
    {
      "inputs": [
        {
          "internalType": "address",
          "name": "",
          "type": "address"
        },
        {
          "internalType": "address",
          "name": "",
          "type": "address"
        },
        {
          "internalType": "uint256",
          "name": "",
          "type": "uint256"
        },
        {
          "internalType": "bytes",
          "name": "",
          "type": "bytes"
        }
      ],
      "name": "onERC721Received",
      "outputs": [
        {
          "internalType": "bytes4",
          "name": "",
          "type": "bytes4"
        }
      ],
      "stateMutability": "nonpayable",
      "type": "function"
    },
    {
      "inputs": [
        {
          "internalType": "uint256",
          "name": "proposalId",
          "type": "uint256"
        }
      ],
      "name": "proposalDeadline",
      "outputs": [
        {
          "internalType": "uint256",
          "name": "",
          "type": "uint256"
        }
      ],
      "stateMutability": "view",
      "type": "function"
    },
    {
      "inputs": [
        {
          "internalType": "uint256",
          "name": "proposalId",
          "type": "uint256"
        }
      ],
      "name": "proposalEta",
      "outputs": [
        {
          "internalType": "uint256",
          "name": "",
          "type": "uint256"
        }
      ],
      "stateMutability": "view",
      "type": "function"
    },
    {
      "inputs": [
        {
          "internalType": "uint256",
          "name": "proposalId",
          "type": "uint256"
        }
      ],
      "name": "proposalSnapshot",
      "outputs": [
        {
          "internalType": "uint256",
          "name": "",
          "type": "uint256"
        }
      ],
      "stateMutability": "view",
      "type": "function"
    },
    {
      "inputs": [],
      "name": "proposalThreshold",
      "outputs": [
        {
          "internalType": "uint256",
          "name": "",
          "type": "uint256"
        }
      ],
      "stateMutability": "view",
      "type": "function"
    },
    {
      "inputs": [
        {
          "internalType": "uint256",
          "name": "proposalId",
          "type": "uint256"
        }
      ],
      "name": "proposalVotes",
      "outputs": [
        {
          "internalType": "uint256",
          "name": "againstVotes",
          "type": "uint256"
        },
        {
          "internalType": "uint256",
          "name": "forVotes",
          "type": "uint256"
        },
        {
          "internalType": "uint256",
          "name": "abstainVotes",
          "type": "uint256"
        }
      ],
      "stateMutability": "view",
      "type": "function"
    },
    {
      "inputs": [
        {
          "internalType": "address[]",
          "name": "targets",
          "type": "address[]"
        },
        {
          "internalType": "uint256[]",
          "name": "values",
          "type": "uint256[]"
        },
        {
          "internalType": "bytes[]",
          "name": "calldatas",
          "type": "bytes[]"
        },
        {
          "internalType": "string",
          "name": "description",
          "type": "string"
        }
      ],
      "name": "propose",
      "outputs": [
        {
          "internalType": "uint256",
          "name": "",
          "type": "uint256"
        }
      ],
      "stateMutability": "nonpayable",
      "type": "function"
    },
    {
      "inputs": [
        {
          "internalType": "address[]",
          "name": "targets",
          "type": "address[]"
        },
        {
          "internalType": "uint256[]",
          "name": "values",
          "type": "uint256[]"
        },
        {
          "internalType": "bytes[]",
          "name": "calldatas",
          "type": "bytes[]"
        },
        {
          "internalType": "bytes32",
          "name": "descriptionHash",
          "type": "bytes32"
        }
      ],
      "name": "queue",
      "outputs": [
        {
          "internalType": "uint256",
          "name": "",
          "type": "uint256"
        }
      ],
      "stateMutability": "nonpayable",
      "type": "function"
    },
    {
      "inputs": [
        {
          "internalType": "uint256",
          "name": "blockNumber",
          "type": "uint256"
        }
      ],
      "name": "quorum",
      "outputs": [
        {
          "internalType": "uint256",
          "name": "",
          "type": "uint256"
        }
      ],
      "stateMutability": "pure",
      "type": "function"
    },
    {
      "inputs": [
        {
          "internalType": "address",
          "name": "target",
          "type": "address"
        },
        {
          "internalType": "uint256",
          "name": "value",
          "type": "uint256"
        },
        {
          "internalType": "bytes",
          "name": "data",
          "type": "bytes"
        }
      ],
      "name": "relay",
      "outputs": [],
      "stateMutability": "nonpayable",
      "type": "function"
    },
    {
      "inputs": [
        {
          "internalType": "uint256",
          "name": "newProposalThreshold",
          "type": "uint256"
        }
      ],
      "name": "setProposalThreshold",
      "outputs": [],
      "stateMutability": "nonpayable",
      "type": "function"
    },
    {
      "inputs": [
        {
          "internalType": "uint256",
          "name": "newVotingDelay",
          "type": "uint256"
        }
      ],
      "name": "setVotingDelay",
      "outputs": [],
      "stateMutability": "nonpayable",
      "type": "function"
    },
    {
      "inputs": [
        {
          "internalType": "uint256",
          "name": "newVotingPeriod",
          "type": "uint256"
        }
      ],
      "name": "setVotingPeriod",
      "outputs": [],
      "stateMutability": "nonpayable",
      "type": "function"
    },
    {
      "inputs": [
        {
          "internalType": "uint256",
          "name": "proposalId",
          "type": "uint256"
        }
      ],
      "name": "state",
      "outputs": [
        {
          "internalType": "enum IGovernor.ProposalState",
          "name": "",
          "type": "uint8"
        }
      ],
      "stateMutability": "view",
      "type": "function"
    },
    {
      "inputs": [
        {
          "internalType": "bytes4",
          "name": "interfaceId",
          "type": "bytes4"
        }
      ],
      "name": "supportsInterface",
      "outputs": [
        {
          "internalType": "bool",
          "name": "",
          "type": "bool"
        }
      ],
      "stateMutability": "view",
      "type": "function"
    },
    {
      "inputs": [],
      "name": "timelock",
      "outputs": [
        {
          "internalType": "address",
          "name": "",
          "type": "address"
        }
      ],
      "stateMutability": "view",
      "type": "function"
    },
    {
      "inputs": [],
      "name": "token",
      "outputs": [
        {
          "internalType": "contract IVotes",
          "name": "",
          "type": "address"
        }
      ],
      "stateMutability": "view",
      "type": "function"
    },
    {
      "inputs": [
        {
          "internalType": "contract ICompoundTimelock",
          "name": "newTimelock",
          "type": "address"
        }
      ],
      "name": "updateTimelock",
      "outputs": [],
      "stateMutability": "nonpayable",
      "type": "function"
    },
    {
      "inputs": [],
      "name": "version",
      "outputs": [
        {
          "internalType": "string",
          "name": "",
          "type": "string"
        }
      ],
      "stateMutability": "view",
      "type": "function"
    },
    {
      "inputs": [],
      "name": "votingDelay",
      "outputs": [
        {
          "internalType": "uint256",
          "name": "",
          "type": "uint256"
        }
      ],
      "stateMutability": "view",
      "type": "function"
    },
    {
      "inputs": [],
      "name": "votingPeriod",
      "outputs": [
        {
          "internalType": "uint256",
          "name": "",
          "type": "uint256"
        }
      ],
      "stateMutability": "view",
      "type": "function"
    },
    {
      "stateMutability": "payable",
      "type": "receive"
    }
  ],
  "bytecode": "0x6101606040523480156200001257600080fd5b5060405162003f6738038062003f678339810160408190526200003591620003b8565b80826001601460026040518060400160405280600a81526020016926bca3b7bb32b93737b960b11b81525080620000716200016660201b60201c565b815160208084019190912082518383012060e08290526101008190524660a0818152604080517f8b73c3c69bb8fe3d512ecc4cf759cc79239f7b179b0ffacaa9a75d522b39400f81880181905281830187905260608201869052608082019490945230818401528151808203909301835260c00190528051940193909320919290916080523060601b60c05261012052505082516200011a925060009150602084019062000312565b506200012890508362000181565b6200013382620001c2565b6200013e8162000268565b50505060601b6001600160601b031916610140526200015d81620002a9565b5050506200044d565b6040805180820190915260018152603160f81b602082015290565b60045460408051918252602082018390527fc565b045403dc03c2eea82b81a0465edad9e2e7fc4d97e11421c209da93d7a93910160405180910390a1600455565b60008111620002275760405162461bcd60e51b815260206004820152602760248201527f476f7665726e6f7253657474696e67733a20766f74696e6720706572696f6420604482015266746f6f206c6f7760c81b606482015260840160405180910390fd5b60055460408051918252602082018390527f7e3f7f0708a84de9203036abaa450dccc85ad5ff52f78c170f3edb55cf5e8828910160405180910390a1600555565b60065460408051918252602082018390527fccb45da8d5717e6c4544694297c4ba5cf151d455c9bb0ed4fc7a38411bc05461910160405180910390a1600655565b600854604080516001600160a01b03928316815291831660208301527f08f74ea46ef7894f65eabfb5e6e695de773a000b47c529ab559178069b226401910160405180910390a1600880546001600160a01b0319166001600160a01b0392909216919091179055565b8280546200032090620003f7565b90600052602060002090601f0160209004810192826200034457600085556200038f565b82601f106200035f57805160ff19168380011785556200038f565b828001600101855582156200038f579182015b828111156200038f57825182559160200191906001019062000372565b506200039d929150620003a1565b5090565b5b808211156200039d5760008155600101620003a2565b60008060408385031215620003cc57600080fd5b8251620003d98162000434565b6020840151909250620003ec8162000434565b809150509250929050565b600181811c908216806200040c57607f821691505b602082108114156200042e57634e487b7160e01b600052602260045260246000fd5b50919050565b6001600160a01b03811681146200044a57600080fd5b50565b60805160a05160c05160601c60e05161010051610120516101405160601c613ab2620004b5600039600081816108620152611ee1015260006121f1015260006122400152600061221b015260006121740152600061219e015260006121c80152613ab26000f3fe6080604052600436106102895760003560e01c80637d5e81e211610153578063c59057e4116100cb578063eb9019d41161007f578063f23a6e6111610064578063f23a6e6114610803578063f8ce560a1461082f578063fc0c546a1461085057600080fd5b8063eb9019d4146107c3578063ece40cc1146107e357600080fd5b8063dd4e2ba5116100b0578063dd4e2ba514610729578063deaaa7cc1461076f578063ea0217cf146107a357600080fd5b8063c59057e4146106d7578063d33219b4146106f757600080fd5b8063b58131b011610122578063bc197c8111610107578063bc197c811461066b578063c01f9e3714610697578063c28bc2fa146106b757600080fd5b8063b58131b014610641578063b9a619611461065657600080fd5b80637d5e81e2146105c15780639a802a6d146105e1578063a890c91014610601578063ab58fb8e1461062157600080fd5b80633932abb11161020157806354fd4d50116101b55780635f398a141161019a5780635f398a141461056157806370b0f660146105815780637b3c71d3146105a157600080fd5b806354fd4d5014610517578063567813881461054157600080fd5b80633e4f49e6116101e65780633e4f49e61461044b5780634385963214610478578063544ffc9c146104c257600080fd5b80633932abb1146104165780633bccf4fd1461042b57600080fd5b8063150b7a02116102585780632656227d1161023d5780632656227d146103af5780632d63f693146103c25780632fe3e261146103e257600080fd5b8063150b7a021461034b578063160cbed71461038f57600080fd5b806301ffc9a7146102b157806302a251a3146102e6578063034201811461030957806306fdde031461032957600080fd5b366102ac5730610297610884565b6001600160a01b0316146102aa57600080fd5b005b600080fd5b3480156102bd57600080fd5b506102d16102cc36600461329c565b61089d565b60405190151581526020015b60405180910390f35b3480156102f257600080fd5b506102fb6108ae565b6040519081526020016102dd565b34801561031557600080fd5b506102fb610324366004613472565b6108b9565b34801561033557600080fd5b5061033e6109b1565b6040516102dd9190613742565b34801561035757600080fd5b50610376610366366004612f66565b630a85bd0160e11b949350505050565b6040516001600160e01b031990911681526020016102dd565b34801561039b57600080fd5b506102fb6103aa36600461311c565b610a43565b6102fb6103bd36600461311c565b610e42565b3480156103ce57600080fd5b506102fb6103dd366004613351565b610f69565b3480156103ee57600080fd5b506102fb7fb3b3f3b703cd84ce352197dcff232b1b5d3cfb2025ce47cf04742d0651f1af8881565b34801561042257600080fd5b506102fb610fa2565b34801561043757600080fd5b506102fb610446366004613519565b610fad565b34801561045757600080fd5b5061046b610466366004613351565b611023565b6040516102dd919061371a565b34801561048457600080fd5b506102d161049336600461336a565b60008281526007602090815260408083206001600160a01b038516845260030190915290205460ff1692915050565b3480156104ce57600080fd5b506104fc6104dd366004613351565b6000908152600760205260409020805460018201546002909201549092565b604080519384526020840192909252908201526060016102dd565b34801561052357600080fd5b506040805180820190915260018152603160f81b602082015261033e565b34801561054d57600080fd5b506102fb61055c36600461339a565b61102e565b34801561056d57600080fd5b506102fb61057c366004613408565b611057565b34801561058d57600080fd5b506102aa61059c366004613351565b6110a1565b3480156105ad57600080fd5b506102fb6105bc3660046133c6565b61115b565b3480156105cd57600080fd5b506102fb6105dc3660046131ac565b6111ad565b3480156105ed57600080fd5b506102fb6105fc3660046130c3565b6111c4565b34801561060d57600080fd5b506102aa61061c366004613334565b6111db565b34801561062d57600080fd5b506102fb61063c366004613351565b611292565b34801561064d57600080fd5b506102fb6112bf565b34801561066257600080fd5b506102aa6112ca565b34801561067757600080fd5b50610376610686366004612eb8565b63bc197c8160e01b95945050505050565b3480156106a357600080fd5b506102fb6106b2366004613351565b611334565b3480156106c357600080fd5b506102aa6106d2366004613067565b611364565b3480156106e357600080fd5b506102fb6106f236600461311c565b61145b565b34801561070357600080fd5b506008546001600160a01b03165b6040516001600160a01b0390911681526020016102dd565b34801561073557600080fd5b506040805180820190915260208082527f737570706f72743d627261766f2671756f72756d3d666f722c6162737461696e9082015261033e565b34801561077b57600080fd5b506102fb7f150214d74d59b7d1e90c73fc22ef3d991dd0a76b046543d4d80ab92d2a50328f81565b3480156107af57600080fd5b506102aa6107be366004613351565b611495565b3480156107cf57600080fd5b506102fb6107de36600461303b565b61154c565b3480156107ef57600080fd5b506102aa6107fe366004613351565b61156d565b34801561080f57600080fd5b5061037661081e366004612fd2565b63f23a6e6160e01b95945050505050565b34801561083b57600080fd5b506102fb61084a366004613351565b50600390565b34801561085c57600080fd5b506107117f000000000000000000000000000000000000000000000000000000000000000081565b60006108986008546001600160a01b031690565b905090565b60006108a882611624565b92915050565b600061089860055490565b60008061095d6109557fb3b3f3b703cd84ce352197dcff232b1b5d3cfb2025ce47cf04742d0651f1af888c8c8c8c6040516108f592919061365c565b60405180910390208b8051906020012060405160200161093a959493929190948552602085019390935260ff9190911660408401526060830152608082015260a00190565b60405160208183030381529060405280519060200120611649565b868686611697565b90506109a38a828b8b8b8080601f0160208091040260200160405190810160405280939291908181526020018383808284376000920191909152508d92506116b5915050565b9a9950505050505050505050565b6060600080546109c0906139b9565b80601f01602080910402602001604051908101604052809291908181526020018280546109ec906139b9565b8015610a395780601f10610a0e57610100808354040283529160200191610a39565b820191906000526020600020905b815481529060010190602001808311610a1c57829003601f168201915b5050505050905090565b600080610a528686868661145b565b90506004610a5f82611023565b6007811115610a7057610a70613a25565b14610acc5760405162461bcd60e51b815260206004820152602160248201527f476f7665726e6f723a2070726f706f73616c206e6f74207375636365737366756044820152601b60fa1b60648201526084015b60405180910390fd5b60085460408051630d48571f60e31b815290516000926001600160a01b031691636a42b8f8916004808301926020929190829003018186803b158015610b1157600080fd5b505afa158015610b25573d6000803e3d6000fd5b505050506040513d601f19601f82011682018060405250810190610b499190613283565b610b539042613932565b9050610b8f610b6182611818565b600084815260096020526040902090815467ffffffffffffffff191667ffffffffffffffff91909116179055565b60005b8751811015610dfe5760085488516001600160a01b039091169063f2b06537908a9084908110610bc457610bc4613a3b565b6020026020010151898481518110610bde57610bde613a3b565b6020026020010151898581518110610bf857610bf8613a3b565b602002602001015186604051602001610c149493929190613688565b604051602081830303815290604052805190602001206040518263ffffffff1660e01b8152600401610c4891815260200190565b60206040518083038186803b158015610c6057600080fd5b505afa158015610c74573d6000803e3d6000fd5b505050506040513d601f19601f82011682018060405250810190610c989190613261565b15610d165760405162461bcd60e51b815260206004820152604260248201527f476f7665726e6f7254696d656c6f636b436f6d706f756e643a206964656e746960448201527f63616c2070726f706f73616c20616374696f6e20616c72656164792071756575606482015261195960f21b608482015260a401610ac3565b60085488516001600160a01b0390911690633a66f901908a9084908110610d3f57610d3f613a3b565b6020026020010151898481518110610d5957610d59613a3b565b6020026020010151898581518110610d7357610d73613a3b565b6020026020010151866040518563ffffffff1660e01b8152600401610d9b9493929190613688565b602060405180830381600087803b158015610db557600080fd5b505af1158015610dc9573d6000803e3d6000fd5b505050506040513d601f19601f82011682018060405250810190610ded9190613283565b50610df7816139f4565b9050610b92565b5060408051838152602081018390527f9a2e42fd6722813d69113e7d0079d3d940171428df7373df9c7f7617cfda2892910160405180910390a15095945050505050565b600080610e518686868661145b565b90506000610e5e82611023565b90506004816007811115610e7457610e74613a25565b1480610e9157506005816007811115610e8f57610e8f613a25565b145b610ee75760405162461bcd60e51b815260206004820152602160248201527f476f7665726e6f723a2070726f706f73616c206e6f74207375636365737366756044820152601b60fa1b6064820152608401610ac3565b600082815260016020818152604092839020600201805460ff191690921790915590518381527f712ae1383f79ac853f8d882153778e0260ef8f03b504e2866e0593e04d2b291f910160405180910390a1610f45828888888861189c565b610f52828888888861193e565b610f5f828888888861194b565b5095945050505050565b600081815260016020908152604080832081519283019091525467ffffffffffffffff16908190525b67ffffffffffffffff1692915050565b600061089860045490565b604080517f150214d74d59b7d1e90c73fc22ef3d991dd0a76b046543d4d80ab92d2a50328f602082015290810186905260ff851660608201526000908190610ffb906109559060800161093a565b905061101887828860405180602001604052806000815250611988565b979650505050505050565b60006108a8826119ab565b60008033905061104f84828560405180602001604052806000815250611988565b949350505050565b60008033905061101887828888888080601f0160208091040260200160405190810160405280939291908181526020018383808284376000920191909152508a92506116b5915050565b6110a9610884565b6001600160a01b0316336001600160a01b0316146111045760405162461bcd60e51b8152602060048201526018602482015277476f7665726e6f723a206f6e6c79476f7665726e616e636560401b6044820152606401610ac3565b3061110d610884565b6001600160a01b03161461114f576000803660405161112d92919061365c565b604051809103902090505b806111436002611a9b565b1461114d57611138565b505b61115881611b30565b50565b6000803390506111a386828787878080601f01602080910402602001604051908101604052809392919081815260200183838082843760009201919091525061198892505050565b9695505050505050565b60006111bb85858585611b71565b95945050505050565b60006111d1848484611eb8565b90505b9392505050565b6111e3610884565b6001600160a01b0316336001600160a01b03161461123e5760405162461bcd60e51b8152602060048201526018602482015277476f7665726e6f723a206f6e6c79476f7665726e616e636560401b6044820152606401610ac3565b30611247610884565b6001600160a01b031614611289576000803660405161126792919061365c565b604051809103902090505b8061127d6002611a9b565b1461128757611272565b505b61115881611f5d565b600081815260096020908152604080832081519283019091525467ffffffffffffffff1690819052610f92565b600061089860065490565b600860009054906101000a90046001600160a01b03166001600160a01b0316630e18b6816040518163ffffffff1660e01b8152600401600060405180830381600087803b15801561131a57600080fd5b505af115801561132e573d6000803e3d6000fd5b50505050565b600081815260016020818152604080842081519283019091529091015467ffffffffffffffff1690819052610f92565b61136c610884565b6001600160a01b0316336001600160a01b0316146113c75760405162461bcd60e51b8152602060048201526018602482015277476f7665726e6f723a206f6e6c79476f7665726e616e636560401b6044820152606401610ac3565b306113d0610884565b6001600160a01b03161461141257600080366040516113f092919061365c565b604051809103902090505b806114066002611a9b565b14611410576113fb565b505b6114548483838080601f016020809104026020016040519081016040528093929190818152602001838380828437600092019190915250889250611fde915050565b5050505050565b60008484848460405160200161147494939291906136cf565b60408051601f19818403018152919052805160209091012095945050505050565b61149d610884565b6001600160a01b0316336001600160a01b0316146114f85760405162461bcd60e51b8152602060048201526018602482015277476f7665726e6f723a206f6e6c79476f7665726e616e636560401b6044820152606401610ac3565b30611501610884565b6001600160a01b031614611543576000803660405161152192919061365c565b604051809103902090505b806115376002611a9b565b146115415761152c565b505b61115881612004565b60006111d4838361156860408051602081019091526000815290565b611eb8565b611575610884565b6001600160a01b0316336001600160a01b0316146115d05760405162461bcd60e51b8152602060048201526018602482015277476f7665726e6f723a206f6e6c79476f7665726e616e636560401b6044820152606401610ac3565b306115d9610884565b6001600160a01b03161461161b57600080366040516115f992919061365c565b604051809103902090505b8061160f6002611a9b565b1461161957611604565b505b611158816120bb565b60006001600160e01b03198216636e665ced60e01b14806108a857506108a8826120fc565b60006108a8611656612167565b8360405161190160f01b6020820152602281018390526042810182905260009060620160405160208183030381529060405280519060200120905092915050565b60008060006116a88787878761228e565b91509150610f5f8161237b565b60008581526001602081905260408220906116cf88611023565b60078111156116e0576116e0613a25565b146117395760405162461bcd60e51b815260206004820152602360248201527f476f7665726e6f723a20766f7465206e6f742063757272656e746c792061637460448201526269766560e81b6064820152608401610ac3565b6040805160208101909152815467ffffffffffffffff169081905260009061176390889086611eb8565b90506117728888888488612536565b83516117c457866001600160a01b03167fb8e138887d0aa13bab447e82de9d5c1777041ecd21ca36ba824ff1e6c07ddda4898884896040516117b79493929190613847565b60405180910390a2611018565b866001600160a01b03167fe2babfbac5889a709b63bb7f598b324e08bc5a4fb9ec647fb3cbc9ec07eb8712898884898960405161180595949392919061386f565b60405180910390a2979650505050505050565b600067ffffffffffffffff8211156118985760405162461bcd60e51b815260206004820152602660248201527f53616665436173743a2076616c756520646f65736e27742066697420696e203660448201527f34206269747300000000000000000000000000000000000000000000000000006064820152608401610ac3565b5090565b306118a5610884565b6001600160a01b0316146114545760005b845181101561193657306001600160a01b03168582815181106118db576118db613a3b565b60200260200101516001600160a01b031614156119265761192683828151811061190757611907613a3b565b60200260200101518051906020012060026126d390919063ffffffff16565b61192f816139f4565b90506118b6565b505050505050565b6114548585858585612722565b30611954610884565b6001600160a01b03161461145457600254600f81810b810b600160801b909204810b900b1315611454576000600255611454565b60006111bb858585856119a660408051602081019091526000815290565b6116b5565b6000806119b7836128bc565b905060048160078111156119cd576119cd613a25565b146119d85792915050565b60006119e384611292565b9050806119f1575092915050565b600860009054906101000a90046001600160a01b03166001600160a01b031663c1a287e26040518163ffffffff1660e01b815260040160206040518083038186803b158015611a3f57600080fd5b505afa158015611a53573d6000803e3d6000fd5b505050506040513d601f19601f82011682018060405250810190611a779190613283565b611a819082613932565b4210611a91575060069392505050565b5060059392505050565b6000611aba8254600f81810b810b600160801b909204810b900b131590565b15611ad857604051631ed9509560e11b815260040160405180910390fd5b508054600f90810b80820b820b600090815260018085016020526040822080549290558454920190920b6fffffffffffffffffffffffffffffffff166fffffffffffffffffffffffffffffffff199091161790915590565b60045460408051918252602082018390527fc565b045403dc03c2eea82b81a0465edad9e2e7fc4d97e11421c209da93d7a93910160405180910390a1600455565b6000611b7b6112bf565b611b8a336107de600143613976565b1015611bfe5760405162461bcd60e51b815260206004820152603160248201527f476f7665726e6f723a2070726f706f73657220766f7465732062656c6f77207060448201527f726f706f73616c207468726573686f6c640000000000000000000000000000006064820152608401610ac3565b6000611c13868686868051906020012061145b565b90508451865114611c705760405162461bcd60e51b815260206004820152602160248201527f476f7665726e6f723a20696e76616c69642070726f706f73616c206c656e67746044820152600d60fb1b6064820152608401610ac3565b8351865114611ccb5760405162461bcd60e51b815260206004820152602160248201527f476f7665726e6f723a20696e76616c69642070726f706f73616c206c656e67746044820152600d60fb1b6064820152608401610ac3565b6000865111611d1c5760405162461bcd60e51b815260206004820152601860248201527f476f7665726e6f723a20656d7074792070726f706f73616c00000000000000006044820152606401610ac3565b6000818152600160209081526040918290208251918201909252815467ffffffffffffffff169081905215611d9d5760405162461bcd60e51b815260206004820152602160248201527f476f7665726e6f723a2070726f706f73616c20616c72656164792065786973746044820152607360f81b6064820152608401610ac3565b6000611daf611daa610fa2565b611818565b611db843611818565b611dc2919061394a565b90506000611dd1611daa6108ae565b611ddb908361394a565b835467ffffffffffffffff191667ffffffffffffffff8416178455905060018301805467ffffffffffffffff191667ffffffffffffffff83161790557f7d84a6263ae0d98d3329bd7b46bb4e8d6f98cd35a7adb45c274c8b7fd5ebd5e084338b8b8d5167ffffffffffffffff811115611e5657611e56613a51565b604051908082528060200260200182016040528015611e8957816020015b6060815260200190600190039081611e745790505b508c88888e604051611ea399989796959493929190613755565b60405180910390a15091979650505050505050565b604051630748d63560e31b81526001600160a01b038481166004830152602482018490526000917f000000000000000000000000000000000000000000000000000000000000000090911690633a46b1a89060440160206040518083038186803b158015611f2557600080fd5b505afa158015611f39573d6000803e3d6000fd5b505050506040513d601f19601f820116820180604052508101906111d19190613283565b600854604080516001600160a01b03928316815291831660208301527f08f74ea46ef7894f65eabfb5e6e695de773a000b47c529ab559178069b226401910160405180910390a1600880547fffffffffffffffffffffffff0000000000000000000000000000000000000000166001600160a01b0392909216919091179055565b60606111d1848484604051806060016040528060298152602001613a7d602991396129c8565b6000811161207a5760405162461bcd60e51b815260206004820152602760248201527f476f7665726e6f7253657474696e67733a20766f74696e6720706572696f642060448201527f746f6f206c6f77000000000000000000000000000000000000000000000000006064820152608401610ac3565b60055460408051918252602082018390527f7e3f7f0708a84de9203036abaa450dccc85ad5ff52f78c170f3edb55cf5e8828910160405180910390a1600555565b60065460408051918252602082018390527fccb45da8d5717e6c4544694297c4ba5cf151d455c9bb0ed4fc7a38411bc05461910160405180910390a1600655565b60006001600160e01b0319821663bf26d89760e01b148061212d57506001600160e01b031982166379dd796f60e01b145b8061214857506001600160e01b03198216630271189760e51b145b806108a857506301ffc9a760e01b6001600160e01b03198316146108a8565b6000306001600160a01b037f0000000000000000000000000000000000000000000000000000000000000000161480156121c057507f000000000000000000000000000000000000000000000000000000000000000046145b156121ea57507f000000000000000000000000000000000000000000000000000000000000000090565b50604080517f00000000000000000000000000000000000000000000000000000000000000006020808301919091527f0000000000000000000000000000000000000000000000000000000000000000828401527f000000000000000000000000000000000000000000000000000000000000000060608301524660808301523060a0808401919091528351808403909101815260c0909201909252805191012090565b6000807f7fffffffffffffffffffffffffffffff5d576e7357a4501ddfe92f46681b20a08311156122c55750600090506003612372565b8460ff16601b141580156122dd57508460ff16601c14155b156122ee5750600090506004612372565b6040805160008082526020820180845289905260ff881692820192909252606081018690526080810185905260019060a0016020604051602081039080840390855afa158015612342573d6000803e3d6000fd5b5050604051601f1901519150506001600160a01b03811661236b57600060019250925050612372565b9150600090505b94509492505050565b600081600481111561238f5761238f613a25565b14156123985750565b60018160048111156123ac576123ac613a25565b14156123fa5760405162461bcd60e51b815260206004820152601860248201527f45434453413a20696e76616c6964207369676e617475726500000000000000006044820152606401610ac3565b600281600481111561240e5761240e613a25565b141561245c5760405162461bcd60e51b815260206004820152601f60248201527f45434453413a20696e76616c6964207369676e6174757265206c656e677468006044820152606401610ac3565b600381600481111561247057612470613a25565b14156124c95760405162461bcd60e51b815260206004820152602260248201527f45434453413a20696e76616c6964207369676e6174757265202773272076616c604482015261756560f01b6064820152608401610ac3565b60048160048111156124dd576124dd613a25565b14156111585760405162461bcd60e51b815260206004820152602260248201527f45434453413a20696e76616c6964207369676e6174757265202776272076616c604482015261756560f01b6064820152608401610ac3565b60008581526007602090815260408083206001600160a01b0388168452600381019092529091205460ff16156125d45760405162461bcd60e51b815260206004820152602760248201527f476f7665726e6f72566f74696e6753696d706c653a20766f746520616c72656160448201527f64792063617374000000000000000000000000000000000000000000000000006064820152608401610ac3565b6001600160a01b03851660009081526003820160205260408120805460ff1916600117905560ff168460ff161415612625578281600001600082825461261a9190613932565b909155506119369050565b60ff841660011415612645578281600101600082825461261a9190613932565b60ff841660021415612665578281600201600082825461261a9190613932565b60405162461bcd60e51b815260206004820152603560248201527f476f7665726e6f72566f74696e6753696d706c653a20696e76616c696420766160448201527f6c756520666f7220656e756d20566f74655479706500000000000000000000006064820152608401610ac3565b8154600160801b90819004600f90810b80820b820b6000908152600180870160205260409091209490945584549301900b6fffffffffffffffffffffffffffffffff9081169091029116179055565b600061272d86611292565b9050600081116127a55760405162461bcd60e51b815260206004820152603160248201527f476f7665726e6f7254696d656c6f636b436f6d706f756e643a2070726f706f7360448201527f616c206e6f7420796574207175657565640000000000000000000000000000006064820152608401610ac3565b6008546127bb906001600160a01b031634612b05565b60005b85518110156128b35760085486516001600160a01b0390911690630825f38f908890849081106127f0576127f0613a3b565b602002602001015187848151811061280a5761280a613a3b565b602002602001015187858151811061282457612824613a3b565b6020026020010151866040518563ffffffff1660e01b815260040161284c9493929190613688565b600060405180830381600087803b15801561286657600080fd5b505af115801561287a573d6000803e3d6000fd5b505050506040513d6000823e601f3d908101601f191682016040526128a291908101906132c6565b506128ac816139f4565b90506127be565b50505050505050565b6000818152600160205260408120600281015460ff16156128e05750600792915050565b6002810154610100900460ff16156128fb5750600292915050565b600061290684610f69565b9050806129555760405162461bcd60e51b815260206004820152601d60248201527f476f7665726e6f723a20756e6b6e6f776e2070726f706f73616c2069640000006044820152606401610ac3565b438110612966575060009392505050565b600061297185611334565b905043811061298557506001949350505050565b61298e85612c23565b80156129ad575060008581526007602052604090208054600190910154115b156129bd57506004949350505050565b506003949350505050565b606082471015612a405760405162461bcd60e51b815260206004820152602660248201527f416464726573733a20696e73756666696369656e742062616c616e636520666f60448201527f722063616c6c00000000000000000000000000000000000000000000000000006064820152608401610ac3565b6001600160a01b0385163b612a975760405162461bcd60e51b815260206004820152601d60248201527f416464726573733a2063616c6c20746f206e6f6e2d636f6e74726163740000006044820152606401610ac3565b600080866001600160a01b03168587604051612ab3919061366c565b60006040518083038185875af1925050503d8060008114612af0576040519150601f19603f3d011682016040523d82523d6000602084013e612af5565b606091505b5091509150611018828286612c5a565b80471015612b555760405162461bcd60e51b815260206004820152601d60248201527f416464726573733a20696e73756666696369656e742062616c616e63650000006044820152606401610ac3565b6000826001600160a01b03168260405160006040518083038185875af1925050503d8060008114612ba2576040519150601f19603f3d011682016040523d82523d6000602084013e612ba7565b606091505b5050905080612c1e5760405162461bcd60e51b815260206004820152603a60248201527f416464726573733a20756e61626c6520746f2073656e642076616c75652c207260448201527f6563697069656e74206d617920686176652072657665727465640000000000006064820152608401610ac3565b505050565b600081815260076020526040812060028101546001820154612c459190613932565b612c5161084a85610f69565b11159392505050565b60608315612c695750816111d4565b825115612c795782518084602001fd5b8160405162461bcd60e51b8152600401610ac39190613742565b6000612ca6612ca18461390a565b6138b5565b9050828152838383011115612cba57600080fd5b828260208301376000602084830101529392505050565b600082601f830112612ce257600080fd5b81356020612cf2612ca1836138e6565b80838252828201915082860187848660051b8901011115612d1257600080fd5b60005b85811015612d3a578135612d2881613a67565b84529284019290840190600101612d15565b5090979650505050505050565b600082601f830112612d5857600080fd5b81356020612d68612ca1836138e6565b80838252828201915082860187848660051b8901011115612d8857600080fd5b6000805b86811015612dcb57823567ffffffffffffffff811115612daa578283fd5b612db88b88838d0101612e82565b8652509385019391850191600101612d8c565b509198975050505050505050565b600082601f830112612dea57600080fd5b81356020612dfa612ca1836138e6565b80838252828201915082860187848660051b8901011115612e1a57600080fd5b60005b85811015612d3a57813584529284019290840190600101612e1d565b60008083601f840112612e4b57600080fd5b50813567ffffffffffffffff811115612e6357600080fd5b602083019150836020828501011115612e7b57600080fd5b9250929050565b600082601f830112612e9357600080fd5b6111d483833560208501612c93565b803560ff81168114612eb357600080fd5b919050565b600080600080600060a08688031215612ed057600080fd5b8535612edb81613a67565b94506020860135612eeb81613a67565b9350604086013567ffffffffffffffff80821115612f0857600080fd5b612f1489838a01612dd9565b94506060880135915080821115612f2a57600080fd5b612f3689838a01612dd9565b93506080880135915080821115612f4c57600080fd5b50612f5988828901612e82565b9150509295509295909350565b60008060008060808587031215612f7c57600080fd5b8435612f8781613a67565b93506020850135612f9781613a67565b925060408501359150606085013567ffffffffffffffff811115612fba57600080fd5b612fc687828801612e82565b91505092959194509250565b600080600080600060a08688031215612fea57600080fd5b8535612ff581613a67565b9450602086013561300581613a67565b93506040860135925060608601359150608086013567ffffffffffffffff81111561302f57600080fd5b612f5988828901612e82565b6000806040838503121561304e57600080fd5b823561305981613a67565b946020939093013593505050565b6000806000806060858703121561307d57600080fd5b843561308881613a67565b935060208501359250604085013567ffffffffffffffff8111156130ab57600080fd5b6130b787828801612e39565b95989497509550505050565b6000806000606084860312156130d857600080fd5b83356130e381613a67565b925060208401359150604084013567ffffffffffffffff81111561310657600080fd5b61311286828701612e82565b9150509250925092565b6000806000806080858703121561313257600080fd5b843567ffffffffffffffff8082111561314a57600080fd5b61315688838901612cd1565b9550602087013591508082111561316c57600080fd5b61317888838901612dd9565b9450604087013591508082111561318e57600080fd5b5061319b87828801612d47565b949793965093946060013593505050565b600080600080608085870312156131c257600080fd5b843567ffffffffffffffff808211156131da57600080fd5b6131e688838901612cd1565b955060208701359150808211156131fc57600080fd5b61320888838901612dd9565b9450604087013591508082111561321e57600080fd5b61322a88838901612d47565b9350606087013591508082111561324057600080fd5b508501601f8101871361325257600080fd5b612fc687823560208401612c93565b60006020828403121561327357600080fd5b815180151581146111d457600080fd5b60006020828403121561329557600080fd5b5051919050565b6000602082840312156132ae57600080fd5b81356001600160e01b0319811681146111d457600080fd5b6000602082840312156132d857600080fd5b815167ffffffffffffffff8111156132ef57600080fd5b8201601f8101841361330057600080fd5b805161330e612ca18261390a565b81815285602083850101111561332357600080fd5b6111bb82602083016020860161398d565b60006020828403121561334657600080fd5b81356111d481613a67565b60006020828403121561336357600080fd5b5035919050565b6000806040838503121561337d57600080fd5b82359150602083013561338f81613a67565b809150509250929050565b600080604083850312156133ad57600080fd5b823591506133bd60208401612ea2565b90509250929050565b600080600080606085870312156133dc57600080fd5b843593506133ec60208601612ea2565b9250604085013567ffffffffffffffff8111156130ab57600080fd5b60008060008060006080868803121561342057600080fd5b8535945061343060208701612ea2565b9350604086013567ffffffffffffffff8082111561344d57600080fd5b61345989838a01612e39565b90955093506060880135915080821115612f4c57600080fd5b60008060008060008060008060e0898b03121561348e57600080fd5b8835975061349e60208a01612ea2565b9650604089013567ffffffffffffffff808211156134bb57600080fd5b6134c78c838d01612e39565b909850965060608b01359150808211156134e057600080fd5b506134ed8b828c01612e82565b9450506134fc60808a01612ea2565b925060a0890135915060c089013590509295985092959890939650565b600080600080600060a0868803121561353157600080fd5b8535945061354160208701612ea2565b935061354f60408701612ea2565b94979396509394606081013594506080013592915050565b600081518084526020808501945080840160005b838110156135a05781516001600160a01b03168752958201959082019060010161357b565b509495945050505050565b600081518084526020808501808196508360051b8101915082860160005b858110156135f35782840389526135e1848351613630565b988501989350908401906001016135c9565b5091979650505050505050565b600081518084526020808501945080840160005b838110156135a057815187529582019590820190600101613614565b6000815180845261364881602086016020860161398d565b601f01601f19169290920160200192915050565b8183823760009101908152919050565b6000825161367e81846020870161398d565b9190910192915050565b6001600160a01b038516815283602082015260a06040820152600060a082015260c0606082015260006136be60c0830185613630565b905082608083015295945050505050565b6080815260006136e26080830187613567565b82810360208401526136f48187613600565b9050828103604084015261370881866135ab565b91505082606083015295945050505050565b602081016008831061373c57634e487b7160e01b600052602160045260246000fd5b91905290565b6020815260006111d46020830184613630565b60006101208b835260206001600160a01b038c168185015281604085015261377f8285018c613567565b91508382036060850152613793828b613600565b915083820360808501528189518084528284019150828160051b850101838c0160005b838110156137e457601f198784030185526137d2838351613630565b948601949250908501906001016137b6565b505086810360a08801526137f8818c6135ab565b94505050505061381460c084018767ffffffffffffffff169052565b67ffffffffffffffff851660e08401528281036101008401526138378185613630565b9c9b505050505050505050505050565b84815260ff841660208201528260408201526080606082015260006111a36080830184613630565b85815260ff8516602082015283604082015260a06060820152600061389760a0830185613630565b82810360808401526138a98185613630565b98975050505050505050565b604051601f8201601f1916810167ffffffffffffffff811182821017156138de576138de613a51565b604052919050565b600067ffffffffffffffff82111561390057613900613a51565b5060051b60200190565b600067ffffffffffffffff82111561392457613924613a51565b50601f01601f191660200190565b6000821982111561394557613945613a0f565b500190565b600067ffffffffffffffff80831681851680830382111561396d5761396d613a0f565b01949350505050565b60008282101561398857613988613a0f565b500390565b60005b838110156139a8578181015183820152602001613990565b8381111561132e5750506000910152565b600181811c908216806139cd57607f821691505b602082108114156139ee57634e487b7160e01b600052602260045260246000fd5b50919050565b6000600019821415613a0857613a08613a0f565b5060010190565b634e487b7160e01b600052601160045260246000fd5b634e487b7160e01b600052602160045260246000fd5b634e487b7160e01b600052603260045260246000fd5b634e487b7160e01b600052604160045260246000fd5b6001600160a01b038116811461115857600080fdfe416464726573733a206c6f772d6c6576656c2063616c6c20776974682076616c7565206661696c6564a164736f6c6343000806000a",
  "linkReferences": {},
  "deployedLinkReferences": {}
}